{
  "_format": "hh-sol-artifact-1",
  "contractName": "ERC721A",
  "sourceName": "contracts/ERC721A.sol",
  "abi": [
    {
      "inputs": [
        {
          "internalType": "string",
          "name": "name_",
          "type": "string"
        },
        {
          "internalType": "string",
          "name": "symbol_",
          "type": "string"
        }
      ],
      "stateMutability": "nonpayable",
      "type": "constructor"
    },
    {
      "inputs": [],
      "name": "ApprovalCallerNotOwnerNorApproved",
      "type": "error"
    },
    {
      "inputs": [],
      "name": "ApprovalQueryForNonexistentToken",
      "type": "error"
    },
    {
      "inputs": [],
      "name": "ApprovalToCurrentOwner",
      "type": "error"
    },
    {
      "inputs": [],
      "name": "ApproveToCaller",
      "type": "error"
    },
    {
      "inputs": [],
      "name": "BalanceQueryForZeroAddress",
      "type": "error"
    },
    {
      "inputs": [],
      "name": "OwnerIndexOutOfBounds",
      "type": "error"
    },
    {
      "inputs": [],
      "name": "OwnerQueryForNonexistentToken",
      "type": "error"
    },
    {
      "inputs": [],
      "name": "TokenIndexOutOfBounds",
      "type": "error"
    },
    {
      "inputs": [],
      "name": "TransferCallerNotOwnerNorApproved",
      "type": "error"
    },
    {
      "inputs": [],
      "name": "TransferFromIncorrectOwner",
      "type": "error"
    },
    {
      "inputs": [],
      "name": "TransferToNonERC721ReceiverImplementer",
      "type": "error"
    },
    {
      "inputs": [],
      "name": "TransferToZeroAddress",
      "type": "error"
    },
    {
      "inputs": [],
      "name": "URIQueryForNonexistentToken",
      "type": "error"
    },
    {
      "anonymous": false,
      "inputs": [
        {
          "indexed": true,
          "internalType": "address",
          "name": "owner",
          "type": "address"
        },
        {
          "indexed": true,
          "internalType": "address",
          "name": "approved",
          "type": "address"
        },
        {
          "indexed": true,
          "internalType": "uint256",
          "name": "tokenId",
          "type": "uint256"
        }
      ],
      "name": "Approval",
      "type": "event"
    },
    {
      "anonymous": false,
      "inputs": [
        {
          "indexed": true,
          "internalType": "address",
          "name": "owner",
          "type": "address"
        },
        {
          "indexed": true,
          "internalType": "address",
          "name": "operator",
          "type": "address"
        },
        {
          "indexed": false,
          "internalType": "bool",
          "name": "approved",
          "type": "bool"
        }
      ],
      "name": "ApprovalForAll",
      "type": "event"
    },
    {
      "anonymous": false,
      "inputs": [
        {
          "indexed": true,
          "internalType": "address",
          "name": "from",
          "type": "address"
        },
        {
          "indexed": true,
          "internalType": "address",
          "name": "to",
          "type": "address"
        },
        {
          "indexed": true,
          "internalType": "uint256",
          "name": "tokenId",
          "type": "uint256"
        }
      ],
      "name": "Transfer",
      "type": "event"
    },
    {
      "inputs": [
        {
          "internalType": "address",
          "name": "to",
          "type": "address"
        },
        {
          "internalType": "uint256",
          "name": "tokenId",
          "type": "uint256"
        }
      ],
      "name": "approve",
      "outputs": [],
      "stateMutability": "nonpayable",
      "type": "function"
    },
    {
      "inputs": [
        {
          "internalType": "address",
          "name": "owner",
          "type": "address"
        }
      ],
      "name": "balanceOf",
      "outputs": [
        {
          "internalType": "uint256",
          "name": "",
          "type": "uint256"
        }
      ],
      "stateMutability": "view",
      "type": "function"
    },
    {
      "inputs": [
        {
          "internalType": "uint256",
          "name": "tokenId",
          "type": "uint256"
        }
      ],
      "name": "getApproved",
      "outputs": [
        {
          "internalType": "address",
          "name": "",
          "type": "address"
        }
      ],
      "stateMutability": "view",
      "type": "function"
    },
    {
      "inputs": [
        {
          "internalType": "address",
          "name": "owner",
          "type": "address"
        },
        {
          "internalType": "address",
          "name": "operator",
          "type": "address"
        }
      ],
      "name": "isApprovedForAll",
      "outputs": [
        {
          "internalType": "bool",
          "name": "",
          "type": "bool"
        }
      ],
      "stateMutability": "view",
      "type": "function"
    },
    {
      "inputs": [],
      "name": "name",
      "outputs": [
        {
          "internalType": "string",
          "name": "",
          "type": "string"
        }
      ],
      "stateMutability": "view",
      "type": "function"
    },
    {
      "inputs": [
        {
          "internalType": "uint256",
          "name": "tokenId",
          "type": "uint256"
        }
      ],
      "name": "ownerOf",
      "outputs": [
        {
          "internalType": "address",
          "name": "",
          "type": "address"
        }
      ],
      "stateMutability": "view",
      "type": "function"
    },
    {
      "inputs": [
        {
          "internalType": "address",
          "name": "from",
          "type": "address"
        },
        {
          "internalType": "address",
          "name": "to",
          "type": "address"
        },
        {
          "internalType": "uint256",
          "name": "tokenId",
          "type": "uint256"
        }
      ],
      "name": "safeTransferFrom",
      "outputs": [],
      "stateMutability": "nonpayable",
      "type": "function"
    },
    {
      "inputs": [
        {
          "internalType": "address",
          "name": "from",
          "type": "address"
        },
        {
          "internalType": "address",
          "name": "to",
          "type": "address"
        },
        {
          "internalType": "uint256",
          "name": "tokenId",
          "type": "uint256"
        },
        {
          "internalType": "bytes",
          "name": "_data",
          "type": "bytes"
        }
      ],
      "name": "safeTransferFrom",
      "outputs": [],
      "stateMutability": "nonpayable",
      "type": "function"
    },
    {
      "inputs": [
        {
          "internalType": "address",
          "name": "operator",
          "type": "address"
        },
        {
          "internalType": "bool",
          "name": "approved",
          "type": "bool"
        }
      ],
      "name": "setApprovalForAll",
      "outputs": [],
      "stateMutability": "nonpayable",
      "type": "function"
    },
    {
      "inputs": [
        {
          "internalType": "bytes4",
          "name": "interfaceId",
          "type": "bytes4"
        }
      ],
      "name": "supportsInterface",
      "outputs": [
        {
          "internalType": "bool",
          "name": "",
          "type": "bool"
        }
      ],
      "stateMutability": "view",
      "type": "function"
    },
    {
      "inputs": [],
      "name": "symbol",
      "outputs": [
        {
          "internalType": "string",
          "name": "",
          "type": "string"
        }
      ],
      "stateMutability": "view",
      "type": "function"
    },
    {
      "inputs": [
        {
          "internalType": "uint256",
          "name": "index",
          "type": "uint256"
        }
      ],
      "name": "tokenByIndex",
      "outputs": [
        {
          "internalType": "uint256",
          "name": "",
          "type": "uint256"
        }
      ],
      "stateMutability": "view",
      "type": "function"
    },
    {
      "inputs": [
        {
          "internalType": "address",
          "name": "owner",
          "type": "address"
        },
        {
          "internalType": "uint256",
          "name": "index",
          "type": "uint256"
        }
      ],
      "name": "tokenOfOwnerByIndex",
      "outputs": [
        {
          "internalType": "uint256",
          "name": "",
          "type": "uint256"
        }
      ],
      "stateMutability": "view",
      "type": "function"
    },
    {
      "inputs": [
        {
          "internalType": "uint256",
          "name": "tokenId",
          "type": "uint256"
        }
      ],
      "name": "tokenURI",
      "outputs": [
        {
          "internalType": "string",
          "name": "",
          "type": "string"
        }
      ],
      "stateMutability": "view",
      "type": "function"
    },
    {
      "inputs": [],
      "name": "totalSupply",
      "outputs": [
        {
          "internalType": "uint256",
          "name": "",
          "type": "uint256"
        }
      ],
      "stateMutability": "view",
      "type": "function"
    },
    {
      "inputs": [
        {
          "internalType": "address",
          "name": "from",
          "type": "address"
        },
        {
          "internalType": "address",
          "name": "to",
          "type": "address"
        },
        {
          "internalType": "uint256",
          "name": "tokenId",
          "type": "uint256"
        }
      ],
      "name": "transferFrom",
      "outputs": [],
      "stateMutability": "nonpayable",
      "type": "function"
    }
  ],
  "bytecode": "0x60806040523480156200001157600080fd5b506040516200151a3803806200151a8339810160408190526200003491620001c5565b81516200004990600190602085019062000068565b5080516200005f90600290602084019062000068565b50505062000282565b82805462000076906200022f565b90600052602060002090601f0160209004810192826200009a5760008555620000e5565b82601f10620000b557805160ff1916838001178555620000e5565b82800160010185558215620000e5579182015b82811115620000e5578251825591602001919060010190620000c8565b50620000f3929150620000f7565b5090565b5b80821115620000f35760008155600101620000f8565b600082601f8301126200012057600080fd5b81516001600160401b03808211156200013d576200013d6200026c565b604051601f8301601f19908116603f011681019082821181831017156200016857620001686200026c565b816040528381526020925086838588010111156200018557600080fd5b600091505b83821015620001a957858201830151818301840152908201906200018a565b83821115620001bb5760008385830101525b9695505050505050565b60008060408385031215620001d957600080fd5b82516001600160401b0380821115620001f157600080fd5b620001ff868387016200010e565b935060208501519150808211156200021657600080fd5b5062000225858286016200010e565b9150509250929050565b600181811c908216806200024457607f821691505b602082108114156200026657634e487b7160e01b600052602260045260246000fd5b50919050565b634e487b7160e01b600052604160045260246000fd5b61128880620002926000396000f3fe608060405234801561001057600080fd5b50600436106101005760003560e01c80634f6ccce711610097578063a22cb46511610066578063a22cb46514610239578063b88d4fde1461024c578063c87b56dd1461025f578063e985e9c51461027257600080fd5b80634f6ccce7146101f85780636352211e1461020b57806370a082311461021e57806395d89b411461023157600080fd5b806318160ddd116100d357806318160ddd1461018257806323b872dd146101bf5780632f745c59146101d257806342842e0e146101e557600080fd5b806301ffc9a71461010557806306fdde031461012d578063081812fc14610142578063095ea7b31461016d575b600080fd5b61011861011336600461100b565b6102ae565b60405190151581526020015b60405180910390f35b61013561031b565b60405161012491906110f5565b610155610150366004611045565b6103ad565b6040516001600160a01b039091168152602001610124565b61018061017b366004610fe1565b6103f1565b005b6101b16000546001600160801b0370010000000000000000000000000000000082048116918116919091031690565b604051908152602001610124565b6101806101cd366004610e8d565b61047f565b6101b16101e0366004610fe1565b61048a565b6101806101f3366004610e8d565b610587565b6101b1610206366004611045565b6105a2565b610155610219366004611045565b61064d565b6101b161022c366004610e3f565b61065f565b6101356106ae565b610180610247366004610fa5565b6106bd565b61018061025a366004610ec9565b610753565b61013561026d366004611045565b61078d565b610118610280366004610e5a565b6001600160a01b03918216600090815260066020908152604080832093909416825291909152205460ff1690565b60006001600160e01b031982166380ac58cd60e01b14806102df57506001600160e01b03198216635b5e139f60e01b145b806102fa57506001600160e01b0319821663780e9d6360e01b145b8061031557506301ffc9a760e01b6001600160e01b03198316145b92915050565b60606001805461032a90611177565b80601f016020809104026020016040519081016040528092919081815260200182805461035690611177565b80156103a35780601f10610378576101008083540402835291602001916103a3565b820191906000526020600020905b81548152906001019060200180831161038657829003601f168201915b5050505050905090565b60006103b88261081f565b6103d5576040516333d1c03960e21b815260040160405180910390fd5b506000908152600560205260409020546001600160a01b031690565b60006103fc8261064d565b9050806001600160a01b0316836001600160a01b031614156104315760405163250fdee360e21b815260040160405180910390fd5b336001600160a01b03821614801590610451575061044f8133610280565b155b1561046f576040516367d9dca160e11b815260040160405180910390fd5b61047a838383610853565b505050565b61047a8383836108bc565b60006104958361065f565b82106104b4576040516306ed618760e11b815260040160405180910390fd5b600080546001600160801b03169080805b8381101561058157600081815260036020908152604091829020825160608101845290546001600160a01b0381168252600160a01b810467ffffffffffffffff1692820192909252600160e01b90910460ff16158015928201929092529061052d5750610579565b80516001600160a01b03161561054257805192505b876001600160a01b0316836001600160a01b0316141561057757868414156105705750935061031592505050565b6001909301925b505b6001016104c5565b50600080fd5b61047a83838360405180602001604052806000815250610753565b600080546001600160801b031681805b8281101561063357600081815260036020908152604091829020825160608101845290546001600160a01b0381168252600160a01b810467ffffffffffffffff1692820192909252600160e01b90910460ff1615159181018290529061062a57858314156106235750949350505050565b6001909201915b506001016105b2565b506040516329c8c00760e21b815260040160405180910390fd5b600061065882610ada565b5192915050565b60006001600160a01b038216610688576040516323d3ad8160e21b815260040160405180910390fd5b506001600160a01b031660009081526004602052604090205467ffffffffffffffff1690565b60606002805461032a90611177565b6001600160a01b0382163314156106e75760405163b06307db60e01b815260040160405180910390fd5b3360008181526006602090815260408083206001600160a01b03871680855290835292819020805460ff191686151590811790915590519081529192917f17307eab39ab6107e8899845ad3d59bd9653f200f220920489ca2b5937696c31910160405180910390a35050565b61075e8484846108bc565b61076a84848484610bfe565b610787576040516368d2bf6b60e11b815260040160405180910390fd5b50505050565b60606107988261081f565b6107b557604051630a14c4b560e41b815260040160405180910390fd5b60006107cc60408051602081019091526000815290565b90508051600014156107ed5760405180602001604052806000815250610818565b806107f784610d0d565b60405160200161080892919061108a565b6040516020818303038152906040525b9392505050565b600080546001600160801b031682108015610315575050600090815260036020526040902054600160e01b900460ff161590565b600082815260056020526040808220805473ffffffffffffffffffffffffffffffffffffffff19166001600160a01b0387811691821790925591518593918516917f8c5be1e5ebec7d5bd14f71427d1e84f3dd0314c0f7b2291e5b200ac8c7c3b92591a4505050565b60006108c782610ada565b80519091506000906001600160a01b0316336001600160a01b031614806108f5575081516108f59033610280565b80610910575033610905846103ad565b6001600160a01b0316145b90508061093057604051632ce44b5f60e11b815260040160405180910390fd5b846001600160a01b031682600001516001600160a01b0316146109655760405162a1148160e81b815260040160405180910390fd5b6001600160a01b03841661098c57604051633a954ecd60e21b815260040160405180910390fd5b61099c6000848460000151610853565b6001600160a01b038581166000908152600460209081526040808320805467ffffffffffffffff1980821667ffffffffffffffff92831660001901831617909255898616808652838620805493841693831660019081018416949094179055898652600390945282852080546001600160e01b031916909417600160a01b429092169190910217909255908601808352912054909116610a91576000546001600160801b0316811015610a91578251600082815260036020908152604090912080549186015167ffffffffffffffff16600160a01b026001600160e01b03199092166001600160a01b03909316929092171790555b5082846001600160a01b0316866001600160a01b03167fddf252ad1be2c89b69c2b068fc378daa952ba7f163c4a11628f55a4df523b3ef60405160405180910390a45050505050565b60408051606081018252600080825260208201819052918101829052905482906001600160801b0316811015610be557600081815260036020908152604091829020825160608101845290546001600160a01b0381168252600160a01b810467ffffffffffffffff1692820192909252600160e01b90910460ff16151591810182905290610be35780516001600160a01b031615610b79579392505050565b5060001901600081815260036020908152604091829020825160608101845290546001600160a01b038116808352600160a01b820467ffffffffffffffff1693830193909352600160e01b900460ff1615159281019290925215610bde579392505050565b610b79565b505b604051636f96cda160e11b815260040160405180910390fd5b60006001600160a01b0384163b15610d0157604051630a85bd0160e11b81526001600160a01b0385169063150b7a0290610c429033908990889088906004016110b9565b602060405180830381600087803b158015610c5c57600080fd5b505af1925050508015610c8c575060408051601f3d908101601f19168201909252610c8991810190611028565b60015b610ce7573d808015610cba576040519150601f19603f3d011682016040523d82523d6000602084013e610cbf565b606091505b508051610cdf576040516368d2bf6b60e11b815260040160405180910390fd5b805181602001fd5b6001600160e01b031916630a85bd0160e11b149050610d05565b5060015b949350505050565b606081610d315750506040805180820190915260018152600360fc1b602082015290565b8160005b8115610d5b5780610d45816111b2565b9150610d549050600a83611120565b9150610d35565b60008167ffffffffffffffff811115610d7657610d76611223565b6040519080825280601f01601f191660200182016040528015610da0576020820181803683370190505b5090505b8415610d0557610db5600183611134565b9150610dc2600a866111cd565b610dcd906030611108565b60f81b818381518110610de257610de261120d565b60200101907effffffffffffffffffffffffffffffffffffffffffffffffffffffffffffff1916908160001a905350610e1c600a86611120565b9450610da4565b80356001600160a01b0381168114610e3a57600080fd5b919050565b600060208284031215610e5157600080fd5b61081882610e23565b60008060408385031215610e6d57600080fd5b610e7683610e23565b9150610e8460208401610e23565b90509250929050565b600080600060608486031215610ea257600080fd5b610eab84610e23565b9250610eb960208501610e23565b9150604084013590509250925092565b60008060008060808587031215610edf57600080fd5b610ee885610e23565b9350610ef660208601610e23565b925060408501359150606085013567ffffffffffffffff80821115610f1a57600080fd5b818701915087601f830112610f2e57600080fd5b813581811115610f4057610f40611223565b604051601f8201601f19908116603f01168101908382118183101715610f6857610f68611223565b816040528281528a6020848701011115610f8157600080fd5b82602086016020830137600060208483010152809550505050505092959194509250565b60008060408385031215610fb857600080fd5b610fc183610e23565b915060208301358015158114610fd657600080fd5b809150509250929050565b60008060408385031215610ff457600080fd5b610ffd83610e23565b946020939093013593505050565b60006020828403121561101d57600080fd5b813561081881611239565b60006020828403121561103a57600080fd5b815161081881611239565b60006020828403121561105757600080fd5b5035919050565b6000815180845261107681602086016020860161114b565b601f01601f19169290920160200192915050565b6000835161109c81846020880161114b565b8351908301906110b081836020880161114b565b01949350505050565b60006001600160a01b038087168352808616602084015250836040830152608060608301526110eb608083018461105e565b9695505050505050565b602081526000610818602083018461105e565b6000821982111561111b5761111b6111e1565b500190565b60008261112f5761112f6111f7565b500490565b600082821015611146576111466111e1565b500390565b60005b8381101561116657818101518382015260200161114e565b838111156107875750506000910152565b600181811c9082168061118b57607f821691505b602082108114156111ac57634e487b7160e01b600052602260045260246000fd5b50919050565b60006000198214156111c6576111c66111e1565b5060010190565b6000826111dc576111dc6111f7565b500690565b634e487b7160e01b600052601160045260246000fd5b634e487b7160e01b600052601260045260246000fd5b634e487b7160e01b600052603260045260246000fd5b634e487b7160e01b600052604160045260246000fd5b6001600160e01b03198116811461124f57600080fd5b5056fea2646970667358221220b629dabddd05bf1fadc099ee38d36318dc4e14a698d7f6d1ff2ded7864b0481764736f6c63430008070033",
  "linkReferences": {},
  "deployedLinkReferences": {}
}