{
  "_format": "hh-sol-artifact-1",
  "contractName": "ResearchFundingClub",
  "sourceName": "contracts/ResearchFundingClub.sol",
  "abi": [
    {
      "inputs": [
        {
          "internalType": "string",
          "name": "baseURI",
          "type": "string"
        }
      ],
      "stateMutability": "nonpayable",
      "type": "constructor"
    },
    {
      "anonymous": false,
      "inputs": [
        {
          "indexed": true,
          "internalType": "address",
          "name": "owner",
          "type": "address"
        },
        {
          "indexed": true,
          "internalType": "address",
          "name": "approved",
          "type": "address"
        },
        {
          "indexed": true,
          "internalType": "uint256",
          "name": "tokenId",
          "type": "uint256"
        }
      ],
      "name": "Approval",
      "type": "event"
    },
    {
      "anonymous": false,
      "inputs": [
        {
          "indexed": true,
          "internalType": "address",
          "name": "owner",
          "type": "address"
        },
        {
          "indexed": true,
          "internalType": "address",
          "name": "operator",
          "type": "address"
        },
        {
          "indexed": false,
          "internalType": "bool",
          "name": "approved",
          "type": "bool"
        }
      ],
      "name": "ApprovalForAll",
      "type": "event"
    },
    {
      "anonymous": false,
      "inputs": [
        {
          "indexed": true,
          "internalType": "address",
          "name": "previousOwner",
          "type": "address"
        },
        {
          "indexed": true,
          "internalType": "address",
          "name": "newOwner",
          "type": "address"
        }
      ],
      "name": "OwnershipTransferred",
      "type": "event"
    },
    {
      "anonymous": false,
      "inputs": [
        {
          "indexed": true,
          "internalType": "address",
          "name": "from",
          "type": "address"
        },
        {
          "indexed": true,
          "internalType": "address",
          "name": "to",
          "type": "address"
        },
        {
          "indexed": true,
          "internalType": "uint256",
          "name": "tokenId",
          "type": "uint256"
        }
      ],
      "name": "Transfer",
      "type": "event"
    },
    {
      "inputs": [],
      "name": "MAX_PER_MINT",
      "outputs": [
        {
          "internalType": "uint256",
          "name": "",
          "type": "uint256"
        }
      ],
      "stateMutability": "view",
      "type": "function"
    },
    {
      "inputs": [],
      "name": "MAX_SUPPLY",
      "outputs": [
        {
          "internalType": "uint256",
          "name": "",
          "type": "uint256"
        }
      ],
      "stateMutability": "view",
      "type": "function"
    },
    {
      "inputs": [],
      "name": "MIN_SUPPLY",
      "outputs": [
        {
          "internalType": "uint256",
          "name": "",
          "type": "uint256"
        }
      ],
      "stateMutability": "view",
      "type": "function"
    },
    {
      "inputs": [],
      "name": "PRICE",
      "outputs": [
        {
          "internalType": "uint256",
          "name": "",
          "type": "uint256"
        }
      ],
      "stateMutability": "view",
      "type": "function"
    },
    {
      "inputs": [
        {
          "internalType": "address",
          "name": "to",
          "type": "address"
        },
        {
          "internalType": "uint256",
          "name": "tokenId",
          "type": "uint256"
        }
      ],
      "name": "approve",
      "outputs": [],
      "stateMutability": "nonpayable",
      "type": "function"
    },
    {
      "inputs": [
        {
          "internalType": "address",
          "name": "owner",
          "type": "address"
        }
      ],
      "name": "balanceOf",
      "outputs": [
        {
          "internalType": "uint256",
          "name": "",
          "type": "uint256"
        }
      ],
      "stateMutability": "view",
      "type": "function"
    },
    {
      "inputs": [],
      "name": "baseExtension",
      "outputs": [
        {
          "internalType": "string",
          "name": "",
          "type": "string"
        }
      ],
      "stateMutability": "view",
      "type": "function"
    },
    {
      "inputs": [],
      "name": "baseTokenURI",
      "outputs": [
        {
          "internalType": "string",
          "name": "",
          "type": "string"
        }
      ],
      "stateMutability": "view",
      "type": "function"
    },
    {
      "inputs": [
        {
          "internalType": "uint256",
          "name": "tokenId",
          "type": "uint256"
        }
      ],
      "name": "getApproved",
      "outputs": [
        {
          "internalType": "address",
          "name": "",
          "type": "address"
        }
      ],
      "stateMutability": "view",
      "type": "function"
    },
    {
      "inputs": [
        {
          "internalType": "address",
          "name": "owner",
          "type": "address"
        },
        {
          "internalType": "address",
          "name": "operator",
          "type": "address"
        }
      ],
      "name": "isApprovedForAll",
      "outputs": [
        {
          "internalType": "bool",
          "name": "",
          "type": "bool"
        }
      ],
      "stateMutability": "view",
      "type": "function"
    },
    {
      "inputs": [
        {
          "internalType": "uint256",
          "name": "_mintAmount",
          "type": "uint256"
        }
      ],
      "name": "mint",
      "outputs": [],
      "stateMutability": "payable",
      "type": "function"
    },
    {
      "inputs": [],
      "name": "name",
      "outputs": [
        {
          "internalType": "string",
          "name": "",
          "type": "string"
        }
      ],
      "stateMutability": "view",
      "type": "function"
    },
    {
      "inputs": [
        {
          "internalType": "uint256",
          "name": "_newMaxSupply",
          "type": "uint256"
        },
        {
          "internalType": "string",
          "name": "_newBaseURI",
          "type": "string"
        }
      ],
      "name": "newDrop",
      "outputs": [],
      "stateMutability": "nonpayable",
      "type": "function"
    },
    {
      "inputs": [],
      "name": "notRevealedURI",
      "outputs": [
        {
          "internalType": "string",
          "name": "",
          "type": "string"
        }
      ],
      "stateMutability": "view",
      "type": "function"
    },
    {
      "inputs": [],
      "name": "owner",
      "outputs": [
        {
          "internalType": "address",
          "name": "",
          "type": "address"
        }
      ],
      "stateMutability": "view",
      "type": "function"
    },
    {
      "inputs": [
        {
          "internalType": "uint256",
          "name": "tokenId",
          "type": "uint256"
        }
      ],
      "name": "ownerOf",
      "outputs": [
        {
          "internalType": "address",
          "name": "",
          "type": "address"
        }
      ],
      "stateMutability": "view",
      "type": "function"
    },
    {
      "inputs": [
        {
          "internalType": "bool",
          "name": "_state",
          "type": "bool"
        }
      ],
      "name": "pause",
      "outputs": [],
      "stateMutability": "nonpayable",
      "type": "function"
    },
    {
      "inputs": [],
      "name": "paused",
      "outputs": [
        {
          "internalType": "bool",
          "name": "",
          "type": "bool"
        }
      ],
      "stateMutability": "view",
      "type": "function"
    },
    {
      "inputs": [],
      "name": "renounceOwnership",
      "outputs": [],
      "stateMutability": "nonpayable",
      "type": "function"
    },
    {
      "inputs": [],
      "name": "reveal",
      "outputs": [],
      "stateMutability": "nonpayable",
      "type": "function"
    },
    {
      "inputs": [],
      "name": "revealed",
      "outputs": [
        {
          "internalType": "bool",
          "name": "",
          "type": "bool"
        }
      ],
      "stateMutability": "view",
      "type": "function"
    },
    {
      "inputs": [
        {
          "internalType": "address",
          "name": "from",
          "type": "address"
        },
        {
          "internalType": "address",
          "name": "to",
          "type": "address"
        },
        {
          "internalType": "uint256",
          "name": "tokenId",
          "type": "uint256"
        }
      ],
      "name": "safeTransferFrom",
      "outputs": [],
      "stateMutability": "nonpayable",
      "type": "function"
    },
    {
      "inputs": [
        {
          "internalType": "address",
          "name": "from",
          "type": "address"
        },
        {
          "internalType": "address",
          "name": "to",
          "type": "address"
        },
        {
          "internalType": "uint256",
          "name": "tokenId",
          "type": "uint256"
        },
        {
          "internalType": "bytes",
          "name": "_data",
          "type": "bytes"
        }
      ],
      "name": "safeTransferFrom",
      "outputs": [],
      "stateMutability": "nonpayable",
      "type": "function"
    },
    {
      "inputs": [
        {
          "internalType": "address",
          "name": "operator",
          "type": "address"
        },
        {
          "internalType": "bool",
          "name": "approved",
          "type": "bool"
        }
      ],
      "name": "setApprovalForAll",
      "outputs": [],
      "stateMutability": "nonpayable",
      "type": "function"
    },
    {
      "inputs": [
        {
          "internalType": "string",
          "name": "_newBaseExtension",
          "type": "string"
        }
      ],
      "name": "setBaseExtension",
      "outputs": [],
      "stateMutability": "nonpayable",
      "type": "function"
    },
    {
      "inputs": [
        {
          "internalType": "string",
          "name": "_baseTokenURI",
          "type": "string"
        }
      ],
      "name": "setBaseURI",
      "outputs": [],
      "stateMutability": "nonpayable",
      "type": "function"
    },
    {
      "inputs": [
        {
          "internalType": "uint256",
          "name": "_newCost",
          "type": "uint256"
        }
      ],
      "name": "setCost",
      "outputs": [],
      "stateMutability": "nonpayable",
      "type": "function"
    },
    {
      "inputs": [
        {
          "internalType": "string",
          "name": "_notRevealedURI",
          "type": "string"
        }
      ],
      "name": "setNotRevealedURI",
      "outputs": [],
      "stateMutability": "nonpayable",
      "type": "function"
    },
    {
      "inputs": [
        {
          "internalType": "uint256",
          "name": "_limit",
          "type": "uint256"
        }
      ],
      "name": "setmaxMintAmount",
      "outputs": [],
      "stateMutability": "nonpayable",
      "type": "function"
    },
    {
      "inputs": [
        {
          "internalType": "uint256",
          "name": "_limit",
          "type": "uint256"
        }
      ],
      "name": "setmaxSupply",
      "outputs": [],
      "stateMutability": "nonpayable",
      "type": "function"
    },
    {
      "inputs": [
        {
          "internalType": "bytes4",
          "name": "interfaceId",
          "type": "bytes4"
        }
      ],
      "name": "supportsInterface",
      "outputs": [
        {
          "internalType": "bool",
          "name": "",
          "type": "bool"
        }
      ],
      "stateMutability": "view",
      "type": "function"
    },
    {
      "inputs": [],
      "name": "symbol",
      "outputs": [
        {
          "internalType": "string",
          "name": "",
          "type": "string"
        }
      ],
      "stateMutability": "view",
      "type": "function"
    },
    {
      "inputs": [
        {
          "internalType": "uint256",
          "name": "index",
          "type": "uint256"
        }
      ],
      "name": "tokenByIndex",
      "outputs": [
        {
          "internalType": "uint256",
          "name": "",
          "type": "uint256"
        }
      ],
      "stateMutability": "view",
      "type": "function"
    },
    {
      "inputs": [
        {
          "internalType": "address",
          "name": "owner",
          "type": "address"
        },
        {
          "internalType": "uint256",
          "name": "index",
          "type": "uint256"
        }
      ],
      "name": "tokenOfOwnerByIndex",
      "outputs": [
        {
          "internalType": "uint256",
          "name": "",
          "type": "uint256"
        }
      ],
      "stateMutability": "view",
      "type": "function"
    },
    {
      "inputs": [
        {
          "internalType": "uint256",
          "name": "tokenId",
          "type": "uint256"
        }
      ],
      "name": "tokenURI",
      "outputs": [
        {
          "internalType": "string",
          "name": "",
          "type": "string"
        }
      ],
      "stateMutability": "view",
      "type": "function"
    },
    {
      "inputs": [
        {
          "internalType": "address",
          "name": "_owner",
          "type": "address"
        }
      ],
      "name": "tokensOfOwner",
      "outputs": [
        {
          "internalType": "uint256[]",
          "name": "",
          "type": "uint256[]"
        }
      ],
      "stateMutability": "view",
      "type": "function"
    },
    {
      "inputs": [],
      "name": "totalSupply",
      "outputs": [
        {
          "internalType": "uint256",
          "name": "",
          "type": "uint256"
        }
      ],
      "stateMutability": "view",
      "type": "function"
    },
    {
      "inputs": [
        {
          "internalType": "address",
          "name": "from",
          "type": "address"
        },
        {
          "internalType": "address",
          "name": "to",
          "type": "address"
        },
        {
          "internalType": "uint256",
          "name": "tokenId",
          "type": "uint256"
        }
      ],
      "name": "transferFrom",
      "outputs": [],
      "stateMutability": "nonpayable",
      "type": "function"
    },
    {
      "inputs": [
        {
          "internalType": "address",
          "name": "newOwner",
          "type": "address"
        }
      ],
      "name": "transferOwnership",
      "outputs": [],
      "stateMutability": "nonpayable",
      "type": "function"
    },
    {
      "inputs": [],
      "name": "withdraw",
      "outputs": [],
      "stateMutability": "payable",
      "type": "function"
    }
  ],
  "bytecode": "0x60806040526000600d60006101000a81548160ff0219169083151502179055506040518060400160405280600581526020017f2e6a736f6e000000000000000000000000000000000000000000000000000000815250600e90805190602001906200006c9291906200039d565b506040518060400160405280601081526020017f6e6f742072657665616c65642079657400000000000000000000000000000000815250600f9080519060200190620000ba9291906200039d565b506001601055600a601155655af3107a400060125560016013556000601460006101000a81548160ff021916908315150217905550348015620000fc57600080fd5b5060405162005638380380620056388339818101604052810190620001229190620004cb565b6040518060400160405280601581526020017f52657365617263682046756e64696e6720436c756200000000000000000000008152506040518060400160405280600381526020017f52464300000000000000000000000000000000000000000000000000000000008152508160009080519060200190620001a69291906200039d565b508060019080519060200190620001bf9291906200039d565b505050620001e2620001d6620001fa60201b60201c565b6200020260201b60201c565b620001f381620002c860201b60201c565b5062000723565b600033905090565b6000600a60009054906101000a900473ffffffffffffffffffffffffffffffffffffffff16905081600a60006101000a81548173ffffffffffffffffffffffffffffffffffffffff021916908373ffffffffffffffffffffffffffffffffffffffff1602179055508173ffffffffffffffffffffffffffffffffffffffff168173ffffffffffffffffffffffffffffffffffffffff167f8be0079c531659141344cd1fd0a4f28419497f9722a3daafe3b4186f6b6457e060405160405180910390a35050565b620002d8620001fa60201b60201c565b73ffffffffffffffffffffffffffffffffffffffff16620002fe6200037360201b60201c565b73ffffffffffffffffffffffffffffffffffffffff161462000357576040517f08c379a00000000000000000000000000000000000000000000000000000000081526004016200034e9062000543565b60405180910390fd5b80600c90805190602001906200036f9291906200039d565b5050565b6000600a60009054906101000a900473ffffffffffffffffffffffffffffffffffffffff16905090565b828054620003ab906200060b565b90600052602060002090601f016020900481019282620003cf57600085556200041b565b82601f10620003ea57805160ff19168380011785556200041b565b828001600101855582156200041b579182015b828111156200041a578251825591602001919060010190620003fd565b5b5090506200042a91906200042e565b5090565b5b80821115620004495760008160009055506001016200042f565b5090565b6000620004646200045e846200058e565b62000565565b905082815260208101848484011115620004835762000482620006da565b5b62000490848285620005d5565b509392505050565b600082601f830112620004b057620004af620006d5565b5b8151620004c28482602086016200044d565b91505092915050565b600060208284031215620004e457620004e3620006e4565b5b600082015167ffffffffffffffff811115620005055762000504620006df565b5b620005138482850162000498565b91505092915050565b60006200052b602083620005c4565b91506200053882620006fa565b602082019050919050565b600060208201905081810360008301526200055e816200051c565b9050919050565b60006200057162000584565b90506200057f828262000641565b919050565b6000604051905090565b600067ffffffffffffffff821115620005ac57620005ab620006a6565b5b620005b782620006e9565b9050602081019050919050565b600082825260208201905092915050565b60005b83811015620005f5578082015181840152602081019050620005d8565b8381111562000605576000848401525b50505050565b600060028204905060018216806200062457607f821691505b602082108114156200063b576200063a62000677565b5b50919050565b6200064c82620006e9565b810181811067ffffffffffffffff821117156200066e576200066d620006a6565b5b80604052505050565b7f4e487b7100000000000000000000000000000000000000000000000000000000600052602260045260246000fd5b7f4e487b7100000000000000000000000000000000000000000000000000000000600052604160045260246000fd5b600080fd5b600080fd5b600080fd5b600080fd5b6000601f19601f8301169050919050565b7f4f776e61626c653a2063616c6c6572206973206e6f7420746865206f776e6572600082015250565b614f0580620007336000396000f3fe60806040526004361061023b5760003560e01c806370a082311161012e578063a475b5dd116100ab578063da3ef23f1161006f578063da3ef23f14610845578063e985e9c51461086e578063f1a91a68146108ab578063f2c4ce1e146108d4578063f2fde38b146108fd5761023b565b8063a475b5dd14610772578063b88d4fde14610789578063c6682862146107b2578063c87b56dd146107dd578063d547cfb71461081a5761023b565b80638d859f3e116100f25780638d859f3e146106ac5780638da5cb5b146106d757806395d89b4114610702578063a0712d681461072d578063a22cb465146107495761023b565b806370a08231146105c7578063715018a614610604578063722503801461061b5780637f00c7a6146106465780638462151c1461066f5761023b565b806332cb6b0c116101bc5780634f6ccce7116101805780634f6ccce7146104ce578063518302271461050b57806355f804b3146105365780635c975abb1461055f5780636352211e1461058a5761023b565b806332cb6b0c1461041c57806335917c64146104475780633ccfd60b1461047257806342842e0e1461047c57806344a0d68a146104a55761023b565b806309d42b301161020357806309d42b301461033757806318160ddd14610362578063228025e81461038d57806323b872dd146103b65780632f745c59146103df5761023b565b806301ffc9a71461024057806302329a291461027d57806306fdde03146102a6578063081812fc146102d1578063095ea7b31461030e575b600080fd5b34801561024c57600080fd5b506102676004803603810190610262919061370e565b610926565b6040516102749190613ed5565b60405180910390f35b34801561028957600080fd5b506102a4600480360381019061029f91906136e1565b610938565b005b3480156102b257600080fd5b506102bb6109d1565b6040516102c89190613ef0565b60405180910390f35b3480156102dd57600080fd5b506102f860048036038101906102f391906137b1565b610a63565b6040516103059190613e4c565b60405180910390f35b34801561031a57600080fd5b50610335600480360381019061033091906136a1565b610ae8565b005b34801561034357600080fd5b5061034c610c00565b6040516103599190614272565b60405180910390f35b34801561036e57600080fd5b50610377610c06565b6040516103849190614272565b60405180910390f35b34801561039957600080fd5b506103b460048036038101906103af91906137b1565b610c13565b005b3480156103c257600080fd5b506103dd60048036038101906103d8919061358b565b610c99565b005b3480156103eb57600080fd5b50610406600480360381019061040191906136a1565b610cf9565b6040516104139190614272565b60405180910390f35b34801561042857600080fd5b50610431610d9e565b60405161043e9190614272565b60405180910390f35b34801561045357600080fd5b5061045c610da4565b6040516104699190614272565b60405180910390f35b61047a610daa565b005b34801561048857600080fd5b506104a3600480360381019061049e919061358b565b610f1e565b005b3480156104b157600080fd5b506104cc60048036038101906104c791906137b1565b610f3e565b005b3480156104da57600080fd5b506104f560048036038101906104f091906137b1565b610fc4565b6040516105029190614272565b60405180910390f35b34801561051757600080fd5b50610520611035565b60405161052d9190613ed5565b60405180910390f35b34801561054257600080fd5b5061055d60048036038101906105589190613768565b611048565b005b34801561056b57600080fd5b506105746110de565b6040516105819190613ed5565b60405180910390f35b34801561059657600080fd5b506105b160048036038101906105ac91906137b1565b6110f1565b6040516105be9190613e4c565b60405180910390f35b3480156105d357600080fd5b506105ee60048036038101906105e9919061351e565b6111a3565b6040516105fb9190614272565b60405180910390f35b34801561061057600080fd5b5061061961125b565b005b34801561062757600080fd5b506106306112e3565b60405161063d9190613ef0565b60405180910390f35b34801561065257600080fd5b5061066d600480360381019061066891906137b1565b611371565b005b34801561067b57600080fd5b506106966004803603810190610691919061351e565b6113f7565b6040516106a39190613eb3565b60405180910390f35b3480156106b857600080fd5b506106c16114a5565b6040516106ce9190614272565b60405180910390f35b3480156106e357600080fd5b506106ec6114ab565b6040516106f99190613e4c565b60405180910390f35b34801561070e57600080fd5b506107176114d5565b6040516107249190613ef0565b60405180910390f35b610747600480360381019061074291906137b1565b611567565b005b34801561075557600080fd5b50610770600480360381019061076b9190613661565b611751565b005b34801561077e57600080fd5b50610787611767565b005b34801561079557600080fd5b506107b060048036038101906107ab91906135de565b611800565b005b3480156107be57600080fd5b506107c7611862565b6040516107d49190613ef0565b60405180910390f35b3480156107e957600080fd5b5061080460048036038101906107ff91906137b1565b6118f0565b6040516108119190613ef0565b60405180910390f35b34801561082657600080fd5b5061082f611a00565b60405161083c9190613ef0565b60405180910390f35b34801561085157600080fd5b5061086c60048036038101906108679190613768565b611a8e565b005b34801561087a57600080fd5b506108956004803603810190610890919061354b565b611b24565b6040516108a29190613ed5565b60405180910390f35b3480156108b757600080fd5b506108d260048036038101906108cd91906137de565b611bb8565b005b3480156108e057600080fd5b506108fb60048036038101906108f69190613768565b611cb7565b005b34801561090957600080fd5b50610924600480360381019061091f919061351e565b611d4d565b005b600061093182611e45565b9050919050565b610940611ebf565b73ffffffffffffffffffffffffffffffffffffffff1661095e6114ab565b73ffffffffffffffffffffffffffffffffffffffff16146109b4576040517f08c379a00000000000000000000000000000000000000000000000000000000081526004016109ab90614152565b60405180910390fd5b80600d60006101000a81548160ff02191690831515021790555050565b6060600080546109e09061457b565b80601f0160208091040260200160405190810160405280929190818152602001828054610a0c9061457b565b8015610a595780601f10610a2e57610100808354040283529160200191610a59565b820191906000526020600020905b815481529060010190602001808311610a3c57829003601f168201915b5050505050905090565b6000610a6e82611ec7565b610aad576040517f08c379a0000000000000000000000000000000000000000000000000000000008152600401610aa490614132565b60405180910390fd5b6004600083815260200190815260200160002060009054906101000a900473ffffffffffffffffffffffffffffffffffffffff169050919050565b6000610af3826110f1565b90508073ffffffffffffffffffffffffffffffffffffffff168373ffffffffffffffffffffffffffffffffffffffff161415610b64576040517f08c379a0000000000000000000000000000000000000000000000000000000008152600401610b5b90614192565b60405180910390fd5b8073ffffffffffffffffffffffffffffffffffffffff16610b83611ebf565b73ffffffffffffffffffffffffffffffffffffffff161480610bb25750610bb181610bac611ebf565b611b24565b5b610bf1576040517f08c379a0000000000000000000000000000000000000000000000000000000008152600401610be890614052565b60405180910390fd5b610bfb8383611f33565b505050565b60135481565b6000600880549050905090565b610c1b611ebf565b73ffffffffffffffffffffffffffffffffffffffff16610c396114ab565b73ffffffffffffffffffffffffffffffffffffffff1614610c8f576040517f08c379a0000000000000000000000000000000000000000000000000000000008152600401610c8690614152565b60405180910390fd5b8060118190555050565b610caa610ca4611ebf565b82611fec565b610ce9576040517f08c379a0000000000000000000000000000000000000000000000000000000008152600401610ce0906141f2565b60405180910390fd5b610cf48383836120ca565b505050565b6000610d04836111a3565b8210610d45576040517f08c379a0000000000000000000000000000000000000000000000000000000008152600401610d3c90613f12565b60405180910390fd5b600660008473ffffffffffffffffffffffffffffffffffffffff1673ffffffffffffffffffffffffffffffffffffffff168152602001908152602001600020600083815260200190815260200160002054905092915050565b60115481565b60105481565b610db2611ebf565b73ffffffffffffffffffffffffffffffffffffffff16610dd06114ab565b73ffffffffffffffffffffffffffffffffffffffff1614610e26576040517f08c379a0000000000000000000000000000000000000000000000000000000008152600401610e1d90614152565b60405180910390fd5b600047905060008111610e6e576040517f08c379a0000000000000000000000000000000000000000000000000000000008152600401610e6590614212565b60405180910390fd5b60003373ffffffffffffffffffffffffffffffffffffffff1682604051610e9490613e37565b60006040518083038185875af1925050503d8060008114610ed1576040519150601f19603f3d011682016040523d82523d6000602084013e610ed6565b606091505b5050905080610f1a576040517f08c379a0000000000000000000000000000000000000000000000000000000008152600401610f11906141d2565b60405180910390fd5b5050565b610f3983838360405180602001604052806000815250611800565b505050565b610f46611ebf565b73ffffffffffffffffffffffffffffffffffffffff16610f646114ab565b73ffffffffffffffffffffffffffffffffffffffff1614610fba576040517f08c379a0000000000000000000000000000000000000000000000000000000008152600401610fb190614152565b60405180910390fd5b8060128190555050565b6000610fce610c06565b821061100f576040517f08c379a000000000000000000000000000000000000000000000000000000000815260040161100690614232565b60405180910390fd5b6008828154811061102357611022614714565b5b90600052602060002001549050919050565b601460009054906101000a900460ff1681565b611050611ebf565b73ffffffffffffffffffffffffffffffffffffffff1661106e6114ab565b73ffffffffffffffffffffffffffffffffffffffff16146110c4576040517f08c379a00000000000000000000000000000000000000000000000000000000081526004016110bb90614152565b60405180910390fd5b80600c90805190602001906110da929190613332565b5050565b600d60009054906101000a900460ff1681565b6000806002600084815260200190815260200160002060009054906101000a900473ffffffffffffffffffffffffffffffffffffffff169050600073ffffffffffffffffffffffffffffffffffffffff168173ffffffffffffffffffffffffffffffffffffffff16141561119a576040517f08c379a000000000000000000000000000000000000000000000000000000000815260040161119190614092565b60405180910390fd5b80915050919050565b60008073ffffffffffffffffffffffffffffffffffffffff168273ffffffffffffffffffffffffffffffffffffffff161415611214576040517f08c379a000000000000000000000000000000000000000000000000000000000815260040161120b90614072565b60405180910390fd5b600360008373ffffffffffffffffffffffffffffffffffffffff1673ffffffffffffffffffffffffffffffffffffffff168152602001908152602001600020549050919050565b611263611ebf565b73ffffffffffffffffffffffffffffffffffffffff166112816114ab565b73ffffffffffffffffffffffffffffffffffffffff16146112d7576040517f08c379a00000000000000000000000000000000000000000000000000000000081526004016112ce90614152565b60405180910390fd5b6112e16000612331565b565b600f80546112f09061457b565b80601f016020809104026020016040519081016040528092919081815260200182805461131c9061457b565b80156113695780601f1061133e57610100808354040283529160200191611369565b820191906000526020600020905b81548152906001019060200180831161134c57829003601f168201915b505050505081565b611379611ebf565b73ffffffffffffffffffffffffffffffffffffffff166113976114ab565b73ffffffffffffffffffffffffffffffffffffffff16146113ed576040517f08c379a00000000000000000000000000000000000000000000000000000000081526004016113e490614152565b60405180910390fd5b8060138190555050565b60606000611404836111a3565b905060008167ffffffffffffffff81111561142257611421614743565b5b6040519080825280602002602001820160405280156114505781602001602082028036833780820191505090505b50905060005b8281101561149a576114688582610cf9565b82828151811061147b5761147a614714565b5b6020026020010181815250508080611492906145de565b915050611456565b508092505050919050565b60125481565b6000600a60009054906101000a900473ffffffffffffffffffffffffffffffffffffffff16905090565b6060600180546114e49061457b565b80601f01602080910402602001604051908101604052809291908181526020018280546115109061457b565b801561155d5780601f106115325761010080835404028352916020019161155d565b820191906000526020600020905b81548152906001019060200180831161154057829003601f168201915b5050505050905090565b600d60009054906101000a900460ff16156115b7576040517f08c379a00000000000000000000000000000000000000000000000000000000081526004016115ae90613f52565b60405180910390fd5b60006115c1610c06565b905060008211611606576040517f08c379a00000000000000000000000000000000000000000000000000000000081526004016115fd90614252565b60405180910390fd5b601154828261161591906143b0565b1115611656576040517f08c379a000000000000000000000000000000000000000000000000000000000815260040161164d906140d2565b60405180910390fd5b600060018261166591906143b0565b9050826012546116759190614437565b3410156116b7576040517f08c379a00000000000000000000000000000000000000000000000000000000081526004016116ae906141b2565b60405180910390fd5b6116c133826123f7565b6001601054116117075761170281600c6116da84612415565b600e6040516020016116ee93929190613e06565b604051602081830303815290604052612576565b61174c565b61174b81600c6117236010548561171e9190614491565b612415565b600e60405160200161173793929190613e06565b604051602081830303815290604052612576565b5b505050565b61176361175c611ebf565b83836125ea565b5050565b61176f611ebf565b73ffffffffffffffffffffffffffffffffffffffff1661178d6114ab565b73ffffffffffffffffffffffffffffffffffffffff16146117e3576040517f08c379a00000000000000000000000000000000000000000000000000000000081526004016117da90614152565b60405180910390fd5b6001601460006101000a81548160ff021916908315150217905550565b61181161180b611ebf565b83611fec565b611850576040517f08c379a0000000000000000000000000000000000000000000000000000000008152600401611847906141f2565b60405180910390fd5b61185c84848484612757565b50505050565b600e805461186f9061457b565b80601f016020809104026020016040519081016040528092919081815260200182805461189b9061457b565b80156118e85780601f106118bd576101008083540402835291602001916118e8565b820191906000526020600020905b8154815290600101906020018083116118cb57829003601f168201915b505050505081565b60606118fb82611ec7565b61193a576040517f08c379a000000000000000000000000000000000000000000000000000000000815260040161193190614112565b60405180910390fd5b601460009054906101000a900460ff16158015611958575060105482115b156119ef57600f805461196a9061457b565b80601f01602080910402602001604051908101604052809291908181526020018280546119969061457b565b80156119e35780601f106119b8576101008083540402835291602001916119e3565b820191906000526020600020905b8154815290600101906020018083116119c657829003601f168201915b505050505090506119fb565b6119f8826127b3565b90505b919050565b600c8054611a0d9061457b565b80601f0160208091040260200160405190810160405280929190818152602001828054611a399061457b565b8015611a865780601f10611a5b57610100808354040283529160200191611a86565b820191906000526020600020905b815481529060010190602001808311611a6957829003601f168201915b505050505081565b611a96611ebf565b73ffffffffffffffffffffffffffffffffffffffff16611ab46114ab565b73ffffffffffffffffffffffffffffffffffffffff1614611b0a576040517f08c379a0000000000000000000000000000000000000000000000000000000008152600401611b0190614152565b60405180910390fd5b80600e9080519060200190611b20929190613332565b5050565b6000600560008473ffffffffffffffffffffffffffffffffffffffff1673ffffffffffffffffffffffffffffffffffffffff16815260200190815260200160002060008373ffffffffffffffffffffffffffffffffffffffff1673ffffffffffffffffffffffffffffffffffffffff16815260200190815260200160002060009054906101000a900460ff16905092915050565b611bc0611ebf565b73ffffffffffffffffffffffffffffffffffffffff16611bde6114ab565b73ffffffffffffffffffffffffffffffffffffffff1614611c34576040517f08c379a0000000000000000000000000000000000000000000000000000000008152600401611c2b90614152565b60405180910390fd5b601154611c3f610c06565b14611c7f576040517f08c379a0000000000000000000000000000000000000000000000000000000008152600401611c7690613f72565b60405180910390fd5b60115460108190555081601181905550611c9881611048565b6000601460006101000a81548160ff0219169083151502179055505050565b611cbf611ebf565b73ffffffffffffffffffffffffffffffffffffffff16611cdd6114ab565b73ffffffffffffffffffffffffffffffffffffffff1614611d33576040517f08c379a0000000000000000000000000000000000000000000000000000000008152600401611d2a90614152565b60405180910390fd5b80600f9080519060200190611d49929190613332565b5050565b611d55611ebf565b73ffffffffffffffffffffffffffffffffffffffff16611d736114ab565b73ffffffffffffffffffffffffffffffffffffffff1614611dc9576040517f08c379a0000000000000000000000000000000000000000000000000000000008152600401611dc090614152565b60405180910390fd5b600073ffffffffffffffffffffffffffffffffffffffff168173ffffffffffffffffffffffffffffffffffffffff161415611e39576040517f08c379a0000000000000000000000000000000000000000000000000000000008152600401611e3090613f92565b60405180910390fd5b611e4281612331565b50565b60007f780e9d63000000000000000000000000000000000000000000000000000000007bffffffffffffffffffffffffffffffffffffffffffffffffffffffff1916827bffffffffffffffffffffffffffffffffffffffffffffffffffffffff19161480611eb85750611eb782612905565b5b9050919050565b600033905090565b60008073ffffffffffffffffffffffffffffffffffffffff166002600084815260200190815260200160002060009054906101000a900473ffffffffffffffffffffffffffffffffffffffff1673ffffffffffffffffffffffffffffffffffffffff1614159050919050565b816004600083815260200190815260200160002060006101000a81548173ffffffffffffffffffffffffffffffffffffffff021916908373ffffffffffffffffffffffffffffffffffffffff160217905550808273ffffffffffffffffffffffffffffffffffffffff16611fa6836110f1565b73ffffffffffffffffffffffffffffffffffffffff167f8c5be1e5ebec7d5bd14f71427d1e84f3dd0314c0f7b2291e5b200ac8c7c3b92560405160405180910390a45050565b6000611ff782611ec7565b612036576040517f08c379a000000000000000000000000000000000000000000000000000000000815260040161202d90614032565b60405180910390fd5b6000612041836110f1565b90508073ffffffffffffffffffffffffffffffffffffffff168473ffffffffffffffffffffffffffffffffffffffff1614806120b057508373ffffffffffffffffffffffffffffffffffffffff1661209884610a63565b73ffffffffffffffffffffffffffffffffffffffff16145b806120c157506120c08185611b24565b5b91505092915050565b8273ffffffffffffffffffffffffffffffffffffffff166120ea826110f1565b73ffffffffffffffffffffffffffffffffffffffff1614612140576040517f08c379a000000000000000000000000000000000000000000000000000000000815260040161213790613fb2565b60405180910390fd5b600073ffffffffffffffffffffffffffffffffffffffff168273ffffffffffffffffffffffffffffffffffffffff1614156121b0576040517f08c379a00000000000000000000000000000000000000000000000000000000081526004016121a790613ff2565b60405180910390fd5b6121bb8383836129e7565b6121c6600082611f33565b6001600360008573ffffffffffffffffffffffffffffffffffffffff1673ffffffffffffffffffffffffffffffffffffffff16815260200190815260200160002060008282546122169190614491565b925050819055506001600360008473ffffffffffffffffffffffffffffffffffffffff1673ffffffffffffffffffffffffffffffffffffffff168152602001908152602001600020600082825461226d91906143b0565b92505081905550816002600083815260200190815260200160002060006101000a81548173ffffffffffffffffffffffffffffffffffffffff021916908373ffffffffffffffffffffffffffffffffffffffff160217905550808273ffffffffffffffffffffffffffffffffffffffff168473ffffffffffffffffffffffffffffffffffffffff167fddf252ad1be2c89b69c2b068fc378daa952ba7f163c4a11628f55a4df523b3ef60405160405180910390a461232c8383836129f7565b505050565b6000600a60009054906101000a900473ffffffffffffffffffffffffffffffffffffffff16905081600a60006101000a81548173ffffffffffffffffffffffffffffffffffffffff021916908373ffffffffffffffffffffffffffffffffffffffff1602179055508173ffffffffffffffffffffffffffffffffffffffff168173ffffffffffffffffffffffffffffffffffffffff167f8be0079c531659141344cd1fd0a4f28419497f9722a3daafe3b4186f6b6457e060405160405180910390a35050565b6124118282604051806020016040528060008152506129fc565b5050565b6060600082141561245d576040518060400160405280600181526020017f30000000000000000000000000000000000000000000000000000000000000008152509050612571565b600082905060005b6000821461248f578080612478906145de565b915050600a826124889190614406565b9150612465565b60008167ffffffffffffffff8111156124ab576124aa614743565b5b6040519080825280601f01601f1916602001820160405280156124dd5781602001600182028036833780820191505090505b5090505b6000851461256a576001826124f69190614491565b9150600a856125059190614627565b603061251191906143b0565b60f81b81838151811061252757612526614714565b5b60200101907effffffffffffffffffffffffffffffffffffffffffffffffffffffffffffff1916908160001a905350600a856125639190614406565b94506124e1565b8093505050505b919050565b61257f82611ec7565b6125be576040517f08c379a00000000000000000000000000000000000000000000000000000000081526004016125b5906140b2565b60405180910390fd5b80600b600084815260200190815260200160002090805190602001906125e5929190613332565b505050565b8173ffffffffffffffffffffffffffffffffffffffff168373ffffffffffffffffffffffffffffffffffffffff161415612659576040517f08c379a000000000000000000000000000000000000000000000000000000000815260040161265090614012565b60405180910390fd5b80600560008573ffffffffffffffffffffffffffffffffffffffff1673ffffffffffffffffffffffffffffffffffffffff16815260200190815260200160002060008473ffffffffffffffffffffffffffffffffffffffff1673ffffffffffffffffffffffffffffffffffffffff16815260200190815260200160002060006101000a81548160ff0219169083151502179055508173ffffffffffffffffffffffffffffffffffffffff168373ffffffffffffffffffffffffffffffffffffffff167f17307eab39ab6107e8899845ad3d59bd9653f200f220920489ca2b5937696c318360405161274a9190613ed5565b60405180910390a3505050565b6127628484846120ca565b61276e84848484612a57565b6127ad576040517f08c379a00000000000000000000000000000000000000000000000000000000081526004016127a490613f32565b60405180910390fd5b50505050565b60606127be82611ec7565b6127fd576040517f08c379a00000000000000000000000000000000000000000000000000000000081526004016127f490614112565b60405180910390fd5b6000600b6000848152602001908152602001600020805461281d9061457b565b80601f01602080910402602001604051908101604052809291908181526020018280546128499061457b565b80156128965780601f1061286b57610100808354040283529160200191612896565b820191906000526020600020905b81548152906001019060200180831161287957829003601f168201915b5050505050905060006128a7612bee565b90506000815114156128bd578192505050612900565b6000825111156128f25780826040516020016128da929190613de2565b60405160208183030381529060405292505050612900565b6128fb84612c05565b925050505b919050565b60007f80ac58cd000000000000000000000000000000000000000000000000000000007bffffffffffffffffffffffffffffffffffffffffffffffffffffffff1916827bffffffffffffffffffffffffffffffffffffffffffffffffffffffff191614806129d057507f5b5e139f000000000000000000000000000000000000000000000000000000007bffffffffffffffffffffffffffffffffffffffffffffffffffffffff1916827bffffffffffffffffffffffffffffffffffffffffffffffffffffffff1916145b806129e057506129df82612cac565b5b9050919050565b6129f2838383612d16565b505050565b505050565b612a068383612e2a565b612a136000848484612a57565b612a52576040517f08c379a0000000000000000000000000000000000000000000000000000000008152600401612a4990613f32565b60405180910390fd5b505050565b6000612a788473ffffffffffffffffffffffffffffffffffffffff16613004565b15612be1578373ffffffffffffffffffffffffffffffffffffffff1663150b7a02612aa1611ebf565b8786866040518563ffffffff1660e01b8152600401612ac39493929190613e67565b602060405180830381600087803b158015612add57600080fd5b505af1925050508015612b0e57506040513d601f19601f82011682018060405250810190612b0b919061373b565b60015b612b91573d8060008114612b3e576040519150601f19603f3d011682016040523d82523d6000602084013e612b43565b606091505b50600081511415612b89576040517f08c379a0000000000000000000000000000000000000000000000000000000008152600401612b8090613f32565b60405180910390fd5b805181602001fd5b63150b7a0260e01b7bffffffffffffffffffffffffffffffffffffffffffffffffffffffff1916817bffffffffffffffffffffffffffffffffffffffffffffffffffffffff191614915050612be6565b600190505b949350505050565b606060405180602001604052806000815250905090565b6060612c1082611ec7565b612c4f576040517f08c379a0000000000000000000000000000000000000000000000000000000008152600401612c4690614172565b60405180910390fd5b6000612c59612bee565b90506000815111612c795760405180602001604052806000815250612ca4565b80612c8384612415565b604051602001612c94929190613de2565b6040516020818303038152906040525b915050919050565b60007f01ffc9a7000000000000000000000000000000000000000000000000000000007bffffffffffffffffffffffffffffffffffffffffffffffffffffffff1916827bffffffffffffffffffffffffffffffffffffffffffffffffffffffff1916149050919050565b612d21838383613027565b600073ffffffffffffffffffffffffffffffffffffffff168373ffffffffffffffffffffffffffffffffffffffff161415612d6457612d5f8161302c565b612da3565b8173ffffffffffffffffffffffffffffffffffffffff168373ffffffffffffffffffffffffffffffffffffffff1614612da257612da18382613075565b5b5b600073ffffffffffffffffffffffffffffffffffffffff168273ffffffffffffffffffffffffffffffffffffffff161415612de657612de1816131e2565b612e25565b8273ffffffffffffffffffffffffffffffffffffffff168273ffffffffffffffffffffffffffffffffffffffff1614612e2457612e2382826132b3565b5b5b505050565b600073ffffffffffffffffffffffffffffffffffffffff168273ffffffffffffffffffffffffffffffffffffffff161415612e9a576040517f08c379a0000000000000000000000000000000000000000000000000000000008152600401612e91906140f2565b60405180910390fd5b612ea381611ec7565b15612ee3576040517f08c379a0000000000000000000000000000000000000000000000000000000008152600401612eda90613fd2565b60405180910390fd5b612eef600083836129e7565b6001600360008473ffffffffffffffffffffffffffffffffffffffff1673ffffffffffffffffffffffffffffffffffffffff1681526020019081526020016000206000828254612f3f91906143b0565b92505081905550816002600083815260200190815260200160002060006101000a81548173ffffffffffffffffffffffffffffffffffffffff021916908373ffffffffffffffffffffffffffffffffffffffff160217905550808273ffffffffffffffffffffffffffffffffffffffff16600073ffffffffffffffffffffffffffffffffffffffff167fddf252ad1be2c89b69c2b068fc378daa952ba7f163c4a11628f55a4df523b3ef60405160405180910390a4613000600083836129f7565b5050565b6000808273ffffffffffffffffffffffffffffffffffffffff163b119050919050565b505050565b6008805490506009600083815260200190815260200160002081905550600881908060018154018082558091505060019003906000526020600020016000909190919091505550565b60006001613082846111a3565b61308c9190614491565b9050600060076000848152602001908152602001600020549050818114613171576000600660008673ffffffffffffffffffffffffffffffffffffffff1673ffffffffffffffffffffffffffffffffffffffff168152602001908152602001600020600084815260200190815260200160002054905080600660008773ffffffffffffffffffffffffffffffffffffffff1673ffffffffffffffffffffffffffffffffffffffff168152602001908152602001600020600084815260200190815260200160002081905550816007600083815260200190815260200160002081905550505b6007600084815260200190815260200160002060009055600660008573ffffffffffffffffffffffffffffffffffffffff1673ffffffffffffffffffffffffffffffffffffffff16815260200190815260200160002060008381526020019081526020016000206000905550505050565b600060016008805490506131f69190614491565b905060006009600084815260200190815260200160002054905060006008838154811061322657613225614714565b5b90600052602060002001549050806008838154811061324857613247614714565b5b906000526020600020018190555081600960008381526020019081526020016000208190555060096000858152602001908152602001600020600090556008805480613297576132966146e5565b5b6001900381819060005260206000200160009055905550505050565b60006132be836111a3565b905081600660008573ffffffffffffffffffffffffffffffffffffffff1673ffffffffffffffffffffffffffffffffffffffff168152602001908152602001600020600083815260200190815260200160002081905550806007600084815260200190815260200160002081905550505050565b82805461333e9061457b565b90600052602060002090601f01602090048101928261336057600085556133a7565b82601f1061337957805160ff19168380011785556133a7565b828001600101855582156133a7579182015b828111156133a657825182559160200191906001019061338b565b5b5090506133b491906133b8565b5090565b5b808211156133d15760008160009055506001016133b9565b5090565b60006133e86133e3846142b2565b61428d565b90508281526020810184848401111561340457613403614777565b5b61340f848285614539565b509392505050565b600061342a613425846142e3565b61428d565b90508281526020810184848401111561344657613445614777565b5b613451848285614539565b509392505050565b60008135905061346881614e73565b92915050565b60008135905061347d81614e8a565b92915050565b60008135905061349281614ea1565b92915050565b6000815190506134a781614ea1565b92915050565b600082601f8301126134c2576134c1614772565b5b81356134d28482602086016133d5565b91505092915050565b600082601f8301126134f0576134ef614772565b5b8135613500848260208601613417565b91505092915050565b60008135905061351881614eb8565b92915050565b60006020828403121561353457613533614781565b5b600061354284828501613459565b91505092915050565b6000806040838503121561356257613561614781565b5b600061357085828601613459565b925050602061358185828601613459565b9150509250929050565b6000806000606084860312156135a4576135a3614781565b5b60006135b286828701613459565b93505060206135c386828701613459565b92505060406135d486828701613509565b9150509250925092565b600080600080608085870312156135f8576135f7614781565b5b600061360687828801613459565b945050602061361787828801613459565b935050604061362887828801613509565b925050606085013567ffffffffffffffff8111156136495761364861477c565b5b613655878288016134ad565b91505092959194509250565b6000806040838503121561367857613677614781565b5b600061368685828601613459565b92505060206136978582860161346e565b9150509250929050565b600080604083850312156136b8576136b7614781565b5b60006136c685828601613459565b92505060206136d785828601613509565b9150509250929050565b6000602082840312156136f7576136f6614781565b5b60006137058482850161346e565b91505092915050565b60006020828403121561372457613723614781565b5b600061373284828501613483565b91505092915050565b60006020828403121561375157613750614781565b5b600061375f84828501613498565b91505092915050565b60006020828403121561377e5761377d614781565b5b600082013567ffffffffffffffff81111561379c5761379b61477c565b5b6137a8848285016134db565b91505092915050565b6000602082840312156137c7576137c6614781565b5b60006137d584828501613509565b91505092915050565b600080604083850312156137f5576137f4614781565b5b600061380385828601613509565b925050602083013567ffffffffffffffff8111156138245761382361477c565b5b613830858286016134db565b9150509250929050565b60006138468383613dc4565b60208301905092915050565b61385b816144c5565b82525050565b600061386c82614339565b6138768185614367565b935061388183614314565b8060005b838110156138b2578151613899888261383a565b97506138a48361435a565b925050600181019050613885565b5085935050505092915050565b6138c8816144d7565b82525050565b60006138d982614344565b6138e38185614378565b93506138f3818560208601614548565b6138fc81614786565b840191505092915050565b60006139128261434f565b61391c8185614394565b935061392c818560208601614548565b61393581614786565b840191505092915050565b600061394b8261434f565b61395581856143a5565b9350613965818560208601614548565b80840191505092915050565b6000815461397e8161457b565b61398881866143a5565b945060018216600081146139a357600181146139b4576139e7565b60ff198316865281860193506139e7565b6139bd85614324565b60005b838110156139df578154818901526001820191506020810190506139c0565b838801955050505b50505092915050565b60006139fd602b83614394565b9150613a0882614797565b604082019050919050565b6000613a20603283614394565b9150613a2b826147e6565b604082019050919050565b6000613a43601683614394565b9150613a4e82614835565b602082019050919050565b6000613a66602983614394565b9150613a718261485e565b604082019050919050565b6000613a89602683614394565b9150613a94826148ad565b604082019050919050565b6000613aac602583614394565b9150613ab7826148fc565b604082019050919050565b6000613acf601c83614394565b9150613ada8261494b565b602082019050919050565b6000613af2602483614394565b9150613afd82614974565b604082019050919050565b6000613b15601983614394565b9150613b20826149c3565b602082019050919050565b6000613b38602c83614394565b9150613b43826149ec565b604082019050919050565b6000613b5b603883614394565b9150613b6682614a3b565b604082019050919050565b6000613b7e602a83614394565b9150613b8982614a8a565b604082019050919050565b6000613ba1602983614394565b9150613bac82614ad9565b604082019050919050565b6000613bc4602e83614394565b9150613bcf82614b28565b604082019050919050565b6000613be7601683614394565b9150613bf282614b77565b602082019050919050565b6000613c0a602083614394565b9150613c1582614ba0565b602082019050919050565b6000613c2d603183614394565b9150613c3882614bc9565b604082019050919050565b6000613c50602c83614394565b9150613c5b82614c18565b604082019050919050565b6000613c73602083614394565b9150613c7e82614c67565b602082019050919050565b6000613c96602f83614394565b9150613ca182614c90565b604082019050919050565b6000613cb9602183614394565b9150613cc482614cdf565b604082019050919050565b6000613cdc600083614389565b9150613ce782614d2e565b600082019050919050565b6000613cff601283614394565b9150613d0a82614d31565b602082019050919050565b6000613d22601083614394565b9150613d2d82614d5a565b602082019050919050565b6000613d45603183614394565b9150613d5082614d83565b604082019050919050565b6000613d68601a83614394565b9150613d7382614dd2565b602082019050919050565b6000613d8b602c83614394565b9150613d9682614dfb565b604082019050919050565b6000613dae601283614394565b9150613db982614e4a565b602082019050919050565b613dcd8161452f565b82525050565b613ddc8161452f565b82525050565b6000613dee8285613940565b9150613dfa8284613940565b91508190509392505050565b6000613e128286613971565b9150613e1e8285613940565b9150613e2a8284613971565b9150819050949350505050565b6000613e4282613ccf565b9150819050919050565b6000602082019050613e616000830184613852565b92915050565b6000608082019050613e7c6000830187613852565b613e896020830186613852565b613e966040830185613dd3565b8181036060830152613ea881846138ce565b905095945050505050565b60006020820190508181036000830152613ecd8184613861565b905092915050565b6000602082019050613eea60008301846138bf565b92915050565b60006020820190508181036000830152613f0a8184613907565b905092915050565b60006020820190508181036000830152613f2b816139f0565b9050919050565b60006020820190508181036000830152613f4b81613a13565b9050919050565b60006020820190508181036000830152613f6b81613a36565b9050919050565b60006020820190508181036000830152613f8b81613a59565b9050919050565b60006020820190508181036000830152613fab81613a7c565b9050919050565b60006020820190508181036000830152613fcb81613a9f565b9050919050565b60006020820190508181036000830152613feb81613ac2565b9050919050565b6000602082019050818103600083015261400b81613ae5565b9050919050565b6000602082019050818103600083015261402b81613b08565b9050919050565b6000602082019050818103600083015261404b81613b2b565b9050919050565b6000602082019050818103600083015261406b81613b4e565b9050919050565b6000602082019050818103600083015261408b81613b71565b9050919050565b600060208201905081810360008301526140ab81613b94565b9050919050565b600060208201905081810360008301526140cb81613bb7565b9050919050565b600060208201905081810360008301526140eb81613bda565b9050919050565b6000602082019050818103600083015261410b81613bfd565b9050919050565b6000602082019050818103600083015261412b81613c20565b9050919050565b6000602082019050818103600083015261414b81613c43565b9050919050565b6000602082019050818103600083015261416b81613c66565b9050919050565b6000602082019050818103600083015261418b81613c89565b9050919050565b600060208201905081810360008301526141ab81613cac565b9050919050565b600060208201905081810360008301526141cb81613cf2565b9050919050565b600060208201905081810360008301526141eb81613d15565b9050919050565b6000602082019050818103600083015261420b81613d38565b9050919050565b6000602082019050818103600083015261422b81613d5b565b9050919050565b6000602082019050818103600083015261424b81613d7e565b9050919050565b6000602082019050818103600083015261426b81613da1565b9050919050565b60006020820190506142876000830184613dd3565b92915050565b60006142976142a8565b90506142a382826145ad565b919050565b6000604051905090565b600067ffffffffffffffff8211156142cd576142cc614743565b5b6142d682614786565b9050602081019050919050565b600067ffffffffffffffff8211156142fe576142fd614743565b5b61430782614786565b9050602081019050919050565b6000819050602082019050919050565b60008190508160005260206000209050919050565b600081519050919050565b600081519050919050565b600081519050919050565b6000602082019050919050565b600082825260208201905092915050565b600082825260208201905092915050565b600081905092915050565b600082825260208201905092915050565b600081905092915050565b60006143bb8261452f565b91506143c68361452f565b9250827fffffffffffffffffffffffffffffffffffffffffffffffffffffffffffffffff038211156143fb576143fa614658565b5b828201905092915050565b60006144118261452f565b915061441c8361452f565b92508261442c5761442b614687565b5b828204905092915050565b60006144428261452f565b915061444d8361452f565b9250817fffffffffffffffffffffffffffffffffffffffffffffffffffffffffffffffff048311821515161561448657614485614658565b5b828202905092915050565b600061449c8261452f565b91506144a78361452f565b9250828210156144ba576144b9614658565b5b828203905092915050565b60006144d08261450f565b9050919050565b60008115159050919050565b60007fffffffff0000000000000000000000000000000000000000000000000000000082169050919050565b600073ffffffffffffffffffffffffffffffffffffffff82169050919050565b6000819050919050565b82818337600083830152505050565b60005b8381101561456657808201518184015260208101905061454b565b83811115614575576000848401525b50505050565b6000600282049050600182168061459357607f821691505b602082108114156145a7576145a66146b6565b5b50919050565b6145b682614786565b810181811067ffffffffffffffff821117156145d5576145d4614743565b5b80604052505050565b60006145e98261452f565b91507fffffffffffffffffffffffffffffffffffffffffffffffffffffffffffffffff82141561461c5761461b614658565b5b600182019050919050565b60006146328261452f565b915061463d8361452f565b92508261464d5761464c614687565b5b828206905092915050565b7f4e487b7100000000000000000000000000000000000000000000000000000000600052601160045260246000fd5b7f4e487b7100000000000000000000000000000000000000000000000000000000600052601260045260246000fd5b7f4e487b7100000000000000000000000000000000000000000000000000000000600052602260045260246000fd5b7f4e487b7100000000000000000000000000000000000000000000000000000000600052603160045260246000fd5b7f4e487b7100000000000000000000000000000000000000000000000000000000600052603260045260246000fd5b7f4e487b7100000000000000000000000000000000000000000000000000000000600052604160045260246000fd5b600080fd5b600080fd5b600080fd5b600080fd5b6000601f19601f8301169050919050565b7f455243373231456e756d657261626c653a206f776e657220696e646578206f7560008201527f74206f6620626f756e6473000000000000000000000000000000000000000000602082015250565b7f4552433732313a207472616e7366657220746f206e6f6e20455243373231526560008201527f63656976657220696d706c656d656e7465720000000000000000000000000000602082015250565b7f54686520636f6e74726163742069732070617573656400000000000000000000600082015250565b7f50726576696f75732064726f702073616c657320686173206e6f742066696e6960008201527f73686564207965742e0000000000000000000000000000000000000000000000602082015250565b7f4f776e61626c653a206e6577206f776e657220697320746865207a65726f206160008201527f6464726573730000000000000000000000000000000000000000000000000000602082015250565b7f4552433732313a207472616e736665722066726f6d20696e636f72726563742060008201527f6f776e6572000000000000000000000000000000000000000000000000000000602082015250565b7f4552433732313a20746f6b656e20616c7265616479206d696e74656400000000600082015250565b7f4552433732313a207472616e7366657220746f20746865207a65726f2061646460008201527f7265737300000000000000000000000000000000000000000000000000000000602082015250565b7f4552433732313a20617070726f766520746f2063616c6c657200000000000000600082015250565b7f4552433732313a206f70657261746f7220717565727920666f72206e6f6e657860008201527f697374656e7420746f6b656e0000000000000000000000000000000000000000602082015250565b7f4552433732313a20617070726f76652063616c6c6572206973206e6f74206f7760008201527f6e6572206e6f7220617070726f76656420666f7220616c6c0000000000000000602082015250565b7f4552433732313a2062616c616e636520717565727920666f7220746865207a6560008201527f726f206164647265737300000000000000000000000000000000000000000000602082015250565b7f4552433732313a206f776e657220717565727920666f72206e6f6e657869737460008201527f656e7420746f6b656e0000000000000000000000000000000000000000000000602082015250565b7f45524337323155524953746f726167653a2055524920736574206f66206e6f6e60008201527f6578697374656e7420746f6b656e000000000000000000000000000000000000602082015250565b7f6d6178204e4654206c696d697420657863656564656400000000000000000000600082015250565b7f4552433732313a206d696e7420746f20746865207a65726f2061646472657373600082015250565b7f45524337323155524953746f726167653a2055524920717565727920666f722060008201527f6e6f6e6578697374656e7420746f6b656e000000000000000000000000000000602082015250565b7f4552433732313a20617070726f76656420717565727920666f72206e6f6e657860008201527f697374656e7420746f6b656e0000000000000000000000000000000000000000602082015250565b7f4f776e61626c653a2063616c6c6572206973206e6f7420746865206f776e6572600082015250565b7f4552433732314d657461646174613a2055524920717565727920666f72206e6f60008201527f6e6578697374656e7420746f6b656e0000000000000000000000000000000000602082015250565b7f4552433732313a20617070726f76616c20746f2063757272656e74206f776e6560008201527f7200000000000000000000000000000000000000000000000000000000000000602082015250565b50565b7f696e73756666696369656e742066756e64730000000000000000000000000000600082015250565b7f5472616e73666572206661696c65642e00000000000000000000000000000000600082015250565b7f4552433732313a207472616e736665722063616c6c6572206973206e6f74206f60008201527f776e6572206e6f7220617070726f766564000000000000000000000000000000602082015250565b7f4e6f206574686572206c65667420746f2077697468647261772e000000000000600082015250565b7f455243373231456e756d657261626c653a20676c6f62616c20696e646578206f60008201527f7574206f6620626f756e64730000000000000000000000000000000000000000602082015250565b7f6d696e742061746c656173742031204e46540000000000000000000000000000600082015250565b614e7c816144c5565b8114614e8757600080fd5b50565b614e93816144d7565b8114614e9e57600080fd5b50565b614eaa816144e3565b8114614eb557600080fd5b50565b614ec18161452f565b8114614ecc57600080fd5b5056fea26469706673582212204bc842ff446880c45c6871c9e70614cc13a9be106cb6986a43d611205fdf72f164736f6c63430008070033",
  "linkReferences": {},
  "deployedLinkReferences": {}
}