{
  "_format": "hh-sol-artifact-1",
  "contractName": "ResearchFundingClub",
  "sourceName": "contracts/ResearchFundingClub.sol",
  "abi": [
    {
      "inputs": [
        {
          "internalType": "string",
          "name": "baseURI",
          "type": "string"
        }
      ],
      "stateMutability": "nonpayable",
      "type": "constructor"
    },
    {
      "anonymous": false,
      "inputs": [
        {
          "indexed": true,
          "internalType": "address",
          "name": "owner",
          "type": "address"
        },
        {
          "indexed": true,
          "internalType": "address",
          "name": "approved",
          "type": "address"
        },
        {
          "indexed": true,
          "internalType": "uint256",
          "name": "tokenId",
          "type": "uint256"
        }
      ],
      "name": "Approval",
      "type": "event"
    },
    {
      "anonymous": false,
      "inputs": [
        {
          "indexed": true,
          "internalType": "address",
          "name": "owner",
          "type": "address"
        },
        {
          "indexed": true,
          "internalType": "address",
          "name": "operator",
          "type": "address"
        },
        {
          "indexed": false,
          "internalType": "bool",
          "name": "approved",
          "type": "bool"
        }
      ],
      "name": "ApprovalForAll",
      "type": "event"
    },
    {
      "anonymous": false,
      "inputs": [
        {
          "indexed": true,
          "internalType": "address",
          "name": "previousOwner",
          "type": "address"
        },
        {
          "indexed": true,
          "internalType": "address",
          "name": "newOwner",
          "type": "address"
        }
      ],
      "name": "OwnershipTransferred",
      "type": "event"
    },
    {
      "anonymous": false,
      "inputs": [
        {
          "indexed": true,
          "internalType": "address",
          "name": "from",
          "type": "address"
        },
        {
          "indexed": true,
          "internalType": "address",
          "name": "to",
          "type": "address"
        },
        {
          "indexed": true,
          "internalType": "uint256",
          "name": "tokenId",
          "type": "uint256"
        }
      ],
      "name": "Transfer",
      "type": "event"
    },
    {
      "inputs": [],
      "name": "MAX_PER_MINT",
      "outputs": [
        {
          "internalType": "uint256",
          "name": "",
          "type": "uint256"
        }
      ],
      "stateMutability": "view",
      "type": "function"
    },
    {
      "inputs": [],
      "name": "MAX_SUPPLY",
      "outputs": [
        {
          "internalType": "uint256",
          "name": "",
          "type": "uint256"
        }
      ],
      "stateMutability": "view",
      "type": "function"
    },
    {
      "inputs": [],
      "name": "MIN_SUPPLY",
      "outputs": [
        {
          "internalType": "uint256",
          "name": "",
          "type": "uint256"
        }
      ],
      "stateMutability": "view",
      "type": "function"
    },
    {
      "inputs": [],
      "name": "PRICE",
      "outputs": [
        {
          "internalType": "uint256",
          "name": "",
          "type": "uint256"
        }
      ],
      "stateMutability": "view",
      "type": "function"
    },
    {
      "inputs": [
        {
          "internalType": "address",
          "name": "to",
          "type": "address"
        },
        {
          "internalType": "uint256",
          "name": "tokenId",
          "type": "uint256"
        }
      ],
      "name": "approve",
      "outputs": [],
      "stateMutability": "nonpayable",
      "type": "function"
    },
    {
      "inputs": [
        {
          "internalType": "address",
          "name": "owner",
          "type": "address"
        }
      ],
      "name": "balanceOf",
      "outputs": [
        {
          "internalType": "uint256",
          "name": "",
          "type": "uint256"
        }
      ],
      "stateMutability": "view",
      "type": "function"
    },
    {
      "inputs": [],
      "name": "baseExtension",
      "outputs": [
        {
          "internalType": "string",
          "name": "",
          "type": "string"
        }
      ],
      "stateMutability": "view",
      "type": "function"
    },
    {
      "inputs": [],
      "name": "baseTokenURI",
      "outputs": [
        {
          "internalType": "string",
          "name": "",
          "type": "string"
        }
      ],
      "stateMutability": "view",
      "type": "function"
    },
    {
      "inputs": [
        {
          "internalType": "uint256",
          "name": "tokenId",
          "type": "uint256"
        }
      ],
      "name": "getApproved",
      "outputs": [
        {
          "internalType": "address",
          "name": "",
          "type": "address"
        }
      ],
      "stateMutability": "view",
      "type": "function"
    },
    {
      "inputs": [
        {
          "internalType": "address",
          "name": "owner",
          "type": "address"
        },
        {
          "internalType": "address",
          "name": "operator",
          "type": "address"
        }
      ],
      "name": "isApprovedForAll",
      "outputs": [
        {
          "internalType": "bool",
          "name": "",
          "type": "bool"
        }
      ],
      "stateMutability": "view",
      "type": "function"
    },
    {
      "inputs": [
        {
          "internalType": "uint256",
          "name": "_mintAmount",
          "type": "uint256"
        }
      ],
      "name": "mint",
      "outputs": [],
      "stateMutability": "payable",
      "type": "function"
    },
    {
      "inputs": [],
      "name": "name",
      "outputs": [
        {
          "internalType": "string",
          "name": "",
          "type": "string"
        }
      ],
      "stateMutability": "view",
      "type": "function"
    },
    {
      "inputs": [
        {
          "internalType": "uint256",
          "name": "_newMaxSupply",
          "type": "uint256"
        },
        {
          "internalType": "string",
          "name": "_newBaseURI",
          "type": "string"
        }
      ],
      "name": "newDrop",
      "outputs": [],
      "stateMutability": "nonpayable",
      "type": "function"
    },
    {
      "inputs": [],
      "name": "notRevealedURI",
      "outputs": [
        {
          "internalType": "string",
          "name": "",
          "type": "string"
        }
      ],
      "stateMutability": "view",
      "type": "function"
    },
    {
      "inputs": [],
      "name": "owner",
      "outputs": [
        {
          "internalType": "address",
          "name": "",
          "type": "address"
        }
      ],
      "stateMutability": "view",
      "type": "function"
    },
    {
      "inputs": [
        {
          "internalType": "uint256",
          "name": "tokenId",
          "type": "uint256"
        }
      ],
      "name": "ownerOf",
      "outputs": [
        {
          "internalType": "address",
          "name": "",
          "type": "address"
        }
      ],
      "stateMutability": "view",
      "type": "function"
    },
    {
      "inputs": [
        {
          "internalType": "bool",
          "name": "_state",
          "type": "bool"
        }
      ],
      "name": "pause",
      "outputs": [],
      "stateMutability": "nonpayable",
      "type": "function"
    },
    {
      "inputs": [],
      "name": "paused",
      "outputs": [
        {
          "internalType": "bool",
          "name": "",
          "type": "bool"
        }
      ],
      "stateMutability": "view",
      "type": "function"
    },
    {
      "inputs": [],
      "name": "renounceOwnership",
      "outputs": [],
      "stateMutability": "nonpayable",
      "type": "function"
    },
    {
      "inputs": [],
      "name": "reveal",
      "outputs": [],
      "stateMutability": "nonpayable",
      "type": "function"
    },
    {
      "inputs": [],
      "name": "revealed",
      "outputs": [
        {
          "internalType": "bool",
          "name": "",
          "type": "bool"
        }
      ],
      "stateMutability": "view",
      "type": "function"
    },
    {
      "inputs": [
        {
          "internalType": "address",
          "name": "from",
          "type": "address"
        },
        {
          "internalType": "address",
          "name": "to",
          "type": "address"
        },
        {
          "internalType": "uint256",
          "name": "tokenId",
          "type": "uint256"
        }
      ],
      "name": "safeTransferFrom",
      "outputs": [],
      "stateMutability": "nonpayable",
      "type": "function"
    },
    {
      "inputs": [
        {
          "internalType": "address",
          "name": "from",
          "type": "address"
        },
        {
          "internalType": "address",
          "name": "to",
          "type": "address"
        },
        {
          "internalType": "uint256",
          "name": "tokenId",
          "type": "uint256"
        },
        {
          "internalType": "bytes",
          "name": "_data",
          "type": "bytes"
        }
      ],
      "name": "safeTransferFrom",
      "outputs": [],
      "stateMutability": "nonpayable",
      "type": "function"
    },
    {
      "inputs": [
        {
          "internalType": "address",
          "name": "operator",
          "type": "address"
        },
        {
          "internalType": "bool",
          "name": "approved",
          "type": "bool"
        }
      ],
      "name": "setApprovalForAll",
      "outputs": [],
      "stateMutability": "nonpayable",
      "type": "function"
    },
    {
      "inputs": [
        {
          "internalType": "string",
          "name": "_newBaseExtension",
          "type": "string"
        }
      ],
      "name": "setBaseExtension",
      "outputs": [],
      "stateMutability": "nonpayable",
      "type": "function"
    },
    {
      "inputs": [
        {
          "internalType": "string",
          "name": "_baseTokenURI",
          "type": "string"
        }
      ],
      "name": "setBaseURI",
      "outputs": [],
      "stateMutability": "nonpayable",
      "type": "function"
    },
    {
      "inputs": [
        {
          "internalType": "uint256",
          "name": "_newCost",
          "type": "uint256"
        }
      ],
      "name": "setCost",
      "outputs": [],
      "stateMutability": "nonpayable",
      "type": "function"
    },
    {
      "inputs": [
        {
          "internalType": "string",
          "name": "_notRevealedURI",
          "type": "string"
        }
      ],
      "name": "setNotRevealedURI",
      "outputs": [],
      "stateMutability": "nonpayable",
      "type": "function"
    },
    {
      "inputs": [
        {
          "internalType": "uint256",
          "name": "_limit",
          "type": "uint256"
        }
      ],
      "name": "setmaxMintAmount",
      "outputs": [],
      "stateMutability": "nonpayable",
      "type": "function"
    },
    {
      "inputs": [
        {
          "internalType": "uint256",
          "name": "_limit",
          "type": "uint256"
        }
      ],
      "name": "setmaxSupply",
      "outputs": [],
      "stateMutability": "nonpayable",
      "type": "function"
    },
    {
      "inputs": [
        {
          "internalType": "bytes4",
          "name": "interfaceId",
          "type": "bytes4"
        }
      ],
      "name": "supportsInterface",
      "outputs": [
        {
          "internalType": "bool",
          "name": "",
          "type": "bool"
        }
      ],
      "stateMutability": "view",
      "type": "function"
    },
    {
      "inputs": [],
      "name": "symbol",
      "outputs": [
        {
          "internalType": "string",
          "name": "",
          "type": "string"
        }
      ],
      "stateMutability": "view",
      "type": "function"
    },
    {
      "inputs": [
        {
          "internalType": "uint256",
          "name": "index",
          "type": "uint256"
        }
      ],
      "name": "tokenByIndex",
      "outputs": [
        {
          "internalType": "uint256",
          "name": "",
          "type": "uint256"
        }
      ],
      "stateMutability": "view",
      "type": "function"
    },
    {
      "inputs": [
        {
          "internalType": "address",
          "name": "owner",
          "type": "address"
        },
        {
          "internalType": "uint256",
          "name": "index",
          "type": "uint256"
        }
      ],
      "name": "tokenOfOwnerByIndex",
      "outputs": [
        {
          "internalType": "uint256",
          "name": "",
          "type": "uint256"
        }
      ],
      "stateMutability": "view",
      "type": "function"
    },
    {
      "inputs": [
        {
          "internalType": "uint256",
          "name": "tokenId",
          "type": "uint256"
        }
      ],
      "name": "tokenURI",
      "outputs": [
        {
          "internalType": "string",
          "name": "",
          "type": "string"
        }
      ],
      "stateMutability": "view",
      "type": "function"
    },
    {
      "inputs": [
        {
          "internalType": "address",
          "name": "_owner",
          "type": "address"
        }
      ],
      "name": "tokensOfOwner",
      "outputs": [
        {
          "internalType": "uint256[]",
          "name": "",
          "type": "uint256[]"
        }
      ],
      "stateMutability": "view",
      "type": "function"
    },
    {
      "inputs": [],
      "name": "totalSupply",
      "outputs": [
        {
          "internalType": "uint256",
          "name": "",
          "type": "uint256"
        }
      ],
      "stateMutability": "view",
      "type": "function"
    },
    {
      "inputs": [
        {
          "internalType": "address",
          "name": "from",
          "type": "address"
        },
        {
          "internalType": "address",
          "name": "to",
          "type": "address"
        },
        {
          "internalType": "uint256",
          "name": "tokenId",
          "type": "uint256"
        }
      ],
      "name": "transferFrom",
      "outputs": [],
      "stateMutability": "nonpayable",
      "type": "function"
    },
    {
      "inputs": [
        {
          "internalType": "address",
          "name": "newOwner",
          "type": "address"
        }
      ],
      "name": "transferOwnership",
      "outputs": [],
      "stateMutability": "nonpayable",
      "type": "function"
    },
    {
      "inputs": [],
      "name": "withdraw",
      "outputs": [],
      "stateMutability": "payable",
      "type": "function"
    }
  ],
  "bytecode": "0x60806040526000600e60006101000a81548160ff0219169083151502179055506040518060400160405280600581526020017f2e6a736f6e000000000000000000000000000000000000000000000000000000815250600f90805190602001906200006c929190620003a5565b506040518060400160405280601081526020017f6e6f742072657665616c6564207965740000000000000000000000000000000081525060109080519060200190620000ba929190620003a5565b506000601155600a601255655af3107a400060135560016014556000601560006101000a81548160ff021916908315150217905550348015620000fc57600080fd5b50604051620056bb380380620056bb8339818101604052810190620001229190620004d3565b6040518060400160405280601581526020017f52657365617263682046756e64696e6720436c756200000000000000000000008152506040518060400160405280600381526020017f52464300000000000000000000000000000000000000000000000000000000008152508160009080519060200190620001a6929190620003a5565b508060019080519060200190620001bf929190620003a5565b505050620001e2620001d66200020260201b60201c565b6200020a60201b60201c565b6001600c81905550620001fb81620002d060201b60201c565b506200072b565b600033905090565b6000600a60009054906101000a900473ffffffffffffffffffffffffffffffffffffffff16905081600a60006101000a81548173ffffffffffffffffffffffffffffffffffffffff021916908373ffffffffffffffffffffffffffffffffffffffff1602179055508173ffffffffffffffffffffffffffffffffffffffff168173ffffffffffffffffffffffffffffffffffffffff167f8be0079c531659141344cd1fd0a4f28419497f9722a3daafe3b4186f6b6457e060405160405180910390a35050565b620002e06200020260201b60201c565b73ffffffffffffffffffffffffffffffffffffffff16620003066200037b60201b60201c565b73ffffffffffffffffffffffffffffffffffffffff16146200035f576040517f08c379a000000000000000000000000000000000000000000000000000000000815260040162000356906200054b565b60405180910390fd5b80600d908051906020019062000377929190620003a5565b5050565b6000600a60009054906101000a900473ffffffffffffffffffffffffffffffffffffffff16905090565b828054620003b39062000613565b90600052602060002090601f016020900481019282620003d7576000855562000423565b82601f10620003f257805160ff191683800117855562000423565b8280016001018555821562000423579182015b828111156200042257825182559160200191906001019062000405565b5b50905062000432919062000436565b5090565b5b808211156200045157600081600090555060010162000437565b5090565b60006200046c620004668462000596565b6200056d565b9050828152602081018484840111156200048b576200048a620006e2565b5b62000498848285620005dd565b509392505050565b600082601f830112620004b857620004b7620006dd565b5b8151620004ca84826020860162000455565b91505092915050565b600060208284031215620004ec57620004eb620006ec565b5b600082015167ffffffffffffffff8111156200050d576200050c620006e7565b5b6200051b84828501620004a0565b91505092915050565b600062000533602083620005cc565b9150620005408262000702565b602082019050919050565b60006020820190508181036000830152620005668162000524565b9050919050565b6000620005796200058c565b905062000587828262000649565b919050565b6000604051905090565b600067ffffffffffffffff821115620005b457620005b3620006ae565b5b620005bf82620006f1565b9050602081019050919050565b600082825260208201905092915050565b60005b83811015620005fd578082015181840152602081019050620005e0565b838111156200060d576000848401525b50505050565b600060028204905060018216806200062c57607f821691505b602082108114156200064357620006426200067f565b5b50919050565b6200065482620006f1565b810181811067ffffffffffffffff82111715620006765762000675620006ae565b5b80604052505050565b7f4e487b7100000000000000000000000000000000000000000000000000000000600052602260045260246000fd5b7f4e487b7100000000000000000000000000000000000000000000000000000000600052604160045260246000fd5b600080fd5b600080fd5b600080fd5b600080fd5b6000601f19601f8301169050919050565b7f4f776e61626c653a2063616c6c6572206973206e6f7420746865206f776e6572600082015250565b614f80806200073b6000396000f3fe60806040526004361061023b5760003560e01c806370a082311161012e578063a475b5dd116100ab578063da3ef23f1161006f578063da3ef23f14610845578063e985e9c51461086e578063f1a91a68146108ab578063f2c4ce1e146108d4578063f2fde38b146108fd5761023b565b8063a475b5dd14610772578063b88d4fde14610789578063c6682862146107b2578063c87b56dd146107dd578063d547cfb71461081a5761023b565b80638d859f3e116100f25780638d859f3e146106ac5780638da5cb5b146106d757806395d89b4114610702578063a0712d681461072d578063a22cb465146107495761023b565b806370a08231146105c7578063715018a614610604578063722503801461061b5780637f00c7a6146106465780638462151c1461066f5761023b565b806332cb6b0c116101bc5780634f6ccce7116101805780634f6ccce7146104ce578063518302271461050b57806355f804b3146105365780635c975abb1461055f5780636352211e1461058a5761023b565b806332cb6b0c1461041c57806335917c64146104475780633ccfd60b1461047257806342842e0e1461047c57806344a0d68a146104a55761023b565b806309d42b301161020357806309d42b301461033757806318160ddd14610362578063228025e81461038d57806323b872dd146103b65780632f745c59146103df5761023b565b806301ffc9a71461024057806302329a291461027d57806306fdde03146102a6578063081812fc146102d1578063095ea7b31461030e575b600080fd5b34801561024c57600080fd5b506102676004803603810190610262919061371d565b610926565b6040516102749190613f07565b60405180910390f35b34801561028957600080fd5b506102a4600480360381019061029f91906136f0565b610938565b005b3480156102b257600080fd5b506102bb6109d1565b6040516102c89190613f22565b60405180910390f35b3480156102dd57600080fd5b506102f860048036038101906102f391906137c0565b610a63565b6040516103059190613e7e565b60405180910390f35b34801561031a57600080fd5b50610335600480360381019061033091906136b0565b610ae8565b005b34801561034357600080fd5b5061034c610c00565b60405161035991906142c4565b60405180910390f35b34801561036e57600080fd5b50610377610c06565b60405161038491906142c4565b60405180910390f35b34801561039957600080fd5b506103b460048036038101906103af91906137c0565b610c13565b005b3480156103c257600080fd5b506103dd60048036038101906103d8919061359a565b610c99565b005b3480156103eb57600080fd5b50610406600480360381019061040191906136b0565b610cf9565b60405161041391906142c4565b60405180910390f35b34801561042857600080fd5b50610431610d9e565b60405161043e91906142c4565b60405180910390f35b34801561045357600080fd5b5061045c610da4565b60405161046991906142c4565b60405180910390f35b61047a610daa565b005b34801561048857600080fd5b506104a3600480360381019061049e919061359a565b610f74565b005b3480156104b157600080fd5b506104cc60048036038101906104c791906137c0565b610f94565b005b3480156104da57600080fd5b506104f560048036038101906104f091906137c0565b61101a565b60405161050291906142c4565b60405180910390f35b34801561051757600080fd5b5061052061108b565b60405161052d9190613f07565b60405180910390f35b34801561054257600080fd5b5061055d60048036038101906105589190613777565b61109e565b005b34801561056b57600080fd5b50610574611134565b6040516105819190613f07565b60405180910390f35b34801561059657600080fd5b506105b160048036038101906105ac91906137c0565b611147565b6040516105be9190613e7e565b60405180910390f35b3480156105d357600080fd5b506105ee60048036038101906105e9919061352d565b6111f9565b6040516105fb91906142c4565b60405180910390f35b34801561061057600080fd5b506106196112b1565b005b34801561062757600080fd5b50610630611339565b60405161063d9190613f22565b60405180910390f35b34801561065257600080fd5b5061066d600480360381019061066891906137c0565b6113c7565b005b34801561067b57600080fd5b506106966004803603810190610691919061352d565b61144d565b6040516106a39190613ee5565b60405180910390f35b3480156106b857600080fd5b506106c16114fb565b6040516106ce91906142c4565b60405180910390f35b3480156106e357600080fd5b506106ec611501565b6040516106f99190613e7e565b60405180910390f35b34801561070e57600080fd5b5061071761152b565b6040516107249190613f22565b60405180910390f35b610747600480360381019061074291906137c0565b6115bd565b005b34801561075557600080fd5b50610770600480360381019061076b9190613670565b611760565b005b34801561077e57600080fd5b50610787611776565b005b34801561079557600080fd5b506107b060048036038101906107ab91906135ed565b61180f565b005b3480156107be57600080fd5b506107c7611871565b6040516107d49190613f22565b60405180910390f35b3480156107e957600080fd5b5061080460048036038101906107ff91906137c0565b6118ff565b6040516108119190613f22565b60405180910390f35b34801561082657600080fd5b5061082f611a0f565b60405161083c9190613f22565b60405180910390f35b34801561085157600080fd5b5061086c60048036038101906108679190613777565b611a9d565b005b34801561087a57600080fd5b506108956004803603810190610890919061355a565b611b33565b6040516108a29190613f07565b60405180910390f35b3480156108b757600080fd5b506108d260048036038101906108cd91906137ed565b611bc7565b005b3480156108e057600080fd5b506108fb60048036038101906108f69190613777565b611cc6565b005b34801561090957600080fd5b50610924600480360381019061091f919061352d565b611d5c565b005b600061093182611e54565b9050919050565b610940611ece565b73ffffffffffffffffffffffffffffffffffffffff1661095e611501565b73ffffffffffffffffffffffffffffffffffffffff16146109b4576040517f08c379a00000000000000000000000000000000000000000000000000000000081526004016109ab90614184565b60405180910390fd5b80600e60006101000a81548160ff02191690831515021790555050565b6060600080546109e0906145cd565b80601f0160208091040260200160405190810160405280929190818152602001828054610a0c906145cd565b8015610a595780601f10610a2e57610100808354040283529160200191610a59565b820191906000526020600020905b815481529060010190602001808311610a3c57829003601f168201915b5050505050905090565b6000610a6e82611ed6565b610aad576040517f08c379a0000000000000000000000000000000000000000000000000000000008152600401610aa490614164565b60405180910390fd5b6004600083815260200190815260200160002060009054906101000a900473ffffffffffffffffffffffffffffffffffffffff169050919050565b6000610af382611147565b90508073ffffffffffffffffffffffffffffffffffffffff168373ffffffffffffffffffffffffffffffffffffffff161415610b64576040517f08c379a0000000000000000000000000000000000000000000000000000000008152600401610b5b906141c4565b60405180910390fd5b8073ffffffffffffffffffffffffffffffffffffffff16610b83611ece565b73ffffffffffffffffffffffffffffffffffffffff161480610bb25750610bb181610bac611ece565b611b33565b5b610bf1576040517f08c379a0000000000000000000000000000000000000000000000000000000008152600401610be890614084565b60405180910390fd5b610bfb8383611f42565b505050565b60145481565b6000600880549050905090565b610c1b611ece565b73ffffffffffffffffffffffffffffffffffffffff16610c39611501565b73ffffffffffffffffffffffffffffffffffffffff1614610c8f576040517f08c379a0000000000000000000000000000000000000000000000000000000008152600401610c8690614184565b60405180910390fd5b8060128190555050565b610caa610ca4611ece565b82611ffb565b610ce9576040517f08c379a0000000000000000000000000000000000000000000000000000000008152600401610ce090614224565b60405180910390fd5b610cf48383836120d9565b505050565b6000610d04836111f9565b8210610d45576040517f08c379a0000000000000000000000000000000000000000000000000000000008152600401610d3c90613f44565b60405180910390fd5b600660008473ffffffffffffffffffffffffffffffffffffffff1673ffffffffffffffffffffffffffffffffffffffff168152602001908152602001600020600083815260200190815260200160002054905092915050565b60125481565b60115481565b610db2611ece565b73ffffffffffffffffffffffffffffffffffffffff16610dd0611501565b73ffffffffffffffffffffffffffffffffffffffff1614610e26576040517f08c379a0000000000000000000000000000000000000000000000000000000008152600401610e1d90614184565b60405180910390fd5b6002600c541415610e6c576040517f08c379a0000000000000000000000000000000000000000000000000000000008152600401610e6390614284565b60405180910390fd5b6002600c81905550600047905060008111610ebc576040517f08c379a0000000000000000000000000000000000000000000000000000000008152600401610eb390614244565b60405180910390fd5b60003373ffffffffffffffffffffffffffffffffffffffff1682604051610ee290613e69565b60006040518083038185875af1925050503d8060008114610f1f576040519150601f19603f3d011682016040523d82523d6000602084013e610f24565b606091505b5050905080610f68576040517f08c379a0000000000000000000000000000000000000000000000000000000008152600401610f5f90614204565b60405180910390fd5b50506001600c81905550565b610f8f8383836040518060200160405280600081525061180f565b505050565b610f9c611ece565b73ffffffffffffffffffffffffffffffffffffffff16610fba611501565b73ffffffffffffffffffffffffffffffffffffffff1614611010576040517f08c379a000000000000000000000000000000000000000000000000000000000815260040161100790614184565b60405180910390fd5b8060138190555050565b6000611024610c06565b8210611065576040517f08c379a000000000000000000000000000000000000000000000000000000000815260040161105c90614264565b60405180910390fd5b6008828154811061107957611078614766565b5b90600052602060002001549050919050565b601560009054906101000a900460ff1681565b6110a6611ece565b73ffffffffffffffffffffffffffffffffffffffff166110c4611501565b73ffffffffffffffffffffffffffffffffffffffff161461111a576040517f08c379a000000000000000000000000000000000000000000000000000000000815260040161111190614184565b60405180910390fd5b80600d9080519060200190611130929190613341565b5050565b600e60009054906101000a900460ff1681565b6000806002600084815260200190815260200160002060009054906101000a900473ffffffffffffffffffffffffffffffffffffffff169050600073ffffffffffffffffffffffffffffffffffffffff168173ffffffffffffffffffffffffffffffffffffffff1614156111f0576040517f08c379a00000000000000000000000000000000000000000000000000000000081526004016111e7906140c4565b60405180910390fd5b80915050919050565b60008073ffffffffffffffffffffffffffffffffffffffff168273ffffffffffffffffffffffffffffffffffffffff16141561126a576040517f08c379a0000000000000000000000000000000000000000000000000000000008152600401611261906140a4565b60405180910390fd5b600360008373ffffffffffffffffffffffffffffffffffffffff1673ffffffffffffffffffffffffffffffffffffffff168152602001908152602001600020549050919050565b6112b9611ece565b73ffffffffffffffffffffffffffffffffffffffff166112d7611501565b73ffffffffffffffffffffffffffffffffffffffff161461132d576040517f08c379a000000000000000000000000000000000000000000000000000000000815260040161132490614184565b60405180910390fd5b6113376000612340565b565b60108054611346906145cd565b80601f0160208091040260200160405190810160405280929190818152602001828054611372906145cd565b80156113bf5780601f10611394576101008083540402835291602001916113bf565b820191906000526020600020905b8154815290600101906020018083116113a257829003601f168201915b505050505081565b6113cf611ece565b73ffffffffffffffffffffffffffffffffffffffff166113ed611501565b73ffffffffffffffffffffffffffffffffffffffff1614611443576040517f08c379a000000000000000000000000000000000000000000000000000000000815260040161143a90614184565b60405180910390fd5b8060148190555050565b6060600061145a836111f9565b905060008167ffffffffffffffff81111561147857611477614795565b5b6040519080825280602002602001820160405280156114a65781602001602082028036833780820191505090505b50905060005b828110156114f0576114be8582610cf9565b8282815181106114d1576114d0614766565b5b60200260200101818152505080806114e890614630565b9150506114ac565b508092505050919050565b60135481565b6000600a60009054906101000a900473ffffffffffffffffffffffffffffffffffffffff16905090565b60606001805461153a906145cd565b80601f0160208091040260200160405190810160405280929190818152602001828054611566906145cd565b80156115b35780601f10611588576101008083540402835291602001916115b3565b820191906000526020600020905b81548152906001019060200180831161159657829003601f168201915b5050505050905090565b600e60009054906101000a900460ff161561160d576040517f08c379a000000000000000000000000000000000000000000000000000000000815260040161160490613f84565b60405180910390fd5b6000611617610c06565b90506000821161165c576040517f08c379a0000000000000000000000000000000000000000000000000000000008152600401611653906142a4565b60405180910390fd5b601254828261166b9190614402565b11156116ac576040517f08c379a00000000000000000000000000000000000000000000000000000000081526004016116a390614104565b60405180910390fd5b60006001826116bb9190614402565b9050826013546116cb9190614489565b34101561170d576040517f08c379a0000000000000000000000000000000000000000000000000000000008152600401611704906141e4565b60405180910390fd5b6117173382612406565b61175b81600d6117336011548561172e91906144e3565b612424565b600f60405160200161174793929190613e38565b604051602081830303815290604052612585565b505050565b61177261176b611ece565b83836125f9565b5050565b61177e611ece565b73ffffffffffffffffffffffffffffffffffffffff1661179c611501565b73ffffffffffffffffffffffffffffffffffffffff16146117f2576040517f08c379a00000000000000000000000000000000000000000000000000000000081526004016117e990614184565b60405180910390fd5b6001601560006101000a81548160ff021916908315150217905550565b61182061181a611ece565b83611ffb565b61185f576040517f08c379a000000000000000000000000000000000000000000000000000000000815260040161185690614224565b60405180910390fd5b61186b84848484612766565b50505050565b600f805461187e906145cd565b80601f01602080910402602001604051908101604052809291908181526020018280546118aa906145cd565b80156118f75780601f106118cc576101008083540402835291602001916118f7565b820191906000526020600020905b8154815290600101906020018083116118da57829003601f168201915b505050505081565b606061190a82611ed6565b611949576040517f08c379a000000000000000000000000000000000000000000000000000000000815260040161194090614144565b60405180910390fd5b601560009054906101000a900460ff16158015611967575060115482115b156119fe5760108054611979906145cd565b80601f01602080910402602001604051908101604052809291908181526020018280546119a5906145cd565b80156119f25780601f106119c7576101008083540402835291602001916119f2565b820191906000526020600020905b8154815290600101906020018083116119d557829003601f168201915b50505050509050611a0a565b611a07826127c2565b90505b919050565b600d8054611a1c906145cd565b80601f0160208091040260200160405190810160405280929190818152602001828054611a48906145cd565b8015611a955780601f10611a6a57610100808354040283529160200191611a95565b820191906000526020600020905b815481529060010190602001808311611a7857829003601f168201915b505050505081565b611aa5611ece565b73ffffffffffffffffffffffffffffffffffffffff16611ac3611501565b73ffffffffffffffffffffffffffffffffffffffff1614611b19576040517f08c379a0000000000000000000000000000000000000000000000000000000008152600401611b1090614184565b60405180910390fd5b80600f9080519060200190611b2f929190613341565b5050565b6000600560008473ffffffffffffffffffffffffffffffffffffffff1673ffffffffffffffffffffffffffffffffffffffff16815260200190815260200160002060008373ffffffffffffffffffffffffffffffffffffffff1673ffffffffffffffffffffffffffffffffffffffff16815260200190815260200160002060009054906101000a900460ff16905092915050565b611bcf611ece565b73ffffffffffffffffffffffffffffffffffffffff16611bed611501565b73ffffffffffffffffffffffffffffffffffffffff1614611c43576040517f08c379a0000000000000000000000000000000000000000000000000000000008152600401611c3a90614184565b60405180910390fd5b601254611c4e610c06565b14611c8e576040517f08c379a0000000000000000000000000000000000000000000000000000000008152600401611c8590613fa4565b60405180910390fd5b60125460118190555081601281905550611ca78161109e565b6000601560006101000a81548160ff0219169083151502179055505050565b611cce611ece565b73ffffffffffffffffffffffffffffffffffffffff16611cec611501565b73ffffffffffffffffffffffffffffffffffffffff1614611d42576040517f08c379a0000000000000000000000000000000000000000000000000000000008152600401611d3990614184565b60405180910390fd5b8060109080519060200190611d58929190613341565b5050565b611d64611ece565b73ffffffffffffffffffffffffffffffffffffffff16611d82611501565b73ffffffffffffffffffffffffffffffffffffffff1614611dd8576040517f08c379a0000000000000000000000000000000000000000000000000000000008152600401611dcf90614184565b60405180910390fd5b600073ffffffffffffffffffffffffffffffffffffffff168173ffffffffffffffffffffffffffffffffffffffff161415611e48576040517f08c379a0000000000000000000000000000000000000000000000000000000008152600401611e3f90613fc4565b60405180910390fd5b611e5181612340565b50565b60007f780e9d63000000000000000000000000000000000000000000000000000000007bffffffffffffffffffffffffffffffffffffffffffffffffffffffff1916827bffffffffffffffffffffffffffffffffffffffffffffffffffffffff19161480611ec75750611ec682612914565b5b9050919050565b600033905090565b60008073ffffffffffffffffffffffffffffffffffffffff166002600084815260200190815260200160002060009054906101000a900473ffffffffffffffffffffffffffffffffffffffff1673ffffffffffffffffffffffffffffffffffffffff1614159050919050565b816004600083815260200190815260200160002060006101000a81548173ffffffffffffffffffffffffffffffffffffffff021916908373ffffffffffffffffffffffffffffffffffffffff160217905550808273ffffffffffffffffffffffffffffffffffffffff16611fb583611147565b73ffffffffffffffffffffffffffffffffffffffff167f8c5be1e5ebec7d5bd14f71427d1e84f3dd0314c0f7b2291e5b200ac8c7c3b92560405160405180910390a45050565b600061200682611ed6565b612045576040517f08c379a000000000000000000000000000000000000000000000000000000000815260040161203c90614064565b60405180910390fd5b600061205083611147565b90508073ffffffffffffffffffffffffffffffffffffffff168473ffffffffffffffffffffffffffffffffffffffff1614806120bf57508373ffffffffffffffffffffffffffffffffffffffff166120a784610a63565b73ffffffffffffffffffffffffffffffffffffffff16145b806120d057506120cf8185611b33565b5b91505092915050565b8273ffffffffffffffffffffffffffffffffffffffff166120f982611147565b73ffffffffffffffffffffffffffffffffffffffff161461214f576040517f08c379a000000000000000000000000000000000000000000000000000000000815260040161214690613fe4565b60405180910390fd5b600073ffffffffffffffffffffffffffffffffffffffff168273ffffffffffffffffffffffffffffffffffffffff1614156121bf576040517f08c379a00000000000000000000000000000000000000000000000000000000081526004016121b690614024565b60405180910390fd5b6121ca8383836129f6565b6121d5600082611f42565b6001600360008573ffffffffffffffffffffffffffffffffffffffff1673ffffffffffffffffffffffffffffffffffffffff168152602001908152602001600020600082825461222591906144e3565b925050819055506001600360008473ffffffffffffffffffffffffffffffffffffffff1673ffffffffffffffffffffffffffffffffffffffff168152602001908152602001600020600082825461227c9190614402565b92505081905550816002600083815260200190815260200160002060006101000a81548173ffffffffffffffffffffffffffffffffffffffff021916908373ffffffffffffffffffffffffffffffffffffffff160217905550808273ffffffffffffffffffffffffffffffffffffffff168473ffffffffffffffffffffffffffffffffffffffff167fddf252ad1be2c89b69c2b068fc378daa952ba7f163c4a11628f55a4df523b3ef60405160405180910390a461233b838383612a06565b505050565b6000600a60009054906101000a900473ffffffffffffffffffffffffffffffffffffffff16905081600a60006101000a81548173ffffffffffffffffffffffffffffffffffffffff021916908373ffffffffffffffffffffffffffffffffffffffff1602179055508173ffffffffffffffffffffffffffffffffffffffff168173ffffffffffffffffffffffffffffffffffffffff167f8be0079c531659141344cd1fd0a4f28419497f9722a3daafe3b4186f6b6457e060405160405180910390a35050565b612420828260405180602001604052806000815250612a0b565b5050565b6060600082141561246c576040518060400160405280600181526020017f30000000000000000000000000000000000000000000000000000000000000008152509050612580565b600082905060005b6000821461249e57808061248790614630565b915050600a826124979190614458565b9150612474565b60008167ffffffffffffffff8111156124ba576124b9614795565b5b6040519080825280601f01601f1916602001820160405280156124ec5781602001600182028036833780820191505090505b5090505b600085146125795760018261250591906144e3565b9150600a856125149190614679565b60306125209190614402565b60f81b81838151811061253657612535614766565b5b60200101907effffffffffffffffffffffffffffffffffffffffffffffffffffffffffffff1916908160001a905350600a856125729190614458565b94506124f0565b8093505050505b919050565b61258e82611ed6565b6125cd576040517f08c379a00000000000000000000000000000000000000000000000000000000081526004016125c4906140e4565b60405180910390fd5b80600b600084815260200190815260200160002090805190602001906125f4929190613341565b505050565b8173ffffffffffffffffffffffffffffffffffffffff168373ffffffffffffffffffffffffffffffffffffffff161415612668576040517f08c379a000000000000000000000000000000000000000000000000000000000815260040161265f90614044565b60405180910390fd5b80600560008573ffffffffffffffffffffffffffffffffffffffff1673ffffffffffffffffffffffffffffffffffffffff16815260200190815260200160002060008473ffffffffffffffffffffffffffffffffffffffff1673ffffffffffffffffffffffffffffffffffffffff16815260200190815260200160002060006101000a81548160ff0219169083151502179055508173ffffffffffffffffffffffffffffffffffffffff168373ffffffffffffffffffffffffffffffffffffffff167f17307eab39ab6107e8899845ad3d59bd9653f200f220920489ca2b5937696c31836040516127599190613f07565b60405180910390a3505050565b6127718484846120d9565b61277d84848484612a66565b6127bc576040517f08c379a00000000000000000000000000000000000000000000000000000000081526004016127b390613f64565b60405180910390fd5b50505050565b60606127cd82611ed6565b61280c576040517f08c379a000000000000000000000000000000000000000000000000000000000815260040161280390614144565b60405180910390fd5b6000600b6000848152602001908152602001600020805461282c906145cd565b80601f0160208091040260200160405190810160405280929190818152602001828054612858906145cd565b80156128a55780601f1061287a576101008083540402835291602001916128a5565b820191906000526020600020905b81548152906001019060200180831161288857829003601f168201915b5050505050905060006128b6612bfd565b90506000815114156128cc57819250505061290f565b6000825111156129015780826040516020016128e9929190613e14565b6040516020818303038152906040529250505061290f565b61290a84612c14565b925050505b919050565b60007f80ac58cd000000000000000000000000000000000000000000000000000000007bffffffffffffffffffffffffffffffffffffffffffffffffffffffff1916827bffffffffffffffffffffffffffffffffffffffffffffffffffffffff191614806129df57507f5b5e139f000000000000000000000000000000000000000000000000000000007bffffffffffffffffffffffffffffffffffffffffffffffffffffffff1916827bffffffffffffffffffffffffffffffffffffffffffffffffffffffff1916145b806129ef57506129ee82612cbb565b5b9050919050565b612a01838383612d25565b505050565b505050565b612a158383612e39565b612a226000848484612a66565b612a61576040517f08c379a0000000000000000000000000000000000000000000000000000000008152600401612a5890613f64565b60405180910390fd5b505050565b6000612a878473ffffffffffffffffffffffffffffffffffffffff16613013565b15612bf0578373ffffffffffffffffffffffffffffffffffffffff1663150b7a02612ab0611ece565b8786866040518563ffffffff1660e01b8152600401612ad29493929190613e99565b602060405180830381600087803b158015612aec57600080fd5b505af1925050508015612b1d57506040513d601f19601f82011682018060405250810190612b1a919061374a565b60015b612ba0573d8060008114612b4d576040519150601f19603f3d011682016040523d82523d6000602084013e612b52565b606091505b50600081511415612b98576040517f08c379a0000000000000000000000000000000000000000000000000000000008152600401612b8f90613f64565b60405180910390fd5b805181602001fd5b63150b7a0260e01b7bffffffffffffffffffffffffffffffffffffffffffffffffffffffff1916817bffffffffffffffffffffffffffffffffffffffffffffffffffffffff191614915050612bf5565b600190505b949350505050565b606060405180602001604052806000815250905090565b6060612c1f82611ed6565b612c5e576040517f08c379a0000000000000000000000000000000000000000000000000000000008152600401612c55906141a4565b60405180910390fd5b6000612c68612bfd565b90506000815111612c885760405180602001604052806000815250612cb3565b80612c9284612424565b604051602001612ca3929190613e14565b6040516020818303038152906040525b915050919050565b60007f01ffc9a7000000000000000000000000000000000000000000000000000000007bffffffffffffffffffffffffffffffffffffffffffffffffffffffff1916827bffffffffffffffffffffffffffffffffffffffffffffffffffffffff1916149050919050565b612d30838383613036565b600073ffffffffffffffffffffffffffffffffffffffff168373ffffffffffffffffffffffffffffffffffffffff161415612d7357612d6e8161303b565b612db2565b8173ffffffffffffffffffffffffffffffffffffffff168373ffffffffffffffffffffffffffffffffffffffff1614612db157612db08382613084565b5b5b600073ffffffffffffffffffffffffffffffffffffffff168273ffffffffffffffffffffffffffffffffffffffff161415612df557612df0816131f1565b612e34565b8273ffffffffffffffffffffffffffffffffffffffff168273ffffffffffffffffffffffffffffffffffffffff1614612e3357612e3282826132c2565b5b5b505050565b600073ffffffffffffffffffffffffffffffffffffffff168273ffffffffffffffffffffffffffffffffffffffff161415612ea9576040517f08c379a0000000000000000000000000000000000000000000000000000000008152600401612ea090614124565b60405180910390fd5b612eb281611ed6565b15612ef2576040517f08c379a0000000000000000000000000000000000000000000000000000000008152600401612ee990614004565b60405180910390fd5b612efe600083836129f6565b6001600360008473ffffffffffffffffffffffffffffffffffffffff1673ffffffffffffffffffffffffffffffffffffffff1681526020019081526020016000206000828254612f4e9190614402565b92505081905550816002600083815260200190815260200160002060006101000a81548173ffffffffffffffffffffffffffffffffffffffff021916908373ffffffffffffffffffffffffffffffffffffffff160217905550808273ffffffffffffffffffffffffffffffffffffffff16600073ffffffffffffffffffffffffffffffffffffffff167fddf252ad1be2c89b69c2b068fc378daa952ba7f163c4a11628f55a4df523b3ef60405160405180910390a461300f60008383612a06565b5050565b6000808273ffffffffffffffffffffffffffffffffffffffff163b119050919050565b505050565b6008805490506009600083815260200190815260200160002081905550600881908060018154018082558091505060019003906000526020600020016000909190919091505550565b60006001613091846111f9565b61309b91906144e3565b9050600060076000848152602001908152602001600020549050818114613180576000600660008673ffffffffffffffffffffffffffffffffffffffff1673ffffffffffffffffffffffffffffffffffffffff168152602001908152602001600020600084815260200190815260200160002054905080600660008773ffffffffffffffffffffffffffffffffffffffff1673ffffffffffffffffffffffffffffffffffffffff168152602001908152602001600020600084815260200190815260200160002081905550816007600083815260200190815260200160002081905550505b6007600084815260200190815260200160002060009055600660008573ffffffffffffffffffffffffffffffffffffffff1673ffffffffffffffffffffffffffffffffffffffff16815260200190815260200160002060008381526020019081526020016000206000905550505050565b6000600160088054905061320591906144e3565b905060006009600084815260200190815260200160002054905060006008838154811061323557613234614766565b5b90600052602060002001549050806008838154811061325757613256614766565b5b9060005260206000200181905550816009600083815260200190815260200160002081905550600960008581526020019081526020016000206000905560088054806132a6576132a5614737565b5b6001900381819060005260206000200160009055905550505050565b60006132cd836111f9565b905081600660008573ffffffffffffffffffffffffffffffffffffffff1673ffffffffffffffffffffffffffffffffffffffff168152602001908152602001600020600083815260200190815260200160002081905550806007600084815260200190815260200160002081905550505050565b82805461334d906145cd565b90600052602060002090601f01602090048101928261336f57600085556133b6565b82601f1061338857805160ff19168380011785556133b6565b828001600101855582156133b6579182015b828111156133b557825182559160200191906001019061339a565b5b5090506133c391906133c7565b5090565b5b808211156133e05760008160009055506001016133c8565b5090565b60006133f76133f284614304565b6142df565b905082815260208101848484011115613413576134126147c9565b5b61341e84828561458b565b509392505050565b600061343961343484614335565b6142df565b905082815260208101848484011115613455576134546147c9565b5b61346084828561458b565b509392505050565b60008135905061347781614eee565b92915050565b60008135905061348c81614f05565b92915050565b6000813590506134a181614f1c565b92915050565b6000815190506134b681614f1c565b92915050565b600082601f8301126134d1576134d06147c4565b5b81356134e18482602086016133e4565b91505092915050565b600082601f8301126134ff576134fe6147c4565b5b813561350f848260208601613426565b91505092915050565b60008135905061352781614f33565b92915050565b600060208284031215613543576135426147d3565b5b600061355184828501613468565b91505092915050565b60008060408385031215613571576135706147d3565b5b600061357f85828601613468565b925050602061359085828601613468565b9150509250929050565b6000806000606084860312156135b3576135b26147d3565b5b60006135c186828701613468565b93505060206135d286828701613468565b92505060406135e386828701613518565b9150509250925092565b60008060008060808587031215613607576136066147d3565b5b600061361587828801613468565b945050602061362687828801613468565b935050604061363787828801613518565b925050606085013567ffffffffffffffff811115613658576136576147ce565b5b613664878288016134bc565b91505092959194509250565b60008060408385031215613687576136866147d3565b5b600061369585828601613468565b92505060206136a68582860161347d565b9150509250929050565b600080604083850312156136c7576136c66147d3565b5b60006136d585828601613468565b92505060206136e685828601613518565b9150509250929050565b600060208284031215613706576137056147d3565b5b60006137148482850161347d565b91505092915050565b600060208284031215613733576137326147d3565b5b600061374184828501613492565b91505092915050565b6000602082840312156137605761375f6147d3565b5b600061376e848285016134a7565b91505092915050565b60006020828403121561378d5761378c6147d3565b5b600082013567ffffffffffffffff8111156137ab576137aa6147ce565b5b6137b7848285016134ea565b91505092915050565b6000602082840312156137d6576137d56147d3565b5b60006137e484828501613518565b91505092915050565b60008060408385031215613804576138036147d3565b5b600061381285828601613518565b925050602083013567ffffffffffffffff811115613833576138326147ce565b5b61383f858286016134ea565b9150509250929050565b60006138558383613df6565b60208301905092915050565b61386a81614517565b82525050565b600061387b8261438b565b61388581856143b9565b935061389083614366565b8060005b838110156138c15781516138a88882613849565b97506138b3836143ac565b925050600181019050613894565b5085935050505092915050565b6138d781614529565b82525050565b60006138e882614396565b6138f281856143ca565b935061390281856020860161459a565b61390b816147d8565b840191505092915050565b6000613921826143a1565b61392b81856143e6565b935061393b81856020860161459a565b613944816147d8565b840191505092915050565b600061395a826143a1565b61396481856143f7565b935061397481856020860161459a565b80840191505092915050565b6000815461398d816145cd565b61399781866143f7565b945060018216600081146139b257600181146139c3576139f6565b60ff198316865281860193506139f6565b6139cc85614376565b60005b838110156139ee578154818901526001820191506020810190506139cf565b838801955050505b50505092915050565b6000613a0c602b836143e6565b9150613a17826147e9565b604082019050919050565b6000613a2f6032836143e6565b9150613a3a82614838565b604082019050919050565b6000613a526016836143e6565b9150613a5d82614887565b602082019050919050565b6000613a756029836143e6565b9150613a80826148b0565b604082019050919050565b6000613a986026836143e6565b9150613aa3826148ff565b604082019050919050565b6000613abb6025836143e6565b9150613ac68261494e565b604082019050919050565b6000613ade601c836143e6565b9150613ae98261499d565b602082019050919050565b6000613b016024836143e6565b9150613b0c826149c6565b604082019050919050565b6000613b246019836143e6565b9150613b2f82614a15565b602082019050919050565b6000613b47602c836143e6565b9150613b5282614a3e565b604082019050919050565b6000613b6a6038836143e6565b9150613b7582614a8d565b604082019050919050565b6000613b8d602a836143e6565b9150613b9882614adc565b604082019050919050565b6000613bb06029836143e6565b9150613bbb82614b2b565b604082019050919050565b6000613bd3602e836143e6565b9150613bde82614b7a565b604082019050919050565b6000613bf66016836143e6565b9150613c0182614bc9565b602082019050919050565b6000613c196020836143e6565b9150613c2482614bf2565b602082019050919050565b6000613c3c6031836143e6565b9150613c4782614c1b565b604082019050919050565b6000613c5f602c836143e6565b9150613c6a82614c6a565b604082019050919050565b6000613c826020836143e6565b9150613c8d82614cb9565b602082019050919050565b6000613ca5602f836143e6565b9150613cb082614ce2565b604082019050919050565b6000613cc86021836143e6565b9150613cd382614d31565b604082019050919050565b6000613ceb6000836143db565b9150613cf682614d80565b600082019050919050565b6000613d0e6012836143e6565b9150613d1982614d83565b602082019050919050565b6000613d316010836143e6565b9150613d3c82614dac565b602082019050919050565b6000613d546031836143e6565b9150613d5f82614dd5565b604082019050919050565b6000613d77601a836143e6565b9150613d8282614e24565b602082019050919050565b6000613d9a602c836143e6565b9150613da582614e4d565b604082019050919050565b6000613dbd601f836143e6565b9150613dc882614e9c565b602082019050919050565b6000613de06012836143e6565b9150613deb82614ec5565b602082019050919050565b613dff81614581565b82525050565b613e0e81614581565b82525050565b6000613e20828561394f565b9150613e2c828461394f565b91508190509392505050565b6000613e448286613980565b9150613e50828561394f565b9150613e5c8284613980565b9150819050949350505050565b6000613e7482613cde565b9150819050919050565b6000602082019050613e936000830184613861565b92915050565b6000608082019050613eae6000830187613861565b613ebb6020830186613861565b613ec86040830185613e05565b8181036060830152613eda81846138dd565b905095945050505050565b60006020820190508181036000830152613eff8184613870565b905092915050565b6000602082019050613f1c60008301846138ce565b92915050565b60006020820190508181036000830152613f3c8184613916565b905092915050565b60006020820190508181036000830152613f5d816139ff565b9050919050565b60006020820190508181036000830152613f7d81613a22565b9050919050565b60006020820190508181036000830152613f9d81613a45565b9050919050565b60006020820190508181036000830152613fbd81613a68565b9050919050565b60006020820190508181036000830152613fdd81613a8b565b9050919050565b60006020820190508181036000830152613ffd81613aae565b9050919050565b6000602082019050818103600083015261401d81613ad1565b9050919050565b6000602082019050818103600083015261403d81613af4565b9050919050565b6000602082019050818103600083015261405d81613b17565b9050919050565b6000602082019050818103600083015261407d81613b3a565b9050919050565b6000602082019050818103600083015261409d81613b5d565b9050919050565b600060208201905081810360008301526140bd81613b80565b9050919050565b600060208201905081810360008301526140dd81613ba3565b9050919050565b600060208201905081810360008301526140fd81613bc6565b9050919050565b6000602082019050818103600083015261411d81613be9565b9050919050565b6000602082019050818103600083015261413d81613c0c565b9050919050565b6000602082019050818103600083015261415d81613c2f565b9050919050565b6000602082019050818103600083015261417d81613c52565b9050919050565b6000602082019050818103600083015261419d81613c75565b9050919050565b600060208201905081810360008301526141bd81613c98565b9050919050565b600060208201905081810360008301526141dd81613cbb565b9050919050565b600060208201905081810360008301526141fd81613d01565b9050919050565b6000602082019050818103600083015261421d81613d24565b9050919050565b6000602082019050818103600083015261423d81613d47565b9050919050565b6000602082019050818103600083015261425d81613d6a565b9050919050565b6000602082019050818103600083015261427d81613d8d565b9050919050565b6000602082019050818103600083015261429d81613db0565b9050919050565b600060208201905081810360008301526142bd81613dd3565b9050919050565b60006020820190506142d96000830184613e05565b92915050565b60006142e96142fa565b90506142f582826145ff565b919050565b6000604051905090565b600067ffffffffffffffff82111561431f5761431e614795565b5b614328826147d8565b9050602081019050919050565b600067ffffffffffffffff8211156143505761434f614795565b5b614359826147d8565b9050602081019050919050565b6000819050602082019050919050565b60008190508160005260206000209050919050565b600081519050919050565b600081519050919050565b600081519050919050565b6000602082019050919050565b600082825260208201905092915050565b600082825260208201905092915050565b600081905092915050565b600082825260208201905092915050565b600081905092915050565b600061440d82614581565b915061441883614581565b9250827fffffffffffffffffffffffffffffffffffffffffffffffffffffffffffffffff0382111561444d5761444c6146aa565b5b828201905092915050565b600061446382614581565b915061446e83614581565b92508261447e5761447d6146d9565b5b828204905092915050565b600061449482614581565b915061449f83614581565b9250817fffffffffffffffffffffffffffffffffffffffffffffffffffffffffffffffff04831182151516156144d8576144d76146aa565b5b828202905092915050565b60006144ee82614581565b91506144f983614581565b92508282101561450c5761450b6146aa565b5b828203905092915050565b600061452282614561565b9050919050565b60008115159050919050565b60007fffffffff0000000000000000000000000000000000000000000000000000000082169050919050565b600073ffffffffffffffffffffffffffffffffffffffff82169050919050565b6000819050919050565b82818337600083830152505050565b60005b838110156145b857808201518184015260208101905061459d565b838111156145c7576000848401525b50505050565b600060028204905060018216806145e557607f821691505b602082108114156145f9576145f8614708565b5b50919050565b614608826147d8565b810181811067ffffffffffffffff8211171561462757614626614795565b5b80604052505050565b600061463b82614581565b91507fffffffffffffffffffffffffffffffffffffffffffffffffffffffffffffffff82141561466e5761466d6146aa565b5b600182019050919050565b600061468482614581565b915061468f83614581565b92508261469f5761469e6146d9565b5b828206905092915050565b7f4e487b7100000000000000000000000000000000000000000000000000000000600052601160045260246000fd5b7f4e487b7100000000000000000000000000000000000000000000000000000000600052601260045260246000fd5b7f4e487b7100000000000000000000000000000000000000000000000000000000600052602260045260246000fd5b7f4e487b7100000000000000000000000000000000000000000000000000000000600052603160045260246000fd5b7f4e487b7100000000000000000000000000000000000000000000000000000000600052603260045260246000fd5b7f4e487b7100000000000000000000000000000000000000000000000000000000600052604160045260246000fd5b600080fd5b600080fd5b600080fd5b600080fd5b6000601f19601f8301169050919050565b7f455243373231456e756d657261626c653a206f776e657220696e646578206f7560008201527f74206f6620626f756e6473000000000000000000000000000000000000000000602082015250565b7f4552433732313a207472616e7366657220746f206e6f6e20455243373231526560008201527f63656976657220696d706c656d656e7465720000000000000000000000000000602082015250565b7f54686520636f6e74726163742069732070617573656400000000000000000000600082015250565b7f50726576696f75732064726f702073616c657320686173206e6f742066696e6960008201527f73686564207965742e0000000000000000000000000000000000000000000000602082015250565b7f4f776e61626c653a206e6577206f776e657220697320746865207a65726f206160008201527f6464726573730000000000000000000000000000000000000000000000000000602082015250565b7f4552433732313a207472616e736665722066726f6d20696e636f72726563742060008201527f6f776e6572000000000000000000000000000000000000000000000000000000602082015250565b7f4552433732313a20746f6b656e20616c7265616479206d696e74656400000000600082015250565b7f4552433732313a207472616e7366657220746f20746865207a65726f2061646460008201527f7265737300000000000000000000000000000000000000000000000000000000602082015250565b7f4552433732313a20617070726f766520746f2063616c6c657200000000000000600082015250565b7f4552433732313a206f70657261746f7220717565727920666f72206e6f6e657860008201527f697374656e7420746f6b656e0000000000000000000000000000000000000000602082015250565b7f4552433732313a20617070726f76652063616c6c6572206973206e6f74206f7760008201527f6e6572206e6f7220617070726f76656420666f7220616c6c0000000000000000602082015250565b7f4552433732313a2062616c616e636520717565727920666f7220746865207a6560008201527f726f206164647265737300000000000000000000000000000000000000000000602082015250565b7f4552433732313a206f776e657220717565727920666f72206e6f6e657869737460008201527f656e7420746f6b656e0000000000000000000000000000000000000000000000602082015250565b7f45524337323155524953746f726167653a2055524920736574206f66206e6f6e60008201527f6578697374656e7420746f6b656e000000000000000000000000000000000000602082015250565b7f6d6178204e4654206c696d697420657863656564656400000000000000000000600082015250565b7f4552433732313a206d696e7420746f20746865207a65726f2061646472657373600082015250565b7f45524337323155524953746f726167653a2055524920717565727920666f722060008201527f6e6f6e6578697374656e7420746f6b656e000000000000000000000000000000602082015250565b7f4552433732313a20617070726f76656420717565727920666f72206e6f6e657860008201527f697374656e7420746f6b656e0000000000000000000000000000000000000000602082015250565b7f4f776e61626c653a2063616c6c6572206973206e6f7420746865206f776e6572600082015250565b7f4552433732314d657461646174613a2055524920717565727920666f72206e6f60008201527f6e6578697374656e7420746f6b656e0000000000000000000000000000000000602082015250565b7f4552433732313a20617070726f76616c20746f2063757272656e74206f776e6560008201527f7200000000000000000000000000000000000000000000000000000000000000602082015250565b50565b7f696e73756666696369656e742066756e64730000000000000000000000000000600082015250565b7f5472616e73666572206661696c65642e00000000000000000000000000000000600082015250565b7f4552433732313a207472616e736665722063616c6c6572206973206e6f74206f60008201527f776e6572206e6f7220617070726f766564000000000000000000000000000000602082015250565b7f4e6f206574686572206c65667420746f2077697468647261772e000000000000600082015250565b7f455243373231456e756d657261626c653a20676c6f62616c20696e646578206f60008201527f7574206f6620626f756e64730000000000000000000000000000000000000000602082015250565b7f5265656e7472616e637947756172643a207265656e7472616e742063616c6c00600082015250565b7f6d696e742061746c656173742031204e46540000000000000000000000000000600082015250565b614ef781614517565b8114614f0257600080fd5b50565b614f0e81614529565b8114614f1957600080fd5b50565b614f2581614535565b8114614f3057600080fd5b50565b614f3c81614581565b8114614f4757600080fd5b5056fea2646970667358221220ae582d3f24512e7c4368e4e34438c214e8cad598e45e4fd626bd9833a12be1ee64736f6c63430008070033",
  "linkReferences": {},
  "deployedLinkReferences": {}
}