{
  "_format": "hh-sol-artifact-1",
  "contractName": "ResearchFundingClub",
  "sourceName": "contracts/ResearchFundingClub.sol",
  "abi": [
    {
      "inputs": [
        {
          "internalType": "string",
          "name": "baseURI",
          "type": "string"
        }
      ],
      "stateMutability": "nonpayable",
      "type": "constructor"
    },
    {
      "anonymous": false,
      "inputs": [
        {
          "indexed": true,
          "internalType": "address",
          "name": "owner",
          "type": "address"
        },
        {
          "indexed": true,
          "internalType": "address",
          "name": "approved",
          "type": "address"
        },
        {
          "indexed": true,
          "internalType": "uint256",
          "name": "tokenId",
          "type": "uint256"
        }
      ],
      "name": "Approval",
      "type": "event"
    },
    {
      "anonymous": false,
      "inputs": [
        {
          "indexed": true,
          "internalType": "address",
          "name": "owner",
          "type": "address"
        },
        {
          "indexed": true,
          "internalType": "address",
          "name": "operator",
          "type": "address"
        },
        {
          "indexed": false,
          "internalType": "bool",
          "name": "approved",
          "type": "bool"
        }
      ],
      "name": "ApprovalForAll",
      "type": "event"
    },
    {
      "anonymous": false,
      "inputs": [
        {
          "indexed": true,
          "internalType": "address",
          "name": "previousOwner",
          "type": "address"
        },
        {
          "indexed": true,
          "internalType": "address",
          "name": "newOwner",
          "type": "address"
        }
      ],
      "name": "OwnershipTransferred",
      "type": "event"
    },
    {
      "anonymous": false,
      "inputs": [
        {
          "indexed": true,
          "internalType": "address",
          "name": "from",
          "type": "address"
        },
        {
          "indexed": true,
          "internalType": "address",
          "name": "to",
          "type": "address"
        },
        {
          "indexed": true,
          "internalType": "uint256",
          "name": "tokenId",
          "type": "uint256"
        }
      ],
      "name": "Transfer",
      "type": "event"
    },
    {
      "inputs": [],
      "name": "MAX_PER_MINT",
      "outputs": [
        {
          "internalType": "uint256",
          "name": "",
          "type": "uint256"
        }
      ],
      "stateMutability": "view",
      "type": "function"
    },
    {
      "inputs": [],
      "name": "MAX_SUPPLY",
      "outputs": [
        {
          "internalType": "uint256",
          "name": "",
          "type": "uint256"
        }
      ],
      "stateMutability": "view",
      "type": "function"
    },
    {
      "inputs": [],
      "name": "MIN_SUPPLY",
      "outputs": [
        {
          "internalType": "uint256",
          "name": "",
          "type": "uint256"
        }
      ],
      "stateMutability": "view",
      "type": "function"
    },
    {
      "inputs": [],
      "name": "PRICE",
      "outputs": [
        {
          "internalType": "uint256",
          "name": "",
          "type": "uint256"
        }
      ],
      "stateMutability": "view",
      "type": "function"
    },
    {
      "inputs": [
        {
          "internalType": "address",
          "name": "to",
          "type": "address"
        },
        {
          "internalType": "uint256",
          "name": "tokenId",
          "type": "uint256"
        }
      ],
      "name": "approve",
      "outputs": [],
      "stateMutability": "nonpayable",
      "type": "function"
    },
    {
      "inputs": [
        {
          "internalType": "address",
          "name": "owner",
          "type": "address"
        }
      ],
      "name": "balanceOf",
      "outputs": [
        {
          "internalType": "uint256",
          "name": "",
          "type": "uint256"
        }
      ],
      "stateMutability": "view",
      "type": "function"
    },
    {
      "inputs": [],
      "name": "baseExtension",
      "outputs": [
        {
          "internalType": "string",
          "name": "",
          "type": "string"
        }
      ],
      "stateMutability": "view",
      "type": "function"
    },
    {
      "inputs": [],
      "name": "baseTokenURI",
      "outputs": [
        {
          "internalType": "string",
          "name": "",
          "type": "string"
        }
      ],
      "stateMutability": "view",
      "type": "function"
    },
    {
      "inputs": [],
      "name": "charityWallet",
      "outputs": [
        {
          "internalType": "address",
          "name": "",
          "type": "address"
        }
      ],
      "stateMutability": "view",
      "type": "function"
    },
    {
      "inputs": [],
      "name": "devWallet",
      "outputs": [
        {
          "internalType": "address",
          "name": "",
          "type": "address"
        }
      ],
      "stateMutability": "view",
      "type": "function"
    },
    {
      "inputs": [
        {
          "internalType": "uint256",
          "name": "tokenId",
          "type": "uint256"
        }
      ],
      "name": "getApproved",
      "outputs": [
        {
          "internalType": "address",
          "name": "",
          "type": "address"
        }
      ],
      "stateMutability": "view",
      "type": "function"
    },
    {
      "inputs": [
        {
          "internalType": "address",
          "name": "owner",
          "type": "address"
        },
        {
          "internalType": "address",
          "name": "operator",
          "type": "address"
        }
      ],
      "name": "isApprovedForAll",
      "outputs": [
        {
          "internalType": "bool",
          "name": "",
          "type": "bool"
        }
      ],
      "stateMutability": "view",
      "type": "function"
    },
    {
      "inputs": [],
      "name": "medicalCharityWallet",
      "outputs": [
        {
          "internalType": "address",
          "name": "",
          "type": "address"
        }
      ],
      "stateMutability": "view",
      "type": "function"
    },
    {
      "inputs": [
        {
          "internalType": "uint256",
          "name": "_mintAmount",
          "type": "uint256"
        }
      ],
      "name": "mint",
      "outputs": [],
      "stateMutability": "payable",
      "type": "function"
    },
    {
      "inputs": [],
      "name": "name",
      "outputs": [
        {
          "internalType": "string",
          "name": "",
          "type": "string"
        }
      ],
      "stateMutability": "view",
      "type": "function"
    },
    {
      "inputs": [
        {
          "internalType": "uint256",
          "name": "_newMaxSupply",
          "type": "uint256"
        },
        {
          "internalType": "string",
          "name": "_newBaseURI",
          "type": "string"
        }
      ],
      "name": "newDrop",
      "outputs": [],
      "stateMutability": "nonpayable",
      "type": "function"
    },
    {
      "inputs": [],
      "name": "notRevealedURI",
      "outputs": [
        {
          "internalType": "string",
          "name": "",
          "type": "string"
        }
      ],
      "stateMutability": "view",
      "type": "function"
    },
    {
      "inputs": [],
      "name": "owner",
      "outputs": [
        {
          "internalType": "address",
          "name": "",
          "type": "address"
        }
      ],
      "stateMutability": "view",
      "type": "function"
    },
    {
      "inputs": [
        {
          "internalType": "uint256",
          "name": "tokenId",
          "type": "uint256"
        }
      ],
      "name": "ownerOf",
      "outputs": [
        {
          "internalType": "address",
          "name": "",
          "type": "address"
        }
      ],
      "stateMutability": "view",
      "type": "function"
    },
    {
      "inputs": [
        {
          "internalType": "bool",
          "name": "_state",
          "type": "bool"
        }
      ],
      "name": "pause",
      "outputs": [],
      "stateMutability": "nonpayable",
      "type": "function"
    },
    {
      "inputs": [],
      "name": "paused",
      "outputs": [
        {
          "internalType": "bool",
          "name": "",
          "type": "bool"
        }
      ],
      "stateMutability": "view",
      "type": "function"
    },
    {
      "inputs": [],
      "name": "renounceOwnership",
      "outputs": [],
      "stateMutability": "nonpayable",
      "type": "function"
    },
    {
      "inputs": [],
      "name": "reveal",
      "outputs": [],
      "stateMutability": "nonpayable",
      "type": "function"
    },
    {
      "inputs": [],
      "name": "revealed",
      "outputs": [
        {
          "internalType": "bool",
          "name": "",
          "type": "bool"
        }
      ],
      "stateMutability": "view",
      "type": "function"
    },
    {
      "inputs": [
        {
          "internalType": "address",
          "name": "from",
          "type": "address"
        },
        {
          "internalType": "address",
          "name": "to",
          "type": "address"
        },
        {
          "internalType": "uint256",
          "name": "tokenId",
          "type": "uint256"
        }
      ],
      "name": "safeTransferFrom",
      "outputs": [],
      "stateMutability": "nonpayable",
      "type": "function"
    },
    {
      "inputs": [
        {
          "internalType": "address",
          "name": "from",
          "type": "address"
        },
        {
          "internalType": "address",
          "name": "to",
          "type": "address"
        },
        {
          "internalType": "uint256",
          "name": "tokenId",
          "type": "uint256"
        },
        {
          "internalType": "bytes",
          "name": "_data",
          "type": "bytes"
        }
      ],
      "name": "safeTransferFrom",
      "outputs": [],
      "stateMutability": "nonpayable",
      "type": "function"
    },
    {
      "inputs": [
        {
          "internalType": "address",
          "name": "operator",
          "type": "address"
        },
        {
          "internalType": "bool",
          "name": "approved",
          "type": "bool"
        }
      ],
      "name": "setApprovalForAll",
      "outputs": [],
      "stateMutability": "nonpayable",
      "type": "function"
    },
    {
      "inputs": [
        {
          "internalType": "string",
          "name": "_newBaseExtension",
          "type": "string"
        }
      ],
      "name": "setBaseExtension",
      "outputs": [],
      "stateMutability": "nonpayable",
      "type": "function"
    },
    {
      "inputs": [
        {
          "internalType": "string",
          "name": "_baseTokenURI",
          "type": "string"
        }
      ],
      "name": "setBaseURI",
      "outputs": [],
      "stateMutability": "nonpayable",
      "type": "function"
    },
    {
      "inputs": [
        {
          "internalType": "uint256",
          "name": "_newCost",
          "type": "uint256"
        }
      ],
      "name": "setCost",
      "outputs": [],
      "stateMutability": "nonpayable",
      "type": "function"
    },
    {
      "inputs": [
        {
          "internalType": "string",
          "name": "_notRevealedURI",
          "type": "string"
        }
      ],
      "name": "setNotRevealedURI",
      "outputs": [],
      "stateMutability": "nonpayable",
      "type": "function"
    },
    {
      "inputs": [
        {
          "internalType": "uint256",
          "name": "_limit",
          "type": "uint256"
        }
      ],
      "name": "setmaxMintAmount",
      "outputs": [],
      "stateMutability": "nonpayable",
      "type": "function"
    },
    {
      "inputs": [
        {
          "internalType": "uint256",
          "name": "_limit",
          "type": "uint256"
        }
      ],
      "name": "setmaxSupply",
      "outputs": [],
      "stateMutability": "nonpayable",
      "type": "function"
    },
    {
      "inputs": [
        {
          "internalType": "bytes4",
          "name": "interfaceId",
          "type": "bytes4"
        }
      ],
      "name": "supportsInterface",
      "outputs": [
        {
          "internalType": "bool",
          "name": "",
          "type": "bool"
        }
      ],
      "stateMutability": "view",
      "type": "function"
    },
    {
      "inputs": [],
      "name": "symbol",
      "outputs": [
        {
          "internalType": "string",
          "name": "",
          "type": "string"
        }
      ],
      "stateMutability": "view",
      "type": "function"
    },
    {
      "inputs": [
        {
          "internalType": "uint256",
          "name": "index",
          "type": "uint256"
        }
      ],
      "name": "tokenByIndex",
      "outputs": [
        {
          "internalType": "uint256",
          "name": "",
          "type": "uint256"
        }
      ],
      "stateMutability": "view",
      "type": "function"
    },
    {
      "inputs": [
        {
          "internalType": "address",
          "name": "owner",
          "type": "address"
        },
        {
          "internalType": "uint256",
          "name": "index",
          "type": "uint256"
        }
      ],
      "name": "tokenOfOwnerByIndex",
      "outputs": [
        {
          "internalType": "uint256",
          "name": "",
          "type": "uint256"
        }
      ],
      "stateMutability": "view",
      "type": "function"
    },
    {
      "inputs": [
        {
          "internalType": "uint256",
          "name": "tokenId",
          "type": "uint256"
        }
      ],
      "name": "tokenURI",
      "outputs": [
        {
          "internalType": "string",
          "name": "",
          "type": "string"
        }
      ],
      "stateMutability": "view",
      "type": "function"
    },
    {
      "inputs": [
        {
          "internalType": "address",
          "name": "_owner",
          "type": "address"
        }
      ],
      "name": "tokensOfOwner",
      "outputs": [
        {
          "internalType": "uint256[]",
          "name": "",
          "type": "uint256[]"
        }
      ],
      "stateMutability": "view",
      "type": "function"
    },
    {
      "inputs": [],
      "name": "totalSupply",
      "outputs": [
        {
          "internalType": "uint256",
          "name": "",
          "type": "uint256"
        }
      ],
      "stateMutability": "view",
      "type": "function"
    },
    {
      "inputs": [
        {
          "internalType": "address",
          "name": "from",
          "type": "address"
        },
        {
          "internalType": "address",
          "name": "to",
          "type": "address"
        },
        {
          "internalType": "uint256",
          "name": "tokenId",
          "type": "uint256"
        }
      ],
      "name": "transferFrom",
      "outputs": [],
      "stateMutability": "nonpayable",
      "type": "function"
    },
    {
      "inputs": [
        {
          "internalType": "address",
          "name": "newOwner",
          "type": "address"
        }
      ],
      "name": "transferOwnership",
      "outputs": [],
      "stateMutability": "nonpayable",
      "type": "function"
    },
    {
      "inputs": [],
      "name": "withdraw",
      "outputs": [],
      "stateMutability": "nonpayable",
      "type": "function"
    }
  ],
  "bytecode": "0x60806040526000600e60006101000a81548160ff0219169083151502179055506040518060400160405280600581526020017f2e6a736f6e000000000000000000000000000000000000000000000000000000815250600f90805190602001906200006c929190620004a4565b506040518060400160405280601081526020017f6e6f742072657665616c6564207965740000000000000000000000000000000081525060109080519060200190620000ba929190620004a4565b506000601155600a601255655af3107a400060135560016014556000601560006101000a81548160ff02191690831515021790555073f9351cfab08d72e873424708a817a067fa33f45f601560016101000a81548173ffffffffffffffffffffffffffffffffffffffff021916908373ffffffffffffffffffffffffffffffffffffffff16021790555073f9351cfab08d72e873424708a817a067fa33f45f601660006101000a81548173ffffffffffffffffffffffffffffffffffffffff021916908373ffffffffffffffffffffffffffffffffffffffff16021790555073f9351cfab08d72e873424708a817a067fa33f45f601760006101000a81548173ffffffffffffffffffffffffffffffffffffffff021916908373ffffffffffffffffffffffffffffffffffffffff160217905550348015620001fb57600080fd5b5060405162005cf938038062005cf98339818101604052810190620002219190620005d2565b6040518060400160405280601581526020017f52657365617263682046756e64696e6720436c756200000000000000000000008152506040518060400160405280600381526020017f52464300000000000000000000000000000000000000000000000000000000008152508160009080519060200190620002a5929190620004a4565b508060019080519060200190620002be929190620004a4565b505050620002e1620002d56200030160201b60201c565b6200030960201b60201c565b6001600c81905550620002fa81620003cf60201b60201c565b506200082a565b600033905090565b6000600a60009054906101000a900473ffffffffffffffffffffffffffffffffffffffff16905081600a60006101000a81548173ffffffffffffffffffffffffffffffffffffffff021916908373ffffffffffffffffffffffffffffffffffffffff1602179055508173ffffffffffffffffffffffffffffffffffffffff168173ffffffffffffffffffffffffffffffffffffffff167f8be0079c531659141344cd1fd0a4f28419497f9722a3daafe3b4186f6b6457e060405160405180910390a35050565b620003df6200030160201b60201c565b73ffffffffffffffffffffffffffffffffffffffff16620004056200047a60201b60201c565b73ffffffffffffffffffffffffffffffffffffffff16146200045e576040517f08c379a000000000000000000000000000000000000000000000000000000000815260040162000455906200064a565b60405180910390fd5b80600d908051906020019062000476929190620004a4565b5050565b6000600a60009054906101000a900473ffffffffffffffffffffffffffffffffffffffff16905090565b828054620004b29062000712565b90600052602060002090601f016020900481019282620004d6576000855562000522565b82601f10620004f157805160ff191683800117855562000522565b8280016001018555821562000522579182015b828111156200052157825182559160200191906001019062000504565b5b50905062000531919062000535565b5090565b5b808211156200055057600081600090555060010162000536565b5090565b60006200056b620005658462000695565b6200066c565b9050828152602081018484840111156200058a5762000589620007e1565b5b62000597848285620006dc565b509392505050565b600082601f830112620005b757620005b6620007dc565b5b8151620005c984826020860162000554565b91505092915050565b600060208284031215620005eb57620005ea620007eb565b5b600082015167ffffffffffffffff8111156200060c576200060b620007e6565b5b6200061a848285016200059f565b91505092915050565b600062000632602083620006cb565b91506200063f8262000801565b602082019050919050565b60006020820190508181036000830152620006658162000623565b9050919050565b6000620006786200068b565b905062000686828262000748565b919050565b6000604051905090565b600067ffffffffffffffff821115620006b357620006b2620007ad565b5b620006be82620007f0565b9050602081019050919050565b600082825260208201905092915050565b60005b83811015620006fc578082015181840152602081019050620006df565b838111156200070c576000848401525b50505050565b600060028204905060018216806200072b57607f821691505b602082108114156200074257620007416200077e565b5b50919050565b6200075382620007f0565b810181811067ffffffffffffffff82111715620007755762000774620007ad565b5b80604052505050565b7f4e487b7100000000000000000000000000000000000000000000000000000000600052602260045260246000fd5b7f4e487b7100000000000000000000000000000000000000000000000000000000600052604160045260246000fd5b600080fd5b600080fd5b600080fd5b600080fd5b6000601f19601f8301169050919050565b7f4f776e61626c653a2063616c6c6572206973206e6f7420746865206f776e6572600082015250565b6154bf806200083a6000396000f3fe60806040526004361061025c5760003560e01c8063715018a611610144578063a475b5dd116100b6578063d547cfb71161007a578063d547cfb7146108c9578063da3ef23f146108f4578063e985e9c51461091d578063f1a91a681461095a578063f2c4ce1e14610983578063f2fde38b146109ac5761025c565b8063a475b5dd146107f6578063b88d4fde1461080d578063c668286214610836578063c87b56dd14610861578063d0284f261461089e5761025c565b80638d859f3e116101085780638d859f3e146107055780638da5cb5b146107305780638ea5220f1461075b57806395d89b4114610786578063a0712d68146107b1578063a22cb465146107cd5761025c565b8063715018a61461063257806372250380146106495780637b208769146106745780637f00c7a61461069f5780638462151c146106c85761025c565b806332cb6b0c116101dd5780634f6ccce7116101a15780634f6ccce7146104fc578063518302271461053957806355f804b3146105645780635c975abb1461058d5780636352211e146105b857806370a08231146105f55761025c565b806332cb6b0c1461043d57806335917c64146104685780633ccfd60b1461049357806342842e0e146104aa57806344a0d68a146104d35761025c565b806309d42b301161022457806309d42b301461035857806318160ddd14610383578063228025e8146103ae57806323b872dd146103d75780632f745c59146104005761025c565b806301ffc9a71461026157806302329a291461029e57806306fdde03146102c7578063081812fc146102f2578063095ea7b31461032f575b600080fd5b34801561026d57600080fd5b5061028860048036038101906102839190613af2565b6109d5565b6040516102959190614345565b60405180910390f35b3480156102aa57600080fd5b506102c560048036038101906102c09190613ac5565b6109e7565b005b3480156102d357600080fd5b506102dc610a80565b6040516102e99190614360565b60405180910390f35b3480156102fe57600080fd5b5061031960048036038101906103149190613b95565b610b12565b60405161032691906142bc565b60405180910390f35b34801561033b57600080fd5b5061035660048036038101906103519190613a85565b610b97565b005b34801561036457600080fd5b5061036d610caf565b60405161037a9190614762565b60405180910390f35b34801561038f57600080fd5b50610398610cb5565b6040516103a59190614762565b60405180910390f35b3480156103ba57600080fd5b506103d560048036038101906103d09190613b95565b610cc2565b005b3480156103e357600080fd5b506103fe60048036038101906103f9919061396f565b610d48565b005b34801561040c57600080fd5b5061042760048036038101906104229190613a85565b610da8565b6040516104349190614762565b60405180910390f35b34801561044957600080fd5b50610452610e4d565b60405161045f9190614762565b60405180910390f35b34801561047457600080fd5b5061047d610e53565b60405161048a9190614762565b60405180910390f35b34801561049f57600080fd5b506104a8610e59565b005b3480156104b657600080fd5b506104d160048036038101906104cc919061396f565b6112d8565b005b3480156104df57600080fd5b506104fa60048036038101906104f59190613b95565b6112f8565b005b34801561050857600080fd5b50610523600480360381019061051e9190613b95565b61137e565b6040516105309190614762565b60405180910390f35b34801561054557600080fd5b5061054e6113ef565b60405161055b9190614345565b60405180910390f35b34801561057057600080fd5b5061058b60048036038101906105869190613b4c565b611402565b005b34801561059957600080fd5b506105a2611498565b6040516105af9190614345565b60405180910390f35b3480156105c457600080fd5b506105df60048036038101906105da9190613b95565b6114ab565b6040516105ec91906142bc565b60405180910390f35b34801561060157600080fd5b5061061c60048036038101906106179190613902565b61155d565b6040516106299190614762565b60405180910390f35b34801561063e57600080fd5b50610647611615565b005b34801561065557600080fd5b5061065e61169d565b60405161066b9190614360565b60405180910390f35b34801561068057600080fd5b5061068961172b565b60405161069691906142bc565b60405180910390f35b3480156106ab57600080fd5b506106c660048036038101906106c19190613b95565b611751565b005b3480156106d457600080fd5b506106ef60048036038101906106ea9190613902565b6117d7565b6040516106fc9190614323565b60405180910390f35b34801561071157600080fd5b5061071a611885565b6040516107279190614762565b60405180910390f35b34801561073c57600080fd5b5061074561188b565b60405161075291906142bc565b60405180910390f35b34801561076757600080fd5b506107706118b5565b60405161077d91906142bc565b60405180910390f35b34801561079257600080fd5b5061079b6118db565b6040516107a89190614360565b60405180910390f35b6107cb60048036038101906107c69190613b95565b61196d565b005b3480156107d957600080fd5b506107f460048036038101906107ef9190613a45565b611b0f565b005b34801561080257600080fd5b5061080b611b25565b005b34801561081957600080fd5b50610834600480360381019061082f91906139c2565b611bbe565b005b34801561084257600080fd5b5061084b611c20565b6040516108589190614360565b60405180910390f35b34801561086d57600080fd5b5061088860048036038101906108839190613b95565b611cae565b6040516108959190614360565b60405180910390f35b3480156108aa57600080fd5b506108b3611dbe565b6040516108c091906142bc565b60405180910390f35b3480156108d557600080fd5b506108de611de4565b6040516108eb9190614360565b60405180910390f35b34801561090057600080fd5b5061091b60048036038101906109169190613b4c565b611e72565b005b34801561092957600080fd5b50610944600480360381019061093f919061392f565b611f08565b6040516109519190614345565b60405180910390f35b34801561096657600080fd5b50610981600480360381019061097c9190613bc2565b611f9c565b005b34801561098f57600080fd5b506109aa60048036038101906109a59190613b4c565b61209b565b005b3480156109b857600080fd5b506109d360048036038101906109ce9190613902565b612131565b005b60006109e082612229565b9050919050565b6109ef6122a3565b73ffffffffffffffffffffffffffffffffffffffff16610a0d61188b565b73ffffffffffffffffffffffffffffffffffffffff1614610a63576040517f08c379a0000000000000000000000000000000000000000000000000000000008152600401610a5a906145c2565b60405180910390fd5b80600e60006101000a81548160ff02191690831515021790555050565b606060008054610a8f90614a6b565b80601f0160208091040260200160405190810160405280929190818152602001828054610abb90614a6b565b8015610b085780601f10610add57610100808354040283529160200191610b08565b820191906000526020600020905b815481529060010190602001808311610aeb57829003601f168201915b5050505050905090565b6000610b1d826122ab565b610b5c576040517f08c379a0000000000000000000000000000000000000000000000000000000008152600401610b53906145a2565b60405180910390fd5b6004600083815260200190815260200160002060009054906101000a900473ffffffffffffffffffffffffffffffffffffffff169050919050565b6000610ba2826114ab565b90508073ffffffffffffffffffffffffffffffffffffffff168373ffffffffffffffffffffffffffffffffffffffff161415610c13576040517f08c379a0000000000000000000000000000000000000000000000000000000008152600401610c0a90614622565b60405180910390fd5b8073ffffffffffffffffffffffffffffffffffffffff16610c326122a3565b73ffffffffffffffffffffffffffffffffffffffff161480610c615750610c6081610c5b6122a3565b611f08565b5b610ca0576040517f08c379a0000000000000000000000000000000000000000000000000000000008152600401610c97906144c2565b60405180910390fd5b610caa8383612317565b505050565b60145481565b6000600880549050905090565b610cca6122a3565b73ffffffffffffffffffffffffffffffffffffffff16610ce861188b565b73ffffffffffffffffffffffffffffffffffffffff1614610d3e576040517f08c379a0000000000000000000000000000000000000000000000000000000008152600401610d35906145c2565b60405180910390fd5b8060128190555050565b610d59610d536122a3565b826123d0565b610d98576040517f08c379a0000000000000000000000000000000000000000000000000000000008152600401610d8f90614682565b60405180910390fd5b610da38383836124ae565b505050565b6000610db38361155d565b8210610df4576040517f08c379a0000000000000000000000000000000000000000000000000000000008152600401610deb90614382565b60405180910390fd5b600660008473ffffffffffffffffffffffffffffffffffffffff1673ffffffffffffffffffffffffffffffffffffffff168152602001908152602001600020600083815260200190815260200160002054905092915050565b60125481565b60115481565b610e616122a3565b73ffffffffffffffffffffffffffffffffffffffff16610e7f61188b565b73ffffffffffffffffffffffffffffffffffffffff1614610ed5576040517f08c379a0000000000000000000000000000000000000000000000000000000008152600401610ecc906145c2565b60405180910390fd5b6002600c541415610f1b576040517f08c379a0000000000000000000000000000000000000000000000000000000008152600401610f1290614702565b60405180910390fd5b6002600c81905550600047905060008111610f6b576040517f08c379a0000000000000000000000000000000000000000000000000000000008152600401610f62906146a2565b60405180910390fd5b6000601560019054906101000a900473ffffffffffffffffffffffffffffffffffffffff1673ffffffffffffffffffffffffffffffffffffffff166064600547610fb59190614927565b610fbf91906148f6565b604051610fcb906142a7565b60006040518083038185875af1925050503d8060008114611008576040519150601f19603f3d011682016040523d82523d6000602084013e61100d565b606091505b5050905080611051576040517f08c379a000000000000000000000000000000000000000000000000000000000815260040161104890614602565b60405180910390fd5b6000601760009054906101000a900473ffffffffffffffffffffffffffffffffffffffff1673ffffffffffffffffffffffffffffffffffffffff166064600a4761109b9190614927565b6110a591906148f6565b6040516110b1906142a7565b60006040518083038185875af1925050503d80600081146110ee576040519150601f19603f3d011682016040523d82523d6000602084013e6110f3565b606091505b5050905080611137576040517f08c379a000000000000000000000000000000000000000000000000000000000815260040161112e90614722565b60405180910390fd5b6000601660009054906101000a900473ffffffffffffffffffffffffffffffffffffffff1673ffffffffffffffffffffffffffffffffffffffff1660646004476111819190614927565b61118b91906148f6565b604051611197906142a7565b60006040518083038185875af1925050503d80600081146111d4576040519150601f19603f3d011682016040523d82523d6000602084013e6111d9565b606091505b505090508061121d576040517f08c379a0000000000000000000000000000000000000000000000000000000008152600401611214906146e2565b60405180910390fd5b60003373ffffffffffffffffffffffffffffffffffffffff1647604051611243906142a7565b60006040518083038185875af1925050503d8060008114611280576040519150601f19603f3d011682016040523d82523d6000602084013e611285565b606091505b50509050806112c9576040517f08c379a00000000000000000000000000000000000000000000000000000000081526004016112c090614662565b60405180910390fd5b50505050506001600c81905550565b6112f383838360405180602001604052806000815250611bbe565b505050565b6113006122a3565b73ffffffffffffffffffffffffffffffffffffffff1661131e61188b565b73ffffffffffffffffffffffffffffffffffffffff1614611374576040517f08c379a000000000000000000000000000000000000000000000000000000000815260040161136b906145c2565b60405180910390fd5b8060138190555050565b6000611388610cb5565b82106113c9576040517f08c379a00000000000000000000000000000000000000000000000000000000081526004016113c0906146c2565b60405180910390fd5b600882815481106113dd576113dc614c04565b5b90600052602060002001549050919050565b601560009054906101000a900460ff1681565b61140a6122a3565b73ffffffffffffffffffffffffffffffffffffffff1661142861188b565b73ffffffffffffffffffffffffffffffffffffffff161461147e576040517f08c379a0000000000000000000000000000000000000000000000000000000008152600401611475906145c2565b60405180910390fd5b80600d9080519060200190611494929190613716565b5050565b600e60009054906101000a900460ff1681565b6000806002600084815260200190815260200160002060009054906101000a900473ffffffffffffffffffffffffffffffffffffffff169050600073ffffffffffffffffffffffffffffffffffffffff168173ffffffffffffffffffffffffffffffffffffffff161415611554576040517f08c379a000000000000000000000000000000000000000000000000000000000815260040161154b90614502565b60405180910390fd5b80915050919050565b60008073ffffffffffffffffffffffffffffffffffffffff168273ffffffffffffffffffffffffffffffffffffffff1614156115ce576040517f08c379a00000000000000000000000000000000000000000000000000000000081526004016115c5906144e2565b60405180910390fd5b600360008373ffffffffffffffffffffffffffffffffffffffff1673ffffffffffffffffffffffffffffffffffffffff168152602001908152602001600020549050919050565b61161d6122a3565b73ffffffffffffffffffffffffffffffffffffffff1661163b61188b565b73ffffffffffffffffffffffffffffffffffffffff1614611691576040517f08c379a0000000000000000000000000000000000000000000000000000000008152600401611688906145c2565b60405180910390fd5b61169b6000612715565b565b601080546116aa90614a6b565b80601f01602080910402602001604051908101604052809291908181526020018280546116d690614a6b565b80156117235780601f106116f857610100808354040283529160200191611723565b820191906000526020600020905b81548152906001019060200180831161170657829003601f168201915b505050505081565b601560019054906101000a900473ffffffffffffffffffffffffffffffffffffffff1681565b6117596122a3565b73ffffffffffffffffffffffffffffffffffffffff1661177761188b565b73ffffffffffffffffffffffffffffffffffffffff16146117cd576040517f08c379a00000000000000000000000000000000000000000000000000000000081526004016117c4906145c2565b60405180910390fd5b8060148190555050565b606060006117e48361155d565b905060008167ffffffffffffffff81111561180257611801614c33565b5b6040519080825280602002602001820160405280156118305781602001602082028036833780820191505090505b50905060005b8281101561187a576118488582610da8565b82828151811061185b5761185a614c04565b5b602002602001018181525050808061187290614ace565b915050611836565b508092505050919050565b60135481565b6000600a60009054906101000a900473ffffffffffffffffffffffffffffffffffffffff16905090565b601660009054906101000a900473ffffffffffffffffffffffffffffffffffffffff1681565b6060600180546118ea90614a6b565b80601f016020809104026020016040519081016040528092919081815260200182805461191690614a6b565b80156119635780601f1061193857610100808354040283529160200191611963565b820191906000526020600020905b81548152906001019060200180831161194657829003601f168201915b5050505050905090565b600e60009054906101000a900460ff16156119bd576040517f08c379a00000000000000000000000000000000000000000000000000000000081526004016119b4906143c2565b60405180910390fd5b60006119c7610cb5565b905060008211611a0c576040517f08c379a0000000000000000000000000000000000000000000000000000000008152600401611a0390614742565b60405180910390fd5b6012548282611a1b91906148a0565b1115611a5c576040517f08c379a0000000000000000000000000000000000000000000000000000000008152600401611a5390614542565b60405180910390fd5b60008282611a6a91906148a0565b905082601354611a7a9190614927565b341015611abc576040517f08c379a0000000000000000000000000000000000000000000000000000000008152600401611ab390614642565b60405180910390fd5b611ac633826127db565b611b0a81600d611ae260115485611add9190614981565b6127f9565b600f604051602001611af693929190614276565b60405160208183030381529060405261295a565b505050565b611b21611b1a6122a3565b83836129ce565b5050565b611b2d6122a3565b73ffffffffffffffffffffffffffffffffffffffff16611b4b61188b565b73ffffffffffffffffffffffffffffffffffffffff1614611ba1576040517f08c379a0000000000000000000000000000000000000000000000000000000008152600401611b98906145c2565b60405180910390fd5b6001601560006101000a81548160ff021916908315150217905550565b611bcf611bc96122a3565b836123d0565b611c0e576040517f08c379a0000000000000000000000000000000000000000000000000000000008152600401611c0590614682565b60405180910390fd5b611c1a84848484612b3b565b50505050565b600f8054611c2d90614a6b565b80601f0160208091040260200160405190810160405280929190818152602001828054611c5990614a6b565b8015611ca65780601f10611c7b57610100808354040283529160200191611ca6565b820191906000526020600020905b815481529060010190602001808311611c8957829003601f168201915b505050505081565b6060611cb9826122ab565b611cf8576040517f08c379a0000000000000000000000000000000000000000000000000000000008152600401611cef90614582565b60405180910390fd5b601560009054906101000a900460ff16158015611d16575060115482115b15611dad5760108054611d2890614a6b565b80601f0160208091040260200160405190810160405280929190818152602001828054611d5490614a6b565b8015611da15780601f10611d7657610100808354040283529160200191611da1565b820191906000526020600020905b815481529060010190602001808311611d8457829003601f168201915b50505050509050611db9565b611db682612b97565b90505b919050565b601760009054906101000a900473ffffffffffffffffffffffffffffffffffffffff1681565b600d8054611df190614a6b565b80601f0160208091040260200160405190810160405280929190818152602001828054611e1d90614a6b565b8015611e6a5780601f10611e3f57610100808354040283529160200191611e6a565b820191906000526020600020905b815481529060010190602001808311611e4d57829003601f168201915b505050505081565b611e7a6122a3565b73ffffffffffffffffffffffffffffffffffffffff16611e9861188b565b73ffffffffffffffffffffffffffffffffffffffff1614611eee576040517f08c379a0000000000000000000000000000000000000000000000000000000008152600401611ee5906145c2565b60405180910390fd5b80600f9080519060200190611f04929190613716565b5050565b6000600560008473ffffffffffffffffffffffffffffffffffffffff1673ffffffffffffffffffffffffffffffffffffffff16815260200190815260200160002060008373ffffffffffffffffffffffffffffffffffffffff1673ffffffffffffffffffffffffffffffffffffffff16815260200190815260200160002060009054906101000a900460ff16905092915050565b611fa46122a3565b73ffffffffffffffffffffffffffffffffffffffff16611fc261188b565b73ffffffffffffffffffffffffffffffffffffffff1614612018576040517f08c379a000000000000000000000000000000000000000000000000000000000815260040161200f906145c2565b60405180910390fd5b601254612023610cb5565b14612063576040517f08c379a000000000000000000000000000000000000000000000000000000000815260040161205a906143e2565b60405180910390fd5b6012546011819055508160128190555061207c81611402565b6000601560006101000a81548160ff0219169083151502179055505050565b6120a36122a3565b73ffffffffffffffffffffffffffffffffffffffff166120c161188b565b73ffffffffffffffffffffffffffffffffffffffff1614612117576040517f08c379a000000000000000000000000000000000000000000000000000000000815260040161210e906145c2565b60405180910390fd5b806010908051906020019061212d929190613716565b5050565b6121396122a3565b73ffffffffffffffffffffffffffffffffffffffff1661215761188b565b73ffffffffffffffffffffffffffffffffffffffff16146121ad576040517f08c379a00000000000000000000000000000000000000000000000000000000081526004016121a4906145c2565b60405180910390fd5b600073ffffffffffffffffffffffffffffffffffffffff168173ffffffffffffffffffffffffffffffffffffffff16141561221d576040517f08c379a000000000000000000000000000000000000000000000000000000000815260040161221490614402565b60405180910390fd5b61222681612715565b50565b60007f780e9d63000000000000000000000000000000000000000000000000000000007bffffffffffffffffffffffffffffffffffffffffffffffffffffffff1916827bffffffffffffffffffffffffffffffffffffffffffffffffffffffff1916148061229c575061229b82612ce9565b5b9050919050565b600033905090565b60008073ffffffffffffffffffffffffffffffffffffffff166002600084815260200190815260200160002060009054906101000a900473ffffffffffffffffffffffffffffffffffffffff1673ffffffffffffffffffffffffffffffffffffffff1614159050919050565b816004600083815260200190815260200160002060006101000a81548173ffffffffffffffffffffffffffffffffffffffff021916908373ffffffffffffffffffffffffffffffffffffffff160217905550808273ffffffffffffffffffffffffffffffffffffffff1661238a836114ab565b73ffffffffffffffffffffffffffffffffffffffff167f8c5be1e5ebec7d5bd14f71427d1e84f3dd0314c0f7b2291e5b200ac8c7c3b92560405160405180910390a45050565b60006123db826122ab565b61241a576040517f08c379a0000000000000000000000000000000000000000000000000000000008152600401612411906144a2565b60405180910390fd5b6000612425836114ab565b90508073ffffffffffffffffffffffffffffffffffffffff168473ffffffffffffffffffffffffffffffffffffffff16148061249457508373ffffffffffffffffffffffffffffffffffffffff1661247c84610b12565b73ffffffffffffffffffffffffffffffffffffffff16145b806124a557506124a48185611f08565b5b91505092915050565b8273ffffffffffffffffffffffffffffffffffffffff166124ce826114ab565b73ffffffffffffffffffffffffffffffffffffffff1614612524576040517f08c379a000000000000000000000000000000000000000000000000000000000815260040161251b90614422565b60405180910390fd5b600073ffffffffffffffffffffffffffffffffffffffff168273ffffffffffffffffffffffffffffffffffffffff161415612594576040517f08c379a000000000000000000000000000000000000000000000000000000000815260040161258b90614462565b60405180910390fd5b61259f838383612dcb565b6125aa600082612317565b6001600360008573ffffffffffffffffffffffffffffffffffffffff1673ffffffffffffffffffffffffffffffffffffffff16815260200190815260200160002060008282546125fa9190614981565b925050819055506001600360008473ffffffffffffffffffffffffffffffffffffffff1673ffffffffffffffffffffffffffffffffffffffff168152602001908152602001600020600082825461265191906148a0565b92505081905550816002600083815260200190815260200160002060006101000a81548173ffffffffffffffffffffffffffffffffffffffff021916908373ffffffffffffffffffffffffffffffffffffffff160217905550808273ffffffffffffffffffffffffffffffffffffffff168473ffffffffffffffffffffffffffffffffffffffff167fddf252ad1be2c89b69c2b068fc378daa952ba7f163c4a11628f55a4df523b3ef60405160405180910390a4612710838383612ddb565b505050565b6000600a60009054906101000a900473ffffffffffffffffffffffffffffffffffffffff16905081600a60006101000a81548173ffffffffffffffffffffffffffffffffffffffff021916908373ffffffffffffffffffffffffffffffffffffffff1602179055508173ffffffffffffffffffffffffffffffffffffffff168173ffffffffffffffffffffffffffffffffffffffff167f8be0079c531659141344cd1fd0a4f28419497f9722a3daafe3b4186f6b6457e060405160405180910390a35050565b6127f5828260405180602001604052806000815250612de0565b5050565b60606000821415612841576040518060400160405280600181526020017f30000000000000000000000000000000000000000000000000000000000000008152509050612955565b600082905060005b6000821461287357808061285c90614ace565b915050600a8261286c91906148f6565b9150612849565b60008167ffffffffffffffff81111561288f5761288e614c33565b5b6040519080825280601f01601f1916602001820160405280156128c15781602001600182028036833780820191505090505b5090505b6000851461294e576001826128da9190614981565b9150600a856128e99190614b17565b60306128f591906148a0565b60f81b81838151811061290b5761290a614c04565b5b60200101907effffffffffffffffffffffffffffffffffffffffffffffffffffffffffffff1916908160001a905350600a8561294791906148f6565b94506128c5565b8093505050505b919050565b612963826122ab565b6129a2576040517f08c379a000000000000000000000000000000000000000000000000000000000815260040161299990614522565b60405180910390fd5b80600b600084815260200190815260200160002090805190602001906129c9929190613716565b505050565b8173ffffffffffffffffffffffffffffffffffffffff168373ffffffffffffffffffffffffffffffffffffffff161415612a3d576040517f08c379a0000000000000000000000000000000000000000000000000000000008152600401612a3490614482565b60405180910390fd5b80600560008573ffffffffffffffffffffffffffffffffffffffff1673ffffffffffffffffffffffffffffffffffffffff16815260200190815260200160002060008473ffffffffffffffffffffffffffffffffffffffff1673ffffffffffffffffffffffffffffffffffffffff16815260200190815260200160002060006101000a81548160ff0219169083151502179055508173ffffffffffffffffffffffffffffffffffffffff168373ffffffffffffffffffffffffffffffffffffffff167f17307eab39ab6107e8899845ad3d59bd9653f200f220920489ca2b5937696c3183604051612b2e9190614345565b60405180910390a3505050565b612b468484846124ae565b612b5284848484612e3b565b612b91576040517f08c379a0000000000000000000000000000000000000000000000000000000008152600401612b88906143a2565b60405180910390fd5b50505050565b6060612ba2826122ab565b612be1576040517f08c379a0000000000000000000000000000000000000000000000000000000008152600401612bd890614582565b60405180910390fd5b6000600b60008481526020019081526020016000208054612c0190614a6b565b80601f0160208091040260200160405190810160405280929190818152602001828054612c2d90614a6b565b8015612c7a5780601f10612c4f57610100808354040283529160200191612c7a565b820191906000526020600020905b815481529060010190602001808311612c5d57829003601f168201915b505050505090506000612c8b612fd2565b9050600081511415612ca1578192505050612ce4565b600082511115612cd6578082604051602001612cbe929190614252565b60405160208183030381529060405292505050612ce4565b612cdf84612fe9565b925050505b919050565b60007f80ac58cd000000000000000000000000000000000000000000000000000000007bffffffffffffffffffffffffffffffffffffffffffffffffffffffff1916827bffffffffffffffffffffffffffffffffffffffffffffffffffffffff19161480612db457507f5b5e139f000000000000000000000000000000000000000000000000000000007bffffffffffffffffffffffffffffffffffffffffffffffffffffffff1916827bffffffffffffffffffffffffffffffffffffffffffffffffffffffff1916145b80612dc45750612dc382613090565b5b9050919050565b612dd68383836130fa565b505050565b505050565b612dea838361320e565b612df76000848484612e3b565b612e36576040517f08c379a0000000000000000000000000000000000000000000000000000000008152600401612e2d906143a2565b60405180910390fd5b505050565b6000612e5c8473ffffffffffffffffffffffffffffffffffffffff166133e8565b15612fc5578373ffffffffffffffffffffffffffffffffffffffff1663150b7a02612e856122a3565b8786866040518563ffffffff1660e01b8152600401612ea794939291906142d7565b602060405180830381600087803b158015612ec157600080fd5b505af1925050508015612ef257506040513d601f19601f82011682018060405250810190612eef9190613b1f565b60015b612f75573d8060008114612f22576040519150601f19603f3d011682016040523d82523d6000602084013e612f27565b606091505b50600081511415612f6d576040517f08c379a0000000000000000000000000000000000000000000000000000000008152600401612f64906143a2565b60405180910390fd5b805181602001fd5b63150b7a0260e01b7bffffffffffffffffffffffffffffffffffffffffffffffffffffffff1916817bffffffffffffffffffffffffffffffffffffffffffffffffffffffff191614915050612fca565b600190505b949350505050565b606060405180602001604052806000815250905090565b6060612ff4826122ab565b613033576040517f08c379a000000000000000000000000000000000000000000000000000000000815260040161302a906145e2565b60405180910390fd5b600061303d612fd2565b9050600081511161305d5760405180602001604052806000815250613088565b80613067846127f9565b604051602001613078929190614252565b6040516020818303038152906040525b915050919050565b60007f01ffc9a7000000000000000000000000000000000000000000000000000000007bffffffffffffffffffffffffffffffffffffffffffffffffffffffff1916827bffffffffffffffffffffffffffffffffffffffffffffffffffffffff1916149050919050565b61310583838361340b565b600073ffffffffffffffffffffffffffffffffffffffff168373ffffffffffffffffffffffffffffffffffffffff1614156131485761314381613410565b613187565b8173ffffffffffffffffffffffffffffffffffffffff168373ffffffffffffffffffffffffffffffffffffffff1614613186576131858382613459565b5b5b600073ffffffffffffffffffffffffffffffffffffffff168273ffffffffffffffffffffffffffffffffffffffff1614156131ca576131c5816135c6565b613209565b8273ffffffffffffffffffffffffffffffffffffffff168273ffffffffffffffffffffffffffffffffffffffff1614613208576132078282613697565b5b5b505050565b600073ffffffffffffffffffffffffffffffffffffffff168273ffffffffffffffffffffffffffffffffffffffff16141561327e576040517f08c379a000000000000000000000000000000000000000000000000000000000815260040161327590614562565b60405180910390fd5b613287816122ab565b156132c7576040517f08c379a00000000000000000000000000000000000000000000000000000000081526004016132be90614442565b60405180910390fd5b6132d360008383612dcb565b6001600360008473ffffffffffffffffffffffffffffffffffffffff1673ffffffffffffffffffffffffffffffffffffffff168152602001908152602001600020600082825461332391906148a0565b92505081905550816002600083815260200190815260200160002060006101000a81548173ffffffffffffffffffffffffffffffffffffffff021916908373ffffffffffffffffffffffffffffffffffffffff160217905550808273ffffffffffffffffffffffffffffffffffffffff16600073ffffffffffffffffffffffffffffffffffffffff167fddf252ad1be2c89b69c2b068fc378daa952ba7f163c4a11628f55a4df523b3ef60405160405180910390a46133e460008383612ddb565b5050565b6000808273ffffffffffffffffffffffffffffffffffffffff163b119050919050565b505050565b6008805490506009600083815260200190815260200160002081905550600881908060018154018082558091505060019003906000526020600020016000909190919091505550565b600060016134668461155d565b6134709190614981565b9050600060076000848152602001908152602001600020549050818114613555576000600660008673ffffffffffffffffffffffffffffffffffffffff1673ffffffffffffffffffffffffffffffffffffffff168152602001908152602001600020600084815260200190815260200160002054905080600660008773ffffffffffffffffffffffffffffffffffffffff1673ffffffffffffffffffffffffffffffffffffffff168152602001908152602001600020600084815260200190815260200160002081905550816007600083815260200190815260200160002081905550505b6007600084815260200190815260200160002060009055600660008573ffffffffffffffffffffffffffffffffffffffff1673ffffffffffffffffffffffffffffffffffffffff16815260200190815260200160002060008381526020019081526020016000206000905550505050565b600060016008805490506135da9190614981565b905060006009600084815260200190815260200160002054905060006008838154811061360a57613609614c04565b5b90600052602060002001549050806008838154811061362c5761362b614c04565b5b90600052602060002001819055508160096000838152602001908152602001600020819055506009600085815260200190815260200160002060009055600880548061367b5761367a614bd5565b5b6001900381819060005260206000200160009055905550505050565b60006136a28361155d565b905081600660008573ffffffffffffffffffffffffffffffffffffffff1673ffffffffffffffffffffffffffffffffffffffff168152602001908152602001600020600083815260200190815260200160002081905550806007600084815260200190815260200160002081905550505050565b82805461372290614a6b565b90600052602060002090601f016020900481019282613744576000855561378b565b82601f1061375d57805160ff191683800117855561378b565b8280016001018555821561378b579182015b8281111561378a57825182559160200191906001019061376f565b5b509050613798919061379c565b5090565b5b808211156137b557600081600090555060010161379d565b5090565b60006137cc6137c7846147a2565b61477d565b9050828152602081018484840111156137e8576137e7614c67565b5b6137f3848285614a29565b509392505050565b600061380e613809846147d3565b61477d565b90508281526020810184848401111561382a57613829614c67565b5b613835848285614a29565b509392505050565b60008135905061384c8161542d565b92915050565b60008135905061386181615444565b92915050565b6000813590506138768161545b565b92915050565b60008151905061388b8161545b565b92915050565b600082601f8301126138a6576138a5614c62565b5b81356138b68482602086016137b9565b91505092915050565b600082601f8301126138d4576138d3614c62565b5b81356138e48482602086016137fb565b91505092915050565b6000813590506138fc81615472565b92915050565b60006020828403121561391857613917614c71565b5b60006139268482850161383d565b91505092915050565b6000806040838503121561394657613945614c71565b5b60006139548582860161383d565b92505060206139658582860161383d565b9150509250929050565b60008060006060848603121561398857613987614c71565b5b60006139968682870161383d565b93505060206139a78682870161383d565b92505060406139b8868287016138ed565b9150509250925092565b600080600080608085870312156139dc576139db614c71565b5b60006139ea8782880161383d565b94505060206139fb8782880161383d565b9350506040613a0c878288016138ed565b925050606085013567ffffffffffffffff811115613a2d57613a2c614c6c565b5b613a3987828801613891565b91505092959194509250565b60008060408385031215613a5c57613a5b614c71565b5b6000613a6a8582860161383d565b9250506020613a7b85828601613852565b9150509250929050565b60008060408385031215613a9c57613a9b614c71565b5b6000613aaa8582860161383d565b9250506020613abb858286016138ed565b9150509250929050565b600060208284031215613adb57613ada614c71565b5b6000613ae984828501613852565b91505092915050565b600060208284031215613b0857613b07614c71565b5b6000613b1684828501613867565b91505092915050565b600060208284031215613b3557613b34614c71565b5b6000613b438482850161387c565b91505092915050565b600060208284031215613b6257613b61614c71565b5b600082013567ffffffffffffffff811115613b8057613b7f614c6c565b5b613b8c848285016138bf565b91505092915050565b600060208284031215613bab57613baa614c71565b5b6000613bb9848285016138ed565b91505092915050565b60008060408385031215613bd957613bd8614c71565b5b6000613be7858286016138ed565b925050602083013567ffffffffffffffff811115613c0857613c07614c6c565b5b613c14858286016138bf565b9150509250929050565b6000613c2a8383614234565b60208301905092915050565b613c3f816149b5565b82525050565b6000613c5082614829565b613c5a8185614857565b9350613c6583614804565b8060005b83811015613c96578151613c7d8882613c1e565b9750613c888361484a565b925050600181019050613c69565b5085935050505092915050565b613cac816149c7565b82525050565b6000613cbd82614834565b613cc78185614868565b9350613cd7818560208601614a38565b613ce081614c76565b840191505092915050565b6000613cf68261483f565b613d008185614884565b9350613d10818560208601614a38565b613d1981614c76565b840191505092915050565b6000613d2f8261483f565b613d398185614895565b9350613d49818560208601614a38565b80840191505092915050565b60008154613d6281614a6b565b613d6c8186614895565b94506001821660008114613d875760018114613d9857613dcb565b60ff19831686528186019350613dcb565b613da185614814565b60005b83811015613dc357815481890152600182019150602081019050613da4565b838801955050505b50505092915050565b6000613de1602b83614884565b9150613dec82614c87565b604082019050919050565b6000613e04603283614884565b9150613e0f82614cd6565b604082019050919050565b6000613e27601683614884565b9150613e3282614d25565b602082019050919050565b6000613e4a602983614884565b9150613e5582614d4e565b604082019050919050565b6000613e6d602683614884565b9150613e7882614d9d565b604082019050919050565b6000613e90602583614884565b9150613e9b82614dec565b604082019050919050565b6000613eb3601c83614884565b9150613ebe82614e3b565b602082019050919050565b6000613ed6602483614884565b9150613ee182614e64565b604082019050919050565b6000613ef9601983614884565b9150613f0482614eb3565b602082019050919050565b6000613f1c602c83614884565b9150613f2782614edc565b604082019050919050565b6000613f3f603883614884565b9150613f4a82614f2b565b604082019050919050565b6000613f62602a83614884565b9150613f6d82614f7a565b604082019050919050565b6000613f85602983614884565b9150613f9082614fc9565b604082019050919050565b6000613fa8602e83614884565b9150613fb382615018565b604082019050919050565b6000613fcb601683614884565b9150613fd682615067565b602082019050919050565b6000613fee602083614884565b9150613ff982615090565b602082019050919050565b6000614011603183614884565b915061401c826150b9565b604082019050919050565b6000614034602c83614884565b915061403f82615108565b604082019050919050565b6000614057602083614884565b915061406282615157565b602082019050919050565b600061407a602f83614884565b915061408582615180565b604082019050919050565b600061409d601883614884565b91506140a8826151cf565b602082019050919050565b60006140c0602183614884565b91506140cb826151f8565b604082019050919050565b60006140e3600083614879565b91506140ee82615247565b600082019050919050565b6000614106601283614884565b91506141118261524a565b602082019050919050565b6000614129601083614884565b915061413482615273565b602082019050919050565b600061414c603183614884565b91506141578261529c565b604082019050919050565b600061416f601a83614884565b915061417a826152eb565b602082019050919050565b6000614192602c83614884565b915061419d82615314565b604082019050919050565b60006141b5601a83614884565b91506141c082615363565b602082019050919050565b60006141d8601f83614884565b91506141e38261538c565b602082019050919050565b60006141fb602683614884565b9150614206826153b5565b604082019050919050565b600061421e601283614884565b915061422982615404565b602082019050919050565b61423d81614a1f565b82525050565b61424c81614a1f565b82525050565b600061425e8285613d24565b915061426a8284613d24565b91508190509392505050565b60006142828286613d55565b915061428e8285613d24565b915061429a8284613d55565b9150819050949350505050565b60006142b2826140d6565b9150819050919050565b60006020820190506142d16000830184613c36565b92915050565b60006080820190506142ec6000830187613c36565b6142f96020830186613c36565b6143066040830185614243565b81810360608301526143188184613cb2565b905095945050505050565b6000602082019050818103600083015261433d8184613c45565b905092915050565b600060208201905061435a6000830184613ca3565b92915050565b6000602082019050818103600083015261437a8184613ceb565b905092915050565b6000602082019050818103600083015261439b81613dd4565b9050919050565b600060208201905081810360008301526143bb81613df7565b9050919050565b600060208201905081810360008301526143db81613e1a565b9050919050565b600060208201905081810360008301526143fb81613e3d565b9050919050565b6000602082019050818103600083015261441b81613e60565b9050919050565b6000602082019050818103600083015261443b81613e83565b9050919050565b6000602082019050818103600083015261445b81613ea6565b9050919050565b6000602082019050818103600083015261447b81613ec9565b9050919050565b6000602082019050818103600083015261449b81613eec565b9050919050565b600060208201905081810360008301526144bb81613f0f565b9050919050565b600060208201905081810360008301526144db81613f32565b9050919050565b600060208201905081810360008301526144fb81613f55565b9050919050565b6000602082019050818103600083015261451b81613f78565b9050919050565b6000602082019050818103600083015261453b81613f9b565b9050919050565b6000602082019050818103600083015261455b81613fbe565b9050919050565b6000602082019050818103600083015261457b81613fe1565b9050919050565b6000602082019050818103600083015261459b81614004565b9050919050565b600060208201905081810360008301526145bb81614027565b9050919050565b600060208201905081810360008301526145db8161404a565b9050919050565b600060208201905081810360008301526145fb8161406d565b9050919050565b6000602082019050818103600083015261461b81614090565b9050919050565b6000602082019050818103600083015261463b816140b3565b9050919050565b6000602082019050818103600083015261465b816140f9565b9050919050565b6000602082019050818103600083015261467b8161411c565b9050919050565b6000602082019050818103600083015261469b8161413f565b9050919050565b600060208201905081810360008301526146bb81614162565b9050919050565b600060208201905081810360008301526146db81614185565b9050919050565b600060208201905081810360008301526146fb816141a8565b9050919050565b6000602082019050818103600083015261471b816141cb565b9050919050565b6000602082019050818103600083015261473b816141ee565b9050919050565b6000602082019050818103600083015261475b81614211565b9050919050565b60006020820190506147776000830184614243565b92915050565b6000614787614798565b90506147938282614a9d565b919050565b6000604051905090565b600067ffffffffffffffff8211156147bd576147bc614c33565b5b6147c682614c76565b9050602081019050919050565b600067ffffffffffffffff8211156147ee576147ed614c33565b5b6147f782614c76565b9050602081019050919050565b6000819050602082019050919050565b60008190508160005260206000209050919050565b600081519050919050565b600081519050919050565b600081519050919050565b6000602082019050919050565b600082825260208201905092915050565b600082825260208201905092915050565b600081905092915050565b600082825260208201905092915050565b600081905092915050565b60006148ab82614a1f565b91506148b683614a1f565b9250827fffffffffffffffffffffffffffffffffffffffffffffffffffffffffffffffff038211156148eb576148ea614b48565b5b828201905092915050565b600061490182614a1f565b915061490c83614a1f565b92508261491c5761491b614b77565b5b828204905092915050565b600061493282614a1f565b915061493d83614a1f565b9250817fffffffffffffffffffffffffffffffffffffffffffffffffffffffffffffffff048311821515161561497657614975614b48565b5b828202905092915050565b600061498c82614a1f565b915061499783614a1f565b9250828210156149aa576149a9614b48565b5b828203905092915050565b60006149c0826149ff565b9050919050565b60008115159050919050565b60007fffffffff0000000000000000000000000000000000000000000000000000000082169050919050565b600073ffffffffffffffffffffffffffffffffffffffff82169050919050565b6000819050919050565b82818337600083830152505050565b60005b83811015614a56578082015181840152602081019050614a3b565b83811115614a65576000848401525b50505050565b60006002820490506001821680614a8357607f821691505b60208210811415614a9757614a96614ba6565b5b50919050565b614aa682614c76565b810181811067ffffffffffffffff82111715614ac557614ac4614c33565b5b80604052505050565b6000614ad982614a1f565b91507fffffffffffffffffffffffffffffffffffffffffffffffffffffffffffffffff821415614b0c57614b0b614b48565b5b600182019050919050565b6000614b2282614a1f565b9150614b2d83614a1f565b925082614b3d57614b3c614b77565b5b828206905092915050565b7f4e487b7100000000000000000000000000000000000000000000000000000000600052601160045260246000fd5b7f4e487b7100000000000000000000000000000000000000000000000000000000600052601260045260246000fd5b7f4e487b7100000000000000000000000000000000000000000000000000000000600052602260045260246000fd5b7f4e487b7100000000000000000000000000000000000000000000000000000000600052603160045260246000fd5b7f4e487b7100000000000000000000000000000000000000000000000000000000600052603260045260246000fd5b7f4e487b7100000000000000000000000000000000000000000000000000000000600052604160045260246000fd5b600080fd5b600080fd5b600080fd5b600080fd5b6000601f19601f8301169050919050565b7f455243373231456e756d657261626c653a206f776e657220696e646578206f7560008201527f74206f6620626f756e6473000000000000000000000000000000000000000000602082015250565b7f4552433732313a207472616e7366657220746f206e6f6e20455243373231526560008201527f63656976657220696d706c656d656e7465720000000000000000000000000000602082015250565b7f54686520636f6e74726163742069732070617573656400000000000000000000600082015250565b7f50726576696f75732064726f702073616c657320686173206e6f742066696e6960008201527f73686564207965742e0000000000000000000000000000000000000000000000602082015250565b7f4f776e61626c653a206e6577206f776e657220697320746865207a65726f206160008201527f6464726573730000000000000000000000000000000000000000000000000000602082015250565b7f4552433732313a207472616e736665722066726f6d20696e636f72726563742060008201527f6f776e6572000000000000000000000000000000000000000000000000000000602082015250565b7f4552433732313a20746f6b656e20616c7265616479206d696e74656400000000600082015250565b7f4552433732313a207472616e7366657220746f20746865207a65726f2061646460008201527f7265737300000000000000000000000000000000000000000000000000000000602082015250565b7f4552433732313a20617070726f766520746f2063616c6c657200000000000000600082015250565b7f4552433732313a206f70657261746f7220717565727920666f72206e6f6e657860008201527f697374656e7420746f6b656e0000000000000000000000000000000000000000602082015250565b7f4552433732313a20617070726f76652063616c6c6572206973206e6f74206f7760008201527f6e6572206e6f7220617070726f76656420666f7220616c6c0000000000000000602082015250565b7f4552433732313a2062616c616e636520717565727920666f7220746865207a6560008201527f726f206164647265737300000000000000000000000000000000000000000000602082015250565b7f4552433732313a206f776e657220717565727920666f72206e6f6e657869737460008201527f656e7420746f6b656e0000000000000000000000000000000000000000000000602082015250565b7f45524337323155524953746f726167653a2055524920736574206f66206e6f6e60008201527f6578697374656e7420746f6b656e000000000000000000000000000000000000602082015250565b7f6d6178204e4654206c696d697420657863656564656400000000000000000000600082015250565b7f4552433732313a206d696e7420746f20746865207a65726f2061646472657373600082015250565b7f45524337323155524953746f726167653a2055524920717565727920666f722060008201527f6e6f6e6578697374656e7420746f6b656e000000000000000000000000000000602082015250565b7f4552433732313a20617070726f76656420717565727920666f72206e6f6e657860008201527f697374656e7420746f6b656e0000000000000000000000000000000000000000602082015250565b7f4f776e61626c653a2063616c6c6572206973206e6f7420746865206f776e6572600082015250565b7f4552433732314d657461646174613a2055524920717565727920666f72206e6f60008201527f6e6578697374656e7420746f6b656e0000000000000000000000000000000000602082015250565b7f43686172697479205472616e73666572206661696c65642e0000000000000000600082015250565b7f4552433732313a20617070726f76616c20746f2063757272656e74206f776e6560008201527f7200000000000000000000000000000000000000000000000000000000000000602082015250565b50565b7f696e73756666696369656e742066756e64730000000000000000000000000000600082015250565b7f5472616e73666572206661696c65642e00000000000000000000000000000000600082015250565b7f4552433732313a207472616e736665722063616c6c6572206973206e6f74206f60008201527f776e6572206e6f7220617070726f766564000000000000000000000000000000602082015250565b7f4e6f206574686572206c65667420746f2077697468647261772e000000000000600082015250565b7f455243373231456e756d657261626c653a20676c6f62616c20696e646578206f60008201527f7574206f6620626f756e64730000000000000000000000000000000000000000602082015250565b7f446576656c6f706572205472616e73666572206661696c65642e000000000000600082015250565b7f5265656e7472616e637947756172643a207265656e7472616e742063616c6c00600082015250565b7f4d65646963616c204669656c642043686172697479205472616e73666572206660008201527f61696c65642e0000000000000000000000000000000000000000000000000000602082015250565b7f6d696e742061746c656173742031204e46540000000000000000000000000000600082015250565b615436816149b5565b811461544157600080fd5b50565b61544d816149c7565b811461545857600080fd5b50565b615464816149d3565b811461546f57600080fd5b50565b61547b81614a1f565b811461548657600080fd5b5056fea264697066735822122098a2d47fe075b6b766f4f3ca67f2c27f32a3d9a66defd1fe1f4414804a651bb164736f6c63430008070033",
  "linkReferences": {},
  "deployedLinkReferences": {}
}