{
  "_format": "hh-sol-artifact-1",
  "contractName": "ResearchFundingClub",
  "sourceName": "contracts/ResearchFundingClub.sol",
  "abi": [
    {
      "inputs": [
        {
          "internalType": "string",
          "name": "baseURI",
          "type": "string"
        }
      ],
      "stateMutability": "nonpayable",
      "type": "constructor"
    },
    {
      "anonymous": false,
      "inputs": [
        {
          "indexed": true,
          "internalType": "address",
          "name": "owner",
          "type": "address"
        },
        {
          "indexed": true,
          "internalType": "address",
          "name": "approved",
          "type": "address"
        },
        {
          "indexed": true,
          "internalType": "uint256",
          "name": "tokenId",
          "type": "uint256"
        }
      ],
      "name": "Approval",
      "type": "event"
    },
    {
      "anonymous": false,
      "inputs": [
        {
          "indexed": true,
          "internalType": "address",
          "name": "owner",
          "type": "address"
        },
        {
          "indexed": true,
          "internalType": "address",
          "name": "operator",
          "type": "address"
        },
        {
          "indexed": false,
          "internalType": "bool",
          "name": "approved",
          "type": "bool"
        }
      ],
      "name": "ApprovalForAll",
      "type": "event"
    },
    {
      "anonymous": false,
      "inputs": [
        {
          "indexed": true,
          "internalType": "address",
          "name": "previousOwner",
          "type": "address"
        },
        {
          "indexed": true,
          "internalType": "address",
          "name": "newOwner",
          "type": "address"
        }
      ],
      "name": "OwnershipTransferred",
      "type": "event"
    },
    {
      "anonymous": false,
      "inputs": [
        {
          "indexed": true,
          "internalType": "address",
          "name": "from",
          "type": "address"
        },
        {
          "indexed": true,
          "internalType": "address",
          "name": "to",
          "type": "address"
        },
        {
          "indexed": true,
          "internalType": "uint256",
          "name": "tokenId",
          "type": "uint256"
        }
      ],
      "name": "Transfer",
      "type": "event"
    },
    {
      "inputs": [],
      "name": "MAX_PER_MINT",
      "outputs": [
        {
          "internalType": "uint256",
          "name": "",
          "type": "uint256"
        }
      ],
      "stateMutability": "view",
      "type": "function"
    },
    {
      "inputs": [],
      "name": "MAX_SUPPLY",
      "outputs": [
        {
          "internalType": "uint256",
          "name": "",
          "type": "uint256"
        }
      ],
      "stateMutability": "view",
      "type": "function"
    },
    {
      "inputs": [],
      "name": "MIN_SUPPLY",
      "outputs": [
        {
          "internalType": "uint256",
          "name": "",
          "type": "uint256"
        }
      ],
      "stateMutability": "view",
      "type": "function"
    },
    {
      "inputs": [],
      "name": "PRICE",
      "outputs": [
        {
          "internalType": "uint256",
          "name": "",
          "type": "uint256"
        }
      ],
      "stateMutability": "view",
      "type": "function"
    },
    {
      "inputs": [
        {
          "internalType": "address",
          "name": "to",
          "type": "address"
        },
        {
          "internalType": "uint256",
          "name": "tokenId",
          "type": "uint256"
        }
      ],
      "name": "approve",
      "outputs": [],
      "stateMutability": "nonpayable",
      "type": "function"
    },
    {
      "inputs": [
        {
          "internalType": "address",
          "name": "owner",
          "type": "address"
        }
      ],
      "name": "balanceOf",
      "outputs": [
        {
          "internalType": "uint256",
          "name": "",
          "type": "uint256"
        }
      ],
      "stateMutability": "view",
      "type": "function"
    },
    {
      "inputs": [],
      "name": "baseExtension",
      "outputs": [
        {
          "internalType": "string",
          "name": "",
          "type": "string"
        }
      ],
      "stateMutability": "view",
      "type": "function"
    },
    {
      "inputs": [],
      "name": "baseTokenURI",
      "outputs": [
        {
          "internalType": "string",
          "name": "",
          "type": "string"
        }
      ],
      "stateMutability": "view",
      "type": "function"
    },
    {
      "inputs": [],
      "name": "charityWallet",
      "outputs": [
        {
          "internalType": "address",
          "name": "",
          "type": "address"
        }
      ],
      "stateMutability": "view",
      "type": "function"
    },
    {
      "inputs": [],
      "name": "devWallet",
      "outputs": [
        {
          "internalType": "address",
          "name": "",
          "type": "address"
        }
      ],
      "stateMutability": "view",
      "type": "function"
    },
    {
      "inputs": [
        {
          "internalType": "uint256",
          "name": "tokenId",
          "type": "uint256"
        }
      ],
      "name": "getApproved",
      "outputs": [
        {
          "internalType": "address",
          "name": "",
          "type": "address"
        }
      ],
      "stateMutability": "view",
      "type": "function"
    },
    {
      "inputs": [
        {
          "internalType": "address",
          "name": "owner",
          "type": "address"
        },
        {
          "internalType": "address",
          "name": "operator",
          "type": "address"
        }
      ],
      "name": "isApprovedForAll",
      "outputs": [
        {
          "internalType": "bool",
          "name": "",
          "type": "bool"
        }
      ],
      "stateMutability": "view",
      "type": "function"
    },
    {
      "inputs": [],
      "name": "medicalCharityWallet",
      "outputs": [
        {
          "internalType": "address",
          "name": "",
          "type": "address"
        }
      ],
      "stateMutability": "view",
      "type": "function"
    },
    {
      "inputs": [
        {
          "internalType": "uint256",
          "name": "_mintAmount",
          "type": "uint256"
        }
      ],
      "name": "mint",
      "outputs": [],
      "stateMutability": "payable",
      "type": "function"
    },
    {
      "inputs": [],
      "name": "name",
      "outputs": [
        {
          "internalType": "string",
          "name": "",
          "type": "string"
        }
      ],
      "stateMutability": "view",
      "type": "function"
    },
    {
      "inputs": [
        {
          "internalType": "uint256",
          "name": "_newMaxSupply",
          "type": "uint256"
        },
        {
          "internalType": "string",
          "name": "_newBaseURI",
          "type": "string"
        }
      ],
      "name": "newDrop",
      "outputs": [],
      "stateMutability": "nonpayable",
      "type": "function"
    },
    {
      "inputs": [],
      "name": "notRevealedURI",
      "outputs": [
        {
          "internalType": "string",
          "name": "",
          "type": "string"
        }
      ],
      "stateMutability": "view",
      "type": "function"
    },
    {
      "inputs": [],
      "name": "owner",
      "outputs": [
        {
          "internalType": "address",
          "name": "",
          "type": "address"
        }
      ],
      "stateMutability": "view",
      "type": "function"
    },
    {
      "inputs": [
        {
          "internalType": "uint256",
          "name": "tokenId",
          "type": "uint256"
        }
      ],
      "name": "ownerOf",
      "outputs": [
        {
          "internalType": "address",
          "name": "",
          "type": "address"
        }
      ],
      "stateMutability": "view",
      "type": "function"
    },
    {
      "inputs": [
        {
          "internalType": "bool",
          "name": "_state",
          "type": "bool"
        }
      ],
      "name": "pause",
      "outputs": [],
      "stateMutability": "nonpayable",
      "type": "function"
    },
    {
      "inputs": [],
      "name": "paused",
      "outputs": [
        {
          "internalType": "bool",
          "name": "",
          "type": "bool"
        }
      ],
      "stateMutability": "view",
      "type": "function"
    },
    {
      "inputs": [],
      "name": "renounceOwnership",
      "outputs": [],
      "stateMutability": "nonpayable",
      "type": "function"
    },
    {
      "inputs": [],
      "name": "reveal",
      "outputs": [],
      "stateMutability": "nonpayable",
      "type": "function"
    },
    {
      "inputs": [],
      "name": "revealed",
      "outputs": [
        {
          "internalType": "bool",
          "name": "",
          "type": "bool"
        }
      ],
      "stateMutability": "view",
      "type": "function"
    },
    {
      "inputs": [
        {
          "internalType": "address",
          "name": "from",
          "type": "address"
        },
        {
          "internalType": "address",
          "name": "to",
          "type": "address"
        },
        {
          "internalType": "uint256",
          "name": "tokenId",
          "type": "uint256"
        }
      ],
      "name": "safeTransferFrom",
      "outputs": [],
      "stateMutability": "nonpayable",
      "type": "function"
    },
    {
      "inputs": [
        {
          "internalType": "address",
          "name": "from",
          "type": "address"
        },
        {
          "internalType": "address",
          "name": "to",
          "type": "address"
        },
        {
          "internalType": "uint256",
          "name": "tokenId",
          "type": "uint256"
        },
        {
          "internalType": "bytes",
          "name": "_data",
          "type": "bytes"
        }
      ],
      "name": "safeTransferFrom",
      "outputs": [],
      "stateMutability": "nonpayable",
      "type": "function"
    },
    {
      "inputs": [
        {
          "internalType": "address",
          "name": "operator",
          "type": "address"
        },
        {
          "internalType": "bool",
          "name": "approved",
          "type": "bool"
        }
      ],
      "name": "setApprovalForAll",
      "outputs": [],
      "stateMutability": "nonpayable",
      "type": "function"
    },
    {
      "inputs": [
        {
          "internalType": "string",
          "name": "_newBaseExtension",
          "type": "string"
        }
      ],
      "name": "setBaseExtension",
      "outputs": [],
      "stateMutability": "nonpayable",
      "type": "function"
    },
    {
      "inputs": [
        {
          "internalType": "string",
          "name": "_baseTokenURI",
          "type": "string"
        }
      ],
      "name": "setBaseURI",
      "outputs": [],
      "stateMutability": "nonpayable",
      "type": "function"
    },
    {
      "inputs": [
        {
          "internalType": "uint256",
          "name": "_newCost",
          "type": "uint256"
        }
      ],
      "name": "setCost",
      "outputs": [],
      "stateMutability": "nonpayable",
      "type": "function"
    },
    {
      "inputs": [
        {
          "internalType": "string",
          "name": "_notRevealedURI",
          "type": "string"
        }
      ],
      "name": "setNotRevealedURI",
      "outputs": [],
      "stateMutability": "nonpayable",
      "type": "function"
    },
    {
      "inputs": [
        {
          "internalType": "uint256",
          "name": "_limit",
          "type": "uint256"
        }
      ],
      "name": "setmaxMintAmount",
      "outputs": [],
      "stateMutability": "nonpayable",
      "type": "function"
    },
    {
      "inputs": [
        {
          "internalType": "uint256",
          "name": "_limit",
          "type": "uint256"
        }
      ],
      "name": "setmaxSupply",
      "outputs": [],
      "stateMutability": "nonpayable",
      "type": "function"
    },
    {
      "inputs": [
        {
          "internalType": "bytes4",
          "name": "interfaceId",
          "type": "bytes4"
        }
      ],
      "name": "supportsInterface",
      "outputs": [
        {
          "internalType": "bool",
          "name": "",
          "type": "bool"
        }
      ],
      "stateMutability": "view",
      "type": "function"
    },
    {
      "inputs": [],
      "name": "symbol",
      "outputs": [
        {
          "internalType": "string",
          "name": "",
          "type": "string"
        }
      ],
      "stateMutability": "view",
      "type": "function"
    },
    {
      "inputs": [
        {
          "internalType": "uint256",
          "name": "index",
          "type": "uint256"
        }
      ],
      "name": "tokenByIndex",
      "outputs": [
        {
          "internalType": "uint256",
          "name": "",
          "type": "uint256"
        }
      ],
      "stateMutability": "view",
      "type": "function"
    },
    {
      "inputs": [
        {
          "internalType": "address",
          "name": "owner",
          "type": "address"
        },
        {
          "internalType": "uint256",
          "name": "index",
          "type": "uint256"
        }
      ],
      "name": "tokenOfOwnerByIndex",
      "outputs": [
        {
          "internalType": "uint256",
          "name": "",
          "type": "uint256"
        }
      ],
      "stateMutability": "view",
      "type": "function"
    },
    {
      "inputs": [
        {
          "internalType": "uint256",
          "name": "tokenId",
          "type": "uint256"
        }
      ],
      "name": "tokenURI",
      "outputs": [
        {
          "internalType": "string",
          "name": "",
          "type": "string"
        }
      ],
      "stateMutability": "view",
      "type": "function"
    },
    {
      "inputs": [
        {
          "internalType": "address",
          "name": "_owner",
          "type": "address"
        }
      ],
      "name": "tokensOfOwner",
      "outputs": [
        {
          "internalType": "uint256[]",
          "name": "",
          "type": "uint256[]"
        }
      ],
      "stateMutability": "view",
      "type": "function"
    },
    {
      "inputs": [],
      "name": "totalSupply",
      "outputs": [
        {
          "internalType": "uint256",
          "name": "",
          "type": "uint256"
        }
      ],
      "stateMutability": "view",
      "type": "function"
    },
    {
      "inputs": [
        {
          "internalType": "address",
          "name": "from",
          "type": "address"
        },
        {
          "internalType": "address",
          "name": "to",
          "type": "address"
        },
        {
          "internalType": "uint256",
          "name": "tokenId",
          "type": "uint256"
        }
      ],
      "name": "transferFrom",
      "outputs": [],
      "stateMutability": "nonpayable",
      "type": "function"
    },
    {
      "inputs": [
        {
          "internalType": "address",
          "name": "newOwner",
          "type": "address"
        }
      ],
      "name": "transferOwnership",
      "outputs": [],
      "stateMutability": "nonpayable",
      "type": "function"
    },
    {
      "inputs": [],
      "name": "withdraw",
      "outputs": [],
      "stateMutability": "payable",
      "type": "function"
    }
  ],
  "bytecode": "0x60806040526000600e60006101000a81548160ff0219169083151502179055506040518060400160405280600581526020017f2e6a736f6e000000000000000000000000000000000000000000000000000000815250600f90805190602001906200006c929190620004a4565b506040518060400160405280601081526020017f6e6f742072657665616c6564207965740000000000000000000000000000000081525060109080519060200190620000ba929190620004a4565b506000601155600a601255655af3107a400060135560016014556000601560006101000a81548160ff02191690831515021790555073f9351cfab08d72e873424708a817a067fa33f45f601560016101000a81548173ffffffffffffffffffffffffffffffffffffffff021916908373ffffffffffffffffffffffffffffffffffffffff16021790555073f9351cfab08d72e873424708a817a067fa33f45f601660006101000a81548173ffffffffffffffffffffffffffffffffffffffff021916908373ffffffffffffffffffffffffffffffffffffffff16021790555073f9351cfab08d72e873424708a817a067fa33f45f601760006101000a81548173ffffffffffffffffffffffffffffffffffffffff021916908373ffffffffffffffffffffffffffffffffffffffff160217905550348015620001fb57600080fd5b5060405162005b1d38038062005b1d8339818101604052810190620002219190620005d2565b6040518060400160405280601581526020017f52657365617263682046756e64696e6720436c756200000000000000000000008152506040518060400160405280600381526020017f52464300000000000000000000000000000000000000000000000000000000008152508160009080519060200190620002a5929190620004a4565b508060019080519060200190620002be929190620004a4565b505050620002e1620002d56200030160201b60201c565b6200030960201b60201c565b6001600c81905550620002fa81620003cf60201b60201c565b506200082a565b600033905090565b6000600a60009054906101000a900473ffffffffffffffffffffffffffffffffffffffff16905081600a60006101000a81548173ffffffffffffffffffffffffffffffffffffffff021916908373ffffffffffffffffffffffffffffffffffffffff1602179055508173ffffffffffffffffffffffffffffffffffffffff168173ffffffffffffffffffffffffffffffffffffffff167f8be0079c531659141344cd1fd0a4f28419497f9722a3daafe3b4186f6b6457e060405160405180910390a35050565b620003df6200030160201b60201c565b73ffffffffffffffffffffffffffffffffffffffff16620004056200047a60201b60201c565b73ffffffffffffffffffffffffffffffffffffffff16146200045e576040517f08c379a000000000000000000000000000000000000000000000000000000000815260040162000455906200064a565b60405180910390fd5b80600d908051906020019062000476929190620004a4565b5050565b6000600a60009054906101000a900473ffffffffffffffffffffffffffffffffffffffff16905090565b828054620004b29062000712565b90600052602060002090601f016020900481019282620004d6576000855562000522565b82601f10620004f157805160ff191683800117855562000522565b8280016001018555821562000522579182015b828111156200052157825182559160200191906001019062000504565b5b50905062000531919062000535565b5090565b5b808211156200055057600081600090555060010162000536565b5090565b60006200056b620005658462000695565b6200066c565b9050828152602081018484840111156200058a5762000589620007e1565b5b62000597848285620006dc565b509392505050565b600082601f830112620005b757620005b6620007dc565b5b8151620005c984826020860162000554565b91505092915050565b600060208284031215620005eb57620005ea620007eb565b5b600082015167ffffffffffffffff8111156200060c576200060b620007e6565b5b6200061a848285016200059f565b91505092915050565b600062000632602083620006cb565b91506200063f8262000801565b602082019050919050565b60006020820190508181036000830152620006658162000623565b9050919050565b6000620006786200068b565b905062000686828262000748565b919050565b6000604051905090565b600067ffffffffffffffff821115620006b357620006b2620007ad565b5b620006be82620007f0565b9050602081019050919050565b600082825260208201905092915050565b60005b83811015620006fc578082015181840152602081019050620006df565b838111156200070c576000848401525b50505050565b600060028204905060018216806200072b57607f821691505b602082108114156200074257620007416200077e565b5b50919050565b6200075382620007f0565b810181811067ffffffffffffffff82111715620007755762000774620007ad565b5b80604052505050565b7f4e487b7100000000000000000000000000000000000000000000000000000000600052602260045260246000fd5b7f4e487b7100000000000000000000000000000000000000000000000000000000600052604160045260246000fd5b600080fd5b600080fd5b600080fd5b600080fd5b6000601f19601f8301169050919050565b7f4f776e61626c653a2063616c6c6572206973206e6f7420746865206f776e6572600082015250565b6152e3806200083a6000396000f3fe60806040526004361061025c5760003560e01c8063715018a611610144578063a475b5dd116100b6578063d547cfb71161007a578063d547cfb7146108bc578063da3ef23f146108e7578063e985e9c514610910578063f1a91a681461094d578063f2c4ce1e14610976578063f2fde38b1461099f5761025c565b8063a475b5dd146107e9578063b88d4fde14610800578063c668286214610829578063c87b56dd14610854578063d0284f26146108915761025c565b80638d859f3e116101085780638d859f3e146106f85780638da5cb5b146107235780638ea5220f1461074e57806395d89b4114610779578063a0712d68146107a4578063a22cb465146107c05761025c565b8063715018a614610625578063722503801461063c5780637b208769146106675780637f00c7a6146106925780638462151c146106bb5761025c565b806332cb6b0c116101dd5780634f6ccce7116101a15780634f6ccce7146104ef578063518302271461052c57806355f804b3146105575780635c975abb146105805780636352211e146105ab57806370a08231146105e85761025c565b806332cb6b0c1461043d57806335917c64146104685780633ccfd60b1461049357806342842e0e1461049d57806344a0d68a146104c65761025c565b806309d42b301161022457806309d42b301461035857806318160ddd14610383578063228025e8146103ae57806323b872dd146103d75780632f745c59146104005761025c565b806301ffc9a71461026157806302329a291461029e57806306fdde03146102c7578063081812fc146102f2578063095ea7b31461032f575b600080fd5b34801561026d57600080fd5b5061028860048036038101906102839190613a80565b6109c8565b604051610295919061426a565b60405180910390f35b3480156102aa57600080fd5b506102c560048036038101906102c09190613a53565b6109da565b005b3480156102d357600080fd5b506102dc610a73565b6040516102e99190614285565b60405180910390f35b3480156102fe57600080fd5b5061031960048036038101906103149190613b23565b610b05565b60405161032691906141e1565b60405180910390f35b34801561033b57600080fd5b5061035660048036038101906103519190613a13565b610b8a565b005b34801561036457600080fd5b5061036d610ca2565b60405161037a9190614627565b60405180910390f35b34801561038f57600080fd5b50610398610ca8565b6040516103a59190614627565b60405180910390f35b3480156103ba57600080fd5b506103d560048036038101906103d09190613b23565b610cb5565b005b3480156103e357600080fd5b506103fe60048036038101906103f991906138fd565b610d3b565b005b34801561040c57600080fd5b5061042760048036038101906104229190613a13565b610d9b565b6040516104349190614627565b60405180910390f35b34801561044957600080fd5b50610452610e40565b60405161045f9190614627565b60405180910390f35b34801561047457600080fd5b5061047d610e46565b60405161048a9190614627565b60405180910390f35b61049b610e4c565b005b3480156104a957600080fd5b506104c460048036038101906104bf91906138fd565b611265565b005b3480156104d257600080fd5b506104ed60048036038101906104e89190613b23565b611285565b005b3480156104fb57600080fd5b5061051660048036038101906105119190613b23565b61130b565b6040516105239190614627565b60405180910390f35b34801561053857600080fd5b5061054161137c565b60405161054e919061426a565b60405180910390f35b34801561056357600080fd5b5061057e60048036038101906105799190613ada565b61138f565b005b34801561058c57600080fd5b50610595611425565b6040516105a2919061426a565b60405180910390f35b3480156105b757600080fd5b506105d260048036038101906105cd9190613b23565b611438565b6040516105df91906141e1565b60405180910390f35b3480156105f457600080fd5b5061060f600480360381019061060a9190613890565b6114ea565b60405161061c9190614627565b60405180910390f35b34801561063157600080fd5b5061063a6115a2565b005b34801561064857600080fd5b5061065161162a565b60405161065e9190614285565b60405180910390f35b34801561067357600080fd5b5061067c6116b8565b60405161068991906141e1565b60405180910390f35b34801561069e57600080fd5b506106b960048036038101906106b49190613b23565b6116de565b005b3480156106c757600080fd5b506106e260048036038101906106dd9190613890565b611764565b6040516106ef9190614248565b60405180910390f35b34801561070457600080fd5b5061070d611812565b60405161071a9190614627565b60405180910390f35b34801561072f57600080fd5b50610738611818565b60405161074591906141e1565b60405180910390f35b34801561075a57600080fd5b50610763611842565b60405161077091906141e1565b60405180910390f35b34801561078557600080fd5b5061078e611868565b60405161079b9190614285565b60405180910390f35b6107be60048036038101906107b99190613b23565b6118fa565b005b3480156107cc57600080fd5b506107e760048036038101906107e291906139d3565b611a9d565b005b3480156107f557600080fd5b506107fe611ab3565b005b34801561080c57600080fd5b5061082760048036038101906108229190613950565b611b4c565b005b34801561083557600080fd5b5061083e611bae565b60405161084b9190614285565b60405180910390f35b34801561086057600080fd5b5061087b60048036038101906108769190613b23565b611c3c565b6040516108889190614285565b60405180910390f35b34801561089d57600080fd5b506108a6611d4c565b6040516108b391906141e1565b60405180910390f35b3480156108c857600080fd5b506108d1611d72565b6040516108de9190614285565b60405180910390f35b3480156108f357600080fd5b5061090e60048036038101906109099190613ada565b611e00565b005b34801561091c57600080fd5b50610937600480360381019061093291906138bd565b611e96565b604051610944919061426a565b60405180910390f35b34801561095957600080fd5b50610974600480360381019061096f9190613b50565b611f2a565b005b34801561098257600080fd5b5061099d60048036038101906109989190613ada565b612029565b005b3480156109ab57600080fd5b506109c660048036038101906109c19190613890565b6120bf565b005b60006109d3826121b7565b9050919050565b6109e2612231565b73ffffffffffffffffffffffffffffffffffffffff16610a00611818565b73ffffffffffffffffffffffffffffffffffffffff1614610a56576040517f08c379a0000000000000000000000000000000000000000000000000000000008152600401610a4d906144e7565b60405180910390fd5b80600e60006101000a81548160ff02191690831515021790555050565b606060008054610a8290614930565b80601f0160208091040260200160405190810160405280929190818152602001828054610aae90614930565b8015610afb5780601f10610ad057610100808354040283529160200191610afb565b820191906000526020600020905b815481529060010190602001808311610ade57829003601f168201915b5050505050905090565b6000610b1082612239565b610b4f576040517f08c379a0000000000000000000000000000000000000000000000000000000008152600401610b46906144c7565b60405180910390fd5b6004600083815260200190815260200160002060009054906101000a900473ffffffffffffffffffffffffffffffffffffffff169050919050565b6000610b9582611438565b90508073ffffffffffffffffffffffffffffffffffffffff168373ffffffffffffffffffffffffffffffffffffffff161415610c06576040517f08c379a0000000000000000000000000000000000000000000000000000000008152600401610bfd90614527565b60405180910390fd5b8073ffffffffffffffffffffffffffffffffffffffff16610c25612231565b73ffffffffffffffffffffffffffffffffffffffff161480610c545750610c5381610c4e612231565b611e96565b5b610c93576040517f08c379a0000000000000000000000000000000000000000000000000000000008152600401610c8a906143e7565b60405180910390fd5b610c9d83836122a5565b505050565b60145481565b6000600880549050905090565b610cbd612231565b73ffffffffffffffffffffffffffffffffffffffff16610cdb611818565b73ffffffffffffffffffffffffffffffffffffffff1614610d31576040517f08c379a0000000000000000000000000000000000000000000000000000000008152600401610d28906144e7565b60405180910390fd5b8060128190555050565b610d4c610d46612231565b8261235e565b610d8b576040517f08c379a0000000000000000000000000000000000000000000000000000000008152600401610d8290614587565b60405180910390fd5b610d9683838361243c565b505050565b6000610da6836114ea565b8210610de7576040517f08c379a0000000000000000000000000000000000000000000000000000000008152600401610dde906142a7565b60405180910390fd5b600660008473ffffffffffffffffffffffffffffffffffffffff1673ffffffffffffffffffffffffffffffffffffffff168152602001908152602001600020600083815260200190815260200160002054905092915050565b60125481565b60115481565b610e54612231565b73ffffffffffffffffffffffffffffffffffffffff16610e72611818565b73ffffffffffffffffffffffffffffffffffffffff1614610ec8576040517f08c379a0000000000000000000000000000000000000000000000000000000008152600401610ebf906144e7565b60405180910390fd5b6002600c541415610f0e576040517f08c379a0000000000000000000000000000000000000000000000000000000008152600401610f05906145e7565b60405180910390fd5b6002600c81905550600047905060008111610f5e576040517f08c379a0000000000000000000000000000000000000000000000000000000008152600401610f55906145a7565b60405180910390fd5b60003373ffffffffffffffffffffffffffffffffffffffff166064600547610f8691906147ec565b610f9091906147bb565b604051610f9c906141cc565b60006040518083038185875af1925050503d8060008114610fd9576040519150601f19603f3d011682016040523d82523d6000602084013e610fde565b606091505b5050905080611022576040517f08c379a000000000000000000000000000000000000000000000000000000000815260040161101990614567565b60405180910390fd5b60003373ffffffffffffffffffffffffffffffffffffffff166064600a4761104a91906147ec565b61105491906147bb565b604051611060906141cc565b60006040518083038185875af1925050503d806000811461109d576040519150601f19603f3d011682016040523d82523d6000602084013e6110a2565b606091505b50509050806110e6576040517f08c379a00000000000000000000000000000000000000000000000000000000081526004016110dd90614567565b60405180910390fd5b60003373ffffffffffffffffffffffffffffffffffffffff16606460044761110e91906147ec565b61111891906147bb565b604051611124906141cc565b60006040518083038185875af1925050503d8060008114611161576040519150601f19603f3d011682016040523d82523d6000602084013e611166565b606091505b50509050806111aa576040517f08c379a00000000000000000000000000000000000000000000000000000000081526004016111a190614567565b60405180910390fd5b60003373ffffffffffffffffffffffffffffffffffffffff16476040516111d0906141cc565b60006040518083038185875af1925050503d806000811461120d576040519150601f19603f3d011682016040523d82523d6000602084013e611212565b606091505b5050905080611256576040517f08c379a000000000000000000000000000000000000000000000000000000000815260040161124d90614567565b60405180910390fd5b50505050506001600c81905550565b61128083838360405180602001604052806000815250611b4c565b505050565b61128d612231565b73ffffffffffffffffffffffffffffffffffffffff166112ab611818565b73ffffffffffffffffffffffffffffffffffffffff1614611301576040517f08c379a00000000000000000000000000000000000000000000000000000000081526004016112f8906144e7565b60405180910390fd5b8060138190555050565b6000611315610ca8565b8210611356576040517f08c379a000000000000000000000000000000000000000000000000000000000815260040161134d906145c7565b60405180910390fd5b6008828154811061136a57611369614ac9565b5b90600052602060002001549050919050565b601560009054906101000a900460ff1681565b611397612231565b73ffffffffffffffffffffffffffffffffffffffff166113b5611818565b73ffffffffffffffffffffffffffffffffffffffff161461140b576040517f08c379a0000000000000000000000000000000000000000000000000000000008152600401611402906144e7565b60405180910390fd5b80600d90805190602001906114219291906136a4565b5050565b600e60009054906101000a900460ff1681565b6000806002600084815260200190815260200160002060009054906101000a900473ffffffffffffffffffffffffffffffffffffffff169050600073ffffffffffffffffffffffffffffffffffffffff168173ffffffffffffffffffffffffffffffffffffffff1614156114e1576040517f08c379a00000000000000000000000000000000000000000000000000000000081526004016114d890614427565b60405180910390fd5b80915050919050565b60008073ffffffffffffffffffffffffffffffffffffffff168273ffffffffffffffffffffffffffffffffffffffff16141561155b576040517f08c379a000000000000000000000000000000000000000000000000000000000815260040161155290614407565b60405180910390fd5b600360008373ffffffffffffffffffffffffffffffffffffffff1673ffffffffffffffffffffffffffffffffffffffff168152602001908152602001600020549050919050565b6115aa612231565b73ffffffffffffffffffffffffffffffffffffffff166115c8611818565b73ffffffffffffffffffffffffffffffffffffffff161461161e576040517f08c379a0000000000000000000000000000000000000000000000000000000008152600401611615906144e7565b60405180910390fd5b61162860006126a3565b565b6010805461163790614930565b80601f016020809104026020016040519081016040528092919081815260200182805461166390614930565b80156116b05780601f10611685576101008083540402835291602001916116b0565b820191906000526020600020905b81548152906001019060200180831161169357829003601f168201915b505050505081565b601560019054906101000a900473ffffffffffffffffffffffffffffffffffffffff1681565b6116e6612231565b73ffffffffffffffffffffffffffffffffffffffff16611704611818565b73ffffffffffffffffffffffffffffffffffffffff161461175a576040517f08c379a0000000000000000000000000000000000000000000000000000000008152600401611751906144e7565b60405180910390fd5b8060148190555050565b60606000611771836114ea565b905060008167ffffffffffffffff81111561178f5761178e614af8565b5b6040519080825280602002602001820160405280156117bd5781602001602082028036833780820191505090505b50905060005b82811015611807576117d58582610d9b565b8282815181106117e8576117e7614ac9565b5b60200260200101818152505080806117ff90614993565b9150506117c3565b508092505050919050565b60135481565b6000600a60009054906101000a900473ffffffffffffffffffffffffffffffffffffffff16905090565b601660009054906101000a900473ffffffffffffffffffffffffffffffffffffffff1681565b60606001805461187790614930565b80601f01602080910402602001604051908101604052809291908181526020018280546118a390614930565b80156118f05780601f106118c5576101008083540402835291602001916118f0565b820191906000526020600020905b8154815290600101906020018083116118d357829003601f168201915b5050505050905090565b600e60009054906101000a900460ff161561194a576040517f08c379a0000000000000000000000000000000000000000000000000000000008152600401611941906142e7565b60405180910390fd5b6000611954610ca8565b905060008211611999576040517f08c379a000000000000000000000000000000000000000000000000000000000815260040161199090614607565b60405180910390fd5b60125482826119a89190614765565b11156119e9576040517f08c379a00000000000000000000000000000000000000000000000000000000081526004016119e090614467565b60405180910390fd5b60006001826119f89190614765565b905082601354611a0891906147ec565b341015611a4a576040517f08c379a0000000000000000000000000000000000000000000000000000000008152600401611a4190614547565b60405180910390fd5b611a543382612769565b611a9881600d611a7060115485611a6b9190614846565b612787565b600f604051602001611a849392919061419b565b6040516020818303038152906040526128e8565b505050565b611aaf611aa8612231565b838361295c565b5050565b611abb612231565b73ffffffffffffffffffffffffffffffffffffffff16611ad9611818565b73ffffffffffffffffffffffffffffffffffffffff1614611b2f576040517f08c379a0000000000000000000000000000000000000000000000000000000008152600401611b26906144e7565b60405180910390fd5b6001601560006101000a81548160ff021916908315150217905550565b611b5d611b57612231565b8361235e565b611b9c576040517f08c379a0000000000000000000000000000000000000000000000000000000008152600401611b9390614587565b60405180910390fd5b611ba884848484612ac9565b50505050565b600f8054611bbb90614930565b80601f0160208091040260200160405190810160405280929190818152602001828054611be790614930565b8015611c345780601f10611c0957610100808354040283529160200191611c34565b820191906000526020600020905b815481529060010190602001808311611c1757829003601f168201915b505050505081565b6060611c4782612239565b611c86576040517f08c379a0000000000000000000000000000000000000000000000000000000008152600401611c7d906144a7565b60405180910390fd5b601560009054906101000a900460ff16158015611ca4575060115482115b15611d3b5760108054611cb690614930565b80601f0160208091040260200160405190810160405280929190818152602001828054611ce290614930565b8015611d2f5780601f10611d0457610100808354040283529160200191611d2f565b820191906000526020600020905b815481529060010190602001808311611d1257829003601f168201915b50505050509050611d47565b611d4482612b25565b90505b919050565b601760009054906101000a900473ffffffffffffffffffffffffffffffffffffffff1681565b600d8054611d7f90614930565b80601f0160208091040260200160405190810160405280929190818152602001828054611dab90614930565b8015611df85780601f10611dcd57610100808354040283529160200191611df8565b820191906000526020600020905b815481529060010190602001808311611ddb57829003601f168201915b505050505081565b611e08612231565b73ffffffffffffffffffffffffffffffffffffffff16611e26611818565b73ffffffffffffffffffffffffffffffffffffffff1614611e7c576040517f08c379a0000000000000000000000000000000000000000000000000000000008152600401611e73906144e7565b60405180910390fd5b80600f9080519060200190611e929291906136a4565b5050565b6000600560008473ffffffffffffffffffffffffffffffffffffffff1673ffffffffffffffffffffffffffffffffffffffff16815260200190815260200160002060008373ffffffffffffffffffffffffffffffffffffffff1673ffffffffffffffffffffffffffffffffffffffff16815260200190815260200160002060009054906101000a900460ff16905092915050565b611f32612231565b73ffffffffffffffffffffffffffffffffffffffff16611f50611818565b73ffffffffffffffffffffffffffffffffffffffff1614611fa6576040517f08c379a0000000000000000000000000000000000000000000000000000000008152600401611f9d906144e7565b60405180910390fd5b601254611fb1610ca8565b14611ff1576040517f08c379a0000000000000000000000000000000000000000000000000000000008152600401611fe890614307565b60405180910390fd5b6012546011819055508160128190555061200a8161138f565b6000601560006101000a81548160ff0219169083151502179055505050565b612031612231565b73ffffffffffffffffffffffffffffffffffffffff1661204f611818565b73ffffffffffffffffffffffffffffffffffffffff16146120a5576040517f08c379a000000000000000000000000000000000000000000000000000000000815260040161209c906144e7565b60405180910390fd5b80601090805190602001906120bb9291906136a4565b5050565b6120c7612231565b73ffffffffffffffffffffffffffffffffffffffff166120e5611818565b73ffffffffffffffffffffffffffffffffffffffff161461213b576040517f08c379a0000000000000000000000000000000000000000000000000000000008152600401612132906144e7565b60405180910390fd5b600073ffffffffffffffffffffffffffffffffffffffff168173ffffffffffffffffffffffffffffffffffffffff1614156121ab576040517f08c379a00000000000000000000000000000000000000000000000000000000081526004016121a290614327565b60405180910390fd5b6121b4816126a3565b50565b60007f780e9d63000000000000000000000000000000000000000000000000000000007bffffffffffffffffffffffffffffffffffffffffffffffffffffffff1916827bffffffffffffffffffffffffffffffffffffffffffffffffffffffff1916148061222a575061222982612c77565b5b9050919050565b600033905090565b60008073ffffffffffffffffffffffffffffffffffffffff166002600084815260200190815260200160002060009054906101000a900473ffffffffffffffffffffffffffffffffffffffff1673ffffffffffffffffffffffffffffffffffffffff1614159050919050565b816004600083815260200190815260200160002060006101000a81548173ffffffffffffffffffffffffffffffffffffffff021916908373ffffffffffffffffffffffffffffffffffffffff160217905550808273ffffffffffffffffffffffffffffffffffffffff1661231883611438565b73ffffffffffffffffffffffffffffffffffffffff167f8c5be1e5ebec7d5bd14f71427d1e84f3dd0314c0f7b2291e5b200ac8c7c3b92560405160405180910390a45050565b600061236982612239565b6123a8576040517f08c379a000000000000000000000000000000000000000000000000000000000815260040161239f906143c7565b60405180910390fd5b60006123b383611438565b90508073ffffffffffffffffffffffffffffffffffffffff168473ffffffffffffffffffffffffffffffffffffffff16148061242257508373ffffffffffffffffffffffffffffffffffffffff1661240a84610b05565b73ffffffffffffffffffffffffffffffffffffffff16145b8061243357506124328185611e96565b5b91505092915050565b8273ffffffffffffffffffffffffffffffffffffffff1661245c82611438565b73ffffffffffffffffffffffffffffffffffffffff16146124b2576040517f08c379a00000000000000000000000000000000000000000000000000000000081526004016124a990614347565b60405180910390fd5b600073ffffffffffffffffffffffffffffffffffffffff168273ffffffffffffffffffffffffffffffffffffffff161415612522576040517f08c379a000000000000000000000000000000000000000000000000000000000815260040161251990614387565b60405180910390fd5b61252d838383612d59565b6125386000826122a5565b6001600360008573ffffffffffffffffffffffffffffffffffffffff1673ffffffffffffffffffffffffffffffffffffffff16815260200190815260200160002060008282546125889190614846565b925050819055506001600360008473ffffffffffffffffffffffffffffffffffffffff1673ffffffffffffffffffffffffffffffffffffffff16815260200190815260200160002060008282546125df9190614765565b92505081905550816002600083815260200190815260200160002060006101000a81548173ffffffffffffffffffffffffffffffffffffffff021916908373ffffffffffffffffffffffffffffffffffffffff160217905550808273ffffffffffffffffffffffffffffffffffffffff168473ffffffffffffffffffffffffffffffffffffffff167fddf252ad1be2c89b69c2b068fc378daa952ba7f163c4a11628f55a4df523b3ef60405160405180910390a461269e838383612d69565b505050565b6000600a60009054906101000a900473ffffffffffffffffffffffffffffffffffffffff16905081600a60006101000a81548173ffffffffffffffffffffffffffffffffffffffff021916908373ffffffffffffffffffffffffffffffffffffffff1602179055508173ffffffffffffffffffffffffffffffffffffffff168173ffffffffffffffffffffffffffffffffffffffff167f8be0079c531659141344cd1fd0a4f28419497f9722a3daafe3b4186f6b6457e060405160405180910390a35050565b612783828260405180602001604052806000815250612d6e565b5050565b606060008214156127cf576040518060400160405280600181526020017f300000000000000000000000000000000000000000000000000000000000000081525090506128e3565b600082905060005b600082146128015780806127ea90614993565b915050600a826127fa91906147bb565b91506127d7565b60008167ffffffffffffffff81111561281d5761281c614af8565b5b6040519080825280601f01601f19166020018201604052801561284f5781602001600182028036833780820191505090505b5090505b600085146128dc576001826128689190614846565b9150600a8561287791906149dc565b60306128839190614765565b60f81b81838151811061289957612898614ac9565b5b60200101907effffffffffffffffffffffffffffffffffffffffffffffffffffffffffffff1916908160001a905350600a856128d591906147bb565b9450612853565b8093505050505b919050565b6128f182612239565b612930576040517f08c379a000000000000000000000000000000000000000000000000000000000815260040161292790614447565b60405180910390fd5b80600b600084815260200190815260200160002090805190602001906129579291906136a4565b505050565b8173ffffffffffffffffffffffffffffffffffffffff168373ffffffffffffffffffffffffffffffffffffffff1614156129cb576040517f08c379a00000000000000000000000000000000000000000000000000000000081526004016129c2906143a7565b60405180910390fd5b80600560008573ffffffffffffffffffffffffffffffffffffffff1673ffffffffffffffffffffffffffffffffffffffff16815260200190815260200160002060008473ffffffffffffffffffffffffffffffffffffffff1673ffffffffffffffffffffffffffffffffffffffff16815260200190815260200160002060006101000a81548160ff0219169083151502179055508173ffffffffffffffffffffffffffffffffffffffff168373ffffffffffffffffffffffffffffffffffffffff167f17307eab39ab6107e8899845ad3d59bd9653f200f220920489ca2b5937696c3183604051612abc919061426a565b60405180910390a3505050565b612ad484848461243c565b612ae084848484612dc9565b612b1f576040517f08c379a0000000000000000000000000000000000000000000000000000000008152600401612b16906142c7565b60405180910390fd5b50505050565b6060612b3082612239565b612b6f576040517f08c379a0000000000000000000000000000000000000000000000000000000008152600401612b66906144a7565b60405180910390fd5b6000600b60008481526020019081526020016000208054612b8f90614930565b80601f0160208091040260200160405190810160405280929190818152602001828054612bbb90614930565b8015612c085780601f10612bdd57610100808354040283529160200191612c08565b820191906000526020600020905b815481529060010190602001808311612beb57829003601f168201915b505050505090506000612c19612f60565b9050600081511415612c2f578192505050612c72565b600082511115612c64578082604051602001612c4c929190614177565b60405160208183030381529060405292505050612c72565b612c6d84612f77565b925050505b919050565b60007f80ac58cd000000000000000000000000000000000000000000000000000000007bffffffffffffffffffffffffffffffffffffffffffffffffffffffff1916827bffffffffffffffffffffffffffffffffffffffffffffffffffffffff19161480612d4257507f5b5e139f000000000000000000000000000000000000000000000000000000007bffffffffffffffffffffffffffffffffffffffffffffffffffffffff1916827bffffffffffffffffffffffffffffffffffffffffffffffffffffffff1916145b80612d525750612d518261301e565b5b9050919050565b612d64838383613088565b505050565b505050565b612d78838361319c565b612d856000848484612dc9565b612dc4576040517f08c379a0000000000000000000000000000000000000000000000000000000008152600401612dbb906142c7565b60405180910390fd5b505050565b6000612dea8473ffffffffffffffffffffffffffffffffffffffff16613376565b15612f53578373ffffffffffffffffffffffffffffffffffffffff1663150b7a02612e13612231565b8786866040518563ffffffff1660e01b8152600401612e3594939291906141fc565b602060405180830381600087803b158015612e4f57600080fd5b505af1925050508015612e8057506040513d601f19601f82011682018060405250810190612e7d9190613aad565b60015b612f03573d8060008114612eb0576040519150601f19603f3d011682016040523d82523d6000602084013e612eb5565b606091505b50600081511415612efb576040517f08c379a0000000000000000000000000000000000000000000000000000000008152600401612ef2906142c7565b60405180910390fd5b805181602001fd5b63150b7a0260e01b7bffffffffffffffffffffffffffffffffffffffffffffffffffffffff1916817bffffffffffffffffffffffffffffffffffffffffffffffffffffffff191614915050612f58565b600190505b949350505050565b606060405180602001604052806000815250905090565b6060612f8282612239565b612fc1576040517f08c379a0000000000000000000000000000000000000000000000000000000008152600401612fb890614507565b60405180910390fd5b6000612fcb612f60565b90506000815111612feb5760405180602001604052806000815250613016565b80612ff584612787565b604051602001613006929190614177565b6040516020818303038152906040525b915050919050565b60007f01ffc9a7000000000000000000000000000000000000000000000000000000007bffffffffffffffffffffffffffffffffffffffffffffffffffffffff1916827bffffffffffffffffffffffffffffffffffffffffffffffffffffffff1916149050919050565b613093838383613399565b600073ffffffffffffffffffffffffffffffffffffffff168373ffffffffffffffffffffffffffffffffffffffff1614156130d6576130d18161339e565b613115565b8173ffffffffffffffffffffffffffffffffffffffff168373ffffffffffffffffffffffffffffffffffffffff16146131145761311383826133e7565b5b5b600073ffffffffffffffffffffffffffffffffffffffff168273ffffffffffffffffffffffffffffffffffffffff1614156131585761315381613554565b613197565b8273ffffffffffffffffffffffffffffffffffffffff168273ffffffffffffffffffffffffffffffffffffffff1614613196576131958282613625565b5b5b505050565b600073ffffffffffffffffffffffffffffffffffffffff168273ffffffffffffffffffffffffffffffffffffffff16141561320c576040517f08c379a000000000000000000000000000000000000000000000000000000000815260040161320390614487565b60405180910390fd5b61321581612239565b15613255576040517f08c379a000000000000000000000000000000000000000000000000000000000815260040161324c90614367565b60405180910390fd5b61326160008383612d59565b6001600360008473ffffffffffffffffffffffffffffffffffffffff1673ffffffffffffffffffffffffffffffffffffffff16815260200190815260200160002060008282546132b19190614765565b92505081905550816002600083815260200190815260200160002060006101000a81548173ffffffffffffffffffffffffffffffffffffffff021916908373ffffffffffffffffffffffffffffffffffffffff160217905550808273ffffffffffffffffffffffffffffffffffffffff16600073ffffffffffffffffffffffffffffffffffffffff167fddf252ad1be2c89b69c2b068fc378daa952ba7f163c4a11628f55a4df523b3ef60405160405180910390a461337260008383612d69565b5050565b6000808273ffffffffffffffffffffffffffffffffffffffff163b119050919050565b505050565b6008805490506009600083815260200190815260200160002081905550600881908060018154018082558091505060019003906000526020600020016000909190919091505550565b600060016133f4846114ea565b6133fe9190614846565b90506000600760008481526020019081526020016000205490508181146134e3576000600660008673ffffffffffffffffffffffffffffffffffffffff1673ffffffffffffffffffffffffffffffffffffffff168152602001908152602001600020600084815260200190815260200160002054905080600660008773ffffffffffffffffffffffffffffffffffffffff1673ffffffffffffffffffffffffffffffffffffffff168152602001908152602001600020600084815260200190815260200160002081905550816007600083815260200190815260200160002081905550505b6007600084815260200190815260200160002060009055600660008573ffffffffffffffffffffffffffffffffffffffff1673ffffffffffffffffffffffffffffffffffffffff16815260200190815260200160002060008381526020019081526020016000206000905550505050565b600060016008805490506135689190614846565b905060006009600084815260200190815260200160002054905060006008838154811061359857613597614ac9565b5b9060005260206000200154905080600883815481106135ba576135b9614ac9565b5b90600052602060002001819055508160096000838152602001908152602001600020819055506009600085815260200190815260200160002060009055600880548061360957613608614a9a565b5b6001900381819060005260206000200160009055905550505050565b6000613630836114ea565b905081600660008573ffffffffffffffffffffffffffffffffffffffff1673ffffffffffffffffffffffffffffffffffffffff168152602001908152602001600020600083815260200190815260200160002081905550806007600084815260200190815260200160002081905550505050565b8280546136b090614930565b90600052602060002090601f0160209004810192826136d25760008555613719565b82601f106136eb57805160ff1916838001178555613719565b82800160010185558215613719579182015b828111156137185782518255916020019190600101906136fd565b5b509050613726919061372a565b5090565b5b8082111561374357600081600090555060010161372b565b5090565b600061375a61375584614667565b614642565b90508281526020810184848401111561377657613775614b2c565b5b6137818482856148ee565b509392505050565b600061379c61379784614698565b614642565b9050828152602081018484840111156137b8576137b7614b2c565b5b6137c38482856148ee565b509392505050565b6000813590506137da81615251565b92915050565b6000813590506137ef81615268565b92915050565b6000813590506138048161527f565b92915050565b6000815190506138198161527f565b92915050565b600082601f83011261383457613833614b27565b5b8135613844848260208601613747565b91505092915050565b600082601f83011261386257613861614b27565b5b8135613872848260208601613789565b91505092915050565b60008135905061388a81615296565b92915050565b6000602082840312156138a6576138a5614b36565b5b60006138b4848285016137cb565b91505092915050565b600080604083850312156138d4576138d3614b36565b5b60006138e2858286016137cb565b92505060206138f3858286016137cb565b9150509250929050565b60008060006060848603121561391657613915614b36565b5b6000613924868287016137cb565b9350506020613935868287016137cb565b92505060406139468682870161387b565b9150509250925092565b6000806000806080858703121561396a57613969614b36565b5b6000613978878288016137cb565b9450506020613989878288016137cb565b935050604061399a8782880161387b565b925050606085013567ffffffffffffffff8111156139bb576139ba614b31565b5b6139c78782880161381f565b91505092959194509250565b600080604083850312156139ea576139e9614b36565b5b60006139f8858286016137cb565b9250506020613a09858286016137e0565b9150509250929050565b60008060408385031215613a2a57613a29614b36565b5b6000613a38858286016137cb565b9250506020613a498582860161387b565b9150509250929050565b600060208284031215613a6957613a68614b36565b5b6000613a77848285016137e0565b91505092915050565b600060208284031215613a9657613a95614b36565b5b6000613aa4848285016137f5565b91505092915050565b600060208284031215613ac357613ac2614b36565b5b6000613ad18482850161380a565b91505092915050565b600060208284031215613af057613aef614b36565b5b600082013567ffffffffffffffff811115613b0e57613b0d614b31565b5b613b1a8482850161384d565b91505092915050565b600060208284031215613b3957613b38614b36565b5b6000613b478482850161387b565b91505092915050565b60008060408385031215613b6757613b66614b36565b5b6000613b758582860161387b565b925050602083013567ffffffffffffffff811115613b9657613b95614b31565b5b613ba28582860161384d565b9150509250929050565b6000613bb88383614159565b60208301905092915050565b613bcd8161487a565b82525050565b6000613bde826146ee565b613be8818561471c565b9350613bf3836146c9565b8060005b83811015613c24578151613c0b8882613bac565b9750613c168361470f565b925050600181019050613bf7565b5085935050505092915050565b613c3a8161488c565b82525050565b6000613c4b826146f9565b613c55818561472d565b9350613c658185602086016148fd565b613c6e81614b3b565b840191505092915050565b6000613c8482614704565b613c8e8185614749565b9350613c9e8185602086016148fd565b613ca781614b3b565b840191505092915050565b6000613cbd82614704565b613cc7818561475a565b9350613cd78185602086016148fd565b80840191505092915050565b60008154613cf081614930565b613cfa818661475a565b94506001821660008114613d155760018114613d2657613d59565b60ff19831686528186019350613d59565b613d2f856146d9565b60005b83811015613d5157815481890152600182019150602081019050613d32565b838801955050505b50505092915050565b6000613d6f602b83614749565b9150613d7a82614b4c565b604082019050919050565b6000613d92603283614749565b9150613d9d82614b9b565b604082019050919050565b6000613db5601683614749565b9150613dc082614bea565b602082019050919050565b6000613dd8602983614749565b9150613de382614c13565b604082019050919050565b6000613dfb602683614749565b9150613e0682614c62565b604082019050919050565b6000613e1e602583614749565b9150613e2982614cb1565b604082019050919050565b6000613e41601c83614749565b9150613e4c82614d00565b602082019050919050565b6000613e64602483614749565b9150613e6f82614d29565b604082019050919050565b6000613e87601983614749565b9150613e9282614d78565b602082019050919050565b6000613eaa602c83614749565b9150613eb582614da1565b604082019050919050565b6000613ecd603883614749565b9150613ed882614df0565b604082019050919050565b6000613ef0602a83614749565b9150613efb82614e3f565b604082019050919050565b6000613f13602983614749565b9150613f1e82614e8e565b604082019050919050565b6000613f36602e83614749565b9150613f4182614edd565b604082019050919050565b6000613f59601683614749565b9150613f6482614f2c565b602082019050919050565b6000613f7c602083614749565b9150613f8782614f55565b602082019050919050565b6000613f9f603183614749565b9150613faa82614f7e565b604082019050919050565b6000613fc2602c83614749565b9150613fcd82614fcd565b604082019050919050565b6000613fe5602083614749565b9150613ff08261501c565b602082019050919050565b6000614008602f83614749565b915061401382615045565b604082019050919050565b600061402b602183614749565b915061403682615094565b604082019050919050565b600061404e60008361473e565b9150614059826150e3565b600082019050919050565b6000614071601283614749565b915061407c826150e6565b602082019050919050565b6000614094601083614749565b915061409f8261510f565b602082019050919050565b60006140b7603183614749565b91506140c282615138565b604082019050919050565b60006140da601a83614749565b91506140e582615187565b602082019050919050565b60006140fd602c83614749565b9150614108826151b0565b604082019050919050565b6000614120601f83614749565b915061412b826151ff565b602082019050919050565b6000614143601283614749565b915061414e82615228565b602082019050919050565b614162816148e4565b82525050565b614171816148e4565b82525050565b60006141838285613cb2565b915061418f8284613cb2565b91508190509392505050565b60006141a78286613ce3565b91506141b38285613cb2565b91506141bf8284613ce3565b9150819050949350505050565b60006141d782614041565b9150819050919050565b60006020820190506141f66000830184613bc4565b92915050565b60006080820190506142116000830187613bc4565b61421e6020830186613bc4565b61422b6040830185614168565b818103606083015261423d8184613c40565b905095945050505050565b600060208201905081810360008301526142628184613bd3565b905092915050565b600060208201905061427f6000830184613c31565b92915050565b6000602082019050818103600083015261429f8184613c79565b905092915050565b600060208201905081810360008301526142c081613d62565b9050919050565b600060208201905081810360008301526142e081613d85565b9050919050565b6000602082019050818103600083015261430081613da8565b9050919050565b6000602082019050818103600083015261432081613dcb565b9050919050565b6000602082019050818103600083015261434081613dee565b9050919050565b6000602082019050818103600083015261436081613e11565b9050919050565b6000602082019050818103600083015261438081613e34565b9050919050565b600060208201905081810360008301526143a081613e57565b9050919050565b600060208201905081810360008301526143c081613e7a565b9050919050565b600060208201905081810360008301526143e081613e9d565b9050919050565b6000602082019050818103600083015261440081613ec0565b9050919050565b6000602082019050818103600083015261442081613ee3565b9050919050565b6000602082019050818103600083015261444081613f06565b9050919050565b6000602082019050818103600083015261446081613f29565b9050919050565b6000602082019050818103600083015261448081613f4c565b9050919050565b600060208201905081810360008301526144a081613f6f565b9050919050565b600060208201905081810360008301526144c081613f92565b9050919050565b600060208201905081810360008301526144e081613fb5565b9050919050565b6000602082019050818103600083015261450081613fd8565b9050919050565b6000602082019050818103600083015261452081613ffb565b9050919050565b600060208201905081810360008301526145408161401e565b9050919050565b6000602082019050818103600083015261456081614064565b9050919050565b6000602082019050818103600083015261458081614087565b9050919050565b600060208201905081810360008301526145a0816140aa565b9050919050565b600060208201905081810360008301526145c0816140cd565b9050919050565b600060208201905081810360008301526145e0816140f0565b9050919050565b6000602082019050818103600083015261460081614113565b9050919050565b6000602082019050818103600083015261462081614136565b9050919050565b600060208201905061463c6000830184614168565b92915050565b600061464c61465d565b90506146588282614962565b919050565b6000604051905090565b600067ffffffffffffffff82111561468257614681614af8565b5b61468b82614b3b565b9050602081019050919050565b600067ffffffffffffffff8211156146b3576146b2614af8565b5b6146bc82614b3b565b9050602081019050919050565b6000819050602082019050919050565b60008190508160005260206000209050919050565b600081519050919050565b600081519050919050565b600081519050919050565b6000602082019050919050565b600082825260208201905092915050565b600082825260208201905092915050565b600081905092915050565b600082825260208201905092915050565b600081905092915050565b6000614770826148e4565b915061477b836148e4565b9250827fffffffffffffffffffffffffffffffffffffffffffffffffffffffffffffffff038211156147b0576147af614a0d565b5b828201905092915050565b60006147c6826148e4565b91506147d1836148e4565b9250826147e1576147e0614a3c565b5b828204905092915050565b60006147f7826148e4565b9150614802836148e4565b9250817fffffffffffffffffffffffffffffffffffffffffffffffffffffffffffffffff048311821515161561483b5761483a614a0d565b5b828202905092915050565b6000614851826148e4565b915061485c836148e4565b92508282101561486f5761486e614a0d565b5b828203905092915050565b6000614885826148c4565b9050919050565b60008115159050919050565b60007fffffffff0000000000000000000000000000000000000000000000000000000082169050919050565b600073ffffffffffffffffffffffffffffffffffffffff82169050919050565b6000819050919050565b82818337600083830152505050565b60005b8381101561491b578082015181840152602081019050614900565b8381111561492a576000848401525b50505050565b6000600282049050600182168061494857607f821691505b6020821081141561495c5761495b614a6b565b5b50919050565b61496b82614b3b565b810181811067ffffffffffffffff8211171561498a57614989614af8565b5b80604052505050565b600061499e826148e4565b91507fffffffffffffffffffffffffffffffffffffffffffffffffffffffffffffffff8214156149d1576149d0614a0d565b5b600182019050919050565b60006149e7826148e4565b91506149f2836148e4565b925082614a0257614a01614a3c565b5b828206905092915050565b7f4e487b7100000000000000000000000000000000000000000000000000000000600052601160045260246000fd5b7f4e487b7100000000000000000000000000000000000000000000000000000000600052601260045260246000fd5b7f4e487b7100000000000000000000000000000000000000000000000000000000600052602260045260246000fd5b7f4e487b7100000000000000000000000000000000000000000000000000000000600052603160045260246000fd5b7f4e487b7100000000000000000000000000000000000000000000000000000000600052603260045260246000fd5b7f4e487b7100000000000000000000000000000000000000000000000000000000600052604160045260246000fd5b600080fd5b600080fd5b600080fd5b600080fd5b6000601f19601f8301169050919050565b7f455243373231456e756d657261626c653a206f776e657220696e646578206f7560008201527f74206f6620626f756e6473000000000000000000000000000000000000000000602082015250565b7f4552433732313a207472616e7366657220746f206e6f6e20455243373231526560008201527f63656976657220696d706c656d656e7465720000000000000000000000000000602082015250565b7f54686520636f6e74726163742069732070617573656400000000000000000000600082015250565b7f50726576696f75732064726f702073616c657320686173206e6f742066696e6960008201527f73686564207965742e0000000000000000000000000000000000000000000000602082015250565b7f4f776e61626c653a206e6577206f776e657220697320746865207a65726f206160008201527f6464726573730000000000000000000000000000000000000000000000000000602082015250565b7f4552433732313a207472616e736665722066726f6d20696e636f72726563742060008201527f6f776e6572000000000000000000000000000000000000000000000000000000602082015250565b7f4552433732313a20746f6b656e20616c7265616479206d696e74656400000000600082015250565b7f4552433732313a207472616e7366657220746f20746865207a65726f2061646460008201527f7265737300000000000000000000000000000000000000000000000000000000602082015250565b7f4552433732313a20617070726f766520746f2063616c6c657200000000000000600082015250565b7f4552433732313a206f70657261746f7220717565727920666f72206e6f6e657860008201527f697374656e7420746f6b656e0000000000000000000000000000000000000000602082015250565b7f4552433732313a20617070726f76652063616c6c6572206973206e6f74206f7760008201527f6e6572206e6f7220617070726f76656420666f7220616c6c0000000000000000602082015250565b7f4552433732313a2062616c616e636520717565727920666f7220746865207a6560008201527f726f206164647265737300000000000000000000000000000000000000000000602082015250565b7f4552433732313a206f776e657220717565727920666f72206e6f6e657869737460008201527f656e7420746f6b656e0000000000000000000000000000000000000000000000602082015250565b7f45524337323155524953746f726167653a2055524920736574206f66206e6f6e60008201527f6578697374656e7420746f6b656e000000000000000000000000000000000000602082015250565b7f6d6178204e4654206c696d697420657863656564656400000000000000000000600082015250565b7f4552433732313a206d696e7420746f20746865207a65726f2061646472657373600082015250565b7f45524337323155524953746f726167653a2055524920717565727920666f722060008201527f6e6f6e6578697374656e7420746f6b656e000000000000000000000000000000602082015250565b7f4552433732313a20617070726f76656420717565727920666f72206e6f6e657860008201527f697374656e7420746f6b656e0000000000000000000000000000000000000000602082015250565b7f4f776e61626c653a2063616c6c6572206973206e6f7420746865206f776e6572600082015250565b7f4552433732314d657461646174613a2055524920717565727920666f72206e6f60008201527f6e6578697374656e7420746f6b656e0000000000000000000000000000000000602082015250565b7f4552433732313a20617070726f76616c20746f2063757272656e74206f776e6560008201527f7200000000000000000000000000000000000000000000000000000000000000602082015250565b50565b7f696e73756666696369656e742066756e64730000000000000000000000000000600082015250565b7f5472616e73666572206661696c65642e00000000000000000000000000000000600082015250565b7f4552433732313a207472616e736665722063616c6c6572206973206e6f74206f60008201527f776e6572206e6f7220617070726f766564000000000000000000000000000000602082015250565b7f4e6f206574686572206c65667420746f2077697468647261772e000000000000600082015250565b7f455243373231456e756d657261626c653a20676c6f62616c20696e646578206f60008201527f7574206f6620626f756e64730000000000000000000000000000000000000000602082015250565b7f5265656e7472616e637947756172643a207265656e7472616e742063616c6c00600082015250565b7f6d696e742061746c656173742031204e46540000000000000000000000000000600082015250565b61525a8161487a565b811461526557600080fd5b50565b6152718161488c565b811461527c57600080fd5b50565b61528881614898565b811461529357600080fd5b50565b61529f816148e4565b81146152aa57600080fd5b5056fea2646970667358221220dd1d62be087d2bf0ea348f53bf87e95b26924641138cc0b10116bd04660b492b64736f6c63430008070033",
  "linkReferences": {},
  "deployedLinkReferences": {}
}