{
  "_format": "hh-sol-artifact-1",
  "contractName": "ResearchFundingClubOld",
  "sourceName": "contracts/obsolete/ResearchFundingClub.sol",
  "abi": [
    {
      "inputs": [
        {
          "internalType": "uint96",
          "name": "_royaltyFeesInBips",
          "type": "uint96"
        },
        {
          "internalType": "string",
          "name": "baseURI",
          "type": "string"
        }
      ],
      "stateMutability": "nonpayable",
      "type": "constructor"
    },
    {
      "anonymous": false,
      "inputs": [
        {
          "indexed": true,
          "internalType": "address",
          "name": "owner",
          "type": "address"
        },
        {
          "indexed": true,
          "internalType": "address",
          "name": "approved",
          "type": "address"
        },
        {
          "indexed": true,
          "internalType": "uint256",
          "name": "tokenId",
          "type": "uint256"
        }
      ],
      "name": "Approval",
      "type": "event"
    },
    {
      "anonymous": false,
      "inputs": [
        {
          "indexed": true,
          "internalType": "address",
          "name": "owner",
          "type": "address"
        },
        {
          "indexed": true,
          "internalType": "address",
          "name": "operator",
          "type": "address"
        },
        {
          "indexed": false,
          "internalType": "bool",
          "name": "approved",
          "type": "bool"
        }
      ],
      "name": "ApprovalForAll",
      "type": "event"
    },
    {
      "anonymous": false,
      "inputs": [
        {
          "indexed": true,
          "internalType": "address",
          "name": "previousOwner",
          "type": "address"
        },
        {
          "indexed": true,
          "internalType": "address",
          "name": "newOwner",
          "type": "address"
        }
      ],
      "name": "OwnershipTransferred",
      "type": "event"
    },
    {
      "anonymous": false,
      "inputs": [
        {
          "indexed": true,
          "internalType": "address",
          "name": "from",
          "type": "address"
        },
        {
          "indexed": true,
          "internalType": "address",
          "name": "to",
          "type": "address"
        },
        {
          "indexed": true,
          "internalType": "uint256",
          "name": "tokenId",
          "type": "uint256"
        }
      ],
      "name": "Transfer",
      "type": "event"
    },
    {
      "inputs": [],
      "name": "MAX_PER_MINT",
      "outputs": [
        {
          "internalType": "uint256",
          "name": "",
          "type": "uint256"
        }
      ],
      "stateMutability": "view",
      "type": "function"
    },
    {
      "inputs": [],
      "name": "MAX_SUPPLY",
      "outputs": [
        {
          "internalType": "uint256",
          "name": "",
          "type": "uint256"
        }
      ],
      "stateMutability": "view",
      "type": "function"
    },
    {
      "inputs": [],
      "name": "MIN_SUPPLY",
      "outputs": [
        {
          "internalType": "uint256",
          "name": "",
          "type": "uint256"
        }
      ],
      "stateMutability": "view",
      "type": "function"
    },
    {
      "inputs": [],
      "name": "PRICE",
      "outputs": [
        {
          "internalType": "uint256",
          "name": "",
          "type": "uint256"
        }
      ],
      "stateMutability": "view",
      "type": "function"
    },
    {
      "inputs": [
        {
          "internalType": "address",
          "name": "to",
          "type": "address"
        },
        {
          "internalType": "uint256",
          "name": "tokenId",
          "type": "uint256"
        }
      ],
      "name": "approve",
      "outputs": [],
      "stateMutability": "nonpayable",
      "type": "function"
    },
    {
      "inputs": [
        {
          "internalType": "address",
          "name": "owner",
          "type": "address"
        }
      ],
      "name": "balanceOf",
      "outputs": [
        {
          "internalType": "uint256",
          "name": "",
          "type": "uint256"
        }
      ],
      "stateMutability": "view",
      "type": "function"
    },
    {
      "inputs": [],
      "name": "baseExtension",
      "outputs": [
        {
          "internalType": "string",
          "name": "",
          "type": "string"
        }
      ],
      "stateMutability": "view",
      "type": "function"
    },
    {
      "inputs": [],
      "name": "baseTokenURI",
      "outputs": [
        {
          "internalType": "string",
          "name": "",
          "type": "string"
        }
      ],
      "stateMutability": "view",
      "type": "function"
    },
    {
      "inputs": [],
      "name": "charityWallet",
      "outputs": [
        {
          "internalType": "address",
          "name": "",
          "type": "address"
        }
      ],
      "stateMutability": "view",
      "type": "function"
    },
    {
      "inputs": [],
      "name": "devWallet",
      "outputs": [
        {
          "internalType": "address",
          "name": "",
          "type": "address"
        }
      ],
      "stateMutability": "view",
      "type": "function"
    },
    {
      "inputs": [
        {
          "internalType": "uint256",
          "name": "tokenId",
          "type": "uint256"
        }
      ],
      "name": "getApproved",
      "outputs": [
        {
          "internalType": "address",
          "name": "",
          "type": "address"
        }
      ],
      "stateMutability": "view",
      "type": "function"
    },
    {
      "inputs": [
        {
          "internalType": "address",
          "name": "owner",
          "type": "address"
        },
        {
          "internalType": "address",
          "name": "operator",
          "type": "address"
        }
      ],
      "name": "isApprovedForAll",
      "outputs": [
        {
          "internalType": "bool",
          "name": "",
          "type": "bool"
        }
      ],
      "stateMutability": "view",
      "type": "function"
    },
    {
      "inputs": [
        {
          "internalType": "uint256",
          "name": "_mintAmount",
          "type": "uint256"
        }
      ],
      "name": "mint",
      "outputs": [],
      "stateMutability": "payable",
      "type": "function"
    },
    {
      "inputs": [],
      "name": "name",
      "outputs": [
        {
          "internalType": "string",
          "name": "",
          "type": "string"
        }
      ],
      "stateMutability": "view",
      "type": "function"
    },
    {
      "inputs": [
        {
          "internalType": "uint256",
          "name": "_newMaxSupply",
          "type": "uint256"
        },
        {
          "internalType": "string",
          "name": "_newBaseURI",
          "type": "string"
        }
      ],
      "name": "newDrop",
      "outputs": [],
      "stateMutability": "nonpayable",
      "type": "function"
    },
    {
      "inputs": [],
      "name": "notRevealedURI",
      "outputs": [
        {
          "internalType": "string",
          "name": "",
          "type": "string"
        }
      ],
      "stateMutability": "view",
      "type": "function"
    },
    {
      "inputs": [],
      "name": "owner",
      "outputs": [
        {
          "internalType": "address",
          "name": "",
          "type": "address"
        }
      ],
      "stateMutability": "view",
      "type": "function"
    },
    {
      "inputs": [
        {
          "internalType": "uint256",
          "name": "tokenId",
          "type": "uint256"
        }
      ],
      "name": "ownerOf",
      "outputs": [
        {
          "internalType": "address",
          "name": "",
          "type": "address"
        }
      ],
      "stateMutability": "view",
      "type": "function"
    },
    {
      "inputs": [
        {
          "internalType": "bool",
          "name": "_state",
          "type": "bool"
        }
      ],
      "name": "pause",
      "outputs": [],
      "stateMutability": "nonpayable",
      "type": "function"
    },
    {
      "inputs": [],
      "name": "paused",
      "outputs": [
        {
          "internalType": "bool",
          "name": "",
          "type": "bool"
        }
      ],
      "stateMutability": "view",
      "type": "function"
    },
    {
      "inputs": [],
      "name": "renounceOwnership",
      "outputs": [],
      "stateMutability": "nonpayable",
      "type": "function"
    },
    {
      "inputs": [],
      "name": "reveal",
      "outputs": [],
      "stateMutability": "nonpayable",
      "type": "function"
    },
    {
      "inputs": [],
      "name": "revealed",
      "outputs": [
        {
          "internalType": "bool",
          "name": "",
          "type": "bool"
        }
      ],
      "stateMutability": "view",
      "type": "function"
    },
    {
      "inputs": [
        {
          "internalType": "uint256",
          "name": "_tokenId",
          "type": "uint256"
        },
        {
          "internalType": "uint256",
          "name": "_salePrice",
          "type": "uint256"
        }
      ],
      "name": "royaltyInfo",
      "outputs": [
        {
          "internalType": "address",
          "name": "",
          "type": "address"
        },
        {
          "internalType": "uint256",
          "name": "",
          "type": "uint256"
        }
      ],
      "stateMutability": "view",
      "type": "function"
    },
    {
      "inputs": [
        {
          "internalType": "address",
          "name": "from",
          "type": "address"
        },
        {
          "internalType": "address",
          "name": "to",
          "type": "address"
        },
        {
          "internalType": "uint256",
          "name": "tokenId",
          "type": "uint256"
        }
      ],
      "name": "safeTransferFrom",
      "outputs": [],
      "stateMutability": "nonpayable",
      "type": "function"
    },
    {
      "inputs": [
        {
          "internalType": "address",
          "name": "from",
          "type": "address"
        },
        {
          "internalType": "address",
          "name": "to",
          "type": "address"
        },
        {
          "internalType": "uint256",
          "name": "tokenId",
          "type": "uint256"
        },
        {
          "internalType": "bytes",
          "name": "_data",
          "type": "bytes"
        }
      ],
      "name": "safeTransferFrom",
      "outputs": [],
      "stateMutability": "nonpayable",
      "type": "function"
    },
    {
      "inputs": [
        {
          "internalType": "address",
          "name": "operator",
          "type": "address"
        },
        {
          "internalType": "bool",
          "name": "approved",
          "type": "bool"
        }
      ],
      "name": "setApprovalForAll",
      "outputs": [],
      "stateMutability": "nonpayable",
      "type": "function"
    },
    {
      "inputs": [
        {
          "internalType": "string",
          "name": "_newBaseExtension",
          "type": "string"
        }
      ],
      "name": "setBaseExtension",
      "outputs": [],
      "stateMutability": "nonpayable",
      "type": "function"
    },
    {
      "inputs": [
        {
          "internalType": "string",
          "name": "_baseTokenURI",
          "type": "string"
        }
      ],
      "name": "setBaseURI",
      "outputs": [],
      "stateMutability": "nonpayable",
      "type": "function"
    },
    {
      "inputs": [
        {
          "internalType": "uint256",
          "name": "_newCost",
          "type": "uint256"
        }
      ],
      "name": "setCost",
      "outputs": [],
      "stateMutability": "nonpayable",
      "type": "function"
    },
    {
      "inputs": [
        {
          "internalType": "string",
          "name": "_notRevealedURI",
          "type": "string"
        }
      ],
      "name": "setNotRevealedURI",
      "outputs": [],
      "stateMutability": "nonpayable",
      "type": "function"
    },
    {
      "inputs": [
        {
          "internalType": "address",
          "name": "_receiver",
          "type": "address"
        },
        {
          "internalType": "uint96",
          "name": "_royaltyFeesInBips",
          "type": "uint96"
        }
      ],
      "name": "setRoyaltyInfo",
      "outputs": [],
      "stateMutability": "nonpayable",
      "type": "function"
    },
    {
      "inputs": [
        {
          "internalType": "uint256",
          "name": "_limit",
          "type": "uint256"
        }
      ],
      "name": "setmaxMintAmount",
      "outputs": [],
      "stateMutability": "nonpayable",
      "type": "function"
    },
    {
      "inputs": [
        {
          "internalType": "uint256",
          "name": "_limit",
          "type": "uint256"
        }
      ],
      "name": "setmaxSupply",
      "outputs": [],
      "stateMutability": "nonpayable",
      "type": "function"
    },
    {
      "inputs": [
        {
          "internalType": "bytes4",
          "name": "interfaceId",
          "type": "bytes4"
        }
      ],
      "name": "supportsInterface",
      "outputs": [
        {
          "internalType": "bool",
          "name": "",
          "type": "bool"
        }
      ],
      "stateMutability": "view",
      "type": "function"
    },
    {
      "inputs": [],
      "name": "symbol",
      "outputs": [
        {
          "internalType": "string",
          "name": "",
          "type": "string"
        }
      ],
      "stateMutability": "view",
      "type": "function"
    },
    {
      "inputs": [
        {
          "internalType": "uint256",
          "name": "index",
          "type": "uint256"
        }
      ],
      "name": "tokenByIndex",
      "outputs": [
        {
          "internalType": "uint256",
          "name": "",
          "type": "uint256"
        }
      ],
      "stateMutability": "view",
      "type": "function"
    },
    {
      "inputs": [
        {
          "internalType": "address",
          "name": "owner",
          "type": "address"
        },
        {
          "internalType": "uint256",
          "name": "index",
          "type": "uint256"
        }
      ],
      "name": "tokenOfOwnerByIndex",
      "outputs": [
        {
          "internalType": "uint256",
          "name": "",
          "type": "uint256"
        }
      ],
      "stateMutability": "view",
      "type": "function"
    },
    {
      "inputs": [
        {
          "internalType": "uint256",
          "name": "tokenId",
          "type": "uint256"
        }
      ],
      "name": "tokenURI",
      "outputs": [
        {
          "internalType": "string",
          "name": "",
          "type": "string"
        }
      ],
      "stateMutability": "view",
      "type": "function"
    },
    {
      "inputs": [
        {
          "internalType": "address",
          "name": "_owner",
          "type": "address"
        }
      ],
      "name": "tokensOfOwner",
      "outputs": [
        {
          "internalType": "uint256[]",
          "name": "",
          "type": "uint256[]"
        }
      ],
      "stateMutability": "view",
      "type": "function"
    },
    {
      "inputs": [],
      "name": "totalSupply",
      "outputs": [
        {
          "internalType": "uint256",
          "name": "",
          "type": "uint256"
        }
      ],
      "stateMutability": "view",
      "type": "function"
    },
    {
      "inputs": [
        {
          "internalType": "address",
          "name": "from",
          "type": "address"
        },
        {
          "internalType": "address",
          "name": "to",
          "type": "address"
        },
        {
          "internalType": "uint256",
          "name": "tokenId",
          "type": "uint256"
        }
      ],
      "name": "transferFrom",
      "outputs": [],
      "stateMutability": "nonpayable",
      "type": "function"
    },
    {
      "inputs": [
        {
          "internalType": "address",
          "name": "newOwner",
          "type": "address"
        }
      ],
      "name": "transferOwnership",
      "outputs": [],
      "stateMutability": "nonpayable",
      "type": "function"
    },
    {
      "inputs": [],
      "name": "withdraw",
      "outputs": [],
      "stateMutability": "nonpayable",
      "type": "function"
    }
  ],
  "bytecode": "0x6010805460ff1916905560c06040526005608081905264173539b7b760d91b60a0908152620000329160119190620003e4565b506040805180820190915260108082526f1b9bdd081c995d99585b1959081e595d60821b60209092019182526200006c91601291620003e4565b506000601355600a601455655af3107a4000601555600160165560178054747158d45648167222c89351cebf618f413bad08fb006001600160a81b0319909116179055601880546001600160a01b031916736ed651a23d8a35d07baadf816bfd8f5d78d43a64179055348015620000e257600080fd5b5060405162003a7c38038062003a7c83398101604081905262000105916200048a565b604080518082018252601581527f52657365617263682046756e64696e6720436c7562000000000000000000000060208083019182528351808501909452600384526252464360e81b9084015281519192916200016591600091620003e4565b5080516200017b906001906020840190620003e4565b5050506200019862000192620001ce60201b60201c565b620001d2565b6001600e55620001bb620001b4600c546001600160a01b031690565b8362000224565b620001c68162000283565b5050620005dd565b3390565b600c80546001600160a01b038381166001600160a01b0319831681179093556040519116919082907f8be0079c531659141344cd1fd0a4f28419497f9722a3daafe3b4186f6b6457e090600090a35050565b600c546001600160a01b03163314620002735760405162461bcd60e51b8152602060048201819052602482015260008051602062003a5c83398151915260448201526064015b60405180910390fd5b6200027f8282620002e3565b5050565b600c546001600160a01b03163314620002ce5760405162461bcd60e51b8152602060048201819052602482015260008051602062003a5c83398151915260448201526064016200026a565b80516200027f90600f906020840190620003e4565b6127106001600160601b0382161115620003535760405162461bcd60e51b815260206004820152602a60248201527f455243323938313a20726f79616c7479206665652077696c6c206578636565646044820152692073616c65507269636560b01b60648201526084016200026a565b6001600160a01b038216620003ab5760405162461bcd60e51b815260206004820152601960248201527f455243323938313a20696e76616c69642072656365697665720000000000000060448201526064016200026a565b604080518082019091526001600160a01b039092168083526001600160601b039091166020909201829052600160a01b90910217600a55565b828054620003f2906200058a565b90600052602060002090601f01602090048101928262000416576000855562000461565b82601f106200043157805160ff191683800117855562000461565b8280016001018555821562000461579182015b828111156200046157825182559160200191906001019062000444565b506200046f92915062000473565b5090565b5b808211156200046f576000815560010162000474565b600080604083850312156200049e57600080fd5b82516001600160601b0381168114620004b657600080fd5b602084810151919350906001600160401b0380821115620004d657600080fd5b818601915086601f830112620004eb57600080fd5b815181811115620005005762000500620005c7565b604051601f8201601f19908116603f011681019083821181831017156200052b576200052b620005c7565b8160405282815289868487010111156200054457600080fd5b600093505b8284101562000568578484018601518185018701529285019262000549565b828411156200057a5760008684830101525b8096505050505050509250929050565b600181811c908216806200059f57607f821691505b60208210811415620005c157634e487b7160e01b600052602260045260246000fd5b50919050565b634e487b7160e01b600052604160045260246000fd5b61346f80620005ed6000396000f3fe6080604052600436106102e75760003560e01c806370a0823111610184578063a22cb465116100d6578063d547cfb71161008a578063f1a91a6811610064578063f1a91a681461080a578063f2c4ce1e1461082a578063f2fde38b1461084a57600080fd5b8063d547cfb71461078c578063da3ef23f146107a1578063e985e9c5146107c157600080fd5b8063b88d4fde116100bb578063b88d4fde14610737578063c668286214610757578063c87b56dd1461076c57600080fd5b8063a22cb46514610702578063a475b5dd1461072257600080fd5b80638462151c116101385780638ea5220f116101125780638ea5220f146106ba57806395d89b41146106da578063a0712d68146106ef57600080fd5b80638462151c146106595780638d859f3e146106865780638da5cb5b1461069c57600080fd5b8063722503801161016957806372250380146105ff5780637b208769146106145780637f00c7a61461063957600080fd5b806370a08231146105ca578063715018a6146105ea57600080fd5b80632f745c591161023d57806344a0d68a116101f157806355f804b3116101cb57806355f804b3146105705780635c975abb146105905780636352211e146105aa57600080fd5b806344a0d68a146105165780634f6ccce714610536578063518302271461055657600080fd5b806335917c641161022257806335917c64146104cb5780633ccfd60b146104e157806342842e0e146104f657600080fd5b80632f745c591461049557806332cb6b0c146104b557600080fd5b8063095ea7b31161029f578063228025e811610279578063228025e81461041657806323b872dd146104365780632a55205a1461045657600080fd5b8063095ea7b3146103bd57806309d42b30146103dd57806318160ddd1461040157600080fd5b806302fa7c47116102d057806302fa7c471461034357806306fdde0314610363578063081812fc1461038557600080fd5b806301ffc9a7146102ec57806302329a2914610321575b600080fd5b3480156102f857600080fd5b5061030c610307366004612ff1565b61086a565b60405190151581526020015b60405180910390f35b34801561032d57600080fd5b5061034161033c366004612fd6565b610895565b005b34801561034f57600080fd5b5061034161035e366004612f8e565b6108f5565b34801561036f57600080fd5b5061037861094b565b604051610318919061328a565b34801561039157600080fd5b506103a56103a0366004613060565b6109dd565b6040516001600160a01b039091168152602001610318565b3480156103c957600080fd5b506103416103d8366004612f64565b610a72565b3480156103e957600080fd5b506103f360165481565b604051908152602001610318565b34801561040d57600080fd5b506008546103f3565b34801561042257600080fd5b50610341610431366004613060565b610ba4565b34801561044257600080fd5b50610341610451366004612e82565b610bf1565b34801561046257600080fd5b506104766104713660046130c0565b610c78565b604080516001600160a01b039093168352602083019190915201610318565b3480156104a157600080fd5b506103f36104b0366004612f64565b610d33565b3480156104c157600080fd5b506103f360145481565b3480156104d757600080fd5b506103f360135481565b3480156104ed57600080fd5b50610341610ddb565b34801561050257600080fd5b50610341610511366004612e82565b6110e1565b34801561052257600080fd5b50610341610531366004613060565b6110fc565b34801561054257600080fd5b506103f3610551366004613060565b611149565b34801561056257600080fd5b5060175461030c9060ff1681565b34801561057c57600080fd5b5061034161058b36600461302b565b6111ed565b34801561059c57600080fd5b5060105461030c9060ff1681565b3480156105b657600080fd5b506103a56105c5366004613060565b611248565b3480156105d657600080fd5b506103f36105e5366004612e34565b6112d3565b3480156105f657600080fd5b5061034161136d565b34801561060b57600080fd5b506103786113c1565b34801561062057600080fd5b506017546103a59061010090046001600160a01b031681565b34801561064557600080fd5b50610341610654366004613060565b61144f565b34801561066557600080fd5b50610679610674366004612e34565b61149c565b6040516103189190613246565b34801561069257600080fd5b506103f360155481565b3480156106a857600080fd5b50600c546001600160a01b03166103a5565b3480156106c657600080fd5b506018546103a5906001600160a01b031681565b3480156106e657600080fd5b5061037861153e565b6103416106fd366004613060565b61154d565b34801561070e57600080fd5b5061034161071d366004612f3a565b611711565b34801561072e57600080fd5b5061034161171c565b34801561074357600080fd5b50610341610752366004612ebe565b611773565b34801561076357600080fd5b50610378611801565b34801561077857600080fd5b50610378610787366004613060565b61180e565b34801561079857600080fd5b5061037861194f565b3480156107ad57600080fd5b506103416107bc36600461302b565b61195c565b3480156107cd57600080fd5b5061030c6107dc366004612e4f565b6001600160a01b03918216600090815260056020908152604080832093909416825291909152205460ff1690565b34801561081657600080fd5b50610341610825366004613079565b6119b7565b34801561083657600080fd5b5061034161084536600461302b565b611a99565b34801561085657600080fd5b50610341610865366004612e34565b611af4565b60006001600160e01b0319821663152a902d60e11b148061088f575061088f82611bc4565b92915050565b600c546001600160a01b031633146108e25760405162461bcd60e51b8152602060048201819052602482015260008051602061341a83398151915260448201526064015b60405180910390fd5b6010805460ff1916911515919091179055565b600c546001600160a01b0316331461093d5760405162461bcd60e51b8152602060048201819052602482015260008051602061341a83398151915260448201526064016108d9565b6109478282611be9565b5050565b60606000805461095a9061332b565b80601f01602080910402602001604051908101604052809291908181526020018280546109869061332b565b80156109d35780601f106109a8576101008083540402835291602001916109d3565b820191906000526020600020905b8154815290600101906020018083116109b657829003601f168201915b5050505050905090565b6000818152600260205260408120546001600160a01b0316610a565760405162461bcd60e51b815260206004820152602c60248201527f4552433732313a20617070726f76656420717565727920666f72206e6f6e657860448201526b34b9ba32b73a103a37b5b2b760a11b60648201526084016108d9565b506000908152600460205260409020546001600160a01b031690565b6000610a7d82611248565b9050806001600160a01b0316836001600160a01b03161415610b075760405162461bcd60e51b815260206004820152602160248201527f4552433732313a20617070726f76616c20746f2063757272656e74206f776e6560448201527f720000000000000000000000000000000000000000000000000000000000000060648201526084016108d9565b336001600160a01b0382161480610b235750610b2381336107dc565b610b955760405162461bcd60e51b815260206004820152603860248201527f4552433732313a20617070726f76652063616c6c6572206973206e6f74206f7760448201527f6e6572206e6f7220617070726f76656420666f7220616c6c000000000000000060648201526084016108d9565b610b9f8383611d03565b505050565b600c546001600160a01b03163314610bec5760405162461bcd60e51b8152602060048201819052602482015260008051602061341a83398151915260448201526064016108d9565b601455565b610bfb3382611d7e565b610c6d5760405162461bcd60e51b815260206004820152603160248201527f4552433732313a207472616e736665722063616c6c6572206973206e6f74206f60448201527f776e6572206e6f7220617070726f76656400000000000000000000000000000060648201526084016108d9565b610b9f838383611e75565b6000828152600b602090815260408083208151808301909252546001600160a01b038116808352600160a01b9091046bffffffffffffffffffffffff16928201929092528291610cf7575060408051808201909152600a546001600160a01b0381168252600160a01b90046bffffffffffffffffffffffff1660208201525b602081015160009061271090610d1b906bffffffffffffffffffffffff16876132c9565b610d2591906132b5565b915196919550909350505050565b6000610d3e836112d3565b8210610db25760405162461bcd60e51b815260206004820152602b60248201527f455243373231456e756d657261626c653a206f776e657220696e646578206f7560448201527f74206f6620626f756e647300000000000000000000000000000000000000000060648201526084016108d9565b506001600160a01b03919091166000908152600660209081526040808320938352929052205490565b600c546001600160a01b03163314610e235760405162461bcd60e51b8152602060048201819052602482015260008051602061341a83398151915260448201526064016108d9565b6002600e541415610e765760405162461bcd60e51b815260206004820152601f60248201527f5265656e7472616e637947756172643a207265656e7472616e742063616c6c0060448201526064016108d9565b6002600e554780610ec95760405162461bcd60e51b815260206004820152601a60248201527f4e6f206574686572206c65667420746f2077697468647261772e00000000000060448201526064016108d9565b60175460009061010090046001600160a01b03166064610eea47600a6132c9565b610ef491906132b5565b604051600081818185875af1925050503d8060008114610f30576040519150601f19603f3d011682016040523d82523d6000602084013e610f35565b606091505b5050905080610f865760405162461bcd60e51b815260206004820152601860248201527f43686172697479205472616e73666572206661696c65642e000000000000000060448201526064016108d9565b6018546000906001600160a01b03166064610fa24760056132c9565b610fac91906132b5565b604051600081818185875af1925050503d8060008114610fe8576040519150601f19603f3d011682016040523d82523d6000602084013e610fed565b606091505b505090508061103e5760405162461bcd60e51b815260206004820152601a60248201527f446576656c6f706572205472616e73666572206661696c65642e00000000000060448201526064016108d9565b604051600090339047908381818185875af1925050503d8060008114611080576040519150601f19603f3d011682016040523d82523d6000602084013e611085565b606091505b50509050806110d65760405162461bcd60e51b815260206004820152601060248201527f5472616e73666572206661696c65642e0000000000000000000000000000000060448201526064016108d9565b50506001600e555050565b610b9f83838360405180602001604052806000815250611773565b600c546001600160a01b031633146111445760405162461bcd60e51b8152602060048201819052602482015260008051602061341a83398151915260448201526064016108d9565b601555565b600061115460085490565b82106111c85760405162461bcd60e51b815260206004820152602c60248201527f455243373231456e756d657261626c653a20676c6f62616c20696e646578206f60448201527f7574206f6620626f756e6473000000000000000000000000000000000000000060648201526084016108d9565b600882815481106111db576111db6133d7565b90600052602060002001549050919050565b600c546001600160a01b031633146112355760405162461bcd60e51b8152602060048201819052602482015260008051602061341a83398151915260448201526064016108d9565b805161094790600f906020840190612cd9565b6000818152600260205260408120546001600160a01b03168061088f5760405162461bcd60e51b815260206004820152602960248201527f4552433732313a206f776e657220717565727920666f72206e6f6e657869737460448201527f656e7420746f6b656e000000000000000000000000000000000000000000000060648201526084016108d9565b60006001600160a01b0382166113515760405162461bcd60e51b815260206004820152602a60248201527f4552433732313a2062616c616e636520717565727920666f7220746865207a6560448201527f726f20616464726573730000000000000000000000000000000000000000000060648201526084016108d9565b506001600160a01b031660009081526003602052604090205490565b600c546001600160a01b031633146113b55760405162461bcd60e51b8152602060048201819052602482015260008051602061341a83398151915260448201526064016108d9565b6113bf600061205a565b565b601280546113ce9061332b565b80601f01602080910402602001604051908101604052809291908181526020018280546113fa9061332b565b80156114475780601f1061141c57610100808354040283529160200191611447565b820191906000526020600020905b81548152906001019060200180831161142a57829003601f168201915b505050505081565b600c546001600160a01b031633146114975760405162461bcd60e51b8152602060048201819052602482015260008051602061341a83398151915260448201526064016108d9565b601655565b606060006114a9836112d3565b905060008167ffffffffffffffff8111156114c6576114c66133ed565b6040519080825280602002602001820160405280156114ef578160200160208202803683370190505b50905060005b82811015611536576115078582610d33565b828281518110611519576115196133d7565b60209081029190910101528061152e81613366565b9150506114f5565b509392505050565b60606001805461095a9061332b565b60105460ff16156115a05760405162461bcd60e51b815260206004820152601660248201527f54686520636f6e7472616374206973207061757365640000000000000000000060448201526064016108d9565b60006115ab60085490565b9050600082116115fd5760405162461bcd60e51b815260206004820152601260248201527f6d696e742061746c656173742031204e4654000000000000000000000000000060448201526064016108d9565b60145461160a838361329d565b11156116585760405162461bcd60e51b815260206004820152601660248201527f6d6178204e4654206c696d69742065786365656465640000000000000000000060448201526064016108d9565b6000611664838361329d565b90508260155461167491906132c9565b3410156116c35760405162461bcd60e51b815260206004820152601260248201527f696e73756666696369656e742066756e6473000000000000000000000000000060448201526064016108d9565b6116cd33826120b9565b610b9f81600f6116e9601354856116e491906132e8565b6120d3565b60116040516020016116fd939291906131d7565b604051602081830303815290604052612205565b6109473383836122ae565b600c546001600160a01b031633146117645760405162461bcd60e51b8152602060048201819052602482015260008051602061341a83398151915260448201526064016108d9565b6017805460ff19166001179055565b61177d3383611d7e565b6117ef5760405162461bcd60e51b815260206004820152603160248201527f4552433732313a207472616e736665722063616c6c6572206973206e6f74206f60448201527f776e6572206e6f7220617070726f76656400000000000000000000000000000060648201526084016108d9565b6117fb8484848461237d565b50505050565b601180546113ce9061332b565b6000818152600260205260409020546060906001600160a01b031661189b5760405162461bcd60e51b815260206004820152603160248201527f45524337323155524953746f726167653a2055524920717565727920666f722060448201527f6e6f6e6578697374656e7420746f6b656e00000000000000000000000000000060648201526084016108d9565b60175460ff161580156118af575060135482115b1561194657601280546118c19061332b565b80601f01602080910402602001604051908101604052809291908181526020018280546118ed9061332b565b801561193a5780601f1061190f5761010080835404028352916020019161193a565b820191906000526020600020905b81548152906001019060200180831161191d57829003601f168201915b50505050509050919050565b61088f826123fb565b600f80546113ce9061332b565b600c546001600160a01b031633146119a45760405162461bcd60e51b8152602060048201819052602482015260008051602061341a83398151915260448201526064016108d9565b8051610947906011906020840190612cd9565b600c546001600160a01b031633146119ff5760405162461bcd60e51b8152602060048201819052602482015260008051602061341a83398151915260448201526064016108d9565b60145460085414611a785760405162461bcd60e51b815260206004820152602960248201527f50726576696f75732064726f702073616c657320686173206e6f742066696e6960448201527f73686564207965742e000000000000000000000000000000000000000000000060648201526084016108d9565b60148054601355829055611a8b816111ed565b50506017805460ff19169055565b600c546001600160a01b03163314611ae15760405162461bcd60e51b8152602060048201819052602482015260008051602061341a83398151915260448201526064016108d9565b8051610947906012906020840190612cd9565b600c546001600160a01b03163314611b3c5760405162461bcd60e51b8152602060048201819052602482015260008051602061341a83398151915260448201526064016108d9565b6001600160a01b038116611bb85760405162461bcd60e51b815260206004820152602660248201527f4f776e61626c653a206e6577206f776e657220697320746865207a65726f206160448201527f646472657373000000000000000000000000000000000000000000000000000060648201526084016108d9565b611bc18161205a565b50565b60006001600160e01b0319821663152a902d60e11b148061088f575061088f82612586565b6127106bffffffffffffffffffffffff82161115611c6f5760405162461bcd60e51b815260206004820152602a60248201527f455243323938313a20726f79616c7479206665652077696c6c2065786365656460448201527f2073616c6550726963650000000000000000000000000000000000000000000060648201526084016108d9565b6001600160a01b038216611cc55760405162461bcd60e51b815260206004820152601960248201527f455243323938313a20696e76616c69642072656365697665720000000000000060448201526064016108d9565b604080518082019091526001600160a01b039092168083526bffffffffffffffffffffffff9091166020909201829052600160a01b90910217600a55565b6000818152600460205260409020805473ffffffffffffffffffffffffffffffffffffffff19166001600160a01b0384169081179091558190611d4582611248565b6001600160a01b03167f8c5be1e5ebec7d5bd14f71427d1e84f3dd0314c0f7b2291e5b200ac8c7c3b92560405160405180910390a45050565b6000818152600260205260408120546001600160a01b0316611df75760405162461bcd60e51b815260206004820152602c60248201527f4552433732313a206f70657261746f7220717565727920666f72206e6f6e657860448201526b34b9ba32b73a103a37b5b2b760a11b60648201526084016108d9565b6000611e0283611248565b9050806001600160a01b0316846001600160a01b03161480611e3d5750836001600160a01b0316611e32846109dd565b6001600160a01b0316145b80611e6d57506001600160a01b0380821660009081526005602090815260408083209388168352929052205460ff165b949350505050565b826001600160a01b0316611e8882611248565b6001600160a01b031614611f045760405162461bcd60e51b815260206004820152602560248201527f4552433732313a207472616e736665722066726f6d20696e636f72726563742060448201527f6f776e657200000000000000000000000000000000000000000000000000000060648201526084016108d9565b6001600160a01b038216611f7f5760405162461bcd60e51b8152602060048201526024808201527f4552433732313a207472616e7366657220746f20746865207a65726f2061646460448201527f726573730000000000000000000000000000000000000000000000000000000060648201526084016108d9565b611f8a8383836125c4565b611f95600082611d03565b6001600160a01b0383166000908152600360205260408120805460019290611fbe9084906132e8565b90915550506001600160a01b0382166000908152600360205260408120805460019290611fec90849061329d565b9091555050600081815260026020526040808220805473ffffffffffffffffffffffffffffffffffffffff19166001600160a01b0386811691821790925591518493918716917fddf252ad1be2c89b69c2b068fc378daa952ba7f163c4a11628f55a4df523b3ef91a4505050565b600c80546001600160a01b0383811673ffffffffffffffffffffffffffffffffffffffff19831681179093556040519116919082907f8be0079c531659141344cd1fd0a4f28419497f9722a3daafe3b4186f6b6457e090600090a35050565b6109478282604051806020016040528060008152506125cf565b60608161211357505060408051808201909152600181527f3000000000000000000000000000000000000000000000000000000000000000602082015290565b8160005b811561213d578061212781613366565b91506121369050600a836132b5565b9150612117565b60008167ffffffffffffffff811115612158576121586133ed565b6040519080825280601f01601f191660200182016040528015612182576020820181803683370190505b5090505b8415611e6d576121976001836132e8565b91506121a4600a86613381565b6121af90603061329d565b60f81b8183815181106121c4576121c46133d7565b60200101907effffffffffffffffffffffffffffffffffffffffffffffffffffffffffffff1916908160001a9053506121fe600a866132b5565b9450612186565b6000828152600260205260409020546001600160a01b031661228f5760405162461bcd60e51b815260206004820152602e60248201527f45524337323155524953746f726167653a2055524920736574206f66206e6f6e60448201527f6578697374656e7420746f6b656e00000000000000000000000000000000000060648201526084016108d9565b6000828152600d602090815260409091208251610b9f92840190612cd9565b816001600160a01b0316836001600160a01b031614156123105760405162461bcd60e51b815260206004820152601960248201527f4552433732313a20617070726f766520746f2063616c6c65720000000000000060448201526064016108d9565b6001600160a01b03838116600081815260056020908152604080832094871680845294825291829020805460ff191686151590811790915591519182527f17307eab39ab6107e8899845ad3d59bd9653f200f220920489ca2b5937696c31910160405180910390a3505050565b612388848484611e75565b6123948484848461264d565b6117fb5760405162461bcd60e51b815260206004820152603260248201527f4552433732313a207472616e7366657220746f206e6f6e20455243373231526560448201527131b2b4bb32b91034b6b83632b6b2b73a32b960711b60648201526084016108d9565b6000818152600260205260409020546060906001600160a01b03166124885760405162461bcd60e51b815260206004820152603160248201527f45524337323155524953746f726167653a2055524920717565727920666f722060448201527f6e6f6e6578697374656e7420746f6b656e00000000000000000000000000000060648201526084016108d9565b6000828152600d6020526040812080546124a19061332b565b80601f01602080910402602001604051908101604052809291908181526020018280546124cd9061332b565b801561251a5780601f106124ef5761010080835404028352916020019161251a565b820191906000526020600020905b8154815290600101906020018083116124fd57829003601f168201915b50505050509050600061253860408051602081019091526000815290565b905080516000141561254b575092915050565b81511561257d5780826040516020016125659291906131a8565b60405160208183030381529060405292505050919050565b611e6d846127a5565b60006001600160e01b031982167f780e9d6300000000000000000000000000000000000000000000000000000000148061088f575061088f8261289b565b610b9f838383612936565b6125d983836129ee565b6125e6600084848461264d565b610b9f5760405162461bcd60e51b815260206004820152603260248201527f4552433732313a207472616e7366657220746f206e6f6e20455243373231526560448201527131b2b4bb32b91034b6b83632b6b2b73a32b960711b60648201526084016108d9565b60006001600160a01b0384163b1561279a57604051630a85bd0160e11b81526001600160a01b0385169063150b7a029061269190339089908890889060040161320a565b602060405180830381600087803b1580156126ab57600080fd5b505af19250505080156126db575060408051601f3d908101601f191682019092526126d89181019061300e565b60015b612780573d808015612709576040519150601f19603f3d011682016040523d82523d6000602084013e61270e565b606091505b5080516127785760405162461bcd60e51b815260206004820152603260248201527f4552433732313a207472616e7366657220746f206e6f6e20455243373231526560448201527131b2b4bb32b91034b6b83632b6b2b73a32b960711b60648201526084016108d9565b805181602001fd5b6001600160e01b031916630a85bd0160e11b149050611e6d565b506001949350505050565b6000818152600260205260409020546060906001600160a01b03166128325760405162461bcd60e51b815260206004820152602f60248201527f4552433732314d657461646174613a2055524920717565727920666f72206e6f60448201527f6e6578697374656e7420746f6b656e000000000000000000000000000000000060648201526084016108d9565b600061284960408051602081019091526000815290565b905060008151116128695760405180602001604052806000815250612894565b80612873846120d3565b6040516020016128849291906131a8565b6040516020818303038152906040525b9392505050565b60006001600160e01b031982167f80ac58cd0000000000000000000000000000000000000000000000000000000014806128fe57506001600160e01b031982167f5b5e139f00000000000000000000000000000000000000000000000000000000145b8061088f57507f01ffc9a7000000000000000000000000000000000000000000000000000000006001600160e01b031983161461088f565b6001600160a01b0383166129915761298c81600880546000838152600960205260408120829055600182018355919091527ff3f7a9fe364faab93b216da50a3214154f22a0a2b415b23a84c8169e8b636ee30155565b6129b4565b816001600160a01b0316836001600160a01b0316146129b4576129b48382612b49565b6001600160a01b0382166129cb57610b9f81612be6565b826001600160a01b0316826001600160a01b031614610b9f57610b9f8282612c95565b6001600160a01b038216612a445760405162461bcd60e51b815260206004820181905260248201527f4552433732313a206d696e7420746f20746865207a65726f206164647265737360448201526064016108d9565b6000818152600260205260409020546001600160a01b031615612aa95760405162461bcd60e51b815260206004820152601c60248201527f4552433732313a20746f6b656e20616c7265616479206d696e7465640000000060448201526064016108d9565b612ab5600083836125c4565b6001600160a01b0382166000908152600360205260408120805460019290612ade90849061329d565b9091555050600081815260026020526040808220805473ffffffffffffffffffffffffffffffffffffffff19166001600160a01b03861690811790915590518392907fddf252ad1be2c89b69c2b068fc378daa952ba7f163c4a11628f55a4df523b3ef908290a45050565b60006001612b56846112d3565b612b6091906132e8565b600083815260076020526040902054909150808214612bb3576001600160a01b03841660009081526006602090815260408083208584528252808320548484528184208190558352600790915290208190555b5060009182526007602090815260408084208490556001600160a01b039094168352600681528383209183525290812055565b600854600090612bf8906001906132e8565b60008381526009602052604081205460088054939450909284908110612c2057612c206133d7565b906000526020600020015490508060088381548110612c4157612c416133d7565b6000918252602080832090910192909255828152600990915260408082208490558582528120556008805480612c7957612c796133c1565b6001900381819060005260206000200160009055905550505050565b6000612ca0836112d3565b6001600160a01b039093166000908152600660209081526040808320868452825280832085905593825260079052919091209190915550565b828054612ce59061332b565b90600052602060002090601f016020900481019282612d075760008555612d4d565b82601f10612d2057805160ff1916838001178555612d4d565b82800160010185558215612d4d579182015b82811115612d4d578251825591602001919060010190612d32565b50612d59929150612d5d565b5090565b5b80821115612d595760008155600101612d5e565b600067ffffffffffffffff80841115612d8d57612d8d6133ed565b604051601f8501601f19908116603f01168101908282118183101715612db557612db56133ed565b81604052809350858152868686011115612dce57600080fd5b858560208301376000602087830101525050509392505050565b80356001600160a01b0381168114612dff57600080fd5b919050565b80358015158114612dff57600080fd5b600082601f830112612e2557600080fd5b61289483833560208501612d72565b600060208284031215612e4657600080fd5b61289482612de8565b60008060408385031215612e6257600080fd5b612e6b83612de8565b9150612e7960208401612de8565b90509250929050565b600080600060608486031215612e9757600080fd5b612ea084612de8565b9250612eae60208501612de8565b9150604084013590509250925092565b60008060008060808587031215612ed457600080fd5b612edd85612de8565b9350612eeb60208601612de8565b925060408501359150606085013567ffffffffffffffff811115612f0e57600080fd5b8501601f81018713612f1f57600080fd5b612f2e87823560208401612d72565b91505092959194509250565b60008060408385031215612f4d57600080fd5b612f5683612de8565b9150612e7960208401612e04565b60008060408385031215612f7757600080fd5b612f8083612de8565b946020939093013593505050565b60008060408385031215612fa157600080fd5b612faa83612de8565b915060208301356bffffffffffffffffffffffff81168114612fcb57600080fd5b809150509250929050565b600060208284031215612fe857600080fd5b61289482612e04565b60006020828403121561300357600080fd5b813561289481613403565b60006020828403121561302057600080fd5b815161289481613403565b60006020828403121561303d57600080fd5b813567ffffffffffffffff81111561305457600080fd5b611e6d84828501612e14565b60006020828403121561307257600080fd5b5035919050565b6000806040838503121561308c57600080fd5b82359150602083013567ffffffffffffffff8111156130aa57600080fd5b6130b685828601612e14565b9150509250929050565b600080604083850312156130d357600080fd5b50508035926020909101359150565b600081518084526130fa8160208601602086016132ff565b601f01601f19169290920160200192915050565b8054600090600181811c908083168061312857607f831692505b602080841082141561314a57634e487b7160e01b600052602260045260246000fd5b81801561315e576001811461316f5761319c565b60ff1986168952848901965061319c565b60008881526020902060005b868110156131945781548b82015290850190830161317b565b505084890196505b50505050505092915050565b600083516131ba8184602088016132ff565b8351908301906131ce8183602088016132ff565b01949350505050565b60006131e3828661310e565b84516131f38183602089016132ff565b6131ff8183018661310e565b979650505050505050565b60006001600160a01b0380871683528086166020840152508360408301526080606083015261323c60808301846130e2565b9695505050505050565b6020808252825182820181905260009190848201906040850190845b8181101561327e57835183529284019291840191600101613262565b50909695505050505050565b60208152600061289460208301846130e2565b600082198211156132b0576132b0613395565b500190565b6000826132c4576132c46133ab565b500490565b60008160001904831182151516156132e3576132e3613395565b500290565b6000828210156132fa576132fa613395565b500390565b60005b8381101561331a578181015183820152602001613302565b838111156117fb5750506000910152565b600181811c9082168061333f57607f821691505b6020821081141561336057634e487b7160e01b600052602260045260246000fd5b50919050565b600060001982141561337a5761337a613395565b5060010190565b600082613390576133906133ab565b500690565b634e487b7160e01b600052601160045260246000fd5b634e487b7160e01b600052601260045260246000fd5b634e487b7160e01b600052603160045260246000fd5b634e487b7160e01b600052603260045260246000fd5b634e487b7160e01b600052604160045260246000fd5b6001600160e01b031981168114611bc157600080fdfe4f776e61626c653a2063616c6c6572206973206e6f7420746865206f776e6572a26469706673582212203bd44045ee9feacf3d3529662dab4ef4eb4867a09bed98d09cbc578628fc1d2d64736f6c634300080700334f776e61626c653a2063616c6c6572206973206e6f7420746865206f776e6572",
  "linkReferences": {},
  "deployedLinkReferences": {}
}