{
  "_format": "hh-sol-artifact-1",
  "contractName": "ResearchFundingClubOld",
  "sourceName": "contracts/obsolete/ResearchFundingClub.sol",
  "abi": [
    {
      "inputs": [
        {
          "internalType": "uint96",
          "name": "_royaltyFeesInBips",
          "type": "uint96"
        },
        {
          "internalType": "string",
          "name": "baseURI",
          "type": "string"
        }
      ],
      "stateMutability": "nonpayable",
      "type": "constructor"
    },
    {
      "anonymous": false,
      "inputs": [
        {
          "indexed": true,
          "internalType": "address",
          "name": "owner",
          "type": "address"
        },
        {
          "indexed": true,
          "internalType": "address",
          "name": "approved",
          "type": "address"
        },
        {
          "indexed": true,
          "internalType": "uint256",
          "name": "tokenId",
          "type": "uint256"
        }
      ],
      "name": "Approval",
      "type": "event"
    },
    {
      "anonymous": false,
      "inputs": [
        {
          "indexed": true,
          "internalType": "address",
          "name": "owner",
          "type": "address"
        },
        {
          "indexed": true,
          "internalType": "address",
          "name": "operator",
          "type": "address"
        },
        {
          "indexed": false,
          "internalType": "bool",
          "name": "approved",
          "type": "bool"
        }
      ],
      "name": "ApprovalForAll",
      "type": "event"
    },
    {
      "anonymous": false,
      "inputs": [
        {
          "indexed": true,
          "internalType": "address",
          "name": "previousOwner",
          "type": "address"
        },
        {
          "indexed": true,
          "internalType": "address",
          "name": "newOwner",
          "type": "address"
        }
      ],
      "name": "OwnershipTransferred",
      "type": "event"
    },
    {
      "anonymous": false,
      "inputs": [
        {
          "indexed": true,
          "internalType": "address",
          "name": "from",
          "type": "address"
        },
        {
          "indexed": true,
          "internalType": "address",
          "name": "to",
          "type": "address"
        },
        {
          "indexed": true,
          "internalType": "uint256",
          "name": "tokenId",
          "type": "uint256"
        }
      ],
      "name": "Transfer",
      "type": "event"
    },
    {
      "inputs": [],
      "name": "MAX_PER_MINT",
      "outputs": [
        {
          "internalType": "uint256",
          "name": "",
          "type": "uint256"
        }
      ],
      "stateMutability": "view",
      "type": "function"
    },
    {
      "inputs": [],
      "name": "MAX_SUPPLY",
      "outputs": [
        {
          "internalType": "uint256",
          "name": "",
          "type": "uint256"
        }
      ],
      "stateMutability": "view",
      "type": "function"
    },
    {
      "inputs": [],
      "name": "MIN_SUPPLY",
      "outputs": [
        {
          "internalType": "uint256",
          "name": "",
          "type": "uint256"
        }
      ],
      "stateMutability": "view",
      "type": "function"
    },
    {
      "inputs": [],
      "name": "PRICE",
      "outputs": [
        {
          "internalType": "uint256",
          "name": "",
          "type": "uint256"
        }
      ],
      "stateMutability": "view",
      "type": "function"
    },
    {
      "inputs": [
        {
          "internalType": "address",
          "name": "to",
          "type": "address"
        },
        {
          "internalType": "uint256",
          "name": "tokenId",
          "type": "uint256"
        }
      ],
      "name": "approve",
      "outputs": [],
      "stateMutability": "nonpayable",
      "type": "function"
    },
    {
      "inputs": [
        {
          "internalType": "address",
          "name": "owner",
          "type": "address"
        }
      ],
      "name": "balanceOf",
      "outputs": [
        {
          "internalType": "uint256",
          "name": "",
          "type": "uint256"
        }
      ],
      "stateMutability": "view",
      "type": "function"
    },
    {
      "inputs": [],
      "name": "baseExtension",
      "outputs": [
        {
          "internalType": "string",
          "name": "",
          "type": "string"
        }
      ],
      "stateMutability": "view",
      "type": "function"
    },
    {
      "inputs": [],
      "name": "baseTokenURI",
      "outputs": [
        {
          "internalType": "string",
          "name": "",
          "type": "string"
        }
      ],
      "stateMutability": "view",
      "type": "function"
    },
    {
      "inputs": [],
      "name": "charityWallet",
      "outputs": [
        {
          "internalType": "address",
          "name": "",
          "type": "address"
        }
      ],
      "stateMutability": "view",
      "type": "function"
    },
    {
      "inputs": [],
      "name": "devWallet",
      "outputs": [
        {
          "internalType": "address",
          "name": "",
          "type": "address"
        }
      ],
      "stateMutability": "view",
      "type": "function"
    },
    {
      "inputs": [
        {
          "internalType": "uint256",
          "name": "tokenId",
          "type": "uint256"
        }
      ],
      "name": "getApproved",
      "outputs": [
        {
          "internalType": "address",
          "name": "",
          "type": "address"
        }
      ],
      "stateMutability": "view",
      "type": "function"
    },
    {
      "inputs": [
        {
          "internalType": "address",
          "name": "owner",
          "type": "address"
        },
        {
          "internalType": "address",
          "name": "operator",
          "type": "address"
        }
      ],
      "name": "isApprovedForAll",
      "outputs": [
        {
          "internalType": "bool",
          "name": "",
          "type": "bool"
        }
      ],
      "stateMutability": "view",
      "type": "function"
    },
    {
      "inputs": [
        {
          "internalType": "uint256",
          "name": "_mintAmount",
          "type": "uint256"
        }
      ],
      "name": "mint",
      "outputs": [],
      "stateMutability": "payable",
      "type": "function"
    },
    {
      "inputs": [],
      "name": "name",
      "outputs": [
        {
          "internalType": "string",
          "name": "",
          "type": "string"
        }
      ],
      "stateMutability": "view",
      "type": "function"
    },
    {
      "inputs": [
        {
          "internalType": "uint256",
          "name": "_newMaxSupply",
          "type": "uint256"
        },
        {
          "internalType": "string",
          "name": "_newBaseURI",
          "type": "string"
        }
      ],
      "name": "newDrop",
      "outputs": [],
      "stateMutability": "nonpayable",
      "type": "function"
    },
    {
      "inputs": [],
      "name": "notRevealedURI",
      "outputs": [
        {
          "internalType": "string",
          "name": "",
          "type": "string"
        }
      ],
      "stateMutability": "view",
      "type": "function"
    },
    {
      "inputs": [],
      "name": "owner",
      "outputs": [
        {
          "internalType": "address",
          "name": "",
          "type": "address"
        }
      ],
      "stateMutability": "view",
      "type": "function"
    },
    {
      "inputs": [
        {
          "internalType": "uint256",
          "name": "tokenId",
          "type": "uint256"
        }
      ],
      "name": "ownerOf",
      "outputs": [
        {
          "internalType": "address",
          "name": "",
          "type": "address"
        }
      ],
      "stateMutability": "view",
      "type": "function"
    },
    {
      "inputs": [
        {
          "internalType": "bool",
          "name": "_state",
          "type": "bool"
        }
      ],
      "name": "pause",
      "outputs": [],
      "stateMutability": "nonpayable",
      "type": "function"
    },
    {
      "inputs": [],
      "name": "paused",
      "outputs": [
        {
          "internalType": "bool",
          "name": "",
          "type": "bool"
        }
      ],
      "stateMutability": "view",
      "type": "function"
    },
    {
      "inputs": [],
      "name": "renounceOwnership",
      "outputs": [],
      "stateMutability": "nonpayable",
      "type": "function"
    },
    {
      "inputs": [],
      "name": "reveal",
      "outputs": [],
      "stateMutability": "nonpayable",
      "type": "function"
    },
    {
      "inputs": [],
      "name": "revealed",
      "outputs": [
        {
          "internalType": "bool",
          "name": "",
          "type": "bool"
        }
      ],
      "stateMutability": "view",
      "type": "function"
    },
    {
      "inputs": [
        {
          "internalType": "uint256",
          "name": "_tokenId",
          "type": "uint256"
        },
        {
          "internalType": "uint256",
          "name": "_salePrice",
          "type": "uint256"
        }
      ],
      "name": "royaltyInfo",
      "outputs": [
        {
          "internalType": "address",
          "name": "",
          "type": "address"
        },
        {
          "internalType": "uint256",
          "name": "",
          "type": "uint256"
        }
      ],
      "stateMutability": "view",
      "type": "function"
    },
    {
      "inputs": [
        {
          "internalType": "address",
          "name": "from",
          "type": "address"
        },
        {
          "internalType": "address",
          "name": "to",
          "type": "address"
        },
        {
          "internalType": "uint256",
          "name": "tokenId",
          "type": "uint256"
        }
      ],
      "name": "safeTransferFrom",
      "outputs": [],
      "stateMutability": "nonpayable",
      "type": "function"
    },
    {
      "inputs": [
        {
          "internalType": "address",
          "name": "from",
          "type": "address"
        },
        {
          "internalType": "address",
          "name": "to",
          "type": "address"
        },
        {
          "internalType": "uint256",
          "name": "tokenId",
          "type": "uint256"
        },
        {
          "internalType": "bytes",
          "name": "_data",
          "type": "bytes"
        }
      ],
      "name": "safeTransferFrom",
      "outputs": [],
      "stateMutability": "nonpayable",
      "type": "function"
    },
    {
      "inputs": [
        {
          "internalType": "address",
          "name": "operator",
          "type": "address"
        },
        {
          "internalType": "bool",
          "name": "approved",
          "type": "bool"
        }
      ],
      "name": "setApprovalForAll",
      "outputs": [],
      "stateMutability": "nonpayable",
      "type": "function"
    },
    {
      "inputs": [
        {
          "internalType": "string",
          "name": "_newBaseExtension",
          "type": "string"
        }
      ],
      "name": "setBaseExtension",
      "outputs": [],
      "stateMutability": "nonpayable",
      "type": "function"
    },
    {
      "inputs": [
        {
          "internalType": "string",
          "name": "_baseTokenURI",
          "type": "string"
        }
      ],
      "name": "setBaseURI",
      "outputs": [],
      "stateMutability": "nonpayable",
      "type": "function"
    },
    {
      "inputs": [
        {
          "internalType": "uint256",
          "name": "_newCost",
          "type": "uint256"
        }
      ],
      "name": "setCost",
      "outputs": [],
      "stateMutability": "nonpayable",
      "type": "function"
    },
    {
      "inputs": [
        {
          "internalType": "string",
          "name": "_notRevealedURI",
          "type": "string"
        }
      ],
      "name": "setNotRevealedURI",
      "outputs": [],
      "stateMutability": "nonpayable",
      "type": "function"
    },
    {
      "inputs": [
        {
          "internalType": "address",
          "name": "_receiver",
          "type": "address"
        },
        {
          "internalType": "uint96",
          "name": "_royaltyFeesInBips",
          "type": "uint96"
        }
      ],
      "name": "setRoyaltyInfo",
      "outputs": [],
      "stateMutability": "nonpayable",
      "type": "function"
    },
    {
      "inputs": [
        {
          "internalType": "uint256",
          "name": "_limit",
          "type": "uint256"
        }
      ],
      "name": "setmaxMintAmount",
      "outputs": [],
      "stateMutability": "nonpayable",
      "type": "function"
    },
    {
      "inputs": [
        {
          "internalType": "uint256",
          "name": "_limit",
          "type": "uint256"
        }
      ],
      "name": "setmaxSupply",
      "outputs": [],
      "stateMutability": "nonpayable",
      "type": "function"
    },
    {
      "inputs": [
        {
          "internalType": "bytes4",
          "name": "interfaceId",
          "type": "bytes4"
        }
      ],
      "name": "supportsInterface",
      "outputs": [
        {
          "internalType": "bool",
          "name": "",
          "type": "bool"
        }
      ],
      "stateMutability": "view",
      "type": "function"
    },
    {
      "inputs": [],
      "name": "symbol",
      "outputs": [
        {
          "internalType": "string",
          "name": "",
          "type": "string"
        }
      ],
      "stateMutability": "view",
      "type": "function"
    },
    {
      "inputs": [
        {
          "internalType": "uint256",
          "name": "index",
          "type": "uint256"
        }
      ],
      "name": "tokenByIndex",
      "outputs": [
        {
          "internalType": "uint256",
          "name": "",
          "type": "uint256"
        }
      ],
      "stateMutability": "view",
      "type": "function"
    },
    {
      "inputs": [
        {
          "internalType": "address",
          "name": "owner",
          "type": "address"
        },
        {
          "internalType": "uint256",
          "name": "index",
          "type": "uint256"
        }
      ],
      "name": "tokenOfOwnerByIndex",
      "outputs": [
        {
          "internalType": "uint256",
          "name": "",
          "type": "uint256"
        }
      ],
      "stateMutability": "view",
      "type": "function"
    },
    {
      "inputs": [
        {
          "internalType": "uint256",
          "name": "tokenId",
          "type": "uint256"
        }
      ],
      "name": "tokenURI",
      "outputs": [
        {
          "internalType": "string",
          "name": "",
          "type": "string"
        }
      ],
      "stateMutability": "view",
      "type": "function"
    },
    {
      "inputs": [
        {
          "internalType": "address",
          "name": "_owner",
          "type": "address"
        }
      ],
      "name": "tokensOfOwner",
      "outputs": [
        {
          "internalType": "uint256[]",
          "name": "",
          "type": "uint256[]"
        }
      ],
      "stateMutability": "view",
      "type": "function"
    },
    {
      "inputs": [],
      "name": "totalSupply",
      "outputs": [
        {
          "internalType": "uint256",
          "name": "",
          "type": "uint256"
        }
      ],
      "stateMutability": "view",
      "type": "function"
    },
    {
      "inputs": [
        {
          "internalType": "address",
          "name": "from",
          "type": "address"
        },
        {
          "internalType": "address",
          "name": "to",
          "type": "address"
        },
        {
          "internalType": "uint256",
          "name": "tokenId",
          "type": "uint256"
        }
      ],
      "name": "transferFrom",
      "outputs": [],
      "stateMutability": "nonpayable",
      "type": "function"
    },
    {
      "inputs": [
        {
          "internalType": "address",
          "name": "newOwner",
          "type": "address"
        }
      ],
      "name": "transferOwnership",
      "outputs": [],
      "stateMutability": "nonpayable",
      "type": "function"
    },
    {
      "inputs": [],
      "name": "withdraw",
      "outputs": [],
      "stateMutability": "nonpayable",
      "type": "function"
    }
  ],
  "bytecode": "0x6010805460ff1916905560c06040526005608081905264173539b7b760d91b60a0908152620000329160119190620003e4565b506040805180820190915260108082526f1b9bdd081c995d99585b1959081e595d60821b60209092019182526200006c91601291620003e4565b506000601355600a601455655af3107a4000601555600160165560178054747158d45648167222c89351cebf618f413bad08fb006001600160a81b0319909116179055601880546001600160a01b031916736ed651a23d8a35d07baadf816bfd8f5d78d43a64179055348015620000e257600080fd5b50604051620038833803806200388383398101604081905262000105916200048a565b604080518082018252601581527f52657365617263682046756e64696e6720436c7562000000000000000000000060208083019182528351808501909452600384526252464360e81b9084015281519192916200016591600091620003e4565b5080516200017b906001906020840190620003e4565b5050506200019862000192620001ce60201b60201c565b620001d2565b6001600e55620001bb620001b4600c546001600160a01b031690565b8362000224565b620001c68162000283565b5050620005dd565b3390565b600c80546001600160a01b038381166001600160a01b0319831681179093556040519116919082907f8be0079c531659141344cd1fd0a4f28419497f9722a3daafe3b4186f6b6457e090600090a35050565b600c546001600160a01b03163314620002735760405162461bcd60e51b815260206004820181905260248201526000805160206200386383398151915260448201526064015b60405180910390fd5b6200027f8282620002e3565b5050565b600c546001600160a01b03163314620002ce5760405162461bcd60e51b815260206004820181905260248201526000805160206200386383398151915260448201526064016200026a565b80516200027f90600f906020840190620003e4565b6127106001600160601b0382161115620003535760405162461bcd60e51b815260206004820152602a60248201527f455243323938313a20726f79616c7479206665652077696c6c206578636565646044820152692073616c65507269636560b01b60648201526084016200026a565b6001600160a01b038216620003ab5760405162461bcd60e51b815260206004820152601960248201527f455243323938313a20696e76616c69642072656365697665720000000000000060448201526064016200026a565b604080518082019091526001600160a01b039092168083526001600160601b039091166020909201829052600160a01b90910217600a55565b828054620003f2906200058a565b90600052602060002090601f01602090048101928262000416576000855562000461565b82601f106200043157805160ff191683800117855562000461565b8280016001018555821562000461579182015b828111156200046157825182559160200191906001019062000444565b506200046f92915062000473565b5090565b5b808211156200046f576000815560010162000474565b600080604083850312156200049e57600080fd5b82516001600160601b0381168114620004b657600080fd5b602084810151919350906001600160401b0380821115620004d657600080fd5b818601915086601f830112620004eb57600080fd5b815181811115620005005762000500620005c7565b604051601f8201601f19908116603f011681019083821181831017156200052b576200052b620005c7565b8160405282815289868487010111156200054457600080fd5b600093505b8284101562000568578484018601518185018701529285019262000549565b828411156200057a5760008684830101525b8096505050505050509250929050565b600181811c908216806200059f57607f821691505b60208210811415620005c157634e487b7160e01b600052602260045260246000fd5b50919050565b634e487b7160e01b600052604160045260246000fd5b61327680620005ed6000396000f3fe6080604052600436106102a75760003560e01c806370a0823111610164578063a22cb465116100c6578063d547cfb71161008a578063f1a91a6811610064578063f1a91a68146107ca578063f2c4ce1e146107ea578063f2fde38b1461080a57600080fd5b8063d547cfb71461074c578063da3ef23f14610761578063e985e9c51461078157600080fd5b8063a22cb465146106c2578063a475b5dd146106e2578063b88d4fde146106f7578063c668286214610717578063c87b56dd1461072c57600080fd5b80638462151c116101285780638ea5220f116101025780638ea5220f1461067a57806395d89b411461069a578063a0712d68146106af57600080fd5b80638462151c146106195780638d859f3e146106465780638da5cb5b1461065c57600080fd5b806370a082311461058a578063715018a6146105aa57806372250380146105bf5780637b208769146105d45780637f00c7a6146105f957600080fd5b80632f745c591161020d57806344a0d68a116101d157806355f804b3116101ab57806355f804b3146105305780635c975abb146105505780636352211e1461056a57600080fd5b806344a0d68a146104d65780634f6ccce7146104f6578063518302271461051657600080fd5b80632f745c591461045557806332cb6b0c1461047557806335917c641461048b5780633ccfd60b146104a157806342842e0e146104b657600080fd5b8063095ea7b31161026f578063228025e811610249578063228025e8146103d657806323b872dd146103f65780632a55205a1461041657600080fd5b8063095ea7b31461037d57806309d42b301461039d57806318160ddd146103c157600080fd5b806301ffc9a7146102ac57806302329a29146102e157806302fa7c471461030357806306fdde0314610323578063081812fc14610345575b600080fd5b3480156102b857600080fd5b506102cc6102c7366004612df8565b61082a565b60405190151581526020015b60405180910390f35b3480156102ed57600080fd5b506103016102fc366004612ddd565b610855565b005b34801561030f57600080fd5b5061030161031e366004612d95565b6108b5565b34801561032f57600080fd5b5061033861090b565b6040516102d89190613091565b34801561035157600080fd5b50610365610360366004612e67565b61099d565b6040516001600160a01b0390911681526020016102d8565b34801561038957600080fd5b50610301610398366004612d6b565b610a32565b3480156103a957600080fd5b506103b360165481565b6040519081526020016102d8565b3480156103cd57600080fd5b506008546103b3565b3480156103e257600080fd5b506103016103f1366004612e67565b610b48565b34801561040257600080fd5b50610301610411366004612c89565b610b95565b34801561042257600080fd5b50610436610431366004612ec7565b610c10565b604080516001600160a01b0390931683526020830191909152016102d8565b34801561046157600080fd5b506103b3610470366004612d6b565b610ccb565b34801561048157600080fd5b506103b360145481565b34801561049757600080fd5b506103b360135481565b3480156104ad57600080fd5b50610301610d61565b3480156104c257600080fd5b506103016104d1366004612c89565b611067565b3480156104e257600080fd5b506103016104f1366004612e67565b611082565b34801561050257600080fd5b506103b3610511366004612e67565b6110cf565b34801561052257600080fd5b506017546102cc9060ff1681565b34801561053c57600080fd5b5061030161054b366004612e32565b611162565b34801561055c57600080fd5b506010546102cc9060ff1681565b34801561057657600080fd5b50610365610585366004612e67565b6111bd565b34801561059657600080fd5b506103b36105a5366004612c3b565b611234565b3480156105b657600080fd5b506103016112bb565b3480156105cb57600080fd5b5061033861130f565b3480156105e057600080fd5b506017546103659061010090046001600160a01b031681565b34801561060557600080fd5b50610301610614366004612e67565b61139d565b34801561062557600080fd5b50610639610634366004612c3b565b6113ea565b6040516102d8919061304d565b34801561065257600080fd5b506103b360155481565b34801561066857600080fd5b50600c546001600160a01b0316610365565b34801561068657600080fd5b50601854610365906001600160a01b031681565b3480156106a657600080fd5b5061033861148c565b6103016106bd366004612e67565b61149b565b3480156106ce57600080fd5b506103016106dd366004612d41565b61165f565b3480156106ee57600080fd5b5061030161166a565b34801561070357600080fd5b50610301610712366004612cc5565b6116c1565b34801561072357600080fd5b50610338611743565b34801561073857600080fd5b50610338610747366004612e67565b611750565b34801561075857600080fd5b50610338611885565b34801561076d57600080fd5b5061030161077c366004612e32565b611892565b34801561078d57600080fd5b506102cc61079c366004612c56565b6001600160a01b03918216600090815260056020908152604080832093909416825291909152205460ff1690565b3480156107d657600080fd5b506103016107e5366004612e80565b6118ed565b3480156107f657600080fd5b50610301610805366004612e32565b6119bb565b34801561081657600080fd5b50610301610825366004612c3b565b611a16565b60006001600160e01b0319821663152a902d60e11b148061084f575061084f82611acf565b92915050565b600c546001600160a01b031633146108a25760405162461bcd60e51b8152602060048201819052602482015260008051602061322183398151915260448201526064015b60405180910390fd5b6010805460ff1916911515919091179055565b600c546001600160a01b031633146108fd5760405162461bcd60e51b815260206004820181905260248201526000805160206132218339815191526044820152606401610899565b6109078282611af4565b5050565b60606000805461091a90613132565b80601f016020809104026020016040519081016040528092919081815260200182805461094690613132565b80156109935780601f1061096857610100808354040283529160200191610993565b820191906000526020600020905b81548152906001019060200180831161097657829003601f168201915b5050505050905090565b6000818152600260205260408120546001600160a01b0316610a165760405162461bcd60e51b815260206004820152602c60248201527f4552433732313a20617070726f76656420717565727920666f72206e6f6e657860448201526b34b9ba32b73a103a37b5b2b760a11b6064820152608401610899565b506000908152600460205260409020546001600160a01b031690565b6000610a3d826111bd565b9050806001600160a01b0316836001600160a01b03161415610aab5760405162461bcd60e51b815260206004820152602160248201527f4552433732313a20617070726f76616c20746f2063757272656e74206f776e656044820152603960f91b6064820152608401610899565b336001600160a01b0382161480610ac75750610ac7813361079c565b610b395760405162461bcd60e51b815260206004820152603860248201527f4552433732313a20617070726f76652063616c6c6572206973206e6f74206f7760448201527f6e6572206e6f7220617070726f76656420666f7220616c6c00000000000000006064820152608401610899565b610b438383611bfb565b505050565b600c546001600160a01b03163314610b905760405162461bcd60e51b815260206004820181905260248201526000805160206132218339815191526044820152606401610899565b601455565b610b9f3382611c69565b610c055760405162461bcd60e51b815260206004820152603160248201527f4552433732313a207472616e736665722063616c6c6572206973206e6f74206f6044820152701ddb995c881b9bdc88185c1c1c9bdd9959607a1b6064820152608401610899565b610b43838383611d60565b6000828152600b602090815260408083208151808301909252546001600160a01b038116808352600160a01b9091046bffffffffffffffffffffffff16928201929092528291610c8f575060408051808201909152600a546001600160a01b0381168252600160a01b90046bffffffffffffffffffffffff1660208201525b602081015160009061271090610cb3906bffffffffffffffffffffffff16876130d0565b610cbd91906130bc565b915196919550909350505050565b6000610cd683611234565b8210610d385760405162461bcd60e51b815260206004820152602b60248201527f455243373231456e756d657261626c653a206f776e657220696e646578206f7560448201526a74206f6620626f756e647360a81b6064820152608401610899565b506001600160a01b03919091166000908152600660209081526040808320938352929052205490565b600c546001600160a01b03163314610da95760405162461bcd60e51b815260206004820181905260248201526000805160206132218339815191526044820152606401610899565b6002600e541415610dfc5760405162461bcd60e51b815260206004820152601f60248201527f5265656e7472616e637947756172643a207265656e7472616e742063616c6c006044820152606401610899565b6002600e554780610e4f5760405162461bcd60e51b815260206004820152601a60248201527f4e6f206574686572206c65667420746f2077697468647261772e0000000000006044820152606401610899565b60175460009061010090046001600160a01b03166064610e7047600a6130d0565b610e7a91906130bc565b604051600081818185875af1925050503d8060008114610eb6576040519150601f19603f3d011682016040523d82523d6000602084013e610ebb565b606091505b5050905080610f0c5760405162461bcd60e51b815260206004820152601860248201527f43686172697479205472616e73666572206661696c65642e00000000000000006044820152606401610899565b6018546000906001600160a01b03166064610f284760056130d0565b610f3291906130bc565b604051600081818185875af1925050503d8060008114610f6e576040519150601f19603f3d011682016040523d82523d6000602084013e610f73565b606091505b5050905080610fc45760405162461bcd60e51b815260206004820152601a60248201527f446576656c6f706572205472616e73666572206661696c65642e0000000000006044820152606401610899565b604051600090339047908381818185875af1925050503d8060008114611006576040519150601f19603f3d011682016040523d82523d6000602084013e61100b565b606091505b505090508061105c5760405162461bcd60e51b815260206004820152601060248201527f5472616e73666572206661696c65642e000000000000000000000000000000006044820152606401610899565b50506001600e555050565b610b43838383604051806020016040528060008152506116c1565b600c546001600160a01b031633146110ca5760405162461bcd60e51b815260206004820181905260248201526000805160206132218339815191526044820152606401610899565b601555565b60006110da60085490565b821061113d5760405162461bcd60e51b815260206004820152602c60248201527f455243373231456e756d657261626c653a20676c6f62616c20696e646578206f60448201526b7574206f6620626f756e647360a01b6064820152608401610899565b60088281548110611150576111506131de565b90600052602060002001549050919050565b600c546001600160a01b031633146111aa5760405162461bcd60e51b815260206004820181905260248201526000805160206132218339815191526044820152606401610899565b805161090790600f906020840190612ae0565b6000818152600260205260408120546001600160a01b03168061084f5760405162461bcd60e51b815260206004820152602960248201527f4552433732313a206f776e657220717565727920666f72206e6f6e657869737460448201526832b73a103a37b5b2b760b91b6064820152608401610899565b60006001600160a01b03821661129f5760405162461bcd60e51b815260206004820152602a60248201527f4552433732313a2062616c616e636520717565727920666f7220746865207a65604482015269726f206164647265737360b01b6064820152608401610899565b506001600160a01b031660009081526003602052604090205490565b600c546001600160a01b031633146113035760405162461bcd60e51b815260206004820181905260248201526000805160206132218339815191526044820152606401610899565b61130d6000611f07565b565b6012805461131c90613132565b80601f016020809104026020016040519081016040528092919081815260200182805461134890613132565b80156113955780601f1061136a57610100808354040283529160200191611395565b820191906000526020600020905b81548152906001019060200180831161137857829003601f168201915b505050505081565b600c546001600160a01b031633146113e55760405162461bcd60e51b815260206004820181905260248201526000805160206132218339815191526044820152606401610899565b601655565b606060006113f783611234565b905060008167ffffffffffffffff811115611414576114146131f4565b60405190808252806020026020018201604052801561143d578160200160208202803683370190505b50905060005b82811015611484576114558582610ccb565b828281518110611467576114676131de565b60209081029190910101528061147c8161316d565b915050611443565b509392505050565b60606001805461091a90613132565b60105460ff16156114ee5760405162461bcd60e51b815260206004820152601660248201527f54686520636f6e747261637420697320706175736564000000000000000000006044820152606401610899565b60006114f960085490565b90506000821161154b5760405162461bcd60e51b815260206004820152601260248201527f6d696e742061746c656173742031204e465400000000000000000000000000006044820152606401610899565b60145461155883836130a4565b11156115a65760405162461bcd60e51b815260206004820152601660248201527f6d6178204e4654206c696d6974206578636565646564000000000000000000006044820152606401610899565b60006115b283836130a4565b9050826015546115c291906130d0565b3410156116115760405162461bcd60e51b815260206004820152601260248201527f696e73756666696369656e742066756e647300000000000000000000000000006044820152606401610899565b61161b3382611f59565b610b4381600f6116376013548561163291906130ef565b611f73565b601160405160200161164b93929190612fde565b604051602081830303815290604052612089565b610907338383612132565b600c546001600160a01b031633146116b25760405162461bcd60e51b815260206004820181905260248201526000805160206132218339815191526044820152606401610899565b6017805460ff19166001179055565b6116cb3383611c69565b6117315760405162461bcd60e51b815260206004820152603160248201527f4552433732313a207472616e736665722063616c6c6572206973206e6f74206f6044820152701ddb995c881b9bdc88185c1c1c9bdd9959607a1b6064820152608401610899565b61173d84848484612201565b50505050565b6011805461131c90613132565b6000818152600260205260409020546060906001600160a01b03166117d15760405162461bcd60e51b815260206004820152603160248201527f45524337323155524953746f726167653a2055524920717565727920666f72206044820152703737b732bc34b9ba32b73a103a37b5b2b760791b6064820152608401610899565b60175460ff161580156117e5575060135482115b1561187c57601280546117f790613132565b80601f016020809104026020016040519081016040528092919081815260200182805461182390613132565b80156118705780601f1061184557610100808354040283529160200191611870565b820191906000526020600020905b81548152906001019060200180831161185357829003601f168201915b50505050509050919050565b61084f8261227f565b600f805461131c90613132565b600c546001600160a01b031633146118da5760405162461bcd60e51b815260206004820181905260248201526000805160206132218339815191526044820152606401610899565b8051610907906011906020840190612ae0565b600c546001600160a01b031633146119355760405162461bcd60e51b815260206004820181905260248201526000805160206132218339815191526044820152606401610899565b6014546008541461199a5760405162461bcd60e51b815260206004820152602960248201527f50726576696f75732064726f702073616c657320686173206e6f742066696e6960448201526839b432b2103cb2ba1760b91b6064820152608401610899565b601480546013558290556119ad81611162565b50506017805460ff19169055565b600c546001600160a01b03163314611a035760405162461bcd60e51b815260206004820181905260248201526000805160206132218339815191526044820152606401610899565b8051610907906012906020840190612ae0565b600c546001600160a01b03163314611a5e5760405162461bcd60e51b815260206004820181905260248201526000805160206132218339815191526044820152606401610899565b6001600160a01b038116611ac35760405162461bcd60e51b815260206004820152602660248201527f4f776e61626c653a206e6577206f776e657220697320746865207a65726f206160448201526564647265737360d01b6064820152608401610899565b611acc81611f07565b50565b60006001600160e01b0319821663152a902d60e11b148061084f575061084f826123fe565b6127106bffffffffffffffffffffffff82161115611b675760405162461bcd60e51b815260206004820152602a60248201527f455243323938313a20726f79616c7479206665652077696c6c206578636565646044820152692073616c65507269636560b01b6064820152608401610899565b6001600160a01b038216611bbd5760405162461bcd60e51b815260206004820152601960248201527f455243323938313a20696e76616c6964207265636569766572000000000000006044820152606401610899565b604080518082019091526001600160a01b039092168083526bffffffffffffffffffffffff9091166020909201829052600160a01b90910217600a55565b600081815260046020526040902080546001600160a01b0319166001600160a01b0384169081179091558190611c30826111bd565b6001600160a01b03167f8c5be1e5ebec7d5bd14f71427d1e84f3dd0314c0f7b2291e5b200ac8c7c3b92560405160405180910390a45050565b6000818152600260205260408120546001600160a01b0316611ce25760405162461bcd60e51b815260206004820152602c60248201527f4552433732313a206f70657261746f7220717565727920666f72206e6f6e657860448201526b34b9ba32b73a103a37b5b2b760a11b6064820152608401610899565b6000611ced836111bd565b9050806001600160a01b0316846001600160a01b03161480611d285750836001600160a01b0316611d1d8461099d565b6001600160a01b0316145b80611d5857506001600160a01b0380821660009081526005602090815260408083209388168352929052205460ff165b949350505050565b826001600160a01b0316611d73826111bd565b6001600160a01b031614611dd75760405162461bcd60e51b815260206004820152602560248201527f4552433732313a207472616e736665722066726f6d20696e636f72726563742060448201526437bbb732b960d91b6064820152608401610899565b6001600160a01b038216611e395760405162461bcd60e51b8152602060048201526024808201527f4552433732313a207472616e7366657220746f20746865207a65726f206164646044820152637265737360e01b6064820152608401610899565b611e44838383612423565b611e4f600082611bfb565b6001600160a01b0383166000908152600360205260408120805460019290611e789084906130ef565b90915550506001600160a01b0382166000908152600360205260408120805460019290611ea69084906130a4565b909155505060008181526002602052604080822080546001600160a01b0319166001600160a01b0386811691821790925591518493918716917fddf252ad1be2c89b69c2b068fc378daa952ba7f163c4a11628f55a4df523b3ef91a4505050565b600c80546001600160a01b038381166001600160a01b0319831681179093556040519116919082907f8be0079c531659141344cd1fd0a4f28419497f9722a3daafe3b4186f6b6457e090600090a35050565b61090782826040518060200160405280600081525061242e565b606081611f975750506040805180820190915260018152600360fc1b602082015290565b8160005b8115611fc15780611fab8161316d565b9150611fba9050600a836130bc565b9150611f9b565b60008167ffffffffffffffff811115611fdc57611fdc6131f4565b6040519080825280601f01601f191660200182016040528015612006576020820181803683370190505b5090505b8415611d585761201b6001836130ef565b9150612028600a86613188565b6120339060306130a4565b60f81b818381518110612048576120486131de565b60200101907effffffffffffffffffffffffffffffffffffffffffffffffffffffffffffff1916908160001a905350612082600a866130bc565b945061200a565b6000828152600260205260409020546001600160a01b03166121135760405162461bcd60e51b815260206004820152602e60248201527f45524337323155524953746f726167653a2055524920736574206f66206e6f6e60448201527f6578697374656e7420746f6b656e0000000000000000000000000000000000006064820152608401610899565b6000828152600d602090815260409091208251610b4392840190612ae0565b816001600160a01b0316836001600160a01b031614156121945760405162461bcd60e51b815260206004820152601960248201527f4552433732313a20617070726f766520746f2063616c6c6572000000000000006044820152606401610899565b6001600160a01b03838116600081815260056020908152604080832094871680845294825291829020805460ff191686151590811790915591519182527f17307eab39ab6107e8899845ad3d59bd9653f200f220920489ca2b5937696c31910160405180910390a3505050565b61220c848484611d60565b612218848484846124ac565b61173d5760405162461bcd60e51b815260206004820152603260248201527f4552433732313a207472616e7366657220746f206e6f6e20455243373231526560448201527131b2b4bb32b91034b6b83632b6b2b73a32b960711b6064820152608401610899565b6000818152600260205260409020546060906001600160a01b03166123005760405162461bcd60e51b815260206004820152603160248201527f45524337323155524953746f726167653a2055524920717565727920666f72206044820152703737b732bc34b9ba32b73a103a37b5b2b760791b6064820152608401610899565b6000828152600d60205260408120805461231990613132565b80601f016020809104026020016040519081016040528092919081815260200182805461234590613132565b80156123925780601f1061236757610100808354040283529160200191612392565b820191906000526020600020905b81548152906001019060200180831161237557829003601f168201915b5050505050905060006123b060408051602081019091526000815290565b90508051600014156123c3575092915050565b8151156123f55780826040516020016123dd929190612faf565b60405160208183030381529060405292505050919050565b611d5884612604565b60006001600160e01b0319821663780e9d6360e01b148061084f575061084f826126fa565b610b4383838361274a565b6124388383612802565b61244560008484846124ac565b610b435760405162461bcd60e51b815260206004820152603260248201527f4552433732313a207472616e7366657220746f206e6f6e20455243373231526560448201527131b2b4bb32b91034b6b83632b6b2b73a32b960711b6064820152608401610899565b60006001600160a01b0384163b156125f957604051630a85bd0160e11b81526001600160a01b0385169063150b7a02906124f0903390899088908890600401613011565b602060405180830381600087803b15801561250a57600080fd5b505af192505050801561253a575060408051601f3d908101601f1916820190925261253791810190612e15565b60015b6125df573d808015612568576040519150601f19603f3d011682016040523d82523d6000602084013e61256d565b606091505b5080516125d75760405162461bcd60e51b815260206004820152603260248201527f4552433732313a207472616e7366657220746f206e6f6e20455243373231526560448201527131b2b4bb32b91034b6b83632b6b2b73a32b960711b6064820152608401610899565b805181602001fd5b6001600160e01b031916630a85bd0160e11b149050611d58565b506001949350505050565b6000818152600260205260409020546060906001600160a01b03166126915760405162461bcd60e51b815260206004820152602f60248201527f4552433732314d657461646174613a2055524920717565727920666f72206e6f60448201527f6e6578697374656e7420746f6b656e00000000000000000000000000000000006064820152608401610899565b60006126a860408051602081019091526000815290565b905060008151116126c857604051806020016040528060008152506126f3565b806126d284611f73565b6040516020016126e3929190612faf565b6040516020818303038152906040525b9392505050565b60006001600160e01b031982166380ac58cd60e01b148061272b57506001600160e01b03198216635b5e139f60e01b145b8061084f57506301ffc9a760e01b6001600160e01b031983161461084f565b6001600160a01b0383166127a5576127a081600880546000838152600960205260408120829055600182018355919091527ff3f7a9fe364faab93b216da50a3214154f22a0a2b415b23a84c8169e8b636ee30155565b6127c8565b816001600160a01b0316836001600160a01b0316146127c8576127c88382612950565b6001600160a01b0382166127df57610b43816129ed565b826001600160a01b0316826001600160a01b031614610b4357610b438282612a9c565b6001600160a01b0382166128585760405162461bcd60e51b815260206004820181905260248201527f4552433732313a206d696e7420746f20746865207a65726f20616464726573736044820152606401610899565b6000818152600260205260409020546001600160a01b0316156128bd5760405162461bcd60e51b815260206004820152601c60248201527f4552433732313a20746f6b656e20616c7265616479206d696e746564000000006044820152606401610899565b6128c960008383612423565b6001600160a01b03821660009081526003602052604081208054600192906128f29084906130a4565b909155505060008181526002602052604080822080546001600160a01b0319166001600160a01b03861690811790915590518392907fddf252ad1be2c89b69c2b068fc378daa952ba7f163c4a11628f55a4df523b3ef908290a45050565b6000600161295d84611234565b61296791906130ef565b6000838152600760205260409020549091508082146129ba576001600160a01b03841660009081526006602090815260408083208584528252808320548484528184208190558352600790915290208190555b5060009182526007602090815260408084208490556001600160a01b039094168352600681528383209183525290812055565b6008546000906129ff906001906130ef565b60008381526009602052604081205460088054939450909284908110612a2757612a276131de565b906000526020600020015490508060088381548110612a4857612a486131de565b6000918252602080832090910192909255828152600990915260408082208490558582528120556008805480612a8057612a806131c8565b6001900381819060005260206000200160009055905550505050565b6000612aa783611234565b6001600160a01b039093166000908152600660209081526040808320868452825280832085905593825260079052919091209190915550565b828054612aec90613132565b90600052602060002090601f016020900481019282612b0e5760008555612b54565b82601f10612b2757805160ff1916838001178555612b54565b82800160010185558215612b54579182015b82811115612b54578251825591602001919060010190612b39565b50612b60929150612b64565b5090565b5b80821115612b605760008155600101612b65565b600067ffffffffffffffff80841115612b9457612b946131f4565b604051601f8501601f19908116603f01168101908282118183101715612bbc57612bbc6131f4565b81604052809350858152868686011115612bd557600080fd5b858560208301376000602087830101525050509392505050565b80356001600160a01b0381168114612c0657600080fd5b919050565b80358015158114612c0657600080fd5b600082601f830112612c2c57600080fd5b6126f383833560208501612b79565b600060208284031215612c4d57600080fd5b6126f382612bef565b60008060408385031215612c6957600080fd5b612c7283612bef565b9150612c8060208401612bef565b90509250929050565b600080600060608486031215612c9e57600080fd5b612ca784612bef565b9250612cb560208501612bef565b9150604084013590509250925092565b60008060008060808587031215612cdb57600080fd5b612ce485612bef565b9350612cf260208601612bef565b925060408501359150606085013567ffffffffffffffff811115612d1557600080fd5b8501601f81018713612d2657600080fd5b612d3587823560208401612b79565b91505092959194509250565b60008060408385031215612d5457600080fd5b612d5d83612bef565b9150612c8060208401612c0b565b60008060408385031215612d7e57600080fd5b612d8783612bef565b946020939093013593505050565b60008060408385031215612da857600080fd5b612db183612bef565b915060208301356bffffffffffffffffffffffff81168114612dd257600080fd5b809150509250929050565b600060208284031215612def57600080fd5b6126f382612c0b565b600060208284031215612e0a57600080fd5b81356126f38161320a565b600060208284031215612e2757600080fd5b81516126f38161320a565b600060208284031215612e4457600080fd5b813567ffffffffffffffff811115612e5b57600080fd5b611d5884828501612c1b565b600060208284031215612e7957600080fd5b5035919050565b60008060408385031215612e9357600080fd5b82359150602083013567ffffffffffffffff811115612eb157600080fd5b612ebd85828601612c1b565b9150509250929050565b60008060408385031215612eda57600080fd5b50508035926020909101359150565b60008151808452612f01816020860160208601613106565b601f01601f19169290920160200192915050565b8054600090600181811c9080831680612f2f57607f831692505b6020808410821415612f5157634e487b7160e01b600052602260045260246000fd5b818015612f655760018114612f7657612fa3565b60ff19861689528489019650612fa3565b60008881526020902060005b86811015612f9b5781548b820152908501908301612f82565b505084890196505b50505050505092915050565b60008351612fc1818460208801613106565b835190830190612fd5818360208801613106565b01949350505050565b6000612fea8286612f15565b8451612ffa818360208901613106565b61300681830186612f15565b979650505050505050565b60006001600160a01b038087168352808616602084015250836040830152608060608301526130436080830184612ee9565b9695505050505050565b6020808252825182820181905260009190848201906040850190845b8181101561308557835183529284019291840191600101613069565b50909695505050505050565b6020815260006126f36020830184612ee9565b600082198211156130b7576130b761319c565b500190565b6000826130cb576130cb6131b2565b500490565b60008160001904831182151516156130ea576130ea61319c565b500290565b6000828210156131015761310161319c565b500390565b60005b83811015613121578181015183820152602001613109565b8381111561173d5750506000910152565b600181811c9082168061314657607f821691505b6020821081141561316757634e487b7160e01b600052602260045260246000fd5b50919050565b60006000198214156131815761318161319c565b5060010190565b600082613197576131976131b2565b500690565b634e487b7160e01b600052601160045260246000fd5b634e487b7160e01b600052601260045260246000fd5b634e487b7160e01b600052603160045260246000fd5b634e487b7160e01b600052603260045260246000fd5b634e487b7160e01b600052604160045260246000fd5b6001600160e01b031981168114611acc57600080fdfe4f776e61626c653a2063616c6c6572206973206e6f7420746865206f776e6572a2646970667358221220660ccdad5dcbb2e4932b6a379aec0a7b7828cef44225088ce352e37058f1b14164736f6c634300080700334f776e61626c653a2063616c6c6572206973206e6f7420746865206f776e6572",
  "linkReferences": {},
  "deployedLinkReferences": {}
}