{
  "_format": "hh-sol-artifact-1",
  "contractName": "ERC721",
  "sourceName": "contracts/RFC.sol",
  "abi": [
    {
      "inputs": [
        {
          "internalType": "string",
          "name": "name_",
          "type": "string"
        },
        {
          "internalType": "string",
          "name": "symbol_",
          "type": "string"
        }
      ],
      "stateMutability": "nonpayable",
      "type": "constructor"
    },
    {
      "anonymous": false,
      "inputs": [
        {
          "indexed": true,
          "internalType": "address",
          "name": "owner",
          "type": "address"
        },
        {
          "indexed": true,
          "internalType": "address",
          "name": "approved",
          "type": "address"
        },
        {
          "indexed": true,
          "internalType": "uint256",
          "name": "tokenId",
          "type": "uint256"
        }
      ],
      "name": "Approval",
      "type": "event"
    },
    {
      "anonymous": false,
      "inputs": [
        {
          "indexed": true,
          "internalType": "address",
          "name": "owner",
          "type": "address"
        },
        {
          "indexed": true,
          "internalType": "address",
          "name": "operator",
          "type": "address"
        },
        {
          "indexed": false,
          "internalType": "bool",
          "name": "approved",
          "type": "bool"
        }
      ],
      "name": "ApprovalForAll",
      "type": "event"
    },
    {
      "anonymous": false,
      "inputs": [
        {
          "indexed": true,
          "internalType": "address",
          "name": "from",
          "type": "address"
        },
        {
          "indexed": true,
          "internalType": "address",
          "name": "to",
          "type": "address"
        },
        {
          "indexed": true,
          "internalType": "uint256",
          "name": "tokenId",
          "type": "uint256"
        }
      ],
      "name": "Transfer",
      "type": "event"
    },
    {
      "inputs": [
        {
          "internalType": "address",
          "name": "to",
          "type": "address"
        },
        {
          "internalType": "uint256",
          "name": "tokenId",
          "type": "uint256"
        }
      ],
      "name": "approve",
      "outputs": [],
      "stateMutability": "nonpayable",
      "type": "function"
    },
    {
      "inputs": [
        {
          "internalType": "address",
          "name": "owner",
          "type": "address"
        }
      ],
      "name": "balanceOf",
      "outputs": [
        {
          "internalType": "uint256",
          "name": "",
          "type": "uint256"
        }
      ],
      "stateMutability": "view",
      "type": "function"
    },
    {
      "inputs": [
        {
          "internalType": "uint256",
          "name": "tokenId",
          "type": "uint256"
        }
      ],
      "name": "getApproved",
      "outputs": [
        {
          "internalType": "address",
          "name": "",
          "type": "address"
        }
      ],
      "stateMutability": "view",
      "type": "function"
    },
    {
      "inputs": [
        {
          "internalType": "address",
          "name": "owner",
          "type": "address"
        },
        {
          "internalType": "address",
          "name": "operator",
          "type": "address"
        }
      ],
      "name": "isApprovedForAll",
      "outputs": [
        {
          "internalType": "bool",
          "name": "",
          "type": "bool"
        }
      ],
      "stateMutability": "view",
      "type": "function"
    },
    {
      "inputs": [],
      "name": "name",
      "outputs": [
        {
          "internalType": "string",
          "name": "",
          "type": "string"
        }
      ],
      "stateMutability": "view",
      "type": "function"
    },
    {
      "inputs": [
        {
          "internalType": "uint256",
          "name": "tokenId",
          "type": "uint256"
        }
      ],
      "name": "ownerOf",
      "outputs": [
        {
          "internalType": "address",
          "name": "",
          "type": "address"
        }
      ],
      "stateMutability": "view",
      "type": "function"
    },
    {
      "inputs": [
        {
          "internalType": "address",
          "name": "from",
          "type": "address"
        },
        {
          "internalType": "address",
          "name": "to",
          "type": "address"
        },
        {
          "internalType": "uint256",
          "name": "tokenId",
          "type": "uint256"
        }
      ],
      "name": "safeTransferFrom",
      "outputs": [],
      "stateMutability": "nonpayable",
      "type": "function"
    },
    {
      "inputs": [
        {
          "internalType": "address",
          "name": "from",
          "type": "address"
        },
        {
          "internalType": "address",
          "name": "to",
          "type": "address"
        },
        {
          "internalType": "uint256",
          "name": "tokenId",
          "type": "uint256"
        },
        {
          "internalType": "bytes",
          "name": "_data",
          "type": "bytes"
        }
      ],
      "name": "safeTransferFrom",
      "outputs": [],
      "stateMutability": "nonpayable",
      "type": "function"
    },
    {
      "inputs": [
        {
          "internalType": "address",
          "name": "operator",
          "type": "address"
        },
        {
          "internalType": "bool",
          "name": "approved",
          "type": "bool"
        }
      ],
      "name": "setApprovalForAll",
      "outputs": [],
      "stateMutability": "nonpayable",
      "type": "function"
    },
    {
      "inputs": [
        {
          "internalType": "bytes4",
          "name": "interfaceId",
          "type": "bytes4"
        }
      ],
      "name": "supportsInterface",
      "outputs": [
        {
          "internalType": "bool",
          "name": "",
          "type": "bool"
        }
      ],
      "stateMutability": "view",
      "type": "function"
    },
    {
      "inputs": [],
      "name": "symbol",
      "outputs": [
        {
          "internalType": "string",
          "name": "",
          "type": "string"
        }
      ],
      "stateMutability": "view",
      "type": "function"
    },
    {
      "inputs": [
        {
          "internalType": "uint256",
          "name": "tokenId",
          "type": "uint256"
        }
      ],
      "name": "testOwnerOf",
      "outputs": [
        {
          "internalType": "bool",
          "name": "",
          "type": "bool"
        }
      ],
      "stateMutability": "view",
      "type": "function"
    },
    {
      "inputs": [
        {
          "internalType": "uint256",
          "name": "tokenId",
          "type": "uint256"
        }
      ],
      "name": "tokenURI",
      "outputs": [
        {
          "internalType": "string",
          "name": "",
          "type": "string"
        }
      ],
      "stateMutability": "view",
      "type": "function"
    },
    {
      "inputs": [
        {
          "internalType": "address",
          "name": "from",
          "type": "address"
        },
        {
          "internalType": "address",
          "name": "to",
          "type": "address"
        },
        {
          "internalType": "uint256",
          "name": "tokenId",
          "type": "uint256"
        }
      ],
      "name": "transferFrom",
      "outputs": [],
      "stateMutability": "nonpayable",
      "type": "function"
    }
  ],
  "bytecode": "0x60806040523480156200001157600080fd5b50604051620028733803806200287383398181016040528101906200003791906200019f565b81600090805190602001906200004f92919062000071565b5080600190805190602001906200006892919062000071565b505050620003a8565b8280546200007f90620002b9565b90600052602060002090601f016020900481019282620000a35760008555620000ef565b82601f10620000be57805160ff1916838001178555620000ef565b82800160010185558215620000ef579182015b82811115620000ee578251825591602001919060010190620000d1565b5b509050620000fe919062000102565b5090565b5b808211156200011d57600081600090555060010162000103565b5090565b60006200013862000132846200024d565b62000224565b90508281526020810184848401111562000157576200015662000388565b5b6200016484828562000283565b509392505050565b600082601f83011262000184576200018362000383565b5b81516200019684826020860162000121565b91505092915050565b60008060408385031215620001b957620001b862000392565b5b600083015167ffffffffffffffff811115620001da57620001d96200038d565b5b620001e8858286016200016c565b925050602083015167ffffffffffffffff8111156200020c576200020b6200038d565b5b6200021a858286016200016c565b9150509250929050565b60006200023062000243565b90506200023e8282620002ef565b919050565b6000604051905090565b600067ffffffffffffffff8211156200026b576200026a62000354565b5b620002768262000397565b9050602081019050919050565b60005b83811015620002a357808201518184015260208101905062000286565b83811115620002b3576000848401525b50505050565b60006002820490506001821680620002d257607f821691505b60208210811415620002e957620002e862000325565b5b50919050565b620002fa8262000397565b810181811067ffffffffffffffff821117156200031c576200031b62000354565b5b80604052505050565b7f4e487b7100000000000000000000000000000000000000000000000000000000600052602260045260246000fd5b7f4e487b7100000000000000000000000000000000000000000000000000000000600052604160045260246000fd5b600080fd5b600080fd5b600080fd5b600080fd5b6000601f19601f8301169050919050565b6124bb80620003b86000396000f3fe608060405234801561001057600080fd5b50600436106100ea5760003560e01c806370a082311161008c578063b88d4fde11610066578063b88d4fde1461025b578063c87b56dd14610277578063e985e9c5146102a7578063f7aeffc9146102d7576100ea565b806370a08231146101f157806395d89b4114610221578063a22cb4651461023f576100ea565b8063095ea7b3116100c8578063095ea7b31461016d57806323b872dd1461018957806342842e0e146101a55780636352211e146101c1576100ea565b806301ffc9a7146100ef57806306fdde031461011f578063081812fc1461013d575b600080fd5b61010960048036038101906101049190611746565b610307565b6040516101169190611acc565b60405180910390f35b6101276103e9565b6040516101349190611ae7565b60405180910390f35b610157600480360381019061015291906117a0565b61047b565b6040516101649190611a65565b60405180910390f35b61018760048036038101906101829190611706565b610500565b005b6101a3600480360381019061019e91906115f0565b610618565b005b6101bf60048036038101906101ba91906115f0565b610678565b005b6101db60048036038101906101d691906117a0565b610698565b6040516101e89190611a65565b60405180910390f35b61020b60048036038101906102069190611583565b61074a565b6040516102189190611c89565b60405180910390f35b610229610802565b6040516102369190611ae7565b60405180910390f35b610259600480360381019061025491906116c6565b610894565b005b61027560048036038101906102709190611643565b6108aa565b005b610291600480360381019061028c91906117a0565b61090c565b60405161029e9190611ae7565b60405180910390f35b6102c160048036038101906102bc91906115b0565b6109b3565b6040516102ce9190611acc565b60405180910390f35b6102f160048036038101906102ec91906117a0565b610a47565b6040516102fe9190611acc565b60405180910390f35b60007f80ac58cd000000000000000000000000000000000000000000000000000000007bffffffffffffffffffffffffffffffffffffffffffffffffffffffff1916827bffffffffffffffffffffffffffffffffffffffffffffffffffffffff191614806103d257507f5b5e139f000000000000000000000000000000000000000000000000000000007bffffffffffffffffffffffffffffffffffffffffffffffffffffffff1916827bffffffffffffffffffffffffffffffffffffffffffffffffffffffff1916145b806103e257506103e182610ac9565b5b9050919050565b6060600080546103f890611eae565b80601f016020809104026020016040519081016040528092919081815260200182805461042490611eae565b80156104715780601f1061044657610100808354040283529160200191610471565b820191906000526020600020905b81548152906001019060200180831161045457829003601f168201915b5050505050905090565b600061048682610b33565b6104c5576040517f08c379a00000000000000000000000000000000000000000000000000000000081526004016104bc90611c09565b60405180910390fd5b6004600083815260200190815260200160002060009054906101000a900473ffffffffffffffffffffffffffffffffffffffff169050919050565b600061050b82610698565b90508073ffffffffffffffffffffffffffffffffffffffff168373ffffffffffffffffffffffffffffffffffffffff16141561057c576040517f08c379a000000000000000000000000000000000000000000000000000000000815260040161057390611c49565b60405180910390fd5b8073ffffffffffffffffffffffffffffffffffffffff1661059b610b9f565b73ffffffffffffffffffffffffffffffffffffffff1614806105ca57506105c9816105c4610b9f565b6109b3565b5b610609576040517f08c379a000000000000000000000000000000000000000000000000000000000815260040161060090611ba9565b60405180910390fd5b6106138383610ba7565b505050565b610629610623610b9f565b82610c60565b610668576040517f08c379a000000000000000000000000000000000000000000000000000000000815260040161065f90611c69565b60405180910390fd5b610673838383610d3e565b505050565b610693838383604051806020016040528060008152506108aa565b505050565b6000806002600084815260200190815260200160002060009054906101000a900473ffffffffffffffffffffffffffffffffffffffff169050600073ffffffffffffffffffffffffffffffffffffffff168173ffffffffffffffffffffffffffffffffffffffff161415610741576040517f08c379a000000000000000000000000000000000000000000000000000000000815260040161073890611be9565b60405180910390fd5b80915050919050565b60008073ffffffffffffffffffffffffffffffffffffffff168273ffffffffffffffffffffffffffffffffffffffff1614156107bb576040517f08c379a00000000000000000000000000000000000000000000000000000000081526004016107b290611bc9565b60405180910390fd5b600360008373ffffffffffffffffffffffffffffffffffffffff1673ffffffffffffffffffffffffffffffffffffffff168152602001908152602001600020549050919050565b60606001805461081190611eae565b80601f016020809104026020016040519081016040528092919081815260200182805461083d90611eae565b801561088a5780601f1061085f5761010080835404028352916020019161088a565b820191906000526020600020905b81548152906001019060200180831161086d57829003601f168201915b5050505050905090565b6108a661089f610b9f565b8383610fa5565b5050565b6108bb6108b5610b9f565b83610c60565b6108fa576040517f08c379a00000000000000000000000000000000000000000000000000000000081526004016108f190611c69565b60405180910390fd5b61090684848484611112565b50505050565b606061091782610b33565b610956576040517f08c379a000000000000000000000000000000000000000000000000000000000815260040161094d90611c29565b60405180910390fd5b600061096061116e565b9050600081511161098057604051806020016040528060008152506109ab565b8061098a84611185565b60405160200161099b929190611a41565b6040516020818303038152906040525b915050919050565b6000600560008473ffffffffffffffffffffffffffffffffffffffff1673ffffffffffffffffffffffffffffffffffffffff16815260200190815260200160002060008373ffffffffffffffffffffffffffffffffffffffff1673ffffffffffffffffffffffffffffffffffffffff16815260200190815260200160002060009054906101000a900460ff16905092915050565b6000806002600084815260200190815260200160002060009054906101000a900473ffffffffffffffffffffffffffffffffffffffff169050600073ffffffffffffffffffffffffffffffffffffffff168173ffffffffffffffffffffffffffffffffffffffff1614610abe576001915050610ac4565b60009150505b919050565b60007f01ffc9a7000000000000000000000000000000000000000000000000000000007bffffffffffffffffffffffffffffffffffffffffffffffffffffffff1916827bffffffffffffffffffffffffffffffffffffffffffffffffffffffff1916149050919050565b60008073ffffffffffffffffffffffffffffffffffffffff166002600084815260200190815260200160002060009054906101000a900473ffffffffffffffffffffffffffffffffffffffff1673ffffffffffffffffffffffffffffffffffffffff1614159050919050565b600033905090565b816004600083815260200190815260200160002060006101000a81548173ffffffffffffffffffffffffffffffffffffffff021916908373ffffffffffffffffffffffffffffffffffffffff160217905550808273ffffffffffffffffffffffffffffffffffffffff16610c1a83610698565b73ffffffffffffffffffffffffffffffffffffffff167f8c5be1e5ebec7d5bd14f71427d1e84f3dd0314c0f7b2291e5b200ac8c7c3b92560405160405180910390a45050565b6000610c6b82610b33565b610caa576040517f08c379a0000000000000000000000000000000000000000000000000000000008152600401610ca190611b89565b60405180910390fd5b6000610cb583610698565b90508073ffffffffffffffffffffffffffffffffffffffff168473ffffffffffffffffffffffffffffffffffffffff161480610d2457508373ffffffffffffffffffffffffffffffffffffffff16610d0c8461047b565b73ffffffffffffffffffffffffffffffffffffffff16145b80610d355750610d3481856109b3565b5b91505092915050565b8273ffffffffffffffffffffffffffffffffffffffff16610d5e82610698565b73ffffffffffffffffffffffffffffffffffffffff1614610db4576040517f08c379a0000000000000000000000000000000000000000000000000000000008152600401610dab90611b29565b60405180910390fd5b600073ffffffffffffffffffffffffffffffffffffffff168273ffffffffffffffffffffffffffffffffffffffff161415610e24576040517f08c379a0000000000000000000000000000000000000000000000000000000008152600401610e1b90611b49565b60405180910390fd5b610e2f8383836112e6565b610e3a600082610ba7565b6001600360008573ffffffffffffffffffffffffffffffffffffffff1673ffffffffffffffffffffffffffffffffffffffff1681526020019081526020016000206000828254610e8a9190611dc4565b925050819055506001600360008473ffffffffffffffffffffffffffffffffffffffff1673ffffffffffffffffffffffffffffffffffffffff1681526020019081526020016000206000828254610ee19190611d3d565b92505081905550816002600083815260200190815260200160002060006101000a81548173ffffffffffffffffffffffffffffffffffffffff021916908373ffffffffffffffffffffffffffffffffffffffff160217905550808273ffffffffffffffffffffffffffffffffffffffff168473ffffffffffffffffffffffffffffffffffffffff167fddf252ad1be2c89b69c2b068fc378daa952ba7f163c4a11628f55a4df523b3ef60405160405180910390a4610fa08383836112eb565b505050565b8173ffffffffffffffffffffffffffffffffffffffff168373ffffffffffffffffffffffffffffffffffffffff161415611014576040517f08c379a000000000000000000000000000000000000000000000000000000000815260040161100b90611b69565b60405180910390fd5b80600560008573ffffffffffffffffffffffffffffffffffffffff1673ffffffffffffffffffffffffffffffffffffffff16815260200190815260200160002060008473ffffffffffffffffffffffffffffffffffffffff1673ffffffffffffffffffffffffffffffffffffffff16815260200190815260200160002060006101000a81548160ff0219169083151502179055508173ffffffffffffffffffffffffffffffffffffffff168373ffffffffffffffffffffffffffffffffffffffff167f17307eab39ab6107e8899845ad3d59bd9653f200f220920489ca2b5937696c31836040516111059190611acc565b60405180910390a3505050565b61111d848484610d3e565b611129848484846112f0565b611168576040517f08c379a000000000000000000000000000000000000000000000000000000000815260040161115f90611b09565b60405180910390fd5b50505050565b606060405180602001604052806000815250905090565b606060008214156111cd576040518060400160405280600181526020017f300000000000000000000000000000000000000000000000000000000000000081525090506112e1565b600082905060005b600082146111ff5780806111e890611f11565b915050600a826111f89190611d93565b91506111d5565b60008167ffffffffffffffff81111561121b5761121a612047565b5b6040519080825280601f01601f19166020018201604052801561124d5781602001600182028036833780820191505090505b5090505b600085146112da576001826112669190611dc4565b9150600a856112759190611f5a565b60306112819190611d3d565b60f81b81838151811061129757611296612018565b5b60200101907effffffffffffffffffffffffffffffffffffffffffffffffffffffffffffff1916908160001a905350600a856112d39190611d93565b9450611251565b8093505050505b919050565b505050565b505050565b60006113118473ffffffffffffffffffffffffffffffffffffffff16611487565b1561147a578373ffffffffffffffffffffffffffffffffffffffff1663150b7a0261133a610b9f565b8786866040518563ffffffff1660e01b815260040161135c9493929190611a80565b602060405180830381600087803b15801561137657600080fd5b505af19250505080156113a757506040513d601f19601f820116820180604052508101906113a49190611773565b60015b61142a573d80600081146113d7576040519150601f19603f3d011682016040523d82523d6000602084013e6113dc565b606091505b50600081511415611422576040517f08c379a000000000000000000000000000000000000000000000000000000000815260040161141990611b09565b60405180910390fd5b805181602001fd5b63150b7a0260e01b7bffffffffffffffffffffffffffffffffffffffffffffffffffffffff1916817bffffffffffffffffffffffffffffffffffffffffffffffffffffffff19161491505061147f565b600190505b949350505050565b6000808273ffffffffffffffffffffffffffffffffffffffff163b119050919050565b60006114bd6114b884611cc9565b611ca4565b9050828152602081018484840111156114d9576114d861207b565b5b6114e4848285611e6c565b509392505050565b6000813590506114fb81612429565b92915050565b60008135905061151081612440565b92915050565b60008135905061152581612457565b92915050565b60008151905061153a81612457565b92915050565b600082601f83011261155557611554612076565b5b81356115658482602086016114aa565b91505092915050565b60008135905061157d8161246e565b92915050565b60006020828403121561159957611598612085565b5b60006115a7848285016114ec565b91505092915050565b600080604083850312156115c7576115c6612085565b5b60006115d5858286016114ec565b92505060206115e6858286016114ec565b9150509250929050565b60008060006060848603121561160957611608612085565b5b6000611617868287016114ec565b9350506020611628868287016114ec565b92505060406116398682870161156e565b9150509250925092565b6000806000806080858703121561165d5761165c612085565b5b600061166b878288016114ec565b945050602061167c878288016114ec565b935050604061168d8782880161156e565b925050606085013567ffffffffffffffff8111156116ae576116ad612080565b5b6116ba87828801611540565b91505092959194509250565b600080604083850312156116dd576116dc612085565b5b60006116eb858286016114ec565b92505060206116fc85828601611501565b9150509250929050565b6000806040838503121561171d5761171c612085565b5b600061172b858286016114ec565b925050602061173c8582860161156e565b9150509250929050565b60006020828403121561175c5761175b612085565b5b600061176a84828501611516565b91505092915050565b60006020828403121561178957611788612085565b5b60006117978482850161152b565b91505092915050565b6000602082840312156117b6576117b5612085565b5b60006117c48482850161156e565b91505092915050565b6117d681611df8565b82525050565b6117e581611e0a565b82525050565b60006117f682611cfa565b6118008185611d10565b9350611810818560208601611e7b565b6118198161208a565b840191505092915050565b600061182f82611d05565b6118398185611d21565b9350611849818560208601611e7b565b6118528161208a565b840191505092915050565b600061186882611d05565b6118728185611d32565b9350611882818560208601611e7b565b80840191505092915050565b600061189b603283611d21565b91506118a68261209b565b604082019050919050565b60006118be602583611d21565b91506118c9826120ea565b604082019050919050565b60006118e1602483611d21565b91506118ec82612139565b604082019050919050565b6000611904601983611d21565b915061190f82612188565b602082019050919050565b6000611927602c83611d21565b9150611932826121b1565b604082019050919050565b600061194a603883611d21565b915061195582612200565b604082019050919050565b600061196d602a83611d21565b91506119788261224f565b604082019050919050565b6000611990602983611d21565b915061199b8261229e565b604082019050919050565b60006119b3602c83611d21565b91506119be826122ed565b604082019050919050565b60006119d6602f83611d21565b91506119e18261233c565b604082019050919050565b60006119f9602183611d21565b9150611a048261238b565b604082019050919050565b6000611a1c603183611d21565b9150611a27826123da565b604082019050919050565b611a3b81611e62565b82525050565b6000611a4d828561185d565b9150611a59828461185d565b91508190509392505050565b6000602082019050611a7a60008301846117cd565b92915050565b6000608082019050611a9560008301876117cd565b611aa260208301866117cd565b611aaf6040830185611a32565b8181036060830152611ac181846117eb565b905095945050505050565b6000602082019050611ae160008301846117dc565b92915050565b60006020820190508181036000830152611b018184611824565b905092915050565b60006020820190508181036000830152611b228161188e565b9050919050565b60006020820190508181036000830152611b42816118b1565b9050919050565b60006020820190508181036000830152611b62816118d4565b9050919050565b60006020820190508181036000830152611b82816118f7565b9050919050565b60006020820190508181036000830152611ba28161191a565b9050919050565b60006020820190508181036000830152611bc28161193d565b9050919050565b60006020820190508181036000830152611be281611960565b9050919050565b60006020820190508181036000830152611c0281611983565b9050919050565b60006020820190508181036000830152611c22816119a6565b9050919050565b60006020820190508181036000830152611c42816119c9565b9050919050565b60006020820190508181036000830152611c62816119ec565b9050919050565b60006020820190508181036000830152611c8281611a0f565b9050919050565b6000602082019050611c9e6000830184611a32565b92915050565b6000611cae611cbf565b9050611cba8282611ee0565b919050565b6000604051905090565b600067ffffffffffffffff821115611ce457611ce3612047565b5b611ced8261208a565b9050602081019050919050565b600081519050919050565b600081519050919050565b600082825260208201905092915050565b600082825260208201905092915050565b600081905092915050565b6000611d4882611e62565b9150611d5383611e62565b9250827fffffffffffffffffffffffffffffffffffffffffffffffffffffffffffffffff03821115611d8857611d87611f8b565b5b828201905092915050565b6000611d9e82611e62565b9150611da983611e62565b925082611db957611db8611fba565b5b828204905092915050565b6000611dcf82611e62565b9150611dda83611e62565b925082821015611ded57611dec611f8b565b5b828203905092915050565b6000611e0382611e42565b9050919050565b60008115159050919050565b60007fffffffff0000000000000000000000000000000000000000000000000000000082169050919050565b600073ffffffffffffffffffffffffffffffffffffffff82169050919050565b6000819050919050565b82818337600083830152505050565b60005b83811015611e99578082015181840152602081019050611e7e565b83811115611ea8576000848401525b50505050565b60006002820490506001821680611ec657607f821691505b60208210811415611eda57611ed9611fe9565b5b50919050565b611ee98261208a565b810181811067ffffffffffffffff82111715611f0857611f07612047565b5b80604052505050565b6000611f1c82611e62565b91507fffffffffffffffffffffffffffffffffffffffffffffffffffffffffffffffff821415611f4f57611f4e611f8b565b5b600182019050919050565b6000611f6582611e62565b9150611f7083611e62565b925082611f8057611f7f611fba565b5b828206905092915050565b7f4e487b7100000000000000000000000000000000000000000000000000000000600052601160045260246000fd5b7f4e487b7100000000000000000000000000000000000000000000000000000000600052601260045260246000fd5b7f4e487b7100000000000000000000000000000000000000000000000000000000600052602260045260246000fd5b7f4e487b7100000000000000000000000000000000000000000000000000000000600052603260045260246000fd5b7f4e487b7100000000000000000000000000000000000000000000000000000000600052604160045260246000fd5b600080fd5b600080fd5b600080fd5b600080fd5b6000601f19601f8301169050919050565b7f4552433732313a207472616e7366657220746f206e6f6e20455243373231526560008201527f63656976657220696d706c656d656e7465720000000000000000000000000000602082015250565b7f4552433732313a207472616e736665722066726f6d20696e636f72726563742060008201527f6f776e6572000000000000000000000000000000000000000000000000000000602082015250565b7f4552433732313a207472616e7366657220746f20746865207a65726f2061646460008201527f7265737300000000000000000000000000000000000000000000000000000000602082015250565b7f4552433732313a20617070726f766520746f2063616c6c657200000000000000600082015250565b7f4552433732313a206f70657261746f7220717565727920666f72206e6f6e657860008201527f697374656e7420746f6b656e0000000000000000000000000000000000000000602082015250565b7f4552433732313a20617070726f76652063616c6c6572206973206e6f74206f7760008201527f6e6572206e6f7220617070726f76656420666f7220616c6c0000000000000000602082015250565b7f4552433732313a2062616c616e636520717565727920666f7220746865207a6560008201527f726f206164647265737300000000000000000000000000000000000000000000602082015250565b7f4552433732313a206f776e657220717565727920666f72206e6f6e657869737460008201527f656e7420746f6b656e0000000000000000000000000000000000000000000000602082015250565b7f4552433732313a20617070726f76656420717565727920666f72206e6f6e657860008201527f697374656e7420746f6b656e0000000000000000000000000000000000000000602082015250565b7f4552433732314d657461646174613a2055524920717565727920666f72206e6f60008201527f6e6578697374656e7420746f6b656e0000000000000000000000000000000000602082015250565b7f4552433732313a20617070726f76616c20746f2063757272656e74206f776e6560008201527f7200000000000000000000000000000000000000000000000000000000000000602082015250565b7f4552433732313a207472616e736665722063616c6c6572206973206e6f74206f60008201527f776e6572206e6f7220617070726f766564000000000000000000000000000000602082015250565b61243281611df8565b811461243d57600080fd5b50565b61244981611e0a565b811461245457600080fd5b50565b61246081611e16565b811461246b57600080fd5b50565b61247781611e62565b811461248257600080fd5b5056fea2646970667358221220f277a0f64908b9831f38d3abe6c011f6450b7f2dae789ccb18d5e3b05cd089fb64736f6c63430008070033",
  "linkReferences": {},
  "deployedLinkReferences": {}
}