{
  "_format": "hh-sol-artifact-1",
  "contractName": "ResearchFundingClub3",
  "sourceName": "contracts/RFC.sol",
  "abi": [
    {
      "inputs": [
        {
          "internalType": "string",
          "name": "baseURI",
          "type": "string"
        }
      ],
      "stateMutability": "nonpayable",
      "type": "constructor"
    },
    {
      "anonymous": false,
      "inputs": [
        {
          "indexed": true,
          "internalType": "address",
          "name": "owner",
          "type": "address"
        },
        {
          "indexed": true,
          "internalType": "address",
          "name": "approved",
          "type": "address"
        },
        {
          "indexed": true,
          "internalType": "uint256",
          "name": "tokenId",
          "type": "uint256"
        }
      ],
      "name": "Approval",
      "type": "event"
    },
    {
      "anonymous": false,
      "inputs": [
        {
          "indexed": true,
          "internalType": "address",
          "name": "owner",
          "type": "address"
        },
        {
          "indexed": true,
          "internalType": "address",
          "name": "operator",
          "type": "address"
        },
        {
          "indexed": false,
          "internalType": "bool",
          "name": "approved",
          "type": "bool"
        }
      ],
      "name": "ApprovalForAll",
      "type": "event"
    },
    {
      "anonymous": false,
      "inputs": [
        {
          "indexed": true,
          "internalType": "address",
          "name": "previousOwner",
          "type": "address"
        },
        {
          "indexed": true,
          "internalType": "address",
          "name": "newOwner",
          "type": "address"
        }
      ],
      "name": "OwnershipTransferred",
      "type": "event"
    },
    {
      "anonymous": false,
      "inputs": [
        {
          "indexed": true,
          "internalType": "address",
          "name": "from",
          "type": "address"
        },
        {
          "indexed": true,
          "internalType": "address",
          "name": "to",
          "type": "address"
        },
        {
          "indexed": true,
          "internalType": "uint256",
          "name": "tokenId",
          "type": "uint256"
        }
      ],
      "name": "Transfer",
      "type": "event"
    },
    {
      "inputs": [],
      "name": "MAX_PER_MINT",
      "outputs": [
        {
          "internalType": "uint256",
          "name": "",
          "type": "uint256"
        }
      ],
      "stateMutability": "view",
      "type": "function"
    },
    {
      "inputs": [],
      "name": "MAX_SUPPLY",
      "outputs": [
        {
          "internalType": "uint256",
          "name": "",
          "type": "uint256"
        }
      ],
      "stateMutability": "view",
      "type": "function"
    },
    {
      "inputs": [],
      "name": "MIN_SUPPLY",
      "outputs": [
        {
          "internalType": "uint256",
          "name": "",
          "type": "uint256"
        }
      ],
      "stateMutability": "view",
      "type": "function"
    },
    {
      "inputs": [],
      "name": "PRICE",
      "outputs": [
        {
          "internalType": "uint256",
          "name": "",
          "type": "uint256"
        }
      ],
      "stateMutability": "view",
      "type": "function"
    },
    {
      "inputs": [
        {
          "internalType": "address",
          "name": "to",
          "type": "address"
        },
        {
          "internalType": "uint256",
          "name": "tokenId",
          "type": "uint256"
        }
      ],
      "name": "approve",
      "outputs": [],
      "stateMutability": "nonpayable",
      "type": "function"
    },
    {
      "inputs": [
        {
          "internalType": "address",
          "name": "owner",
          "type": "address"
        }
      ],
      "name": "balanceOf",
      "outputs": [
        {
          "internalType": "uint256",
          "name": "",
          "type": "uint256"
        }
      ],
      "stateMutability": "view",
      "type": "function"
    },
    {
      "inputs": [],
      "name": "baseExtension",
      "outputs": [
        {
          "internalType": "string",
          "name": "",
          "type": "string"
        }
      ],
      "stateMutability": "view",
      "type": "function"
    },
    {
      "inputs": [],
      "name": "baseTokenURI",
      "outputs": [
        {
          "internalType": "string",
          "name": "",
          "type": "string"
        }
      ],
      "stateMutability": "view",
      "type": "function"
    },
    {
      "inputs": [
        {
          "internalType": "uint256",
          "name": "tokenId",
          "type": "uint256"
        }
      ],
      "name": "getApproved",
      "outputs": [
        {
          "internalType": "address",
          "name": "",
          "type": "address"
        }
      ],
      "stateMutability": "view",
      "type": "function"
    },
    {
      "inputs": [
        {
          "internalType": "address",
          "name": "owner",
          "type": "address"
        },
        {
          "internalType": "address",
          "name": "operator",
          "type": "address"
        }
      ],
      "name": "isApprovedForAll",
      "outputs": [
        {
          "internalType": "bool",
          "name": "",
          "type": "bool"
        }
      ],
      "stateMutability": "view",
      "type": "function"
    },
    {
      "inputs": [
        {
          "internalType": "uint256",
          "name": "_mintAmount",
          "type": "uint256"
        }
      ],
      "name": "mint",
      "outputs": [],
      "stateMutability": "payable",
      "type": "function"
    },
    {
      "inputs": [],
      "name": "name",
      "outputs": [
        {
          "internalType": "string",
          "name": "",
          "type": "string"
        }
      ],
      "stateMutability": "view",
      "type": "function"
    },
    {
      "inputs": [
        {
          "internalType": "uint256",
          "name": "_newMaxSupply",
          "type": "uint256"
        },
        {
          "internalType": "string",
          "name": "_newBaseURI",
          "type": "string"
        }
      ],
      "name": "newDrop",
      "outputs": [],
      "stateMutability": "nonpayable",
      "type": "function"
    },
    {
      "inputs": [],
      "name": "owner",
      "outputs": [
        {
          "internalType": "address",
          "name": "",
          "type": "address"
        }
      ],
      "stateMutability": "view",
      "type": "function"
    },
    {
      "inputs": [
        {
          "internalType": "uint256",
          "name": "tokenId",
          "type": "uint256"
        }
      ],
      "name": "ownerOf",
      "outputs": [
        {
          "internalType": "address",
          "name": "",
          "type": "address"
        }
      ],
      "stateMutability": "view",
      "type": "function"
    },
    {
      "inputs": [
        {
          "internalType": "bool",
          "name": "_state",
          "type": "bool"
        }
      ],
      "name": "pause",
      "outputs": [],
      "stateMutability": "nonpayable",
      "type": "function"
    },
    {
      "inputs": [],
      "name": "paused",
      "outputs": [
        {
          "internalType": "bool",
          "name": "",
          "type": "bool"
        }
      ],
      "stateMutability": "view",
      "type": "function"
    },
    {
      "inputs": [],
      "name": "renounceOwnership",
      "outputs": [],
      "stateMutability": "nonpayable",
      "type": "function"
    },
    {
      "inputs": [
        {
          "internalType": "address",
          "name": "from",
          "type": "address"
        },
        {
          "internalType": "address",
          "name": "to",
          "type": "address"
        },
        {
          "internalType": "uint256",
          "name": "tokenId",
          "type": "uint256"
        }
      ],
      "name": "safeTransferFrom",
      "outputs": [],
      "stateMutability": "nonpayable",
      "type": "function"
    },
    {
      "inputs": [
        {
          "internalType": "address",
          "name": "from",
          "type": "address"
        },
        {
          "internalType": "address",
          "name": "to",
          "type": "address"
        },
        {
          "internalType": "uint256",
          "name": "tokenId",
          "type": "uint256"
        },
        {
          "internalType": "bytes",
          "name": "_data",
          "type": "bytes"
        }
      ],
      "name": "safeTransferFrom",
      "outputs": [],
      "stateMutability": "nonpayable",
      "type": "function"
    },
    {
      "inputs": [
        {
          "internalType": "address",
          "name": "operator",
          "type": "address"
        },
        {
          "internalType": "bool",
          "name": "approved",
          "type": "bool"
        }
      ],
      "name": "setApprovalForAll",
      "outputs": [],
      "stateMutability": "nonpayable",
      "type": "function"
    },
    {
      "inputs": [
        {
          "internalType": "string",
          "name": "_newBaseExtension",
          "type": "string"
        }
      ],
      "name": "setBaseExtension",
      "outputs": [],
      "stateMutability": "nonpayable",
      "type": "function"
    },
    {
      "inputs": [
        {
          "internalType": "string",
          "name": "_baseTokenURI",
          "type": "string"
        }
      ],
      "name": "setBaseURI",
      "outputs": [],
      "stateMutability": "nonpayable",
      "type": "function"
    },
    {
      "inputs": [
        {
          "internalType": "uint256",
          "name": "_newCost",
          "type": "uint256"
        }
      ],
      "name": "setCost",
      "outputs": [],
      "stateMutability": "nonpayable",
      "type": "function"
    },
    {
      "inputs": [
        {
          "internalType": "uint256",
          "name": "_limit",
          "type": "uint256"
        }
      ],
      "name": "setmaxMintAmount",
      "outputs": [],
      "stateMutability": "nonpayable",
      "type": "function"
    },
    {
      "inputs": [
        {
          "internalType": "uint256",
          "name": "_limit",
          "type": "uint256"
        }
      ],
      "name": "setmaxSupply",
      "outputs": [],
      "stateMutability": "nonpayable",
      "type": "function"
    },
    {
      "inputs": [
        {
          "internalType": "bytes4",
          "name": "interfaceId",
          "type": "bytes4"
        }
      ],
      "name": "supportsInterface",
      "outputs": [
        {
          "internalType": "bool",
          "name": "",
          "type": "bool"
        }
      ],
      "stateMutability": "view",
      "type": "function"
    },
    {
      "inputs": [],
      "name": "symbol",
      "outputs": [
        {
          "internalType": "string",
          "name": "",
          "type": "string"
        }
      ],
      "stateMutability": "view",
      "type": "function"
    },
    {
      "inputs": [
        {
          "internalType": "uint256",
          "name": "tokenId",
          "type": "uint256"
        }
      ],
      "name": "testOwnerOf",
      "outputs": [
        {
          "internalType": "bool",
          "name": "",
          "type": "bool"
        }
      ],
      "stateMutability": "view",
      "type": "function"
    },
    {
      "inputs": [
        {
          "internalType": "uint256",
          "name": "index",
          "type": "uint256"
        }
      ],
      "name": "tokenByIndex",
      "outputs": [
        {
          "internalType": "uint256",
          "name": "",
          "type": "uint256"
        }
      ],
      "stateMutability": "view",
      "type": "function"
    },
    {
      "inputs": [
        {
          "internalType": "address",
          "name": "owner",
          "type": "address"
        },
        {
          "internalType": "uint256",
          "name": "index",
          "type": "uint256"
        }
      ],
      "name": "tokenOfOwnerByIndex",
      "outputs": [
        {
          "internalType": "uint256",
          "name": "",
          "type": "uint256"
        }
      ],
      "stateMutability": "view",
      "type": "function"
    },
    {
      "inputs": [
        {
          "internalType": "uint256",
          "name": "tokenId",
          "type": "uint256"
        }
      ],
      "name": "tokenURI",
      "outputs": [
        {
          "internalType": "string",
          "name": "",
          "type": "string"
        }
      ],
      "stateMutability": "view",
      "type": "function"
    },
    {
      "inputs": [
        {
          "internalType": "address",
          "name": "_owner",
          "type": "address"
        }
      ],
      "name": "tokensOfOwner",
      "outputs": [
        {
          "internalType": "uint256[]",
          "name": "",
          "type": "uint256[]"
        }
      ],
      "stateMutability": "view",
      "type": "function"
    },
    {
      "inputs": [],
      "name": "totalSupply",
      "outputs": [
        {
          "internalType": "uint256",
          "name": "",
          "type": "uint256"
        }
      ],
      "stateMutability": "view",
      "type": "function"
    },
    {
      "inputs": [
        {
          "internalType": "address",
          "name": "from",
          "type": "address"
        },
        {
          "internalType": "address",
          "name": "to",
          "type": "address"
        },
        {
          "internalType": "uint256",
          "name": "tokenId",
          "type": "uint256"
        }
      ],
      "name": "transferFrom",
      "outputs": [],
      "stateMutability": "nonpayable",
      "type": "function"
    },
    {
      "inputs": [
        {
          "internalType": "address",
          "name": "newOwner",
          "type": "address"
        }
      ],
      "name": "transferOwnership",
      "outputs": [],
      "stateMutability": "nonpayable",
      "type": "function"
    },
    {
      "inputs": [],
      "name": "withdraw",
      "outputs": [],
      "stateMutability": "payable",
      "type": "function"
    }
  ],
  "bytecode": "0x60806040526000600d60006101000a81548160ff0219169083151502179055506040518060400160405280600581526020017f2e6a736f6e000000000000000000000000000000000000000000000000000000815250600e90805190602001906200006c92919062000334565b506001600f55600a601055655af3107a400060115560016012553480156200009357600080fd5b5060405162005798380380620057988339818101604052810190620000b9919062000462565b6040518060400160405280601581526020017f52657365617263682046756e64696e6720436c756200000000000000000000008152506040518060400160405280600381526020017f524643000000000000000000000000000000000000000000000000000000000081525081600090805190602001906200013d92919062000334565b5080600190805190602001906200015692919062000334565b505050620001796200016d6200019160201b60201c565b6200019960201b60201c565b6200018a816200025f60201b60201c565b50620006ba565b600033905090565b6000600a60009054906101000a900473ffffffffffffffffffffffffffffffffffffffff16905081600a60006101000a81548173ffffffffffffffffffffffffffffffffffffffff021916908373ffffffffffffffffffffffffffffffffffffffff1602179055508173ffffffffffffffffffffffffffffffffffffffff168173ffffffffffffffffffffffffffffffffffffffff167f8be0079c531659141344cd1fd0a4f28419497f9722a3daafe3b4186f6b6457e060405160405180910390a35050565b6200026f6200019160201b60201c565b73ffffffffffffffffffffffffffffffffffffffff16620002956200030a60201b60201c565b73ffffffffffffffffffffffffffffffffffffffff1614620002ee576040517f08c379a0000000000000000000000000000000000000000000000000000000008152600401620002e590620004da565b60405180910390fd5b80600c90805190602001906200030692919062000334565b5050565b6000600a60009054906101000a900473ffffffffffffffffffffffffffffffffffffffff16905090565b8280546200034290620005a2565b90600052602060002090601f016020900481019282620003665760008555620003b2565b82601f106200038157805160ff1916838001178555620003b2565b82800160010185558215620003b2579182015b82811115620003b157825182559160200191906001019062000394565b5b509050620003c19190620003c5565b5090565b5b80821115620003e0576000816000905550600101620003c6565b5090565b6000620003fb620003f58462000525565b620004fc565b9050828152602081018484840111156200041a576200041962000671565b5b620004278482856200056c565b509392505050565b600082601f8301126200044757620004466200066c565b5b815162000459848260208601620003e4565b91505092915050565b6000602082840312156200047b576200047a6200067b565b5b600082015167ffffffffffffffff8111156200049c576200049b62000676565b5b620004aa848285016200042f565b91505092915050565b6000620004c26020836200055b565b9150620004cf8262000691565b602082019050919050565b60006020820190508181036000830152620004f581620004b3565b9050919050565b6000620005086200051b565b9050620005168282620005d8565b919050565b6000604051905090565b600067ffffffffffffffff8211156200054357620005426200063d565b5b6200054e8262000680565b9050602081019050919050565b600082825260208201905092915050565b60005b838110156200058c5780820151818401526020810190506200056f565b838111156200059c576000848401525b50505050565b60006002820490506001821680620005bb57607f821691505b60208210811415620005d257620005d16200060e565b5b50919050565b620005e38262000680565b810181811067ffffffffffffffff821117156200060557620006046200063d565b5b80604052505050565b7f4e487b7100000000000000000000000000000000000000000000000000000000600052602260045260246000fd5b7f4e487b7100000000000000000000000000000000000000000000000000000000600052604160045260246000fd5b600080fd5b600080fd5b600080fd5b600080fd5b6000601f19601f8301169050919050565b7f4f776e61626c653a2063616c6c6572206973206e6f7420746865206f776e6572600082015250565b6150ce80620006ca6000396000f3fe60806040526004361061021a5760003560e01c80636352211e11610123578063a22cb465116100ab578063da3ef23f1161006f578063da3ef23f146107b7578063e985e9c5146107e0578063f1a91a681461081d578063f2fde38b14610846578063f7aeffc91461086f5761021a565b8063a22cb465146106d2578063b88d4fde146106fb578063c668286214610724578063c87b56dd1461074f578063d547cfb71461078c5761021a565b80638462151c116100f25780638462151c146105f85780638d859f3e146106355780638da5cb5b1461066057806395d89b411461068b578063a0712d68146106b65761021a565b80636352211e1461053e57806370a082311461057b578063715018a6146105b85780637f00c7a6146105cf5761021a565b80632f745c59116101a657806342842e0e1161017557806342842e0e1461045b57806344a0d68a146104845780634f6ccce7146104ad57806355f804b3146104ea5780635c975abb146105135761021a565b80632f745c59146103be57806332cb6b0c146103fb57806335917c64146104265780633ccfd60b146104515761021a565b8063095ea7b3116101ed578063095ea7b3146102ed57806309d42b301461031657806318160ddd14610341578063228025e81461036c57806323b872dd146103955761021a565b806301ffc9a71461021f57806302329a291461025c57806306fdde0314610285578063081812fc146102b0575b600080fd5b34801561022b57600080fd5b506102466004803603810190610241919061370a565b6108ac565b6040516102539190613fad565b60405180910390f35b34801561026857600080fd5b50610283600480360381019061027e91906136dd565b6108be565b005b34801561029157600080fd5b5061029a610957565b6040516102a79190613fc8565b60405180910390f35b3480156102bc57600080fd5b506102d760048036038101906102d291906137ad565b6109e9565b6040516102e49190613f24565b60405180910390f35b3480156102f957600080fd5b50610314600480360381019061030f919061369d565b610a6e565b005b34801561032257600080fd5b5061032b610b86565b604051610338919061438a565b60405180910390f35b34801561034d57600080fd5b50610356610b8c565b604051610363919061438a565b60405180910390f35b34801561037857600080fd5b50610393600480360381019061038e91906137ad565b610b99565b005b3480156103a157600080fd5b506103bc60048036038101906103b79190613587565b610c1f565b005b3480156103ca57600080fd5b506103e560048036038101906103e0919061369d565b610c7f565b6040516103f2919061438a565b60405180910390f35b34801561040757600080fd5b50610410610d24565b60405161041d919061438a565b60405180910390f35b34801561043257600080fd5b5061043b610d2a565b604051610448919061438a565b60405180910390f35b610459610d30565b005b34801561046757600080fd5b50610482600480360381019061047d9190613587565b610ea4565b005b34801561049057600080fd5b506104ab60048036038101906104a691906137ad565b610ec4565b005b3480156104b957600080fd5b506104d460048036038101906104cf91906137ad565b610f4a565b6040516104e1919061438a565b60405180910390f35b3480156104f657600080fd5b50610511600480360381019061050c9190613764565b610fbb565b005b34801561051f57600080fd5b50610528611051565b6040516105359190613fad565b60405180910390f35b34801561054a57600080fd5b50610565600480360381019061056091906137ad565b611064565b6040516105729190613f24565b60405180910390f35b34801561058757600080fd5b506105a2600480360381019061059d919061351a565b611116565b6040516105af919061438a565b60405180910390f35b3480156105c457600080fd5b506105cd6111ce565b005b3480156105db57600080fd5b506105f660048036038101906105f191906137ad565b611256565b005b34801561060457600080fd5b5061061f600480360381019061061a919061351a565b6112dc565b60405161062c9190613f8b565b60405180910390f35b34801561064157600080fd5b5061064a61138a565b604051610657919061438a565b60405180910390f35b34801561066c57600080fd5b50610675611390565b6040516106829190613f24565b60405180910390f35b34801561069757600080fd5b506106a06113ba565b6040516106ad9190613fc8565b60405180910390f35b6106d060048036038101906106cb91906137ad565b61144c565b005b3480156106de57600080fd5b506106f960048036038101906106f4919061365d565b611624565b005b34801561070757600080fd5b50610722600480360381019061071d91906135da565b61163a565b005b34801561073057600080fd5b5061073961169c565b6040516107469190613fc8565b60405180910390f35b34801561075b57600080fd5b50610776600480360381019061077191906137ad565b61172a565b6040516107839190613fc8565b60405180910390f35b34801561079857600080fd5b506107a1611784565b6040516107ae9190613fc8565b60405180910390f35b3480156107c357600080fd5b506107de60048036038101906107d99190613764565b611812565b005b3480156107ec57600080fd5b5061080760048036038101906108029190613547565b6118a8565b6040516108149190613fad565b60405180910390f35b34801561082957600080fd5b50610844600480360381019061083f91906137da565b61193c565b005b34801561085257600080fd5b5061086d6004803603810190610868919061351a565b611a17565b005b34801561087b57600080fd5b50610896600480360381019061089191906137ad565b611b0f565b6040516108a39190613fad565b60405180910390f35b60006108b782611b91565b9050919050565b6108c6611c0b565b73ffffffffffffffffffffffffffffffffffffffff166108e4611390565b73ffffffffffffffffffffffffffffffffffffffff161461093a576040517f08c379a00000000000000000000000000000000000000000000000000000000081526004016109319061424a565b60405180910390fd5b80600d60006101000a81548160ff02191690831515021790555050565b606060008054610966906146a5565b80601f0160208091040260200160405190810160405280929190818152602001828054610992906146a5565b80156109df5780601f106109b4576101008083540402835291602001916109df565b820191906000526020600020905b8154815290600101906020018083116109c257829003601f168201915b5050505050905090565b60006109f482611c13565b610a33576040517f08c379a0000000000000000000000000000000000000000000000000000000008152600401610a2a9061422a565b60405180910390fd5b6004600083815260200190815260200160002060009054906101000a900473ffffffffffffffffffffffffffffffffffffffff169050919050565b6000610a7982611064565b90508073ffffffffffffffffffffffffffffffffffffffff168373ffffffffffffffffffffffffffffffffffffffff161415610aea576040517f08c379a0000000000000000000000000000000000000000000000000000000008152600401610ae19061428a565b60405180910390fd5b8073ffffffffffffffffffffffffffffffffffffffff16610b09611c0b565b73ffffffffffffffffffffffffffffffffffffffff161480610b385750610b3781610b32611c0b565b6118a8565b5b610b77576040517f08c379a0000000000000000000000000000000000000000000000000000000008152600401610b6e9061414a565b60405180910390fd5b610b818383611c7f565b505050565b60125481565b6000600880549050905090565b610ba1611c0b565b73ffffffffffffffffffffffffffffffffffffffff16610bbf611390565b73ffffffffffffffffffffffffffffffffffffffff1614610c15576040517f08c379a0000000000000000000000000000000000000000000000000000000008152600401610c0c9061424a565b60405180910390fd5b8060108190555050565b610c30610c2a611c0b565b82611d38565b610c6f576040517f08c379a0000000000000000000000000000000000000000000000000000000008152600401610c66906142ea565b60405180910390fd5b610c7a838383611e16565b505050565b6000610c8a83611116565b8210610ccb576040517f08c379a0000000000000000000000000000000000000000000000000000000008152600401610cc290613fea565b60405180910390fd5b600660008473ffffffffffffffffffffffffffffffffffffffff1673ffffffffffffffffffffffffffffffffffffffff168152602001908152602001600020600083815260200190815260200160002054905092915050565b60105481565b600f5481565b610d38611c0b565b73ffffffffffffffffffffffffffffffffffffffff16610d56611390565b73ffffffffffffffffffffffffffffffffffffffff1614610dac576040517f08c379a0000000000000000000000000000000000000000000000000000000008152600401610da39061424a565b60405180910390fd5b600047905060008111610df4576040517f08c379a0000000000000000000000000000000000000000000000000000000008152600401610deb9061430a565b60405180910390fd5b60003373ffffffffffffffffffffffffffffffffffffffff1682604051610e1a90613ef4565b60006040518083038185875af1925050503d8060008114610e57576040519150601f19603f3d011682016040523d82523d6000602084013e610e5c565b606091505b5050905080610ea0576040517f08c379a0000000000000000000000000000000000000000000000000000000008152600401610e97906142ca565b60405180910390fd5b5050565b610ebf8383836040518060200160405280600081525061163a565b505050565b610ecc611c0b565b73ffffffffffffffffffffffffffffffffffffffff16610eea611390565b73ffffffffffffffffffffffffffffffffffffffff1614610f40576040517f08c379a0000000000000000000000000000000000000000000000000000000008152600401610f379061424a565b60405180910390fd5b8060118190555050565b6000610f54610b8c565b8210610f95576040517f08c379a0000000000000000000000000000000000000000000000000000000008152600401610f8c9061432a565b60405180910390fd5b60088281548110610fa957610fa861487e565b5b90600052602060002001549050919050565b610fc3611c0b565b73ffffffffffffffffffffffffffffffffffffffff16610fe1611390565b73ffffffffffffffffffffffffffffffffffffffff1614611037576040517f08c379a000000000000000000000000000000000000000000000000000000000815260040161102e9061424a565b60405180910390fd5b80600c908051906020019061104d92919061332e565b5050565b600d60009054906101000a900460ff1681565b6000806002600084815260200190815260200160002060009054906101000a900473ffffffffffffffffffffffffffffffffffffffff169050600073ffffffffffffffffffffffffffffffffffffffff168173ffffffffffffffffffffffffffffffffffffffff16141561110d576040517f08c379a00000000000000000000000000000000000000000000000000000000081526004016111049061418a565b60405180910390fd5b80915050919050565b60008073ffffffffffffffffffffffffffffffffffffffff168273ffffffffffffffffffffffffffffffffffffffff161415611187576040517f08c379a000000000000000000000000000000000000000000000000000000000815260040161117e9061416a565b60405180910390fd5b600360008373ffffffffffffffffffffffffffffffffffffffff1673ffffffffffffffffffffffffffffffffffffffff168152602001908152602001600020549050919050565b6111d6611c0b565b73ffffffffffffffffffffffffffffffffffffffff166111f4611390565b73ffffffffffffffffffffffffffffffffffffffff161461124a576040517f08c379a00000000000000000000000000000000000000000000000000000000081526004016112419061424a565b60405180910390fd5b611254600061207d565b565b61125e611c0b565b73ffffffffffffffffffffffffffffffffffffffff1661127c611390565b73ffffffffffffffffffffffffffffffffffffffff16146112d2576040517f08c379a00000000000000000000000000000000000000000000000000000000081526004016112c99061424a565b60405180910390fd5b8060128190555050565b606060006112e983611116565b905060008167ffffffffffffffff811115611307576113066148ad565b5b6040519080825280602002602001820160405280156113355781602001602082028036833780820191505090505b50905060005b8281101561137f5761134d8582610c7f565b8282815181106113605761135f61487e565b5b602002602001018181525050808061137790614708565b91505061133b565b508092505050919050565b60115481565b6000600a60009054906101000a900473ffffffffffffffffffffffffffffffffffffffff16905090565b6060600180546113c9906146a5565b80601f01602080910402602001604051908101604052809291908181526020018280546113f5906146a5565b80156114425780601f1061141757610100808354040283529160200191611442565b820191906000526020600020905b81548152906001019060200180831161142557829003601f168201915b5050505050905090565b600d60009054906101000a900460ff161561149c576040517f08c379a00000000000000000000000000000000000000000000000000000000081526004016114939061402a565b60405180910390fd5b60006114a6610b8c565b9050600082116114eb576040517f08c379a00000000000000000000000000000000000000000000000000000000081526004016114e29061434a565b60405180910390fd5b60105482826114fa91906144c8565b111561153b576040517f08c379a0000000000000000000000000000000000000000000000000000000008152600401611532906141ca565b60405180910390fd5b601254821115611580576040517f08c379a0000000000000000000000000000000000000000000000000000000008152600401611577906140ca565b60405180910390fd5b600061158c6000612143565b90508260115461159c919061454f565b3410156115de576040517f08c379a00000000000000000000000000000000000000000000000000000000081526004016115d5906142aa565b60405180910390fd5b6115e833826121df565b61161f81600c6115f7846121fd565b600e60405160200161160b93929190613ec3565b60405160208183030381529060405261235e565b505050565b61163661162f611c0b565b83836123d2565b5050565b61164b611645611c0b565b83611d38565b61168a576040517f08c379a0000000000000000000000000000000000000000000000000000000008152600401611681906142ea565b60405180910390fd5b6116968484848461253f565b50505050565b600e80546116a9906146a5565b80601f01602080910402602001604051908101604052809291908181526020018280546116d5906146a5565b80156117225780601f106116f757610100808354040283529160200191611722565b820191906000526020600020905b81548152906001019060200180831161170557829003601f168201915b505050505081565b606061173582611c13565b611774576040517f08c379a000000000000000000000000000000000000000000000000000000000815260040161176b9061420a565b60405180910390fd5b61177d8261259b565b9050919050565b600c8054611791906146a5565b80601f01602080910402602001604051908101604052809291908181526020018280546117bd906146a5565b801561180a5780601f106117df5761010080835404028352916020019161180a565b820191906000526020600020905b8154815290600101906020018083116117ed57829003601f168201915b505050505081565b61181a611c0b565b73ffffffffffffffffffffffffffffffffffffffff16611838611390565b73ffffffffffffffffffffffffffffffffffffffff161461188e576040517f08c379a00000000000000000000000000000000000000000000000000000000081526004016118859061424a565b60405180910390fd5b80600e90805190602001906118a492919061332e565b5050565b6000600560008473ffffffffffffffffffffffffffffffffffffffff1673ffffffffffffffffffffffffffffffffffffffff16815260200190815260200160002060008373ffffffffffffffffffffffffffffffffffffffff1673ffffffffffffffffffffffffffffffffffffffff16815260200190815260200160002060009054906101000a900460ff16905092915050565b611944611c0b565b73ffffffffffffffffffffffffffffffffffffffff16611962611390565b73ffffffffffffffffffffffffffffffffffffffff16146119b8576040517f08c379a00000000000000000000000000000000000000000000000000000000081526004016119af9061424a565b60405180910390fd5b6010546119c3610b8c565b14611a03576040517f08c379a00000000000000000000000000000000000000000000000000000000081526004016119fa9061404a565b60405180910390fd5b81601081905550611a1381610fbb565b5050565b611a1f611c0b565b73ffffffffffffffffffffffffffffffffffffffff16611a3d611390565b73ffffffffffffffffffffffffffffffffffffffff1614611a93576040517f08c379a0000000000000000000000000000000000000000000000000000000008152600401611a8a9061424a565b60405180910390fd5b600073ffffffffffffffffffffffffffffffffffffffff168173ffffffffffffffffffffffffffffffffffffffff161415611b03576040517f08c379a0000000000000000000000000000000000000000000000000000000008152600401611afa9061406a565b60405180910390fd5b611b0c8161207d565b50565b6000806002600084815260200190815260200160002060009054906101000a900473ffffffffffffffffffffffffffffffffffffffff169050600073ffffffffffffffffffffffffffffffffffffffff168173ffffffffffffffffffffffffffffffffffffffff1614611b86576001915050611b8c565b60009150505b919050565b60007f780e9d63000000000000000000000000000000000000000000000000000000007bffffffffffffffffffffffffffffffffffffffffffffffffffffffff1916827bffffffffffffffffffffffffffffffffffffffffffffffffffffffff19161480611c045750611c038261272b565b5b9050919050565b600033905090565b60008073ffffffffffffffffffffffffffffffffffffffff166002600084815260200190815260200160002060009054906101000a900473ffffffffffffffffffffffffffffffffffffffff1673ffffffffffffffffffffffffffffffffffffffff1614159050919050565b816004600083815260200190815260200160002060006101000a81548173ffffffffffffffffffffffffffffffffffffffff021916908373ffffffffffffffffffffffffffffffffffffffff160217905550808273ffffffffffffffffffffffffffffffffffffffff16611cf283611064565b73ffffffffffffffffffffffffffffffffffffffff167f8c5be1e5ebec7d5bd14f71427d1e84f3dd0314c0f7b2291e5b200ac8c7c3b92560405160405180910390a45050565b6000611d4382611c13565b611d82576040517f08c379a0000000000000000000000000000000000000000000000000000000008152600401611d799061412a565b60405180910390fd5b6000611d8d83611064565b90508073ffffffffffffffffffffffffffffffffffffffff168473ffffffffffffffffffffffffffffffffffffffff161480611dfc57508373ffffffffffffffffffffffffffffffffffffffff16611de4846109e9565b73ffffffffffffffffffffffffffffffffffffffff16145b80611e0d5750611e0c81856118a8565b5b91505092915050565b8273ffffffffffffffffffffffffffffffffffffffff16611e3682611064565b73ffffffffffffffffffffffffffffffffffffffff1614611e8c576040517f08c379a0000000000000000000000000000000000000000000000000000000008152600401611e839061408a565b60405180910390fd5b600073ffffffffffffffffffffffffffffffffffffffff168273ffffffffffffffffffffffffffffffffffffffff161415611efc576040517f08c379a0000000000000000000000000000000000000000000000000000000008152600401611ef3906140ea565b60405180910390fd5b611f0783838361280d565b611f12600082611c7f565b6001600360008573ffffffffffffffffffffffffffffffffffffffff1673ffffffffffffffffffffffffffffffffffffffff1681526020019081526020016000206000828254611f6291906145a9565b925050819055506001600360008473ffffffffffffffffffffffffffffffffffffffff1673ffffffffffffffffffffffffffffffffffffffff1681526020019081526020016000206000828254611fb991906144c8565b92505081905550816002600083815260200190815260200160002060006101000a81548173ffffffffffffffffffffffffffffffffffffffff021916908373ffffffffffffffffffffffffffffffffffffffff160217905550808273ffffffffffffffffffffffffffffffffffffffff168473ffffffffffffffffffffffffffffffffffffffff167fddf252ad1be2c89b69c2b068fc378daa952ba7f163c4a11628f55a4df523b3ef60405160405180910390a461207883838361281d565b505050565b6000600a60009054906101000a900473ffffffffffffffffffffffffffffffffffffffff16905081600a60006101000a81548173ffffffffffffffffffffffffffffffffffffffff021916908373ffffffffffffffffffffffffffffffffffffffff1602179055508173ffffffffffffffffffffffffffffffffffffffff168173ffffffffffffffffffffffffffffffffffffffff167f8be0079c531659141344cd1fd0a4f28419497f9722a3daafe3b4186f6b6457e060405160405180910390a35050565b60008061214e610b8c565b90506010548110612194576040517f08c379a000000000000000000000000000000000000000000000000000000000815260040161218b9061436a565b60405180910390fd5b60006121a03385612822565b9050600015156121af82611b0f565b151514156121c15780925050506121da565b6121d584826121d091906144c8565b612143565b925050505b919050565b6121f9828260405180602001604052806000815250612936565b5050565b60606000821415612245576040518060400160405280600181526020017f30000000000000000000000000000000000000000000000000000000000000008152509050612359565b600082905060005b6000821461227757808061226090614708565b915050600a82612270919061451e565b915061224d565b60008167ffffffffffffffff811115612293576122926148ad565b5b6040519080825280601f01601f1916602001820160405280156122c55781602001600182028036833780820191505090505b5090505b60008514612352576001826122de91906145a9565b9150600a856122ed9190614791565b60306122f991906144c8565b60f81b81838151811061230f5761230e61487e565b5b60200101907effffffffffffffffffffffffffffffffffffffffffffffffffffffffffffff1916908160001a905350600a8561234b919061451e565b94506122c9565b8093505050505b919050565b61236782611c13565b6123a6576040517f08c379a000000000000000000000000000000000000000000000000000000000815260040161239d906141aa565b60405180910390fd5b80600b600084815260200190815260200160002090805190602001906123cd92919061332e565b505050565b8173ffffffffffffffffffffffffffffffffffffffff168373ffffffffffffffffffffffffffffffffffffffff161415612441576040517f08c379a00000000000000000000000000000000000000000000000000000000081526004016124389061410a565b60405180910390fd5b80600560008573ffffffffffffffffffffffffffffffffffffffff1673ffffffffffffffffffffffffffffffffffffffff16815260200190815260200160002060008473ffffffffffffffffffffffffffffffffffffffff1673ffffffffffffffffffffffffffffffffffffffff16815260200190815260200160002060006101000a81548160ff0219169083151502179055508173ffffffffffffffffffffffffffffffffffffffff168373ffffffffffffffffffffffffffffffffffffffff167f17307eab39ab6107e8899845ad3d59bd9653f200f220920489ca2b5937696c31836040516125329190613fad565b60405180910390a3505050565b61254a848484611e16565b61255684848484612991565b612595576040517f08c379a000000000000000000000000000000000000000000000000000000000815260040161258c9061400a565b60405180910390fd5b50505050565b60606125a682611c13565b6125e5576040517f08c379a00000000000000000000000000000000000000000000000000000000081526004016125dc9061420a565b60405180910390fd5b6000600b60008481526020019081526020016000208054612605906146a5565b80601f0160208091040260200160405190810160405280929190818152602001828054612631906146a5565b801561267e5780601f106126535761010080835404028352916020019161267e565b820191906000526020600020905b81548152906001019060200180831161266157829003601f168201915b50505050509050600061268f612b28565b90506000815114156126a5578192505050612726565b600082511115612718576126ed6040518060400160405280600981526020017f4920616d20686572650000000000000000000000000000000000000000000000815250612b3f565b8082604051602001612700929190613e9f565b60405160208183030381529060405292505050612726565b61272184612bd8565b925050505b919050565b60007f80ac58cd000000000000000000000000000000000000000000000000000000007bffffffffffffffffffffffffffffffffffffffffffffffffffffffff1916827bffffffffffffffffffffffffffffffffffffffffffffffffffffffff191614806127f657507f5b5e139f000000000000000000000000000000000000000000000000000000007bffffffffffffffffffffffffffffffffffffffffffffffffffffffff1916827bffffffffffffffffffffffffffffffffffffffffffffffffffffffff1916145b80612806575061280582612c7f565b5b9050919050565b612818838383612ce9565b505050565b505050565b6000804342856040516020016128389190613e69565b6040516020818303038152906040528051906020012060001c61285b919061451e565b45424160405160200161286e9190613e84565b6040516020818303038152906040528051906020012060001c612891919061451e565b44874261289e91906145a9565b6128a891906144c8565b6128b291906144c8565b6128bc91906144c8565b6128c691906144c8565b6128d091906144c8565b6040516020016128e09190613f09565b6040516020818303038152906040528051906020012060001c905060016010546010548361290e919061451e565b612918919061454f565b8261292391906145a9565b61292d91906144c8565b91505092915050565b6129408383612dfd565b61294d6000848484612991565b61298c576040517f08c379a00000000000000000000000000000000000000000000000000000000081526004016129839061400a565b60405180910390fd5b505050565b60006129b28473ffffffffffffffffffffffffffffffffffffffff16612fd7565b15612b1b578373ffffffffffffffffffffffffffffffffffffffff1663150b7a026129db611c0b565b8786866040518563ffffffff1660e01b81526004016129fd9493929190613f3f565b602060405180830381600087803b158015612a1757600080fd5b505af1925050508015612a4857506040513d601f19601f82011682018060405250810190612a459190613737565b60015b612acb573d8060008114612a78576040519150601f19603f3d011682016040523d82523d6000602084013e612a7d565b606091505b50600081511415612ac3576040517f08c379a0000000000000000000000000000000000000000000000000000000008152600401612aba9061400a565b60405180910390fd5b805181602001fd5b63150b7a0260e01b7bffffffffffffffffffffffffffffffffffffffffffffffffffffffff1916817bffffffffffffffffffffffffffffffffffffffffffffffffffffffff191614915050612b20565b600190505b949350505050565b606060405180602001604052806000815250905090565b612bd581604051602401612b539190613fc8565b6040516020818303038152906040527f41304fac000000000000000000000000000000000000000000000000000000007bffffffffffffffffffffffffffffffffffffffffffffffffffffffff19166020820180517bffffffffffffffffffffffffffffffffffffffffffffffffffffffff8381831617835250505050612ffa565b50565b6060612be382611c13565b612c22576040517f08c379a0000000000000000000000000000000000000000000000000000000008152600401612c199061426a565b60405180910390fd5b6000612c2c612b28565b90506000815111612c4c5760405180602001604052806000815250612c77565b80612c56846121fd565b604051602001612c67929190613e9f565b6040516020818303038152906040525b915050919050565b60007f01ffc9a7000000000000000000000000000000000000000000000000000000007bffffffffffffffffffffffffffffffffffffffffffffffffffffffff1916827bffffffffffffffffffffffffffffffffffffffffffffffffffffffff1916149050919050565b612cf4838383613023565b600073ffffffffffffffffffffffffffffffffffffffff168373ffffffffffffffffffffffffffffffffffffffff161415612d3757612d3281613028565b612d76565b8173ffffffffffffffffffffffffffffffffffffffff168373ffffffffffffffffffffffffffffffffffffffff1614612d7557612d748382613071565b5b5b600073ffffffffffffffffffffffffffffffffffffffff168273ffffffffffffffffffffffffffffffffffffffff161415612db957612db4816131de565b612df8565b8273ffffffffffffffffffffffffffffffffffffffff168273ffffffffffffffffffffffffffffffffffffffff1614612df757612df682826132af565b5b5b505050565b600073ffffffffffffffffffffffffffffffffffffffff168273ffffffffffffffffffffffffffffffffffffffff161415612e6d576040517f08c379a0000000000000000000000000000000000000000000000000000000008152600401612e64906141ea565b60405180910390fd5b612e7681611c13565b15612eb6576040517f08c379a0000000000000000000000000000000000000000000000000000000008152600401612ead906140aa565b60405180910390fd5b612ec26000838361280d565b6001600360008473ffffffffffffffffffffffffffffffffffffffff1673ffffffffffffffffffffffffffffffffffffffff1681526020019081526020016000206000828254612f1291906144c8565b92505081905550816002600083815260200190815260200160002060006101000a81548173ffffffffffffffffffffffffffffffffffffffff021916908373ffffffffffffffffffffffffffffffffffffffff160217905550808273ffffffffffffffffffffffffffffffffffffffff16600073ffffffffffffffffffffffffffffffffffffffff167fddf252ad1be2c89b69c2b068fc378daa952ba7f163c4a11628f55a4df523b3ef60405160405180910390a4612fd36000838361281d565b5050565b6000808273ffffffffffffffffffffffffffffffffffffffff163b119050919050565b60008151905060006a636f6e736f6c652e6c6f679050602083016000808483855afa5050505050565b505050565b6008805490506009600083815260200190815260200160002081905550600881908060018154018082558091505060019003906000526020600020016000909190919091505550565b6000600161307e84611116565b61308891906145a9565b905060006007600084815260200190815260200160002054905081811461316d576000600660008673ffffffffffffffffffffffffffffffffffffffff1673ffffffffffffffffffffffffffffffffffffffff168152602001908152602001600020600084815260200190815260200160002054905080600660008773ffffffffffffffffffffffffffffffffffffffff1673ffffffffffffffffffffffffffffffffffffffff168152602001908152602001600020600084815260200190815260200160002081905550816007600083815260200190815260200160002081905550505b6007600084815260200190815260200160002060009055600660008573ffffffffffffffffffffffffffffffffffffffff1673ffffffffffffffffffffffffffffffffffffffff16815260200190815260200160002060008381526020019081526020016000206000905550505050565b600060016008805490506131f291906145a9565b90506000600960008481526020019081526020016000205490506000600883815481106132225761322161487e565b5b9060005260206000200154905080600883815481106132445761324361487e565b5b9060005260206000200181905550816009600083815260200190815260200160002081905550600960008581526020019081526020016000206000905560088054806132935761329261484f565b5b6001900381819060005260206000200160009055905550505050565b60006132ba83611116565b905081600660008573ffffffffffffffffffffffffffffffffffffffff1673ffffffffffffffffffffffffffffffffffffffff168152602001908152602001600020600083815260200190815260200160002081905550806007600084815260200190815260200160002081905550505050565b82805461333a906146a5565b90600052602060002090601f01602090048101928261335c57600085556133a3565b82601f1061337557805160ff19168380011785556133a3565b828001600101855582156133a3579182015b828111156133a2578251825591602001919060010190613387565b5b5090506133b091906133b4565b5090565b5b808211156133cd5760008160009055506001016133b5565b5090565b60006133e46133df846143ca565b6143a5565b905082815260208101848484011115613400576133ff6148e1565b5b61340b848285614663565b509392505050565b6000613426613421846143fb565b6143a5565b905082815260208101848484011115613442576134416148e1565b5b61344d848285614663565b509392505050565b6000813590506134648161503c565b92915050565b60008135905061347981615053565b92915050565b60008135905061348e8161506a565b92915050565b6000815190506134a38161506a565b92915050565b600082601f8301126134be576134bd6148dc565b5b81356134ce8482602086016133d1565b91505092915050565b600082601f8301126134ec576134eb6148dc565b5b81356134fc848260208601613413565b91505092915050565b60008135905061351481615081565b92915050565b6000602082840312156135305761352f6148eb565b5b600061353e84828501613455565b91505092915050565b6000806040838503121561355e5761355d6148eb565b5b600061356c85828601613455565b925050602061357d85828601613455565b9150509250929050565b6000806000606084860312156135a05761359f6148eb565b5b60006135ae86828701613455565b93505060206135bf86828701613455565b92505060406135d086828701613505565b9150509250925092565b600080600080608085870312156135f4576135f36148eb565b5b600061360287828801613455565b945050602061361387828801613455565b935050604061362487828801613505565b925050606085013567ffffffffffffffff811115613645576136446148e6565b5b613651878288016134a9565b91505092959194509250565b60008060408385031215613674576136736148eb565b5b600061368285828601613455565b92505060206136938582860161346a565b9150509250929050565b600080604083850312156136b4576136b36148eb565b5b60006136c285828601613455565b92505060206136d385828601613505565b9150509250929050565b6000602082840312156136f3576136f26148eb565b5b60006137018482850161346a565b91505092915050565b6000602082840312156137205761371f6148eb565b5b600061372e8482850161347f565b91505092915050565b60006020828403121561374d5761374c6148eb565b5b600061375b84828501613494565b91505092915050565b60006020828403121561377a576137796148eb565b5b600082013567ffffffffffffffff811115613798576137976148e6565b5b6137a4848285016134d7565b91505092915050565b6000602082840312156137c3576137c26148eb565b5b60006137d184828501613505565b91505092915050565b600080604083850312156137f1576137f06148eb565b5b60006137ff85828601613505565b925050602083013567ffffffffffffffff8111156138205761381f6148e6565b5b61382c858286016134d7565b9150509250929050565b60006138428383613e34565b60208301905092915050565b61385f61385a826145ef565b614763565b82525050565b61386e816145dd565b82525050565b613885613880826145dd565b614751565b82525050565b600061389682614451565b6138a0818561447f565b93506138ab8361442c565b8060005b838110156138dc5781516138c38882613836565b97506138ce83614472565b9250506001810190506138af565b5085935050505092915050565b6138f281614601565b82525050565b60006139038261445c565b61390d8185614490565b935061391d818560208601614672565b613926816148f0565b840191505092915050565b600061393c82614467565b61394681856144ac565b9350613956818560208601614672565b61395f816148f0565b840191505092915050565b600061397582614467565b61397f81856144bd565b935061398f818560208601614672565b80840191505092915050565b600081546139a8816146a5565b6139b281866144bd565b945060018216600081146139cd57600181146139de57613a11565b60ff19831686528186019350613a11565b6139e78561443c565b60005b83811015613a09578154818901526001820191506020810190506139ea565b838801955050505b50505092915050565b6000613a27602b836144ac565b9150613a328261490e565b604082019050919050565b6000613a4a6032836144ac565b9150613a558261495d565b604082019050919050565b6000613a6d6016836144ac565b9150613a78826149ac565b602082019050919050565b6000613a906029836144ac565b9150613a9b826149d5565b604082019050919050565b6000613ab36026836144ac565b9150613abe82614a24565b604082019050919050565b6000613ad66025836144ac565b9150613ae182614a73565b604082019050919050565b6000613af9601c836144ac565b9150613b0482614ac2565b602082019050919050565b6000613b1c601c836144ac565b9150613b2782614aeb565b602082019050919050565b6000613b3f6024836144ac565b9150613b4a82614b14565b604082019050919050565b6000613b626019836144ac565b9150613b6d82614b63565b602082019050919050565b6000613b85602c836144ac565b9150613b9082614b8c565b604082019050919050565b6000613ba86038836144ac565b9150613bb382614bdb565b604082019050919050565b6000613bcb602a836144ac565b9150613bd682614c2a565b604082019050919050565b6000613bee6029836144ac565b9150613bf982614c79565b604082019050919050565b6000613c11602e836144ac565b9150613c1c82614cc8565b604082019050919050565b6000613c346016836144ac565b9150613c3f82614d17565b602082019050919050565b6000613c576020836144ac565b9150613c6282614d40565b602082019050919050565b6000613c7a6031836144ac565b9150613c8582614d69565b604082019050919050565b6000613c9d602c836144ac565b9150613ca882614db8565b604082019050919050565b6000613cc06020836144ac565b9150613ccb82614e07565b602082019050919050565b6000613ce3602f836144ac565b9150613cee82614e30565b604082019050919050565b6000613d066021836144ac565b9150613d1182614e7f565b604082019050919050565b6000613d296000836144a1565b9150613d3482614ece565b600082019050919050565b6000613d4c6012836144ac565b9150613d5782614ed1565b602082019050919050565b6000613d6f6010836144ac565b9150613d7a82614efa565b602082019050919050565b6000613d926031836144ac565b9150613d9d82614f23565b604082019050919050565b6000613db5601a836144ac565b9150613dc082614f72565b602082019050919050565b6000613dd8602c836144ac565b9150613de382614f9b565b604082019050919050565b6000613dfb6012836144ac565b9150613e0682614fea565b602082019050919050565b6000613e1e6013836144ac565b9150613e2982615013565b602082019050919050565b613e3d81614659565b82525050565b613e4c81614659565b82525050565b613e63613e5e82614659565b614787565b82525050565b6000613e758284613874565b60148201915081905092915050565b6000613e90828461384e565b60148201915081905092915050565b6000613eab828561396a565b9150613eb7828461396a565b91508190509392505050565b6000613ecf828661399b565b9150613edb828561396a565b9150613ee7828461399b565b9150819050949350505050565b6000613eff82613d1c565b9150819050919050565b6000613f158284613e52565b60208201915081905092915050565b6000602082019050613f396000830184613865565b92915050565b6000608082019050613f546000830187613865565b613f616020830186613865565b613f6e6040830185613e43565b8181036060830152613f8081846138f8565b905095945050505050565b60006020820190508181036000830152613fa5818461388b565b905092915050565b6000602082019050613fc260008301846138e9565b92915050565b60006020820190508181036000830152613fe28184613931565b905092915050565b6000602082019050818103600083015261400381613a1a565b9050919050565b6000602082019050818103600083015261402381613a3d565b9050919050565b6000602082019050818103600083015261404381613a60565b9050919050565b6000602082019050818103600083015261406381613a83565b9050919050565b6000602082019050818103600083015261408381613aa6565b9050919050565b600060208201905081810360008301526140a381613ac9565b9050919050565b600060208201905081810360008301526140c381613aec565b9050919050565b600060208201905081810360008301526140e381613b0f565b9050919050565b6000602082019050818103600083015261410381613b32565b9050919050565b6000602082019050818103600083015261412381613b55565b9050919050565b6000602082019050818103600083015261414381613b78565b9050919050565b6000602082019050818103600083015261416381613b9b565b9050919050565b6000602082019050818103600083015261418381613bbe565b9050919050565b600060208201905081810360008301526141a381613be1565b9050919050565b600060208201905081810360008301526141c381613c04565b9050919050565b600060208201905081810360008301526141e381613c27565b9050919050565b6000602082019050818103600083015261420381613c4a565b9050919050565b6000602082019050818103600083015261422381613c6d565b9050919050565b6000602082019050818103600083015261424381613c90565b9050919050565b6000602082019050818103600083015261426381613cb3565b9050919050565b6000602082019050818103600083015261428381613cd6565b9050919050565b600060208201905081810360008301526142a381613cf9565b9050919050565b600060208201905081810360008301526142c381613d3f565b9050919050565b600060208201905081810360008301526142e381613d62565b9050919050565b6000602082019050818103600083015261430381613d85565b9050919050565b6000602082019050818103600083015261432381613da8565b9050919050565b6000602082019050818103600083015261434381613dcb565b9050919050565b6000602082019050818103600083015261436381613dee565b9050919050565b6000602082019050818103600083015261438381613e11565b9050919050565b600060208201905061439f6000830184613e43565b92915050565b60006143af6143c0565b90506143bb82826146d7565b919050565b6000604051905090565b600067ffffffffffffffff8211156143e5576143e46148ad565b5b6143ee826148f0565b9050602081019050919050565b600067ffffffffffffffff821115614416576144156148ad565b5b61441f826148f0565b9050602081019050919050565b6000819050602082019050919050565b60008190508160005260206000209050919050565b600081519050919050565b600081519050919050565b600081519050919050565b6000602082019050919050565b600082825260208201905092915050565b600082825260208201905092915050565b600081905092915050565b600082825260208201905092915050565b600081905092915050565b60006144d382614659565b91506144de83614659565b9250827fffffffffffffffffffffffffffffffffffffffffffffffffffffffffffffffff03821115614513576145126147c2565b5b828201905092915050565b600061452982614659565b915061453483614659565b925082614544576145436147f1565b5b828204905092915050565b600061455a82614659565b915061456583614659565b9250817fffffffffffffffffffffffffffffffffffffffffffffffffffffffffffffffff048311821515161561459e5761459d6147c2565b5b828202905092915050565b60006145b482614659565b91506145bf83614659565b9250828210156145d2576145d16147c2565b5b828203905092915050565b60006145e882614639565b9050919050565b60006145fa82614639565b9050919050565b60008115159050919050565b60007fffffffff0000000000000000000000000000000000000000000000000000000082169050919050565b600073ffffffffffffffffffffffffffffffffffffffff82169050919050565b6000819050919050565b82818337600083830152505050565b60005b83811015614690578082015181840152602081019050614675565b8381111561469f576000848401525b50505050565b600060028204905060018216806146bd57607f821691505b602082108114156146d1576146d0614820565b5b50919050565b6146e0826148f0565b810181811067ffffffffffffffff821117156146ff576146fe6148ad565b5b80604052505050565b600061471382614659565b91507fffffffffffffffffffffffffffffffffffffffffffffffffffffffffffffffff821415614746576147456147c2565b5b600182019050919050565b600061475c82614775565b9050919050565b600061476e82614775565b9050919050565b600061478082614901565b9050919050565b6000819050919050565b600061479c82614659565b91506147a783614659565b9250826147b7576147b66147f1565b5b828206905092915050565b7f4e487b7100000000000000000000000000000000000000000000000000000000600052601160045260246000fd5b7f4e487b7100000000000000000000000000000000000000000000000000000000600052601260045260246000fd5b7f4e487b7100000000000000000000000000000000000000000000000000000000600052602260045260246000fd5b7f4e487b7100000000000000000000000000000000000000000000000000000000600052603160045260246000fd5b7f4e487b7100000000000000000000000000000000000000000000000000000000600052603260045260246000fd5b7f4e487b7100000000000000000000000000000000000000000000000000000000600052604160045260246000fd5b600080fd5b600080fd5b600080fd5b600080fd5b6000601f19601f8301169050919050565b60008160601b9050919050565b7f455243373231456e756d657261626c653a206f776e657220696e646578206f7560008201527f74206f6620626f756e6473000000000000000000000000000000000000000000602082015250565b7f4552433732313a207472616e7366657220746f206e6f6e20455243373231526560008201527f63656976657220696d706c656d656e7465720000000000000000000000000000602082015250565b7f54686520636f6e74726163742069732070617573656400000000000000000000600082015250565b7f50726576696f75732064726f702073616c657320686173206e6f742066696e6960008201527f73686564207965742e0000000000000000000000000000000000000000000000602082015250565b7f4f776e61626c653a206e6577206f776e657220697320746865207a65726f206160008201527f6464726573730000000000000000000000000000000000000000000000000000602082015250565b7f4552433732313a207472616e736665722066726f6d20696e636f72726563742060008201527f6f776e6572000000000000000000000000000000000000000000000000000000602082015250565b7f4552433732313a20746f6b656e20616c7265616479206d696e74656400000000600082015250565b7f6d6178204e465420706572206164647265737320657863656564656400000000600082015250565b7f4552433732313a207472616e7366657220746f20746865207a65726f2061646460008201527f7265737300000000000000000000000000000000000000000000000000000000602082015250565b7f4552433732313a20617070726f766520746f2063616c6c657200000000000000600082015250565b7f4552433732313a206f70657261746f7220717565727920666f72206e6f6e657860008201527f697374656e7420746f6b656e0000000000000000000000000000000000000000602082015250565b7f4552433732313a20617070726f76652063616c6c6572206973206e6f74206f7760008201527f6e6572206e6f7220617070726f76656420666f7220616c6c0000000000000000602082015250565b7f4552433732313a2062616c616e636520717565727920666f7220746865207a6560008201527f726f206164647265737300000000000000000000000000000000000000000000602082015250565b7f4552433732313a206f776e657220717565727920666f72206e6f6e657869737460008201527f656e7420746f6b656e0000000000000000000000000000000000000000000000602082015250565b7f45524337323155524953746f726167653a2055524920736574206f66206e6f6e60008201527f6578697374656e7420746f6b656e000000000000000000000000000000000000602082015250565b7f6d6178204e4654206c696d697420657863656564656400000000000000000000600082015250565b7f4552433732313a206d696e7420746f20746865207a65726f2061646472657373600082015250565b7f45524337323155524953746f726167653a2055524920717565727920666f722060008201527f6e6f6e6578697374656e7420746f6b656e000000000000000000000000000000602082015250565b7f4552433732313a20617070726f76656420717565727920666f72206e6f6e657860008201527f697374656e7420746f6b656e0000000000000000000000000000000000000000602082015250565b7f4f776e61626c653a2063616c6c6572206973206e6f7420746865206f776e6572600082015250565b7f4552433732314d657461646174613a2055524920717565727920666f72206e6f60008201527f6e6578697374656e7420746f6b656e0000000000000000000000000000000000602082015250565b7f4552433732313a20617070726f76616c20746f2063757272656e74206f776e6560008201527f7200000000000000000000000000000000000000000000000000000000000000602082015250565b50565b7f696e73756666696369656e742066756e64730000000000000000000000000000600082015250565b7f5472616e73666572206661696c65642e00000000000000000000000000000000600082015250565b7f4552433732313a207472616e736665722063616c6c6572206973206e6f74206f60008201527f776e6572206e6f7220617070726f766564000000000000000000000000000000602082015250565b7f4e6f206574686572206c65667420746f2077697468647261772e000000000000600082015250565b7f455243373231456e756d657261626c653a20676c6f62616c20696e646578206f60008201527f7574206f6620626f756e64730000000000000000000000000000000000000000602082015250565b7f6d696e742061746c656173742031204e46540000000000000000000000000000600082015250565b7f52616e206f7574206f66206e756d626572732e00000000000000000000000000600082015250565b615045816145dd565b811461505057600080fd5b50565b61505c81614601565b811461506757600080fd5b50565b6150738161460d565b811461507e57600080fd5b50565b61508a81614659565b811461509557600080fd5b5056fea2646970667358221220acbe934c292c35d8d02833ae056a1b83c122ee1983b1c8e8d914e1255374b34e64736f6c63430008070033",
  "linkReferences": {},
  "deployedLinkReferences": {}
}