{
  "_format": "hh-sol-artifact-1",
  "contractName": "ResearchFundingClubFast",
  "sourceName": "contracts/ResearchFundingClubFast.sol",
  "abi": [
    {
      "inputs": [
        {
          "internalType": "uint96",
          "name": "_royaltyFeesInBips",
          "type": "uint96"
        },
        {
          "internalType": "string",
          "name": "_notRevealedURI",
          "type": "string"
        }
      ],
      "stateMutability": "nonpayable",
      "type": "constructor"
    },
    {
      "inputs": [],
      "name": "ApprovalCallerNotOwnerNorApproved",
      "type": "error"
    },
    {
      "inputs": [],
      "name": "ApprovalQueryForNonexistentToken",
      "type": "error"
    },
    {
      "inputs": [],
      "name": "ApprovalToCurrentOwner",
      "type": "error"
    },
    {
      "inputs": [],
      "name": "ApproveToCaller",
      "type": "error"
    },
    {
      "inputs": [],
      "name": "BalanceQueryForZeroAddress",
      "type": "error"
    },
    {
      "inputs": [],
      "name": "CollectionNotRevealedYet",
      "type": "error"
    },
    {
      "inputs": [],
      "name": "ContractPaused",
      "type": "error"
    },
    {
      "inputs": [],
      "name": "InsufficientFunds",
      "type": "error"
    },
    {
      "inputs": [],
      "name": "MaxNFTLimit",
      "type": "error"
    },
    {
      "inputs": [],
      "name": "MaxPerNFTAddrExceeded",
      "type": "error"
    },
    {
      "inputs": [],
      "name": "MintToZeroAddress",
      "type": "error"
    },
    {
      "inputs": [],
      "name": "MintZeroQuantity",
      "type": "error"
    },
    {
      "inputs": [],
      "name": "OwnerIndexOutOfBounds",
      "type": "error"
    },
    {
      "inputs": [],
      "name": "OwnerQueryForNonexistentToken",
      "type": "error"
    },
    {
      "inputs": [],
      "name": "SaleIncomplete",
      "type": "error"
    },
    {
      "inputs": [],
      "name": "TokenIndexOutOfBounds",
      "type": "error"
    },
    {
      "inputs": [],
      "name": "TransferCallerNotOwnerNorApproved",
      "type": "error"
    },
    {
      "inputs": [],
      "name": "TransferFromIncorrectOwner",
      "type": "error"
    },
    {
      "inputs": [],
      "name": "TransferToNonERC721ReceiverImplementer",
      "type": "error"
    },
    {
      "inputs": [],
      "name": "TransferToZeroAddress",
      "type": "error"
    },
    {
      "inputs": [],
      "name": "URIQueryForNonexistentTokenRFC",
      "type": "error"
    },
    {
      "inputs": [],
      "name": "ZeroMintFailed",
      "type": "error"
    },
    {
      "anonymous": false,
      "inputs": [
        {
          "indexed": true,
          "internalType": "address",
          "name": "owner",
          "type": "address"
        },
        {
          "indexed": true,
          "internalType": "address",
          "name": "approved",
          "type": "address"
        },
        {
          "indexed": true,
          "internalType": "uint256",
          "name": "tokenId",
          "type": "uint256"
        }
      ],
      "name": "Approval",
      "type": "event"
    },
    {
      "anonymous": false,
      "inputs": [
        {
          "indexed": true,
          "internalType": "address",
          "name": "owner",
          "type": "address"
        },
        {
          "indexed": true,
          "internalType": "address",
          "name": "operator",
          "type": "address"
        },
        {
          "indexed": false,
          "internalType": "bool",
          "name": "approved",
          "type": "bool"
        }
      ],
      "name": "ApprovalForAll",
      "type": "event"
    },
    {
      "anonymous": false,
      "inputs": [
        {
          "indexed": true,
          "internalType": "address",
          "name": "previousOwner",
          "type": "address"
        },
        {
          "indexed": true,
          "internalType": "address",
          "name": "newOwner",
          "type": "address"
        }
      ],
      "name": "OwnershipTransferred",
      "type": "event"
    },
    {
      "anonymous": false,
      "inputs": [
        {
          "indexed": true,
          "internalType": "address",
          "name": "from",
          "type": "address"
        },
        {
          "indexed": true,
          "internalType": "address",
          "name": "to",
          "type": "address"
        },
        {
          "indexed": true,
          "internalType": "uint256",
          "name": "tokenId",
          "type": "uint256"
        }
      ],
      "name": "Transfer",
      "type": "event"
    },
    {
      "inputs": [],
      "name": "MAX_PER_MINT",
      "outputs": [
        {
          "internalType": "uint256",
          "name": "",
          "type": "uint256"
        }
      ],
      "stateMutability": "view",
      "type": "function"
    },
    {
      "inputs": [],
      "name": "MAX_SUPPLY",
      "outputs": [
        {
          "internalType": "uint256",
          "name": "",
          "type": "uint256"
        }
      ],
      "stateMutability": "view",
      "type": "function"
    },
    {
      "inputs": [],
      "name": "MIN_SUPPLY",
      "outputs": [
        {
          "internalType": "uint256",
          "name": "",
          "type": "uint256"
        }
      ],
      "stateMutability": "view",
      "type": "function"
    },
    {
      "inputs": [],
      "name": "PRICE",
      "outputs": [
        {
          "internalType": "uint256",
          "name": "",
          "type": "uint256"
        }
      ],
      "stateMutability": "view",
      "type": "function"
    },
    {
      "inputs": [
        {
          "internalType": "address",
          "name": "to",
          "type": "address"
        },
        {
          "internalType": "uint256",
          "name": "tokenId",
          "type": "uint256"
        }
      ],
      "name": "approve",
      "outputs": [],
      "stateMutability": "nonpayable",
      "type": "function"
    },
    {
      "inputs": [
        {
          "internalType": "address",
          "name": "owner",
          "type": "address"
        }
      ],
      "name": "balanceOf",
      "outputs": [
        {
          "internalType": "uint256",
          "name": "",
          "type": "uint256"
        }
      ],
      "stateMutability": "view",
      "type": "function"
    },
    {
      "inputs": [],
      "name": "baseExtension",
      "outputs": [
        {
          "internalType": "string",
          "name": "",
          "type": "string"
        }
      ],
      "stateMutability": "view",
      "type": "function"
    },
    {
      "inputs": [],
      "name": "baseTokenURI",
      "outputs": [
        {
          "internalType": "string",
          "name": "",
          "type": "string"
        }
      ],
      "stateMutability": "view",
      "type": "function"
    },
    {
      "inputs": [],
      "name": "baseURI",
      "outputs": [
        {
          "internalType": "string",
          "name": "",
          "type": "string"
        }
      ],
      "stateMutability": "view",
      "type": "function"
    },
    {
      "inputs": [],
      "name": "charityWallet",
      "outputs": [
        {
          "internalType": "address",
          "name": "",
          "type": "address"
        }
      ],
      "stateMutability": "view",
      "type": "function"
    },
    {
      "inputs": [],
      "name": "collectionID",
      "outputs": [
        {
          "internalType": "uint256",
          "name": "",
          "type": "uint256"
        }
      ],
      "stateMutability": "view",
      "type": "function"
    },
    {
      "inputs": [
        {
          "internalType": "uint256",
          "name": "",
          "type": "uint256"
        }
      ],
      "name": "collections",
      "outputs": [
        {
          "internalType": "uint256",
          "name": "minSupply",
          "type": "uint256"
        },
        {
          "internalType": "uint256",
          "name": "maxSupply",
          "type": "uint256"
        },
        {
          "internalType": "string",
          "name": "baseURI",
          "type": "string"
        }
      ],
      "stateMutability": "view",
      "type": "function"
    },
    {
      "inputs": [],
      "name": "devWallet",
      "outputs": [
        {
          "internalType": "address",
          "name": "",
          "type": "address"
        }
      ],
      "stateMutability": "view",
      "type": "function"
    },
    {
      "inputs": [
        {
          "internalType": "uint256",
          "name": "tokenId",
          "type": "uint256"
        }
      ],
      "name": "getApproved",
      "outputs": [
        {
          "internalType": "address",
          "name": "",
          "type": "address"
        }
      ],
      "stateMutability": "view",
      "type": "function"
    },
    {
      "inputs": [
        {
          "internalType": "uint256",
          "name": "_id",
          "type": "uint256"
        }
      ],
      "name": "getCollectionInfo",
      "outputs": [
        {
          "components": [
            {
              "internalType": "uint256",
              "name": "minSupply",
              "type": "uint256"
            },
            {
              "internalType": "uint256",
              "name": "maxSupply",
              "type": "uint256"
            },
            {
              "internalType": "string",
              "name": "baseURI",
              "type": "string"
            }
          ],
          "internalType": "struct ResearchFundingClubFast.CollectionData",
          "name": "",
          "type": "tuple"
        }
      ],
      "stateMutability": "view",
      "type": "function"
    },
    {
      "inputs": [
        {
          "internalType": "address",
          "name": "owner",
          "type": "address"
        },
        {
          "internalType": "address",
          "name": "operator",
          "type": "address"
        }
      ],
      "name": "isApprovedForAll",
      "outputs": [
        {
          "internalType": "bool",
          "name": "",
          "type": "bool"
        }
      ],
      "stateMutability": "view",
      "type": "function"
    },
    {
      "inputs": [
        {
          "internalType": "uint256",
          "name": "_mintAmount",
          "type": "uint256"
        }
      ],
      "name": "mint",
      "outputs": [],
      "stateMutability": "payable",
      "type": "function"
    },
    {
      "inputs": [],
      "name": "name",
      "outputs": [
        {
          "internalType": "string",
          "name": "",
          "type": "string"
        }
      ],
      "stateMutability": "view",
      "type": "function"
    },
    {
      "inputs": [
        {
          "internalType": "uint256",
          "name": "_newMaxSupply",
          "type": "uint256"
        }
      ],
      "name": "newDrop",
      "outputs": [],
      "stateMutability": "nonpayable",
      "type": "function"
    },
    {
      "inputs": [],
      "name": "notRevealedURI",
      "outputs": [
        {
          "internalType": "string",
          "name": "",
          "type": "string"
        }
      ],
      "stateMutability": "view",
      "type": "function"
    },
    {
      "inputs": [],
      "name": "owner",
      "outputs": [
        {
          "internalType": "address",
          "name": "",
          "type": "address"
        }
      ],
      "stateMutability": "view",
      "type": "function"
    },
    {
      "inputs": [
        {
          "internalType": "uint256",
          "name": "tokenId",
          "type": "uint256"
        }
      ],
      "name": "ownerOf",
      "outputs": [
        {
          "internalType": "address",
          "name": "",
          "type": "address"
        }
      ],
      "stateMutability": "view",
      "type": "function"
    },
    {
      "inputs": [
        {
          "internalType": "bool",
          "name": "_state",
          "type": "bool"
        }
      ],
      "name": "pause",
      "outputs": [],
      "stateMutability": "nonpayable",
      "type": "function"
    },
    {
      "inputs": [],
      "name": "paused",
      "outputs": [
        {
          "internalType": "bool",
          "name": "",
          "type": "bool"
        }
      ],
      "stateMutability": "view",
      "type": "function"
    },
    {
      "inputs": [],
      "name": "renounceOwnership",
      "outputs": [],
      "stateMutability": "nonpayable",
      "type": "function"
    },
    {
      "inputs": [
        {
          "internalType": "string",
          "name": "_newBaseURI",
          "type": "string"
        }
      ],
      "name": "reveal",
      "outputs": [],
      "stateMutability": "nonpayable",
      "type": "function"
    },
    {
      "inputs": [],
      "name": "revealed",
      "outputs": [
        {
          "internalType": "bool",
          "name": "",
          "type": "bool"
        }
      ],
      "stateMutability": "view",
      "type": "function"
    },
    {
      "inputs": [
        {
          "internalType": "uint256",
          "name": "_tokenId",
          "type": "uint256"
        },
        {
          "internalType": "uint256",
          "name": "_salePrice",
          "type": "uint256"
        }
      ],
      "name": "royaltyInfo",
      "outputs": [
        {
          "internalType": "address",
          "name": "",
          "type": "address"
        },
        {
          "internalType": "uint256",
          "name": "",
          "type": "uint256"
        }
      ],
      "stateMutability": "view",
      "type": "function"
    },
    {
      "inputs": [
        {
          "internalType": "address",
          "name": "from",
          "type": "address"
        },
        {
          "internalType": "address",
          "name": "to",
          "type": "address"
        },
        {
          "internalType": "uint256",
          "name": "tokenId",
          "type": "uint256"
        }
      ],
      "name": "safeTransferFrom",
      "outputs": [],
      "stateMutability": "nonpayable",
      "type": "function"
    },
    {
      "inputs": [
        {
          "internalType": "address",
          "name": "from",
          "type": "address"
        },
        {
          "internalType": "address",
          "name": "to",
          "type": "address"
        },
        {
          "internalType": "uint256",
          "name": "tokenId",
          "type": "uint256"
        },
        {
          "internalType": "bytes",
          "name": "_data",
          "type": "bytes"
        }
      ],
      "name": "safeTransferFrom",
      "outputs": [],
      "stateMutability": "nonpayable",
      "type": "function"
    },
    {
      "inputs": [
        {
          "internalType": "address",
          "name": "operator",
          "type": "address"
        },
        {
          "internalType": "bool",
          "name": "approved",
          "type": "bool"
        }
      ],
      "name": "setApprovalForAll",
      "outputs": [],
      "stateMutability": "nonpayable",
      "type": "function"
    },
    {
      "inputs": [
        {
          "internalType": "string",
          "name": "_newBaseExtension",
          "type": "string"
        }
      ],
      "name": "setBaseExtension",
      "outputs": [],
      "stateMutability": "nonpayable",
      "type": "function"
    },
    {
      "inputs": [
        {
          "internalType": "string",
          "name": "_baseTokenURI",
          "type": "string"
        }
      ],
      "name": "setBaseURI",
      "outputs": [],
      "stateMutability": "nonpayable",
      "type": "function"
    },
    {
      "inputs": [
        {
          "internalType": "uint256",
          "name": "_newCost",
          "type": "uint256"
        }
      ],
      "name": "setCost",
      "outputs": [],
      "stateMutability": "nonpayable",
      "type": "function"
    },
    {
      "inputs": [
        {
          "internalType": "string",
          "name": "_notRevealedURI",
          "type": "string"
        }
      ],
      "name": "setNotRevealedURI",
      "outputs": [],
      "stateMutability": "nonpayable",
      "type": "function"
    },
    {
      "inputs": [
        {
          "internalType": "address",
          "name": "_receiver",
          "type": "address"
        },
        {
          "internalType": "uint96",
          "name": "_royaltyFeesInBips",
          "type": "uint96"
        }
      ],
      "name": "setRoyaltyInfo",
      "outputs": [],
      "stateMutability": "nonpayable",
      "type": "function"
    },
    {
      "inputs": [
        {
          "internalType": "uint256",
          "name": "_limit",
          "type": "uint256"
        }
      ],
      "name": "setmaxMintAmount",
      "outputs": [],
      "stateMutability": "nonpayable",
      "type": "function"
    },
    {
      "inputs": [
        {
          "internalType": "uint256",
          "name": "_limit",
          "type": "uint256"
        }
      ],
      "name": "setmaxSupply",
      "outputs": [],
      "stateMutability": "nonpayable",
      "type": "function"
    },
    {
      "inputs": [
        {
          "internalType": "bytes4",
          "name": "interfaceId",
          "type": "bytes4"
        }
      ],
      "name": "supportsInterface",
      "outputs": [
        {
          "internalType": "bool",
          "name": "",
          "type": "bool"
        }
      ],
      "stateMutability": "view",
      "type": "function"
    },
    {
      "inputs": [],
      "name": "symbol",
      "outputs": [
        {
          "internalType": "string",
          "name": "",
          "type": "string"
        }
      ],
      "stateMutability": "view",
      "type": "function"
    },
    {
      "inputs": [
        {
          "internalType": "uint256",
          "name": "index",
          "type": "uint256"
        }
      ],
      "name": "tokenByIndex",
      "outputs": [
        {
          "internalType": "uint256",
          "name": "",
          "type": "uint256"
        }
      ],
      "stateMutability": "view",
      "type": "function"
    },
    {
      "inputs": [
        {
          "internalType": "address",
          "name": "owner",
          "type": "address"
        },
        {
          "internalType": "uint256",
          "name": "index",
          "type": "uint256"
        }
      ],
      "name": "tokenOfOwnerByIndex",
      "outputs": [
        {
          "internalType": "uint256",
          "name": "",
          "type": "uint256"
        }
      ],
      "stateMutability": "view",
      "type": "function"
    },
    {
      "inputs": [
        {
          "internalType": "uint256",
          "name": "tokenId",
          "type": "uint256"
        }
      ],
      "name": "tokenURI",
      "outputs": [
        {
          "internalType": "string",
          "name": "",
          "type": "string"
        }
      ],
      "stateMutability": "view",
      "type": "function"
    },
    {
      "inputs": [
        {
          "internalType": "address",
          "name": "_owner",
          "type": "address"
        }
      ],
      "name": "tokensOfOwner",
      "outputs": [
        {
          "internalType": "uint256[]",
          "name": "",
          "type": "uint256[]"
        }
      ],
      "stateMutability": "view",
      "type": "function"
    },
    {
      "inputs": [],
      "name": "totalSupply",
      "outputs": [
        {
          "internalType": "uint256",
          "name": "",
          "type": "uint256"
        }
      ],
      "stateMutability": "view",
      "type": "function"
    },
    {
      "inputs": [
        {
          "internalType": "address",
          "name": "from",
          "type": "address"
        },
        {
          "internalType": "address",
          "name": "to",
          "type": "address"
        },
        {
          "internalType": "uint256",
          "name": "tokenId",
          "type": "uint256"
        }
      ],
      "name": "transferFrom",
      "outputs": [],
      "stateMutability": "nonpayable",
      "type": "function"
    },
    {
      "inputs": [
        {
          "internalType": "address",
          "name": "newOwner",
          "type": "address"
        }
      ],
      "name": "transferOwnership",
      "outputs": [],
      "stateMutability": "nonpayable",
      "type": "function"
    },
    {
      "inputs": [],
      "name": "withdraw",
      "outputs": [],
      "stateMutability": "nonpayable",
      "type": "function"
    }
  ],
  "bytecode": "0x60806040526001600c60006101000a81548160ff0219169083151502179055506040518060400160405280600581526020017f2e6a736f6e000000000000000000000000000000000000000000000000000000815250600d90805190602001906200006c929190620005c9565b506000601055600a601155655af3107a400060125560016013556000601460006101000a81548160ff021916908315150217905550600160155573f9351cfab08d72e873424708a817a067fa33f45f601760006101000a81548173ffffffffffffffffffffffffffffffffffffffff021916908373ffffffffffffffffffffffffffffffffffffffff16021790555073f9351cfab08d72e873424708a817a067fa33f45f601860006101000a81548173ffffffffffffffffffffffffffffffffffffffff021916908373ffffffffffffffffffffffffffffffffffffffff1602179055503480156200015d57600080fd5b506040516200616c3803806200616c83398181016040528101906200018391906200070e565b6040518060400160405280601581526020017f52657365617263682046756e64696e6720436c756200000000000000000000008152506040518060400160405280600381526020017f5246430000000000000000000000000000000000000000000000000000000000815250816001908051906020019062000207929190620005c9565b50806002908051906020019062000220929190620005c9565b50505062000243620002376200027e60201b60201c565b6200028660201b60201c565b6001600a819055506200025d33836200034c60201b60201c565b80600e908051906020019062000275929190620005c9565b50505062000ab7565b600033905090565b6000600960009054906101000a900473ffffffffffffffffffffffffffffffffffffffff16905081600960006101000a81548173ffffffffffffffffffffffffffffffffffffffff021916908373ffffffffffffffffffffffffffffffffffffffff1602179055508173ffffffffffffffffffffffffffffffffffffffff168173ffffffffffffffffffffffffffffffffffffffff167f8be0079c531659141344cd1fd0a4f28419497f9722a3daafe3b4186f6b6457e060405160405180910390a35050565b6200035c6200027e60201b60201c565b73ffffffffffffffffffffffffffffffffffffffff1662000382620003f160201b60201c565b73ffffffffffffffffffffffffffffffffffffffff1614620003db576040517f08c379a0000000000000000000000000000000000000000000000000000000008152600401620003d290620007e9565b60405180910390fd5b620003ed82826200041b60201b60201c565b5050565b6000600960009054906101000a900473ffffffffffffffffffffffffffffffffffffffff16905090565b6200042b620005bf60201b60201c565b6bffffffffffffffffffffffff16816bffffffffffffffffffffffff1611156200048c576040517f08c379a000000000000000000000000000000000000000000000000000000000815260040162000483906200080b565b60405180910390fd5b600073ffffffffffffffffffffffffffffffffffffffff168273ffffffffffffffffffffffffffffffffffffffff161415620004ff576040517f08c379a0000000000000000000000000000000000000000000000000000000008152600401620004f6906200082d565b60405180910390fd5b60405180604001604052808373ffffffffffffffffffffffffffffffffffffffff168152602001826bffffffffffffffffffffffff16815250600760008201518160000160006101000a81548173ffffffffffffffffffffffffffffffffffffffff021916908373ffffffffffffffffffffffffffffffffffffffff16021790555060208201518160000160146101000a8154816bffffffffffffffffffffffff02191690836bffffffffffffffffffffffff1602179055509050505050565b6000612710905090565b828054620005d7906200090d565b90600052602060002090601f016020900481019282620005fb576000855562000647565b82601f106200061657805160ff191683800117855562000647565b8280016001018555821562000647579182015b828111156200064657825182559160200191906001019062000629565b5b5090506200065691906200065a565b5090565b5b80821115620006755760008160009055506001016200065b565b5090565b6000620006906200068a8462000878565b6200084f565b905082815260208101848484011115620006af57620006ae620009dc565b5b620006bc848285620008d7565b509392505050565b600082601f830112620006dc57620006db620009d7565b5b8151620006ee84826020860162000679565b91505092915050565b600081519050620007088162000a9d565b92915050565b60008060408385031215620007285762000727620009e6565b5b60006200073885828601620006f7565b925050602083015167ffffffffffffffff8111156200075c576200075b620009e1565b5b6200076a85828601620006c4565b9150509250929050565b600062000783602083620008ae565b91506200079082620009fc565b602082019050919050565b6000620007aa602a83620008ae565b9150620007b78262000a25565b604082019050919050565b6000620007d1601983620008ae565b9150620007de8262000a74565b602082019050919050565b60006020820190508181036000830152620008048162000774565b9050919050565b6000602082019050818103600083015262000826816200079b565b9050919050565b600060208201905081810360008301526200084881620007c2565b9050919050565b60006200085b6200086e565b905062000869828262000943565b919050565b6000604051905090565b600067ffffffffffffffff821115620008965762000895620009a8565b5b620008a182620009eb565b9050602081019050919050565b600082825260208201905092915050565b60006bffffffffffffffffffffffff82169050919050565b60005b83811015620008f7578082015181840152602081019050620008da565b8381111562000907576000848401525b50505050565b600060028204905060018216806200092657607f821691505b602082108114156200093d576200093c62000979565b5b50919050565b6200094e82620009eb565b810181811067ffffffffffffffff8211171562000970576200096f620009a8565b5b80604052505050565b7f4e487b7100000000000000000000000000000000000000000000000000000000600052602260045260246000fd5b7f4e487b7100000000000000000000000000000000000000000000000000000000600052604160045260246000fd5b600080fd5b600080fd5b600080fd5b600080fd5b6000601f19601f8301169050919050565b7f4f776e61626c653a2063616c6c6572206973206e6f7420746865206f776e6572600082015250565b7f455243323938313a20726f79616c7479206665652077696c6c2065786365656460008201527f2073616c65507269636500000000000000000000000000000000000000000000602082015250565b7f455243323938313a20696e76616c696420726563656976657200000000000000600082015250565b62000aa881620008bf565b811462000ab457600080fd5b50565b6156a58062000ac76000396000f3fe6080604052600436106102935760003560e01c80636352211e1161015a578063a0712d68116100c1578063d547cfb71161007a578063d547cfb714610a0a578063da3ef23f14610a35578063e985e9c514610a5e578063f2c4ce1e14610a9b578063f2fde38b14610ac4578063fdbda0ec14610aed57610293565b8063a0712d68146108f7578063a22cb46514610913578063b88d4fde1461093c578063c668286214610965578063c87b56dd14610990578063d4e4d3dd146109cd57610293565b80637f00c7a6116101135780637f00c7a6146107e55780638462151c1461080e5780638d859f3e1461084b5780638da5cb5b146108765780638ea5220f146108a157806395d89b41146108cc57610293565b80636352211e146106d35780636c0360eb1461071057806370a082311461073b578063715018a614610778578063722503801461078f5780637b208769146107ba57610293565b806332cb6b0c116101fe5780634c29bcf0116101b75780634c29bcf0146105c35780634f6ccce7146105ec578063518302271461062957806355f804b31461065457806358b33e691461067d5780635c975abb146106a857610293565b806332cb6b0c146104db57806335917c64146105065780633ccfd60b1461053157806342842e0e1461054857806344a0d68a146105715780634c2612471461059a57610293565b806309d42b301161025057806309d42b30146103b857806318160ddd146103e3578063228025e81461040e57806323b872dd146104375780632a55205a146104605780632f745c591461049e57610293565b806301ffc9a71461029857806302329a29146102d557806302fa7c47146102fe57806306fdde0314610327578063081812fc14610352578063095ea7b31461038f575b600080fd5b3480156102a457600080fd5b506102bf60048036038101906102ba9190614736565b610b2c565b6040516102cc9190614cf9565b60405180910390f35b3480156102e157600080fd5b506102fc60048036038101906102f79190614709565b610ba6565b005b34801561030a57600080fd5b50610325600480360381019061032091906146c9565b610c3f565b005b34801561033357600080fd5b5061033c610cc9565b6040516103499190614d14565b60405180910390f35b34801561035e57600080fd5b50610379600480360381019061037491906147d9565b610d5b565b6040516103869190614c47565b60405180910390f35b34801561039b57600080fd5b506103b660048036038101906103b19190614689565b610dd7565b005b3480156103c457600080fd5b506103cd610ee2565b6040516103da9190614edf565b60405180910390f35b3480156103ef57600080fd5b506103f8610ee8565b6040516104059190614edf565b60405180910390f35b34801561041a57600080fd5b50610435600480360381019061043091906147d9565b610f3d565b005b34801561044357600080fd5b5061045e60048036038101906104599190614573565b610fc3565b005b34801561046c57600080fd5b5061048760048036038101906104829190614806565b610fd3565b604051610495929190614cae565b60405180910390f35b3480156104aa57600080fd5b506104c560048036038101906104c09190614689565b6111be565b6040516104d29190614edf565b60405180910390f35b3480156104e757600080fd5b506104f06113c5565b6040516104fd9190614edf565b60405180910390f35b34801561051257600080fd5b5061051b6113cb565b6040516105289190614edf565b60405180910390f35b34801561053d57600080fd5b506105466113d1565b005b34801561055457600080fd5b5061056f600480360381019061056a9190614573565b611769565b005b34801561057d57600080fd5b50610598600480360381019061059391906147d9565b611789565b005b3480156105a657600080fd5b506105c160048036038101906105bc9190614790565b61180f565b005b3480156105cf57600080fd5b506105ea60048036038101906105e591906147d9565b611935565b005b3480156105f857600080fd5b50610613600480360381019061060e91906147d9565b611ab5565b6040516106209190614edf565b60405180910390f35b34801561063557600080fd5b5061063e611c26565b60405161064b9190614cf9565b60405180910390f35b34801561066057600080fd5b5061067b60048036038101906106769190614790565b611c39565b005b34801561068957600080fd5b50610692611ccf565b60405161069f9190614edf565b60405180910390f35b3480156106b457600080fd5b506106bd611cd5565b6040516106ca9190614cf9565b60405180910390f35b3480156106df57600080fd5b506106fa60048036038101906106f591906147d9565b611ce8565b6040516107079190614c47565b60405180910390f35b34801561071c57600080fd5b50610725611cfe565b6040516107329190614d14565b60405180910390f35b34801561074757600080fd5b50610762600480360381019061075d9190614506565b611d8c565b60405161076f9190614edf565b60405180910390f35b34801561078457600080fd5b5061078d611e5c565b005b34801561079b57600080fd5b506107a4611ee4565b6040516107b19190614d14565b60405180910390f35b3480156107c657600080fd5b506107cf611f72565b6040516107dc9190614c47565b60405180910390f35b3480156107f157600080fd5b5061080c600480360381019061080791906147d9565b611f98565b005b34801561081a57600080fd5b5061083560048036038101906108309190614506565b61201e565b6040516108429190614cd7565b60405180910390f35b34801561085757600080fd5b506108606120cc565b60405161086d9190614edf565b60405180910390f35b34801561088257600080fd5b5061088b6120d2565b6040516108989190614c47565b60405180910390f35b3480156108ad57600080fd5b506108b66120fc565b6040516108c39190614c47565b60405180910390f35b3480156108d857600080fd5b506108e1612122565b6040516108ee9190614d14565b60405180910390f35b610911600480360381019061090c91906147d9565b6121b4565b005b34801561091f57600080fd5b5061093a60048036038101906109359190614649565b612321565b005b34801561094857600080fd5b50610963600480360381019061095e91906145c6565b612499565b005b34801561097157600080fd5b5061097a6124ec565b6040516109879190614d14565b60405180910390f35b34801561099c57600080fd5b506109b760048036038101906109b291906147d9565b61257a565b6040516109c49190614d14565b60405180910390f35b3480156109d957600080fd5b506109f460048036038101906109ef91906147d9565b612816565b604051610a019190614ebd565b60405180910390f35b348015610a1657600080fd5b50610a1f6128e9565b604051610a2c9190614d14565b60405180910390f35b348015610a4157600080fd5b50610a5c6004803603810190610a579190614790565b612977565b005b348015610a6a57600080fd5b50610a856004803603810190610a809190614533565b612a0d565b604051610a929190614cf9565b60405180910390f35b348015610aa757600080fd5b50610ac26004803603810190610abd9190614790565b612aa1565b005b348015610ad057600080fd5b50610aeb6004803603810190610ae69190614506565b612b37565b005b348015610af957600080fd5b50610b146004803603810190610b0f91906147d9565b612c2f565b604051610b2393929190614efa565b60405180910390f35b60007f2a55205a000000000000000000000000000000000000000000000000000000007bffffffffffffffffffffffffffffffffffffffffffffffffffffffff1916827bffffffffffffffffffffffffffffffffffffffffffffffffffffffff19161480610b9f5750610b9e82612ce1565b5b9050919050565b610bae612d5b565b73ffffffffffffffffffffffffffffffffffffffff16610bcc6120d2565b73ffffffffffffffffffffffffffffffffffffffff1614610c22576040517f08c379a0000000000000000000000000000000000000000000000000000000008152600401610c1990614dbd565b60405180910390fd5b80600c60006101000a81548160ff02191690831515021790555050565b610c47612d5b565b73ffffffffffffffffffffffffffffffffffffffff16610c656120d2565b73ffffffffffffffffffffffffffffffffffffffff1614610cbb576040517f08c379a0000000000000000000000000000000000000000000000000000000008152600401610cb290614dbd565b60405180910390fd5b610cc58282612d63565b5050565b606060018054610cd89061524f565b80601f0160208091040260200160405190810160405280929190818152602001828054610d049061524f565b8015610d515780601f10610d2657610100808354040283529160200191610d51565b820191906000526020600020905b815481529060010190602001808311610d3457829003601f168201915b5050505050905090565b6000610d6682612ef9565b610d9c576040517fcf4700e400000000000000000000000000000000000000000000000000000000815260040160405180910390fd5b6005600083815260200190815260200160002060009054906101000a900473ffffffffffffffffffffffffffffffffffffffff169050919050565b6000610de282611ce8565b90508073ffffffffffffffffffffffffffffffffffffffff168373ffffffffffffffffffffffffffffffffffffffff161415610e4a576040517f943f7b8c00000000000000000000000000000000000000000000000000000000815260040160405180910390fd5b8073ffffffffffffffffffffffffffffffffffffffff16610e69612d5b565b73ffffffffffffffffffffffffffffffffffffffff1614158015610e9b5750610e9981610e94612d5b565b612a0d565b155b15610ed2576040517fcfb3b94200000000000000000000000000000000000000000000000000000000815260040160405180910390fd5b610edd838383612f61565b505050565b60135481565b60008060109054906101000a90046fffffffffffffffffffffffffffffffff1660008054906101000a90046fffffffffffffffffffffffffffffffff16036fffffffffffffffffffffffffffffffff16905090565b610f45612d5b565b73ffffffffffffffffffffffffffffffffffffffff16610f636120d2565b73ffffffffffffffffffffffffffffffffffffffff1614610fb9576040517f08c379a0000000000000000000000000000000000000000000000000000000008152600401610fb090614dbd565b60405180910390fd5b8060118190555050565b610fce838383613013565b505050565b6000806000600860008681526020019081526020016000206040518060400160405290816000820160009054906101000a900473ffffffffffffffffffffffffffffffffffffffff1673ffffffffffffffffffffffffffffffffffffffff1673ffffffffffffffffffffffffffffffffffffffff1681526020016000820160149054906101000a90046bffffffffffffffffffffffff166bffffffffffffffffffffffff166bffffffffffffffffffffffff16815250509050600073ffffffffffffffffffffffffffffffffffffffff16816000015173ffffffffffffffffffffffffffffffffffffffff1614156111695760076040518060400160405290816000820160009054906101000a900473ffffffffffffffffffffffffffffffffffffffff1673ffffffffffffffffffffffffffffffffffffffff1673ffffffffffffffffffffffffffffffffffffffff1681526020016000820160149054906101000a90046bffffffffffffffffffffffff166bffffffffffffffffffffffff166bffffffffffffffffffffffff168152505090505b6000611173613530565b6bffffffffffffffffffffffff1682602001516bffffffffffffffffffffffff168661119f91906150f3565b6111a991906150c2565b90508160000151819350935050509250929050565b60006111c983611d8c565b8210611201576040517f0ddac30e00000000000000000000000000000000000000000000000000000000815260040160405180910390fd5b60008060009054906101000a90046fffffffffffffffffffffffffffffffff166fffffffffffffffffffffffffffffffff16905060008060005b838110156113b9576000600360008381526020019081526020016000206040518060600160405290816000820160009054906101000a900473ffffffffffffffffffffffffffffffffffffffff1673ffffffffffffffffffffffffffffffffffffffff1673ffffffffffffffffffffffffffffffffffffffff1681526020016000820160149054906101000a900467ffffffffffffffff1667ffffffffffffffff1667ffffffffffffffff16815260200160008201601c9054906101000a900460ff161515151581525050905080604001511561131857506113ac565b600073ffffffffffffffffffffffffffffffffffffffff16816000015173ffffffffffffffffffffffffffffffffffffffff161461135857806000015192505b8773ffffffffffffffffffffffffffffffffffffffff168373ffffffffffffffffffffffffffffffffffffffff1614156113aa57868414156113a15781955050505050506113bf565b83806001019450505b505b808060010191505061123b565b50600080fd5b92915050565b60115481565b60105481565b6113d9612d5b565b73ffffffffffffffffffffffffffffffffffffffff166113f76120d2565b73ffffffffffffffffffffffffffffffffffffffff161461144d576040517f08c379a000000000000000000000000000000000000000000000000000000000815260040161144490614dbd565b60405180910390fd5b6002600a541415611493576040517f08c379a000000000000000000000000000000000000000000000000000000000815260040161148a90614e7d565b60405180910390fd5b6002600a819055506000479050600081116114e3576040517f08c379a00000000000000000000000000000000000000000000000000000000081526004016114da90614e1d565b60405180910390fd5b6000601760009054906101000a900473ffffffffffffffffffffffffffffffffffffffff1673ffffffffffffffffffffffffffffffffffffffff166064600a4761152d91906150f3565b61153791906150c2565b60405161154390614c32565b60006040518083038185875af1925050503d8060008114611580576040519150601f19603f3d011682016040523d82523d6000602084013e611585565b606091505b50509050806115c9576040517f08c379a00000000000000000000000000000000000000000000000000000000081526004016115c090614ddd565b60405180910390fd5b6000601860009054906101000a900473ffffffffffffffffffffffffffffffffffffffff1673ffffffffffffffffffffffffffffffffffffffff16606460054761161391906150f3565b61161d91906150c2565b60405161162990614c32565b60006040518083038185875af1925050503d8060008114611666576040519150601f19603f3d011682016040523d82523d6000602084013e61166b565b606091505b50509050806116af576040517f08c379a00000000000000000000000000000000000000000000000000000000081526004016116a690614e5d565b60405180910390fd5b60003373ffffffffffffffffffffffffffffffffffffffff16476040516116d590614c32565b60006040518083038185875af1925050503d8060008114611712576040519150601f19603f3d011682016040523d82523d6000602084013e611717565b606091505b505090508061175b576040517f08c379a000000000000000000000000000000000000000000000000000000000815260040161175290614dfd565b60405180910390fd5b505050506001600a81905550565b61178483838360405180602001604052806000815250612499565b505050565b611791612d5b565b73ffffffffffffffffffffffffffffffffffffffff166117af6120d2565b73ffffffffffffffffffffffffffffffffffffffff1614611805576040517f08c379a00000000000000000000000000000000000000000000000000000000081526004016117fc90614dbd565b60405180910390fd5b8060128190555050565b611817612d5b565b73ffffffffffffffffffffffffffffffffffffffff166118356120d2565b73ffffffffffffffffffffffffffffffffffffffff161461188b576040517f08c379a000000000000000000000000000000000000000000000000000000000815260040161188290614dbd565b60405180910390fd5b6118936142a1565b60105481600001818152505060115481602001818152505081816040018190525080601660006015548152602001908152602001600020600082015181600001556020820151816001015560408201518160020190805190602001906118fa9291906142c2565b509050506001601460006101000a81548160ff0219169083151502179055506015600081548092919061192c906152b2565b91905055505050565b61193d612d5b565b73ffffffffffffffffffffffffffffffffffffffff1661195b6120d2565b73ffffffffffffffffffffffffffffffffffffffff16146119b1576040517f08c379a00000000000000000000000000000000000000000000000000000000081526004016119a890614dbd565b60405180910390fd5b6119f76040518060400160405280600e81526020017f746f74616c20737570706c793a200000000000000000000000000000000000008152506119f2610ee8565b61353a565b601154611a02610ee8565b14611a39576040517f697526e000000000000000000000000000000000000000000000000000000000815260040160405180910390fd5b60001515601460009054906101000a900460ff1615151415611a87576040517fdc8eb7a200000000000000000000000000000000000000000000000000000000815260040160405180910390fd5b601154601081905550806011819055506000601460006101000a81548160ff02191690831515021790555050565b60008060008054906101000a90046fffffffffffffffffffffffffffffffff166fffffffffffffffffffffffffffffffff1690506000805b82811015611bee576000600360008381526020019081526020016000206040518060600160405290816000820160009054906101000a900473ffffffffffffffffffffffffffffffffffffffff1673ffffffffffffffffffffffffffffffffffffffff1673ffffffffffffffffffffffffffffffffffffffff1681526020016000820160149054906101000a900467ffffffffffffffff1667ffffffffffffffff1667ffffffffffffffff16815260200160008201601c9054906101000a900460ff16151515158152505090508060400151611be05785831415611bd75781945050505050611c21565b82806001019350505b508080600101915050611aed565b506040517fa723001c00000000000000000000000000000000000000000000000000000000815260040160405180910390fd5b919050565b601460009054906101000a900460ff1681565b611c41612d5b565b73ffffffffffffffffffffffffffffffffffffffff16611c5f6120d2565b73ffffffffffffffffffffffffffffffffffffffff1614611cb5576040517f08c379a0000000000000000000000000000000000000000000000000000000008152600401611cac90614dbd565b60405180910390fd5b80600b9080519060200190611ccb9291906142c2565b5050565b60155481565b600c60009054906101000a900460ff1681565b6000611cf3826135d6565b600001519050919050565b600f8054611d0b9061524f565b80601f0160208091040260200160405190810160405280929190818152602001828054611d379061524f565b8015611d845780601f10611d5957610100808354040283529160200191611d84565b820191906000526020600020905b815481529060010190602001808311611d6757829003601f168201915b505050505081565b60008073ffffffffffffffffffffffffffffffffffffffff168273ffffffffffffffffffffffffffffffffffffffff161415611df4576040517f8f4eb60400000000000000000000000000000000000000000000000000000000815260040160405180910390fd5b600460008373ffffffffffffffffffffffffffffffffffffffff1673ffffffffffffffffffffffffffffffffffffffff16815260200190815260200160002060000160009054906101000a900467ffffffffffffffff1667ffffffffffffffff169050919050565b611e64612d5b565b73ffffffffffffffffffffffffffffffffffffffff16611e826120d2565b73ffffffffffffffffffffffffffffffffffffffff1614611ed8576040517f08c379a0000000000000000000000000000000000000000000000000000000008152600401611ecf90614dbd565b60405180910390fd5b611ee2600061387e565b565b600e8054611ef19061524f565b80601f0160208091040260200160405190810160405280929190818152602001828054611f1d9061524f565b8015611f6a5780601f10611f3f57610100808354040283529160200191611f6a565b820191906000526020600020905b815481529060010190602001808311611f4d57829003601f168201915b505050505081565b601760009054906101000a900473ffffffffffffffffffffffffffffffffffffffff1681565b611fa0612d5b565b73ffffffffffffffffffffffffffffffffffffffff16611fbe6120d2565b73ffffffffffffffffffffffffffffffffffffffff1614612014576040517f08c379a000000000000000000000000000000000000000000000000000000000815260040161200b90614dbd565b60405180910390fd5b8060138190555050565b6060600061202b83611d8c565b905060008167ffffffffffffffff811115612049576120486153e8565b5b6040519080825280602002602001820160405280156120775781602001602082028036833780820191505090505b50905060005b828110156120c15761208f85826111be565b8282815181106120a2576120a16153b9565b5b60200260200101818152505080806120b9906152b2565b91505061207d565b508092505050919050565b60125481565b6000600960009054906101000a900473ffffffffffffffffffffffffffffffffffffffff16905090565b601860009054906101000a900473ffffffffffffffffffffffffffffffffffffffff1681565b6060600280546121319061524f565b80601f016020809104026020016040519081016040528092919081815260200182805461215d9061524f565b80156121aa5780601f1061217f576101008083540402835291602001916121aa565b820191906000526020600020905b81548152906001019060200180831161218d57829003601f168201915b5050505050905090565b60011515600c60009054906101000a900460ff1615151415612202576040517fab35696f00000000000000000000000000000000000000000000000000000000815260040160405180910390fd5b600081141561223d576040517f2e69f8e800000000000000000000000000000000000000000000000000000000815260040160405180910390fd5b601354811115612279576040517fa8de21d600000000000000000000000000000000000000000000000000000000815260040160405180910390fd5b6000612283610ee8565b90506011548282612294919061506c565b11156122cc576040517faa450ee500000000000000000000000000000000000000000000000000000000815260040160405180910390fd5b816012546122da91906150f3565b341015612313576040517f356680b700000000000000000000000000000000000000000000000000000000815260040160405180910390fd5b61231d3383613944565b5050565b612329612d5b565b73ffffffffffffffffffffffffffffffffffffffff168273ffffffffffffffffffffffffffffffffffffffff16141561238e576040517fb06307db00000000000000000000000000000000000000000000000000000000815260040160405180910390fd5b806006600061239b612d5b565b73ffffffffffffffffffffffffffffffffffffffff1673ffffffffffffffffffffffffffffffffffffffff16815260200190815260200160002060008473ffffffffffffffffffffffffffffffffffffffff1673ffffffffffffffffffffffffffffffffffffffff16815260200190815260200160002060006101000a81548160ff0219169083151502179055508173ffffffffffffffffffffffffffffffffffffffff16612448612d5b565b73ffffffffffffffffffffffffffffffffffffffff167f17307eab39ab6107e8899845ad3d59bd9653f200f220920489ca2b5937696c318360405161248d9190614cf9565b60405180910390a35050565b6124a4848484613013565b6124b084848484613962565b6124e6576040517fd1a57ed600000000000000000000000000000000000000000000000000000000815260040160405180910390fd5b50505050565b600d80546124f99061524f565b80601f01602080910402602001604051908101604052809291908181526020018280546125259061524f565b80156125725780601f1061254757610100808354040283529160200191612572565b820191906000526020600020905b81548152906001019060200180831161255557829003601f168201915b505050505081565b606061258582612ef9565b6125bb576040517f25dca1e600000000000000000000000000000000000000000000000000000000815260040160405180910390fd5b601460009054906101000a900460ff161580156125da57506010548210155b1561267157600e80546125ec9061524f565b80601f01602080910402602001604051908101604052809291908181526020018280546126189061524f565b80156126655780601f1061263a57610100808354040283529160200191612665565b820191906000526020600020905b81548152906001019060200180831161264857829003601f168201915b50505050509050612811565b6000600190505b60155481116127fd5760166000828152602001908152602001600020600101548310156127ea5761277c6040518060400160405280600881526020017f544845205552493a0000000000000000000000000000000000000000000000008152506016600084815260200190815260200160002060020180546126f99061524f565b80601f01602080910402602001604051908101604052809291908181526020018280546127259061524f565b80156127725780601f1061274757610100808354040283529160200191612772565b820191906000526020600020905b81548152906001019060200180831161275557829003601f168201915b5050505050613af0565b60166000828152602001908152602001600020600001548361279e919061514d565b9250601660008281526020019081526020016000206002016127bf84613b8c565b600d6040516020016127d393929190614c01565b604051602081830303815290604052915050612811565b80806127f5906152b2565b915050612678565b506040518060200160405280600081525090505b919050565b61281e6142a1565b6016600083815260200190815260200160002060405180606001604052908160008201548152602001600182015481526020016002820180546128609061524f565b80601f016020809104026020016040519081016040528092919081815260200182805461288c9061524f565b80156128d95780601f106128ae576101008083540402835291602001916128d9565b820191906000526020600020905b8154815290600101906020018083116128bc57829003601f168201915b5050505050815250509050919050565b600b80546128f69061524f565b80601f01602080910402602001604051908101604052809291908181526020018280546129229061524f565b801561296f5780601f106129445761010080835404028352916020019161296f565b820191906000526020600020905b81548152906001019060200180831161295257829003601f168201915b505050505081565b61297f612d5b565b73ffffffffffffffffffffffffffffffffffffffff1661299d6120d2565b73ffffffffffffffffffffffffffffffffffffffff16146129f3576040517f08c379a00000000000000000000000000000000000000000000000000000000081526004016129ea90614dbd565b60405180910390fd5b80600d9080519060200190612a099291906142c2565b5050565b6000600660008473ffffffffffffffffffffffffffffffffffffffff1673ffffffffffffffffffffffffffffffffffffffff16815260200190815260200160002060008373ffffffffffffffffffffffffffffffffffffffff1673ffffffffffffffffffffffffffffffffffffffff16815260200190815260200160002060009054906101000a900460ff16905092915050565b612aa9612d5b565b73ffffffffffffffffffffffffffffffffffffffff16612ac76120d2565b73ffffffffffffffffffffffffffffffffffffffff1614612b1d576040517f08c379a0000000000000000000000000000000000000000000000000000000008152600401612b1490614dbd565b60405180910390fd5b80600e9080519060200190612b339291906142c2565b5050565b612b3f612d5b565b73ffffffffffffffffffffffffffffffffffffffff16612b5d6120d2565b73ffffffffffffffffffffffffffffffffffffffff1614612bb3576040517f08c379a0000000000000000000000000000000000000000000000000000000008152600401612baa90614dbd565b60405180910390fd5b600073ffffffffffffffffffffffffffffffffffffffff168173ffffffffffffffffffffffffffffffffffffffff161415612c23576040517f08c379a0000000000000000000000000000000000000000000000000000000008152600401612c1a90614d9d565b60405180910390fd5b612c2c8161387e565b50565b6016602052806000526040600020600091509050806000015490806001015490806002018054612c5e9061524f565b80601f0160208091040260200160405190810160405280929190818152602001828054612c8a9061524f565b8015612cd75780601f10612cac57610100808354040283529160200191612cd7565b820191906000526020600020905b815481529060010190602001808311612cba57829003601f168201915b5050505050905083565b60007f2a55205a000000000000000000000000000000000000000000000000000000007bffffffffffffffffffffffffffffffffffffffffffffffffffffffff1916827bffffffffffffffffffffffffffffffffffffffffffffffffffffffff19161480612d545750612d5382613ced565b5b9050919050565b600033905090565b612d6b613530565b6bffffffffffffffffffffffff16816bffffffffffffffffffffffff161115612dc9576040517f08c379a0000000000000000000000000000000000000000000000000000000008152600401612dc090614e3d565b60405180910390fd5b600073ffffffffffffffffffffffffffffffffffffffff168273ffffffffffffffffffffffffffffffffffffffff161415612e39576040517f08c379a0000000000000000000000000000000000000000000000000000000008152600401612e3090614e9d565b60405180910390fd5b60405180604001604052808373ffffffffffffffffffffffffffffffffffffffff168152602001826bffffffffffffffffffffffff16815250600760008201518160000160006101000a81548173ffffffffffffffffffffffffffffffffffffffff021916908373ffffffffffffffffffffffffffffffffffffffff16021790555060208201518160000160146101000a8154816bffffffffffffffffffffffff02191690836bffffffffffffffffffffffff1602179055509050505050565b60008060009054906101000a90046fffffffffffffffffffffffffffffffff166fffffffffffffffffffffffffffffffff1682108015612f5a575060036000838152602001908152602001600020600001601c9054906101000a900460ff16155b9050919050565b826005600084815260200190815260200160002060006101000a81548173ffffffffffffffffffffffffffffffffffffffff021916908373ffffffffffffffffffffffffffffffffffffffff160217905550818373ffffffffffffffffffffffffffffffffffffffff168273ffffffffffffffffffffffffffffffffffffffff167f8c5be1e5ebec7d5bd14f71427d1e84f3dd0314c0f7b2291e5b200ac8c7c3b92560405160405180910390a4505050565b600061301e826135d6565b90506000816000015173ffffffffffffffffffffffffffffffffffffffff16613045612d5b565b73ffffffffffffffffffffffffffffffffffffffff16148061307857506130778260000151613072612d5b565b612a0d565b5b806130bd5750613086612d5b565b73ffffffffffffffffffffffffffffffffffffffff166130a584610d5b565b73ffffffffffffffffffffffffffffffffffffffff16145b9050806130f6576040517f59c896be00000000000000000000000000000000000000000000000000000000815260040160405180910390fd5b8473ffffffffffffffffffffffffffffffffffffffff16826000015173ffffffffffffffffffffffffffffffffffffffff161461315f576040517fa114810000000000000000000000000000000000000000000000000000000000815260040160405180910390fd5b600073ffffffffffffffffffffffffffffffffffffffff168473ffffffffffffffffffffffffffffffffffffffff1614156131c6576040517fea553b3400000000000000000000000000000000000000000000000000000000815260040160405180910390fd5b6131d38585856001613e37565b6131e36000848460000151612f61565b6001600460008773ffffffffffffffffffffffffffffffffffffffff1673ffffffffffffffffffffffffffffffffffffffff16815260200190815260200160002060000160008282829054906101000a900467ffffffffffffffff160392506101000a81548167ffffffffffffffff021916908367ffffffffffffffff1602179055506001600460008673ffffffffffffffffffffffffffffffffffffffff1673ffffffffffffffffffffffffffffffffffffffff16815260200190815260200160002060000160008282829054906101000a900467ffffffffffffffff160192506101000a81548167ffffffffffffffff021916908367ffffffffffffffff160217905550836003600085815260200190815260200160002060000160006101000a81548173ffffffffffffffffffffffffffffffffffffffff021916908373ffffffffffffffffffffffffffffffffffffffff160217905550426003600085815260200190815260200160002060000160146101000a81548167ffffffffffffffff021916908367ffffffffffffffff1602179055506000600184019050600073ffffffffffffffffffffffffffffffffffffffff166003600083815260200190815260200160002060000160009054906101000a900473ffffffffffffffffffffffffffffffffffffffff1673ffffffffffffffffffffffffffffffffffffffff1614156134c05760008054906101000a90046fffffffffffffffffffffffffffffffff166fffffffffffffffffffffffffffffffff168110156134bf5782600001516003600083815260200190815260200160002060000160006101000a81548173ffffffffffffffffffffffffffffffffffffffff021916908373ffffffffffffffffffffffffffffffffffffffff16021790555082602001516003600083815260200190815260200160002060000160146101000a81548167ffffffffffffffff021916908367ffffffffffffffff1602179055505b5b50828473ffffffffffffffffffffffffffffffffffffffff168673ffffffffffffffffffffffffffffffffffffffff167fddf252ad1be2c89b69c2b068fc378daa952ba7f163c4a11628f55a4df523b3ef60405160405180910390a46135298585856001613e3d565b5050505050565b6000612710905090565b6135d28282604051602401613550929190614d6d565b6040516020818303038152906040527f9710a9d0000000000000000000000000000000000000000000000000000000007bffffffffffffffffffffffffffffffffffffffffffffffffffffffff19166020820180517bffffffffffffffffffffffffffffffffffffffffffffffffffffffff8381831617835250505050613e43565b5050565b6135de614348565b600082905060008054906101000a90046fffffffffffffffffffffffffffffffff166fffffffffffffffffffffffffffffffff16811015613847576000600360008381526020019081526020016000206040518060600160405290816000820160009054906101000a900473ffffffffffffffffffffffffffffffffffffffff1673ffffffffffffffffffffffffffffffffffffffff1673ffffffffffffffffffffffffffffffffffffffff1681526020016000820160149054906101000a900467ffffffffffffffff1667ffffffffffffffff1667ffffffffffffffff16815260200160008201601c9054906101000a900460ff1615151515815250509050806040015161384557600073ffffffffffffffffffffffffffffffffffffffff16816000015173ffffffffffffffffffffffffffffffffffffffff1614613729578092505050613879565b5b60011561384457818060019003925050600360008381526020019081526020016000206040518060600160405290816000820160009054906101000a900473ffffffffffffffffffffffffffffffffffffffff1673ffffffffffffffffffffffffffffffffffffffff1673ffffffffffffffffffffffffffffffffffffffff1681526020016000820160149054906101000a900467ffffffffffffffff1667ffffffffffffffff1667ffffffffffffffff16815260200160008201601c9054906101000a900460ff1615151515815250509050600073ffffffffffffffffffffffffffffffffffffffff16816000015173ffffffffffffffffffffffffffffffffffffffff161461383f578092505050613879565b61372a565b5b505b6040517fdf2d9b4200000000000000000000000000000000000000000000000000000000815260040160405180910390fd5b919050565b6000600960009054906101000a900473ffffffffffffffffffffffffffffffffffffffff16905081600960006101000a81548173ffffffffffffffffffffffffffffffffffffffff021916908373ffffffffffffffffffffffffffffffffffffffff1602179055508173ffffffffffffffffffffffffffffffffffffffff168173ffffffffffffffffffffffffffffffffffffffff167f8be0079c531659141344cd1fd0a4f28419497f9722a3daafe3b4186f6b6457e060405160405180910390a35050565b61395e828260405180602001604052806000815250613e6c565b5050565b60006139838473ffffffffffffffffffffffffffffffffffffffff16613e7e565b15613ae3578373ffffffffffffffffffffffffffffffffffffffff1663150b7a026139ac612d5b565b8786866040518563ffffffff1660e01b81526004016139ce9493929190614c62565b602060405180830381600087803b1580156139e857600080fd5b505af1925050508015613a1957506040513d601f19601f82011682018060405250810190613a169190614763565b60015b613a93573d8060008114613a49576040519150601f19603f3d011682016040523d82523d6000602084013e613a4e565b606091505b50600081511415613a8b576040517fd1a57ed600000000000000000000000000000000000000000000000000000000815260040160405180910390fd5b805181602001fd5b63150b7a0260e01b7bffffffffffffffffffffffffffffffffffffffffffffffffffffffff1916817bffffffffffffffffffffffffffffffffffffffffffffffffffffffff191614915050613ae8565b600190505b949350505050565b613b888282604051602401613b06929190614d36565b6040516020818303038152906040527f4b5c4277000000000000000000000000000000000000000000000000000000007bffffffffffffffffffffffffffffffffffffffffffffffffffffffff19166020820180517bffffffffffffffffffffffffffffffffffffffffffffffffffffffff8381831617835250505050613e43565b5050565b60606000821415613bd4576040518060400160405280600181526020017f30000000000000000000000000000000000000000000000000000000000000008152509050613ce8565b600082905060005b60008214613c06578080613bef906152b2565b915050600a82613bff91906150c2565b9150613bdc565b60008167ffffffffffffffff811115613c2257613c216153e8565b5b6040519080825280601f01601f191660200182016040528015613c545781602001600182028036833780820191505090505b5090505b60008514613ce157600182613c6d919061514d565b9150600a85613c7c91906152fb565b6030613c88919061506c565b60f81b818381518110613c9e57613c9d6153b9565b5b60200101907effffffffffffffffffffffffffffffffffffffffffffffffffffffffffffff1916908160001a905350600a85613cda91906150c2565b9450613c58565b8093505050505b919050565b60007f80ac58cd000000000000000000000000000000000000000000000000000000007bffffffffffffffffffffffffffffffffffffffffffffffffffffffff1916827bffffffffffffffffffffffffffffffffffffffffffffffffffffffff19161480613db857507f5b5e139f000000000000000000000000000000000000000000000000000000007bffffffffffffffffffffffffffffffffffffffffffffffffffffffff1916827bffffffffffffffffffffffffffffffffffffffffffffffffffffffff1916145b80613e2057507f780e9d63000000000000000000000000000000000000000000000000000000007bffffffffffffffffffffffffffffffffffffffffffffffffffffffff1916827bffffffffffffffffffffffffffffffffffffffffffffffffffffffff1916145b80613e305750613e2f82613ea1565b5b9050919050565b50505050565b50505050565b60008151905060006a636f6e736f6c652e6c6f679050602083016000808483855afa5050505050565b613e798383836001613f0b565b505050565b6000808273ffffffffffffffffffffffffffffffffffffffff163b119050919050565b60007f01ffc9a7000000000000000000000000000000000000000000000000000000007bffffffffffffffffffffffffffffffffffffffffffffffffffffffff1916827bffffffffffffffffffffffffffffffffffffffffffffffffffffffff1916149050919050565b60008060009054906101000a90046fffffffffffffffffffffffffffffffff166fffffffffffffffffffffffffffffffff169050600073ffffffffffffffffffffffffffffffffffffffff168573ffffffffffffffffffffffffffffffffffffffff161415613fa6576040517f2e07630000000000000000000000000000000000000000000000000000000000815260040160405180910390fd5b6000841415613fe1576040517fb562e8dd00000000000000000000000000000000000000000000000000000000815260040160405180910390fd5b613fee6000868387613e37565b83600460008773ffffffffffffffffffffffffffffffffffffffff1673ffffffffffffffffffffffffffffffffffffffff16815260200190815260200160002060000160008282829054906101000a900467ffffffffffffffff160192506101000a81548167ffffffffffffffff021916908367ffffffffffffffff16021790555083600460008773ffffffffffffffffffffffffffffffffffffffff1673ffffffffffffffffffffffffffffffffffffffff16815260200190815260200160002060000160088282829054906101000a900467ffffffffffffffff160192506101000a81548167ffffffffffffffff021916908367ffffffffffffffff160217905550846003600083815260200190815260200160002060000160006101000a81548173ffffffffffffffffffffffffffffffffffffffff021916908373ffffffffffffffffffffffffffffffffffffffff160217905550426003600083815260200190815260200160002060000160146101000a81548167ffffffffffffffff021916908367ffffffffffffffff160217905550600081905060005b8581101561425357818773ffffffffffffffffffffffffffffffffffffffff16600073ffffffffffffffffffffffffffffffffffffffff167fddf252ad1be2c89b69c2b068fc378daa952ba7f163c4a11628f55a4df523b3ef60405160405180910390a483801561420757506142056000888488613962565b155b1561423e576040517fd1a57ed600000000000000000000000000000000000000000000000000000000815260040160405180910390fd5b8180600101925050808060010191505061418c565b50806000806101000a8154816fffffffffffffffffffffffffffffffff02191690836fffffffffffffffffffffffffffffffff1602179055505061429a6000868387613e3d565b5050505050565b60405180606001604052806000815260200160008152602001606081525090565b8280546142ce9061524f565b90600052602060002090601f0160209004810192826142f05760008555614337565b82601f1061430957805160ff1916838001178555614337565b82800160010185558215614337579182015b8281111561433657825182559160200191906001019061431b565b5b509050614344919061438b565b5090565b6040518060600160405280600073ffffffffffffffffffffffffffffffffffffffff168152602001600067ffffffffffffffff1681526020016000151581525090565b5b808211156143a457600081600090555060010161438c565b5090565b60006143bb6143b684614f5d565b614f38565b9050828152602081018484840111156143d7576143d661541c565b5b6143e284828561520d565b509392505050565b60006143fd6143f884614f8e565b614f38565b9050828152602081018484840111156144195761441861541c565b5b61442484828561520d565b509392505050565b60008135905061443b816155fc565b92915050565b60008135905061445081615613565b92915050565b6000813590506144658161562a565b92915050565b60008151905061447a8161562a565b92915050565b600082601f83011261449557614494615417565b5b81356144a58482602086016143a8565b91505092915050565b600082601f8301126144c3576144c2615417565b5b81356144d38482602086016143ea565b91505092915050565b6000813590506144eb81615641565b92915050565b60008135905061450081615658565b92915050565b60006020828403121561451c5761451b615426565b5b600061452a8482850161442c565b91505092915050565b6000806040838503121561454a57614549615426565b5b60006145588582860161442c565b92505060206145698582860161442c565b9150509250929050565b60008060006060848603121561458c5761458b615426565b5b600061459a8682870161442c565b93505060206145ab8682870161442c565b92505060406145bc868287016144dc565b9150509250925092565b600080600080608085870312156145e0576145df615426565b5b60006145ee8782880161442c565b94505060206145ff8782880161442c565b9350506040614610878288016144dc565b925050606085013567ffffffffffffffff81111561463157614630615421565b5b61463d87828801614480565b91505092959194509250565b600080604083850312156146605761465f615426565b5b600061466e8582860161442c565b925050602061467f85828601614441565b9150509250929050565b600080604083850312156146a05761469f615426565b5b60006146ae8582860161442c565b92505060206146bf858286016144dc565b9150509250929050565b600080604083850312156146e0576146df615426565b5b60006146ee8582860161442c565b92505060206146ff858286016144f1565b9150509250929050565b60006020828403121561471f5761471e615426565b5b600061472d84828501614441565b91505092915050565b60006020828403121561474c5761474b615426565b5b600061475a84828501614456565b91505092915050565b60006020828403121561477957614778615426565b5b60006147878482850161446b565b91505092915050565b6000602082840312156147a6576147a5615426565b5b600082013567ffffffffffffffff8111156147c4576147c3615421565b5b6147d0848285016144ae565b91505092915050565b6000602082840312156147ef576147ee615426565b5b60006147fd848285016144dc565b91505092915050565b6000806040838503121561481d5761481c615426565b5b600061482b858286016144dc565b925050602061483c858286016144dc565b9150509250929050565b60006148528383614be3565b60208301905092915050565b61486781615181565b82525050565b600061487882614fe4565b6148828185615012565b935061488d83614fbf565b8060005b838110156148be5781516148a58882614846565b97506148b083615005565b925050600181019050614891565b5085935050505092915050565b6148d481615193565b82525050565b60006148e582614fef565b6148ef8185615023565b93506148ff81856020860161521c565b6149088161542b565b840191505092915050565b600061491e82614ffa565b614928818561503f565b935061493881856020860161521c565b6149418161542b565b840191505092915050565b600061495782614ffa565b6149618185615050565b935061497181856020860161521c565b61497a8161542b565b840191505092915050565b600061499082614ffa565b61499a8185615061565b93506149aa81856020860161521c565b80840191505092915050565b600081546149c38161524f565b6149cd8186615061565b945060018216600081146149e857600181146149f957614a2c565b60ff19831686528186019350614a2c565b614a0285614fcf565b60005b83811015614a2457815481890152600182019150602081019050614a05565b838801955050505b50505092915050565b6000614a42602683615050565b9150614a4d8261543c565b604082019050919050565b6000614a65602083615050565b9150614a708261548b565b602082019050919050565b6000614a88601883615050565b9150614a93826154b4565b602082019050919050565b6000614aab600083615034565b9150614ab6826154dd565b600082019050919050565b6000614ace601083615050565b9150614ad9826154e0565b602082019050919050565b6000614af1601a83615050565b9150614afc82615509565b602082019050919050565b6000614b14602a83615050565b9150614b1f82615532565b604082019050919050565b6000614b37601a83615050565b9150614b4282615581565b602082019050919050565b6000614b5a601f83615050565b9150614b65826155aa565b602082019050919050565b6000614b7d601983615050565b9150614b88826155d3565b602082019050919050565b6000606083016000830151614bab6000860182614be3565b506020830151614bbe6020860182614be3565b5060408301518482036040860152614bd68282614913565b9150508091505092915050565b614bec816151eb565b82525050565b614bfb816151eb565b82525050565b6000614c0d82866149b6565b9150614c198285614985565b9150614c2582846149b6565b9150819050949350505050565b6000614c3d82614a9e565b9150819050919050565b6000602082019050614c5c600083018461485e565b92915050565b6000608082019050614c77600083018761485e565b614c84602083018661485e565b614c916040830185614bf2565b8181036060830152614ca381846148da565b905095945050505050565b6000604082019050614cc3600083018561485e565b614cd06020830184614bf2565b9392505050565b60006020820190508181036000830152614cf1818461486d565b905092915050565b6000602082019050614d0e60008301846148cb565b92915050565b60006020820190508181036000830152614d2e818461494c565b905092915050565b60006040820190508181036000830152614d50818561494c565b90508181036020830152614d64818461494c565b90509392505050565b60006040820190508181036000830152614d87818561494c565b9050614d966020830184614bf2565b9392505050565b60006020820190508181036000830152614db681614a35565b9050919050565b60006020820190508181036000830152614dd681614a58565b9050919050565b60006020820190508181036000830152614df681614a7b565b9050919050565b60006020820190508181036000830152614e1681614ac1565b9050919050565b60006020820190508181036000830152614e3681614ae4565b9050919050565b60006020820190508181036000830152614e5681614b07565b9050919050565b60006020820190508181036000830152614e7681614b2a565b9050919050565b60006020820190508181036000830152614e9681614b4d565b9050919050565b60006020820190508181036000830152614eb681614b70565b9050919050565b60006020820190508181036000830152614ed78184614b93565b905092915050565b6000602082019050614ef46000830184614bf2565b92915050565b6000606082019050614f0f6000830186614bf2565b614f1c6020830185614bf2565b8181036040830152614f2e818461494c565b9050949350505050565b6000614f42614f53565b9050614f4e8282615281565b919050565b6000604051905090565b600067ffffffffffffffff821115614f7857614f776153e8565b5b614f818261542b565b9050602081019050919050565b600067ffffffffffffffff821115614fa957614fa86153e8565b5b614fb28261542b565b9050602081019050919050565b6000819050602082019050919050565b60008190508160005260206000209050919050565b600081519050919050565b600081519050919050565b600081519050919050565b6000602082019050919050565b600082825260208201905092915050565b600082825260208201905092915050565b600081905092915050565b600082825260208201905092915050565b600082825260208201905092915050565b600081905092915050565b6000615077826151eb565b9150615082836151eb565b9250827fffffffffffffffffffffffffffffffffffffffffffffffffffffffffffffffff038211156150b7576150b661532c565b5b828201905092915050565b60006150cd826151eb565b91506150d8836151eb565b9250826150e8576150e761535b565b5b828204905092915050565b60006150fe826151eb565b9150615109836151eb565b9250817fffffffffffffffffffffffffffffffffffffffffffffffffffffffffffffffff04831182151516156151425761514161532c565b5b828202905092915050565b6000615158826151eb565b9150615163836151eb565b9250828210156151765761517561532c565b5b828203905092915050565b600061518c826151cb565b9050919050565b60008115159050919050565b60007fffffffff0000000000000000000000000000000000000000000000000000000082169050919050565b600073ffffffffffffffffffffffffffffffffffffffff82169050919050565b6000819050919050565b60006bffffffffffffffffffffffff82169050919050565b82818337600083830152505050565b60005b8381101561523a57808201518184015260208101905061521f565b83811115615249576000848401525b50505050565b6000600282049050600182168061526757607f821691505b6020821081141561527b5761527a61538a565b5b50919050565b61528a8261542b565b810181811067ffffffffffffffff821117156152a9576152a86153e8565b5b80604052505050565b60006152bd826151eb565b91507fffffffffffffffffffffffffffffffffffffffffffffffffffffffffffffffff8214156152f0576152ef61532c565b5b600182019050919050565b6000615306826151eb565b9150615311836151eb565b9250826153215761532061535b565b5b828206905092915050565b7f4e487b7100000000000000000000000000000000000000000000000000000000600052601160045260246000fd5b7f4e487b7100000000000000000000000000000000000000000000000000000000600052601260045260246000fd5b7f4e487b7100000000000000000000000000000000000000000000000000000000600052602260045260246000fd5b7f4e487b7100000000000000000000000000000000000000000000000000000000600052603260045260246000fd5b7f4e487b7100000000000000000000000000000000000000000000000000000000600052604160045260246000fd5b600080fd5b600080fd5b600080fd5b600080fd5b6000601f19601f8301169050919050565b7f4f776e61626c653a206e6577206f776e657220697320746865207a65726f206160008201527f6464726573730000000000000000000000000000000000000000000000000000602082015250565b7f4f776e61626c653a2063616c6c6572206973206e6f7420746865206f776e6572600082015250565b7f43686172697479205472616e73666572206661696c65642e0000000000000000600082015250565b50565b7f5472616e73666572206661696c65642e00000000000000000000000000000000600082015250565b7f4e6f206574686572206c65667420746f2077697468647261772e000000000000600082015250565b7f455243323938313a20726f79616c7479206665652077696c6c2065786365656460008201527f2073616c65507269636500000000000000000000000000000000000000000000602082015250565b7f446576656c6f706572205472616e73666572206661696c65642e000000000000600082015250565b7f5265656e7472616e637947756172643a207265656e7472616e742063616c6c00600082015250565b7f455243323938313a20696e76616c696420726563656976657200000000000000600082015250565b61560581615181565b811461561057600080fd5b50565b61561c81615193565b811461562757600080fd5b50565b6156338161519f565b811461563e57600080fd5b50565b61564a816151eb565b811461565557600080fd5b50565b615661816151f5565b811461566c57600080fd5b5056fea264697066735822122053da535efaf3be81d85a9737f004a352f9a54585d7b2ba94d3aea826fca99da664736f6c63430008070033",
  "linkReferences": {},
  "deployedLinkReferences": {}
}