{
  "_format": "hh-sol-artifact-1",
  "contractName": "ResearchFundingClubFast",
  "sourceName": "contracts/ResearchFundingClubFast.sol",
  "abi": [
    {
      "inputs": [
        {
          "internalType": "uint96",
          "name": "_royaltyFeesInBips",
          "type": "uint96"
        },
        {
          "internalType": "string",
          "name": "_notRevealedURI",
          "type": "string"
        }
      ],
      "stateMutability": "nonpayable",
      "type": "constructor"
    },
    {
      "inputs": [],
      "name": "ApprovalCallerNotOwnerNorApproved",
      "type": "error"
    },
    {
      "inputs": [],
      "name": "ApprovalQueryForNonexistentToken",
      "type": "error"
    },
    {
      "inputs": [],
      "name": "ApprovalToCurrentOwner",
      "type": "error"
    },
    {
      "inputs": [],
      "name": "ApproveToCaller",
      "type": "error"
    },
    {
      "inputs": [],
      "name": "BalanceQueryForZeroAddress",
      "type": "error"
    },
    {
      "inputs": [],
      "name": "CollectionNotRevealedYet",
      "type": "error"
    },
    {
      "inputs": [],
      "name": "ContractPaused",
      "type": "error"
    },
    {
      "inputs": [],
      "name": "InsufficientFunds",
      "type": "error"
    },
    {
      "inputs": [],
      "name": "MaxPerNFTAddrExceeded",
      "type": "error"
    },
    {
      "inputs": [],
      "name": "MintToZeroAddress",
      "type": "error"
    },
    {
      "inputs": [],
      "name": "MintZeroQuantity",
      "type": "error"
    },
    {
      "inputs": [],
      "name": "OwnerIndexOutOfBounds",
      "type": "error"
    },
    {
      "inputs": [],
      "name": "OwnerQueryForNonexistentToken",
      "type": "error"
    },
    {
      "inputs": [],
      "name": "SaleIncomplete",
      "type": "error"
    },
    {
      "inputs": [],
      "name": "SoldOut",
      "type": "error"
    },
    {
      "inputs": [],
      "name": "TokenIndexOutOfBounds",
      "type": "error"
    },
    {
      "inputs": [],
      "name": "TransferCallerNotOwnerNorApproved",
      "type": "error"
    },
    {
      "inputs": [],
      "name": "TransferFromIncorrectOwner",
      "type": "error"
    },
    {
      "inputs": [],
      "name": "TransferToNonERC721ReceiverImplementer",
      "type": "error"
    },
    {
      "inputs": [],
      "name": "TransferToZeroAddress",
      "type": "error"
    },
    {
      "inputs": [],
      "name": "URIQueryForNonexistentTokenRFC",
      "type": "error"
    },
    {
      "inputs": [],
      "name": "ZeroMintFailed",
      "type": "error"
    },
    {
      "anonymous": false,
      "inputs": [
        {
          "indexed": true,
          "internalType": "address",
          "name": "owner",
          "type": "address"
        },
        {
          "indexed": true,
          "internalType": "address",
          "name": "approved",
          "type": "address"
        },
        {
          "indexed": true,
          "internalType": "uint256",
          "name": "tokenId",
          "type": "uint256"
        }
      ],
      "name": "Approval",
      "type": "event"
    },
    {
      "anonymous": false,
      "inputs": [
        {
          "indexed": true,
          "internalType": "address",
          "name": "owner",
          "type": "address"
        },
        {
          "indexed": true,
          "internalType": "address",
          "name": "operator",
          "type": "address"
        },
        {
          "indexed": false,
          "internalType": "bool",
          "name": "approved",
          "type": "bool"
        }
      ],
      "name": "ApprovalForAll",
      "type": "event"
    },
    {
      "anonymous": false,
      "inputs": [
        {
          "indexed": true,
          "internalType": "address",
          "name": "previousOwner",
          "type": "address"
        },
        {
          "indexed": true,
          "internalType": "address",
          "name": "newOwner",
          "type": "address"
        }
      ],
      "name": "OwnershipTransferred",
      "type": "event"
    },
    {
      "anonymous": false,
      "inputs": [
        {
          "indexed": true,
          "internalType": "address",
          "name": "from",
          "type": "address"
        },
        {
          "indexed": true,
          "internalType": "address",
          "name": "to",
          "type": "address"
        },
        {
          "indexed": true,
          "internalType": "uint256",
          "name": "tokenId",
          "type": "uint256"
        }
      ],
      "name": "Transfer",
      "type": "event"
    },
    {
      "inputs": [],
      "name": "MAX_PER_MINT",
      "outputs": [
        {
          "internalType": "uint256",
          "name": "",
          "type": "uint256"
        }
      ],
      "stateMutability": "view",
      "type": "function"
    },
    {
      "inputs": [],
      "name": "MAX_SUPPLY",
      "outputs": [
        {
          "internalType": "uint256",
          "name": "",
          "type": "uint256"
        }
      ],
      "stateMutability": "view",
      "type": "function"
    },
    {
      "inputs": [],
      "name": "MIN_SUPPLY",
      "outputs": [
        {
          "internalType": "uint256",
          "name": "",
          "type": "uint256"
        }
      ],
      "stateMutability": "view",
      "type": "function"
    },
    {
      "inputs": [],
      "name": "PRICE",
      "outputs": [
        {
          "internalType": "uint256",
          "name": "",
          "type": "uint256"
        }
      ],
      "stateMutability": "view",
      "type": "function"
    },
    {
      "inputs": [
        {
          "internalType": "address",
          "name": "to",
          "type": "address"
        },
        {
          "internalType": "uint256",
          "name": "tokenId",
          "type": "uint256"
        }
      ],
      "name": "approve",
      "outputs": [],
      "stateMutability": "nonpayable",
      "type": "function"
    },
    {
      "inputs": [
        {
          "internalType": "address",
          "name": "owner",
          "type": "address"
        }
      ],
      "name": "balanceOf",
      "outputs": [
        {
          "internalType": "uint256",
          "name": "",
          "type": "uint256"
        }
      ],
      "stateMutability": "view",
      "type": "function"
    },
    {
      "inputs": [],
      "name": "baseExtension",
      "outputs": [
        {
          "internalType": "string",
          "name": "",
          "type": "string"
        }
      ],
      "stateMutability": "view",
      "type": "function"
    },
    {
      "inputs": [],
      "name": "baseTokenURI",
      "outputs": [
        {
          "internalType": "string",
          "name": "",
          "type": "string"
        }
      ],
      "stateMutability": "view",
      "type": "function"
    },
    {
      "inputs": [],
      "name": "baseURI",
      "outputs": [
        {
          "internalType": "string",
          "name": "",
          "type": "string"
        }
      ],
      "stateMutability": "view",
      "type": "function"
    },
    {
      "inputs": [],
      "name": "charityWallet",
      "outputs": [
        {
          "internalType": "address",
          "name": "",
          "type": "address"
        }
      ],
      "stateMutability": "view",
      "type": "function"
    },
    {
      "inputs": [],
      "name": "collectionID",
      "outputs": [
        {
          "internalType": "uint256",
          "name": "",
          "type": "uint256"
        }
      ],
      "stateMutability": "view",
      "type": "function"
    },
    {
      "inputs": [
        {
          "internalType": "uint256",
          "name": "",
          "type": "uint256"
        }
      ],
      "name": "collections",
      "outputs": [
        {
          "internalType": "uint256",
          "name": "minSupply",
          "type": "uint256"
        },
        {
          "internalType": "uint256",
          "name": "maxSupply",
          "type": "uint256"
        },
        {
          "internalType": "string",
          "name": "baseURI",
          "type": "string"
        }
      ],
      "stateMutability": "view",
      "type": "function"
    },
    {
      "inputs": [],
      "name": "devWallet",
      "outputs": [
        {
          "internalType": "address",
          "name": "",
          "type": "address"
        }
      ],
      "stateMutability": "view",
      "type": "function"
    },
    {
      "inputs": [
        {
          "internalType": "uint256",
          "name": "tokenId",
          "type": "uint256"
        }
      ],
      "name": "getApproved",
      "outputs": [
        {
          "internalType": "address",
          "name": "",
          "type": "address"
        }
      ],
      "stateMutability": "view",
      "type": "function"
    },
    {
      "inputs": [
        {
          "internalType": "uint256",
          "name": "_id",
          "type": "uint256"
        }
      ],
      "name": "getCollectionInfo",
      "outputs": [
        {
          "components": [
            {
              "internalType": "uint256",
              "name": "minSupply",
              "type": "uint256"
            },
            {
              "internalType": "uint256",
              "name": "maxSupply",
              "type": "uint256"
            },
            {
              "internalType": "string",
              "name": "baseURI",
              "type": "string"
            }
          ],
          "internalType": "struct ResearchFundingClubFast.CollectionData",
          "name": "",
          "type": "tuple"
        }
      ],
      "stateMutability": "view",
      "type": "function"
    },
    {
      "inputs": [
        {
          "internalType": "address",
          "name": "owner",
          "type": "address"
        },
        {
          "internalType": "address",
          "name": "operator",
          "type": "address"
        }
      ],
      "name": "isApprovedForAll",
      "outputs": [
        {
          "internalType": "bool",
          "name": "",
          "type": "bool"
        }
      ],
      "stateMutability": "view",
      "type": "function"
    },
    {
      "inputs": [
        {
          "internalType": "uint256",
          "name": "_mintAmount",
          "type": "uint256"
        }
      ],
      "name": "mint",
      "outputs": [],
      "stateMutability": "payable",
      "type": "function"
    },
    {
      "inputs": [],
      "name": "name",
      "outputs": [
        {
          "internalType": "string",
          "name": "",
          "type": "string"
        }
      ],
      "stateMutability": "view",
      "type": "function"
    },
    {
      "inputs": [
        {
          "internalType": "uint256",
          "name": "_newMaxSupply",
          "type": "uint256"
        }
      ],
      "name": "newDrop",
      "outputs": [],
      "stateMutability": "nonpayable",
      "type": "function"
    },
    {
      "inputs": [],
      "name": "notRevealedURI",
      "outputs": [
        {
          "internalType": "string",
          "name": "",
          "type": "string"
        }
      ],
      "stateMutability": "view",
      "type": "function"
    },
    {
      "inputs": [],
      "name": "owner",
      "outputs": [
        {
          "internalType": "address",
          "name": "",
          "type": "address"
        }
      ],
      "stateMutability": "view",
      "type": "function"
    },
    {
      "inputs": [
        {
          "internalType": "uint256",
          "name": "tokenId",
          "type": "uint256"
        }
      ],
      "name": "ownerOf",
      "outputs": [
        {
          "internalType": "address",
          "name": "",
          "type": "address"
        }
      ],
      "stateMutability": "view",
      "type": "function"
    },
    {
      "inputs": [
        {
          "internalType": "bool",
          "name": "_state",
          "type": "bool"
        }
      ],
      "name": "pause",
      "outputs": [],
      "stateMutability": "nonpayable",
      "type": "function"
    },
    {
      "inputs": [],
      "name": "paused",
      "outputs": [
        {
          "internalType": "bool",
          "name": "",
          "type": "bool"
        }
      ],
      "stateMutability": "view",
      "type": "function"
    },
    {
      "inputs": [],
      "name": "renounceOwnership",
      "outputs": [],
      "stateMutability": "nonpayable",
      "type": "function"
    },
    {
      "inputs": [
        {
          "internalType": "string",
          "name": "_newBaseURI",
          "type": "string"
        }
      ],
      "name": "reveal",
      "outputs": [],
      "stateMutability": "nonpayable",
      "type": "function"
    },
    {
      "inputs": [],
      "name": "revealed",
      "outputs": [
        {
          "internalType": "bool",
          "name": "",
          "type": "bool"
        }
      ],
      "stateMutability": "view",
      "type": "function"
    },
    {
      "inputs": [
        {
          "internalType": "uint256",
          "name": "_tokenId",
          "type": "uint256"
        },
        {
          "internalType": "uint256",
          "name": "_salePrice",
          "type": "uint256"
        }
      ],
      "name": "royaltyInfo",
      "outputs": [
        {
          "internalType": "address",
          "name": "",
          "type": "address"
        },
        {
          "internalType": "uint256",
          "name": "",
          "type": "uint256"
        }
      ],
      "stateMutability": "view",
      "type": "function"
    },
    {
      "inputs": [
        {
          "internalType": "address",
          "name": "from",
          "type": "address"
        },
        {
          "internalType": "address",
          "name": "to",
          "type": "address"
        },
        {
          "internalType": "uint256",
          "name": "tokenId",
          "type": "uint256"
        }
      ],
      "name": "safeTransferFrom",
      "outputs": [],
      "stateMutability": "nonpayable",
      "type": "function"
    },
    {
      "inputs": [
        {
          "internalType": "address",
          "name": "from",
          "type": "address"
        },
        {
          "internalType": "address",
          "name": "to",
          "type": "address"
        },
        {
          "internalType": "uint256",
          "name": "tokenId",
          "type": "uint256"
        },
        {
          "internalType": "bytes",
          "name": "_data",
          "type": "bytes"
        }
      ],
      "name": "safeTransferFrom",
      "outputs": [],
      "stateMutability": "nonpayable",
      "type": "function"
    },
    {
      "inputs": [
        {
          "internalType": "address",
          "name": "operator",
          "type": "address"
        },
        {
          "internalType": "bool",
          "name": "approved",
          "type": "bool"
        }
      ],
      "name": "setApprovalForAll",
      "outputs": [],
      "stateMutability": "nonpayable",
      "type": "function"
    },
    {
      "inputs": [
        {
          "internalType": "string",
          "name": "_newBaseExtension",
          "type": "string"
        }
      ],
      "name": "setBaseExtension",
      "outputs": [],
      "stateMutability": "nonpayable",
      "type": "function"
    },
    {
      "inputs": [
        {
          "internalType": "string",
          "name": "_baseTokenURI",
          "type": "string"
        }
      ],
      "name": "setBaseURI",
      "outputs": [],
      "stateMutability": "nonpayable",
      "type": "function"
    },
    {
      "inputs": [
        {
          "internalType": "uint256",
          "name": "_newCost",
          "type": "uint256"
        }
      ],
      "name": "setCost",
      "outputs": [],
      "stateMutability": "nonpayable",
      "type": "function"
    },
    {
      "inputs": [
        {
          "internalType": "string",
          "name": "_notRevealedURI",
          "type": "string"
        }
      ],
      "name": "setNotRevealedURI",
      "outputs": [],
      "stateMutability": "nonpayable",
      "type": "function"
    },
    {
      "inputs": [
        {
          "internalType": "address",
          "name": "_receiver",
          "type": "address"
        },
        {
          "internalType": "uint96",
          "name": "_royaltyFeesInBips",
          "type": "uint96"
        }
      ],
      "name": "setRoyaltyInfo",
      "outputs": [],
      "stateMutability": "nonpayable",
      "type": "function"
    },
    {
      "inputs": [
        {
          "internalType": "uint256",
          "name": "_limit",
          "type": "uint256"
        }
      ],
      "name": "setmaxMintAmount",
      "outputs": [],
      "stateMutability": "nonpayable",
      "type": "function"
    },
    {
      "inputs": [
        {
          "internalType": "uint256",
          "name": "_limit",
          "type": "uint256"
        }
      ],
      "name": "setmaxSupply",
      "outputs": [],
      "stateMutability": "nonpayable",
      "type": "function"
    },
    {
      "inputs": [
        {
          "internalType": "bytes4",
          "name": "interfaceId",
          "type": "bytes4"
        }
      ],
      "name": "supportsInterface",
      "outputs": [
        {
          "internalType": "bool",
          "name": "",
          "type": "bool"
        }
      ],
      "stateMutability": "view",
      "type": "function"
    },
    {
      "inputs": [],
      "name": "symbol",
      "outputs": [
        {
          "internalType": "string",
          "name": "",
          "type": "string"
        }
      ],
      "stateMutability": "view",
      "type": "function"
    },
    {
      "inputs": [
        {
          "internalType": "uint256",
          "name": "index",
          "type": "uint256"
        }
      ],
      "name": "tokenByIndex",
      "outputs": [
        {
          "internalType": "uint256",
          "name": "",
          "type": "uint256"
        }
      ],
      "stateMutability": "view",
      "type": "function"
    },
    {
      "inputs": [
        {
          "internalType": "address",
          "name": "owner",
          "type": "address"
        },
        {
          "internalType": "uint256",
          "name": "index",
          "type": "uint256"
        }
      ],
      "name": "tokenOfOwnerByIndex",
      "outputs": [
        {
          "internalType": "uint256",
          "name": "",
          "type": "uint256"
        }
      ],
      "stateMutability": "view",
      "type": "function"
    },
    {
      "inputs": [
        {
          "internalType": "uint256",
          "name": "tokenId",
          "type": "uint256"
        }
      ],
      "name": "tokenURI",
      "outputs": [
        {
          "internalType": "string",
          "name": "",
          "type": "string"
        }
      ],
      "stateMutability": "view",
      "type": "function"
    },
    {
      "inputs": [
        {
          "internalType": "address",
          "name": "_owner",
          "type": "address"
        }
      ],
      "name": "tokensOfOwner",
      "outputs": [
        {
          "internalType": "uint256[]",
          "name": "",
          "type": "uint256[]"
        }
      ],
      "stateMutability": "view",
      "type": "function"
    },
    {
      "inputs": [],
      "name": "totalSupply",
      "outputs": [
        {
          "internalType": "uint256",
          "name": "",
          "type": "uint256"
        }
      ],
      "stateMutability": "view",
      "type": "function"
    },
    {
      "inputs": [
        {
          "internalType": "address",
          "name": "from",
          "type": "address"
        },
        {
          "internalType": "address",
          "name": "to",
          "type": "address"
        },
        {
          "internalType": "uint256",
          "name": "tokenId",
          "type": "uint256"
        }
      ],
      "name": "transferFrom",
      "outputs": [],
      "stateMutability": "nonpayable",
      "type": "function"
    },
    {
      "inputs": [
        {
          "internalType": "address",
          "name": "newOwner",
          "type": "address"
        }
      ],
      "name": "transferOwnership",
      "outputs": [],
      "stateMutability": "nonpayable",
      "type": "function"
    },
    {
      "inputs": [],
      "name": "withdraw",
      "outputs": [],
      "stateMutability": "nonpayable",
      "type": "function"
    }
  ],
  "bytecode": "0x60806040526001600c60006101000a81548160ff0219169083151502179055506040518060400160405280600581526020017f2e6a736f6e000000000000000000000000000000000000000000000000000000815250600d90805190602001906200006c929190620005c9565b506000601055600a601155655af3107a400060125560016013556000601460006101000a81548160ff021916908315150217905550600160155573f9351cfab08d72e873424708a817a067fa33f45f601760006101000a81548173ffffffffffffffffffffffffffffffffffffffff021916908373ffffffffffffffffffffffffffffffffffffffff16021790555073f9351cfab08d72e873424708a817a067fa33f45f601860006101000a81548173ffffffffffffffffffffffffffffffffffffffff021916908373ffffffffffffffffffffffffffffffffffffffff1602179055503480156200015d57600080fd5b506040516200615d3803806200615d83398181016040528101906200018391906200070e565b6040518060400160405280601581526020017f52657365617263682046756e64696e6720436c756200000000000000000000008152506040518060400160405280600381526020017f5246430000000000000000000000000000000000000000000000000000000000815250816001908051906020019062000207929190620005c9565b50806002908051906020019062000220929190620005c9565b50505062000243620002376200027e60201b60201c565b6200028660201b60201c565b6001600a819055506200025d33836200034c60201b60201c565b80600e908051906020019062000275929190620005c9565b50505062000ab7565b600033905090565b6000600960009054906101000a900473ffffffffffffffffffffffffffffffffffffffff16905081600960006101000a81548173ffffffffffffffffffffffffffffffffffffffff021916908373ffffffffffffffffffffffffffffffffffffffff1602179055508173ffffffffffffffffffffffffffffffffffffffff168173ffffffffffffffffffffffffffffffffffffffff167f8be0079c531659141344cd1fd0a4f28419497f9722a3daafe3b4186f6b6457e060405160405180910390a35050565b6200035c6200027e60201b60201c565b73ffffffffffffffffffffffffffffffffffffffff1662000382620003f160201b60201c565b73ffffffffffffffffffffffffffffffffffffffff1614620003db576040517f08c379a0000000000000000000000000000000000000000000000000000000008152600401620003d290620007e9565b60405180910390fd5b620003ed82826200041b60201b60201c565b5050565b6000600960009054906101000a900473ffffffffffffffffffffffffffffffffffffffff16905090565b6200042b620005bf60201b60201c565b6bffffffffffffffffffffffff16816bffffffffffffffffffffffff1611156200048c576040517f08c379a000000000000000000000000000000000000000000000000000000000815260040162000483906200080b565b60405180910390fd5b600073ffffffffffffffffffffffffffffffffffffffff168273ffffffffffffffffffffffffffffffffffffffff161415620004ff576040517f08c379a0000000000000000000000000000000000000000000000000000000008152600401620004f6906200082d565b60405180910390fd5b60405180604001604052808373ffffffffffffffffffffffffffffffffffffffff168152602001826bffffffffffffffffffffffff16815250600760008201518160000160006101000a81548173ffffffffffffffffffffffffffffffffffffffff021916908373ffffffffffffffffffffffffffffffffffffffff16021790555060208201518160000160146101000a8154816bffffffffffffffffffffffff02191690836bffffffffffffffffffffffff1602179055509050505050565b6000612710905090565b828054620005d7906200090d565b90600052602060002090601f016020900481019282620005fb576000855562000647565b82601f106200061657805160ff191683800117855562000647565b8280016001018555821562000647579182015b828111156200064657825182559160200191906001019062000629565b5b5090506200065691906200065a565b5090565b5b80821115620006755760008160009055506001016200065b565b5090565b6000620006906200068a8462000878565b6200084f565b905082815260208101848484011115620006af57620006ae620009dc565b5b620006bc848285620008d7565b509392505050565b600082601f830112620006dc57620006db620009d7565b5b8151620006ee84826020860162000679565b91505092915050565b600081519050620007088162000a9d565b92915050565b60008060408385031215620007285762000727620009e6565b5b60006200073885828601620006f7565b925050602083015167ffffffffffffffff8111156200075c576200075b620009e1565b5b6200076a85828601620006c4565b9150509250929050565b600062000783602083620008ae565b91506200079082620009fc565b602082019050919050565b6000620007aa602a83620008ae565b9150620007b78262000a25565b604082019050919050565b6000620007d1601983620008ae565b9150620007de8262000a74565b602082019050919050565b60006020820190508181036000830152620008048162000774565b9050919050565b6000602082019050818103600083015262000826816200079b565b9050919050565b600060208201905081810360008301526200084881620007c2565b9050919050565b60006200085b6200086e565b905062000869828262000943565b919050565b6000604051905090565b600067ffffffffffffffff821115620008965762000895620009a8565b5b620008a182620009eb565b9050602081019050919050565b600082825260208201905092915050565b60006bffffffffffffffffffffffff82169050919050565b60005b83811015620008f7578082015181840152602081019050620008da565b8381111562000907576000848401525b50505050565b600060028204905060018216806200092657607f821691505b602082108114156200093d576200093c62000979565b5b50919050565b6200094e82620009eb565b810181811067ffffffffffffffff8211171562000970576200096f620009a8565b5b80604052505050565b7f4e487b7100000000000000000000000000000000000000000000000000000000600052602260045260246000fd5b7f4e487b7100000000000000000000000000000000000000000000000000000000600052604160045260246000fd5b600080fd5b600080fd5b600080fd5b600080fd5b6000601f19601f8301169050919050565b7f4f776e61626c653a2063616c6c6572206973206e6f7420746865206f776e6572600082015250565b7f455243323938313a20726f79616c7479206665652077696c6c2065786365656460008201527f2073616c65507269636500000000000000000000000000000000000000000000602082015250565b7f455243323938313a20696e76616c696420726563656976657200000000000000600082015250565b62000aa881620008bf565b811462000ab457600080fd5b50565b6156968062000ac76000396000f3fe6080604052600436106102935760003560e01c80636352211e1161015a578063a0712d68116100c1578063d547cfb71161007a578063d547cfb714610a0a578063da3ef23f14610a35578063e985e9c514610a5e578063f2c4ce1e14610a9b578063f2fde38b14610ac4578063fdbda0ec14610aed57610293565b8063a0712d68146108f7578063a22cb46514610913578063b88d4fde1461093c578063c668286214610965578063c87b56dd14610990578063d4e4d3dd146109cd57610293565b80637f00c7a6116101135780637f00c7a6146107e55780638462151c1461080e5780638d859f3e1461084b5780638da5cb5b146108765780638ea5220f146108a157806395d89b41146108cc57610293565b80636352211e146106d35780636c0360eb1461071057806370a082311461073b578063715018a614610778578063722503801461078f5780637b208769146107ba57610293565b806332cb6b0c116101fe5780634c29bcf0116101b75780634c29bcf0146105c35780634f6ccce7146105ec578063518302271461062957806355f804b31461065457806358b33e691461067d5780635c975abb146106a857610293565b806332cb6b0c146104db57806335917c64146105065780633ccfd60b1461053157806342842e0e1461054857806344a0d68a146105715780634c2612471461059a57610293565b806309d42b301161025057806309d42b30146103b857806318160ddd146103e3578063228025e81461040e57806323b872dd146104375780632a55205a146104605780632f745c591461049e57610293565b806301ffc9a71461029857806302329a29146102d557806302fa7c47146102fe57806306fdde0314610327578063081812fc14610352578063095ea7b31461038f575b600080fd5b3480156102a457600080fd5b506102bf60048036038101906102ba9190614727565b610b2c565b6040516102cc9190614cea565b60405180910390f35b3480156102e157600080fd5b506102fc60048036038101906102f791906146fa565b610ba6565b005b34801561030a57600080fd5b50610325600480360381019061032091906146ba565b610c3f565b005b34801561033357600080fd5b5061033c610cc9565b6040516103499190614d05565b60405180910390f35b34801561035e57600080fd5b50610379600480360381019061037491906147ca565b610d5b565b6040516103869190614c38565b60405180910390f35b34801561039b57600080fd5b506103b660048036038101906103b1919061467a565b610dd7565b005b3480156103c457600080fd5b506103cd610ee2565b6040516103da9190614ed0565b60405180910390f35b3480156103ef57600080fd5b506103f8610ee8565b6040516104059190614ed0565b60405180910390f35b34801561041a57600080fd5b50610435600480360381019061043091906147ca565b610f3d565b005b34801561044357600080fd5b5061045e60048036038101906104599190614564565b610fc3565b005b34801561046c57600080fd5b50610487600480360381019061048291906147f7565b610fd3565b604051610495929190614c9f565b60405180910390f35b3480156104aa57600080fd5b506104c560048036038101906104c0919061467a565b6111be565b6040516104d29190614ed0565b60405180910390f35b3480156104e757600080fd5b506104f06113c5565b6040516104fd9190614ed0565b60405180910390f35b34801561051257600080fd5b5061051b6113cb565b6040516105289190614ed0565b60405180910390f35b34801561053d57600080fd5b506105466113d1565b005b34801561055457600080fd5b5061056f600480360381019061056a9190614564565b611769565b005b34801561057d57600080fd5b50610598600480360381019061059391906147ca565b611789565b005b3480156105a657600080fd5b506105c160048036038101906105bc9190614781565b61180f565b005b3480156105cf57600080fd5b506105ea60048036038101906105e591906147ca565b611935565b005b3480156105f857600080fd5b50610613600480360381019061060e91906147ca565b611aad565b6040516106209190614ed0565b60405180910390f35b34801561063557600080fd5b5061063e611c1e565b60405161064b9190614cea565b60405180910390f35b34801561066057600080fd5b5061067b60048036038101906106769190614781565b611c31565b005b34801561068957600080fd5b50610692611cc7565b60405161069f9190614ed0565b60405180910390f35b3480156106b457600080fd5b506106bd611ccd565b6040516106ca9190614cea565b60405180910390f35b3480156106df57600080fd5b506106fa60048036038101906106f591906147ca565b611ce0565b6040516107079190614c38565b60405180910390f35b34801561071c57600080fd5b50610725611cf6565b6040516107329190614d05565b60405180910390f35b34801561074757600080fd5b50610762600480360381019061075d91906144f7565b611d84565b60405161076f9190614ed0565b60405180910390f35b34801561078457600080fd5b5061078d611e54565b005b34801561079b57600080fd5b506107a4611edc565b6040516107b19190614d05565b60405180910390f35b3480156107c657600080fd5b506107cf611f6a565b6040516107dc9190614c38565b60405180910390f35b3480156107f157600080fd5b5061080c600480360381019061080791906147ca565b611f90565b005b34801561081a57600080fd5b50610835600480360381019061083091906144f7565b612016565b6040516108429190614cc8565b60405180910390f35b34801561085757600080fd5b506108606120c4565b60405161086d9190614ed0565b60405180910390f35b34801561088257600080fd5b5061088b6120ca565b6040516108989190614c38565b60405180910390f35b3480156108ad57600080fd5b506108b66120f4565b6040516108c39190614c38565b60405180910390f35b3480156108d857600080fd5b506108e161211a565b6040516108ee9190614d05565b60405180910390f35b610911600480360381019061090c91906147ca565b6121ac565b005b34801561091f57600080fd5b5061093a6004803603810190610935919061463a565b612312565b005b34801561094857600080fd5b50610963600480360381019061095e91906145b7565b61248a565b005b34801561097157600080fd5b5061097a6124dd565b6040516109879190614d05565b60405180910390f35b34801561099c57600080fd5b506109b760048036038101906109b291906147ca565b61256b565b6040516109c49190614d05565b60405180910390f35b3480156109d957600080fd5b506109f460048036038101906109ef91906147ca565b612807565b604051610a019190614eae565b60405180910390f35b348015610a1657600080fd5b50610a1f6128da565b604051610a2c9190614d05565b60405180910390f35b348015610a4157600080fd5b50610a5c6004803603810190610a579190614781565b612968565b005b348015610a6a57600080fd5b50610a856004803603810190610a809190614524565b6129fe565b604051610a929190614cea565b60405180910390f35b348015610aa757600080fd5b50610ac26004803603810190610abd9190614781565b612a92565b005b348015610ad057600080fd5b50610aeb6004803603810190610ae691906144f7565b612b28565b005b348015610af957600080fd5b50610b146004803603810190610b0f91906147ca565b612c20565b604051610b2393929190614eeb565b60405180910390f35b60007f2a55205a000000000000000000000000000000000000000000000000000000007bffffffffffffffffffffffffffffffffffffffffffffffffffffffff1916827bffffffffffffffffffffffffffffffffffffffffffffffffffffffff19161480610b9f5750610b9e82612cd2565b5b9050919050565b610bae612d4c565b73ffffffffffffffffffffffffffffffffffffffff16610bcc6120ca565b73ffffffffffffffffffffffffffffffffffffffff1614610c22576040517f08c379a0000000000000000000000000000000000000000000000000000000008152600401610c1990614dae565b60405180910390fd5b80600c60006101000a81548160ff02191690831515021790555050565b610c47612d4c565b73ffffffffffffffffffffffffffffffffffffffff16610c656120ca565b73ffffffffffffffffffffffffffffffffffffffff1614610cbb576040517f08c379a0000000000000000000000000000000000000000000000000000000008152600401610cb290614dae565b60405180910390fd5b610cc58282612d54565b5050565b606060018054610cd890615240565b80601f0160208091040260200160405190810160405280929190818152602001828054610d0490615240565b8015610d515780601f10610d2657610100808354040283529160200191610d51565b820191906000526020600020905b815481529060010190602001808311610d3457829003601f168201915b5050505050905090565b6000610d6682612eea565b610d9c576040517fcf4700e400000000000000000000000000000000000000000000000000000000815260040160405180910390fd5b6005600083815260200190815260200160002060009054906101000a900473ffffffffffffffffffffffffffffffffffffffff169050919050565b6000610de282611ce0565b90508073ffffffffffffffffffffffffffffffffffffffff168373ffffffffffffffffffffffffffffffffffffffff161415610e4a576040517f943f7b8c00000000000000000000000000000000000000000000000000000000815260040160405180910390fd5b8073ffffffffffffffffffffffffffffffffffffffff16610e69612d4c565b73ffffffffffffffffffffffffffffffffffffffff1614158015610e9b5750610e9981610e94612d4c565b6129fe565b155b15610ed2576040517fcfb3b94200000000000000000000000000000000000000000000000000000000815260040160405180910390fd5b610edd838383612f52565b505050565b60135481565b60008060109054906101000a90046fffffffffffffffffffffffffffffffff1660008054906101000a90046fffffffffffffffffffffffffffffffff16036fffffffffffffffffffffffffffffffff16905090565b610f45612d4c565b73ffffffffffffffffffffffffffffffffffffffff16610f636120ca565b73ffffffffffffffffffffffffffffffffffffffff1614610fb9576040517f08c379a0000000000000000000000000000000000000000000000000000000008152600401610fb090614dae565b60405180910390fd5b8060118190555050565b610fce838383613004565b505050565b6000806000600860008681526020019081526020016000206040518060400160405290816000820160009054906101000a900473ffffffffffffffffffffffffffffffffffffffff1673ffffffffffffffffffffffffffffffffffffffff1673ffffffffffffffffffffffffffffffffffffffff1681526020016000820160149054906101000a90046bffffffffffffffffffffffff166bffffffffffffffffffffffff166bffffffffffffffffffffffff16815250509050600073ffffffffffffffffffffffffffffffffffffffff16816000015173ffffffffffffffffffffffffffffffffffffffff1614156111695760076040518060400160405290816000820160009054906101000a900473ffffffffffffffffffffffffffffffffffffffff1673ffffffffffffffffffffffffffffffffffffffff1673ffffffffffffffffffffffffffffffffffffffff1681526020016000820160149054906101000a90046bffffffffffffffffffffffff166bffffffffffffffffffffffff166bffffffffffffffffffffffff168152505090505b6000611173613521565b6bffffffffffffffffffffffff1682602001516bffffffffffffffffffffffff168661119f91906150e4565b6111a991906150b3565b90508160000151819350935050509250929050565b60006111c983611d84565b8210611201576040517f0ddac30e00000000000000000000000000000000000000000000000000000000815260040160405180910390fd5b60008060009054906101000a90046fffffffffffffffffffffffffffffffff166fffffffffffffffffffffffffffffffff16905060008060005b838110156113b9576000600360008381526020019081526020016000206040518060600160405290816000820160009054906101000a900473ffffffffffffffffffffffffffffffffffffffff1673ffffffffffffffffffffffffffffffffffffffff1673ffffffffffffffffffffffffffffffffffffffff1681526020016000820160149054906101000a900467ffffffffffffffff1667ffffffffffffffff1667ffffffffffffffff16815260200160008201601c9054906101000a900460ff161515151581525050905080604001511561131857506113ac565b600073ffffffffffffffffffffffffffffffffffffffff16816000015173ffffffffffffffffffffffffffffffffffffffff161461135857806000015192505b8773ffffffffffffffffffffffffffffffffffffffff168373ffffffffffffffffffffffffffffffffffffffff1614156113aa57868414156113a15781955050505050506113bf565b83806001019450505b505b808060010191505061123b565b50600080fd5b92915050565b60115481565b60105481565b6113d9612d4c565b73ffffffffffffffffffffffffffffffffffffffff166113f76120ca565b73ffffffffffffffffffffffffffffffffffffffff161461144d576040517f08c379a000000000000000000000000000000000000000000000000000000000815260040161144490614dae565b60405180910390fd5b6002600a541415611493576040517f08c379a000000000000000000000000000000000000000000000000000000000815260040161148a90614e6e565b60405180910390fd5b6002600a819055506000479050600081116114e3576040517f08c379a00000000000000000000000000000000000000000000000000000000081526004016114da90614e0e565b60405180910390fd5b6000601760009054906101000a900473ffffffffffffffffffffffffffffffffffffffff1673ffffffffffffffffffffffffffffffffffffffff166064600a4761152d91906150e4565b61153791906150b3565b60405161154390614c23565b60006040518083038185875af1925050503d8060008114611580576040519150601f19603f3d011682016040523d82523d6000602084013e611585565b606091505b50509050806115c9576040517f08c379a00000000000000000000000000000000000000000000000000000000081526004016115c090614dce565b60405180910390fd5b6000601860009054906101000a900473ffffffffffffffffffffffffffffffffffffffff1673ffffffffffffffffffffffffffffffffffffffff16606460054761161391906150e4565b61161d91906150b3565b60405161162990614c23565b60006040518083038185875af1925050503d8060008114611666576040519150601f19603f3d011682016040523d82523d6000602084013e61166b565b606091505b50509050806116af576040517f08c379a00000000000000000000000000000000000000000000000000000000081526004016116a690614e4e565b60405180910390fd5b60003373ffffffffffffffffffffffffffffffffffffffff16476040516116d590614c23565b60006040518083038185875af1925050503d8060008114611712576040519150601f19603f3d011682016040523d82523d6000602084013e611717565b606091505b505090508061175b576040517f08c379a000000000000000000000000000000000000000000000000000000000815260040161175290614dee565b60405180910390fd5b505050506001600a81905550565b6117848383836040518060200160405280600081525061248a565b505050565b611791612d4c565b73ffffffffffffffffffffffffffffffffffffffff166117af6120ca565b73ffffffffffffffffffffffffffffffffffffffff1614611805576040517f08c379a00000000000000000000000000000000000000000000000000000000081526004016117fc90614dae565b60405180910390fd5b8060128190555050565b611817612d4c565b73ffffffffffffffffffffffffffffffffffffffff166118356120ca565b73ffffffffffffffffffffffffffffffffffffffff161461188b576040517f08c379a000000000000000000000000000000000000000000000000000000000815260040161188290614dae565b60405180910390fd5b611893614292565b60105481600001818152505060115481602001818152505081816040018190525080601660006015548152602001908152602001600020600082015181600001556020820151816001015560408201518160020190805190602001906118fa9291906142b3565b509050506001601460006101000a81548160ff0219169083151502179055506015600081548092919061192c906152a3565b91905055505050565b61193d612d4c565b73ffffffffffffffffffffffffffffffffffffffff1661195b6120ca565b73ffffffffffffffffffffffffffffffffffffffff16146119b1576040517f08c379a00000000000000000000000000000000000000000000000000000000081526004016119a890614dae565b60405180910390fd5b6119f76040518060400160405280600e81526020017f746f74616c20737570706c793a200000000000000000000000000000000000008152506119f2610ee8565b61352b565b601154611a02610ee8565b14611a39576040517f697526e000000000000000000000000000000000000000000000000000000000815260040160405180910390fd5b601460009054906101000a900460ff16611a7f576040517fdc8eb7a200000000000000000000000000000000000000000000000000000000815260040160405180910390fd5b601154601081905550806011819055506000601460006101000a81548160ff02191690831515021790555050565b60008060008054906101000a90046fffffffffffffffffffffffffffffffff166fffffffffffffffffffffffffffffffff1690506000805b82811015611be6576000600360008381526020019081526020016000206040518060600160405290816000820160009054906101000a900473ffffffffffffffffffffffffffffffffffffffff1673ffffffffffffffffffffffffffffffffffffffff1673ffffffffffffffffffffffffffffffffffffffff1681526020016000820160149054906101000a900467ffffffffffffffff1667ffffffffffffffff1667ffffffffffffffff16815260200160008201601c9054906101000a900460ff16151515158152505090508060400151611bd85785831415611bcf5781945050505050611c19565b82806001019350505b508080600101915050611ae5565b506040517fa723001c00000000000000000000000000000000000000000000000000000000815260040160405180910390fd5b919050565b601460009054906101000a900460ff1681565b611c39612d4c565b73ffffffffffffffffffffffffffffffffffffffff16611c576120ca565b73ffffffffffffffffffffffffffffffffffffffff1614611cad576040517f08c379a0000000000000000000000000000000000000000000000000000000008152600401611ca490614dae565b60405180910390fd5b80600b9080519060200190611cc39291906142b3565b5050565b60155481565b600c60009054906101000a900460ff1681565b6000611ceb826135c7565b600001519050919050565b600f8054611d0390615240565b80601f0160208091040260200160405190810160405280929190818152602001828054611d2f90615240565b8015611d7c5780601f10611d5157610100808354040283529160200191611d7c565b820191906000526020600020905b815481529060010190602001808311611d5f57829003601f168201915b505050505081565b60008073ffffffffffffffffffffffffffffffffffffffff168273ffffffffffffffffffffffffffffffffffffffff161415611dec576040517f8f4eb60400000000000000000000000000000000000000000000000000000000815260040160405180910390fd5b600460008373ffffffffffffffffffffffffffffffffffffffff1673ffffffffffffffffffffffffffffffffffffffff16815260200190815260200160002060000160009054906101000a900467ffffffffffffffff1667ffffffffffffffff169050919050565b611e5c612d4c565b73ffffffffffffffffffffffffffffffffffffffff16611e7a6120ca565b73ffffffffffffffffffffffffffffffffffffffff1614611ed0576040517f08c379a0000000000000000000000000000000000000000000000000000000008152600401611ec790614dae565b60405180910390fd5b611eda600061386f565b565b600e8054611ee990615240565b80601f0160208091040260200160405190810160405280929190818152602001828054611f1590615240565b8015611f625780601f10611f3757610100808354040283529160200191611f62565b820191906000526020600020905b815481529060010190602001808311611f4557829003601f168201915b505050505081565b601760009054906101000a900473ffffffffffffffffffffffffffffffffffffffff1681565b611f98612d4c565b73ffffffffffffffffffffffffffffffffffffffff16611fb66120ca565b73ffffffffffffffffffffffffffffffffffffffff161461200c576040517f08c379a000000000000000000000000000000000000000000000000000000000815260040161200390614dae565b60405180910390fd5b8060138190555050565b6060600061202383611d84565b905060008167ffffffffffffffff811115612041576120406153d9565b5b60405190808252806020026020018201604052801561206f5781602001602082028036833780820191505090505b50905060005b828110156120b95761208785826111be565b82828151811061209a576120996153aa565b5b60200260200101818152505080806120b1906152a3565b915050612075565b508092505050919050565b60125481565b6000600960009054906101000a900473ffffffffffffffffffffffffffffffffffffffff16905090565b601860009054906101000a900473ffffffffffffffffffffffffffffffffffffffff1681565b60606002805461212990615240565b80601f016020809104026020016040519081016040528092919081815260200182805461215590615240565b80156121a25780601f10612177576101008083540402835291602001916121a2565b820191906000526020600020905b81548152906001019060200180831161218557829003601f168201915b5050505050905090565b600c60009054906101000a900460ff16156121f3576040517fab35696f00000000000000000000000000000000000000000000000000000000815260040160405180910390fd5b600081141561222e576040517f2e69f8e800000000000000000000000000000000000000000000000000000000815260040160405180910390fd5b60135481111561226a576040517fa8de21d600000000000000000000000000000000000000000000000000000000815260040160405180910390fd5b6000612274610ee8565b90506011548282612285919061505d565b11156122bd576040517f52df9fe500000000000000000000000000000000000000000000000000000000815260040160405180910390fd5b816012546122cb91906150e4565b341015612304576040517f356680b700000000000000000000000000000000000000000000000000000000815260040160405180910390fd5b61230e3383613935565b5050565b61231a612d4c565b73ffffffffffffffffffffffffffffffffffffffff168273ffffffffffffffffffffffffffffffffffffffff16141561237f576040517fb06307db00000000000000000000000000000000000000000000000000000000815260040160405180910390fd5b806006600061238c612d4c565b73ffffffffffffffffffffffffffffffffffffffff1673ffffffffffffffffffffffffffffffffffffffff16815260200190815260200160002060008473ffffffffffffffffffffffffffffffffffffffff1673ffffffffffffffffffffffffffffffffffffffff16815260200190815260200160002060006101000a81548160ff0219169083151502179055508173ffffffffffffffffffffffffffffffffffffffff16612439612d4c565b73ffffffffffffffffffffffffffffffffffffffff167f17307eab39ab6107e8899845ad3d59bd9653f200f220920489ca2b5937696c318360405161247e9190614cea565b60405180910390a35050565b612495848484613004565b6124a184848484613953565b6124d7576040517fd1a57ed600000000000000000000000000000000000000000000000000000000815260040160405180910390fd5b50505050565b600d80546124ea90615240565b80601f016020809104026020016040519081016040528092919081815260200182805461251690615240565b80156125635780601f1061253857610100808354040283529160200191612563565b820191906000526020600020905b81548152906001019060200180831161254657829003601f168201915b505050505081565b606061257682612eea565b6125ac576040517f25dca1e600000000000000000000000000000000000000000000000000000000815260040160405180910390fd5b601460009054906101000a900460ff161580156125cb57506010548210155b1561266257600e80546125dd90615240565b80601f016020809104026020016040519081016040528092919081815260200182805461260990615240565b80156126565780601f1061262b57610100808354040283529160200191612656565b820191906000526020600020905b81548152906001019060200180831161263957829003601f168201915b50505050509050612802565b6000600190505b60155481116127ee5760166000828152602001908152602001600020600101548310156127db5761276d6040518060400160405280600881526020017f544845205552493a0000000000000000000000000000000000000000000000008152506016600084815260200190815260200160002060020180546126ea90615240565b80601f016020809104026020016040519081016040528092919081815260200182805461271690615240565b80156127635780601f1061273857610100808354040283529160200191612763565b820191906000526020600020905b81548152906001019060200180831161274657829003601f168201915b5050505050613ae1565b60166000828152602001908152602001600020600001548361278f919061513e565b9250601660008281526020019081526020016000206002016127b084613b7d565b600d6040516020016127c493929190614bf2565b604051602081830303815290604052915050612802565b80806127e6906152a3565b915050612669565b506040518060200160405280600081525090505b919050565b61280f614292565b60166000838152602001908152602001600020604051806060016040529081600082015481526020016001820154815260200160028201805461285190615240565b80601f016020809104026020016040519081016040528092919081815260200182805461287d90615240565b80156128ca5780601f1061289f576101008083540402835291602001916128ca565b820191906000526020600020905b8154815290600101906020018083116128ad57829003601f168201915b5050505050815250509050919050565b600b80546128e790615240565b80601f016020809104026020016040519081016040528092919081815260200182805461291390615240565b80156129605780601f1061293557610100808354040283529160200191612960565b820191906000526020600020905b81548152906001019060200180831161294357829003601f168201915b505050505081565b612970612d4c565b73ffffffffffffffffffffffffffffffffffffffff1661298e6120ca565b73ffffffffffffffffffffffffffffffffffffffff16146129e4576040517f08c379a00000000000000000000000000000000000000000000000000000000081526004016129db90614dae565b60405180910390fd5b80600d90805190602001906129fa9291906142b3565b5050565b6000600660008473ffffffffffffffffffffffffffffffffffffffff1673ffffffffffffffffffffffffffffffffffffffff16815260200190815260200160002060008373ffffffffffffffffffffffffffffffffffffffff1673ffffffffffffffffffffffffffffffffffffffff16815260200190815260200160002060009054906101000a900460ff16905092915050565b612a9a612d4c565b73ffffffffffffffffffffffffffffffffffffffff16612ab86120ca565b73ffffffffffffffffffffffffffffffffffffffff1614612b0e576040517f08c379a0000000000000000000000000000000000000000000000000000000008152600401612b0590614dae565b60405180910390fd5b80600e9080519060200190612b249291906142b3565b5050565b612b30612d4c565b73ffffffffffffffffffffffffffffffffffffffff16612b4e6120ca565b73ffffffffffffffffffffffffffffffffffffffff1614612ba4576040517f08c379a0000000000000000000000000000000000000000000000000000000008152600401612b9b90614dae565b60405180910390fd5b600073ffffffffffffffffffffffffffffffffffffffff168173ffffffffffffffffffffffffffffffffffffffff161415612c14576040517f08c379a0000000000000000000000000000000000000000000000000000000008152600401612c0b90614d8e565b60405180910390fd5b612c1d8161386f565b50565b6016602052806000526040600020600091509050806000015490806001015490806002018054612c4f90615240565b80601f0160208091040260200160405190810160405280929190818152602001828054612c7b90615240565b8015612cc85780601f10612c9d57610100808354040283529160200191612cc8565b820191906000526020600020905b815481529060010190602001808311612cab57829003601f168201915b5050505050905083565b60007f2a55205a000000000000000000000000000000000000000000000000000000007bffffffffffffffffffffffffffffffffffffffffffffffffffffffff1916827bffffffffffffffffffffffffffffffffffffffffffffffffffffffff19161480612d455750612d4482613cde565b5b9050919050565b600033905090565b612d5c613521565b6bffffffffffffffffffffffff16816bffffffffffffffffffffffff161115612dba576040517f08c379a0000000000000000000000000000000000000000000000000000000008152600401612db190614e2e565b60405180910390fd5b600073ffffffffffffffffffffffffffffffffffffffff168273ffffffffffffffffffffffffffffffffffffffff161415612e2a576040517f08c379a0000000000000000000000000000000000000000000000000000000008152600401612e2190614e8e565b60405180910390fd5b60405180604001604052808373ffffffffffffffffffffffffffffffffffffffff168152602001826bffffffffffffffffffffffff16815250600760008201518160000160006101000a81548173ffffffffffffffffffffffffffffffffffffffff021916908373ffffffffffffffffffffffffffffffffffffffff16021790555060208201518160000160146101000a8154816bffffffffffffffffffffffff02191690836bffffffffffffffffffffffff1602179055509050505050565b60008060009054906101000a90046fffffffffffffffffffffffffffffffff166fffffffffffffffffffffffffffffffff1682108015612f4b575060036000838152602001908152602001600020600001601c9054906101000a900460ff16155b9050919050565b826005600084815260200190815260200160002060006101000a81548173ffffffffffffffffffffffffffffffffffffffff021916908373ffffffffffffffffffffffffffffffffffffffff160217905550818373ffffffffffffffffffffffffffffffffffffffff168273ffffffffffffffffffffffffffffffffffffffff167f8c5be1e5ebec7d5bd14f71427d1e84f3dd0314c0f7b2291e5b200ac8c7c3b92560405160405180910390a4505050565b600061300f826135c7565b90506000816000015173ffffffffffffffffffffffffffffffffffffffff16613036612d4c565b73ffffffffffffffffffffffffffffffffffffffff16148061306957506130688260000151613063612d4c565b6129fe565b5b806130ae5750613077612d4c565b73ffffffffffffffffffffffffffffffffffffffff1661309684610d5b565b73ffffffffffffffffffffffffffffffffffffffff16145b9050806130e7576040517f59c896be00000000000000000000000000000000000000000000000000000000815260040160405180910390fd5b8473ffffffffffffffffffffffffffffffffffffffff16826000015173ffffffffffffffffffffffffffffffffffffffff1614613150576040517fa114810000000000000000000000000000000000000000000000000000000000815260040160405180910390fd5b600073ffffffffffffffffffffffffffffffffffffffff168473ffffffffffffffffffffffffffffffffffffffff1614156131b7576040517fea553b3400000000000000000000000000000000000000000000000000000000815260040160405180910390fd5b6131c48585856001613e28565b6131d46000848460000151612f52565b6001600460008773ffffffffffffffffffffffffffffffffffffffff1673ffffffffffffffffffffffffffffffffffffffff16815260200190815260200160002060000160008282829054906101000a900467ffffffffffffffff160392506101000a81548167ffffffffffffffff021916908367ffffffffffffffff1602179055506001600460008673ffffffffffffffffffffffffffffffffffffffff1673ffffffffffffffffffffffffffffffffffffffff16815260200190815260200160002060000160008282829054906101000a900467ffffffffffffffff160192506101000a81548167ffffffffffffffff021916908367ffffffffffffffff160217905550836003600085815260200190815260200160002060000160006101000a81548173ffffffffffffffffffffffffffffffffffffffff021916908373ffffffffffffffffffffffffffffffffffffffff160217905550426003600085815260200190815260200160002060000160146101000a81548167ffffffffffffffff021916908367ffffffffffffffff1602179055506000600184019050600073ffffffffffffffffffffffffffffffffffffffff166003600083815260200190815260200160002060000160009054906101000a900473ffffffffffffffffffffffffffffffffffffffff1673ffffffffffffffffffffffffffffffffffffffff1614156134b15760008054906101000a90046fffffffffffffffffffffffffffffffff166fffffffffffffffffffffffffffffffff168110156134b05782600001516003600083815260200190815260200160002060000160006101000a81548173ffffffffffffffffffffffffffffffffffffffff021916908373ffffffffffffffffffffffffffffffffffffffff16021790555082602001516003600083815260200190815260200160002060000160146101000a81548167ffffffffffffffff021916908367ffffffffffffffff1602179055505b5b50828473ffffffffffffffffffffffffffffffffffffffff168673ffffffffffffffffffffffffffffffffffffffff167fddf252ad1be2c89b69c2b068fc378daa952ba7f163c4a11628f55a4df523b3ef60405160405180910390a461351a8585856001613e2e565b5050505050565b6000612710905090565b6135c38282604051602401613541929190614d5e565b6040516020818303038152906040527f9710a9d0000000000000000000000000000000000000000000000000000000007bffffffffffffffffffffffffffffffffffffffffffffffffffffffff19166020820180517bffffffffffffffffffffffffffffffffffffffffffffffffffffffff8381831617835250505050613e34565b5050565b6135cf614339565b600082905060008054906101000a90046fffffffffffffffffffffffffffffffff166fffffffffffffffffffffffffffffffff16811015613838576000600360008381526020019081526020016000206040518060600160405290816000820160009054906101000a900473ffffffffffffffffffffffffffffffffffffffff1673ffffffffffffffffffffffffffffffffffffffff1673ffffffffffffffffffffffffffffffffffffffff1681526020016000820160149054906101000a900467ffffffffffffffff1667ffffffffffffffff1667ffffffffffffffff16815260200160008201601c9054906101000a900460ff1615151515815250509050806040015161383657600073ffffffffffffffffffffffffffffffffffffffff16816000015173ffffffffffffffffffffffffffffffffffffffff161461371a57809250505061386a565b5b60011561383557818060019003925050600360008381526020019081526020016000206040518060600160405290816000820160009054906101000a900473ffffffffffffffffffffffffffffffffffffffff1673ffffffffffffffffffffffffffffffffffffffff1673ffffffffffffffffffffffffffffffffffffffff1681526020016000820160149054906101000a900467ffffffffffffffff1667ffffffffffffffff1667ffffffffffffffff16815260200160008201601c9054906101000a900460ff1615151515815250509050600073ffffffffffffffffffffffffffffffffffffffff16816000015173ffffffffffffffffffffffffffffffffffffffff161461383057809250505061386a565b61371b565b5b505b6040517fdf2d9b4200000000000000000000000000000000000000000000000000000000815260040160405180910390fd5b919050565b6000600960009054906101000a900473ffffffffffffffffffffffffffffffffffffffff16905081600960006101000a81548173ffffffffffffffffffffffffffffffffffffffff021916908373ffffffffffffffffffffffffffffffffffffffff1602179055508173ffffffffffffffffffffffffffffffffffffffff168173ffffffffffffffffffffffffffffffffffffffff167f8be0079c531659141344cd1fd0a4f28419497f9722a3daafe3b4186f6b6457e060405160405180910390a35050565b61394f828260405180602001604052806000815250613e5d565b5050565b60006139748473ffffffffffffffffffffffffffffffffffffffff16613e6f565b15613ad4578373ffffffffffffffffffffffffffffffffffffffff1663150b7a0261399d612d4c565b8786866040518563ffffffff1660e01b81526004016139bf9493929190614c53565b602060405180830381600087803b1580156139d957600080fd5b505af1925050508015613a0a57506040513d601f19601f82011682018060405250810190613a079190614754565b60015b613a84573d8060008114613a3a576040519150601f19603f3d011682016040523d82523d6000602084013e613a3f565b606091505b50600081511415613a7c576040517fd1a57ed600000000000000000000000000000000000000000000000000000000815260040160405180910390fd5b805181602001fd5b63150b7a0260e01b7bffffffffffffffffffffffffffffffffffffffffffffffffffffffff1916817bffffffffffffffffffffffffffffffffffffffffffffffffffffffff191614915050613ad9565b600190505b949350505050565b613b798282604051602401613af7929190614d27565b6040516020818303038152906040527f4b5c4277000000000000000000000000000000000000000000000000000000007bffffffffffffffffffffffffffffffffffffffffffffffffffffffff19166020820180517bffffffffffffffffffffffffffffffffffffffffffffffffffffffff8381831617835250505050613e34565b5050565b60606000821415613bc5576040518060400160405280600181526020017f30000000000000000000000000000000000000000000000000000000000000008152509050613cd9565b600082905060005b60008214613bf7578080613be0906152a3565b915050600a82613bf091906150b3565b9150613bcd565b60008167ffffffffffffffff811115613c1357613c126153d9565b5b6040519080825280601f01601f191660200182016040528015613c455781602001600182028036833780820191505090505b5090505b60008514613cd257600182613c5e919061513e565b9150600a85613c6d91906152ec565b6030613c79919061505d565b60f81b818381518110613c8f57613c8e6153aa565b5b60200101907effffffffffffffffffffffffffffffffffffffffffffffffffffffffffffff1916908160001a905350600a85613ccb91906150b3565b9450613c49565b8093505050505b919050565b60007f80ac58cd000000000000000000000000000000000000000000000000000000007bffffffffffffffffffffffffffffffffffffffffffffffffffffffff1916827bffffffffffffffffffffffffffffffffffffffffffffffffffffffff19161480613da957507f5b5e139f000000000000000000000000000000000000000000000000000000007bffffffffffffffffffffffffffffffffffffffffffffffffffffffff1916827bffffffffffffffffffffffffffffffffffffffffffffffffffffffff1916145b80613e1157507f780e9d63000000000000000000000000000000000000000000000000000000007bffffffffffffffffffffffffffffffffffffffffffffffffffffffff1916827bffffffffffffffffffffffffffffffffffffffffffffffffffffffff1916145b80613e215750613e2082613e92565b5b9050919050565b50505050565b50505050565b60008151905060006a636f6e736f6c652e6c6f679050602083016000808483855afa5050505050565b613e6a8383836001613efc565b505050565b6000808273ffffffffffffffffffffffffffffffffffffffff163b119050919050565b60007f01ffc9a7000000000000000000000000000000000000000000000000000000007bffffffffffffffffffffffffffffffffffffffffffffffffffffffff1916827bffffffffffffffffffffffffffffffffffffffffffffffffffffffff1916149050919050565b60008060009054906101000a90046fffffffffffffffffffffffffffffffff166fffffffffffffffffffffffffffffffff169050600073ffffffffffffffffffffffffffffffffffffffff168573ffffffffffffffffffffffffffffffffffffffff161415613f97576040517f2e07630000000000000000000000000000000000000000000000000000000000815260040160405180910390fd5b6000841415613fd2576040517fb562e8dd00000000000000000000000000000000000000000000000000000000815260040160405180910390fd5b613fdf6000868387613e28565b83600460008773ffffffffffffffffffffffffffffffffffffffff1673ffffffffffffffffffffffffffffffffffffffff16815260200190815260200160002060000160008282829054906101000a900467ffffffffffffffff160192506101000a81548167ffffffffffffffff021916908367ffffffffffffffff16021790555083600460008773ffffffffffffffffffffffffffffffffffffffff1673ffffffffffffffffffffffffffffffffffffffff16815260200190815260200160002060000160088282829054906101000a900467ffffffffffffffff160192506101000a81548167ffffffffffffffff021916908367ffffffffffffffff160217905550846003600083815260200190815260200160002060000160006101000a81548173ffffffffffffffffffffffffffffffffffffffff021916908373ffffffffffffffffffffffffffffffffffffffff160217905550426003600083815260200190815260200160002060000160146101000a81548167ffffffffffffffff021916908367ffffffffffffffff160217905550600081905060005b8581101561424457818773ffffffffffffffffffffffffffffffffffffffff16600073ffffffffffffffffffffffffffffffffffffffff167fddf252ad1be2c89b69c2b068fc378daa952ba7f163c4a11628f55a4df523b3ef60405160405180910390a48380156141f857506141f66000888488613953565b155b1561422f576040517fd1a57ed600000000000000000000000000000000000000000000000000000000815260040160405180910390fd5b8180600101925050808060010191505061417d565b50806000806101000a8154816fffffffffffffffffffffffffffffffff02191690836fffffffffffffffffffffffffffffffff1602179055505061428b6000868387613e2e565b5050505050565b60405180606001604052806000815260200160008152602001606081525090565b8280546142bf90615240565b90600052602060002090601f0160209004810192826142e15760008555614328565b82601f106142fa57805160ff1916838001178555614328565b82800160010185558215614328579182015b8281111561432757825182559160200191906001019061430c565b5b509050614335919061437c565b5090565b6040518060600160405280600073ffffffffffffffffffffffffffffffffffffffff168152602001600067ffffffffffffffff1681526020016000151581525090565b5b8082111561439557600081600090555060010161437d565b5090565b60006143ac6143a784614f4e565b614f29565b9050828152602081018484840111156143c8576143c761540d565b5b6143d38482856151fe565b509392505050565b60006143ee6143e984614f7f565b614f29565b90508281526020810184848401111561440a5761440961540d565b5b6144158482856151fe565b509392505050565b60008135905061442c816155ed565b92915050565b60008135905061444181615604565b92915050565b6000813590506144568161561b565b92915050565b60008151905061446b8161561b565b92915050565b600082601f83011261448657614485615408565b5b8135614496848260208601614399565b91505092915050565b600082601f8301126144b4576144b3615408565b5b81356144c48482602086016143db565b91505092915050565b6000813590506144dc81615632565b92915050565b6000813590506144f181615649565b92915050565b60006020828403121561450d5761450c615417565b5b600061451b8482850161441d565b91505092915050565b6000806040838503121561453b5761453a615417565b5b60006145498582860161441d565b925050602061455a8582860161441d565b9150509250929050565b60008060006060848603121561457d5761457c615417565b5b600061458b8682870161441d565b935050602061459c8682870161441d565b92505060406145ad868287016144cd565b9150509250925092565b600080600080608085870312156145d1576145d0615417565b5b60006145df8782880161441d565b94505060206145f08782880161441d565b9350506040614601878288016144cd565b925050606085013567ffffffffffffffff81111561462257614621615412565b5b61462e87828801614471565b91505092959194509250565b6000806040838503121561465157614650615417565b5b600061465f8582860161441d565b925050602061467085828601614432565b9150509250929050565b6000806040838503121561469157614690615417565b5b600061469f8582860161441d565b92505060206146b0858286016144cd565b9150509250929050565b600080604083850312156146d1576146d0615417565b5b60006146df8582860161441d565b92505060206146f0858286016144e2565b9150509250929050565b6000602082840312156147105761470f615417565b5b600061471e84828501614432565b91505092915050565b60006020828403121561473d5761473c615417565b5b600061474b84828501614447565b91505092915050565b60006020828403121561476a57614769615417565b5b60006147788482850161445c565b91505092915050565b60006020828403121561479757614796615417565b5b600082013567ffffffffffffffff8111156147b5576147b4615412565b5b6147c18482850161449f565b91505092915050565b6000602082840312156147e0576147df615417565b5b60006147ee848285016144cd565b91505092915050565b6000806040838503121561480e5761480d615417565b5b600061481c858286016144cd565b925050602061482d858286016144cd565b9150509250929050565b60006148438383614bd4565b60208301905092915050565b61485881615172565b82525050565b600061486982614fd5565b6148738185615003565b935061487e83614fb0565b8060005b838110156148af5781516148968882614837565b97506148a183614ff6565b925050600181019050614882565b5085935050505092915050565b6148c581615184565b82525050565b60006148d682614fe0565b6148e08185615014565b93506148f081856020860161520d565b6148f98161541c565b840191505092915050565b600061490f82614feb565b6149198185615030565b935061492981856020860161520d565b6149328161541c565b840191505092915050565b600061494882614feb565b6149528185615041565b935061496281856020860161520d565b61496b8161541c565b840191505092915050565b600061498182614feb565b61498b8185615052565b935061499b81856020860161520d565b80840191505092915050565b600081546149b481615240565b6149be8186615052565b945060018216600081146149d957600181146149ea57614a1d565b60ff19831686528186019350614a1d565b6149f385614fc0565b60005b83811015614a15578154818901526001820191506020810190506149f6565b838801955050505b50505092915050565b6000614a33602683615041565b9150614a3e8261542d565b604082019050919050565b6000614a56602083615041565b9150614a618261547c565b602082019050919050565b6000614a79601883615041565b9150614a84826154a5565b602082019050919050565b6000614a9c600083615025565b9150614aa7826154ce565b600082019050919050565b6000614abf601083615041565b9150614aca826154d1565b602082019050919050565b6000614ae2601a83615041565b9150614aed826154fa565b602082019050919050565b6000614b05602a83615041565b9150614b1082615523565b604082019050919050565b6000614b28601a83615041565b9150614b3382615572565b602082019050919050565b6000614b4b601f83615041565b9150614b568261559b565b602082019050919050565b6000614b6e601983615041565b9150614b79826155c4565b602082019050919050565b6000606083016000830151614b9c6000860182614bd4565b506020830151614baf6020860182614bd4565b5060408301518482036040860152614bc78282614904565b9150508091505092915050565b614bdd816151dc565b82525050565b614bec816151dc565b82525050565b6000614bfe82866149a7565b9150614c0a8285614976565b9150614c1682846149a7565b9150819050949350505050565b6000614c2e82614a8f565b9150819050919050565b6000602082019050614c4d600083018461484f565b92915050565b6000608082019050614c68600083018761484f565b614c75602083018661484f565b614c826040830185614be3565b8181036060830152614c9481846148cb565b905095945050505050565b6000604082019050614cb4600083018561484f565b614cc16020830184614be3565b9392505050565b60006020820190508181036000830152614ce2818461485e565b905092915050565b6000602082019050614cff60008301846148bc565b92915050565b60006020820190508181036000830152614d1f818461493d565b905092915050565b60006040820190508181036000830152614d41818561493d565b90508181036020830152614d55818461493d565b90509392505050565b60006040820190508181036000830152614d78818561493d565b9050614d876020830184614be3565b9392505050565b60006020820190508181036000830152614da781614a26565b9050919050565b60006020820190508181036000830152614dc781614a49565b9050919050565b60006020820190508181036000830152614de781614a6c565b9050919050565b60006020820190508181036000830152614e0781614ab2565b9050919050565b60006020820190508181036000830152614e2781614ad5565b9050919050565b60006020820190508181036000830152614e4781614af8565b9050919050565b60006020820190508181036000830152614e6781614b1b565b9050919050565b60006020820190508181036000830152614e8781614b3e565b9050919050565b60006020820190508181036000830152614ea781614b61565b9050919050565b60006020820190508181036000830152614ec88184614b84565b905092915050565b6000602082019050614ee56000830184614be3565b92915050565b6000606082019050614f006000830186614be3565b614f0d6020830185614be3565b8181036040830152614f1f818461493d565b9050949350505050565b6000614f33614f44565b9050614f3f8282615272565b919050565b6000604051905090565b600067ffffffffffffffff821115614f6957614f686153d9565b5b614f728261541c565b9050602081019050919050565b600067ffffffffffffffff821115614f9a57614f996153d9565b5b614fa38261541c565b9050602081019050919050565b6000819050602082019050919050565b60008190508160005260206000209050919050565b600081519050919050565b600081519050919050565b600081519050919050565b6000602082019050919050565b600082825260208201905092915050565b600082825260208201905092915050565b600081905092915050565b600082825260208201905092915050565b600082825260208201905092915050565b600081905092915050565b6000615068826151dc565b9150615073836151dc565b9250827fffffffffffffffffffffffffffffffffffffffffffffffffffffffffffffffff038211156150a8576150a761531d565b5b828201905092915050565b60006150be826151dc565b91506150c9836151dc565b9250826150d9576150d861534c565b5b828204905092915050565b60006150ef826151dc565b91506150fa836151dc565b9250817fffffffffffffffffffffffffffffffffffffffffffffffffffffffffffffffff04831182151516156151335761513261531d565b5b828202905092915050565b6000615149826151dc565b9150615154836151dc565b9250828210156151675761516661531d565b5b828203905092915050565b600061517d826151bc565b9050919050565b60008115159050919050565b60007fffffffff0000000000000000000000000000000000000000000000000000000082169050919050565b600073ffffffffffffffffffffffffffffffffffffffff82169050919050565b6000819050919050565b60006bffffffffffffffffffffffff82169050919050565b82818337600083830152505050565b60005b8381101561522b578082015181840152602081019050615210565b8381111561523a576000848401525b50505050565b6000600282049050600182168061525857607f821691505b6020821081141561526c5761526b61537b565b5b50919050565b61527b8261541c565b810181811067ffffffffffffffff8211171561529a576152996153d9565b5b80604052505050565b60006152ae826151dc565b91507fffffffffffffffffffffffffffffffffffffffffffffffffffffffffffffffff8214156152e1576152e061531d565b5b600182019050919050565b60006152f7826151dc565b9150615302836151dc565b9250826153125761531161534c565b5b828206905092915050565b7f4e487b7100000000000000000000000000000000000000000000000000000000600052601160045260246000fd5b7f4e487b7100000000000000000000000000000000000000000000000000000000600052601260045260246000fd5b7f4e487b7100000000000000000000000000000000000000000000000000000000600052602260045260246000fd5b7f4e487b7100000000000000000000000000000000000000000000000000000000600052603260045260246000fd5b7f4e487b7100000000000000000000000000000000000000000000000000000000600052604160045260246000fd5b600080fd5b600080fd5b600080fd5b600080fd5b6000601f19601f8301169050919050565b7f4f776e61626c653a206e6577206f776e657220697320746865207a65726f206160008201527f6464726573730000000000000000000000000000000000000000000000000000602082015250565b7f4f776e61626c653a2063616c6c6572206973206e6f7420746865206f776e6572600082015250565b7f43686172697479205472616e73666572206661696c65642e0000000000000000600082015250565b50565b7f5472616e73666572206661696c65642e00000000000000000000000000000000600082015250565b7f4e6f206574686572206c65667420746f2077697468647261772e000000000000600082015250565b7f455243323938313a20726f79616c7479206665652077696c6c2065786365656460008201527f2073616c65507269636500000000000000000000000000000000000000000000602082015250565b7f446576656c6f706572205472616e73666572206661696c65642e000000000000600082015250565b7f5265656e7472616e637947756172643a207265656e7472616e742063616c6c00600082015250565b7f455243323938313a20696e76616c696420726563656976657200000000000000600082015250565b6155f681615172565b811461560157600080fd5b50565b61560d81615184565b811461561857600080fd5b50565b61562481615190565b811461562f57600080fd5b50565b61563b816151dc565b811461564657600080fd5b50565b615652816151e6565b811461565d57600080fd5b5056fea2646970667358221220b5772ed1458a12d7bcb28dc9995e756edfe51d054969c7094fb6bd65f13cc8d164736f6c63430008070033",
  "linkReferences": {},
  "deployedLinkReferences": {}
}