{
  "_format": "hh-sol-artifact-1",
  "contractName": "ResearchFundingClubFast",
  "sourceName": "contracts/ResearchFundingClubFast.sol",
  "abi": [
    {
      "inputs": [
        {
          "internalType": "uint96",
          "name": "_royaltyFeesInBips",
          "type": "uint96"
        },
        {
          "internalType": "string",
          "name": "_notRevealedURI",
          "type": "string"
        }
      ],
      "stateMutability": "nonpayable",
      "type": "constructor"
    },
    {
      "inputs": [],
      "name": "ApprovalCallerNotOwnerNorApproved",
      "type": "error"
    },
    {
      "inputs": [],
      "name": "ApprovalQueryForNonexistentToken",
      "type": "error"
    },
    {
      "inputs": [],
      "name": "ApprovalToCurrentOwner",
      "type": "error"
    },
    {
      "inputs": [],
      "name": "ApproveToCaller",
      "type": "error"
    },
    {
      "inputs": [],
      "name": "BalanceQueryForZeroAddress",
      "type": "error"
    },
    {
      "inputs": [],
      "name": "MintToZeroAddress",
      "type": "error"
    },
    {
      "inputs": [],
      "name": "MintZeroQuantity",
      "type": "error"
    },
    {
      "inputs": [],
      "name": "OwnerIndexOutOfBounds",
      "type": "error"
    },
    {
      "inputs": [],
      "name": "OwnerQueryForNonexistentToken",
      "type": "error"
    },
    {
      "inputs": [],
      "name": "TokenIndexOutOfBounds",
      "type": "error"
    },
    {
      "inputs": [],
      "name": "TransferCallerNotOwnerNorApproved",
      "type": "error"
    },
    {
      "inputs": [],
      "name": "TransferFromIncorrectOwner",
      "type": "error"
    },
    {
      "inputs": [],
      "name": "TransferToNonERC721ReceiverImplementer",
      "type": "error"
    },
    {
      "inputs": [],
      "name": "TransferToZeroAddress",
      "type": "error"
    },
    {
      "inputs": [],
      "name": "URIQueryForNonexistentToken",
      "type": "error"
    },
    {
      "anonymous": false,
      "inputs": [
        {
          "indexed": true,
          "internalType": "address",
          "name": "owner",
          "type": "address"
        },
        {
          "indexed": true,
          "internalType": "address",
          "name": "approved",
          "type": "address"
        },
        {
          "indexed": true,
          "internalType": "uint256",
          "name": "tokenId",
          "type": "uint256"
        }
      ],
      "name": "Approval",
      "type": "event"
    },
    {
      "anonymous": false,
      "inputs": [
        {
          "indexed": true,
          "internalType": "address",
          "name": "owner",
          "type": "address"
        },
        {
          "indexed": true,
          "internalType": "address",
          "name": "operator",
          "type": "address"
        },
        {
          "indexed": false,
          "internalType": "bool",
          "name": "approved",
          "type": "bool"
        }
      ],
      "name": "ApprovalForAll",
      "type": "event"
    },
    {
      "anonymous": false,
      "inputs": [
        {
          "indexed": true,
          "internalType": "address",
          "name": "previousOwner",
          "type": "address"
        },
        {
          "indexed": true,
          "internalType": "address",
          "name": "newOwner",
          "type": "address"
        }
      ],
      "name": "OwnershipTransferred",
      "type": "event"
    },
    {
      "anonymous": false,
      "inputs": [
        {
          "indexed": true,
          "internalType": "address",
          "name": "from",
          "type": "address"
        },
        {
          "indexed": true,
          "internalType": "address",
          "name": "to",
          "type": "address"
        },
        {
          "indexed": true,
          "internalType": "uint256",
          "name": "tokenId",
          "type": "uint256"
        }
      ],
      "name": "Transfer",
      "type": "event"
    },
    {
      "inputs": [],
      "name": "MAX_PER_MINT",
      "outputs": [
        {
          "internalType": "uint256",
          "name": "",
          "type": "uint256"
        }
      ],
      "stateMutability": "view",
      "type": "function"
    },
    {
      "inputs": [],
      "name": "MAX_SUPPLY",
      "outputs": [
        {
          "internalType": "uint256",
          "name": "",
          "type": "uint256"
        }
      ],
      "stateMutability": "view",
      "type": "function"
    },
    {
      "inputs": [],
      "name": "MIN_SUPPLY",
      "outputs": [
        {
          "internalType": "uint256",
          "name": "",
          "type": "uint256"
        }
      ],
      "stateMutability": "view",
      "type": "function"
    },
    {
      "inputs": [],
      "name": "PRICE",
      "outputs": [
        {
          "internalType": "uint256",
          "name": "",
          "type": "uint256"
        }
      ],
      "stateMutability": "view",
      "type": "function"
    },
    {
      "inputs": [
        {
          "internalType": "address",
          "name": "to",
          "type": "address"
        },
        {
          "internalType": "uint256",
          "name": "tokenId",
          "type": "uint256"
        }
      ],
      "name": "approve",
      "outputs": [],
      "stateMutability": "nonpayable",
      "type": "function"
    },
    {
      "inputs": [
        {
          "internalType": "address",
          "name": "owner",
          "type": "address"
        }
      ],
      "name": "balanceOf",
      "outputs": [
        {
          "internalType": "uint256",
          "name": "",
          "type": "uint256"
        }
      ],
      "stateMutability": "view",
      "type": "function"
    },
    {
      "inputs": [],
      "name": "baseExtension",
      "outputs": [
        {
          "internalType": "string",
          "name": "",
          "type": "string"
        }
      ],
      "stateMutability": "view",
      "type": "function"
    },
    {
      "inputs": [],
      "name": "baseTokenURI",
      "outputs": [
        {
          "internalType": "string",
          "name": "",
          "type": "string"
        }
      ],
      "stateMutability": "view",
      "type": "function"
    },
    {
      "inputs": [],
      "name": "charityWallet",
      "outputs": [
        {
          "internalType": "address",
          "name": "",
          "type": "address"
        }
      ],
      "stateMutability": "view",
      "type": "function"
    },
    {
      "inputs": [],
      "name": "devWallet",
      "outputs": [
        {
          "internalType": "address",
          "name": "",
          "type": "address"
        }
      ],
      "stateMutability": "view",
      "type": "function"
    },
    {
      "inputs": [
        {
          "internalType": "uint256",
          "name": "tokenId",
          "type": "uint256"
        }
      ],
      "name": "getApproved",
      "outputs": [
        {
          "internalType": "address",
          "name": "",
          "type": "address"
        }
      ],
      "stateMutability": "view",
      "type": "function"
    },
    {
      "inputs": [
        {
          "internalType": "address",
          "name": "owner",
          "type": "address"
        },
        {
          "internalType": "address",
          "name": "operator",
          "type": "address"
        }
      ],
      "name": "isApprovedForAll",
      "outputs": [
        {
          "internalType": "bool",
          "name": "",
          "type": "bool"
        }
      ],
      "stateMutability": "view",
      "type": "function"
    },
    {
      "inputs": [
        {
          "internalType": "uint256",
          "name": "quantity",
          "type": "uint256"
        }
      ],
      "name": "mint",
      "outputs": [],
      "stateMutability": "payable",
      "type": "function"
    },
    {
      "inputs": [],
      "name": "name",
      "outputs": [
        {
          "internalType": "string",
          "name": "",
          "type": "string"
        }
      ],
      "stateMutability": "view",
      "type": "function"
    },
    {
      "inputs": [],
      "name": "notRevealedURI",
      "outputs": [
        {
          "internalType": "string",
          "name": "",
          "type": "string"
        }
      ],
      "stateMutability": "view",
      "type": "function"
    },
    {
      "inputs": [],
      "name": "owner",
      "outputs": [
        {
          "internalType": "address",
          "name": "",
          "type": "address"
        }
      ],
      "stateMutability": "view",
      "type": "function"
    },
    {
      "inputs": [
        {
          "internalType": "uint256",
          "name": "tokenId",
          "type": "uint256"
        }
      ],
      "name": "ownerOf",
      "outputs": [
        {
          "internalType": "address",
          "name": "",
          "type": "address"
        }
      ],
      "stateMutability": "view",
      "type": "function"
    },
    {
      "inputs": [],
      "name": "paused",
      "outputs": [
        {
          "internalType": "bool",
          "name": "",
          "type": "bool"
        }
      ],
      "stateMutability": "view",
      "type": "function"
    },
    {
      "inputs": [],
      "name": "renounceOwnership",
      "outputs": [],
      "stateMutability": "nonpayable",
      "type": "function"
    },
    {
      "inputs": [],
      "name": "reveal",
      "outputs": [],
      "stateMutability": "nonpayable",
      "type": "function"
    },
    {
      "inputs": [],
      "name": "revealed",
      "outputs": [
        {
          "internalType": "bool",
          "name": "",
          "type": "bool"
        }
      ],
      "stateMutability": "view",
      "type": "function"
    },
    {
      "inputs": [
        {
          "internalType": "uint256",
          "name": "_tokenId",
          "type": "uint256"
        },
        {
          "internalType": "uint256",
          "name": "_salePrice",
          "type": "uint256"
        }
      ],
      "name": "royaltyInfo",
      "outputs": [
        {
          "internalType": "address",
          "name": "",
          "type": "address"
        },
        {
          "internalType": "uint256",
          "name": "",
          "type": "uint256"
        }
      ],
      "stateMutability": "view",
      "type": "function"
    },
    {
      "inputs": [
        {
          "internalType": "address",
          "name": "from",
          "type": "address"
        },
        {
          "internalType": "address",
          "name": "to",
          "type": "address"
        },
        {
          "internalType": "uint256",
          "name": "tokenId",
          "type": "uint256"
        }
      ],
      "name": "safeTransferFrom",
      "outputs": [],
      "stateMutability": "nonpayable",
      "type": "function"
    },
    {
      "inputs": [
        {
          "internalType": "address",
          "name": "from",
          "type": "address"
        },
        {
          "internalType": "address",
          "name": "to",
          "type": "address"
        },
        {
          "internalType": "uint256",
          "name": "tokenId",
          "type": "uint256"
        },
        {
          "internalType": "bytes",
          "name": "_data",
          "type": "bytes"
        }
      ],
      "name": "safeTransferFrom",
      "outputs": [],
      "stateMutability": "nonpayable",
      "type": "function"
    },
    {
      "inputs": [
        {
          "internalType": "address",
          "name": "operator",
          "type": "address"
        },
        {
          "internalType": "bool",
          "name": "approved",
          "type": "bool"
        }
      ],
      "name": "setApprovalForAll",
      "outputs": [],
      "stateMutability": "nonpayable",
      "type": "function"
    },
    {
      "inputs": [
        {
          "internalType": "string",
          "name": "_newBaseExtension",
          "type": "string"
        }
      ],
      "name": "setBaseExtension",
      "outputs": [],
      "stateMutability": "nonpayable",
      "type": "function"
    },
    {
      "inputs": [
        {
          "internalType": "string",
          "name": "_baseTokenURI",
          "type": "string"
        }
      ],
      "name": "setBaseURI",
      "outputs": [],
      "stateMutability": "nonpayable",
      "type": "function"
    },
    {
      "inputs": [
        {
          "internalType": "uint256",
          "name": "_newCost",
          "type": "uint256"
        }
      ],
      "name": "setCost",
      "outputs": [],
      "stateMutability": "nonpayable",
      "type": "function"
    },
    {
      "inputs": [
        {
          "internalType": "string",
          "name": "_notRevealedURI",
          "type": "string"
        }
      ],
      "name": "setNotRevealedURI",
      "outputs": [],
      "stateMutability": "nonpayable",
      "type": "function"
    },
    {
      "inputs": [
        {
          "internalType": "address",
          "name": "_receiver",
          "type": "address"
        },
        {
          "internalType": "uint96",
          "name": "_royaltyFeesInBips",
          "type": "uint96"
        }
      ],
      "name": "setRoyaltyInfo",
      "outputs": [],
      "stateMutability": "nonpayable",
      "type": "function"
    },
    {
      "inputs": [
        {
          "internalType": "uint256",
          "name": "_limit",
          "type": "uint256"
        }
      ],
      "name": "setmaxMintAmount",
      "outputs": [],
      "stateMutability": "nonpayable",
      "type": "function"
    },
    {
      "inputs": [
        {
          "internalType": "uint256",
          "name": "_limit",
          "type": "uint256"
        }
      ],
      "name": "setmaxSupply",
      "outputs": [],
      "stateMutability": "nonpayable",
      "type": "function"
    },
    {
      "inputs": [
        {
          "internalType": "bytes4",
          "name": "interfaceId",
          "type": "bytes4"
        }
      ],
      "name": "supportsInterface",
      "outputs": [
        {
          "internalType": "bool",
          "name": "",
          "type": "bool"
        }
      ],
      "stateMutability": "view",
      "type": "function"
    },
    {
      "inputs": [],
      "name": "symbol",
      "outputs": [
        {
          "internalType": "string",
          "name": "",
          "type": "string"
        }
      ],
      "stateMutability": "view",
      "type": "function"
    },
    {
      "inputs": [
        {
          "internalType": "uint256",
          "name": "index",
          "type": "uint256"
        }
      ],
      "name": "tokenByIndex",
      "outputs": [
        {
          "internalType": "uint256",
          "name": "",
          "type": "uint256"
        }
      ],
      "stateMutability": "view",
      "type": "function"
    },
    {
      "inputs": [
        {
          "internalType": "address",
          "name": "owner",
          "type": "address"
        },
        {
          "internalType": "uint256",
          "name": "index",
          "type": "uint256"
        }
      ],
      "name": "tokenOfOwnerByIndex",
      "outputs": [
        {
          "internalType": "uint256",
          "name": "",
          "type": "uint256"
        }
      ],
      "stateMutability": "view",
      "type": "function"
    },
    {
      "inputs": [
        {
          "internalType": "uint256",
          "name": "tokenId",
          "type": "uint256"
        }
      ],
      "name": "tokenURI",
      "outputs": [
        {
          "internalType": "string",
          "name": "",
          "type": "string"
        }
      ],
      "stateMutability": "view",
      "type": "function"
    },
    {
      "inputs": [
        {
          "internalType": "address",
          "name": "_owner",
          "type": "address"
        }
      ],
      "name": "tokensOfOwner",
      "outputs": [
        {
          "internalType": "uint256[]",
          "name": "",
          "type": "uint256[]"
        }
      ],
      "stateMutability": "view",
      "type": "function"
    },
    {
      "inputs": [],
      "name": "totalSupply",
      "outputs": [
        {
          "internalType": "uint256",
          "name": "",
          "type": "uint256"
        }
      ],
      "stateMutability": "view",
      "type": "function"
    },
    {
      "inputs": [
        {
          "internalType": "address",
          "name": "from",
          "type": "address"
        },
        {
          "internalType": "address",
          "name": "to",
          "type": "address"
        },
        {
          "internalType": "uint256",
          "name": "tokenId",
          "type": "uint256"
        }
      ],
      "name": "transferFrom",
      "outputs": [],
      "stateMutability": "nonpayable",
      "type": "function"
    },
    {
      "inputs": [
        {
          "internalType": "address",
          "name": "newOwner",
          "type": "address"
        }
      ],
      "name": "transferOwnership",
      "outputs": [],
      "stateMutability": "nonpayable",
      "type": "function"
    }
  ],
  "bytecode": "0x60806040526000600c60006101000a81548160ff0219169083151502179055506040518060400160405280600581526020017f2e6a736f6e000000000000000000000000000000000000000000000000000000815250600d90805190602001906200006c929190620005c4565b506000600f55600a601055655af3107a400060115560016012556000601360006101000a81548160ff02191690831515021790555073f9351cfab08d72e873424708a817a067fa33f45f601360016101000a81548173ffffffffffffffffffffffffffffffffffffffff021916908373ffffffffffffffffffffffffffffffffffffffff16021790555073f9351cfab08d72e873424708a817a067fa33f45f601460006101000a81548173ffffffffffffffffffffffffffffffffffffffff021916908373ffffffffffffffffffffffffffffffffffffffff1602179055503480156200015857600080fd5b5060405162004fbf38038062004fbf83398181016040528101906200017e919062000709565b6040518060400160405280601581526020017f52657365617263682046756e64696e6720436c756200000000000000000000008152506040518060400160405280600381526020017f5246430000000000000000000000000000000000000000000000000000000000815250816001908051906020019062000202929190620005c4565b5080600290805190602001906200021b929190620005c4565b5050506200023e620002326200027960201b60201c565b6200028160201b60201c565b6001600a819055506200025833836200034760201b60201c565b80600e908051906020019062000270929190620005c4565b50505062000ab2565b600033905090565b6000600960009054906101000a900473ffffffffffffffffffffffffffffffffffffffff16905081600960006101000a81548173ffffffffffffffffffffffffffffffffffffffff021916908373ffffffffffffffffffffffffffffffffffffffff1602179055508173ffffffffffffffffffffffffffffffffffffffff168173ffffffffffffffffffffffffffffffffffffffff167f8be0079c531659141344cd1fd0a4f28419497f9722a3daafe3b4186f6b6457e060405160405180910390a35050565b620003576200027960201b60201c565b73ffffffffffffffffffffffffffffffffffffffff166200037d620003ec60201b60201c565b73ffffffffffffffffffffffffffffffffffffffff1614620003d6576040517f08c379a0000000000000000000000000000000000000000000000000000000008152600401620003cd90620007e4565b60405180910390fd5b620003e882826200041660201b60201c565b5050565b6000600960009054906101000a900473ffffffffffffffffffffffffffffffffffffffff16905090565b62000426620005ba60201b60201c565b6bffffffffffffffffffffffff16816bffffffffffffffffffffffff16111562000487576040517f08c379a00000000000000000000000000000000000000000000000000000000081526004016200047e9062000806565b60405180910390fd5b600073ffffffffffffffffffffffffffffffffffffffff168273ffffffffffffffffffffffffffffffffffffffff161415620004fa576040517f08c379a0000000000000000000000000000000000000000000000000000000008152600401620004f19062000828565b60405180910390fd5b60405180604001604052808373ffffffffffffffffffffffffffffffffffffffff168152602001826bffffffffffffffffffffffff16815250600760008201518160000160006101000a81548173ffffffffffffffffffffffffffffffffffffffff021916908373ffffffffffffffffffffffffffffffffffffffff16021790555060208201518160000160146101000a8154816bffffffffffffffffffffffff02191690836bffffffffffffffffffffffff1602179055509050505050565b6000612710905090565b828054620005d29062000908565b90600052602060002090601f016020900481019282620005f6576000855562000642565b82601f106200061157805160ff191683800117855562000642565b8280016001018555821562000642579182015b828111156200064157825182559160200191906001019062000624565b5b50905062000651919062000655565b5090565b5b808211156200067057600081600090555060010162000656565b5090565b60006200068b620006858462000873565b6200084a565b905082815260208101848484011115620006aa57620006a9620009d7565b5b620006b7848285620008d2565b509392505050565b600082601f830112620006d757620006d6620009d2565b5b8151620006e984826020860162000674565b91505092915050565b600081519050620007038162000a98565b92915050565b60008060408385031215620007235762000722620009e1565b5b60006200073385828601620006f2565b925050602083015167ffffffffffffffff811115620007575762000756620009dc565b5b6200076585828601620006bf565b9150509250929050565b60006200077e602083620008a9565b91506200078b82620009f7565b602082019050919050565b6000620007a5602a83620008a9565b9150620007b28262000a20565b604082019050919050565b6000620007cc601983620008a9565b9150620007d98262000a6f565b602082019050919050565b60006020820190508181036000830152620007ff816200076f565b9050919050565b60006020820190508181036000830152620008218162000796565b9050919050565b600060208201905081810360008301526200084381620007bd565b9050919050565b60006200085662000869565b90506200086482826200093e565b919050565b6000604051905090565b600067ffffffffffffffff821115620008915762000890620009a3565b5b6200089c82620009e6565b9050602081019050919050565b600082825260208201905092915050565b60006bffffffffffffffffffffffff82169050919050565b60005b83811015620008f2578082015181840152602081019050620008d5565b8381111562000902576000848401525b50505050565b600060028204905060018216806200092157607f821691505b6020821081141562000938576200093762000974565b5b50919050565b6200094982620009e6565b810181811067ffffffffffffffff821117156200096b576200096a620009a3565b5b80604052505050565b7f4e487b7100000000000000000000000000000000000000000000000000000000600052602260045260246000fd5b7f4e487b7100000000000000000000000000000000000000000000000000000000600052604160045260246000fd5b600080fd5b600080fd5b600080fd5b600080fd5b6000601f19601f8301169050919050565b7f4f776e61626c653a2063616c6c6572206973206e6f7420746865206f776e6572600082015250565b7f455243323938313a20726f79616c7479206665652077696c6c2065786365656460008201527f2073616c65507269636500000000000000000000000000000000000000000000602082015250565b7f455243323938313a20696e76616c696420726563656976657200000000000000600082015250565b62000aa381620008ba565b811462000aaf57600080fd5b50565b6144fd8062000ac26000396000f3fe6080604052600436106102465760003560e01c806370a0823111610139578063a0712d68116100b6578063c87b56dd1161007a578063c87b56dd14610872578063d547cfb7146108af578063da3ef23f146108da578063e985e9c514610903578063f2c4ce1e14610940578063f2fde38b1461096957610246565b8063a0712d68146107c2578063a22cb465146107de578063a475b5dd14610807578063b88d4fde1461081e578063c66828621461084757610246565b80638462151c116100fd5780638462151c146106d95780638d859f3e146107165780638da5cb5b146107415780638ea5220f1461076c57806395d89b411461079757610246565b806370a0823114610606578063715018a614610643578063722503801461065a5780637b208769146106855780637f00c7a6146106b057610246565b80632f745c59116101c75780634f6ccce71161018b5780634f6ccce71461050d578063518302271461054a57806355f804b3146105755780635c975abb1461059e5780636352211e146105c957610246565b80632f745c591461042857806332cb6b0c1461046557806335917c641461049057806342842e0e146104bb57806344a0d68a146104e457610246565b806309d42b301161020e57806309d42b301461034257806318160ddd1461036d578063228025e81461039857806323b872dd146103c15780632a55205a146103ea57610246565b806301ffc9a71461024b57806302fa7c471461028857806306fdde03146102b1578063081812fc146102dc578063095ea7b314610319575b600080fd5b34801561025757600080fd5b50610272600480360381019061026d9190613960565b610992565b60405161027f9190613d4a565b60405180910390f35b34801561029457600080fd5b506102af60048036038101906102aa9190613920565b610a0c565b005b3480156102bd57600080fd5b506102c6610a96565b6040516102d39190613d65565b60405180910390f35b3480156102e857600080fd5b5061030360048036038101906102fe9190613a03565b610b28565b6040516103109190613c98565b60405180910390f35b34801561032557600080fd5b50610340600480360381019061033b91906138e0565b610ba4565b005b34801561034e57600080fd5b50610357610caf565b6040516103649190613e27565b60405180910390f35b34801561037957600080fd5b50610382610cb5565b60405161038f9190613e27565b60405180910390f35b3480156103a457600080fd5b506103bf60048036038101906103ba9190613a03565b610d0a565b005b3480156103cd57600080fd5b506103e860048036038101906103e391906137ca565b610d90565b005b3480156103f657600080fd5b50610411600480360381019061040c9190613a30565b610da0565b60405161041f929190613cff565b60405180910390f35b34801561043457600080fd5b5061044f600480360381019061044a91906138e0565b610f8b565b60405161045c9190613e27565b60405180910390f35b34801561047157600080fd5b5061047a611192565b6040516104879190613e27565b60405180910390f35b34801561049c57600080fd5b506104a5611198565b6040516104b29190613e27565b60405180910390f35b3480156104c757600080fd5b506104e260048036038101906104dd91906137ca565b61119e565b005b3480156104f057600080fd5b5061050b60048036038101906105069190613a03565b6111be565b005b34801561051957600080fd5b50610534600480360381019061052f9190613a03565b611244565b6040516105419190613e27565b60405180910390f35b34801561055657600080fd5b5061055f6113b5565b60405161056c9190613d4a565b60405180910390f35b34801561058157600080fd5b5061059c600480360381019061059791906139ba565b6113c8565b005b3480156105aa57600080fd5b506105b361145e565b6040516105c09190613d4a565b60405180910390f35b3480156105d557600080fd5b506105f060048036038101906105eb9190613a03565b611471565b6040516105fd9190613c98565b60405180910390f35b34801561061257600080fd5b5061062d6004803603810190610628919061375d565b611487565b60405161063a9190613e27565b60405180910390f35b34801561064f57600080fd5b50610658611557565b005b34801561066657600080fd5b5061066f6115df565b60405161067c9190613d65565b60405180910390f35b34801561069157600080fd5b5061069a61166d565b6040516106a79190613c98565b60405180910390f35b3480156106bc57600080fd5b506106d760048036038101906106d29190613a03565b611693565b005b3480156106e557600080fd5b5061070060048036038101906106fb919061375d565b611719565b60405161070d9190613d28565b60405180910390f35b34801561072257600080fd5b5061072b6117c7565b6040516107389190613e27565b60405180910390f35b34801561074d57600080fd5b506107566117cd565b6040516107639190613c98565b60405180910390f35b34801561077857600080fd5b506107816117f7565b60405161078e9190613c98565b60405180910390f35b3480156107a357600080fd5b506107ac61181d565b6040516107b99190613d65565b60405180910390f35b6107dc60048036038101906107d79190613a03565b6118af565b005b3480156107ea57600080fd5b50610805600480360381019061080091906138a0565b6118bc565b005b34801561081357600080fd5b5061081c611a34565b005b34801561082a57600080fd5b506108456004803603810190610840919061381d565b611acd565b005b34801561085357600080fd5b5061085c611b20565b6040516108699190613d65565b60405180910390f35b34801561087e57600080fd5b5061089960048036038101906108949190613a03565b611bae565b6040516108a69190613d65565b60405180910390f35b3480156108bb57600080fd5b506108c4611cbe565b6040516108d19190613d65565b60405180910390f35b3480156108e657600080fd5b5061090160048036038101906108fc91906139ba565b611d4c565b005b34801561090f57600080fd5b5061092a6004803603810190610925919061378a565b611de2565b6040516109379190613d4a565b60405180910390f35b34801561094c57600080fd5b50610967600480360381019061096291906139ba565b611e76565b005b34801561097557600080fd5b50610990600480360381019061098b919061375d565b611f0c565b005b60007f2a55205a000000000000000000000000000000000000000000000000000000007bffffffffffffffffffffffffffffffffffffffffffffffffffffffff1916827bffffffffffffffffffffffffffffffffffffffffffffffffffffffff19161480610a055750610a0482612004565b5b9050919050565b610a1461207e565b73ffffffffffffffffffffffffffffffffffffffff16610a326117cd565b73ffffffffffffffffffffffffffffffffffffffff1614610a88576040517f08c379a0000000000000000000000000000000000000000000000000000000008152600401610a7f90613dc7565b60405180910390fd5b610a928282612086565b5050565b606060018054610aa590614128565b80601f0160208091040260200160405190810160405280929190818152602001828054610ad190614128565b8015610b1e5780601f10610af357610100808354040283529160200191610b1e565b820191906000526020600020905b815481529060010190602001808311610b0157829003601f168201915b5050505050905090565b6000610b338261221c565b610b69576040517fcf4700e400000000000000000000000000000000000000000000000000000000815260040160405180910390fd5b6005600083815260200190815260200160002060009054906101000a900473ffffffffffffffffffffffffffffffffffffffff169050919050565b6000610baf82611471565b90508073ffffffffffffffffffffffffffffffffffffffff168373ffffffffffffffffffffffffffffffffffffffff161415610c17576040517f943f7b8c00000000000000000000000000000000000000000000000000000000815260040160405180910390fd5b8073ffffffffffffffffffffffffffffffffffffffff16610c3661207e565b73ffffffffffffffffffffffffffffffffffffffff1614158015610c685750610c6681610c6161207e565b611de2565b155b15610c9f576040517fcfb3b94200000000000000000000000000000000000000000000000000000000815260040160405180910390fd5b610caa838383612284565b505050565b60125481565b60008060109054906101000a90046fffffffffffffffffffffffffffffffff1660008054906101000a90046fffffffffffffffffffffffffffffffff16036fffffffffffffffffffffffffffffffff16905090565b610d1261207e565b73ffffffffffffffffffffffffffffffffffffffff16610d306117cd565b73ffffffffffffffffffffffffffffffffffffffff1614610d86576040517f08c379a0000000000000000000000000000000000000000000000000000000008152600401610d7d90613dc7565b60405180910390fd5b8060108190555050565b610d9b838383612336565b505050565b6000806000600860008681526020019081526020016000206040518060400160405290816000820160009054906101000a900473ffffffffffffffffffffffffffffffffffffffff1673ffffffffffffffffffffffffffffffffffffffff1673ffffffffffffffffffffffffffffffffffffffff1681526020016000820160149054906101000a90046bffffffffffffffffffffffff166bffffffffffffffffffffffff166bffffffffffffffffffffffff16815250509050600073ffffffffffffffffffffffffffffffffffffffff16816000015173ffffffffffffffffffffffffffffffffffffffff161415610f365760076040518060400160405290816000820160009054906101000a900473ffffffffffffffffffffffffffffffffffffffff1673ffffffffffffffffffffffffffffffffffffffff1673ffffffffffffffffffffffffffffffffffffffff1681526020016000820160149054906101000a90046bffffffffffffffffffffffff166bffffffffffffffffffffffff166bffffffffffffffffffffffff168152505090505b6000610f40612853565b6bffffffffffffffffffffffff1682602001516bffffffffffffffffffffffff1686610f6c9190613fcc565b610f769190613f9b565b90508160000151819350935050509250929050565b6000610f9683611487565b8210610fce576040517f0ddac30e00000000000000000000000000000000000000000000000000000000815260040160405180910390fd5b60008060009054906101000a90046fffffffffffffffffffffffffffffffff166fffffffffffffffffffffffffffffffff16905060008060005b83811015611186576000600360008381526020019081526020016000206040518060600160405290816000820160009054906101000a900473ffffffffffffffffffffffffffffffffffffffff1673ffffffffffffffffffffffffffffffffffffffff1673ffffffffffffffffffffffffffffffffffffffff1681526020016000820160149054906101000a900467ffffffffffffffff1667ffffffffffffffff1667ffffffffffffffff16815260200160008201601c9054906101000a900460ff16151515158152505090508060400151156110e55750611179565b600073ffffffffffffffffffffffffffffffffffffffff16816000015173ffffffffffffffffffffffffffffffffffffffff161461112557806000015192505b8773ffffffffffffffffffffffffffffffffffffffff168373ffffffffffffffffffffffffffffffffffffffff161415611177578684141561116e57819550505050505061118c565b83806001019450505b505b8080600101915050611008565b50600080fd5b92915050565b60105481565b600f5481565b6111b983838360405180602001604052806000815250611acd565b505050565b6111c661207e565b73ffffffffffffffffffffffffffffffffffffffff166111e46117cd565b73ffffffffffffffffffffffffffffffffffffffff161461123a576040517f08c379a000000000000000000000000000000000000000000000000000000000815260040161123190613dc7565b60405180910390fd5b8060118190555050565b60008060008054906101000a90046fffffffffffffffffffffffffffffffff166fffffffffffffffffffffffffffffffff1690506000805b8281101561137d576000600360008381526020019081526020016000206040518060600160405290816000820160009054906101000a900473ffffffffffffffffffffffffffffffffffffffff1673ffffffffffffffffffffffffffffffffffffffff1673ffffffffffffffffffffffffffffffffffffffff1681526020016000820160149054906101000a900467ffffffffffffffff1667ffffffffffffffff1667ffffffffffffffff16815260200160008201601c9054906101000a900460ff1615151515815250509050806040015161136f578583141561136657819450505050506113b0565b82806001019350505b50808060010191505061127c565b506040517fa723001c00000000000000000000000000000000000000000000000000000000815260040160405180910390fd5b919050565b601360009054906101000a900460ff1681565b6113d061207e565b73ffffffffffffffffffffffffffffffffffffffff166113ee6117cd565b73ffffffffffffffffffffffffffffffffffffffff1614611444576040517f08c379a000000000000000000000000000000000000000000000000000000000815260040161143b90613dc7565b60405180910390fd5b80600b908051906020019061145a929190613519565b5050565b600c60009054906101000a900460ff1681565b600061147c8261285d565b600001519050919050565b60008073ffffffffffffffffffffffffffffffffffffffff168273ffffffffffffffffffffffffffffffffffffffff1614156114ef576040517f8f4eb60400000000000000000000000000000000000000000000000000000000815260040160405180910390fd5b600460008373ffffffffffffffffffffffffffffffffffffffff1673ffffffffffffffffffffffffffffffffffffffff16815260200190815260200160002060000160009054906101000a900467ffffffffffffffff1667ffffffffffffffff169050919050565b61155f61207e565b73ffffffffffffffffffffffffffffffffffffffff1661157d6117cd565b73ffffffffffffffffffffffffffffffffffffffff16146115d3576040517f08c379a00000000000000000000000000000000000000000000000000000000081526004016115ca90613dc7565b60405180910390fd5b6115dd6000612b05565b565b600e80546115ec90614128565b80601f016020809104026020016040519081016040528092919081815260200182805461161890614128565b80156116655780601f1061163a57610100808354040283529160200191611665565b820191906000526020600020905b81548152906001019060200180831161164857829003601f168201915b505050505081565b601360019054906101000a900473ffffffffffffffffffffffffffffffffffffffff1681565b61169b61207e565b73ffffffffffffffffffffffffffffffffffffffff166116b96117cd565b73ffffffffffffffffffffffffffffffffffffffff161461170f576040517f08c379a000000000000000000000000000000000000000000000000000000000815260040161170690613dc7565b60405180910390fd5b8060128190555050565b6060600061172683611487565b905060008167ffffffffffffffff811115611744576117436142c1565b5b6040519080825280602002602001820160405280156117725781602001602082028036833780820191505090505b50905060005b828110156117bc5761178a8582610f8b565b82828151811061179d5761179c614292565b5b60200260200101818152505080806117b49061418b565b915050611778565b508092505050919050565b60115481565b6000600960009054906101000a900473ffffffffffffffffffffffffffffffffffffffff16905090565b601460009054906101000a900473ffffffffffffffffffffffffffffffffffffffff1681565b60606002805461182c90614128565b80601f016020809104026020016040519081016040528092919081815260200182805461185890614128565b80156118a55780601f1061187a576101008083540402835291602001916118a5565b820191906000526020600020905b81548152906001019060200180831161188857829003601f168201915b5050505050905090565b6118b93382612bcb565b50565b6118c461207e565b73ffffffffffffffffffffffffffffffffffffffff168273ffffffffffffffffffffffffffffffffffffffff161415611929576040517fb06307db00000000000000000000000000000000000000000000000000000000815260040160405180910390fd5b806006600061193661207e565b73ffffffffffffffffffffffffffffffffffffffff1673ffffffffffffffffffffffffffffffffffffffff16815260200190815260200160002060008473ffffffffffffffffffffffffffffffffffffffff1673ffffffffffffffffffffffffffffffffffffffff16815260200190815260200160002060006101000a81548160ff0219169083151502179055508173ffffffffffffffffffffffffffffffffffffffff166119e361207e565b73ffffffffffffffffffffffffffffffffffffffff167f17307eab39ab6107e8899845ad3d59bd9653f200f220920489ca2b5937696c3183604051611a289190613d4a565b60405180910390a35050565b611a3c61207e565b73ffffffffffffffffffffffffffffffffffffffff16611a5a6117cd565b73ffffffffffffffffffffffffffffffffffffffff1614611ab0576040517f08c379a0000000000000000000000000000000000000000000000000000000008152600401611aa790613dc7565b60405180910390fd5b6001601360006101000a81548160ff021916908315150217905550565b611ad8848484612336565b611ae484848484612be9565b611b1a576040517fd1a57ed600000000000000000000000000000000000000000000000000000000815260040160405180910390fd5b50505050565b600d8054611b2d90614128565b80601f0160208091040260200160405190810160405280929190818152602001828054611b5990614128565b8015611ba65780601f10611b7b57610100808354040283529160200191611ba6565b820191906000526020600020905b815481529060010190602001808311611b8957829003601f168201915b505050505081565b6060611bb98261221c565b611bf8576040517f08c379a0000000000000000000000000000000000000000000000000000000008152600401611bef90613da7565b60405180910390fd5b601360009054906101000a900460ff16158015611c165750600f5482115b15611cad57600e8054611c2890614128565b80601f0160208091040260200160405190810160405280929190818152602001828054611c5490614128565b8015611ca15780601f10611c7657610100808354040283529160200191611ca1565b820191906000526020600020905b815481529060010190602001808311611c8457829003601f168201915b50505050509050611cb9565b611cb682612d77565b90505b919050565b600b8054611ccb90614128565b80601f0160208091040260200160405190810160405280929190818152602001828054611cf790614128565b8015611d445780601f10611d1957610100808354040283529160200191611d44565b820191906000526020600020905b815481529060010190602001808311611d2757829003601f168201915b505050505081565b611d5461207e565b73ffffffffffffffffffffffffffffffffffffffff16611d726117cd565b73ffffffffffffffffffffffffffffffffffffffff1614611dc8576040517f08c379a0000000000000000000000000000000000000000000000000000000008152600401611dbf90613dc7565b60405180910390fd5b80600d9080519060200190611dde929190613519565b5050565b6000600660008473ffffffffffffffffffffffffffffffffffffffff1673ffffffffffffffffffffffffffffffffffffffff16815260200190815260200160002060008373ffffffffffffffffffffffffffffffffffffffff1673ffffffffffffffffffffffffffffffffffffffff16815260200190815260200160002060009054906101000a900460ff16905092915050565b611e7e61207e565b73ffffffffffffffffffffffffffffffffffffffff16611e9c6117cd565b73ffffffffffffffffffffffffffffffffffffffff1614611ef2576040517f08c379a0000000000000000000000000000000000000000000000000000000008152600401611ee990613dc7565b60405180910390fd5b80600e9080519060200190611f08929190613519565b5050565b611f1461207e565b73ffffffffffffffffffffffffffffffffffffffff16611f326117cd565b73ffffffffffffffffffffffffffffffffffffffff1614611f88576040517f08c379a0000000000000000000000000000000000000000000000000000000008152600401611f7f90613dc7565b60405180910390fd5b600073ffffffffffffffffffffffffffffffffffffffff168173ffffffffffffffffffffffffffffffffffffffff161415611ff8576040517f08c379a0000000000000000000000000000000000000000000000000000000008152600401611fef90613d87565b60405180910390fd5b61200181612b05565b50565b60007f2a55205a000000000000000000000000000000000000000000000000000000007bffffffffffffffffffffffffffffffffffffffffffffffffffffffff1916827bffffffffffffffffffffffffffffffffffffffffffffffffffffffff19161480612077575061207682612e16565b5b9050919050565b600033905090565b61208e612853565b6bffffffffffffffffffffffff16816bffffffffffffffffffffffff1611156120ec576040517f08c379a00000000000000000000000000000000000000000000000000000000081526004016120e390613de7565b60405180910390fd5b600073ffffffffffffffffffffffffffffffffffffffff168273ffffffffffffffffffffffffffffffffffffffff16141561215c576040517f08c379a000000000000000000000000000000000000000000000000000000000815260040161215390613e07565b60405180910390fd5b60405180604001604052808373ffffffffffffffffffffffffffffffffffffffff168152602001826bffffffffffffffffffffffff16815250600760008201518160000160006101000a81548173ffffffffffffffffffffffffffffffffffffffff021916908373ffffffffffffffffffffffffffffffffffffffff16021790555060208201518160000160146101000a8154816bffffffffffffffffffffffff02191690836bffffffffffffffffffffffff1602179055509050505050565b60008060009054906101000a90046fffffffffffffffffffffffffffffffff166fffffffffffffffffffffffffffffffff168210801561227d575060036000838152602001908152602001600020600001601c9054906101000a900460ff16155b9050919050565b826005600084815260200190815260200160002060006101000a81548173ffffffffffffffffffffffffffffffffffffffff021916908373ffffffffffffffffffffffffffffffffffffffff160217905550818373ffffffffffffffffffffffffffffffffffffffff168273ffffffffffffffffffffffffffffffffffffffff167f8c5be1e5ebec7d5bd14f71427d1e84f3dd0314c0f7b2291e5b200ac8c7c3b92560405160405180910390a4505050565b60006123418261285d565b90506000816000015173ffffffffffffffffffffffffffffffffffffffff1661236861207e565b73ffffffffffffffffffffffffffffffffffffffff16148061239b575061239a826000015161239561207e565b611de2565b5b806123e057506123a961207e565b73ffffffffffffffffffffffffffffffffffffffff166123c884610b28565b73ffffffffffffffffffffffffffffffffffffffff16145b905080612419576040517f59c896be00000000000000000000000000000000000000000000000000000000815260040160405180910390fd5b8473ffffffffffffffffffffffffffffffffffffffff16826000015173ffffffffffffffffffffffffffffffffffffffff1614612482576040517fa114810000000000000000000000000000000000000000000000000000000000815260040160405180910390fd5b600073ffffffffffffffffffffffffffffffffffffffff168473ffffffffffffffffffffffffffffffffffffffff1614156124e9576040517fea553b3400000000000000000000000000000000000000000000000000000000815260040160405180910390fd5b6124f68585856001612f60565b6125066000848460000151612284565b6001600460008773ffffffffffffffffffffffffffffffffffffffff1673ffffffffffffffffffffffffffffffffffffffff16815260200190815260200160002060000160008282829054906101000a900467ffffffffffffffff160392506101000a81548167ffffffffffffffff021916908367ffffffffffffffff1602179055506001600460008673ffffffffffffffffffffffffffffffffffffffff1673ffffffffffffffffffffffffffffffffffffffff16815260200190815260200160002060000160008282829054906101000a900467ffffffffffffffff160192506101000a81548167ffffffffffffffff021916908367ffffffffffffffff160217905550836003600085815260200190815260200160002060000160006101000a81548173ffffffffffffffffffffffffffffffffffffffff021916908373ffffffffffffffffffffffffffffffffffffffff160217905550426003600085815260200190815260200160002060000160146101000a81548167ffffffffffffffff021916908367ffffffffffffffff1602179055506000600184019050600073ffffffffffffffffffffffffffffffffffffffff166003600083815260200190815260200160002060000160009054906101000a900473ffffffffffffffffffffffffffffffffffffffff1673ffffffffffffffffffffffffffffffffffffffff1614156127e35760008054906101000a90046fffffffffffffffffffffffffffffffff166fffffffffffffffffffffffffffffffff168110156127e25782600001516003600083815260200190815260200160002060000160006101000a81548173ffffffffffffffffffffffffffffffffffffffff021916908373ffffffffffffffffffffffffffffffffffffffff16021790555082602001516003600083815260200190815260200160002060000160146101000a81548167ffffffffffffffff021916908367ffffffffffffffff1602179055505b5b50828473ffffffffffffffffffffffffffffffffffffffff168673ffffffffffffffffffffffffffffffffffffffff167fddf252ad1be2c89b69c2b068fc378daa952ba7f163c4a11628f55a4df523b3ef60405160405180910390a461284c8585856001612f66565b5050505050565b6000612710905090565b61286561359f565b600082905060008054906101000a90046fffffffffffffffffffffffffffffffff166fffffffffffffffffffffffffffffffff16811015612ace576000600360008381526020019081526020016000206040518060600160405290816000820160009054906101000a900473ffffffffffffffffffffffffffffffffffffffff1673ffffffffffffffffffffffffffffffffffffffff1673ffffffffffffffffffffffffffffffffffffffff1681526020016000820160149054906101000a900467ffffffffffffffff1667ffffffffffffffff1667ffffffffffffffff16815260200160008201601c9054906101000a900460ff16151515158152505090508060400151612acc57600073ffffffffffffffffffffffffffffffffffffffff16816000015173ffffffffffffffffffffffffffffffffffffffff16146129b0578092505050612b00565b5b600115612acb57818060019003925050600360008381526020019081526020016000206040518060600160405290816000820160009054906101000a900473ffffffffffffffffffffffffffffffffffffffff1673ffffffffffffffffffffffffffffffffffffffff1673ffffffffffffffffffffffffffffffffffffffff1681526020016000820160149054906101000a900467ffffffffffffffff1667ffffffffffffffff1667ffffffffffffffff16815260200160008201601c9054906101000a900460ff1615151515815250509050600073ffffffffffffffffffffffffffffffffffffffff16816000015173ffffffffffffffffffffffffffffffffffffffff1614612ac6578092505050612b00565b6129b1565b5b505b6040517fdf2d9b4200000000000000000000000000000000000000000000000000000000815260040160405180910390fd5b919050565b6000600960009054906101000a900473ffffffffffffffffffffffffffffffffffffffff16905081600960006101000a81548173ffffffffffffffffffffffffffffffffffffffff021916908373ffffffffffffffffffffffffffffffffffffffff1602179055508173ffffffffffffffffffffffffffffffffffffffff168173ffffffffffffffffffffffffffffffffffffffff167f8be0079c531659141344cd1fd0a4f28419497f9722a3daafe3b4186f6b6457e060405160405180910390a35050565b612be5828260405180602001604052806000815250612f6c565b5050565b6000612c0a8473ffffffffffffffffffffffffffffffffffffffff16612f7e565b15612d6a578373ffffffffffffffffffffffffffffffffffffffff1663150b7a02612c3361207e565b8786866040518563ffffffff1660e01b8152600401612c559493929190613cb3565b602060405180830381600087803b158015612c6f57600080fd5b505af1925050508015612ca057506040513d601f19601f82011682018060405250810190612c9d919061398d565b60015b612d1a573d8060008114612cd0576040519150601f19603f3d011682016040523d82523d6000602084013e612cd5565b606091505b50600081511415612d12576040517fd1a57ed600000000000000000000000000000000000000000000000000000000815260040160405180910390fd5b805181602001fd5b63150b7a0260e01b7bffffffffffffffffffffffffffffffffffffffffffffffffffffffff1916817bffffffffffffffffffffffffffffffffffffffffffffffffffffffff191614915050612d6f565b600190505b949350505050565b6060612d828261221c565b612db8576040517fa14c4b5000000000000000000000000000000000000000000000000000000000815260040160405180910390fd5b6000612dc2612fa1565b9050600081511415612de35760405180602001604052806000815250612e0e565b80612ded84612fb8565b604051602001612dfe929190613c74565b6040516020818303038152906040525b915050919050565b60007f80ac58cd000000000000000000000000000000000000000000000000000000007bffffffffffffffffffffffffffffffffffffffffffffffffffffffff1916827bffffffffffffffffffffffffffffffffffffffffffffffffffffffff19161480612ee157507f5b5e139f000000000000000000000000000000000000000000000000000000007bffffffffffffffffffffffffffffffffffffffffffffffffffffffff1916827bffffffffffffffffffffffffffffffffffffffffffffffffffffffff1916145b80612f4957507f780e9d63000000000000000000000000000000000000000000000000000000007bffffffffffffffffffffffffffffffffffffffffffffffffffffffff1916827bffffffffffffffffffffffffffffffffffffffffffffffffffffffff1916145b80612f595750612f5882613119565b5b9050919050565b50505050565b50505050565b612f798383836001613183565b505050565b6000808273ffffffffffffffffffffffffffffffffffffffff163b119050919050565b606060405180602001604052806000815250905090565b60606000821415613000576040518060400160405280600181526020017f30000000000000000000000000000000000000000000000000000000000000008152509050613114565b600082905060005b6000821461303257808061301b9061418b565b915050600a8261302b9190613f9b565b9150613008565b60008167ffffffffffffffff81111561304e5761304d6142c1565b5b6040519080825280601f01601f1916602001820160405280156130805781602001600182028036833780820191505090505b5090505b6000851461310d576001826130999190614026565b9150600a856130a891906141d4565b60306130b49190613f45565b60f81b8183815181106130ca576130c9614292565b5b60200101907effffffffffffffffffffffffffffffffffffffffffffffffffffffffffffff1916908160001a905350600a856131069190613f9b565b9450613084565b8093505050505b919050565b60007f01ffc9a7000000000000000000000000000000000000000000000000000000007bffffffffffffffffffffffffffffffffffffffffffffffffffffffff1916827bffffffffffffffffffffffffffffffffffffffffffffffffffffffff1916149050919050565b60008060009054906101000a90046fffffffffffffffffffffffffffffffff166fffffffffffffffffffffffffffffffff169050600073ffffffffffffffffffffffffffffffffffffffff168573ffffffffffffffffffffffffffffffffffffffff16141561321e576040517f2e07630000000000000000000000000000000000000000000000000000000000815260040160405180910390fd5b6000841415613259576040517fb562e8dd00000000000000000000000000000000000000000000000000000000815260040160405180910390fd5b6132666000868387612f60565b83600460008773ffffffffffffffffffffffffffffffffffffffff1673ffffffffffffffffffffffffffffffffffffffff16815260200190815260200160002060000160008282829054906101000a900467ffffffffffffffff160192506101000a81548167ffffffffffffffff021916908367ffffffffffffffff16021790555083600460008773ffffffffffffffffffffffffffffffffffffffff1673ffffffffffffffffffffffffffffffffffffffff16815260200190815260200160002060000160088282829054906101000a900467ffffffffffffffff160192506101000a81548167ffffffffffffffff021916908367ffffffffffffffff160217905550846003600083815260200190815260200160002060000160006101000a81548173ffffffffffffffffffffffffffffffffffffffff021916908373ffffffffffffffffffffffffffffffffffffffff160217905550426003600083815260200190815260200160002060000160146101000a81548167ffffffffffffffff021916908367ffffffffffffffff160217905550600081905060005b858110156134cb57818773ffffffffffffffffffffffffffffffffffffffff16600073ffffffffffffffffffffffffffffffffffffffff167fddf252ad1be2c89b69c2b068fc378daa952ba7f163c4a11628f55a4df523b3ef60405160405180910390a483801561347f575061347d6000888488612be9565b155b156134b6576040517fd1a57ed600000000000000000000000000000000000000000000000000000000815260040160405180910390fd5b81806001019250508080600101915050613404565b50806000806101000a8154816fffffffffffffffffffffffffffffffff02191690836fffffffffffffffffffffffffffffffff160217905550506135126000868387612f66565b5050505050565b82805461352590614128565b90600052602060002090601f016020900481019282613547576000855561358e565b82601f1061356057805160ff191683800117855561358e565b8280016001018555821561358e579182015b8281111561358d578251825591602001919060010190613572565b5b50905061359b91906135e2565b5090565b6040518060600160405280600073ffffffffffffffffffffffffffffffffffffffff168152602001600067ffffffffffffffff1681526020016000151581525090565b5b808211156135fb5760008160009055506001016135e3565b5090565b600061361261360d84613e67565b613e42565b90508281526020810184848401111561362e5761362d6142f5565b5b6136398482856140e6565b509392505050565b600061365461364f84613e98565b613e42565b9050828152602081018484840111156136705761366f6142f5565b5b61367b8482856140e6565b509392505050565b60008135905061369281614454565b92915050565b6000813590506136a78161446b565b92915050565b6000813590506136bc81614482565b92915050565b6000815190506136d181614482565b92915050565b600082601f8301126136ec576136eb6142f0565b5b81356136fc8482602086016135ff565b91505092915050565b600082601f83011261371a576137196142f0565b5b813561372a848260208601613641565b91505092915050565b60008135905061374281614499565b92915050565b600081359050613757816144b0565b92915050565b600060208284031215613773576137726142ff565b5b600061378184828501613683565b91505092915050565b600080604083850312156137a1576137a06142ff565b5b60006137af85828601613683565b92505060206137c085828601613683565b9150509250929050565b6000806000606084860312156137e3576137e26142ff565b5b60006137f186828701613683565b935050602061380286828701613683565b925050604061381386828701613733565b9150509250925092565b60008060008060808587031215613837576138366142ff565b5b600061384587828801613683565b945050602061385687828801613683565b935050604061386787828801613733565b925050606085013567ffffffffffffffff811115613888576138876142fa565b5b613894878288016136d7565b91505092959194509250565b600080604083850312156138b7576138b66142ff565b5b60006138c585828601613683565b92505060206138d685828601613698565b9150509250929050565b600080604083850312156138f7576138f66142ff565b5b600061390585828601613683565b925050602061391685828601613733565b9150509250929050565b60008060408385031215613937576139366142ff565b5b600061394585828601613683565b925050602061395685828601613748565b9150509250929050565b600060208284031215613976576139756142ff565b5b6000613984848285016136ad565b91505092915050565b6000602082840312156139a3576139a26142ff565b5b60006139b1848285016136c2565b91505092915050565b6000602082840312156139d0576139cf6142ff565b5b600082013567ffffffffffffffff8111156139ee576139ed6142fa565b5b6139fa84828501613705565b91505092915050565b600060208284031215613a1957613a186142ff565b5b6000613a2784828501613733565b91505092915050565b60008060408385031215613a4757613a466142ff565b5b6000613a5585828601613733565b9250506020613a6685828601613733565b9150509250929050565b6000613a7c8383613c56565b60208301905092915050565b613a918161405a565b82525050565b6000613aa282613ed9565b613aac8185613f07565b9350613ab783613ec9565b8060005b83811015613ae8578151613acf8882613a70565b9750613ada83613efa565b925050600181019050613abb565b5085935050505092915050565b613afe8161406c565b82525050565b6000613b0f82613ee4565b613b198185613f18565b9350613b298185602086016140f5565b613b3281614304565b840191505092915050565b6000613b4882613eef565b613b528185613f29565b9350613b628185602086016140f5565b613b6b81614304565b840191505092915050565b6000613b8182613eef565b613b8b8185613f3a565b9350613b9b8185602086016140f5565b80840191505092915050565b6000613bb4602683613f29565b9150613bbf82614315565b604082019050919050565b6000613bd7603183613f29565b9150613be282614364565b604082019050919050565b6000613bfa602083613f29565b9150613c05826143b3565b602082019050919050565b6000613c1d602a83613f29565b9150613c28826143dc565b604082019050919050565b6000613c40601983613f29565b9150613c4b8261442b565b602082019050919050565b613c5f816140c4565b82525050565b613c6e816140c4565b82525050565b6000613c808285613b76565b9150613c8c8284613b76565b91508190509392505050565b6000602082019050613cad6000830184613a88565b92915050565b6000608082019050613cc86000830187613a88565b613cd56020830186613a88565b613ce26040830185613c65565b8181036060830152613cf48184613b04565b905095945050505050565b6000604082019050613d146000830185613a88565b613d216020830184613c65565b9392505050565b60006020820190508181036000830152613d428184613a97565b905092915050565b6000602082019050613d5f6000830184613af5565b92915050565b60006020820190508181036000830152613d7f8184613b3d565b905092915050565b60006020820190508181036000830152613da081613ba7565b9050919050565b60006020820190508181036000830152613dc081613bca565b9050919050565b60006020820190508181036000830152613de081613bed565b9050919050565b60006020820190508181036000830152613e0081613c10565b9050919050565b60006020820190508181036000830152613e2081613c33565b9050919050565b6000602082019050613e3c6000830184613c65565b92915050565b6000613e4c613e5d565b9050613e58828261415a565b919050565b6000604051905090565b600067ffffffffffffffff821115613e8257613e816142c1565b5b613e8b82614304565b9050602081019050919050565b600067ffffffffffffffff821115613eb357613eb26142c1565b5b613ebc82614304565b9050602081019050919050565b6000819050602082019050919050565b600081519050919050565b600081519050919050565b600081519050919050565b6000602082019050919050565b600082825260208201905092915050565b600082825260208201905092915050565b600082825260208201905092915050565b600081905092915050565b6000613f50826140c4565b9150613f5b836140c4565b9250827fffffffffffffffffffffffffffffffffffffffffffffffffffffffffffffffff03821115613f9057613f8f614205565b5b828201905092915050565b6000613fa6826140c4565b9150613fb1836140c4565b925082613fc157613fc0614234565b5b828204905092915050565b6000613fd7826140c4565b9150613fe2836140c4565b9250817fffffffffffffffffffffffffffffffffffffffffffffffffffffffffffffffff048311821515161561401b5761401a614205565b5b828202905092915050565b6000614031826140c4565b915061403c836140c4565b92508282101561404f5761404e614205565b5b828203905092915050565b6000614065826140a4565b9050919050565b60008115159050919050565b60007fffffffff0000000000000000000000000000000000000000000000000000000082169050919050565b600073ffffffffffffffffffffffffffffffffffffffff82169050919050565b6000819050919050565b60006bffffffffffffffffffffffff82169050919050565b82818337600083830152505050565b60005b838110156141135780820151818401526020810190506140f8565b83811115614122576000848401525b50505050565b6000600282049050600182168061414057607f821691505b6020821081141561415457614153614263565b5b50919050565b61416382614304565b810181811067ffffffffffffffff82111715614182576141816142c1565b5b80604052505050565b6000614196826140c4565b91507fffffffffffffffffffffffffffffffffffffffffffffffffffffffffffffffff8214156141c9576141c8614205565b5b600182019050919050565b60006141df826140c4565b91506141ea836140c4565b9250826141fa576141f9614234565b5b828206905092915050565b7f4e487b7100000000000000000000000000000000000000000000000000000000600052601160045260246000fd5b7f4e487b7100000000000000000000000000000000000000000000000000000000600052601260045260246000fd5b7f4e487b7100000000000000000000000000000000000000000000000000000000600052602260045260246000fd5b7f4e487b7100000000000000000000000000000000000000000000000000000000600052603260045260246000fd5b7f4e487b7100000000000000000000000000000000000000000000000000000000600052604160045260246000fd5b600080fd5b600080fd5b600080fd5b600080fd5b6000601f19601f8301169050919050565b7f4f776e61626c653a206e6577206f776e657220697320746865207a65726f206160008201527f6464726573730000000000000000000000000000000000000000000000000000602082015250565b7f45524337323155524953746f726167653a2055524920717565727920666f722060008201527f6e6f6e6578697374656e7420746f6b656e000000000000000000000000000000602082015250565b7f4f776e61626c653a2063616c6c6572206973206e6f7420746865206f776e6572600082015250565b7f455243323938313a20726f79616c7479206665652077696c6c2065786365656460008201527f2073616c65507269636500000000000000000000000000000000000000000000602082015250565b7f455243323938313a20696e76616c696420726563656976657200000000000000600082015250565b61445d8161405a565b811461446857600080fd5b50565b6144748161406c565b811461447f57600080fd5b50565b61448b81614078565b811461449657600080fd5b50565b6144a2816140c4565b81146144ad57600080fd5b50565b6144b9816140ce565b81146144c457600080fd5b5056fea26469706673582212200f0c0858c522dfc806d6f4749bf6494e1c5cb4b9a62d54636a3b4879d8827ea364736f6c63430008070033",
  "linkReferences": {},
  "deployedLinkReferences": {}
}