{
  "_format": "hh-sol-artifact-1",
  "contractName": "ResearchFundingClubFast",
  "sourceName": "contracts/ResearchFundingClubFast.sol",
  "abi": [
    {
      "inputs": [
        {
          "internalType": "uint96",
          "name": "_royaltyFeesInBips",
          "type": "uint96"
        },
        {
          "internalType": "string",
          "name": "_notRevealedURI",
          "type": "string"
        }
      ],
      "stateMutability": "nonpayable",
      "type": "constructor"
    },
    {
      "inputs": [],
      "name": "ApprovalCallerNotOwnerNorApproved",
      "type": "error"
    },
    {
      "inputs": [],
      "name": "ApprovalQueryForNonexistentToken",
      "type": "error"
    },
    {
      "inputs": [],
      "name": "ApprovalToCurrentOwner",
      "type": "error"
    },
    {
      "inputs": [],
      "name": "ApproveToCaller",
      "type": "error"
    },
    {
      "inputs": [],
      "name": "BalanceQueryForZeroAddress",
      "type": "error"
    },
    {
      "inputs": [],
      "name": "CollectionNotRevealedYet",
      "type": "error"
    },
    {
      "inputs": [],
      "name": "ContractPaused",
      "type": "error"
    },
    {
      "inputs": [],
      "name": "InsufficientFunds",
      "type": "error"
    },
    {
      "inputs": [],
      "name": "MaxPerNFTAddrExceeded",
      "type": "error"
    },
    {
      "inputs": [],
      "name": "MintToZeroAddress",
      "type": "error"
    },
    {
      "inputs": [],
      "name": "MintZeroQuantity",
      "type": "error"
    },
    {
      "inputs": [],
      "name": "OwnerIndexOutOfBounds",
      "type": "error"
    },
    {
      "inputs": [],
      "name": "OwnerQueryForNonexistentToken",
      "type": "error"
    },
    {
      "inputs": [],
      "name": "SaleIncomplete",
      "type": "error"
    },
    {
      "inputs": [],
      "name": "SoldOut",
      "type": "error"
    },
    {
      "inputs": [],
      "name": "TokenIndexOutOfBounds",
      "type": "error"
    },
    {
      "inputs": [],
      "name": "TransferCallerNotOwnerNorApproved",
      "type": "error"
    },
    {
      "inputs": [],
      "name": "TransferFromIncorrectOwner",
      "type": "error"
    },
    {
      "inputs": [],
      "name": "TransferToNonERC721ReceiverImplementer",
      "type": "error"
    },
    {
      "inputs": [],
      "name": "TransferToZeroAddress",
      "type": "error"
    },
    {
      "inputs": [],
      "name": "URIQueryForNonexistentTokenRFC",
      "type": "error"
    },
    {
      "inputs": [],
      "name": "ZeroMintFailed",
      "type": "error"
    },
    {
      "anonymous": false,
      "inputs": [
        {
          "indexed": true,
          "internalType": "address",
          "name": "owner",
          "type": "address"
        },
        {
          "indexed": true,
          "internalType": "address",
          "name": "approved",
          "type": "address"
        },
        {
          "indexed": true,
          "internalType": "uint256",
          "name": "tokenId",
          "type": "uint256"
        }
      ],
      "name": "Approval",
      "type": "event"
    },
    {
      "anonymous": false,
      "inputs": [
        {
          "indexed": true,
          "internalType": "address",
          "name": "owner",
          "type": "address"
        },
        {
          "indexed": true,
          "internalType": "address",
          "name": "operator",
          "type": "address"
        },
        {
          "indexed": false,
          "internalType": "bool",
          "name": "approved",
          "type": "bool"
        }
      ],
      "name": "ApprovalForAll",
      "type": "event"
    },
    {
      "anonymous": false,
      "inputs": [
        {
          "indexed": true,
          "internalType": "address",
          "name": "previousOwner",
          "type": "address"
        },
        {
          "indexed": true,
          "internalType": "address",
          "name": "newOwner",
          "type": "address"
        }
      ],
      "name": "OwnershipTransferred",
      "type": "event"
    },
    {
      "anonymous": false,
      "inputs": [
        {
          "indexed": true,
          "internalType": "address",
          "name": "from",
          "type": "address"
        },
        {
          "indexed": true,
          "internalType": "address",
          "name": "to",
          "type": "address"
        },
        {
          "indexed": true,
          "internalType": "uint256",
          "name": "tokenId",
          "type": "uint256"
        }
      ],
      "name": "Transfer",
      "type": "event"
    },
    {
      "inputs": [],
      "name": "MAX_PER_MINT",
      "outputs": [
        {
          "internalType": "uint256",
          "name": "",
          "type": "uint256"
        }
      ],
      "stateMutability": "view",
      "type": "function"
    },
    {
      "inputs": [],
      "name": "MAX_SUPPLY",
      "outputs": [
        {
          "internalType": "uint256",
          "name": "",
          "type": "uint256"
        }
      ],
      "stateMutability": "view",
      "type": "function"
    },
    {
      "inputs": [],
      "name": "MIN_SUPPLY",
      "outputs": [
        {
          "internalType": "uint256",
          "name": "",
          "type": "uint256"
        }
      ],
      "stateMutability": "view",
      "type": "function"
    },
    {
      "inputs": [],
      "name": "PRICE",
      "outputs": [
        {
          "internalType": "uint256",
          "name": "",
          "type": "uint256"
        }
      ],
      "stateMutability": "view",
      "type": "function"
    },
    {
      "inputs": [
        {
          "internalType": "address",
          "name": "to",
          "type": "address"
        },
        {
          "internalType": "uint256",
          "name": "tokenId",
          "type": "uint256"
        }
      ],
      "name": "approve",
      "outputs": [],
      "stateMutability": "nonpayable",
      "type": "function"
    },
    {
      "inputs": [
        {
          "internalType": "address",
          "name": "owner",
          "type": "address"
        }
      ],
      "name": "balanceOf",
      "outputs": [
        {
          "internalType": "uint256",
          "name": "",
          "type": "uint256"
        }
      ],
      "stateMutability": "view",
      "type": "function"
    },
    {
      "inputs": [],
      "name": "baseExtension",
      "outputs": [
        {
          "internalType": "string",
          "name": "",
          "type": "string"
        }
      ],
      "stateMutability": "view",
      "type": "function"
    },
    {
      "inputs": [],
      "name": "baseTokenURI",
      "outputs": [
        {
          "internalType": "string",
          "name": "",
          "type": "string"
        }
      ],
      "stateMutability": "view",
      "type": "function"
    },
    {
      "inputs": [
        {
          "internalType": "uint256",
          "name": "_collectionID",
          "type": "uint256"
        }
      ],
      "name": "baseURI",
      "outputs": [
        {
          "internalType": "string",
          "name": "",
          "type": "string"
        }
      ],
      "stateMutability": "view",
      "type": "function"
    },
    {
      "inputs": [],
      "name": "charityWallet",
      "outputs": [
        {
          "internalType": "address",
          "name": "",
          "type": "address"
        }
      ],
      "stateMutability": "view",
      "type": "function"
    },
    {
      "inputs": [],
      "name": "collectionID",
      "outputs": [
        {
          "internalType": "uint256",
          "name": "",
          "type": "uint256"
        }
      ],
      "stateMutability": "view",
      "type": "function"
    },
    {
      "inputs": [
        {
          "internalType": "uint256",
          "name": "",
          "type": "uint256"
        }
      ],
      "name": "collections",
      "outputs": [
        {
          "internalType": "uint256",
          "name": "minSupply",
          "type": "uint256"
        },
        {
          "internalType": "uint256",
          "name": "maxSupply",
          "type": "uint256"
        },
        {
          "internalType": "string",
          "name": "baseURI",
          "type": "string"
        }
      ],
      "stateMutability": "view",
      "type": "function"
    },
    {
      "inputs": [],
      "name": "devWallet",
      "outputs": [
        {
          "internalType": "address",
          "name": "",
          "type": "address"
        }
      ],
      "stateMutability": "view",
      "type": "function"
    },
    {
      "inputs": [
        {
          "internalType": "uint256",
          "name": "tokenId",
          "type": "uint256"
        }
      ],
      "name": "getApproved",
      "outputs": [
        {
          "internalType": "address",
          "name": "",
          "type": "address"
        }
      ],
      "stateMutability": "view",
      "type": "function"
    },
    {
      "inputs": [
        {
          "internalType": "uint256",
          "name": "_id",
          "type": "uint256"
        }
      ],
      "name": "getCollectionInfo",
      "outputs": [
        {
          "components": [
            {
              "internalType": "uint256",
              "name": "minSupply",
              "type": "uint256"
            },
            {
              "internalType": "uint256",
              "name": "maxSupply",
              "type": "uint256"
            },
            {
              "internalType": "string",
              "name": "baseURI",
              "type": "string"
            }
          ],
          "internalType": "struct ResearchFundingClubFast.CollectionData",
          "name": "",
          "type": "tuple"
        }
      ],
      "stateMutability": "view",
      "type": "function"
    },
    {
      "inputs": [
        {
          "internalType": "address",
          "name": "owner",
          "type": "address"
        },
        {
          "internalType": "address",
          "name": "operator",
          "type": "address"
        }
      ],
      "name": "isApprovedForAll",
      "outputs": [
        {
          "internalType": "bool",
          "name": "",
          "type": "bool"
        }
      ],
      "stateMutability": "view",
      "type": "function"
    },
    {
      "inputs": [
        {
          "internalType": "uint256",
          "name": "_mintAmount",
          "type": "uint256"
        }
      ],
      "name": "mint",
      "outputs": [],
      "stateMutability": "payable",
      "type": "function"
    },
    {
      "inputs": [],
      "name": "name",
      "outputs": [
        {
          "internalType": "string",
          "name": "",
          "type": "string"
        }
      ],
      "stateMutability": "view",
      "type": "function"
    },
    {
      "inputs": [
        {
          "internalType": "uint256",
          "name": "_newMaxSupply",
          "type": "uint256"
        }
      ],
      "name": "newDrop",
      "outputs": [],
      "stateMutability": "nonpayable",
      "type": "function"
    },
    {
      "inputs": [],
      "name": "notRevealedURI",
      "outputs": [
        {
          "internalType": "string",
          "name": "",
          "type": "string"
        }
      ],
      "stateMutability": "view",
      "type": "function"
    },
    {
      "inputs": [],
      "name": "owner",
      "outputs": [
        {
          "internalType": "address",
          "name": "",
          "type": "address"
        }
      ],
      "stateMutability": "view",
      "type": "function"
    },
    {
      "inputs": [
        {
          "internalType": "uint256",
          "name": "tokenId",
          "type": "uint256"
        }
      ],
      "name": "ownerOf",
      "outputs": [
        {
          "internalType": "address",
          "name": "",
          "type": "address"
        }
      ],
      "stateMutability": "view",
      "type": "function"
    },
    {
      "inputs": [
        {
          "internalType": "bool",
          "name": "_state",
          "type": "bool"
        }
      ],
      "name": "pause",
      "outputs": [],
      "stateMutability": "nonpayable",
      "type": "function"
    },
    {
      "inputs": [],
      "name": "paused",
      "outputs": [
        {
          "internalType": "bool",
          "name": "",
          "type": "bool"
        }
      ],
      "stateMutability": "view",
      "type": "function"
    },
    {
      "inputs": [],
      "name": "renounceOwnership",
      "outputs": [],
      "stateMutability": "nonpayable",
      "type": "function"
    },
    {
      "inputs": [
        {
          "internalType": "string",
          "name": "_newBaseURI",
          "type": "string"
        }
      ],
      "name": "reveal",
      "outputs": [],
      "stateMutability": "nonpayable",
      "type": "function"
    },
    {
      "inputs": [],
      "name": "revealed",
      "outputs": [
        {
          "internalType": "bool",
          "name": "",
          "type": "bool"
        }
      ],
      "stateMutability": "view",
      "type": "function"
    },
    {
      "inputs": [
        {
          "internalType": "uint256",
          "name": "_tokenId",
          "type": "uint256"
        },
        {
          "internalType": "uint256",
          "name": "_salePrice",
          "type": "uint256"
        }
      ],
      "name": "royaltyInfo",
      "outputs": [
        {
          "internalType": "address",
          "name": "",
          "type": "address"
        },
        {
          "internalType": "uint256",
          "name": "",
          "type": "uint256"
        }
      ],
      "stateMutability": "view",
      "type": "function"
    },
    {
      "inputs": [
        {
          "internalType": "address",
          "name": "from",
          "type": "address"
        },
        {
          "internalType": "address",
          "name": "to",
          "type": "address"
        },
        {
          "internalType": "uint256",
          "name": "tokenId",
          "type": "uint256"
        }
      ],
      "name": "safeTransferFrom",
      "outputs": [],
      "stateMutability": "nonpayable",
      "type": "function"
    },
    {
      "inputs": [
        {
          "internalType": "address",
          "name": "from",
          "type": "address"
        },
        {
          "internalType": "address",
          "name": "to",
          "type": "address"
        },
        {
          "internalType": "uint256",
          "name": "tokenId",
          "type": "uint256"
        },
        {
          "internalType": "bytes",
          "name": "_data",
          "type": "bytes"
        }
      ],
      "name": "safeTransferFrom",
      "outputs": [],
      "stateMutability": "nonpayable",
      "type": "function"
    },
    {
      "inputs": [
        {
          "internalType": "address",
          "name": "operator",
          "type": "address"
        },
        {
          "internalType": "bool",
          "name": "approved",
          "type": "bool"
        }
      ],
      "name": "setApprovalForAll",
      "outputs": [],
      "stateMutability": "nonpayable",
      "type": "function"
    },
    {
      "inputs": [
        {
          "internalType": "string",
          "name": "_newBaseExtension",
          "type": "string"
        }
      ],
      "name": "setBaseExtension",
      "outputs": [],
      "stateMutability": "nonpayable",
      "type": "function"
    },
    {
      "inputs": [
        {
          "internalType": "uint256",
          "name": "_collectionID",
          "type": "uint256"
        },
        {
          "internalType": "string",
          "name": "_baseTokenURI",
          "type": "string"
        }
      ],
      "name": "setBaseURI",
      "outputs": [],
      "stateMutability": "nonpayable",
      "type": "function"
    },
    {
      "inputs": [
        {
          "internalType": "uint256",
          "name": "_newCost",
          "type": "uint256"
        }
      ],
      "name": "setCost",
      "outputs": [],
      "stateMutability": "nonpayable",
      "type": "function"
    },
    {
      "inputs": [
        {
          "internalType": "string",
          "name": "_notRevealedURI",
          "type": "string"
        }
      ],
      "name": "setNotRevealedURI",
      "outputs": [],
      "stateMutability": "nonpayable",
      "type": "function"
    },
    {
      "inputs": [
        {
          "internalType": "address",
          "name": "_receiver",
          "type": "address"
        },
        {
          "internalType": "uint96",
          "name": "_royaltyFeesInBips",
          "type": "uint96"
        }
      ],
      "name": "setRoyaltyInfo",
      "outputs": [],
      "stateMutability": "nonpayable",
      "type": "function"
    },
    {
      "inputs": [
        {
          "internalType": "uint256",
          "name": "_limit",
          "type": "uint256"
        }
      ],
      "name": "setmaxMintAmount",
      "outputs": [],
      "stateMutability": "nonpayable",
      "type": "function"
    },
    {
      "inputs": [
        {
          "internalType": "uint256",
          "name": "_limit",
          "type": "uint256"
        }
      ],
      "name": "setmaxSupply",
      "outputs": [],
      "stateMutability": "nonpayable",
      "type": "function"
    },
    {
      "inputs": [
        {
          "internalType": "bytes4",
          "name": "interfaceId",
          "type": "bytes4"
        }
      ],
      "name": "supportsInterface",
      "outputs": [
        {
          "internalType": "bool",
          "name": "",
          "type": "bool"
        }
      ],
      "stateMutability": "view",
      "type": "function"
    },
    {
      "inputs": [],
      "name": "symbol",
      "outputs": [
        {
          "internalType": "string",
          "name": "",
          "type": "string"
        }
      ],
      "stateMutability": "view",
      "type": "function"
    },
    {
      "inputs": [
        {
          "internalType": "uint256",
          "name": "index",
          "type": "uint256"
        }
      ],
      "name": "tokenByIndex",
      "outputs": [
        {
          "internalType": "uint256",
          "name": "",
          "type": "uint256"
        }
      ],
      "stateMutability": "view",
      "type": "function"
    },
    {
      "inputs": [
        {
          "internalType": "address",
          "name": "owner",
          "type": "address"
        },
        {
          "internalType": "uint256",
          "name": "index",
          "type": "uint256"
        }
      ],
      "name": "tokenOfOwnerByIndex",
      "outputs": [
        {
          "internalType": "uint256",
          "name": "",
          "type": "uint256"
        }
      ],
      "stateMutability": "view",
      "type": "function"
    },
    {
      "inputs": [
        {
          "internalType": "uint256",
          "name": "tokenId",
          "type": "uint256"
        }
      ],
      "name": "tokenURI",
      "outputs": [
        {
          "internalType": "string",
          "name": "",
          "type": "string"
        }
      ],
      "stateMutability": "view",
      "type": "function"
    },
    {
      "inputs": [
        {
          "internalType": "address",
          "name": "_owner",
          "type": "address"
        }
      ],
      "name": "tokensOfOwner",
      "outputs": [
        {
          "internalType": "uint256[]",
          "name": "",
          "type": "uint256[]"
        }
      ],
      "stateMutability": "view",
      "type": "function"
    },
    {
      "inputs": [],
      "name": "totalSupply",
      "outputs": [
        {
          "internalType": "uint256",
          "name": "",
          "type": "uint256"
        }
      ],
      "stateMutability": "view",
      "type": "function"
    },
    {
      "inputs": [
        {
          "internalType": "address",
          "name": "from",
          "type": "address"
        },
        {
          "internalType": "address",
          "name": "to",
          "type": "address"
        },
        {
          "internalType": "uint256",
          "name": "tokenId",
          "type": "uint256"
        }
      ],
      "name": "transferFrom",
      "outputs": [],
      "stateMutability": "nonpayable",
      "type": "function"
    },
    {
      "inputs": [
        {
          "internalType": "address",
          "name": "newOwner",
          "type": "address"
        }
      ],
      "name": "transferOwnership",
      "outputs": [],
      "stateMutability": "nonpayable",
      "type": "function"
    },
    {
      "inputs": [],
      "name": "withdraw",
      "outputs": [],
      "stateMutability": "nonpayable",
      "type": "function"
    }
  ],
  "bytecode": "0x60806040526001600b60006101000a81548160ff0219169083151502179055506040518060400160405280600581526020017f2e6a736f6e000000000000000000000000000000000000000000000000000000815250600c90805190602001906200006c929190620005c8565b506000600f55600a60105564174876e80060115560016012556000601360006101000a81548160ff021916908315150217905550600160145573f9351cfab08d72e873424708a817a067fa33f45f601660006101000a81548173ffffffffffffffffffffffffffffffffffffffff021916908373ffffffffffffffffffffffffffffffffffffffff16021790555073f9351cfab08d72e873424708a817a067fa33f45f601760006101000a81548173ffffffffffffffffffffffffffffffffffffffff021916908373ffffffffffffffffffffffffffffffffffffffff1602179055503480156200015c57600080fd5b506040516200623638038062006236833981810160405281019062000182919062000701565b6040518060400160405280601581526020017f52657365617263682046756e64696e6720436c756200000000000000000000008152506040518060400160405280600381526020017f5246430000000000000000000000000000000000000000000000000000000000815250816001908051906020019062000206929190620005c8565b5080600290805190602001906200021f929190620005c8565b50505062000242620002366200027d60201b60201c565b6200028560201b60201c565b6001600a819055506200025c33836200034b60201b60201c565b80600d908051906020019062000274929190620005c8565b50505062000a8a565b600033905090565b6000600960009054906101000a900473ffffffffffffffffffffffffffffffffffffffff16905081600960006101000a81548173ffffffffffffffffffffffffffffffffffffffff021916908373ffffffffffffffffffffffffffffffffffffffff1602179055508173ffffffffffffffffffffffffffffffffffffffff168173ffffffffffffffffffffffffffffffffffffffff167f8be0079c531659141344cd1fd0a4f28419497f9722a3daafe3b4186f6b6457e060405160405180910390a35050565b6200035b6200027d60201b60201c565b73ffffffffffffffffffffffffffffffffffffffff1662000381620003f060201b60201c565b73ffffffffffffffffffffffffffffffffffffffff1614620003da576040517f08c379a0000000000000000000000000000000000000000000000000000000008152600401620003d190620007d0565b60405180910390fd5b620003ec82826200041a60201b60201c565b5050565b6000600960009054906101000a900473ffffffffffffffffffffffffffffffffffffffff16905090565b6200042a620005be60201b60201c565b6bffffffffffffffffffffffff16816bffffffffffffffffffffffff1611156200048b576040517f08c379a00000000000000000000000000000000000000000000000000000000081526004016200048290620007f2565b60405180910390fd5b600073ffffffffffffffffffffffffffffffffffffffff168273ffffffffffffffffffffffffffffffffffffffff161415620004fe576040517f08c379a0000000000000000000000000000000000000000000000000000000008152600401620004f59062000814565b60405180910390fd5b60405180604001604052808373ffffffffffffffffffffffffffffffffffffffff168152602001826bffffffffffffffffffffffff16815250600760008201518160000160006101000a81548173ffffffffffffffffffffffffffffffffffffffff021916908373ffffffffffffffffffffffffffffffffffffffff16021790555060208201518160000160146101000a8154816bffffffffffffffffffffffff02191690836bffffffffffffffffffffffff1602179055509050505050565b6000612710905090565b828054620005d690620008f4565b90600052602060002090601f016020900481019282620005fa576000855562000646565b82601f106200061557805160ff191683800117855562000646565b8280016001018555821562000646579182015b828111156200064557825182559160200191906001019062000628565b5b50905062000655919062000659565b5090565b5b80821115620006745760008160009055506001016200065a565b5090565b60006200068f62000689846200085f565b62000836565b905082815260208101848484011115620006a857600080fd5b620006b5848285620008be565b509392505050565b600082601f830112620006cf57600080fd5b8151620006e184826020860162000678565b91505092915050565b600081519050620006fb8162000a70565b92915050565b600080604083850312156200071557600080fd5b60006200072585828601620006ea565b925050602083015167ffffffffffffffff8111156200074357600080fd5b6200075185828601620006bd565b9150509250929050565b60006200076a60208362000895565b91506200077782620009cf565b602082019050919050565b600062000791602a8362000895565b91506200079e82620009f8565b604082019050919050565b6000620007b860198362000895565b9150620007c58262000a47565b602082019050919050565b60006020820190508181036000830152620007eb816200075b565b9050919050565b600060208201905081810360008301526200080d8162000782565b9050919050565b600060208201905081810360008301526200082f81620007a9565b9050919050565b60006200084262000855565b90506200085082826200092a565b919050565b6000604051905090565b600067ffffffffffffffff8211156200087d576200087c6200098f565b5b6200088882620009be565b9050602081019050919050565b600082825260208201905092915050565b60006bffffffffffffffffffffffff82169050919050565b60005b83811015620008de578082015181840152602081019050620008c1565b83811115620008ee576000848401525b50505050565b600060028204905060018216806200090d57607f821691505b6020821081141562000924576200092362000960565b5b50919050565b6200093582620009be565b810181811067ffffffffffffffff821117156200095757620009566200098f565b5b80604052505050565b7f4e487b7100000000000000000000000000000000000000000000000000000000600052602260045260246000fd5b7f4e487b7100000000000000000000000000000000000000000000000000000000600052604160045260246000fd5b6000601f19601f8301169050919050565b7f4f776e61626c653a2063616c6c6572206973206e6f7420746865206f776e6572600082015250565b7f455243323938313a20726f79616c7479206665652077696c6c2065786365656460008201527f2073616c65507269636500000000000000000000000000000000000000000000602082015250565b7f455243323938313a20696e76616c696420726563656976657200000000000000600082015250565b62000a7b81620008a6565b811462000a8757600080fd5b50565b61579c8062000a9a6000396000f3fe6080604052600436106102935760003560e01c80635c975abb1161015a578063a0712d68116100c1578063d547cfb71161007a578063d547cfb714610a1c578063da3ef23f14610a47578063e985e9c514610a70578063f2c4ce1e14610aad578063f2fde38b14610ad6578063fdbda0ec14610aff57610293565b8063a0712d6814610909578063a22cb46514610925578063b88d4fde1461094e578063c668286214610977578063c87b56dd146109a2578063d4e4d3dd146109df57610293565b80637f00c7a6116101135780637f00c7a6146107f75780638462151c146108205780638d859f3e1461085d5780638da5cb5b146108885780638ea5220f146108b357806395d89b41146108de57610293565b80635c975abb146106e55780636352211e1461071057806370a082311461074d578063715018a61461078a57806372250380146107a15780637b208769146107cc57610293565b80632f745c59116101fe57806344a0d68a116101b757806344a0d68a146105d75780634c261247146106005780634c29bcf0146106295780634f6ccce714610652578063518302271461068f57806358b33e69146106ba57610293565b80632f745c59146104db57806332cb6b0c1461051857806333cfcb9f1461054357806335917c641461056c5780633ccfd60b1461059757806342842e0e146105ae57610293565b806309d42b301161025057806309d42b30146103b857806318160ddd146103e3578063228025e81461040e57806323b872dd146104375780632a55205a146104605780632ccde4f61461049e57610293565b806301ffc9a71461029857806302329a29146102d557806302fa7c47146102fe57806306fdde0314610327578063081812fc14610352578063095ea7b31461038f575b600080fd5b3480156102a457600080fd5b506102bf60048036038101906102ba9190614834565b610b3e565b6040516102cc9190614e33565b60405180910390f35b3480156102e157600080fd5b506102fc60048036038101906102f7919061480b565b610bb8565b005b34801561030a57600080fd5b50610325600480360381019061032091906147cf565b610c51565b005b34801561033357600080fd5b5061033c610cdb565b6040516103499190614e4e565b60405180910390f35b34801561035e57600080fd5b50610379600480360381019061037491906148c7565b610d6d565b6040516103869190614d81565b60405180910390f35b34801561039b57600080fd5b506103b660048036038101906103b19190614793565b610de9565b005b3480156103c457600080fd5b506103cd610ef4565b6040516103da9190615019565b60405180910390f35b3480156103ef57600080fd5b506103f8610efa565b6040516104059190615019565b60405180910390f35b34801561041a57600080fd5b50610435600480360381019061043091906148c7565b610f4f565b005b34801561044357600080fd5b5061045e6004803603810190610459919061468d565b610fd5565b005b34801561046c57600080fd5b5061048760048036038101906104829190614944565b610fe5565b604051610495929190614de8565b60405180910390f35b3480156104aa57600080fd5b506104c560048036038101906104c091906148c7565b6111d0565b6040516104d29190614e4e565b60405180910390f35b3480156104e757600080fd5b5061050260048036038101906104fd9190614793565b611278565b60405161050f9190615019565b60405180910390f35b34801561052457600080fd5b5061052d61147f565b60405161053a9190615019565b60405180910390f35b34801561054f57600080fd5b5061056a600480360381019061056591906148f0565b611485565b005b34801561057857600080fd5b50610581611530565b60405161058e9190615019565b60405180910390f35b3480156105a357600080fd5b506105ac611536565b005b3480156105ba57600080fd5b506105d560048036038101906105d0919061468d565b6118ce565b005b3480156105e357600080fd5b506105fe60048036038101906105f991906148c7565b6118ee565b005b34801561060c57600080fd5b5061062760048036038101906106229190614886565b611974565b005b34801561063557600080fd5b50610650600480360381019061064b91906148c7565b611ab5565b005b34801561065e57600080fd5b50610679600480360381019061067491906148c7565b611c3f565b6040516106869190615019565b60405180910390f35b34801561069b57600080fd5b506106a4611db0565b6040516106b19190614e33565b60405180910390f35b3480156106c657600080fd5b506106cf611dc3565b6040516106dc9190615019565b60405180910390f35b3480156106f157600080fd5b506106fa611dc9565b6040516107079190614e33565b60405180910390f35b34801561071c57600080fd5b50610737600480360381019061073291906148c7565b611ddc565b6040516107449190614d81565b60405180910390f35b34801561075957600080fd5b50610774600480360381019061076f9190614628565b611df2565b6040516107819190615019565b60405180910390f35b34801561079657600080fd5b5061079f611ec2565b005b3480156107ad57600080fd5b506107b6611f4a565b6040516107c39190614e4e565b60405180910390f35b3480156107d857600080fd5b506107e1611fd8565b6040516107ee9190614d81565b60405180910390f35b34801561080357600080fd5b5061081e600480360381019061081991906148c7565b611ffe565b005b34801561082c57600080fd5b5061084760048036038101906108429190614628565b612084565b6040516108549190614e11565b60405180910390f35b34801561086957600080fd5b5061087261217e565b60405161087f9190615019565b60405180910390f35b34801561089457600080fd5b5061089d612184565b6040516108aa9190614d81565b60405180910390f35b3480156108bf57600080fd5b506108c86121ae565b6040516108d59190614d81565b60405180910390f35b3480156108ea57600080fd5b506108f36121d4565b6040516109009190614e4e565b60405180910390f35b610923600480360381019061091e91906148c7565b612266565b005b34801561093157600080fd5b5061094c60048036038101906109479190614757565b612407565b005b34801561095a57600080fd5b50610975600480360381019061097091906146dc565b61257f565b005b34801561098357600080fd5b5061098c6125d2565b6040516109999190614e4e565b60405180910390f35b3480156109ae57600080fd5b506109c960048036038101906109c491906148c7565b612660565b6040516109d69190614e4e565b60405180910390f35b3480156109eb57600080fd5b50610a066004803603810190610a0191906148c7565b6128fc565b604051610a139190614ff7565b60405180910390f35b348015610a2857600080fd5b50610a316129cf565b604051610a3e9190614e4e565b60405180910390f35b348015610a5357600080fd5b50610a6e6004803603810190610a699190614886565b612a5d565b005b348015610a7c57600080fd5b50610a976004803603810190610a929190614651565b612af3565b604051610aa49190614e33565b60405180910390f35b348015610ab957600080fd5b50610ad46004803603810190610acf9190614886565b612b87565b005b348015610ae257600080fd5b50610afd6004803603810190610af89190614628565b612c1d565b005b348015610b0b57600080fd5b50610b266004803603810190610b2191906148c7565b612d15565b604051610b3593929190615034565b60405180910390f35b60007f2a55205a000000000000000000000000000000000000000000000000000000007bffffffffffffffffffffffffffffffffffffffffffffffffffffffff1916827bffffffffffffffffffffffffffffffffffffffffffffffffffffffff19161480610bb15750610bb082612dc7565b5b9050919050565b610bc0612e41565b73ffffffffffffffffffffffffffffffffffffffff16610bde612184565b73ffffffffffffffffffffffffffffffffffffffff1614610c34576040517f08c379a0000000000000000000000000000000000000000000000000000000008152600401610c2b90614ef7565b60405180910390fd5b80600b60006101000a81548160ff02191690831515021790555050565b610c59612e41565b73ffffffffffffffffffffffffffffffffffffffff16610c77612184565b73ffffffffffffffffffffffffffffffffffffffff1614610ccd576040517f08c379a0000000000000000000000000000000000000000000000000000000008152600401610cc490614ef7565b60405180910390fd5b610cd78282612e49565b5050565b606060018054610cea90615389565b80601f0160208091040260200160405190810160405280929190818152602001828054610d1690615389565b8015610d635780601f10610d3857610100808354040283529160200191610d63565b820191906000526020600020905b815481529060010190602001808311610d4657829003601f168201915b5050505050905090565b6000610d7882612fdf565b610dae576040517fcf4700e400000000000000000000000000000000000000000000000000000000815260040160405180910390fd5b6005600083815260200190815260200160002060009054906101000a900473ffffffffffffffffffffffffffffffffffffffff169050919050565b6000610df482611ddc565b90508073ffffffffffffffffffffffffffffffffffffffff168373ffffffffffffffffffffffffffffffffffffffff161415610e5c576040517f943f7b8c00000000000000000000000000000000000000000000000000000000815260040160405180910390fd5b8073ffffffffffffffffffffffffffffffffffffffff16610e7b612e41565b73ffffffffffffffffffffffffffffffffffffffff1614158015610ead5750610eab81610ea6612e41565b612af3565b155b15610ee4576040517fcfb3b94200000000000000000000000000000000000000000000000000000000815260040160405180910390fd5b610eef838383613047565b505050565b60125481565b60008060109054906101000a90046fffffffffffffffffffffffffffffffff1660008054906101000a90046fffffffffffffffffffffffffffffffff16036fffffffffffffffffffffffffffffffff16905090565b610f57612e41565b73ffffffffffffffffffffffffffffffffffffffff16610f75612184565b73ffffffffffffffffffffffffffffffffffffffff1614610fcb576040517f08c379a0000000000000000000000000000000000000000000000000000000008152600401610fc290614ef7565b60405180910390fd5b8060108190555050565b610fe08383836130f9565b505050565b6000806000600860008681526020019081526020016000206040518060400160405290816000820160009054906101000a900473ffffffffffffffffffffffffffffffffffffffff1673ffffffffffffffffffffffffffffffffffffffff1673ffffffffffffffffffffffffffffffffffffffff1681526020016000820160149054906101000a90046bffffffffffffffffffffffff166bffffffffffffffffffffffff166bffffffffffffffffffffffff16815250509050600073ffffffffffffffffffffffffffffffffffffffff16816000015173ffffffffffffffffffffffffffffffffffffffff16141561117b5760076040518060400160405290816000820160009054906101000a900473ffffffffffffffffffffffffffffffffffffffff1673ffffffffffffffffffffffffffffffffffffffff1673ffffffffffffffffffffffffffffffffffffffff1681526020016000820160149054906101000a90046bffffffffffffffffffffffff166bffffffffffffffffffffffff166bffffffffffffffffffffffff168152505090505b6000611185613616565b6bffffffffffffffffffffffff1682602001516bffffffffffffffffffffffff16866111b1919061522d565b6111bb91906151fc565b90508160000151819350935050509250929050565b60606015600083815260200190815260200160002060020180546111f390615389565b80601f016020809104026020016040519081016040528092919081815260200182805461121f90615389565b801561126c5780601f106112415761010080835404028352916020019161126c565b820191906000526020600020905b81548152906001019060200180831161124f57829003601f168201915b50505050509050919050565b600061128383611df2565b82106112bb576040517f0ddac30e00000000000000000000000000000000000000000000000000000000815260040160405180910390fd5b60008060009054906101000a90046fffffffffffffffffffffffffffffffff166fffffffffffffffffffffffffffffffff16905060008060005b83811015611473576000600360008381526020019081526020016000206040518060600160405290816000820160009054906101000a900473ffffffffffffffffffffffffffffffffffffffff1673ffffffffffffffffffffffffffffffffffffffff1673ffffffffffffffffffffffffffffffffffffffff1681526020016000820160149054906101000a900467ffffffffffffffff1667ffffffffffffffff1667ffffffffffffffff16815260200160008201601c9054906101000a900460ff16151515158152505090508060400151156113d25750611466565b600073ffffffffffffffffffffffffffffffffffffffff16816000015173ffffffffffffffffffffffffffffffffffffffff161461141257806000015192505b8773ffffffffffffffffffffffffffffffffffffffff168373ffffffffffffffffffffffffffffffffffffffff161415611464578684141561145b578195505050505050611479565b83806001019450505b505b80806001019150506112f5565b50600080fd5b92915050565b60105481565b61148d612e41565b73ffffffffffffffffffffffffffffffffffffffff166114ab612184565b73ffffffffffffffffffffffffffffffffffffffff1614611501576040517f08c379a00000000000000000000000000000000000000000000000000000000081526004016114f890614ef7565b60405180910390fd5b8060156000848152602001908152602001600020600201908051906020019061152b9291906143d3565b505050565b600f5481565b61153e612e41565b73ffffffffffffffffffffffffffffffffffffffff1661155c612184565b73ffffffffffffffffffffffffffffffffffffffff16146115b2576040517f08c379a00000000000000000000000000000000000000000000000000000000081526004016115a990614ef7565b60405180910390fd5b6002600a5414156115f8576040517f08c379a00000000000000000000000000000000000000000000000000000000081526004016115ef90614fb7565b60405180910390fd5b6002600a81905550600047905060008111611648576040517f08c379a000000000000000000000000000000000000000000000000000000000815260040161163f90614f57565b60405180910390fd5b6000601660009054906101000a900473ffffffffffffffffffffffffffffffffffffffff1673ffffffffffffffffffffffffffffffffffffffff166064600a47611692919061522d565b61169c91906151fc565b6040516116a890614d6c565b60006040518083038185875af1925050503d80600081146116e5576040519150601f19603f3d011682016040523d82523d6000602084013e6116ea565b606091505b505090508061172e576040517f08c379a000000000000000000000000000000000000000000000000000000000815260040161172590614f17565b60405180910390fd5b6000601760009054906101000a900473ffffffffffffffffffffffffffffffffffffffff1673ffffffffffffffffffffffffffffffffffffffff166064600547611778919061522d565b61178291906151fc565b60405161178e90614d6c565b60006040518083038185875af1925050503d80600081146117cb576040519150601f19603f3d011682016040523d82523d6000602084013e6117d0565b606091505b5050905080611814576040517f08c379a000000000000000000000000000000000000000000000000000000000815260040161180b90614f97565b60405180910390fd5b60003373ffffffffffffffffffffffffffffffffffffffff164760405161183a90614d6c565b60006040518083038185875af1925050503d8060008114611877576040519150601f19603f3d011682016040523d82523d6000602084013e61187c565b606091505b50509050806118c0576040517f08c379a00000000000000000000000000000000000000000000000000000000081526004016118b790614f37565b60405180910390fd5b505050506001600a81905550565b6118e98383836040518060200160405280600081525061257f565b505050565b6118f6612e41565b73ffffffffffffffffffffffffffffffffffffffff16611914612184565b73ffffffffffffffffffffffffffffffffffffffff161461196a576040517f08c379a000000000000000000000000000000000000000000000000000000000815260040161196190614ef7565b60405180910390fd5b8060118190555050565b61197c612e41565b73ffffffffffffffffffffffffffffffffffffffff1661199a612184565b73ffffffffffffffffffffffffffffffffffffffff16146119f0576040517f08c379a00000000000000000000000000000000000000000000000000000000081526004016119e790614ef7565b60405180910390fd5b6119f8614459565b600f548160000181815250506010548160200181815250508181604001819052508060156000601454815260200190815260200160002060008201518160000155602082015181600101556040820151816002019080519060200190611a5f9291906143d3565b509050506001601360006101000a81548160ff0219169083151502179055506001600b60006101000a81548160ff02191690831515021790555060146000815480929190611aac906153ec565b91905055505050565b611abd612e41565b73ffffffffffffffffffffffffffffffffffffffff16611adb612184565b73ffffffffffffffffffffffffffffffffffffffff1614611b31576040517f08c379a0000000000000000000000000000000000000000000000000000000008152600401611b2890614ef7565b60405180910390fd5b611b776040518060400160405280600e81526020017f746f74616c20737570706c793a20000000000000000000000000000000000000815250611b72610efa565b613620565b601054611b82610efa565b14611bb9576040517f697526e000000000000000000000000000000000000000000000000000000000815260040160405180910390fd5b601360009054906101000a900460ff16611bff576040517fdc8eb7a200000000000000000000000000000000000000000000000000000000815260040160405180910390fd5b601054600f819055508060106000828254611c1a91906151a6565b925050819055506000601360006101000a81548160ff02191690831515021790555050565b60008060008054906101000a90046fffffffffffffffffffffffffffffffff166fffffffffffffffffffffffffffffffff1690506000805b82811015611d78576000600360008381526020019081526020016000206040518060600160405290816000820160009054906101000a900473ffffffffffffffffffffffffffffffffffffffff1673ffffffffffffffffffffffffffffffffffffffff1673ffffffffffffffffffffffffffffffffffffffff1681526020016000820160149054906101000a900467ffffffffffffffff1667ffffffffffffffff1667ffffffffffffffff16815260200160008201601c9054906101000a900460ff16151515158152505090508060400151611d6a5785831415611d615781945050505050611dab565b82806001019350505b508080600101915050611c77565b506040517fa723001c00000000000000000000000000000000000000000000000000000000815260040160405180910390fd5b919050565b601360009054906101000a900460ff1681565b60145481565b600b60009054906101000a900460ff1681565b6000611de7826136bc565b600001519050919050565b60008073ffffffffffffffffffffffffffffffffffffffff168273ffffffffffffffffffffffffffffffffffffffff161415611e5a576040517f8f4eb60400000000000000000000000000000000000000000000000000000000815260040160405180910390fd5b600460008373ffffffffffffffffffffffffffffffffffffffff1673ffffffffffffffffffffffffffffffffffffffff16815260200190815260200160002060000160009054906101000a900467ffffffffffffffff1667ffffffffffffffff169050919050565b611eca612e41565b73ffffffffffffffffffffffffffffffffffffffff16611ee8612184565b73ffffffffffffffffffffffffffffffffffffffff1614611f3e576040517f08c379a0000000000000000000000000000000000000000000000000000000008152600401611f3590614ef7565b60405180910390fd5b611f486000613964565b565b600d8054611f5790615389565b80601f0160208091040260200160405190810160405280929190818152602001828054611f8390615389565b8015611fd05780601f10611fa557610100808354040283529160200191611fd0565b820191906000526020600020905b815481529060010190602001808311611fb357829003601f168201915b505050505081565b601660009054906101000a900473ffffffffffffffffffffffffffffffffffffffff1681565b612006612e41565b73ffffffffffffffffffffffffffffffffffffffff16612024612184565b73ffffffffffffffffffffffffffffffffffffffff161461207a576040517f08c379a000000000000000000000000000000000000000000000000000000000815260040161207190614ef7565b60405180910390fd5b8060128190555050565b6060600061209183611df2565b905060008167ffffffffffffffff8111156120d5577f4e487b7100000000000000000000000000000000000000000000000000000000600052604160045260246000fd5b6040519080825280602002602001820160405280156121035781602001602082028036833780820191505090505b50905060005b828110156121735761211b8582611278565b828281518110612154577f4e487b7100000000000000000000000000000000000000000000000000000000600052603260045260246000fd5b602002602001018181525050808061216b906153ec565b915050612109565b508092505050919050565b60115481565b6000600960009054906101000a900473ffffffffffffffffffffffffffffffffffffffff16905090565b601760009054906101000a900473ffffffffffffffffffffffffffffffffffffffff1681565b6060600280546121e390615389565b80601f016020809104026020016040519081016040528092919081815260200182805461220f90615389565b801561225c5780601f106122315761010080835404028352916020019161225c565b820191906000526020600020905b81548152906001019060200180831161223f57829003601f168201915b5050505050905090565b61226e612184565b73ffffffffffffffffffffffffffffffffffffffff163373ffffffffffffffffffffffffffffffffffffffff16146123a657600b60009054906101000a900460ff16156122e7576040517fab35696f00000000000000000000000000000000000000000000000000000000815260040160405180910390fd5b6000811415612322576040517f2e69f8e800000000000000000000000000000000000000000000000000000000815260040160405180910390fd5b60125481111561235e576040517fa8de21d600000000000000000000000000000000000000000000000000000000815260040160405180910390fd5b8060115461236c919061522d565b3410156123a5576040517f356680b700000000000000000000000000000000000000000000000000000000815260040160405180910390fd5b5b60006123b0610efa565b905060105482826123c191906151a6565b11156123f9576040517f52df9fe500000000000000000000000000000000000000000000000000000000815260040160405180910390fd5b6124033383613a2a565b5050565b61240f612e41565b73ffffffffffffffffffffffffffffffffffffffff168273ffffffffffffffffffffffffffffffffffffffff161415612474576040517fb06307db00000000000000000000000000000000000000000000000000000000815260040160405180910390fd5b8060066000612481612e41565b73ffffffffffffffffffffffffffffffffffffffff1673ffffffffffffffffffffffffffffffffffffffff16815260200190815260200160002060008473ffffffffffffffffffffffffffffffffffffffff1673ffffffffffffffffffffffffffffffffffffffff16815260200190815260200160002060006101000a81548160ff0219169083151502179055508173ffffffffffffffffffffffffffffffffffffffff1661252e612e41565b73ffffffffffffffffffffffffffffffffffffffff167f17307eab39ab6107e8899845ad3d59bd9653f200f220920489ca2b5937696c31836040516125739190614e33565b60405180910390a35050565b61258a8484846130f9565b61259684848484613a48565b6125cc576040517fd1a57ed600000000000000000000000000000000000000000000000000000000815260040160405180910390fd5b50505050565b600c80546125df90615389565b80601f016020809104026020016040519081016040528092919081815260200182805461260b90615389565b80156126585780601f1061262d57610100808354040283529160200191612658565b820191906000526020600020905b81548152906001019060200180831161263b57829003601f168201915b505050505081565b606061266b82612fdf565b6126a1576040517f25dca1e600000000000000000000000000000000000000000000000000000000815260040160405180910390fd5b601360009054906101000a900460ff161580156126c05750600f548210155b1561275757600d80546126d290615389565b80601f01602080910402602001604051908101604052809291908181526020018280546126fe90615389565b801561274b5780601f106127205761010080835404028352916020019161274b565b820191906000526020600020905b81548152906001019060200180831161272e57829003601f168201915b505050505090506128f7565b6000600190505b60145481116128e35760156000828152602001908152602001600020600101548310156128d0576128626040518060400160405280600881526020017f544845205552493a0000000000000000000000000000000000000000000000008152506015600084815260200190815260200160002060020180546127df90615389565b80601f016020809104026020016040519081016040528092919081815260200182805461280b90615389565b80156128585780601f1061282d57610100808354040283529160200191612858565b820191906000526020600020905b81548152906001019060200180831161283b57829003601f168201915b5050505050613bd6565b6015600082815260200190815260200160002060000154836128849190615287565b9250601560008281526020019081526020016000206002016128a584613c72565b600c6040516020016128b993929190614d3b565b6040516020818303038152906040529150506128f7565b80806128db906153ec565b91505061275e565b506040518060200160405280600081525090505b919050565b612904614459565b60156000838152602001908152602001600020604051806060016040529081600082015481526020016001820154815260200160028201805461294690615389565b80601f016020809104026020016040519081016040528092919081815260200182805461297290615389565b80156129bf5780601f10612994576101008083540402835291602001916129bf565b820191906000526020600020905b8154815290600101906020018083116129a257829003601f168201915b5050505050815250509050919050565b600e80546129dc90615389565b80601f0160208091040260200160405190810160405280929190818152602001828054612a0890615389565b8015612a555780601f10612a2a57610100808354040283529160200191612a55565b820191906000526020600020905b815481529060010190602001808311612a3857829003601f168201915b505050505081565b612a65612e41565b73ffffffffffffffffffffffffffffffffffffffff16612a83612184565b73ffffffffffffffffffffffffffffffffffffffff1614612ad9576040517f08c379a0000000000000000000000000000000000000000000000000000000008152600401612ad090614ef7565b60405180910390fd5b80600c9080519060200190612aef9291906143d3565b5050565b6000600660008473ffffffffffffffffffffffffffffffffffffffff1673ffffffffffffffffffffffffffffffffffffffff16815260200190815260200160002060008373ffffffffffffffffffffffffffffffffffffffff1673ffffffffffffffffffffffffffffffffffffffff16815260200190815260200160002060009054906101000a900460ff16905092915050565b612b8f612e41565b73ffffffffffffffffffffffffffffffffffffffff16612bad612184565b73ffffffffffffffffffffffffffffffffffffffff1614612c03576040517f08c379a0000000000000000000000000000000000000000000000000000000008152600401612bfa90614ef7565b60405180910390fd5b80600d9080519060200190612c199291906143d3565b5050565b612c25612e41565b73ffffffffffffffffffffffffffffffffffffffff16612c43612184565b73ffffffffffffffffffffffffffffffffffffffff1614612c99576040517f08c379a0000000000000000000000000000000000000000000000000000000008152600401612c9090614ef7565b60405180910390fd5b600073ffffffffffffffffffffffffffffffffffffffff168173ffffffffffffffffffffffffffffffffffffffff161415612d09576040517f08c379a0000000000000000000000000000000000000000000000000000000008152600401612d0090614ed7565b60405180910390fd5b612d1281613964565b50565b6015602052806000526040600020600091509050806000015490806001015490806002018054612d4490615389565b80601f0160208091040260200160405190810160405280929190818152602001828054612d7090615389565b8015612dbd5780601f10612d9257610100808354040283529160200191612dbd565b820191906000526020600020905b815481529060010190602001808311612da057829003601f168201915b5050505050905083565b60007f2a55205a000000000000000000000000000000000000000000000000000000007bffffffffffffffffffffffffffffffffffffffffffffffffffffffff1916827bffffffffffffffffffffffffffffffffffffffffffffffffffffffff19161480612e3a5750612e3982613e1f565b5b9050919050565b600033905090565b612e51613616565b6bffffffffffffffffffffffff16816bffffffffffffffffffffffff161115612eaf576040517f08c379a0000000000000000000000000000000000000000000000000000000008152600401612ea690614f77565b60405180910390fd5b600073ffffffffffffffffffffffffffffffffffffffff168273ffffffffffffffffffffffffffffffffffffffff161415612f1f576040517f08c379a0000000000000000000000000000000000000000000000000000000008152600401612f1690614fd7565b60405180910390fd5b60405180604001604052808373ffffffffffffffffffffffffffffffffffffffff168152602001826bffffffffffffffffffffffff16815250600760008201518160000160006101000a81548173ffffffffffffffffffffffffffffffffffffffff021916908373ffffffffffffffffffffffffffffffffffffffff16021790555060208201518160000160146101000a8154816bffffffffffffffffffffffff02191690836bffffffffffffffffffffffff1602179055509050505050565b60008060009054906101000a90046fffffffffffffffffffffffffffffffff166fffffffffffffffffffffffffffffffff1682108015613040575060036000838152602001908152602001600020600001601c9054906101000a900460ff16155b9050919050565b826005600084815260200190815260200160002060006101000a81548173ffffffffffffffffffffffffffffffffffffffff021916908373ffffffffffffffffffffffffffffffffffffffff160217905550818373ffffffffffffffffffffffffffffffffffffffff168273ffffffffffffffffffffffffffffffffffffffff167f8c5be1e5ebec7d5bd14f71427d1e84f3dd0314c0f7b2291e5b200ac8c7c3b92560405160405180910390a4505050565b6000613104826136bc565b90506000816000015173ffffffffffffffffffffffffffffffffffffffff1661312b612e41565b73ffffffffffffffffffffffffffffffffffffffff16148061315e575061315d8260000151613158612e41565b612af3565b5b806131a3575061316c612e41565b73ffffffffffffffffffffffffffffffffffffffff1661318b84610d6d565b73ffffffffffffffffffffffffffffffffffffffff16145b9050806131dc576040517f59c896be00000000000000000000000000000000000000000000000000000000815260040160405180910390fd5b8473ffffffffffffffffffffffffffffffffffffffff16826000015173ffffffffffffffffffffffffffffffffffffffff1614613245576040517fa114810000000000000000000000000000000000000000000000000000000000815260040160405180910390fd5b600073ffffffffffffffffffffffffffffffffffffffff168473ffffffffffffffffffffffffffffffffffffffff1614156132ac576040517fea553b3400000000000000000000000000000000000000000000000000000000815260040160405180910390fd5b6132b98585856001613f69565b6132c96000848460000151613047565b6001600460008773ffffffffffffffffffffffffffffffffffffffff1673ffffffffffffffffffffffffffffffffffffffff16815260200190815260200160002060000160008282829054906101000a900467ffffffffffffffff160392506101000a81548167ffffffffffffffff021916908367ffffffffffffffff1602179055506001600460008673ffffffffffffffffffffffffffffffffffffffff1673ffffffffffffffffffffffffffffffffffffffff16815260200190815260200160002060000160008282829054906101000a900467ffffffffffffffff160192506101000a81548167ffffffffffffffff021916908367ffffffffffffffff160217905550836003600085815260200190815260200160002060000160006101000a81548173ffffffffffffffffffffffffffffffffffffffff021916908373ffffffffffffffffffffffffffffffffffffffff160217905550426003600085815260200190815260200160002060000160146101000a81548167ffffffffffffffff021916908367ffffffffffffffff1602179055506000600184019050600073ffffffffffffffffffffffffffffffffffffffff166003600083815260200190815260200160002060000160009054906101000a900473ffffffffffffffffffffffffffffffffffffffff1673ffffffffffffffffffffffffffffffffffffffff1614156135a65760008054906101000a90046fffffffffffffffffffffffffffffffff166fffffffffffffffffffffffffffffffff168110156135a55782600001516003600083815260200190815260200160002060000160006101000a81548173ffffffffffffffffffffffffffffffffffffffff021916908373ffffffffffffffffffffffffffffffffffffffff16021790555082602001516003600083815260200190815260200160002060000160146101000a81548167ffffffffffffffff021916908367ffffffffffffffff1602179055505b5b50828473ffffffffffffffffffffffffffffffffffffffff168673ffffffffffffffffffffffffffffffffffffffff167fddf252ad1be2c89b69c2b068fc378daa952ba7f163c4a11628f55a4df523b3ef60405160405180910390a461360f8585856001613f6f565b5050505050565b6000612710905090565b6136b88282604051602401613636929190614ea7565b6040516020818303038152906040527f9710a9d0000000000000000000000000000000000000000000000000000000007bffffffffffffffffffffffffffffffffffffffffffffffffffffffff19166020820180517bffffffffffffffffffffffffffffffffffffffffffffffffffffffff8381831617835250505050613f75565b5050565b6136c461447a565b600082905060008054906101000a90046fffffffffffffffffffffffffffffffff166fffffffffffffffffffffffffffffffff1681101561392d576000600360008381526020019081526020016000206040518060600160405290816000820160009054906101000a900473ffffffffffffffffffffffffffffffffffffffff1673ffffffffffffffffffffffffffffffffffffffff1673ffffffffffffffffffffffffffffffffffffffff1681526020016000820160149054906101000a900467ffffffffffffffff1667ffffffffffffffff1667ffffffffffffffff16815260200160008201601c9054906101000a900460ff1615151515815250509050806040015161392b57600073ffffffffffffffffffffffffffffffffffffffff16816000015173ffffffffffffffffffffffffffffffffffffffff161461380f57809250505061395f565b5b60011561392a57818060019003925050600360008381526020019081526020016000206040518060600160405290816000820160009054906101000a900473ffffffffffffffffffffffffffffffffffffffff1673ffffffffffffffffffffffffffffffffffffffff1673ffffffffffffffffffffffffffffffffffffffff1681526020016000820160149054906101000a900467ffffffffffffffff1667ffffffffffffffff1667ffffffffffffffff16815260200160008201601c9054906101000a900460ff1615151515815250509050600073ffffffffffffffffffffffffffffffffffffffff16816000015173ffffffffffffffffffffffffffffffffffffffff161461392557809250505061395f565b613810565b5b505b6040517fdf2d9b4200000000000000000000000000000000000000000000000000000000815260040160405180910390fd5b919050565b6000600960009054906101000a900473ffffffffffffffffffffffffffffffffffffffff16905081600960006101000a81548173ffffffffffffffffffffffffffffffffffffffff021916908373ffffffffffffffffffffffffffffffffffffffff1602179055508173ffffffffffffffffffffffffffffffffffffffff168173ffffffffffffffffffffffffffffffffffffffff167f8be0079c531659141344cd1fd0a4f28419497f9722a3daafe3b4186f6b6457e060405160405180910390a35050565b613a44828260405180602001604052806000815250613f9e565b5050565b6000613a698473ffffffffffffffffffffffffffffffffffffffff16613fb0565b15613bc9578373ffffffffffffffffffffffffffffffffffffffff1663150b7a02613a92612e41565b8786866040518563ffffffff1660e01b8152600401613ab49493929190614d9c565b602060405180830381600087803b158015613ace57600080fd5b505af1925050508015613aff57506040513d601f19601f82011682018060405250810190613afc919061485d565b60015b613b79573d8060008114613b2f576040519150601f19603f3d011682016040523d82523d6000602084013e613b34565b606091505b50600081511415613b71576040517fd1a57ed600000000000000000000000000000000000000000000000000000000815260040160405180910390fd5b805181602001fd5b63150b7a0260e01b7bffffffffffffffffffffffffffffffffffffffffffffffffffffffff1916817bffffffffffffffffffffffffffffffffffffffffffffffffffffffff191614915050613bce565b600190505b949350505050565b613c6e8282604051602401613bec929190614e70565b6040516020818303038152906040527f4b5c4277000000000000000000000000000000000000000000000000000000007bffffffffffffffffffffffffffffffffffffffffffffffffffffffff19166020820180517bffffffffffffffffffffffffffffffffffffffffffffffffffffffff8381831617835250505050613f75565b5050565b60606000821415613cba576040518060400160405280600181526020017f30000000000000000000000000000000000000000000000000000000000000008152509050613e1a565b600082905060005b60008214613cec578080613cd5906153ec565b915050600a82613ce591906151fc565b9150613cc2565b60008167ffffffffffffffff811115613d2e577f4e487b7100000000000000000000000000000000000000000000000000000000600052604160045260246000fd5b6040519080825280601f01601f191660200182016040528015613d605781602001600182028036833780820191505090505b5090505b60008514613e1357600182613d799190615287565b9150600a85613d889190615435565b6030613d9491906151a6565b60f81b818381518110613dd0577f4e487b7100000000000000000000000000000000000000000000000000000000600052603260045260246000fd5b60200101907effffffffffffffffffffffffffffffffffffffffffffffffffffffffffffff1916908160001a905350600a85613e0c91906151fc565b9450613d64565b8093505050505b919050565b60007f80ac58cd000000000000000000000000000000000000000000000000000000007bffffffffffffffffffffffffffffffffffffffffffffffffffffffff1916827bffffffffffffffffffffffffffffffffffffffffffffffffffffffff19161480613eea57507f5b5e139f000000000000000000000000000000000000000000000000000000007bffffffffffffffffffffffffffffffffffffffffffffffffffffffff1916827bffffffffffffffffffffffffffffffffffffffffffffffffffffffff1916145b80613f5257507f780e9d63000000000000000000000000000000000000000000000000000000007bffffffffffffffffffffffffffffffffffffffffffffffffffffffff1916827bffffffffffffffffffffffffffffffffffffffffffffffffffffffff1916145b80613f625750613f6182613fd3565b5b9050919050565b50505050565b50505050565b60008151905060006a636f6e736f6c652e6c6f679050602083016000808483855afa5050505050565b613fab838383600161403d565b505050565b6000808273ffffffffffffffffffffffffffffffffffffffff163b119050919050565b60007f01ffc9a7000000000000000000000000000000000000000000000000000000007bffffffffffffffffffffffffffffffffffffffffffffffffffffffff1916827bffffffffffffffffffffffffffffffffffffffffffffffffffffffff1916149050919050565b60008060009054906101000a90046fffffffffffffffffffffffffffffffff166fffffffffffffffffffffffffffffffff169050600073ffffffffffffffffffffffffffffffffffffffff168573ffffffffffffffffffffffffffffffffffffffff1614156140d8576040517f2e07630000000000000000000000000000000000000000000000000000000000815260040160405180910390fd5b6000841415614113576040517fb562e8dd00000000000000000000000000000000000000000000000000000000815260040160405180910390fd5b6141206000868387613f69565b83600460008773ffffffffffffffffffffffffffffffffffffffff1673ffffffffffffffffffffffffffffffffffffffff16815260200190815260200160002060000160008282829054906101000a900467ffffffffffffffff160192506101000a81548167ffffffffffffffff021916908367ffffffffffffffff16021790555083600460008773ffffffffffffffffffffffffffffffffffffffff1673ffffffffffffffffffffffffffffffffffffffff16815260200190815260200160002060000160088282829054906101000a900467ffffffffffffffff160192506101000a81548167ffffffffffffffff021916908367ffffffffffffffff160217905550846003600083815260200190815260200160002060000160006101000a81548173ffffffffffffffffffffffffffffffffffffffff021916908373ffffffffffffffffffffffffffffffffffffffff160217905550426003600083815260200190815260200160002060000160146101000a81548167ffffffffffffffff021916908367ffffffffffffffff160217905550600081905060005b8581101561438557818773ffffffffffffffffffffffffffffffffffffffff16600073ffffffffffffffffffffffffffffffffffffffff167fddf252ad1be2c89b69c2b068fc378daa952ba7f163c4a11628f55a4df523b3ef60405160405180910390a483801561433957506143376000888488613a48565b155b15614370576040517fd1a57ed600000000000000000000000000000000000000000000000000000000815260040160405180910390fd5b818060010192505080806001019150506142be565b50806000806101000a8154816fffffffffffffffffffffffffffffffff02191690836fffffffffffffffffffffffffffffffff160217905550506143cc6000868387613f6f565b5050505050565b8280546143df90615389565b90600052602060002090601f0160209004810192826144015760008555614448565b82601f1061441a57805160ff1916838001178555614448565b82800160010185558215614448579182015b8281111561444757825182559160200191906001019061442c565b5b50905061445591906144bd565b5090565b60405180606001604052806000815260200160008152602001606081525090565b6040518060600160405280600073ffffffffffffffffffffffffffffffffffffffff168152602001600067ffffffffffffffff1681526020016000151581525090565b5b808211156144d65760008160009055506001016144be565b5090565b60006144ed6144e884615097565b615072565b90508281526020810184848401111561450557600080fd5b614510848285615347565b509392505050565b600061452b614526846150c8565b615072565b90508281526020810184848401111561454357600080fd5b61454e848285615347565b509392505050565b600081359050614565816156f3565b92915050565b60008135905061457a8161570a565b92915050565b60008135905061458f81615721565b92915050565b6000815190506145a481615721565b92915050565b600082601f8301126145bb57600080fd5b81356145cb8482602086016144da565b91505092915050565b600082601f8301126145e557600080fd5b81356145f5848260208601614518565b91505092915050565b60008135905061460d81615738565b92915050565b6000813590506146228161574f565b92915050565b60006020828403121561463a57600080fd5b600061464884828501614556565b91505092915050565b6000806040838503121561466457600080fd5b600061467285828601614556565b925050602061468385828601614556565b9150509250929050565b6000806000606084860312156146a257600080fd5b60006146b086828701614556565b93505060206146c186828701614556565b92505060406146d2868287016145fe565b9150509250925092565b600080600080608085870312156146f257600080fd5b600061470087828801614556565b945050602061471187828801614556565b9350506040614722878288016145fe565b925050606085013567ffffffffffffffff81111561473f57600080fd5b61474b878288016145aa565b91505092959194509250565b6000806040838503121561476a57600080fd5b600061477885828601614556565b92505060206147898582860161456b565b9150509250929050565b600080604083850312156147a657600080fd5b60006147b485828601614556565b92505060206147c5858286016145fe565b9150509250929050565b600080604083850312156147e257600080fd5b60006147f085828601614556565b925050602061480185828601614613565b9150509250929050565b60006020828403121561481d57600080fd5b600061482b8482850161456b565b91505092915050565b60006020828403121561484657600080fd5b600061485484828501614580565b91505092915050565b60006020828403121561486f57600080fd5b600061487d84828501614595565b91505092915050565b60006020828403121561489857600080fd5b600082013567ffffffffffffffff8111156148b257600080fd5b6148be848285016145d4565b91505092915050565b6000602082840312156148d957600080fd5b60006148e7848285016145fe565b91505092915050565b6000806040838503121561490357600080fd5b6000614911858286016145fe565b925050602083013567ffffffffffffffff81111561492e57600080fd5b61493a858286016145d4565b9150509250929050565b6000806040838503121561495757600080fd5b6000614965858286016145fe565b9250506020614976858286016145fe565b9150509250929050565b600061498c8383614d1d565b60208301905092915050565b6149a1816152bb565b82525050565b60006149b28261511e565b6149bc818561514c565b93506149c7836150f9565b8060005b838110156149f85781516149df8882614980565b97506149ea8361513f565b9250506001810190506149cb565b5085935050505092915050565b614a0e816152cd565b82525050565b6000614a1f82615129565b614a29818561515d565b9350614a39818560208601615356565b614a4281615522565b840191505092915050565b6000614a5882615134565b614a628185615179565b9350614a72818560208601615356565b614a7b81615522565b840191505092915050565b6000614a9182615134565b614a9b818561518a565b9350614aab818560208601615356565b614ab481615522565b840191505092915050565b6000614aca82615134565b614ad4818561519b565b9350614ae4818560208601615356565b80840191505092915050565b60008154614afd81615389565b614b07818661519b565b94506001821660008114614b225760018114614b3357614b66565b60ff19831686528186019350614b66565b614b3c85615109565b60005b83811015614b5e57815481890152600182019150602081019050614b3f565b838801955050505b50505092915050565b6000614b7c60268361518a565b9150614b8782615533565b604082019050919050565b6000614b9f60208361518a565b9150614baa82615582565b602082019050919050565b6000614bc260188361518a565b9150614bcd826155ab565b602082019050919050565b6000614be560008361516e565b9150614bf0826155d4565b600082019050919050565b6000614c0860108361518a565b9150614c13826155d7565b602082019050919050565b6000614c2b601a8361518a565b9150614c3682615600565b602082019050919050565b6000614c4e602a8361518a565b9150614c5982615629565b604082019050919050565b6000614c71601a8361518a565b9150614c7c82615678565b602082019050919050565b6000614c94601f8361518a565b9150614c9f826156a1565b602082019050919050565b6000614cb760198361518a565b9150614cc2826156ca565b602082019050919050565b6000606083016000830151614ce56000860182614d1d565b506020830151614cf86020860182614d1d565b5060408301518482036040860152614d108282614a4d565b9150508091505092915050565b614d2681615325565b82525050565b614d3581615325565b82525050565b6000614d478286614af0565b9150614d538285614abf565b9150614d5f8284614af0565b9150819050949350505050565b6000614d7782614bd8565b9150819050919050565b6000602082019050614d966000830184614998565b92915050565b6000608082019050614db16000830187614998565b614dbe6020830186614998565b614dcb6040830185614d2c565b8181036060830152614ddd8184614a14565b905095945050505050565b6000604082019050614dfd6000830185614998565b614e0a6020830184614d2c565b9392505050565b60006020820190508181036000830152614e2b81846149a7565b905092915050565b6000602082019050614e486000830184614a05565b92915050565b60006020820190508181036000830152614e688184614a86565b905092915050565b60006040820190508181036000830152614e8a8185614a86565b90508181036020830152614e9e8184614a86565b90509392505050565b60006040820190508181036000830152614ec18185614a86565b9050614ed06020830184614d2c565b9392505050565b60006020820190508181036000830152614ef081614b6f565b9050919050565b60006020820190508181036000830152614f1081614b92565b9050919050565b60006020820190508181036000830152614f3081614bb5565b9050919050565b60006020820190508181036000830152614f5081614bfb565b9050919050565b60006020820190508181036000830152614f7081614c1e565b9050919050565b60006020820190508181036000830152614f9081614c41565b9050919050565b60006020820190508181036000830152614fb081614c64565b9050919050565b60006020820190508181036000830152614fd081614c87565b9050919050565b60006020820190508181036000830152614ff081614caa565b9050919050565b600060208201905081810360008301526150118184614ccd565b905092915050565b600060208201905061502e6000830184614d2c565b92915050565b60006060820190506150496000830186614d2c565b6150566020830185614d2c565b81810360408301526150688184614a86565b9050949350505050565b600061507c61508d565b905061508882826153bb565b919050565b6000604051905090565b600067ffffffffffffffff8211156150b2576150b16154f3565b5b6150bb82615522565b9050602081019050919050565b600067ffffffffffffffff8211156150e3576150e26154f3565b5b6150ec82615522565b9050602081019050919050565b6000819050602082019050919050565b60008190508160005260206000209050919050565b600081519050919050565b600081519050919050565b600081519050919050565b6000602082019050919050565b600082825260208201905092915050565b600082825260208201905092915050565b600081905092915050565b600082825260208201905092915050565b600082825260208201905092915050565b600081905092915050565b60006151b182615325565b91506151bc83615325565b9250827fffffffffffffffffffffffffffffffffffffffffffffffffffffffffffffffff038211156151f1576151f0615466565b5b828201905092915050565b600061520782615325565b915061521283615325565b92508261522257615221615495565b5b828204905092915050565b600061523882615325565b915061524383615325565b9250817fffffffffffffffffffffffffffffffffffffffffffffffffffffffffffffffff048311821515161561527c5761527b615466565b5b828202905092915050565b600061529282615325565b915061529d83615325565b9250828210156152b0576152af615466565b5b828203905092915050565b60006152c682615305565b9050919050565b60008115159050919050565b60007fffffffff0000000000000000000000000000000000000000000000000000000082169050919050565b600073ffffffffffffffffffffffffffffffffffffffff82169050919050565b6000819050919050565b60006bffffffffffffffffffffffff82169050919050565b82818337600083830152505050565b60005b83811015615374578082015181840152602081019050615359565b83811115615383576000848401525b50505050565b600060028204905060018216806153a157607f821691505b602082108114156153b5576153b46154c4565b5b50919050565b6153c482615522565b810181811067ffffffffffffffff821117156153e3576153e26154f3565b5b80604052505050565b60006153f782615325565b91507fffffffffffffffffffffffffffffffffffffffffffffffffffffffffffffffff82141561542a57615429615466565b5b600182019050919050565b600061544082615325565b915061544b83615325565b92508261545b5761545a615495565b5b828206905092915050565b7f4e487b7100000000000000000000000000000000000000000000000000000000600052601160045260246000fd5b7f4e487b7100000000000000000000000000000000000000000000000000000000600052601260045260246000fd5b7f4e487b7100000000000000000000000000000000000000000000000000000000600052602260045260246000fd5b7f4e487b7100000000000000000000000000000000000000000000000000000000600052604160045260246000fd5b6000601f19601f8301169050919050565b7f4f776e61626c653a206e6577206f776e657220697320746865207a65726f206160008201527f6464726573730000000000000000000000000000000000000000000000000000602082015250565b7f4f776e61626c653a2063616c6c6572206973206e6f7420746865206f776e6572600082015250565b7f43686172697479205472616e73666572206661696c65642e0000000000000000600082015250565b50565b7f5472616e73666572206661696c65642e00000000000000000000000000000000600082015250565b7f4e6f206574686572206c65667420746f2077697468647261772e000000000000600082015250565b7f455243323938313a20726f79616c7479206665652077696c6c2065786365656460008201527f2073616c65507269636500000000000000000000000000000000000000000000602082015250565b7f446576656c6f706572205472616e73666572206661696c65642e000000000000600082015250565b7f5265656e7472616e637947756172643a207265656e7472616e742063616c6c00600082015250565b7f455243323938313a20696e76616c696420726563656976657200000000000000600082015250565b6156fc816152bb565b811461570757600080fd5b50565b615713816152cd565b811461571e57600080fd5b50565b61572a816152d9565b811461573557600080fd5b50565b61574181615325565b811461574c57600080fd5b50565b6157588161532f565b811461576357600080fd5b5056fea26469706673582212200e0a0e844d473fbdc3f90e20f07e59a5282e47adcbd9605f0fb907b858e3c15f64736f6c63430008040033",
  "linkReferences": {},
  "deployedLinkReferences": {}
}