{
  "_format": "hh-sol-artifact-1",
  "contractName": "ResearchFundingClubFast",
  "sourceName": "contracts/ResearchFundingClubFast.sol",
  "abi": [
    {
      "inputs": [
        {
          "internalType": "uint96",
          "name": "_royaltyFeesInBips",
          "type": "uint96"
        },
        {
          "internalType": "string",
          "name": "_notRevealedURI",
          "type": "string"
        }
      ],
      "stateMutability": "nonpayable",
      "type": "constructor"
    },
    {
      "inputs": [],
      "name": "ApprovalCallerNotOwnerNorApproved",
      "type": "error"
    },
    {
      "inputs": [],
      "name": "ApprovalQueryForNonexistentToken",
      "type": "error"
    },
    {
      "inputs": [],
      "name": "ApprovalToCurrentOwner",
      "type": "error"
    },
    {
      "inputs": [],
      "name": "ApproveToCaller",
      "type": "error"
    },
    {
      "inputs": [],
      "name": "BalanceQueryForZeroAddress",
      "type": "error"
    },
    {
      "inputs": [],
      "name": "CollectionNotRevealedYet",
      "type": "error"
    },
    {
      "inputs": [],
      "name": "ContractPaused",
      "type": "error"
    },
    {
      "inputs": [],
      "name": "InsufficientFunds",
      "type": "error"
    },
    {
      "inputs": [],
      "name": "MaxPerNFTAddrExceeded",
      "type": "error"
    },
    {
      "inputs": [],
      "name": "MintToZeroAddress",
      "type": "error"
    },
    {
      "inputs": [],
      "name": "MintZeroQuantity",
      "type": "error"
    },
    {
      "inputs": [],
      "name": "OwnerIndexOutOfBounds",
      "type": "error"
    },
    {
      "inputs": [],
      "name": "OwnerQueryForNonexistentToken",
      "type": "error"
    },
    {
      "inputs": [],
      "name": "SaleIncomplete",
      "type": "error"
    },
    {
      "inputs": [],
      "name": "SoldOut",
      "type": "error"
    },
    {
      "inputs": [],
      "name": "TokenIndexOutOfBounds",
      "type": "error"
    },
    {
      "inputs": [],
      "name": "TransferCallerNotOwnerNorApproved",
      "type": "error"
    },
    {
      "inputs": [],
      "name": "TransferFromIncorrectOwner",
      "type": "error"
    },
    {
      "inputs": [],
      "name": "TransferToNonERC721ReceiverImplementer",
      "type": "error"
    },
    {
      "inputs": [],
      "name": "TransferToZeroAddress",
      "type": "error"
    },
    {
      "inputs": [],
      "name": "URIQueryForNonexistentTokenRFC",
      "type": "error"
    },
    {
      "inputs": [],
      "name": "ZeroMintFailed",
      "type": "error"
    },
    {
      "anonymous": false,
      "inputs": [
        {
          "indexed": true,
          "internalType": "address",
          "name": "owner",
          "type": "address"
        },
        {
          "indexed": true,
          "internalType": "address",
          "name": "approved",
          "type": "address"
        },
        {
          "indexed": true,
          "internalType": "uint256",
          "name": "tokenId",
          "type": "uint256"
        }
      ],
      "name": "Approval",
      "type": "event"
    },
    {
      "anonymous": false,
      "inputs": [
        {
          "indexed": true,
          "internalType": "address",
          "name": "owner",
          "type": "address"
        },
        {
          "indexed": true,
          "internalType": "address",
          "name": "operator",
          "type": "address"
        },
        {
          "indexed": false,
          "internalType": "bool",
          "name": "approved",
          "type": "bool"
        }
      ],
      "name": "ApprovalForAll",
      "type": "event"
    },
    {
      "anonymous": false,
      "inputs": [
        {
          "indexed": true,
          "internalType": "address",
          "name": "previousOwner",
          "type": "address"
        },
        {
          "indexed": true,
          "internalType": "address",
          "name": "newOwner",
          "type": "address"
        }
      ],
      "name": "OwnershipTransferred",
      "type": "event"
    },
    {
      "anonymous": false,
      "inputs": [
        {
          "indexed": true,
          "internalType": "address",
          "name": "from",
          "type": "address"
        },
        {
          "indexed": true,
          "internalType": "address",
          "name": "to",
          "type": "address"
        },
        {
          "indexed": true,
          "internalType": "uint256",
          "name": "tokenId",
          "type": "uint256"
        }
      ],
      "name": "Transfer",
      "type": "event"
    },
    {
      "inputs": [],
      "name": "MAX_PER_MINT",
      "outputs": [
        {
          "internalType": "uint256",
          "name": "",
          "type": "uint256"
        }
      ],
      "stateMutability": "view",
      "type": "function"
    },
    {
      "inputs": [],
      "name": "MAX_SUPPLY",
      "outputs": [
        {
          "internalType": "uint256",
          "name": "",
          "type": "uint256"
        }
      ],
      "stateMutability": "view",
      "type": "function"
    },
    {
      "inputs": [],
      "name": "MIN_SUPPLY",
      "outputs": [
        {
          "internalType": "uint256",
          "name": "",
          "type": "uint256"
        }
      ],
      "stateMutability": "view",
      "type": "function"
    },
    {
      "inputs": [],
      "name": "PRICE",
      "outputs": [
        {
          "internalType": "uint256",
          "name": "",
          "type": "uint256"
        }
      ],
      "stateMutability": "view",
      "type": "function"
    },
    {
      "inputs": [
        {
          "internalType": "address",
          "name": "to",
          "type": "address"
        },
        {
          "internalType": "uint256",
          "name": "tokenId",
          "type": "uint256"
        }
      ],
      "name": "approve",
      "outputs": [],
      "stateMutability": "nonpayable",
      "type": "function"
    },
    {
      "inputs": [
        {
          "internalType": "address",
          "name": "owner",
          "type": "address"
        }
      ],
      "name": "balanceOf",
      "outputs": [
        {
          "internalType": "uint256",
          "name": "",
          "type": "uint256"
        }
      ],
      "stateMutability": "view",
      "type": "function"
    },
    {
      "inputs": [],
      "name": "baseExtension",
      "outputs": [
        {
          "internalType": "string",
          "name": "",
          "type": "string"
        }
      ],
      "stateMutability": "view",
      "type": "function"
    },
    {
      "inputs": [],
      "name": "baseTokenURI",
      "outputs": [
        {
          "internalType": "string",
          "name": "",
          "type": "string"
        }
      ],
      "stateMutability": "view",
      "type": "function"
    },
    {
      "inputs": [
        {
          "internalType": "uint256",
          "name": "_collectionID",
          "type": "uint256"
        }
      ],
      "name": "baseURI",
      "outputs": [
        {
          "internalType": "string",
          "name": "",
          "type": "string"
        }
      ],
      "stateMutability": "view",
      "type": "function"
    },
    {
      "inputs": [],
      "name": "charityWallet",
      "outputs": [
        {
          "internalType": "address",
          "name": "",
          "type": "address"
        }
      ],
      "stateMutability": "view",
      "type": "function"
    },
    {
      "inputs": [],
      "name": "collectionID",
      "outputs": [
        {
          "internalType": "uint256",
          "name": "",
          "type": "uint256"
        }
      ],
      "stateMutability": "view",
      "type": "function"
    },
    {
      "inputs": [
        {
          "internalType": "uint256",
          "name": "",
          "type": "uint256"
        }
      ],
      "name": "collections",
      "outputs": [
        {
          "internalType": "uint256",
          "name": "minSupply",
          "type": "uint256"
        },
        {
          "internalType": "uint256",
          "name": "maxSupply",
          "type": "uint256"
        },
        {
          "internalType": "string",
          "name": "baseURI",
          "type": "string"
        }
      ],
      "stateMutability": "view",
      "type": "function"
    },
    {
      "inputs": [],
      "name": "devWallet",
      "outputs": [
        {
          "internalType": "address",
          "name": "",
          "type": "address"
        }
      ],
      "stateMutability": "view",
      "type": "function"
    },
    {
      "inputs": [
        {
          "internalType": "uint256",
          "name": "tokenId",
          "type": "uint256"
        }
      ],
      "name": "getApproved",
      "outputs": [
        {
          "internalType": "address",
          "name": "",
          "type": "address"
        }
      ],
      "stateMutability": "view",
      "type": "function"
    },
    {
      "inputs": [
        {
          "internalType": "uint256",
          "name": "_id",
          "type": "uint256"
        }
      ],
      "name": "getCollectionInfo",
      "outputs": [
        {
          "components": [
            {
              "internalType": "uint256",
              "name": "minSupply",
              "type": "uint256"
            },
            {
              "internalType": "uint256",
              "name": "maxSupply",
              "type": "uint256"
            },
            {
              "internalType": "string",
              "name": "baseURI",
              "type": "string"
            }
          ],
          "internalType": "struct ResearchFundingClubFast.CollectionData",
          "name": "",
          "type": "tuple"
        }
      ],
      "stateMutability": "view",
      "type": "function"
    },
    {
      "inputs": [
        {
          "internalType": "address",
          "name": "owner",
          "type": "address"
        },
        {
          "internalType": "address",
          "name": "operator",
          "type": "address"
        }
      ],
      "name": "isApprovedForAll",
      "outputs": [
        {
          "internalType": "bool",
          "name": "",
          "type": "bool"
        }
      ],
      "stateMutability": "view",
      "type": "function"
    },
    {
      "inputs": [
        {
          "internalType": "uint256",
          "name": "_mintAmount",
          "type": "uint256"
        }
      ],
      "name": "mint",
      "outputs": [],
      "stateMutability": "payable",
      "type": "function"
    },
    {
      "inputs": [],
      "name": "name",
      "outputs": [
        {
          "internalType": "string",
          "name": "",
          "type": "string"
        }
      ],
      "stateMutability": "view",
      "type": "function"
    },
    {
      "inputs": [
        {
          "internalType": "uint256",
          "name": "_newMaxSupply",
          "type": "uint256"
        }
      ],
      "name": "newDrop",
      "outputs": [],
      "stateMutability": "nonpayable",
      "type": "function"
    },
    {
      "inputs": [],
      "name": "notRevealedURI",
      "outputs": [
        {
          "internalType": "string",
          "name": "",
          "type": "string"
        }
      ],
      "stateMutability": "view",
      "type": "function"
    },
    {
      "inputs": [],
      "name": "owner",
      "outputs": [
        {
          "internalType": "address",
          "name": "",
          "type": "address"
        }
      ],
      "stateMutability": "view",
      "type": "function"
    },
    {
      "inputs": [
        {
          "internalType": "uint256",
          "name": "tokenId",
          "type": "uint256"
        }
      ],
      "name": "ownerOf",
      "outputs": [
        {
          "internalType": "address",
          "name": "",
          "type": "address"
        }
      ],
      "stateMutability": "view",
      "type": "function"
    },
    {
      "inputs": [
        {
          "internalType": "bool",
          "name": "_state",
          "type": "bool"
        }
      ],
      "name": "pause",
      "outputs": [],
      "stateMutability": "nonpayable",
      "type": "function"
    },
    {
      "inputs": [],
      "name": "paused",
      "outputs": [
        {
          "internalType": "bool",
          "name": "",
          "type": "bool"
        }
      ],
      "stateMutability": "view",
      "type": "function"
    },
    {
      "inputs": [],
      "name": "renounceOwnership",
      "outputs": [],
      "stateMutability": "nonpayable",
      "type": "function"
    },
    {
      "inputs": [
        {
          "internalType": "string",
          "name": "_newBaseURI",
          "type": "string"
        }
      ],
      "name": "reveal",
      "outputs": [],
      "stateMutability": "nonpayable",
      "type": "function"
    },
    {
      "inputs": [],
      "name": "revealed",
      "outputs": [
        {
          "internalType": "bool",
          "name": "",
          "type": "bool"
        }
      ],
      "stateMutability": "view",
      "type": "function"
    },
    {
      "inputs": [
        {
          "internalType": "uint256",
          "name": "_tokenId",
          "type": "uint256"
        },
        {
          "internalType": "uint256",
          "name": "_salePrice",
          "type": "uint256"
        }
      ],
      "name": "royaltyInfo",
      "outputs": [
        {
          "internalType": "address",
          "name": "",
          "type": "address"
        },
        {
          "internalType": "uint256",
          "name": "",
          "type": "uint256"
        }
      ],
      "stateMutability": "view",
      "type": "function"
    },
    {
      "inputs": [
        {
          "internalType": "address",
          "name": "from",
          "type": "address"
        },
        {
          "internalType": "address",
          "name": "to",
          "type": "address"
        },
        {
          "internalType": "uint256",
          "name": "tokenId",
          "type": "uint256"
        }
      ],
      "name": "safeTransferFrom",
      "outputs": [],
      "stateMutability": "nonpayable",
      "type": "function"
    },
    {
      "inputs": [
        {
          "internalType": "address",
          "name": "from",
          "type": "address"
        },
        {
          "internalType": "address",
          "name": "to",
          "type": "address"
        },
        {
          "internalType": "uint256",
          "name": "tokenId",
          "type": "uint256"
        },
        {
          "internalType": "bytes",
          "name": "_data",
          "type": "bytes"
        }
      ],
      "name": "safeTransferFrom",
      "outputs": [],
      "stateMutability": "nonpayable",
      "type": "function"
    },
    {
      "inputs": [
        {
          "internalType": "address",
          "name": "operator",
          "type": "address"
        },
        {
          "internalType": "bool",
          "name": "approved",
          "type": "bool"
        }
      ],
      "name": "setApprovalForAll",
      "outputs": [],
      "stateMutability": "nonpayable",
      "type": "function"
    },
    {
      "inputs": [
        {
          "internalType": "string",
          "name": "_newBaseExtension",
          "type": "string"
        }
      ],
      "name": "setBaseExtension",
      "outputs": [],
      "stateMutability": "nonpayable",
      "type": "function"
    },
    {
      "inputs": [
        {
          "internalType": "uint256",
          "name": "_collectionID",
          "type": "uint256"
        },
        {
          "internalType": "string",
          "name": "_baseTokenURI",
          "type": "string"
        }
      ],
      "name": "setBaseURI",
      "outputs": [],
      "stateMutability": "nonpayable",
      "type": "function"
    },
    {
      "inputs": [
        {
          "internalType": "uint256",
          "name": "_newCost",
          "type": "uint256"
        }
      ],
      "name": "setCost",
      "outputs": [],
      "stateMutability": "nonpayable",
      "type": "function"
    },
    {
      "inputs": [
        {
          "internalType": "string",
          "name": "_notRevealedURI",
          "type": "string"
        }
      ],
      "name": "setNotRevealedURI",
      "outputs": [],
      "stateMutability": "nonpayable",
      "type": "function"
    },
    {
      "inputs": [
        {
          "internalType": "address",
          "name": "_receiver",
          "type": "address"
        },
        {
          "internalType": "uint96",
          "name": "_royaltyFeesInBips",
          "type": "uint96"
        }
      ],
      "name": "setRoyaltyInfo",
      "outputs": [],
      "stateMutability": "nonpayable",
      "type": "function"
    },
    {
      "inputs": [
        {
          "internalType": "uint256",
          "name": "_limit",
          "type": "uint256"
        }
      ],
      "name": "setmaxMintAmount",
      "outputs": [],
      "stateMutability": "nonpayable",
      "type": "function"
    },
    {
      "inputs": [
        {
          "internalType": "uint256",
          "name": "_limit",
          "type": "uint256"
        }
      ],
      "name": "setmaxSupply",
      "outputs": [],
      "stateMutability": "nonpayable",
      "type": "function"
    },
    {
      "inputs": [
        {
          "internalType": "bytes4",
          "name": "interfaceId",
          "type": "bytes4"
        }
      ],
      "name": "supportsInterface",
      "outputs": [
        {
          "internalType": "bool",
          "name": "",
          "type": "bool"
        }
      ],
      "stateMutability": "view",
      "type": "function"
    },
    {
      "inputs": [],
      "name": "symbol",
      "outputs": [
        {
          "internalType": "string",
          "name": "",
          "type": "string"
        }
      ],
      "stateMutability": "view",
      "type": "function"
    },
    {
      "inputs": [
        {
          "internalType": "uint256",
          "name": "index",
          "type": "uint256"
        }
      ],
      "name": "tokenByIndex",
      "outputs": [
        {
          "internalType": "uint256",
          "name": "",
          "type": "uint256"
        }
      ],
      "stateMutability": "view",
      "type": "function"
    },
    {
      "inputs": [
        {
          "internalType": "address",
          "name": "owner",
          "type": "address"
        },
        {
          "internalType": "uint256",
          "name": "index",
          "type": "uint256"
        }
      ],
      "name": "tokenOfOwnerByIndex",
      "outputs": [
        {
          "internalType": "uint256",
          "name": "",
          "type": "uint256"
        }
      ],
      "stateMutability": "view",
      "type": "function"
    },
    {
      "inputs": [
        {
          "internalType": "uint256",
          "name": "tokenId",
          "type": "uint256"
        }
      ],
      "name": "tokenURI",
      "outputs": [
        {
          "internalType": "string",
          "name": "",
          "type": "string"
        }
      ],
      "stateMutability": "view",
      "type": "function"
    },
    {
      "inputs": [
        {
          "internalType": "address",
          "name": "_owner",
          "type": "address"
        }
      ],
      "name": "tokensOfOwner",
      "outputs": [
        {
          "internalType": "uint256[]",
          "name": "",
          "type": "uint256[]"
        }
      ],
      "stateMutability": "view",
      "type": "function"
    },
    {
      "inputs": [],
      "name": "totalSupply",
      "outputs": [
        {
          "internalType": "uint256",
          "name": "",
          "type": "uint256"
        }
      ],
      "stateMutability": "view",
      "type": "function"
    },
    {
      "inputs": [
        {
          "internalType": "address",
          "name": "from",
          "type": "address"
        },
        {
          "internalType": "address",
          "name": "to",
          "type": "address"
        },
        {
          "internalType": "uint256",
          "name": "tokenId",
          "type": "uint256"
        }
      ],
      "name": "transferFrom",
      "outputs": [],
      "stateMutability": "nonpayable",
      "type": "function"
    },
    {
      "inputs": [
        {
          "internalType": "address",
          "name": "newOwner",
          "type": "address"
        }
      ],
      "name": "transferOwnership",
      "outputs": [],
      "stateMutability": "nonpayable",
      "type": "function"
    },
    {
      "inputs": [],
      "name": "withdraw",
      "outputs": [],
      "stateMutability": "nonpayable",
      "type": "function"
    }
  ],
  "bytecode": "0x600b805460ff1916600117905560c06040526005608081905264173539b7b760d91b60a09081526200003591600c91906200035e565b506000600f55600a60105564174876e800601155600160128190556013805460ff19169055601455601680546001600160a01b031990811673f9351cfab08d72e873424708a817a067fa33f45f17909155601780549091167381e3cba331c2036044a62b54524a44d319d0e1ae179055348015620000b257600080fd5b506040516200362b3803806200362b833981016040819052620000d59162000404565b604080518082018252601581527f52657365617263682046756e64696e6720436c7562000000000000000000000060208083019182528351808501909452600384526252464360e81b90840152815191929162000135916001916200035e565b5080516200014b9060029060208401906200035e565b50505062000168620001626200019760201b60201c565b6200019b565b6001600a55620001793383620001ed565b80516200018e90600d9060208401906200035e565b50505062000557565b3390565b600980546001600160a01b038381166001600160a01b0319831681179093556040519116919082907f8be0079c531659141344cd1fd0a4f28419497f9722a3daafe3b4186f6b6457e090600090a35050565b6009546001600160a01b031633146200024d5760405162461bcd60e51b815260206004820181905260248201527f4f776e61626c653a2063616c6c6572206973206e6f7420746865206f776e657260448201526064015b60405180910390fd5b6200025982826200025d565b5050565b6127106001600160601b0382161115620002cd5760405162461bcd60e51b815260206004820152602a60248201527f455243323938313a20726f79616c7479206665652077696c6c206578636565646044820152692073616c65507269636560b01b606482015260840162000244565b6001600160a01b038216620003255760405162461bcd60e51b815260206004820152601960248201527f455243323938313a20696e76616c696420726563656976657200000000000000604482015260640162000244565b604080518082019091526001600160a01b039092168083526001600160601b039091166020909201829052600160a01b90910217600755565b8280546200036c9062000504565b90600052602060002090601f016020900481019282620003905760008555620003db565b82601f10620003ab57805160ff1916838001178555620003db565b82800160010185558215620003db579182015b82811115620003db578251825591602001919060010190620003be565b50620003e9929150620003ed565b5090565b5b80821115620003e95760008155600101620003ee565b600080604083850312156200041857600080fd5b82516001600160601b03811681146200043057600080fd5b602084810151919350906001600160401b03808211156200045057600080fd5b818601915086601f8301126200046557600080fd5b8151818111156200047a576200047a62000541565b604051601f8201601f19908116603f01168101908382118183101715620004a557620004a562000541565b816040528281528986848701011115620004be57600080fd5b600093505b82841015620004e25784840186015181850187015292850192620004c3565b82841115620004f45760008684830101525b8096505050505050509250929050565b600181811c908216806200051957607f821691505b602082108114156200053b57634e487b7160e01b600052602260045260246000fd5b50919050565b634e487b7160e01b600052604160045260246000fd5b6130c480620005676000396000f3fe6080604052600436106103135760003560e01c80635c975abb1161019a578063a0712d68116100e1578063d547cfb71161008a578063f2c4ce1e11610064578063f2c4ce1e146108d9578063f2fde38b146108f9578063fdbda0ec1461091957600080fd5b8063d547cfb71461085b578063da3ef23f14610870578063e985e9c51461089057600080fd5b8063c6682862116100bb578063c6682862146107f9578063c87b56dd1461080e578063d4e4d3dd1461082e57600080fd5b8063a0712d68146107a6578063a22cb465146107b9578063b88d4fde146107d957600080fd5b80637f00c7a6116101435780638da5cb5b1161011d5780638da5cb5b146107535780638ea5220f1461077157806395d89b411461079157600080fd5b80637f00c7a6146106f05780638462151c146107105780638d859f3e1461073d57600080fd5b8063715018a611610174578063715018a6146106a657806372250380146106bb5780637b208769146106d057600080fd5b80635c975abb1461064c5780636352211e1461066657806370a082311461068657600080fd5b80632f745c591161025e57806344a0d68a116102075780634f6ccce7116101e15780634f6ccce7146105fc578063518302271461061c57806358b33e691461063657600080fd5b806344a0d68a1461059c5780634c261247146105bc5780634c29bcf0146105dc57600080fd5b806335917c641161023857806335917c64146105515780633ccfd60b1461056757806342842e0e1461057c57600080fd5b80632f745c59146104fb57806332cb6b0c1461051b57806333cfcb9f1461053157600080fd5b806309d42b30116102c057806323b872dd1161029a57806323b872dd1461047c5780632a55205a1461049c5780632ccde4f6146104db57600080fd5b806309d42b301461040957806318160ddd1461042d578063228025e81461045c57600080fd5b806306fdde03116102f157806306fdde031461038f578063081812fc146103b1578063095ea7b3146103e957600080fd5b806301ffc9a71461031857806302329a291461034d57806302fa7c471461036f575b600080fd5b34801561032457600080fd5b50610338610333366004612c34565b610948565b60405190151581526020015b60405180910390f35b34801561035957600080fd5b5061036d610368366004612c19565b610973565b005b34801561037b57600080fd5b5061036d61038a366004612bd1565b6109d3565b34801561039b57600080fd5b506103a4610a29565b6040516103449190612e9e565b3480156103bd57600080fd5b506103d16103cc366004612ca3565b610abb565b6040516001600160a01b039091168152602001610344565b3480156103f557600080fd5b5061036d610404366004612ba7565b610b18565b34801561041557600080fd5b5061041f60125481565b604051908152602001610344565b34801561043957600080fd5b5061041f6000546001600160801b03600160801b82048116918116919091031690565b34801561046857600080fd5b5061036d610477366004612ca3565b610bd8565b34801561048857600080fd5b5061036d610497366004612ac5565b610c25565b3480156104a857600080fd5b506104bc6104b7366004612d03565b610c30565b604080516001600160a01b039093168352602083019190915201610344565b3480156104e757600080fd5b506103a46104f6366004612ca3565b610ceb565b34801561050757600080fd5b5061041f610516366004612ba7565b610d90565b34801561052757600080fd5b5061041f60105481565b34801561053d57600080fd5b5061036d61054c366004612cbc565b610ea6565b34801561055d57600080fd5b5061041f600f5481565b34801561057357600080fd5b5061036d610f13565b34801561058857600080fd5b5061036d610597366004612ac5565b611214565b3480156105a857600080fd5b5061036d6105b7366004612ca3565b61122f565b3480156105c857600080fd5b5061036d6105d7366004612c6e565b61127c565b3480156105e857600080fd5b5061036d6105f7366004612ca3565b61134f565b34801561060857600080fd5b5061041f610617366004612ca3565b61145c565b34801561062857600080fd5b506013546103389060ff1681565b34801561064257600080fd5b5061041f60145481565b34801561065857600080fd5b50600b546103389060ff1681565b34801561067257600080fd5b506103d1610681366004612ca3565b611520565b34801561069257600080fd5b5061041f6106a1366004612a77565b611532565b3480156106b257600080fd5b5061036d61159a565b3480156106c757600080fd5b506103a46115ee565b3480156106dc57600080fd5b506016546103d1906001600160a01b031681565b3480156106fc57600080fd5b5061036d61070b366004612ca3565b61167c565b34801561071c57600080fd5b5061073061072b366004612a77565b6116c9565b6040516103449190612e5a565b34801561074957600080fd5b5061041f60115481565b34801561075f57600080fd5b506009546001600160a01b03166103d1565b34801561077d57600080fd5b506017546103d1906001600160a01b031681565b34801561079d57600080fd5b506103a461176b565b61036d6107b4366004612ca3565b61177a565b3480156107c557600080fd5b5061036d6107d4366004612b7d565b6118f9565b3480156107e557600080fd5b5061036d6107f4366004612b01565b6119a8565b34801561080557600080fd5b506103a46119e2565b34801561081a57600080fd5b506103a4610829366004612ca3565b6119ef565b34801561083a57600080fd5b5061084e610849366004612ca3565b611b05565b6040516103449190612eb1565b34801561086757600080fd5b506103a4611bf4565b34801561087c57600080fd5b5061036d61088b366004612c6e565b611c01565b34801561089c57600080fd5b506103386108ab366004612a92565b6001600160a01b03918216600090815260066020908152604080832093909416825291909152205460ff1690565b3480156108e557600080fd5b5061036d6108f4366004612c6e565b611c5c565b34801561090557600080fd5b5061036d610914366004612a77565b611cb7565b34801561092557600080fd5b50610939610934366004612ca3565b611d87565b60405161034493929190612ee0565b60006001600160e01b0319821663152a902d60e11b148061096d575061096d82611e32565b92915050565b6009546001600160a01b031633146109c05760405162461bcd60e51b8152602060048201819052602482015260008051602061306f83398151915260448201526064015b60405180910390fd5b600b805460ff1916911515919091179055565b6009546001600160a01b03163314610a1b5760405162461bcd60e51b8152602060048201819052602482015260008051602061306f83398151915260448201526064016109b7565b610a258282611e57565b5050565b606060018054610a3890612f96565b80601f0160208091040260200160405190810160405280929190818152602001828054610a6490612f96565b8015610ab15780601f10610a8657610100808354040283529160200191610ab1565b820191906000526020600020905b815481529060010190602001808311610a9457829003601f168201915b5050505050905090565b6000610ac682611f71565b610afc576040517fcf4700e400000000000000000000000000000000000000000000000000000000815260040160405180910390fd5b506000908152600560205260409020546001600160a01b031690565b6000610b2382611520565b9050806001600160a01b0316836001600160a01b03161415610b71576040517f943f7b8c00000000000000000000000000000000000000000000000000000000815260040160405180910390fd5b336001600160a01b03821614801590610b915750610b8f81336108ab565b155b15610bc8576040517fcfb3b94200000000000000000000000000000000000000000000000000000000815260040160405180910390fd5b610bd3838383611fa5565b505050565b6009546001600160a01b03163314610c205760405162461bcd60e51b8152602060048201819052602482015260008051602061306f83398151915260448201526064016109b7565b601055565b610bd383838361200e565b60008281526008602090815260408083208151808301909252546001600160a01b038116808352600160a01b9091046bffffffffffffffffffffffff16928201929092528291610caf5750604080518082019091526007546001600160a01b0381168252600160a01b90046bffffffffffffffffffffffff1660208201525b602081015160009061271090610cd3906bffffffffffffffffffffffff1687612f34565b610cdd9190612f20565b915196919550909350505050565b6000818152601560205260409020600201805460609190610d0b90612f96565b80601f0160208091040260200160405190810160405280929190818152602001828054610d3790612f96565b8015610d845780601f10610d5957610100808354040283529160200191610d84565b820191906000526020600020905b815481529060010190602001808311610d6757829003601f168201915b50505050509050919050565b6000610d9b83611532565b8210610dd3576040517f0ddac30e00000000000000000000000000000000000000000000000000000000815260040160405180910390fd5b600080546001600160801b03169080805b83811015610ea057600081815260036020908152604091829020825160608101845290546001600160a01b0381168252600160a01b810467ffffffffffffffff1692820192909252600160e01b90910460ff161580159282019290925290610e4c5750610e98565b80516001600160a01b031615610e6157805192505b876001600160a01b0316836001600160a01b03161415610e965786841415610e8f5750935061096d92505050565b6001909301925b505b600101610de4565b50600080fd5b6009546001600160a01b03163314610eee5760405162461bcd60e51b8152602060048201819052602482015260008051602061306f83398151915260448201526064016109b7565b60008281526015602090815260409091208251610bd392600290920191840190612915565b6009546001600160a01b03163314610f5b5760405162461bcd60e51b8152602060048201819052602482015260008051602061306f83398151915260448201526064016109b7565b6002600a541415610fae5760405162461bcd60e51b815260206004820152601f60248201527f5265656e7472616e637947756172643a207265656e7472616e742063616c6c0060448201526064016109b7565b6002600a5547806110015760405162461bcd60e51b815260206004820152601a60248201527f4e6f206574686572206c65667420746f2077697468647261772e00000000000060448201526064016109b7565b6016546000906001600160a01b0316606461101d47600a612f34565b6110279190612f20565b604051600081818185875af1925050503d8060008114611063576040519150601f19603f3d011682016040523d82523d6000602084013e611068565b606091505b50509050806110b95760405162461bcd60e51b815260206004820152601860248201527f43686172697479205472616e73666572206661696c65642e000000000000000060448201526064016109b7565b6017546000906001600160a01b031660646110d5476005612f34565b6110df9190612f20565b604051600081818185875af1925050503d806000811461111b576040519150601f19603f3d011682016040523d82523d6000602084013e611120565b606091505b50509050806111715760405162461bcd60e51b815260206004820152601a60248201527f446576656c6f706572205472616e73666572206661696c65642e00000000000060448201526064016109b7565b604051600090339047908381818185875af1925050503d80600081146111b3576040519150601f19603f3d011682016040523d82523d6000602084013e6111b8565b606091505b50509050806112095760405162461bcd60e51b815260206004820152601060248201527f5472616e73666572206661696c65642e0000000000000000000000000000000060448201526064016109b7565b50506001600a555050565b610bd3838383604051806020016040528060008152506119a8565b6009546001600160a01b031633146112775760405162461bcd60e51b8152602060048201819052602482015260008051602061306f83398151915260448201526064016109b7565b601155565b6009546001600160a01b031633146112c45760405162461bcd60e51b8152602060048201819052602482015260008051602061306f83398151915260448201526064016109b7565b60408051606081018252600f548152601054602080830191825282840185815260145460009081526015835294909420835181559151600183015592518051929391926113179260028501920190612915565b505060138054600160ff199182168117909255600b80549091169091179055506014805490600061134783612fd1565b919050555050565b6009546001600160a01b031633146113975760405162461bcd60e51b8152602060048201819052602482015260008051602061306f83398151915260448201526064016109b7565b6010546113bc6000546001600160801b03600160801b82048116918116919091031690565b146113f3576040517f697526e000000000000000000000000000000000000000000000000000000000815260040160405180910390fd5b60135460ff1661142f576040517fdc8eb7a200000000000000000000000000000000000000000000000000000000815260040160405180910390fd5b601054600f81905550806010600082825461144a9190612f08565b90915550506013805460ff1916905550565b600080546001600160801b031681805b828110156114ed57600081815260036020908152604091829020825160608101845290546001600160a01b0381168252600160a01b810467ffffffffffffffff1692820192909252600160e01b90910460ff161515918101829052906114e457858314156114dd5750949350505050565b6001909201915b5060010161146c565b506040517fa723001c00000000000000000000000000000000000000000000000000000000815260040160405180910390fd5b600061152b82612279565b5192915050565b60006001600160a01b038216611574576040517f8f4eb60400000000000000000000000000000000000000000000000000000000815260040160405180910390fd5b506001600160a01b031660009081526004602052604090205467ffffffffffffffff1690565b6009546001600160a01b031633146115e25760405162461bcd60e51b8152602060048201819052602482015260008051602061306f83398151915260448201526064016109b7565b6115ec60006123b6565b565b600d80546115fb90612f96565b80601f016020809104026020016040519081016040528092919081815260200182805461162790612f96565b80156116745780601f1061164957610100808354040283529160200191611674565b820191906000526020600020905b81548152906001019060200180831161165757829003601f168201915b505050505081565b6009546001600160a01b031633146116c45760405162461bcd60e51b8152602060048201819052602482015260008051602061306f83398151915260448201526064016109b7565b601255565b606060006116d683611532565b905060008167ffffffffffffffff8111156116f3576116f3613042565b60405190808252806020026020018201604052801561171c578160200160208202803683370190505b50905060005b82811015611763576117348582610d90565b8282815181106117465761174661302c565b60209081029190910101528061175b81612fd1565b915050611722565b509392505050565b606060028054610a3890612f96565b6009546001600160a01b0316331461188357600b5460ff16156117c9576040517fab35696f00000000000000000000000000000000000000000000000000000000815260040160405180910390fd5b80611800576040517f2e69f8e800000000000000000000000000000000000000000000000000000000815260040160405180910390fd5b60125481111561183c576040517fa8de21d600000000000000000000000000000000000000000000000000000000815260040160405180910390fd5b8060115461184a9190612f34565b341015611883576040517f356680b700000000000000000000000000000000000000000000000000000000815260040160405180910390fd5b60006118a76000546001600160801b03600160801b82048116918116919091031690565b6010549091506118b78383612f08565b11156118ef576040517f52df9fe500000000000000000000000000000000000000000000000000000000815260040160405180910390fd5b610a253383612415565b6001600160a01b03821633141561193c576040517fb06307db00000000000000000000000000000000000000000000000000000000815260040160405180910390fd5b3360008181526006602090815260408083206001600160a01b03871680855290835292819020805460ff191686151590811790915590519081529192917f17307eab39ab6107e8899845ad3d59bd9653f200f220920489ca2b5937696c31910160405180910390a35050565b6119b384848461200e565b6119bf8484848461242f565b6119dc576040516368d2bf6b60e11b815260040160405180910390fd5b50505050565b600c80546115fb90612f96565b60606119fa82611f71565b611a30576040517f25dca1e600000000000000000000000000000000000000000000000000000000815260040160405180910390fd5b60135460ff16158015611a455750600f548210155b15611a5757600d8054610d0b90612f96565b60015b6014548111611aef57600081815260156020526040902060010154831015611add57600081815260156020526040902054611a959084612f53565b6000828152601560205260409020909350600201611ab28461253e565b600c604051602001611ac693929190612deb565b604051602081830303815290604052915050919050565b80611ae781612fd1565b915050611a5a565b5050604080516020810190915260008152919050565b611b2960405180606001604052806000815260200160008152602001606081525090565b601560008381526020019081526020016000206040518060600160405290816000820154815260200160018201548152602001600282018054611b6b90612f96565b80601f0160208091040260200160405190810160405280929190818152602001828054611b9790612f96565b8015611be45780601f10611bb957610100808354040283529160200191611be4565b820191906000526020600020905b815481529060010190602001808311611bc757829003601f168201915b5050505050815250509050919050565b600e80546115fb90612f96565b6009546001600160a01b03163314611c495760405162461bcd60e51b8152602060048201819052602482015260008051602061306f83398151915260448201526064016109b7565b8051610a2590600c906020840190612915565b6009546001600160a01b03163314611ca45760405162461bcd60e51b8152602060048201819052602482015260008051602061306f83398151915260448201526064016109b7565b8051610a2590600d906020840190612915565b6009546001600160a01b03163314611cff5760405162461bcd60e51b8152602060048201819052602482015260008051602061306f83398151915260448201526064016109b7565b6001600160a01b038116611d7b5760405162461bcd60e51b815260206004820152602660248201527f4f776e61626c653a206e6577206f776e657220697320746865207a65726f206160448201527f646472657373000000000000000000000000000000000000000000000000000060648201526084016109b7565b611d84816123b6565b50565b60156020526000908152604090208054600182015460028301805492939192611daf90612f96565b80601f0160208091040260200160405190810160405280929190818152602001828054611ddb90612f96565b8015611e285780601f10611dfd57610100808354040283529160200191611e28565b820191906000526020600020905b815481529060010190602001808311611e0b57829003601f168201915b5050505050905083565b60006001600160e01b0319821663152a902d60e11b148061096d575061096d82612670565b6127106bffffffffffffffffffffffff82161115611edd5760405162461bcd60e51b815260206004820152602a60248201527f455243323938313a20726f79616c7479206665652077696c6c2065786365656460448201527f2073616c6550726963650000000000000000000000000000000000000000000060648201526084016109b7565b6001600160a01b038216611f335760405162461bcd60e51b815260206004820152601960248201527f455243323938313a20696e76616c69642072656365697665720000000000000060448201526064016109b7565b604080518082019091526001600160a01b039092168083526bffffffffffffffffffffffff9091166020909201829052600160a01b90910217600755565b600080546001600160801b03168210801561096d575050600090815260036020526040902054600160e01b900460ff161590565b600082815260056020526040808220805473ffffffffffffffffffffffffffffffffffffffff19166001600160a01b0387811691821790925591518593918516917f8c5be1e5ebec7d5bd14f71427d1e84f3dd0314c0f7b2291e5b200ac8c7c3b92591a4505050565b600061201982612279565b80519091506000906001600160a01b0316336001600160a01b031614806120475750815161204790336108ab565b8061206257503361205784610abb565b6001600160a01b0316145b90508061209b576040517f59c896be00000000000000000000000000000000000000000000000000000000815260040160405180910390fd5b846001600160a01b031682600001516001600160a01b0316146120ea576040517fa114810000000000000000000000000000000000000000000000000000000000815260040160405180910390fd5b6001600160a01b03841661212a576040517fea553b3400000000000000000000000000000000000000000000000000000000815260040160405180910390fd5b61213a6000848460000151611fa5565b6001600160a01b038581166000908152600460209081526040808320805467ffffffffffffffff1980821667ffffffffffffffff92831660001901831617909255898616808652838620805493841693831660019081018416949094179055898652600390945282852080546001600160e01b031916909417600160a01b42909216919091021790925590860180835291205490911661222f576000546001600160801b031681101561222f578251600082815260036020908152604090912080549186015167ffffffffffffffff16600160a01b026001600160e01b03199092166001600160a01b03909316929092171790555b5082846001600160a01b0316866001600160a01b03167fddf252ad1be2c89b69c2b068fc378daa952ba7f163c4a11628f55a4df523b3ef60405160405180910390a45b5050505050565b60408051606081018252600080825260208201819052918101829052905482906001600160801b031681101561238457600081815260036020908152604091829020825160608101845290546001600160a01b0381168252600160a01b810467ffffffffffffffff1692820192909252600160e01b90910460ff161515918101829052906123825780516001600160a01b031615612318579392505050565b5060001901600081815260036020908152604091829020825160608101845290546001600160a01b038116808352600160a01b820467ffffffffffffffff1693830193909352600160e01b900460ff161515928101929092521561237d579392505050565b612318565b505b6040517fdf2d9b4200000000000000000000000000000000000000000000000000000000815260040160405180910390fd5b600980546001600160a01b0383811673ffffffffffffffffffffffffffffffffffffffff19831681179093556040519116919082907f8be0079c531659141344cd1fd0a4f28419497f9722a3daafe3b4186f6b6457e090600090a35050565b610a2582826040518060200160405280600081525061273f565b60006001600160a01b0384163b1561253257604051630a85bd0160e11b81526001600160a01b0385169063150b7a0290612473903390899088908890600401612e1e565b602060405180830381600087803b15801561248d57600080fd5b505af19250505080156124bd575060408051601f3d908101601f191682019092526124ba91810190612c51565b60015b612518573d8080156124eb576040519150601f19603f3d011682016040523d82523d6000602084013e6124f0565b606091505b508051612510576040516368d2bf6b60e11b815260040160405180910390fd5b805181602001fd5b6001600160e01b031916630a85bd0160e11b149050612536565b5060015b949350505050565b60608161257e57505060408051808201909152600181527f3000000000000000000000000000000000000000000000000000000000000000602082015290565b8160005b81156125a8578061259281612fd1565b91506125a19050600a83612f20565b9150612582565b60008167ffffffffffffffff8111156125c3576125c3613042565b6040519080825280601f01601f1916602001820160405280156125ed576020820181803683370190505b5090505b841561253657612602600183612f53565b915061260f600a86612fec565b61261a906030612f08565b60f81b81838151811061262f5761262f61302c565b60200101907effffffffffffffffffffffffffffffffffffffffffffffffffffffffffffff1916908160001a905350612669600a86612f20565b94506125f1565b60006001600160e01b031982167f80ac58cd0000000000000000000000000000000000000000000000000000000014806126d357506001600160e01b031982167f5b5e139f00000000000000000000000000000000000000000000000000000000145b8061270757506001600160e01b031982167f780e9d6300000000000000000000000000000000000000000000000000000000145b8061096d57507f01ffc9a7000000000000000000000000000000000000000000000000000000006001600160e01b031983161461096d565b610bd383838360016000546001600160801b03166001600160a01b038516612793576040517f2e07630000000000000000000000000000000000000000000000000000000000815260040160405180910390fd5b836127ca576040517fb562e8dd00000000000000000000000000000000000000000000000000000000815260040160405180910390fd5b6001600160a01b038516600081815260046020908152604080832080546fffffffffffffffffffffffffffffffff19811667ffffffffffffffff8083168c0181169182176801000000000000000067ffffffffffffffff1990941690921783900481168c018116909202179091558584526003909252822080546001600160e01b031916909317600160a01b42909216919091021790915581905b858110156128e65760405182906001600160a01b038916906000907fddf252ad1be2c89b69c2b068fc378daa952ba7f163c4a11628f55a4df523b3ef908290a48380156128bc57506128ba600088848861242f565b155b156128da576040516368d2bf6b60e11b815260040160405180910390fd5b60019182019101612865565b50600080546fffffffffffffffffffffffffffffffff19166001600160801b0392909216919091179055612272565b82805461292190612f96565b90600052602060002090601f0160209004810192826129435760008555612989565b82601f1061295c57805160ff1916838001178555612989565b82800160010185558215612989579182015b8281111561298957825182559160200191906001019061296e565b50612995929150612999565b5090565b5b80821115612995576000815560010161299a565b600067ffffffffffffffff808411156129c9576129c9613042565b604051601f8501601f19908116603f011681019082821181831017156129f1576129f1613042565b81604052809350858152868686011115612a0a57600080fd5b858560208301376000602087830101525050509392505050565b80356001600160a01b0381168114612a3b57600080fd5b919050565b80358015158114612a3b57600080fd5b600082601f830112612a6157600080fd5b612a70838335602085016129ae565b9392505050565b600060208284031215612a8957600080fd5b612a7082612a24565b60008060408385031215612aa557600080fd5b612aae83612a24565b9150612abc60208401612a24565b90509250929050565b600080600060608486031215612ada57600080fd5b612ae384612a24565b9250612af160208501612a24565b9150604084013590509250925092565b60008060008060808587031215612b1757600080fd5b612b2085612a24565b9350612b2e60208601612a24565b925060408501359150606085013567ffffffffffffffff811115612b5157600080fd5b8501601f81018713612b6257600080fd5b612b71878235602084016129ae565b91505092959194509250565b60008060408385031215612b9057600080fd5b612b9983612a24565b9150612abc60208401612a40565b60008060408385031215612bba57600080fd5b612bc383612a24565b946020939093013593505050565b60008060408385031215612be457600080fd5b612bed83612a24565b915060208301356bffffffffffffffffffffffff81168114612c0e57600080fd5b809150509250929050565b600060208284031215612c2b57600080fd5b612a7082612a40565b600060208284031215612c4657600080fd5b8135612a7081613058565b600060208284031215612c6357600080fd5b8151612a7081613058565b600060208284031215612c8057600080fd5b813567ffffffffffffffff811115612c9757600080fd5b61253684828501612a50565b600060208284031215612cb557600080fd5b5035919050565b60008060408385031215612ccf57600080fd5b82359150602083013567ffffffffffffffff811115612ced57600080fd5b612cf985828601612a50565b9150509250929050565b60008060408385031215612d1657600080fd5b50508035926020909101359150565b60008151808452612d3d816020860160208601612f6a565b601f01601f19169290920160200192915050565b8054600090600181811c9080831680612d6b57607f831692505b6020808410821415612d8d57634e487b7160e01b600052602260045260246000fd5b818015612da15760018114612db257612ddf565b60ff19861689528489019650612ddf565b60008881526020902060005b86811015612dd75781548b820152908501908301612dbe565b505084890196505b50505050505092915050565b6000612df78286612d51565b8451612e07818360208901612f6a565b612e1381830186612d51565b979650505050505050565b60006001600160a01b03808716835280861660208401525083604083015260806060830152612e506080830184612d25565b9695505050505050565b6020808252825182820181905260009190848201906040850190845b81811015612e9257835183529284019291840191600101612e76565b50909695505050505050565b602081526000612a706020830184612d25565b602081528151602082015260208201516040820152600060408301516060808401526125366080840182612d25565b838152826020820152606060408201526000612eff6060830184612d25565b95945050505050565b60008219821115612f1b57612f1b613000565b500190565b600082612f2f57612f2f613016565b500490565b6000816000190483118215151615612f4e57612f4e613000565b500290565b600082821015612f6557612f65613000565b500390565b60005b83811015612f85578181015183820152602001612f6d565b838111156119dc5750506000910152565b600181811c90821680612faa57607f821691505b60208210811415612fcb57634e487b7160e01b600052602260045260246000fd5b50919050565b6000600019821415612fe557612fe5613000565b5060010190565b600082612ffb57612ffb613016565b500690565b634e487b7160e01b600052601160045260246000fd5b634e487b7160e01b600052601260045260246000fd5b634e487b7160e01b600052603260045260246000fd5b634e487b7160e01b600052604160045260246000fd5b6001600160e01b031981168114611d8457600080fdfe4f776e61626c653a2063616c6c6572206973206e6f7420746865206f776e6572a26469706673582212208cb7b3d7b8952b1e8094d3fb2b3a32b5cbddbd9f3f9f5ebd7989b4bf4f6cf57364736f6c63430008070033",
  "linkReferences": {},
  "deployedLinkReferences": {}
}