{
  "_format": "hh-sol-artifact-1",
  "contractName": "ResearchFundingClub",
  "sourceName": "contracts/ResearchFundingClubFast.sol",
  "abi": [
    {
      "inputs": [
        {
          "internalType": "uint96",
          "name": "_royaltyFeesInBips",
          "type": "uint96"
        },
        {
          "internalType": "string",
          "name": "_notRevealedURI",
          "type": "string"
        }
      ],
      "stateMutability": "nonpayable",
      "type": "constructor"
    },
    {
      "inputs": [],
      "name": "ApprovalCallerNotOwnerNorApproved",
      "type": "error"
    },
    {
      "inputs": [],
      "name": "ApprovalQueryForNonexistentToken",
      "type": "error"
    },
    {
      "inputs": [],
      "name": "ApprovalToCurrentOwner",
      "type": "error"
    },
    {
      "inputs": [],
      "name": "ApproveToCaller",
      "type": "error"
    },
    {
      "inputs": [],
      "name": "BalanceQueryForZeroAddress",
      "type": "error"
    },
    {
      "inputs": [],
      "name": "CollectionNotRevealedYet",
      "type": "error"
    },
    {
      "inputs": [],
      "name": "ContractPaused",
      "type": "error"
    },
    {
      "inputs": [],
      "name": "InsufficientFunds",
      "type": "error"
    },
    {
      "inputs": [],
      "name": "MaxPerNFTAddrExceeded",
      "type": "error"
    },
    {
      "inputs": [],
      "name": "MintToZeroAddress",
      "type": "error"
    },
    {
      "inputs": [],
      "name": "MintZeroQuantity",
      "type": "error"
    },
    {
      "inputs": [],
      "name": "OwnerIndexOutOfBounds",
      "type": "error"
    },
    {
      "inputs": [],
      "name": "OwnerQueryForNonexistentToken",
      "type": "error"
    },
    {
      "inputs": [],
      "name": "SaleIncomplete",
      "type": "error"
    },
    {
      "inputs": [],
      "name": "SoldOut",
      "type": "error"
    },
    {
      "inputs": [],
      "name": "TokenIndexOutOfBounds",
      "type": "error"
    },
    {
      "inputs": [],
      "name": "TransferCallerNotOwnerNorApproved",
      "type": "error"
    },
    {
      "inputs": [],
      "name": "TransferFromIncorrectOwner",
      "type": "error"
    },
    {
      "inputs": [],
      "name": "TransferToNonERC721ReceiverImplementer",
      "type": "error"
    },
    {
      "inputs": [],
      "name": "TransferToZeroAddress",
      "type": "error"
    },
    {
      "inputs": [],
      "name": "URIQueryForNonexistentTokenRFC",
      "type": "error"
    },
    {
      "inputs": [],
      "name": "ZeroMintFailed",
      "type": "error"
    },
    {
      "anonymous": false,
      "inputs": [
        {
          "indexed": true,
          "internalType": "address",
          "name": "owner",
          "type": "address"
        },
        {
          "indexed": true,
          "internalType": "address",
          "name": "approved",
          "type": "address"
        },
        {
          "indexed": true,
          "internalType": "uint256",
          "name": "tokenId",
          "type": "uint256"
        }
      ],
      "name": "Approval",
      "type": "event"
    },
    {
      "anonymous": false,
      "inputs": [
        {
          "indexed": true,
          "internalType": "address",
          "name": "owner",
          "type": "address"
        },
        {
          "indexed": true,
          "internalType": "address",
          "name": "operator",
          "type": "address"
        },
        {
          "indexed": false,
          "internalType": "bool",
          "name": "approved",
          "type": "bool"
        }
      ],
      "name": "ApprovalForAll",
      "type": "event"
    },
    {
      "anonymous": false,
      "inputs": [
        {
          "indexed": true,
          "internalType": "address",
          "name": "previousOwner",
          "type": "address"
        },
        {
          "indexed": true,
          "internalType": "address",
          "name": "newOwner",
          "type": "address"
        }
      ],
      "name": "OwnershipTransferred",
      "type": "event"
    },
    {
      "anonymous": false,
      "inputs": [
        {
          "indexed": true,
          "internalType": "address",
          "name": "from",
          "type": "address"
        },
        {
          "indexed": true,
          "internalType": "address",
          "name": "to",
          "type": "address"
        },
        {
          "indexed": true,
          "internalType": "uint256",
          "name": "tokenId",
          "type": "uint256"
        }
      ],
      "name": "Transfer",
      "type": "event"
    },
    {
      "inputs": [],
      "name": "MAX_PER_MINT",
      "outputs": [
        {
          "internalType": "uint256",
          "name": "",
          "type": "uint256"
        }
      ],
      "stateMutability": "view",
      "type": "function"
    },
    {
      "inputs": [],
      "name": "MAX_SUPPLY",
      "outputs": [
        {
          "internalType": "uint256",
          "name": "",
          "type": "uint256"
        }
      ],
      "stateMutability": "view",
      "type": "function"
    },
    {
      "inputs": [],
      "name": "MIN_SUPPLY",
      "outputs": [
        {
          "internalType": "uint256",
          "name": "",
          "type": "uint256"
        }
      ],
      "stateMutability": "view",
      "type": "function"
    },
    {
      "inputs": [],
      "name": "PRICE",
      "outputs": [
        {
          "internalType": "uint256",
          "name": "",
          "type": "uint256"
        }
      ],
      "stateMutability": "view",
      "type": "function"
    },
    {
      "inputs": [
        {
          "internalType": "uint256",
          "name": "_mintAmount",
          "type": "uint256"
        },
        {
          "internalType": "address",
          "name": "destination",
          "type": "address"
        }
      ],
      "name": "airDrop",
      "outputs": [],
      "stateMutability": "nonpayable",
      "type": "function"
    },
    {
      "inputs": [
        {
          "internalType": "address",
          "name": "to",
          "type": "address"
        },
        {
          "internalType": "uint256",
          "name": "tokenId",
          "type": "uint256"
        }
      ],
      "name": "approve",
      "outputs": [],
      "stateMutability": "nonpayable",
      "type": "function"
    },
    {
      "inputs": [
        {
          "internalType": "address",
          "name": "owner",
          "type": "address"
        }
      ],
      "name": "balanceOf",
      "outputs": [
        {
          "internalType": "uint256",
          "name": "",
          "type": "uint256"
        }
      ],
      "stateMutability": "view",
      "type": "function"
    },
    {
      "inputs": [],
      "name": "baseExtension",
      "outputs": [
        {
          "internalType": "string",
          "name": "",
          "type": "string"
        }
      ],
      "stateMutability": "view",
      "type": "function"
    },
    {
      "inputs": [],
      "name": "baseTokenURI",
      "outputs": [
        {
          "internalType": "string",
          "name": "",
          "type": "string"
        }
      ],
      "stateMutability": "view",
      "type": "function"
    },
    {
      "inputs": [
        {
          "internalType": "uint256",
          "name": "_collectionID",
          "type": "uint256"
        }
      ],
      "name": "baseURI",
      "outputs": [
        {
          "internalType": "string",
          "name": "",
          "type": "string"
        }
      ],
      "stateMutability": "view",
      "type": "function"
    },
    {
      "inputs": [],
      "name": "charityWallet",
      "outputs": [
        {
          "internalType": "address",
          "name": "",
          "type": "address"
        }
      ],
      "stateMutability": "view",
      "type": "function"
    },
    {
      "inputs": [],
      "name": "collectionID",
      "outputs": [
        {
          "internalType": "uint256",
          "name": "",
          "type": "uint256"
        }
      ],
      "stateMutability": "view",
      "type": "function"
    },
    {
      "inputs": [
        {
          "internalType": "uint256",
          "name": "",
          "type": "uint256"
        }
      ],
      "name": "collections",
      "outputs": [
        {
          "internalType": "uint256",
          "name": "minSupply",
          "type": "uint256"
        },
        {
          "internalType": "uint256",
          "name": "maxSupply",
          "type": "uint256"
        },
        {
          "internalType": "string",
          "name": "baseURI",
          "type": "string"
        }
      ],
      "stateMutability": "view",
      "type": "function"
    },
    {
      "inputs": [],
      "name": "devWallet",
      "outputs": [
        {
          "internalType": "address",
          "name": "",
          "type": "address"
        }
      ],
      "stateMutability": "view",
      "type": "function"
    },
    {
      "inputs": [
        {
          "internalType": "uint256",
          "name": "tokenId",
          "type": "uint256"
        }
      ],
      "name": "getApproved",
      "outputs": [
        {
          "internalType": "address",
          "name": "",
          "type": "address"
        }
      ],
      "stateMutability": "view",
      "type": "function"
    },
    {
      "inputs": [
        {
          "internalType": "uint256",
          "name": "_id",
          "type": "uint256"
        }
      ],
      "name": "getCollectionInfo",
      "outputs": [
        {
          "components": [
            {
              "internalType": "uint256",
              "name": "minSupply",
              "type": "uint256"
            },
            {
              "internalType": "uint256",
              "name": "maxSupply",
              "type": "uint256"
            },
            {
              "internalType": "string",
              "name": "baseURI",
              "type": "string"
            }
          ],
          "internalType": "struct ResearchFundingClub.CollectionData",
          "name": "",
          "type": "tuple"
        }
      ],
      "stateMutability": "view",
      "type": "function"
    },
    {
      "inputs": [
        {
          "internalType": "address",
          "name": "owner",
          "type": "address"
        },
        {
          "internalType": "address",
          "name": "operator",
          "type": "address"
        }
      ],
      "name": "isApprovedForAll",
      "outputs": [
        {
          "internalType": "bool",
          "name": "",
          "type": "bool"
        }
      ],
      "stateMutability": "view",
      "type": "function"
    },
    {
      "inputs": [
        {
          "internalType": "uint256",
          "name": "_mintAmount",
          "type": "uint256"
        }
      ],
      "name": "mint",
      "outputs": [],
      "stateMutability": "payable",
      "type": "function"
    },
    {
      "inputs": [],
      "name": "name",
      "outputs": [
        {
          "internalType": "string",
          "name": "",
          "type": "string"
        }
      ],
      "stateMutability": "view",
      "type": "function"
    },
    {
      "inputs": [
        {
          "internalType": "uint256",
          "name": "_newMaxSupply",
          "type": "uint256"
        }
      ],
      "name": "newDrop",
      "outputs": [],
      "stateMutability": "nonpayable",
      "type": "function"
    },
    {
      "inputs": [],
      "name": "notRevealedURI",
      "outputs": [
        {
          "internalType": "string",
          "name": "",
          "type": "string"
        }
      ],
      "stateMutability": "view",
      "type": "function"
    },
    {
      "inputs": [],
      "name": "owner",
      "outputs": [
        {
          "internalType": "address",
          "name": "",
          "type": "address"
        }
      ],
      "stateMutability": "view",
      "type": "function"
    },
    {
      "inputs": [
        {
          "internalType": "uint256",
          "name": "tokenId",
          "type": "uint256"
        }
      ],
      "name": "ownerOf",
      "outputs": [
        {
          "internalType": "address",
          "name": "",
          "type": "address"
        }
      ],
      "stateMutability": "view",
      "type": "function"
    },
    {
      "inputs": [
        {
          "internalType": "bool",
          "name": "_state",
          "type": "bool"
        }
      ],
      "name": "pause",
      "outputs": [],
      "stateMutability": "nonpayable",
      "type": "function"
    },
    {
      "inputs": [],
      "name": "paused",
      "outputs": [
        {
          "internalType": "bool",
          "name": "",
          "type": "bool"
        }
      ],
      "stateMutability": "view",
      "type": "function"
    },
    {
      "inputs": [],
      "name": "renounceOwnership",
      "outputs": [],
      "stateMutability": "nonpayable",
      "type": "function"
    },
    {
      "inputs": [
        {
          "internalType": "string",
          "name": "_newBaseURI",
          "type": "string"
        }
      ],
      "name": "reveal",
      "outputs": [],
      "stateMutability": "nonpayable",
      "type": "function"
    },
    {
      "inputs": [],
      "name": "revealed",
      "outputs": [
        {
          "internalType": "bool",
          "name": "",
          "type": "bool"
        }
      ],
      "stateMutability": "view",
      "type": "function"
    },
    {
      "inputs": [
        {
          "internalType": "uint256",
          "name": "_tokenId",
          "type": "uint256"
        },
        {
          "internalType": "uint256",
          "name": "_salePrice",
          "type": "uint256"
        }
      ],
      "name": "royaltyInfo",
      "outputs": [
        {
          "internalType": "address",
          "name": "",
          "type": "address"
        },
        {
          "internalType": "uint256",
          "name": "",
          "type": "uint256"
        }
      ],
      "stateMutability": "view",
      "type": "function"
    },
    {
      "inputs": [
        {
          "internalType": "address",
          "name": "from",
          "type": "address"
        },
        {
          "internalType": "address",
          "name": "to",
          "type": "address"
        },
        {
          "internalType": "uint256",
          "name": "tokenId",
          "type": "uint256"
        }
      ],
      "name": "safeTransferFrom",
      "outputs": [],
      "stateMutability": "nonpayable",
      "type": "function"
    },
    {
      "inputs": [
        {
          "internalType": "address",
          "name": "from",
          "type": "address"
        },
        {
          "internalType": "address",
          "name": "to",
          "type": "address"
        },
        {
          "internalType": "uint256",
          "name": "tokenId",
          "type": "uint256"
        },
        {
          "internalType": "bytes",
          "name": "_data",
          "type": "bytes"
        }
      ],
      "name": "safeTransferFrom",
      "outputs": [],
      "stateMutability": "nonpayable",
      "type": "function"
    },
    {
      "inputs": [
        {
          "internalType": "address",
          "name": "operator",
          "type": "address"
        },
        {
          "internalType": "bool",
          "name": "approved",
          "type": "bool"
        }
      ],
      "name": "setApprovalForAll",
      "outputs": [],
      "stateMutability": "nonpayable",
      "type": "function"
    },
    {
      "inputs": [
        {
          "internalType": "string",
          "name": "_newBaseExtension",
          "type": "string"
        }
      ],
      "name": "setBaseExtension",
      "outputs": [],
      "stateMutability": "nonpayable",
      "type": "function"
    },
    {
      "inputs": [
        {
          "internalType": "uint256",
          "name": "_collectionID",
          "type": "uint256"
        },
        {
          "internalType": "string",
          "name": "_baseTokenURI",
          "type": "string"
        }
      ],
      "name": "setBaseURI",
      "outputs": [],
      "stateMutability": "nonpayable",
      "type": "function"
    },
    {
      "inputs": [
        {
          "internalType": "uint256",
          "name": "_newCost",
          "type": "uint256"
        }
      ],
      "name": "setCost",
      "outputs": [],
      "stateMutability": "nonpayable",
      "type": "function"
    },
    {
      "inputs": [
        {
          "internalType": "string",
          "name": "_notRevealedURI",
          "type": "string"
        }
      ],
      "name": "setNotRevealedURI",
      "outputs": [],
      "stateMutability": "nonpayable",
      "type": "function"
    },
    {
      "inputs": [
        {
          "internalType": "address",
          "name": "_receiver",
          "type": "address"
        },
        {
          "internalType": "uint96",
          "name": "_royaltyFeesInBips",
          "type": "uint96"
        }
      ],
      "name": "setRoyaltyInfo",
      "outputs": [],
      "stateMutability": "nonpayable",
      "type": "function"
    },
    {
      "inputs": [
        {
          "internalType": "uint256",
          "name": "_limit",
          "type": "uint256"
        }
      ],
      "name": "setmaxMintAmount",
      "outputs": [],
      "stateMutability": "nonpayable",
      "type": "function"
    },
    {
      "inputs": [
        {
          "internalType": "uint256",
          "name": "_limit",
          "type": "uint256"
        }
      ],
      "name": "setmaxSupply",
      "outputs": [],
      "stateMutability": "nonpayable",
      "type": "function"
    },
    {
      "inputs": [
        {
          "internalType": "bytes4",
          "name": "interfaceId",
          "type": "bytes4"
        }
      ],
      "name": "supportsInterface",
      "outputs": [
        {
          "internalType": "bool",
          "name": "",
          "type": "bool"
        }
      ],
      "stateMutability": "view",
      "type": "function"
    },
    {
      "inputs": [],
      "name": "symbol",
      "outputs": [
        {
          "internalType": "string",
          "name": "",
          "type": "string"
        }
      ],
      "stateMutability": "view",
      "type": "function"
    },
    {
      "inputs": [
        {
          "internalType": "uint256",
          "name": "index",
          "type": "uint256"
        }
      ],
      "name": "tokenByIndex",
      "outputs": [
        {
          "internalType": "uint256",
          "name": "",
          "type": "uint256"
        }
      ],
      "stateMutability": "view",
      "type": "function"
    },
    {
      "inputs": [
        {
          "internalType": "address",
          "name": "owner",
          "type": "address"
        },
        {
          "internalType": "uint256",
          "name": "index",
          "type": "uint256"
        }
      ],
      "name": "tokenOfOwnerByIndex",
      "outputs": [
        {
          "internalType": "uint256",
          "name": "",
          "type": "uint256"
        }
      ],
      "stateMutability": "view",
      "type": "function"
    },
    {
      "inputs": [
        {
          "internalType": "uint256",
          "name": "tokenId",
          "type": "uint256"
        }
      ],
      "name": "tokenURI",
      "outputs": [
        {
          "internalType": "string",
          "name": "",
          "type": "string"
        }
      ],
      "stateMutability": "view",
      "type": "function"
    },
    {
      "inputs": [
        {
          "internalType": "address",
          "name": "_owner",
          "type": "address"
        }
      ],
      "name": "tokensOfOwner",
      "outputs": [
        {
          "internalType": "uint256[]",
          "name": "",
          "type": "uint256[]"
        }
      ],
      "stateMutability": "view",
      "type": "function"
    },
    {
      "inputs": [],
      "name": "totalSupply",
      "outputs": [
        {
          "internalType": "uint256",
          "name": "",
          "type": "uint256"
        }
      ],
      "stateMutability": "view",
      "type": "function"
    },
    {
      "inputs": [
        {
          "internalType": "address",
          "name": "from",
          "type": "address"
        },
        {
          "internalType": "address",
          "name": "to",
          "type": "address"
        },
        {
          "internalType": "uint256",
          "name": "tokenId",
          "type": "uint256"
        }
      ],
      "name": "transferFrom",
      "outputs": [],
      "stateMutability": "nonpayable",
      "type": "function"
    },
    {
      "inputs": [
        {
          "internalType": "address",
          "name": "newOwner",
          "type": "address"
        }
      ],
      "name": "transferOwnership",
      "outputs": [],
      "stateMutability": "nonpayable",
      "type": "function"
    },
    {
      "inputs": [],
      "name": "withdraw",
      "outputs": [],
      "stateMutability": "nonpayable",
      "type": "function"
    }
  ],
  "bytecode": "0x600b805460ff1916600117905560c06040526005608081905264173539b7b760d91b60a09081526200003591600c919062000361565b506000600f5560196010556702c68af0bb140000601155600160128190556013805460ff19169055601455601680546001600160a01b0319908116737158d45648167222c89351cebf618f413bad08fb17909155601780549091167381e3cba331c2036044a62b54524a44d319d0e1ae179055348015620000b557600080fd5b506040516200371538038062003715833981016040819052620000d89162000407565b604080518082018252601581527f52657365617263682046756e64696e6720436c7562000000000000000000000060208083019182528351808501909452600384526252464360e81b908401528151919291620001389160019162000361565b5080516200014e90600290602084019062000361565b5050506200016b620001656200019a60201b60201c565b6200019e565b6001600a556200017c3383620001f0565b80516200019190600d90602084019062000361565b5050506200055a565b3390565b600980546001600160a01b038381166001600160a01b0319831681179093556040519116919082907f8be0079c531659141344cd1fd0a4f28419497f9722a3daafe3b4186f6b6457e090600090a35050565b6009546001600160a01b03163314620002505760405162461bcd60e51b815260206004820181905260248201527f4f776e61626c653a2063616c6c6572206973206e6f7420746865206f776e657260448201526064015b60405180910390fd5b6200025c828262000260565b5050565b6127106001600160601b0382161115620002d05760405162461bcd60e51b815260206004820152602a60248201527f455243323938313a20726f79616c7479206665652077696c6c206578636565646044820152692073616c65507269636560b01b606482015260840162000247565b6001600160a01b038216620003285760405162461bcd60e51b815260206004820152601960248201527f455243323938313a20696e76616c696420726563656976657200000000000000604482015260640162000247565b604080518082019091526001600160a01b039092168083526001600160601b039091166020909201829052600160a01b90910217600755565b8280546200036f9062000507565b90600052602060002090601f016020900481019282620003935760008555620003de565b82601f10620003ae57805160ff1916838001178555620003de565b82800160010185558215620003de579182015b82811115620003de578251825591602001919060010190620003c1565b50620003ec929150620003f0565b5090565b5b80821115620003ec5760008155600101620003f1565b600080604083850312156200041b57600080fd5b82516001600160601b03811681146200043357600080fd5b602084810151919350906001600160401b03808211156200045357600080fd5b818601915086601f8301126200046857600080fd5b8151818111156200047d576200047d62000544565b604051601f8201601f19908116603f01168101908382118183101715620004a857620004a862000544565b816040528281528986848701011115620004c157600080fd5b600093505b82841015620004e55784840186015181850187015292850192620004c6565b82841115620004f75760008684830101525b8096505050505050509250929050565b600181811c908216806200051c57607f821691505b602082108114156200053e57634e487b7160e01b600052602260045260246000fd5b50919050565b634e487b7160e01b600052604160045260246000fd5b6131ab806200056a6000396000f3fe60806040526004361061031e5760003560e01c80635c975abb116101a5578063a0712d68116100ec578063d4e4d3dd11610095578063e985e9c51161006f578063e985e9c5146108bb578063f2c4ce1e14610904578063f2fde38b14610924578063fdbda0ec1461094457600080fd5b8063d4e4d3dd14610859578063d547cfb714610886578063da3ef23f1461089b57600080fd5b8063b88d4fde116100c6578063b88d4fde14610804578063c668286214610824578063c87b56dd1461083957600080fd5b8063a0712d68146107b1578063a22cb465146107c4578063aed38015146107e457600080fd5b80637f00c7a61161014e5780638da5cb5b116101285780638da5cb5b1461075e5780638ea5220f1461077c57806395d89b411461079c57600080fd5b80637f00c7a6146106fb5780638462151c1461071b5780638d859f3e1461074857600080fd5b8063715018a61161017f578063715018a6146106b157806372250380146106c65780637b208769146106db57600080fd5b80635c975abb146106575780636352211e1461067157806370a082311461069157600080fd5b80632f745c591161026957806344a0d68a116102125780634f6ccce7116101ec5780634f6ccce714610607578063518302271461062757806358b33e691461064157600080fd5b806344a0d68a146105a75780634c261247146105c75780634c29bcf0146105e757600080fd5b806335917c641161024357806335917c641461055c5780633ccfd60b1461057257806342842e0e1461058757600080fd5b80632f745c591461050657806332cb6b0c1461052657806333cfcb9f1461053c57600080fd5b806309d42b30116102cb57806323b872dd116102a557806323b872dd146104875780632a55205a146104a75780632ccde4f6146104e657600080fd5b806309d42b301461041457806318160ddd14610438578063228025e81461046757600080fd5b806306fdde03116102fc57806306fdde031461039a578063081812fc146103bc578063095ea7b3146103f457600080fd5b806301ffc9a71461032357806302329a291461035857806302fa7c471461037a575b600080fd5b34801561032f57600080fd5b5061034361033e366004612cf8565b610973565b60405190151581526020015b60405180910390f35b34801561036457600080fd5b50610378610373366004612cdd565b61099e565b005b34801561038657600080fd5b50610378610395366004612c95565b6109fe565b3480156103a657600080fd5b506103af610a54565b60405161034f9190612f85565b3480156103c857600080fd5b506103dc6103d7366004612d67565b610ae6565b6040516001600160a01b03909116815260200161034f565b34801561040057600080fd5b5061037861040f366004612c6b565b610b43565b34801561042057600080fd5b5061042a60125481565b60405190815260200161034f565b34801561044457600080fd5b5061042a6000546001600160801b03600160801b82048116918116919091031690565b34801561047357600080fd5b50610378610482366004612d67565b610c03565b34801561049357600080fd5b506103786104a2366004612b89565b610c50565b3480156104b357600080fd5b506104c76104c2366004612dea565b610c5b565b604080516001600160a01b03909316835260208301919091520161034f565b3480156104f257600080fd5b506103af610501366004612d67565b610d16565b34801561051257600080fd5b5061042a610521366004612c6b565b610dbb565b34801561053257600080fd5b5061042a60105481565b34801561054857600080fd5b50610378610557366004612da3565b610ed1565b34801561056857600080fd5b5061042a600f5481565b34801561057e57600080fd5b50610378610f3e565b34801561059357600080fd5b506103786105a2366004612b89565b61123f565b3480156105b357600080fd5b506103786105c2366004612d67565b61125a565b3480156105d357600080fd5b506103786105e2366004612d32565b6112a7565b3480156105f357600080fd5b50610378610602366004612d67565b61136a565b34801561061357600080fd5b5061042a610622366004612d67565b611486565b34801561063357600080fd5b506013546103439060ff1681565b34801561064d57600080fd5b5061042a60145481565b34801561066357600080fd5b50600b546103439060ff1681565b34801561067d57600080fd5b506103dc61068c366004612d67565b61154a565b34801561069d57600080fd5b5061042a6106ac366004612b3b565b61155c565b3480156106bd57600080fd5b506103786115c4565b3480156106d257600080fd5b506103af611618565b3480156106e757600080fd5b506016546103dc906001600160a01b031681565b34801561070757600080fd5b50610378610716366004612d67565b6116a6565b34801561072757600080fd5b5061073b610736366004612b3b565b6116f3565b60405161034f9190612f41565b34801561075457600080fd5b5061042a60115481565b34801561076a57600080fd5b506009546001600160a01b03166103dc565b34801561078857600080fd5b506017546103dc906001600160a01b031681565b3480156107a857600080fd5b506103af611795565b6103786107bf366004612d67565b6117a4565b3480156107d057600080fd5b506103786107df366004612c41565b6118d8565b3480156107f057600080fd5b506103786107ff366004612d80565b611987565b34801561081057600080fd5b5061037861081f366004612bc5565b611a6c565b34801561083057600080fd5b506103af611aa6565b34801561084557600080fd5b506103af610854366004612d67565b611ab3565b34801561086557600080fd5b50610879610874366004612d67565b611bc9565b60405161034f9190612f98565b34801561089257600080fd5b506103af611cb8565b3480156108a757600080fd5b506103786108b6366004612d32565b611cc5565b3480156108c757600080fd5b506103436108d6366004612b56565b6001600160a01b03918216600090815260066020908152604080832093909416825291909152205460ff1690565b34801561091057600080fd5b5061037861091f366004612d32565b611d20565b34801561093057600080fd5b5061037861093f366004612b3b565b611d7b565b34801561095057600080fd5b5061096461095f366004612d67565b611e4b565b60405161034f93929190612fc7565b60006001600160e01b0319821663152a902d60e11b1480610998575061099882611ef6565b92915050565b6009546001600160a01b031633146109eb5760405162461bcd60e51b8152602060048201819052602482015260008051602061315683398151915260448201526064015b60405180910390fd5b600b805460ff1916911515919091179055565b6009546001600160a01b03163314610a465760405162461bcd60e51b8152602060048201819052602482015260008051602061315683398151915260448201526064016109e2565b610a508282611f1b565b5050565b606060018054610a639061307d565b80601f0160208091040260200160405190810160405280929190818152602001828054610a8f9061307d565b8015610adc5780601f10610ab157610100808354040283529160200191610adc565b820191906000526020600020905b815481529060010190602001808311610abf57829003601f168201915b5050505050905090565b6000610af182612035565b610b27576040517fcf4700e400000000000000000000000000000000000000000000000000000000815260040160405180910390fd5b506000908152600560205260409020546001600160a01b031690565b6000610b4e8261154a565b9050806001600160a01b0316836001600160a01b03161415610b9c576040517f943f7b8c00000000000000000000000000000000000000000000000000000000815260040160405180910390fd5b336001600160a01b03821614801590610bbc5750610bba81336108d6565b155b15610bf3576040517fcfb3b94200000000000000000000000000000000000000000000000000000000815260040160405180910390fd5b610bfe838383612069565b505050565b6009546001600160a01b03163314610c4b5760405162461bcd60e51b8152602060048201819052602482015260008051602061315683398151915260448201526064016109e2565b601055565b610bfe8383836120d2565b60008281526008602090815260408083208151808301909252546001600160a01b038116808352600160a01b9091046bffffffffffffffffffffffff16928201929092528291610cda5750604080518082019091526007546001600160a01b0381168252600160a01b90046bffffffffffffffffffffffff1660208201525b602081015160009061271090610cfe906bffffffffffffffffffffffff168761301b565b610d089190613007565b915196919550909350505050565b6000818152601560205260409020600201805460609190610d369061307d565b80601f0160208091040260200160405190810160405280929190818152602001828054610d629061307d565b8015610daf5780601f10610d8457610100808354040283529160200191610daf565b820191906000526020600020905b815481529060010190602001808311610d9257829003601f168201915b50505050509050919050565b6000610dc68361155c565b8210610dfe576040517f0ddac30e00000000000000000000000000000000000000000000000000000000815260040160405180910390fd5b600080546001600160801b03169080805b83811015610ecb57600081815260036020908152604091829020825160608101845290546001600160a01b0381168252600160a01b810467ffffffffffffffff1692820192909252600160e01b90910460ff161580159282019290925290610e775750610ec3565b80516001600160a01b031615610e8c57805192505b876001600160a01b0316836001600160a01b03161415610ec15786841415610eba5750935061099892505050565b6001909301925b505b600101610e0f565b50600080fd5b6009546001600160a01b03163314610f195760405162461bcd60e51b8152602060048201819052602482015260008051602061315683398151915260448201526064016109e2565b60008281526015602090815260409091208251610bfe926002909201918401906129d9565b6009546001600160a01b03163314610f865760405162461bcd60e51b8152602060048201819052602482015260008051602061315683398151915260448201526064016109e2565b6002600a541415610fd95760405162461bcd60e51b815260206004820152601f60248201527f5265656e7472616e637947756172643a207265656e7472616e742063616c6c0060448201526064016109e2565b6002600a55478061102c5760405162461bcd60e51b815260206004820152601a60248201527f4e6f206574686572206c65667420746f2077697468647261772e00000000000060448201526064016109e2565b6016546000906001600160a01b0316606461104847600a61301b565b6110529190613007565b604051600081818185875af1925050503d806000811461108e576040519150601f19603f3d011682016040523d82523d6000602084013e611093565b606091505b50509050806110e45760405162461bcd60e51b815260206004820152601860248201527f43686172697479205472616e73666572206661696c65642e000000000000000060448201526064016109e2565b6017546000906001600160a01b0316606461110047600561301b565b61110a9190613007565b604051600081818185875af1925050503d8060008114611146576040519150601f19603f3d011682016040523d82523d6000602084013e61114b565b606091505b505090508061119c5760405162461bcd60e51b815260206004820152601a60248201527f446576656c6f706572205472616e73666572206661696c65642e00000000000060448201526064016109e2565b604051600090339047908381818185875af1925050503d80600081146111de576040519150601f19603f3d011682016040523d82523d6000602084013e6111e3565b606091505b50509050806112345760405162461bcd60e51b815260206004820152601660248201527f4f776e6572205472616e73666572206661696c65642e0000000000000000000060448201526064016109e2565b50506001600a555050565b610bfe83838360405180602001604052806000815250611a6c565b6009546001600160a01b031633146112a25760405162461bcd60e51b8152602060048201819052602482015260008051602061315683398151915260448201526064016109e2565b601155565b6009546001600160a01b031633146112ef5760405162461bcd60e51b8152602060048201819052602482015260008051602061315683398151915260448201526064016109e2565b60408051606081018252600f5481526010546020808301918252828401858152601454600090815260158352949094208351815591516001830155925180519293919261134292600285019201906129d9565b50506013805460ff191660011790555060148054906000611362836130b8565b919050555050565b6009546001600160a01b031633146113b25760405162461bcd60e51b8152602060048201819052602482015260008051602061315683398151915260448201526064016109e2565b6010546113d76000546001600160801b03600160801b82048116918116919091031690565b1461140e576040517f697526e000000000000000000000000000000000000000000000000000000000815260040160405180910390fd5b60135460ff1661144a576040517fdc8eb7a200000000000000000000000000000000000000000000000000000000815260040160405180910390fd5b601054600f8190555080601060008282546114659190612fef565b90915550506013805460ff19908116909155600b8054909116600117905550565b600080546001600160801b031681805b8281101561151757600081815260036020908152604091829020825160608101845290546001600160a01b0381168252600160a01b810467ffffffffffffffff1692820192909252600160e01b90910460ff1615159181018290529061150e57858314156115075750949350505050565b6001909201915b50600101611496565b506040517fa723001c00000000000000000000000000000000000000000000000000000000815260040160405180910390fd5b60006115558261233d565b5192915050565b60006001600160a01b03821661159e576040517f8f4eb60400000000000000000000000000000000000000000000000000000000815260040160405180910390fd5b506001600160a01b031660009081526004602052604090205467ffffffffffffffff1690565b6009546001600160a01b0316331461160c5760405162461bcd60e51b8152602060048201819052602482015260008051602061315683398151915260448201526064016109e2565b611616600061247a565b565b600d80546116259061307d565b80601f01602080910402602001604051908101604052809291908181526020018280546116519061307d565b801561169e5780601f106116735761010080835404028352916020019161169e565b820191906000526020600020905b81548152906001019060200180831161168157829003601f168201915b505050505081565b6009546001600160a01b031633146116ee5760405162461bcd60e51b8152602060048201819052602482015260008051602061315683398151915260448201526064016109e2565b601255565b606060006117008361155c565b905060008167ffffffffffffffff81111561171d5761171d613129565b604051908082528060200260200182016040528015611746578160200160208202803683370190505b50905060005b8281101561178d5761175e8582610dbb565b82828151811061177057611770613113565b602090810291909101015280611785816130b8565b91505061174c565b509392505050565b606060028054610a639061307d565b6009546001600160a01b0316331461187b57600b5460ff16156117f3576040517fab35696f00000000000000000000000000000000000000000000000000000000815260040160405180910390fd5b80611811576040516305cd3f1d60e31b815260040160405180910390fd5b6012548111156118345760405163546f10eb60e11b815260040160405180910390fd5b80601154611842919061301b565b34101561187b576040517f356680b700000000000000000000000000000000000000000000000000000000815260040160405180910390fd5b600061189f6000546001600160801b03600160801b82048116918116919091031690565b6010549091506118af8383612fef565b11156118ce576040516352df9fe560e01b815260040160405180910390fd5b610a5033836124d9565b6001600160a01b03821633141561191b576040517fb06307db00000000000000000000000000000000000000000000000000000000815260040160405180910390fd5b3360008181526006602090815260408083206001600160a01b03871680855290835292819020805460ff191686151590811790915590519081529192917f17307eab39ab6107e8899845ad3d59bd9653f200f220920489ca2b5937696c31910160405180910390a35050565b6009546001600160a01b031633146119cf5760405162461bcd60e51b8152602060048201819052602482015260008051602061315683398151915260448201526064016109e2565b60006119f36000546001600160801b03600160801b82048116918116919091031690565b905082611a13576040516305cd3f1d60e31b815260040160405180910390fd5b601254831115611a365760405163546f10eb60e11b815260040160405180910390fd5b601054611a438483612fef565b1115611a62576040516352df9fe560e01b815260040160405180910390fd5b610bfe82846124d9565b611a778484846120d2565b611a83848484846124f3565b611aa0576040516368d2bf6b60e11b815260040160405180910390fd5b50505050565b600c80546116259061307d565b6060611abe82612035565b611af4576040517f25dca1e600000000000000000000000000000000000000000000000000000000815260040160405180910390fd5b60135460ff16158015611b095750600f548210155b15611b1b57600d8054610d369061307d565b60015b6014548111611bb357600081815260156020526040902060010154831015611ba157600081815260156020526040902054611b59908461303a565b6000828152601560205260409020909350600201611b7684612602565b600c604051602001611b8a93929190612ed2565b604051602081830303815290604052915050919050565b80611bab816130b8565b915050611b1e565b5050604080516020810190915260008152919050565b611bed60405180606001604052806000815260200160008152602001606081525090565b601560008381526020019081526020016000206040518060600160405290816000820154815260200160018201548152602001600282018054611c2f9061307d565b80601f0160208091040260200160405190810160405280929190818152602001828054611c5b9061307d565b8015611ca85780601f10611c7d57610100808354040283529160200191611ca8565b820191906000526020600020905b815481529060010190602001808311611c8b57829003601f168201915b5050505050815250509050919050565b600e80546116259061307d565b6009546001600160a01b03163314611d0d5760405162461bcd60e51b8152602060048201819052602482015260008051602061315683398151915260448201526064016109e2565b8051610a5090600c9060208401906129d9565b6009546001600160a01b03163314611d685760405162461bcd60e51b8152602060048201819052602482015260008051602061315683398151915260448201526064016109e2565b8051610a5090600d9060208401906129d9565b6009546001600160a01b03163314611dc35760405162461bcd60e51b8152602060048201819052602482015260008051602061315683398151915260448201526064016109e2565b6001600160a01b038116611e3f5760405162461bcd60e51b815260206004820152602660248201527f4f776e61626c653a206e6577206f776e657220697320746865207a65726f206160448201527f646472657373000000000000000000000000000000000000000000000000000060648201526084016109e2565b611e488161247a565b50565b60156020526000908152604090208054600182015460028301805492939192611e739061307d565b80601f0160208091040260200160405190810160405280929190818152602001828054611e9f9061307d565b8015611eec5780601f10611ec157610100808354040283529160200191611eec565b820191906000526020600020905b815481529060010190602001808311611ecf57829003601f168201915b5050505050905083565b60006001600160e01b0319821663152a902d60e11b1480610998575061099882612734565b6127106bffffffffffffffffffffffff82161115611fa15760405162461bcd60e51b815260206004820152602a60248201527f455243323938313a20726f79616c7479206665652077696c6c2065786365656460448201527f2073616c6550726963650000000000000000000000000000000000000000000060648201526084016109e2565b6001600160a01b038216611ff75760405162461bcd60e51b815260206004820152601960248201527f455243323938313a20696e76616c69642072656365697665720000000000000060448201526064016109e2565b604080518082019091526001600160a01b039092168083526bffffffffffffffffffffffff9091166020909201829052600160a01b90910217600755565b600080546001600160801b031682108015610998575050600090815260036020526040902054600160e01b900460ff161590565b600082815260056020526040808220805473ffffffffffffffffffffffffffffffffffffffff19166001600160a01b0387811691821790925591518593918516917f8c5be1e5ebec7d5bd14f71427d1e84f3dd0314c0f7b2291e5b200ac8c7c3b92591a4505050565b60006120dd8261233d565b80519091506000906001600160a01b0316336001600160a01b0316148061210b5750815161210b90336108d6565b8061212657503361211b84610ae6565b6001600160a01b0316145b90508061215f576040517f59c896be00000000000000000000000000000000000000000000000000000000815260040160405180910390fd5b846001600160a01b031682600001516001600160a01b0316146121ae576040517fa114810000000000000000000000000000000000000000000000000000000000815260040160405180910390fd5b6001600160a01b0384166121ee576040517fea553b3400000000000000000000000000000000000000000000000000000000815260040160405180910390fd5b6121fe6000848460000151612069565b6001600160a01b038581166000908152600460209081526040808320805467ffffffffffffffff1980821667ffffffffffffffff92831660001901831617909255898616808652838620805493841693831660019081018416949094179055898652600390945282852080546001600160e01b031916909417600160a01b4290921691909102179092559086018083529120549091166122f3576000546001600160801b03168110156122f3578251600082815260036020908152604090912080549186015167ffffffffffffffff16600160a01b026001600160e01b03199092166001600160a01b03909316929092171790555b5082846001600160a01b0316866001600160a01b03167fddf252ad1be2c89b69c2b068fc378daa952ba7f163c4a11628f55a4df523b3ef60405160405180910390a45b5050505050565b60408051606081018252600080825260208201819052918101829052905482906001600160801b031681101561244857600081815260036020908152604091829020825160608101845290546001600160a01b0381168252600160a01b810467ffffffffffffffff1692820192909252600160e01b90910460ff161515918101829052906124465780516001600160a01b0316156123dc579392505050565b5060001901600081815260036020908152604091829020825160608101845290546001600160a01b038116808352600160a01b820467ffffffffffffffff1693830193909352600160e01b900460ff1615159281019290925215612441579392505050565b6123dc565b505b6040517fdf2d9b4200000000000000000000000000000000000000000000000000000000815260040160405180910390fd5b600980546001600160a01b0383811673ffffffffffffffffffffffffffffffffffffffff19831681179093556040519116919082907f8be0079c531659141344cd1fd0a4f28419497f9722a3daafe3b4186f6b6457e090600090a35050565b610a50828260405180602001604052806000815250612803565b60006001600160a01b0384163b156125f657604051630a85bd0160e11b81526001600160a01b0385169063150b7a0290612537903390899088908890600401612f05565b602060405180830381600087803b15801561255157600080fd5b505af1925050508015612581575060408051601f3d908101601f1916820190925261257e91810190612d15565b60015b6125dc573d8080156125af576040519150601f19603f3d011682016040523d82523d6000602084013e6125b4565b606091505b5080516125d4576040516368d2bf6b60e11b815260040160405180910390fd5b805181602001fd5b6001600160e01b031916630a85bd0160e11b1490506125fa565b5060015b949350505050565b60608161264257505060408051808201909152600181527f3000000000000000000000000000000000000000000000000000000000000000602082015290565b8160005b811561266c5780612656816130b8565b91506126659050600a83613007565b9150612646565b60008167ffffffffffffffff81111561268757612687613129565b6040519080825280601f01601f1916602001820160405280156126b1576020820181803683370190505b5090505b84156125fa576126c660018361303a565b91506126d3600a866130d3565b6126de906030612fef565b60f81b8183815181106126f3576126f3613113565b60200101907effffffffffffffffffffffffffffffffffffffffffffffffffffffffffffff1916908160001a90535061272d600a86613007565b94506126b5565b60006001600160e01b031982167f80ac58cd00000000000000000000000000000000000000000000000000000000148061279757506001600160e01b031982167f5b5e139f00000000000000000000000000000000000000000000000000000000145b806127cb57506001600160e01b031982167f780e9d6300000000000000000000000000000000000000000000000000000000145b8061099857507f01ffc9a7000000000000000000000000000000000000000000000000000000006001600160e01b0319831614610998565b610bfe83838360016000546001600160801b03166001600160a01b038516612857576040517f2e07630000000000000000000000000000000000000000000000000000000000815260040160405180910390fd5b8361288e576040517fb562e8dd00000000000000000000000000000000000000000000000000000000815260040160405180910390fd5b6001600160a01b038516600081815260046020908152604080832080546fffffffffffffffffffffffffffffffff19811667ffffffffffffffff8083168c0181169182176801000000000000000067ffffffffffffffff1990941690921783900481168c018116909202179091558584526003909252822080546001600160e01b031916909317600160a01b42909216919091021790915581905b858110156129aa5760405182906001600160a01b038916906000907fddf252ad1be2c89b69c2b068fc378daa952ba7f163c4a11628f55a4df523b3ef908290a4838015612980575061297e60008884886124f3565b155b1561299e576040516368d2bf6b60e11b815260040160405180910390fd5b60019182019101612929565b50600080546fffffffffffffffffffffffffffffffff19166001600160801b0392909216919091179055612336565b8280546129e59061307d565b90600052602060002090601f016020900481019282612a075760008555612a4d565b82601f10612a2057805160ff1916838001178555612a4d565b82800160010185558215612a4d579182015b82811115612a4d578251825591602001919060010190612a32565b50612a59929150612a5d565b5090565b5b80821115612a595760008155600101612a5e565b600067ffffffffffffffff80841115612a8d57612a8d613129565b604051601f8501601f19908116603f01168101908282118183101715612ab557612ab5613129565b81604052809350858152868686011115612ace57600080fd5b858560208301376000602087830101525050509392505050565b80356001600160a01b0381168114612aff57600080fd5b919050565b80358015158114612aff57600080fd5b600082601f830112612b2557600080fd5b612b3483833560208501612a72565b9392505050565b600060208284031215612b4d57600080fd5b612b3482612ae8565b60008060408385031215612b6957600080fd5b612b7283612ae8565b9150612b8060208401612ae8565b90509250929050565b600080600060608486031215612b9e57600080fd5b612ba784612ae8565b9250612bb560208501612ae8565b9150604084013590509250925092565b60008060008060808587031215612bdb57600080fd5b612be485612ae8565b9350612bf260208601612ae8565b925060408501359150606085013567ffffffffffffffff811115612c1557600080fd5b8501601f81018713612c2657600080fd5b612c3587823560208401612a72565b91505092959194509250565b60008060408385031215612c5457600080fd5b612c5d83612ae8565b9150612b8060208401612b04565b60008060408385031215612c7e57600080fd5b612c8783612ae8565b946020939093013593505050565b60008060408385031215612ca857600080fd5b612cb183612ae8565b915060208301356bffffffffffffffffffffffff81168114612cd257600080fd5b809150509250929050565b600060208284031215612cef57600080fd5b612b3482612b04565b600060208284031215612d0a57600080fd5b8135612b348161313f565b600060208284031215612d2757600080fd5b8151612b348161313f565b600060208284031215612d4457600080fd5b813567ffffffffffffffff811115612d5b57600080fd5b6125fa84828501612b14565b600060208284031215612d7957600080fd5b5035919050565b60008060408385031215612d9357600080fd5b82359150612b8060208401612ae8565b60008060408385031215612db657600080fd5b82359150602083013567ffffffffffffffff811115612dd457600080fd5b612de085828601612b14565b9150509250929050565b60008060408385031215612dfd57600080fd5b50508035926020909101359150565b60008151808452612e24816020860160208601613051565b601f01601f19169290920160200192915050565b8054600090600181811c9080831680612e5257607f831692505b6020808410821415612e7457634e487b7160e01b600052602260045260246000fd5b818015612e885760018114612e9957612ec6565b60ff19861689528489019650612ec6565b60008881526020902060005b86811015612ebe5781548b820152908501908301612ea5565b505084890196505b50505050505092915050565b6000612ede8286612e38565b8451612eee818360208901613051565b612efa81830186612e38565b979650505050505050565b60006001600160a01b03808716835280861660208401525083604083015260806060830152612f376080830184612e0c565b9695505050505050565b6020808252825182820181905260009190848201906040850190845b81811015612f7957835183529284019291840191600101612f5d565b50909695505050505050565b602081526000612b346020830184612e0c565b602081528151602082015260208201516040820152600060408301516060808401526125fa6080840182612e0c565b838152826020820152606060408201526000612fe66060830184612e0c565b95945050505050565b60008219821115613002576130026130e7565b500190565b600082613016576130166130fd565b500490565b6000816000190483118215151615613035576130356130e7565b500290565b60008282101561304c5761304c6130e7565b500390565b60005b8381101561306c578181015183820152602001613054565b83811115611aa05750506000910152565b600181811c9082168061309157607f821691505b602082108114156130b257634e487b7160e01b600052602260045260246000fd5b50919050565b60006000198214156130cc576130cc6130e7565b5060010190565b6000826130e2576130e26130fd565b500690565b634e487b7160e01b600052601160045260246000fd5b634e487b7160e01b600052601260045260246000fd5b634e487b7160e01b600052603260045260246000fd5b634e487b7160e01b600052604160045260246000fd5b6001600160e01b031981168114611e4857600080fdfe4f776e61626c653a2063616c6c6572206973206e6f7420746865206f776e6572a2646970667358221220d4d16f23f6e2e5acb382fe7afd5e83a7ad89eabce0a810847f5573bab065136b64736f6c63430008070033",
  "linkReferences": {},
  "deployedLinkReferences": {}
}