{
  "_format": "hh-sol-artifact-1",
  "contractName": "ResearchFundingClub",
  "sourceName": "contracts/ResearchFundingClubFast.sol",
  "abi": [
    {
      "inputs": [
        {
          "internalType": "uint96",
          "name": "_royaltyFeesInBips",
          "type": "uint96"
        },
        {
          "internalType": "string",
          "name": "_notRevealedURI",
          "type": "string"
        }
      ],
      "stateMutability": "nonpayable",
      "type": "constructor"
    },
    {
      "inputs": [],
      "name": "ApprovalCallerNotOwnerNorApproved",
      "type": "error"
    },
    {
      "inputs": [],
      "name": "ApprovalQueryForNonexistentToken",
      "type": "error"
    },
    {
      "inputs": [],
      "name": "ApprovalToCurrentOwner",
      "type": "error"
    },
    {
      "inputs": [],
      "name": "ApproveToCaller",
      "type": "error"
    },
    {
      "inputs": [],
      "name": "BalanceQueryForZeroAddress",
      "type": "error"
    },
    {
      "inputs": [],
      "name": "CollectionNotRevealedYet",
      "type": "error"
    },
    {
      "inputs": [],
      "name": "ContractPaused",
      "type": "error"
    },
    {
      "inputs": [],
      "name": "InsufficientFunds",
      "type": "error"
    },
    {
      "inputs": [],
      "name": "MaxPerNFTAddrExceeded",
      "type": "error"
    },
    {
      "inputs": [],
      "name": "MintToZeroAddress",
      "type": "error"
    },
    {
      "inputs": [],
      "name": "MintZeroQuantity",
      "type": "error"
    },
    {
      "inputs": [],
      "name": "OwnerIndexOutOfBounds",
      "type": "error"
    },
    {
      "inputs": [],
      "name": "OwnerQueryForNonexistentToken",
      "type": "error"
    },
    {
      "inputs": [],
      "name": "SaleIncomplete",
      "type": "error"
    },
    {
      "inputs": [],
      "name": "SoldOut",
      "type": "error"
    },
    {
      "inputs": [],
      "name": "TokenIndexOutOfBounds",
      "type": "error"
    },
    {
      "inputs": [],
      "name": "TransferCallerNotOwnerNorApproved",
      "type": "error"
    },
    {
      "inputs": [],
      "name": "TransferFromIncorrectOwner",
      "type": "error"
    },
    {
      "inputs": [],
      "name": "TransferToNonERC721ReceiverImplementer",
      "type": "error"
    },
    {
      "inputs": [],
      "name": "TransferToZeroAddress",
      "type": "error"
    },
    {
      "inputs": [],
      "name": "URIQueryForNonexistentTokenRFC",
      "type": "error"
    },
    {
      "inputs": [],
      "name": "ZeroMintFailed",
      "type": "error"
    },
    {
      "anonymous": false,
      "inputs": [
        {
          "indexed": true,
          "internalType": "address",
          "name": "owner",
          "type": "address"
        },
        {
          "indexed": true,
          "internalType": "address",
          "name": "approved",
          "type": "address"
        },
        {
          "indexed": true,
          "internalType": "uint256",
          "name": "tokenId",
          "type": "uint256"
        }
      ],
      "name": "Approval",
      "type": "event"
    },
    {
      "anonymous": false,
      "inputs": [
        {
          "indexed": true,
          "internalType": "address",
          "name": "owner",
          "type": "address"
        },
        {
          "indexed": true,
          "internalType": "address",
          "name": "operator",
          "type": "address"
        },
        {
          "indexed": false,
          "internalType": "bool",
          "name": "approved",
          "type": "bool"
        }
      ],
      "name": "ApprovalForAll",
      "type": "event"
    },
    {
      "anonymous": false,
      "inputs": [
        {
          "indexed": true,
          "internalType": "address",
          "name": "previousOwner",
          "type": "address"
        },
        {
          "indexed": true,
          "internalType": "address",
          "name": "newOwner",
          "type": "address"
        }
      ],
      "name": "OwnershipTransferred",
      "type": "event"
    },
    {
      "anonymous": false,
      "inputs": [
        {
          "indexed": true,
          "internalType": "address",
          "name": "from",
          "type": "address"
        },
        {
          "indexed": true,
          "internalType": "address",
          "name": "to",
          "type": "address"
        },
        {
          "indexed": true,
          "internalType": "uint256",
          "name": "tokenId",
          "type": "uint256"
        }
      ],
      "name": "Transfer",
      "type": "event"
    },
    {
      "inputs": [],
      "name": "MAX_PER_MINT",
      "outputs": [
        {
          "internalType": "uint256",
          "name": "",
          "type": "uint256"
        }
      ],
      "stateMutability": "view",
      "type": "function"
    },
    {
      "inputs": [],
      "name": "MAX_SUPPLY",
      "outputs": [
        {
          "internalType": "uint256",
          "name": "",
          "type": "uint256"
        }
      ],
      "stateMutability": "view",
      "type": "function"
    },
    {
      "inputs": [],
      "name": "MIN_SUPPLY",
      "outputs": [
        {
          "internalType": "uint256",
          "name": "",
          "type": "uint256"
        }
      ],
      "stateMutability": "view",
      "type": "function"
    },
    {
      "inputs": [],
      "name": "PRICE",
      "outputs": [
        {
          "internalType": "uint256",
          "name": "",
          "type": "uint256"
        }
      ],
      "stateMutability": "view",
      "type": "function"
    },
    {
      "inputs": [
        {
          "internalType": "uint256",
          "name": "_mintAmount",
          "type": "uint256"
        },
        {
          "internalType": "address",
          "name": "destination",
          "type": "address"
        }
      ],
      "name": "airDrop",
      "outputs": [],
      "stateMutability": "nonpayable",
      "type": "function"
    },
    {
      "inputs": [
        {
          "internalType": "address",
          "name": "to",
          "type": "address"
        },
        {
          "internalType": "uint256",
          "name": "tokenId",
          "type": "uint256"
        }
      ],
      "name": "approve",
      "outputs": [],
      "stateMutability": "nonpayable",
      "type": "function"
    },
    {
      "inputs": [
        {
          "internalType": "address",
          "name": "owner",
          "type": "address"
        }
      ],
      "name": "balanceOf",
      "outputs": [
        {
          "internalType": "uint256",
          "name": "",
          "type": "uint256"
        }
      ],
      "stateMutability": "view",
      "type": "function"
    },
    {
      "inputs": [],
      "name": "baseExtension",
      "outputs": [
        {
          "internalType": "string",
          "name": "",
          "type": "string"
        }
      ],
      "stateMutability": "view",
      "type": "function"
    },
    {
      "inputs": [],
      "name": "baseTokenURI",
      "outputs": [
        {
          "internalType": "string",
          "name": "",
          "type": "string"
        }
      ],
      "stateMutability": "view",
      "type": "function"
    },
    {
      "inputs": [
        {
          "internalType": "uint256",
          "name": "_collectionID",
          "type": "uint256"
        }
      ],
      "name": "baseURI",
      "outputs": [
        {
          "internalType": "string",
          "name": "",
          "type": "string"
        }
      ],
      "stateMutability": "view",
      "type": "function"
    },
    {
      "inputs": [],
      "name": "charityWallet",
      "outputs": [
        {
          "internalType": "address",
          "name": "",
          "type": "address"
        }
      ],
      "stateMutability": "view",
      "type": "function"
    },
    {
      "inputs": [],
      "name": "collectionID",
      "outputs": [
        {
          "internalType": "uint256",
          "name": "",
          "type": "uint256"
        }
      ],
      "stateMutability": "view",
      "type": "function"
    },
    {
      "inputs": [
        {
          "internalType": "uint256",
          "name": "",
          "type": "uint256"
        }
      ],
      "name": "collections",
      "outputs": [
        {
          "internalType": "uint256",
          "name": "minSupply",
          "type": "uint256"
        },
        {
          "internalType": "uint256",
          "name": "maxSupply",
          "type": "uint256"
        },
        {
          "internalType": "string",
          "name": "baseURI",
          "type": "string"
        }
      ],
      "stateMutability": "view",
      "type": "function"
    },
    {
      "inputs": [],
      "name": "devWallet",
      "outputs": [
        {
          "internalType": "address",
          "name": "",
          "type": "address"
        }
      ],
      "stateMutability": "view",
      "type": "function"
    },
    {
      "inputs": [
        {
          "internalType": "uint256",
          "name": "tokenId",
          "type": "uint256"
        }
      ],
      "name": "getApproved",
      "outputs": [
        {
          "internalType": "address",
          "name": "",
          "type": "address"
        }
      ],
      "stateMutability": "view",
      "type": "function"
    },
    {
      "inputs": [
        {
          "internalType": "uint256",
          "name": "_id",
          "type": "uint256"
        }
      ],
      "name": "getCollectionInfo",
      "outputs": [
        {
          "components": [
            {
              "internalType": "uint256",
              "name": "minSupply",
              "type": "uint256"
            },
            {
              "internalType": "uint256",
              "name": "maxSupply",
              "type": "uint256"
            },
            {
              "internalType": "string",
              "name": "baseURI",
              "type": "string"
            }
          ],
          "internalType": "struct ResearchFundingClub.CollectionData",
          "name": "",
          "type": "tuple"
        }
      ],
      "stateMutability": "view",
      "type": "function"
    },
    {
      "inputs": [
        {
          "internalType": "address",
          "name": "owner",
          "type": "address"
        },
        {
          "internalType": "address",
          "name": "operator",
          "type": "address"
        }
      ],
      "name": "isApprovedForAll",
      "outputs": [
        {
          "internalType": "bool",
          "name": "",
          "type": "bool"
        }
      ],
      "stateMutability": "view",
      "type": "function"
    },
    {
      "inputs": [
        {
          "internalType": "uint256",
          "name": "_mintAmount",
          "type": "uint256"
        }
      ],
      "name": "mint",
      "outputs": [],
      "stateMutability": "payable",
      "type": "function"
    },
    {
      "inputs": [],
      "name": "name",
      "outputs": [
        {
          "internalType": "string",
          "name": "",
          "type": "string"
        }
      ],
      "stateMutability": "view",
      "type": "function"
    },
    {
      "inputs": [
        {
          "internalType": "uint256",
          "name": "_newMaxSupply",
          "type": "uint256"
        }
      ],
      "name": "newDrop",
      "outputs": [],
      "stateMutability": "nonpayable",
      "type": "function"
    },
    {
      "inputs": [],
      "name": "notRevealedURI",
      "outputs": [
        {
          "internalType": "string",
          "name": "",
          "type": "string"
        }
      ],
      "stateMutability": "view",
      "type": "function"
    },
    {
      "inputs": [],
      "name": "owner",
      "outputs": [
        {
          "internalType": "address",
          "name": "",
          "type": "address"
        }
      ],
      "stateMutability": "view",
      "type": "function"
    },
    {
      "inputs": [
        {
          "internalType": "uint256",
          "name": "tokenId",
          "type": "uint256"
        }
      ],
      "name": "ownerOf",
      "outputs": [
        {
          "internalType": "address",
          "name": "",
          "type": "address"
        }
      ],
      "stateMutability": "view",
      "type": "function"
    },
    {
      "inputs": [
        {
          "internalType": "bool",
          "name": "_state",
          "type": "bool"
        }
      ],
      "name": "pause",
      "outputs": [],
      "stateMutability": "nonpayable",
      "type": "function"
    },
    {
      "inputs": [],
      "name": "paused",
      "outputs": [
        {
          "internalType": "bool",
          "name": "",
          "type": "bool"
        }
      ],
      "stateMutability": "view",
      "type": "function"
    },
    {
      "inputs": [],
      "name": "renounceOwnership",
      "outputs": [],
      "stateMutability": "nonpayable",
      "type": "function"
    },
    {
      "inputs": [
        {
          "internalType": "string",
          "name": "_newBaseURI",
          "type": "string"
        }
      ],
      "name": "reveal",
      "outputs": [],
      "stateMutability": "nonpayable",
      "type": "function"
    },
    {
      "inputs": [],
      "name": "revealed",
      "outputs": [
        {
          "internalType": "bool",
          "name": "",
          "type": "bool"
        }
      ],
      "stateMutability": "view",
      "type": "function"
    },
    {
      "inputs": [
        {
          "internalType": "uint256",
          "name": "_tokenId",
          "type": "uint256"
        },
        {
          "internalType": "uint256",
          "name": "_salePrice",
          "type": "uint256"
        }
      ],
      "name": "royaltyInfo",
      "outputs": [
        {
          "internalType": "address",
          "name": "",
          "type": "address"
        },
        {
          "internalType": "uint256",
          "name": "",
          "type": "uint256"
        }
      ],
      "stateMutability": "view",
      "type": "function"
    },
    {
      "inputs": [
        {
          "internalType": "address",
          "name": "from",
          "type": "address"
        },
        {
          "internalType": "address",
          "name": "to",
          "type": "address"
        },
        {
          "internalType": "uint256",
          "name": "tokenId",
          "type": "uint256"
        }
      ],
      "name": "safeTransferFrom",
      "outputs": [],
      "stateMutability": "nonpayable",
      "type": "function"
    },
    {
      "inputs": [
        {
          "internalType": "address",
          "name": "from",
          "type": "address"
        },
        {
          "internalType": "address",
          "name": "to",
          "type": "address"
        },
        {
          "internalType": "uint256",
          "name": "tokenId",
          "type": "uint256"
        },
        {
          "internalType": "bytes",
          "name": "_data",
          "type": "bytes"
        }
      ],
      "name": "safeTransferFrom",
      "outputs": [],
      "stateMutability": "nonpayable",
      "type": "function"
    },
    {
      "inputs": [
        {
          "internalType": "address",
          "name": "operator",
          "type": "address"
        },
        {
          "internalType": "bool",
          "name": "approved",
          "type": "bool"
        }
      ],
      "name": "setApprovalForAll",
      "outputs": [],
      "stateMutability": "nonpayable",
      "type": "function"
    },
    {
      "inputs": [
        {
          "internalType": "string",
          "name": "_newBaseExtension",
          "type": "string"
        }
      ],
      "name": "setBaseExtension",
      "outputs": [],
      "stateMutability": "nonpayable",
      "type": "function"
    },
    {
      "inputs": [
        {
          "internalType": "uint256",
          "name": "_collectionID",
          "type": "uint256"
        },
        {
          "internalType": "string",
          "name": "_baseTokenURI",
          "type": "string"
        }
      ],
      "name": "setBaseURI",
      "outputs": [],
      "stateMutability": "nonpayable",
      "type": "function"
    },
    {
      "inputs": [
        {
          "internalType": "uint256",
          "name": "_newCost",
          "type": "uint256"
        }
      ],
      "name": "setCost",
      "outputs": [],
      "stateMutability": "nonpayable",
      "type": "function"
    },
    {
      "inputs": [
        {
          "internalType": "string",
          "name": "_notRevealedURI",
          "type": "string"
        }
      ],
      "name": "setNotRevealedURI",
      "outputs": [],
      "stateMutability": "nonpayable",
      "type": "function"
    },
    {
      "inputs": [
        {
          "internalType": "address",
          "name": "_receiver",
          "type": "address"
        },
        {
          "internalType": "uint96",
          "name": "_royaltyFeesInBips",
          "type": "uint96"
        }
      ],
      "name": "setRoyaltyInfo",
      "outputs": [],
      "stateMutability": "nonpayable",
      "type": "function"
    },
    {
      "inputs": [
        {
          "internalType": "uint256",
          "name": "_limit",
          "type": "uint256"
        }
      ],
      "name": "setmaxMintAmount",
      "outputs": [],
      "stateMutability": "nonpayable",
      "type": "function"
    },
    {
      "inputs": [
        {
          "internalType": "uint256",
          "name": "_limit",
          "type": "uint256"
        }
      ],
      "name": "setmaxSupply",
      "outputs": [],
      "stateMutability": "nonpayable",
      "type": "function"
    },
    {
      "inputs": [
        {
          "internalType": "bytes4",
          "name": "interfaceId",
          "type": "bytes4"
        }
      ],
      "name": "supportsInterface",
      "outputs": [
        {
          "internalType": "bool",
          "name": "",
          "type": "bool"
        }
      ],
      "stateMutability": "view",
      "type": "function"
    },
    {
      "inputs": [],
      "name": "symbol",
      "outputs": [
        {
          "internalType": "string",
          "name": "",
          "type": "string"
        }
      ],
      "stateMutability": "view",
      "type": "function"
    },
    {
      "inputs": [
        {
          "internalType": "uint256",
          "name": "index",
          "type": "uint256"
        }
      ],
      "name": "tokenByIndex",
      "outputs": [
        {
          "internalType": "uint256",
          "name": "",
          "type": "uint256"
        }
      ],
      "stateMutability": "view",
      "type": "function"
    },
    {
      "inputs": [
        {
          "internalType": "address",
          "name": "owner",
          "type": "address"
        },
        {
          "internalType": "uint256",
          "name": "index",
          "type": "uint256"
        }
      ],
      "name": "tokenOfOwnerByIndex",
      "outputs": [
        {
          "internalType": "uint256",
          "name": "",
          "type": "uint256"
        }
      ],
      "stateMutability": "view",
      "type": "function"
    },
    {
      "inputs": [
        {
          "internalType": "uint256",
          "name": "tokenId",
          "type": "uint256"
        }
      ],
      "name": "tokenURI",
      "outputs": [
        {
          "internalType": "string",
          "name": "",
          "type": "string"
        }
      ],
      "stateMutability": "view",
      "type": "function"
    },
    {
      "inputs": [
        {
          "internalType": "address",
          "name": "_owner",
          "type": "address"
        }
      ],
      "name": "tokensOfOwner",
      "outputs": [
        {
          "internalType": "uint256[]",
          "name": "",
          "type": "uint256[]"
        }
      ],
      "stateMutability": "view",
      "type": "function"
    },
    {
      "inputs": [],
      "name": "totalSupply",
      "outputs": [
        {
          "internalType": "uint256",
          "name": "",
          "type": "uint256"
        }
      ],
      "stateMutability": "view",
      "type": "function"
    },
    {
      "inputs": [
        {
          "internalType": "address",
          "name": "from",
          "type": "address"
        },
        {
          "internalType": "address",
          "name": "to",
          "type": "address"
        },
        {
          "internalType": "uint256",
          "name": "tokenId",
          "type": "uint256"
        }
      ],
      "name": "transferFrom",
      "outputs": [],
      "stateMutability": "nonpayable",
      "type": "function"
    },
    {
      "inputs": [
        {
          "internalType": "address",
          "name": "newOwner",
          "type": "address"
        }
      ],
      "name": "transferOwnership",
      "outputs": [],
      "stateMutability": "nonpayable",
      "type": "function"
    },
    {
      "inputs": [],
      "name": "withdraw",
      "outputs": [],
      "stateMutability": "nonpayable",
      "type": "function"
    }
  ],
  "bytecode": "0x600b805460ff1916600117905560c06040526005608081905264173539b7b760d91b60a09081526200003591600c919062000361565b506000600f5560196010556702c68af0bb140000601155600160128190556013805460ff19169055601455601680546001600160a01b0319908116737158d45648167222c89351cebf618f413bad08fb17909155601780549091167381e3cba331c2036044a62b54524a44d319d0e1ae179055348015620000b557600080fd5b50604051620034a7380380620034a7833981016040819052620000d89162000407565b604080518082018252601581527f52657365617263682046756e64696e6720436c7562000000000000000000000060208083019182528351808501909452600384526252464360e81b908401528151919291620001389160019162000361565b5080516200014e90600290602084019062000361565b5050506200016b620001656200019a60201b60201c565b6200019e565b6001600a556200017c3383620001f0565b80516200019190600d90602084019062000361565b5050506200055a565b3390565b600980546001600160a01b038381166001600160a01b0319831681179093556040519116919082907f8be0079c531659141344cd1fd0a4f28419497f9722a3daafe3b4186f6b6457e090600090a35050565b6009546001600160a01b03163314620002505760405162461bcd60e51b815260206004820181905260248201527f4f776e61626c653a2063616c6c6572206973206e6f7420746865206f776e657260448201526064015b60405180910390fd5b6200025c828262000260565b5050565b6127106001600160601b0382161115620002d05760405162461bcd60e51b815260206004820152602a60248201527f455243323938313a20726f79616c7479206665652077696c6c206578636565646044820152692073616c65507269636560b01b606482015260840162000247565b6001600160a01b038216620003285760405162461bcd60e51b815260206004820152601960248201527f455243323938313a20696e76616c696420726563656976657200000000000000604482015260640162000247565b604080518082019091526001600160a01b039092168083526001600160601b039091166020909201829052600160a01b90910217600755565b8280546200036f9062000507565b90600052602060002090601f016020900481019282620003935760008555620003de565b82601f10620003ae57805160ff1916838001178555620003de565b82800160010185558215620003de579182015b82811115620003de578251825591602001919060010190620003c1565b50620003ec929150620003f0565b5090565b5b80821115620003ec5760008155600101620003f1565b600080604083850312156200041b57600080fd5b82516001600160601b03811681146200043357600080fd5b602084810151919350906001600160401b03808211156200045357600080fd5b818601915086601f8301126200046857600080fd5b8151818111156200047d576200047d62000544565b604051601f8201601f19908116603f01168101908382118183101715620004a857620004a862000544565b816040528281528986848701011115620004c157600080fd5b600093505b82841015620004e55784840186015181850187015292850192620004c6565b82841115620004f75760008684830101525b8096505050505050509250929050565b600181811c908216806200051c57607f821691505b602082108114156200053e57634e487b7160e01b600052602260045260246000fd5b50919050565b634e487b7160e01b600052604160045260246000fd5b612f3d806200056a6000396000f3fe60806040526004361061031e5760003560e01c80635c975abb116101a5578063a0712d68116100ec578063d4e4d3dd11610095578063e985e9c51161006f578063e985e9c5146108bb578063f2c4ce1e14610904578063f2fde38b14610924578063fdbda0ec1461094457600080fd5b8063d4e4d3dd14610859578063d547cfb714610886578063da3ef23f1461089b57600080fd5b8063b88d4fde116100c6578063b88d4fde14610804578063c668286214610824578063c87b56dd1461083957600080fd5b8063a0712d68146107b1578063a22cb465146107c4578063aed38015146107e457600080fd5b80637f00c7a61161014e5780638da5cb5b116101285780638da5cb5b1461075e5780638ea5220f1461077c57806395d89b411461079c57600080fd5b80637f00c7a6146106fb5780638462151c1461071b5780638d859f3e1461074857600080fd5b8063715018a61161017f578063715018a6146106b157806372250380146106c65780637b208769146106db57600080fd5b80635c975abb146106575780636352211e1461067157806370a082311461069157600080fd5b80632f745c591161026957806344a0d68a116102125780634f6ccce7116101ec5780634f6ccce714610607578063518302271461062757806358b33e691461064157600080fd5b806344a0d68a146105a75780634c261247146105c75780634c29bcf0146105e757600080fd5b806335917c641161024357806335917c641461055c5780633ccfd60b1461057257806342842e0e1461058757600080fd5b80632f745c591461050657806332cb6b0c1461052657806333cfcb9f1461053c57600080fd5b806309d42b30116102cb57806323b872dd116102a557806323b872dd146104875780632a55205a146104a75780632ccde4f6146104e657600080fd5b806309d42b301461041457806318160ddd14610438578063228025e81461046757600080fd5b806306fdde03116102fc57806306fdde031461039a578063081812fc146103bc578063095ea7b3146103f457600080fd5b806301ffc9a71461032357806302329a291461035857806302fa7c471461037a575b600080fd5b34801561032f57600080fd5b5061034361033e366004612a8a565b610973565b60405190151581526020015b60405180910390f35b34801561036457600080fd5b50610378610373366004612a6f565b61099e565b005b34801561038657600080fd5b50610378610395366004612a27565b6109fe565b3480156103a657600080fd5b506103af610a54565b60405161034f9190612d17565b3480156103c857600080fd5b506103dc6103d7366004612af9565b610ae6565b6040516001600160a01b03909116815260200161034f565b34801561040057600080fd5b5061037861040f3660046129fd565b610b2a565b34801561042057600080fd5b5061042a60125481565b60405190815260200161034f565b34801561044457600080fd5b5061042a6000546001600160801b03600160801b82048116918116919091031690565b34801561047357600080fd5b50610378610482366004612af9565b610bb8565b34801561049357600080fd5b506103786104a236600461291b565b610c05565b3480156104b357600080fd5b506104c76104c2366004612b7c565b610c10565b604080516001600160a01b03909316835260208301919091520161034f565b3480156104f257600080fd5b506103af610501366004612af9565b610ccb565b34801561051257600080fd5b5061042a6105213660046129fd565b610d70565b34801561053257600080fd5b5061042a60105481565b34801561054857600080fd5b50610378610557366004612b35565b610e6d565b34801561056857600080fd5b5061042a600f5481565b34801561057e57600080fd5b50610378610eda565b34801561059357600080fd5b506103786105a236600461291b565b6111db565b3480156105b357600080fd5b506103786105c2366004612af9565b6111f6565b3480156105d357600080fd5b506103786105e2366004612ac4565b611243565b3480156105f357600080fd5b50610378610602366004612af9565b611306565b34801561061357600080fd5b5061042a610622366004612af9565b6113f0565b34801561063357600080fd5b506013546103439060ff1681565b34801561064d57600080fd5b5061042a60145481565b34801561066357600080fd5b50600b546103439060ff1681565b34801561067d57600080fd5b506103dc61068c366004612af9565b61149b565b34801561069d57600080fd5b5061042a6106ac3660046128cd565b6114ad565b3480156106bd57600080fd5b506103786114fc565b3480156106d257600080fd5b506103af611550565b3480156106e757600080fd5b506016546103dc906001600160a01b031681565b34801561070757600080fd5b50610378610716366004612af9565b6115de565b34801561072757600080fd5b5061073b6107363660046128cd565b61162b565b60405161034f9190612cd3565b34801561075457600080fd5b5061042a60115481565b34801561076a57600080fd5b506009546001600160a01b03166103dc565b34801561078857600080fd5b506017546103dc906001600160a01b031681565b3480156107a857600080fd5b506103af6116cd565b6103786107bf366004612af9565b6116dc565b3480156107d057600080fd5b506103786107df3660046129d3565b6117de565b3480156107f057600080fd5b506103786107ff366004612b12565b611874565b34801561081057600080fd5b5061037861081f366004612957565b611959565b34801561083057600080fd5b506103af611993565b34801561084557600080fd5b506103af610854366004612af9565b6119a0565b34801561086557600080fd5b50610879610874366004612af9565b611a9d565b60405161034f9190612d2a565b34801561089257600080fd5b506103af611b8c565b3480156108a757600080fd5b506103786108b6366004612ac4565b611b99565b3480156108c757600080fd5b506103436108d63660046128e8565b6001600160a01b03918216600090815260066020908152604080832093909416825291909152205460ff1690565b34801561091057600080fd5b5061037861091f366004612ac4565b611bf4565b34801561093057600080fd5b5061037861093f3660046128cd565b611c4f565b34801561095057600080fd5b5061096461095f366004612af9565b611d08565b60405161034f93929190612d59565b60006001600160e01b0319821663152a902d60e11b1480610998575061099882611db3565b92915050565b6009546001600160a01b031633146109eb5760405162461bcd60e51b81526020600482018190526024820152600080516020612ee883398151915260448201526064015b60405180910390fd5b600b805460ff1916911515919091179055565b6009546001600160a01b03163314610a465760405162461bcd60e51b81526020600482018190526024820152600080516020612ee883398151915260448201526064016109e2565b610a508282611dd8565b5050565b606060018054610a6390612e0f565b80601f0160208091040260200160405190810160405280929190818152602001828054610a8f90612e0f565b8015610adc5780601f10610ab157610100808354040283529160200191610adc565b820191906000526020600020905b815481529060010190602001808311610abf57829003601f168201915b5050505050905090565b6000610af182611edf565b610b0e576040516333d1c03960e21b815260040160405180910390fd5b506000908152600560205260409020546001600160a01b031690565b6000610b358261149b565b9050806001600160a01b0316836001600160a01b03161415610b6a5760405163250fdee360e21b815260040160405180910390fd5b336001600160a01b03821614801590610b8a5750610b8881336108d6565b155b15610ba8576040516367d9dca160e11b815260040160405180910390fd5b610bb3838383611f13565b505050565b6009546001600160a01b03163314610c005760405162461bcd60e51b81526020600482018190526024820152600080516020612ee883398151915260448201526064016109e2565b601055565b610bb3838383611f7c565b60008281526008602090815260408083208151808301909252546001600160a01b038116808352600160a01b9091046bffffffffffffffffffffffff16928201929092528291610c8f5750604080518082019091526007546001600160a01b0381168252600160a01b90046bffffffffffffffffffffffff1660208201525b602081015160009061271090610cb3906bffffffffffffffffffffffff1687612dad565b610cbd9190612d99565b915196919550909350505050565b6000818152601560205260409020600201805460609190610ceb90612e0f565b80601f0160208091040260200160405190810160405280929190818152602001828054610d1790612e0f565b8015610d645780601f10610d3957610100808354040283529160200191610d64565b820191906000526020600020905b815481529060010190602001808311610d4757829003601f168201915b50505050509050919050565b6000610d7b836114ad565b8210610d9a576040516306ed618760e11b815260040160405180910390fd5b600080546001600160801b03169080805b83811015610e6757600081815260036020908152604091829020825160608101845290546001600160a01b0381168252600160a01b810467ffffffffffffffff1692820192909252600160e01b90910460ff161580159282019290925290610e135750610e5f565b80516001600160a01b031615610e2857805192505b876001600160a01b0316836001600160a01b03161415610e5d5786841415610e565750935061099892505050565b6001909301925b505b600101610dab565b50600080fd5b6009546001600160a01b03163314610eb55760405162461bcd60e51b81526020600482018190526024820152600080516020612ee883398151915260448201526064016109e2565b60008281526015602090815260409091208251610bb39260029092019184019061276b565b6009546001600160a01b03163314610f225760405162461bcd60e51b81526020600482018190526024820152600080516020612ee883398151915260448201526064016109e2565b6002600a541415610f755760405162461bcd60e51b815260206004820152601f60248201527f5265656e7472616e637947756172643a207265656e7472616e742063616c6c0060448201526064016109e2565b6002600a554780610fc85760405162461bcd60e51b815260206004820152601a60248201527f4e6f206574686572206c65667420746f2077697468647261772e00000000000060448201526064016109e2565b6016546000906001600160a01b03166064610fe447600a612dad565b610fee9190612d99565b604051600081818185875af1925050503d806000811461102a576040519150601f19603f3d011682016040523d82523d6000602084013e61102f565b606091505b50509050806110805760405162461bcd60e51b815260206004820152601860248201527f43686172697479205472616e73666572206661696c65642e000000000000000060448201526064016109e2565b6017546000906001600160a01b0316606461109c476005612dad565b6110a69190612d99565b604051600081818185875af1925050503d80600081146110e2576040519150601f19603f3d011682016040523d82523d6000602084013e6110e7565b606091505b50509050806111385760405162461bcd60e51b815260206004820152601a60248201527f446576656c6f706572205472616e73666572206661696c65642e00000000000060448201526064016109e2565b604051600090339047908381818185875af1925050503d806000811461117a576040519150601f19603f3d011682016040523d82523d6000602084013e61117f565b606091505b50509050806111d05760405162461bcd60e51b815260206004820152601660248201527f4f776e6572205472616e73666572206661696c65642e0000000000000000000060448201526064016109e2565b50506001600a555050565b610bb383838360405180602001604052806000815250611959565b6009546001600160a01b0316331461123e5760405162461bcd60e51b81526020600482018190526024820152600080516020612ee883398151915260448201526064016109e2565b601155565b6009546001600160a01b0316331461128b5760405162461bcd60e51b81526020600482018190526024820152600080516020612ee883398151915260448201526064016109e2565b60408051606081018252600f548152601054602080830191825282840185815260145460009081526015835294909420835181559151600183015592518051929391926112de926002850192019061276b565b50506013805460ff1916600117905550601480549060006112fe83612e4a565b919050555050565b6009546001600160a01b0316331461134e5760405162461bcd60e51b81526020600482018190526024820152600080516020612ee883398151915260448201526064016109e2565b6010546113736000546001600160801b03600160801b82048116918116919091031690565b146113915760405163034ba93760e51b815260040160405180910390fd5b60135460ff166113b457604051636e475bd160e11b815260040160405180910390fd5b601054600f8190555080601060008282546113cf9190612d81565b90915550506013805460ff19908116909155600b8054909116600117905550565b600080546001600160801b031681805b8281101561148157600081815260036020908152604091829020825160608101845290546001600160a01b0381168252600160a01b810467ffffffffffffffff1692820192909252600160e01b90910460ff1615159181018290529061147857858314156114715750949350505050565b6001909201915b50600101611400565b506040516329c8c00760e21b815260040160405180910390fd5b60006114a68261219b565b5192915050565b60006001600160a01b0382166114d6576040516323d3ad8160e21b815260040160405180910390fd5b506001600160a01b031660009081526004602052604090205467ffffffffffffffff1690565b6009546001600160a01b031633146115445760405162461bcd60e51b81526020600482018190526024820152600080516020612ee883398151915260448201526064016109e2565b61154e60006122bf565b565b600d805461155d90612e0f565b80601f016020809104026020016040519081016040528092919081815260200182805461158990612e0f565b80156115d65780601f106115ab576101008083540402835291602001916115d6565b820191906000526020600020905b8154815290600101906020018083116115b957829003601f168201915b505050505081565b6009546001600160a01b031633146116265760405162461bcd60e51b81526020600482018190526024820152600080516020612ee883398151915260448201526064016109e2565b601255565b60606000611638836114ad565b905060008167ffffffffffffffff81111561165557611655612ebb565b60405190808252806020026020018201604052801561167e578160200160208202803683370190505b50905060005b828110156116c5576116968582610d70565b8282815181106116a8576116a8612ea5565b6020908102919091010152806116bd81612e4a565b915050611684565b509392505050565b606060028054610a6390612e0f565b6009546001600160a01b0316331461178157600b5460ff16156117125760405163ab35696f60e01b815260040160405180910390fd5b80611730576040516305cd3f1d60e31b815260040160405180910390fd5b6012548111156117535760405163546f10eb60e11b815260040160405180910390fd5b806011546117619190612dad565b3410156117815760405163356680b760e01b815260040160405180910390fd5b60006117a56000546001600160801b03600160801b82048116918116919091031690565b6010549091506117b58383612d81565b11156117d4576040516352df9fe560e01b815260040160405180910390fd5b610a50338361231e565b6001600160a01b0382163314156118085760405163b06307db60e01b815260040160405180910390fd5b3360008181526006602090815260408083206001600160a01b03871680855290835292819020805460ff191686151590811790915590519081529192917f17307eab39ab6107e8899845ad3d59bd9653f200f220920489ca2b5937696c31910160405180910390a35050565b6009546001600160a01b031633146118bc5760405162461bcd60e51b81526020600482018190526024820152600080516020612ee883398151915260448201526064016109e2565b60006118e06000546001600160801b03600160801b82048116918116919091031690565b905082611900576040516305cd3f1d60e31b815260040160405180910390fd5b6012548311156119235760405163546f10eb60e11b815260040160405180910390fd5b6010546119308483612d81565b111561194f576040516352df9fe560e01b815260040160405180910390fd5b610bb3828461231e565b611964848484611f7c565b61197084848484612338565b61198d576040516368d2bf6b60e11b815260040160405180910390fd5b50505050565b600c805461155d90612e0f565b60606119ab82611edf565b6119c8576040516312ee50f360e11b815260040160405180910390fd5b60135460ff161580156119dd5750600f548210155b156119ef57600d8054610ceb90612e0f565b60015b6014548111611a8757600081815260156020526040902060010154831015611a7557600081815260156020526040902054611a2d9084612dcc565b6000828152601560205260409020909350600201611a4a84612447565b600c604051602001611a5e93929190612c64565b604051602081830303815290604052915050919050565b80611a7f81612e4a565b9150506119f2565b5050604080516020810190915260008152919050565b611ac160405180606001604052806000815260200160008152602001606081525090565b601560008381526020019081526020016000206040518060600160405290816000820154815260200160018201548152602001600282018054611b0390612e0f565b80601f0160208091040260200160405190810160405280929190818152602001828054611b2f90612e0f565b8015611b7c5780601f10611b5157610100808354040283529160200191611b7c565b820191906000526020600020905b815481529060010190602001808311611b5f57829003601f168201915b5050505050815250509050919050565b600e805461155d90612e0f565b6009546001600160a01b03163314611be15760405162461bcd60e51b81526020600482018190526024820152600080516020612ee883398151915260448201526064016109e2565b8051610a5090600c90602084019061276b565b6009546001600160a01b03163314611c3c5760405162461bcd60e51b81526020600482018190526024820152600080516020612ee883398151915260448201526064016109e2565b8051610a5090600d90602084019061276b565b6009546001600160a01b03163314611c975760405162461bcd60e51b81526020600482018190526024820152600080516020612ee883398151915260448201526064016109e2565b6001600160a01b038116611cfc5760405162461bcd60e51b815260206004820152602660248201527f4f776e61626c653a206e6577206f776e657220697320746865207a65726f206160448201526564647265737360d01b60648201526084016109e2565b611d05816122bf565b50565b60156020526000908152604090208054600182015460028301805492939192611d3090612e0f565b80601f0160208091040260200160405190810160405280929190818152602001828054611d5c90612e0f565b8015611da95780601f10611d7e57610100808354040283529160200191611da9565b820191906000526020600020905b815481529060010190602001808311611d8c57829003601f168201915b5050505050905083565b60006001600160e01b0319821663152a902d60e11b148061099857506109988261255d565b6127106bffffffffffffffffffffffff82161115611e4b5760405162461bcd60e51b815260206004820152602a60248201527f455243323938313a20726f79616c7479206665652077696c6c206578636565646044820152692073616c65507269636560b01b60648201526084016109e2565b6001600160a01b038216611ea15760405162461bcd60e51b815260206004820152601960248201527f455243323938313a20696e76616c69642072656365697665720000000000000060448201526064016109e2565b604080518082019091526001600160a01b039092168083526bffffffffffffffffffffffff9091166020909201829052600160a01b90910217600755565b600080546001600160801b031682108015610998575050600090815260036020526040902054600160e01b900460ff161590565b600082815260056020526040808220805473ffffffffffffffffffffffffffffffffffffffff19166001600160a01b0387811691821790925591518593918516917f8c5be1e5ebec7d5bd14f71427d1e84f3dd0314c0f7b2291e5b200ac8c7c3b92591a4505050565b6000611f878261219b565b80519091506000906001600160a01b0316336001600160a01b03161480611fb557508151611fb590336108d6565b80611fd0575033611fc584610ae6565b6001600160a01b0316145b905080611ff057604051632ce44b5f60e11b815260040160405180910390fd5b846001600160a01b031682600001516001600160a01b0316146120255760405162a1148160e81b815260040160405180910390fd5b6001600160a01b03841661204c57604051633a954ecd60e21b815260040160405180910390fd5b61205c6000848460000151611f13565b6001600160a01b038581166000908152600460209081526040808320805467ffffffffffffffff1980821667ffffffffffffffff92831660001901831617909255898616808652838620805493841693831660019081018416949094179055898652600390945282852080546001600160e01b031916909417600160a01b429092169190910217909255908601808352912054909116612151576000546001600160801b0316811015612151578251600082815260036020908152604090912080549186015167ffffffffffffffff16600160a01b026001600160e01b03199092166001600160a01b03909316929092171790555b5082846001600160a01b0316866001600160a01b03167fddf252ad1be2c89b69c2b068fc378daa952ba7f163c4a11628f55a4df523b3ef60405160405180910390a45b5050505050565b60408051606081018252600080825260208201819052918101829052905482906001600160801b03168110156122a657600081815260036020908152604091829020825160608101845290546001600160a01b0381168252600160a01b810467ffffffffffffffff1692820192909252600160e01b90910460ff161515918101829052906122a45780516001600160a01b03161561223a579392505050565b5060001901600081815260036020908152604091829020825160608101845290546001600160a01b038116808352600160a01b820467ffffffffffffffff1693830193909352600160e01b900460ff161515928101929092521561229f579392505050565b61223a565b505b604051636f96cda160e11b815260040160405180910390fd5b600980546001600160a01b0383811673ffffffffffffffffffffffffffffffffffffffff19831681179093556040519116919082907f8be0079c531659141344cd1fd0a4f28419497f9722a3daafe3b4186f6b6457e090600090a35050565b610a508282604051806020016040528060008152506125c8565b60006001600160a01b0384163b1561243b57604051630a85bd0160e11b81526001600160a01b0385169063150b7a029061237c903390899088908890600401612c97565b602060405180830381600087803b15801561239657600080fd5b505af19250505080156123c6575060408051601f3d908101601f191682019092526123c391810190612aa7565b60015b612421573d8080156123f4576040519150601f19603f3d011682016040523d82523d6000602084013e6123f9565b606091505b508051612419576040516368d2bf6b60e11b815260040160405180910390fd5b805181602001fd5b6001600160e01b031916630a85bd0160e11b14905061243f565b5060015b949350505050565b60608161246b5750506040805180820190915260018152600360fc1b602082015290565b8160005b8115612495578061247f81612e4a565b915061248e9050600a83612d99565b915061246f565b60008167ffffffffffffffff8111156124b0576124b0612ebb565b6040519080825280601f01601f1916602001820160405280156124da576020820181803683370190505b5090505b841561243f576124ef600183612dcc565b91506124fc600a86612e65565b612507906030612d81565b60f81b81838151811061251c5761251c612ea5565b60200101907effffffffffffffffffffffffffffffffffffffffffffffffffffffffffffff1916908160001a905350612556600a86612d99565b94506124de565b60006001600160e01b031982166380ac58cd60e01b148061258e57506001600160e01b03198216635b5e139f60e01b145b806125a957506001600160e01b0319821663780e9d6360e01b145b8061099857506301ffc9a760e01b6001600160e01b0319831614610998565b610bb383838360016000546001600160801b03166001600160a01b03851661260257604051622e076360e81b815260040160405180910390fd5b836126205760405163b562e8dd60e01b815260040160405180910390fd5b6001600160a01b038516600081815260046020908152604080832080546fffffffffffffffffffffffffffffffff19811667ffffffffffffffff8083168c0181169182176801000000000000000067ffffffffffffffff1990941690921783900481168c018116909202179091558584526003909252822080546001600160e01b031916909317600160a01b42909216919091021790915581905b8581101561273c5760405182906001600160a01b038916906000907fddf252ad1be2c89b69c2b068fc378daa952ba7f163c4a11628f55a4df523b3ef908290a483801561271257506127106000888488612338565b155b15612730576040516368d2bf6b60e11b815260040160405180910390fd5b600191820191016126bb565b50600080546fffffffffffffffffffffffffffffffff19166001600160801b0392909216919091179055612194565b82805461277790612e0f565b90600052602060002090601f01602090048101928261279957600085556127df565b82601f106127b257805160ff19168380011785556127df565b828001600101855582156127df579182015b828111156127df5782518255916020019190600101906127c4565b506127eb9291506127ef565b5090565b5b808211156127eb57600081556001016127f0565b600067ffffffffffffffff8084111561281f5761281f612ebb565b604051601f8501601f19908116603f0116810190828211818310171561284757612847612ebb565b8160405280935085815286868601111561286057600080fd5b858560208301376000602087830101525050509392505050565b80356001600160a01b038116811461289157600080fd5b919050565b8035801515811461289157600080fd5b600082601f8301126128b757600080fd5b6128c683833560208501612804565b9392505050565b6000602082840312156128df57600080fd5b6128c68261287a565b600080604083850312156128fb57600080fd5b6129048361287a565b91506129126020840161287a565b90509250929050565b60008060006060848603121561293057600080fd5b6129398461287a565b92506129476020850161287a565b9150604084013590509250925092565b6000806000806080858703121561296d57600080fd5b6129768561287a565b93506129846020860161287a565b925060408501359150606085013567ffffffffffffffff8111156129a757600080fd5b8501601f810187136129b857600080fd5b6129c787823560208401612804565b91505092959194509250565b600080604083850312156129e657600080fd5b6129ef8361287a565b915061291260208401612896565b60008060408385031215612a1057600080fd5b612a198361287a565b946020939093013593505050565b60008060408385031215612a3a57600080fd5b612a438361287a565b915060208301356bffffffffffffffffffffffff81168114612a6457600080fd5b809150509250929050565b600060208284031215612a8157600080fd5b6128c682612896565b600060208284031215612a9c57600080fd5b81356128c681612ed1565b600060208284031215612ab957600080fd5b81516128c681612ed1565b600060208284031215612ad657600080fd5b813567ffffffffffffffff811115612aed57600080fd5b61243f848285016128a6565b600060208284031215612b0b57600080fd5b5035919050565b60008060408385031215612b2557600080fd5b823591506129126020840161287a565b60008060408385031215612b4857600080fd5b82359150602083013567ffffffffffffffff811115612b6657600080fd5b612b72858286016128a6565b9150509250929050565b60008060408385031215612b8f57600080fd5b50508035926020909101359150565b60008151808452612bb6816020860160208601612de3565b601f01601f19169290920160200192915050565b8054600090600181811c9080831680612be457607f831692505b6020808410821415612c0657634e487b7160e01b600052602260045260246000fd5b818015612c1a5760018114612c2b57612c58565b60ff19861689528489019650612c58565b60008881526020902060005b86811015612c505781548b820152908501908301612c37565b505084890196505b50505050505092915050565b6000612c708286612bca565b8451612c80818360208901612de3565b612c8c81830186612bca565b979650505050505050565b60006001600160a01b03808716835280861660208401525083604083015260806060830152612cc96080830184612b9e565b9695505050505050565b6020808252825182820181905260009190848201906040850190845b81811015612d0b57835183529284019291840191600101612cef565b50909695505050505050565b6020815260006128c66020830184612b9e565b6020815281516020820152602082015160408201526000604083015160608084015261243f6080840182612b9e565b838152826020820152606060408201526000612d786060830184612b9e565b95945050505050565b60008219821115612d9457612d94612e79565b500190565b600082612da857612da8612e8f565b500490565b6000816000190483118215151615612dc757612dc7612e79565b500290565b600082821015612dde57612dde612e79565b500390565b60005b83811015612dfe578181015183820152602001612de6565b8381111561198d5750506000910152565b600181811c90821680612e2357607f821691505b60208210811415612e4457634e487b7160e01b600052602260045260246000fd5b50919050565b6000600019821415612e5e57612e5e612e79565b5060010190565b600082612e7457612e74612e8f565b500690565b634e487b7160e01b600052601160045260246000fd5b634e487b7160e01b600052601260045260246000fd5b634e487b7160e01b600052603260045260246000fd5b634e487b7160e01b600052604160045260246000fd5b6001600160e01b031981168114611d0557600080fdfe4f776e61626c653a2063616c6c6572206973206e6f7420746865206f776e6572a26469706673582212200bd4c6abbd84b9463809c8faeb898d7194544a29370fc264dc6cd83609a9bccf64736f6c63430008070033",
  "linkReferences": {},
  "deployedLinkReferences": {}
}