{
  "_format": "hh-sol-artifact-1",
  "contractName": "ResearchFundingClubFast",
  "sourceName": "contracts/ResearchFundingClubFast.sol",
  "abi": [
    {
      "inputs": [
        {
          "internalType": "uint96",
          "name": "_royaltyFeesInBips",
          "type": "uint96"
        },
        {
          "internalType": "string",
          "name": "_notRevealedURI",
          "type": "string"
        }
      ],
      "stateMutability": "nonpayable",
      "type": "constructor"
    },
    {
      "inputs": [],
      "name": "ApprovalCallerNotOwnerNorApproved",
      "type": "error"
    },
    {
      "inputs": [],
      "name": "ApprovalQueryForNonexistentToken",
      "type": "error"
    },
    {
      "inputs": [],
      "name": "ApprovalToCurrentOwner",
      "type": "error"
    },
    {
      "inputs": [],
      "name": "ApproveToCaller",
      "type": "error"
    },
    {
      "inputs": [],
      "name": "BalanceQueryForZeroAddress",
      "type": "error"
    },
    {
      "inputs": [],
      "name": "CollectionNotRevealedYet",
      "type": "error"
    },
    {
      "inputs": [],
      "name": "MintToZeroAddress",
      "type": "error"
    },
    {
      "inputs": [],
      "name": "MintZeroQuantity",
      "type": "error"
    },
    {
      "inputs": [],
      "name": "OwnerIndexOutOfBounds",
      "type": "error"
    },
    {
      "inputs": [],
      "name": "OwnerQueryForNonexistentToken",
      "type": "error"
    },
    {
      "inputs": [],
      "name": "SaleIncomplete",
      "type": "error"
    },
    {
      "inputs": [],
      "name": "TokenIndexOutOfBounds",
      "type": "error"
    },
    {
      "inputs": [],
      "name": "TransferCallerNotOwnerNorApproved",
      "type": "error"
    },
    {
      "inputs": [],
      "name": "TransferFromIncorrectOwner",
      "type": "error"
    },
    {
      "inputs": [],
      "name": "TransferToNonERC721ReceiverImplementer",
      "type": "error"
    },
    {
      "inputs": [],
      "name": "TransferToZeroAddress",
      "type": "error"
    },
    {
      "inputs": [],
      "name": "URIQueryForNonexistentTokenRFC",
      "type": "error"
    },
    {
      "anonymous": false,
      "inputs": [
        {
          "indexed": true,
          "internalType": "address",
          "name": "owner",
          "type": "address"
        },
        {
          "indexed": true,
          "internalType": "address",
          "name": "approved",
          "type": "address"
        },
        {
          "indexed": true,
          "internalType": "uint256",
          "name": "tokenId",
          "type": "uint256"
        }
      ],
      "name": "Approval",
      "type": "event"
    },
    {
      "anonymous": false,
      "inputs": [
        {
          "indexed": true,
          "internalType": "address",
          "name": "owner",
          "type": "address"
        },
        {
          "indexed": true,
          "internalType": "address",
          "name": "operator",
          "type": "address"
        },
        {
          "indexed": false,
          "internalType": "bool",
          "name": "approved",
          "type": "bool"
        }
      ],
      "name": "ApprovalForAll",
      "type": "event"
    },
    {
      "anonymous": false,
      "inputs": [
        {
          "indexed": true,
          "internalType": "address",
          "name": "previousOwner",
          "type": "address"
        },
        {
          "indexed": true,
          "internalType": "address",
          "name": "newOwner",
          "type": "address"
        }
      ],
      "name": "OwnershipTransferred",
      "type": "event"
    },
    {
      "anonymous": false,
      "inputs": [
        {
          "indexed": true,
          "internalType": "address",
          "name": "from",
          "type": "address"
        },
        {
          "indexed": true,
          "internalType": "address",
          "name": "to",
          "type": "address"
        },
        {
          "indexed": true,
          "internalType": "uint256",
          "name": "tokenId",
          "type": "uint256"
        }
      ],
      "name": "Transfer",
      "type": "event"
    },
    {
      "inputs": [],
      "name": "MAX_PER_MINT",
      "outputs": [
        {
          "internalType": "uint256",
          "name": "",
          "type": "uint256"
        }
      ],
      "stateMutability": "view",
      "type": "function"
    },
    {
      "inputs": [],
      "name": "MAX_SUPPLY",
      "outputs": [
        {
          "internalType": "uint256",
          "name": "",
          "type": "uint256"
        }
      ],
      "stateMutability": "view",
      "type": "function"
    },
    {
      "inputs": [],
      "name": "MIN_SUPPLY",
      "outputs": [
        {
          "internalType": "uint256",
          "name": "",
          "type": "uint256"
        }
      ],
      "stateMutability": "view",
      "type": "function"
    },
    {
      "inputs": [],
      "name": "PRICE",
      "outputs": [
        {
          "internalType": "uint256",
          "name": "",
          "type": "uint256"
        }
      ],
      "stateMutability": "view",
      "type": "function"
    },
    {
      "inputs": [
        {
          "internalType": "address",
          "name": "to",
          "type": "address"
        },
        {
          "internalType": "uint256",
          "name": "tokenId",
          "type": "uint256"
        }
      ],
      "name": "approve",
      "outputs": [],
      "stateMutability": "nonpayable",
      "type": "function"
    },
    {
      "inputs": [
        {
          "internalType": "address",
          "name": "owner",
          "type": "address"
        }
      ],
      "name": "balanceOf",
      "outputs": [
        {
          "internalType": "uint256",
          "name": "",
          "type": "uint256"
        }
      ],
      "stateMutability": "view",
      "type": "function"
    },
    {
      "inputs": [],
      "name": "baseExtension",
      "outputs": [
        {
          "internalType": "string",
          "name": "",
          "type": "string"
        }
      ],
      "stateMutability": "view",
      "type": "function"
    },
    {
      "inputs": [],
      "name": "baseTokenURI",
      "outputs": [
        {
          "internalType": "string",
          "name": "",
          "type": "string"
        }
      ],
      "stateMutability": "view",
      "type": "function"
    },
    {
      "inputs": [],
      "name": "baseURI",
      "outputs": [
        {
          "internalType": "string",
          "name": "",
          "type": "string"
        }
      ],
      "stateMutability": "view",
      "type": "function"
    },
    {
      "inputs": [],
      "name": "charityWallet",
      "outputs": [
        {
          "internalType": "address",
          "name": "",
          "type": "address"
        }
      ],
      "stateMutability": "view",
      "type": "function"
    },
    {
      "inputs": [
        {
          "internalType": "uint256",
          "name": "",
          "type": "uint256"
        }
      ],
      "name": "collections",
      "outputs": [
        {
          "internalType": "uint256",
          "name": "minSupply",
          "type": "uint256"
        },
        {
          "internalType": "uint256",
          "name": "maxSupply",
          "type": "uint256"
        },
        {
          "internalType": "string",
          "name": "baseURI",
          "type": "string"
        }
      ],
      "stateMutability": "view",
      "type": "function"
    },
    {
      "inputs": [],
      "name": "devWallet",
      "outputs": [
        {
          "internalType": "address",
          "name": "",
          "type": "address"
        }
      ],
      "stateMutability": "view",
      "type": "function"
    },
    {
      "inputs": [
        {
          "internalType": "uint256",
          "name": "tokenId",
          "type": "uint256"
        }
      ],
      "name": "getApproved",
      "outputs": [
        {
          "internalType": "address",
          "name": "",
          "type": "address"
        }
      ],
      "stateMutability": "view",
      "type": "function"
    },
    {
      "inputs": [
        {
          "internalType": "address",
          "name": "owner",
          "type": "address"
        },
        {
          "internalType": "address",
          "name": "operator",
          "type": "address"
        }
      ],
      "name": "isApprovedForAll",
      "outputs": [
        {
          "internalType": "bool",
          "name": "",
          "type": "bool"
        }
      ],
      "stateMutability": "view",
      "type": "function"
    },
    {
      "inputs": [
        {
          "internalType": "uint256",
          "name": "quantity",
          "type": "uint256"
        }
      ],
      "name": "mint",
      "outputs": [],
      "stateMutability": "payable",
      "type": "function"
    },
    {
      "inputs": [],
      "name": "name",
      "outputs": [
        {
          "internalType": "string",
          "name": "",
          "type": "string"
        }
      ],
      "stateMutability": "view",
      "type": "function"
    },
    {
      "inputs": [
        {
          "internalType": "uint256",
          "name": "_newMaxSupply",
          "type": "uint256"
        },
        {
          "internalType": "string",
          "name": "_notRevealedURI",
          "type": "string"
        }
      ],
      "name": "newDrop",
      "outputs": [],
      "stateMutability": "nonpayable",
      "type": "function"
    },
    {
      "inputs": [],
      "name": "notRevealedURI",
      "outputs": [
        {
          "internalType": "string",
          "name": "",
          "type": "string"
        }
      ],
      "stateMutability": "view",
      "type": "function"
    },
    {
      "inputs": [],
      "name": "owner",
      "outputs": [
        {
          "internalType": "address",
          "name": "",
          "type": "address"
        }
      ],
      "stateMutability": "view",
      "type": "function"
    },
    {
      "inputs": [
        {
          "internalType": "uint256",
          "name": "tokenId",
          "type": "uint256"
        }
      ],
      "name": "ownerOf",
      "outputs": [
        {
          "internalType": "address",
          "name": "",
          "type": "address"
        }
      ],
      "stateMutability": "view",
      "type": "function"
    },
    {
      "inputs": [],
      "name": "paused",
      "outputs": [
        {
          "internalType": "bool",
          "name": "",
          "type": "bool"
        }
      ],
      "stateMutability": "view",
      "type": "function"
    },
    {
      "inputs": [],
      "name": "renounceOwnership",
      "outputs": [],
      "stateMutability": "nonpayable",
      "type": "function"
    },
    {
      "inputs": [
        {
          "internalType": "string",
          "name": "_newBaseURI",
          "type": "string"
        }
      ],
      "name": "reveal",
      "outputs": [],
      "stateMutability": "nonpayable",
      "type": "function"
    },
    {
      "inputs": [],
      "name": "revealed",
      "outputs": [
        {
          "internalType": "bool",
          "name": "",
          "type": "bool"
        }
      ],
      "stateMutability": "view",
      "type": "function"
    },
    {
      "inputs": [
        {
          "internalType": "uint256",
          "name": "_tokenId",
          "type": "uint256"
        },
        {
          "internalType": "uint256",
          "name": "_salePrice",
          "type": "uint256"
        }
      ],
      "name": "royaltyInfo",
      "outputs": [
        {
          "internalType": "address",
          "name": "",
          "type": "address"
        },
        {
          "internalType": "uint256",
          "name": "",
          "type": "uint256"
        }
      ],
      "stateMutability": "view",
      "type": "function"
    },
    {
      "inputs": [
        {
          "internalType": "address",
          "name": "from",
          "type": "address"
        },
        {
          "internalType": "address",
          "name": "to",
          "type": "address"
        },
        {
          "internalType": "uint256",
          "name": "tokenId",
          "type": "uint256"
        }
      ],
      "name": "safeTransferFrom",
      "outputs": [],
      "stateMutability": "nonpayable",
      "type": "function"
    },
    {
      "inputs": [
        {
          "internalType": "address",
          "name": "from",
          "type": "address"
        },
        {
          "internalType": "address",
          "name": "to",
          "type": "address"
        },
        {
          "internalType": "uint256",
          "name": "tokenId",
          "type": "uint256"
        },
        {
          "internalType": "bytes",
          "name": "_data",
          "type": "bytes"
        }
      ],
      "name": "safeTransferFrom",
      "outputs": [],
      "stateMutability": "nonpayable",
      "type": "function"
    },
    {
      "inputs": [
        {
          "internalType": "address",
          "name": "operator",
          "type": "address"
        },
        {
          "internalType": "bool",
          "name": "approved",
          "type": "bool"
        }
      ],
      "name": "setApprovalForAll",
      "outputs": [],
      "stateMutability": "nonpayable",
      "type": "function"
    },
    {
      "inputs": [
        {
          "internalType": "string",
          "name": "_newBaseExtension",
          "type": "string"
        }
      ],
      "name": "setBaseExtension",
      "outputs": [],
      "stateMutability": "nonpayable",
      "type": "function"
    },
    {
      "inputs": [
        {
          "internalType": "string",
          "name": "_baseTokenURI",
          "type": "string"
        }
      ],
      "name": "setBaseURI",
      "outputs": [],
      "stateMutability": "nonpayable",
      "type": "function"
    },
    {
      "inputs": [
        {
          "internalType": "uint256",
          "name": "_newCost",
          "type": "uint256"
        }
      ],
      "name": "setCost",
      "outputs": [],
      "stateMutability": "nonpayable",
      "type": "function"
    },
    {
      "inputs": [
        {
          "internalType": "string",
          "name": "_notRevealedURI",
          "type": "string"
        }
      ],
      "name": "setNotRevealedURI",
      "outputs": [],
      "stateMutability": "nonpayable",
      "type": "function"
    },
    {
      "inputs": [
        {
          "internalType": "address",
          "name": "_receiver",
          "type": "address"
        },
        {
          "internalType": "uint96",
          "name": "_royaltyFeesInBips",
          "type": "uint96"
        }
      ],
      "name": "setRoyaltyInfo",
      "outputs": [],
      "stateMutability": "nonpayable",
      "type": "function"
    },
    {
      "inputs": [
        {
          "internalType": "uint256",
          "name": "_limit",
          "type": "uint256"
        }
      ],
      "name": "setmaxMintAmount",
      "outputs": [],
      "stateMutability": "nonpayable",
      "type": "function"
    },
    {
      "inputs": [
        {
          "internalType": "uint256",
          "name": "_limit",
          "type": "uint256"
        }
      ],
      "name": "setmaxSupply",
      "outputs": [],
      "stateMutability": "nonpayable",
      "type": "function"
    },
    {
      "inputs": [],
      "name": "showCollections",
      "outputs": [
        {
          "components": [
            {
              "internalType": "uint256",
              "name": "minSupply",
              "type": "uint256"
            },
            {
              "internalType": "uint256",
              "name": "maxSupply",
              "type": "uint256"
            },
            {
              "internalType": "string",
              "name": "baseURI",
              "type": "string"
            }
          ],
          "internalType": "struct ResearchFundingClubFast.CollectionData[]",
          "name": "",
          "type": "tuple[]"
        }
      ],
      "stateMutability": "view",
      "type": "function"
    },
    {
      "inputs": [
        {
          "internalType": "bytes4",
          "name": "interfaceId",
          "type": "bytes4"
        }
      ],
      "name": "supportsInterface",
      "outputs": [
        {
          "internalType": "bool",
          "name": "",
          "type": "bool"
        }
      ],
      "stateMutability": "view",
      "type": "function"
    },
    {
      "inputs": [],
      "name": "symbol",
      "outputs": [
        {
          "internalType": "string",
          "name": "",
          "type": "string"
        }
      ],
      "stateMutability": "view",
      "type": "function"
    },
    {
      "inputs": [
        {
          "internalType": "uint256",
          "name": "index",
          "type": "uint256"
        }
      ],
      "name": "tokenByIndex",
      "outputs": [
        {
          "internalType": "uint256",
          "name": "",
          "type": "uint256"
        }
      ],
      "stateMutability": "view",
      "type": "function"
    },
    {
      "inputs": [
        {
          "internalType": "address",
          "name": "owner",
          "type": "address"
        },
        {
          "internalType": "uint256",
          "name": "index",
          "type": "uint256"
        }
      ],
      "name": "tokenOfOwnerByIndex",
      "outputs": [
        {
          "internalType": "uint256",
          "name": "",
          "type": "uint256"
        }
      ],
      "stateMutability": "view",
      "type": "function"
    },
    {
      "inputs": [
        {
          "internalType": "uint256",
          "name": "tokenId",
          "type": "uint256"
        }
      ],
      "name": "tokenURI",
      "outputs": [
        {
          "internalType": "string",
          "name": "",
          "type": "string"
        }
      ],
      "stateMutability": "view",
      "type": "function"
    },
    {
      "inputs": [
        {
          "internalType": "address",
          "name": "_owner",
          "type": "address"
        }
      ],
      "name": "tokensOfOwner",
      "outputs": [
        {
          "internalType": "uint256[]",
          "name": "",
          "type": "uint256[]"
        }
      ],
      "stateMutability": "view",
      "type": "function"
    },
    {
      "inputs": [],
      "name": "totalSupply",
      "outputs": [
        {
          "internalType": "uint256",
          "name": "",
          "type": "uint256"
        }
      ],
      "stateMutability": "view",
      "type": "function"
    },
    {
      "inputs": [
        {
          "internalType": "address",
          "name": "from",
          "type": "address"
        },
        {
          "internalType": "address",
          "name": "to",
          "type": "address"
        },
        {
          "internalType": "uint256",
          "name": "tokenId",
          "type": "uint256"
        }
      ],
      "name": "transferFrom",
      "outputs": [],
      "stateMutability": "nonpayable",
      "type": "function"
    },
    {
      "inputs": [
        {
          "internalType": "address",
          "name": "newOwner",
          "type": "address"
        }
      ],
      "name": "transferOwnership",
      "outputs": [],
      "stateMutability": "nonpayable",
      "type": "function"
    }
  ],
  "bytecode": "0x60806040526000600c60006101000a81548160ff0219169083151502179055506040518060400160405280600581526020017f2e6a736f6e000000000000000000000000000000000000000000000000000000815250600d90805190602001906200006c929190620005c4565b506000601055600a601155655af3107a400060125560016013556000601460006101000a81548160ff02191690831515021790555073f9351cfab08d72e873424708a817a067fa33f45f601660006101000a81548173ffffffffffffffffffffffffffffffffffffffff021916908373ffffffffffffffffffffffffffffffffffffffff16021790555073f9351cfab08d72e873424708a817a067fa33f45f601760006101000a81548173ffffffffffffffffffffffffffffffffffffffff021916908373ffffffffffffffffffffffffffffffffffffffff1602179055503480156200015857600080fd5b506040516200599f3803806200599f83398181016040528101906200017e919062000709565b6040518060400160405280601581526020017f52657365617263682046756e64696e6720436c756200000000000000000000008152506040518060400160405280600381526020017f5246430000000000000000000000000000000000000000000000000000000000815250816001908051906020019062000202929190620005c4565b5080600290805190602001906200021b929190620005c4565b5050506200023e620002326200027960201b60201c565b6200028160201b60201c565b6001600a819055506200025833836200034760201b60201c565b80600e908051906020019062000270929190620005c4565b50505062000ab2565b600033905090565b6000600960009054906101000a900473ffffffffffffffffffffffffffffffffffffffff16905081600960006101000a81548173ffffffffffffffffffffffffffffffffffffffff021916908373ffffffffffffffffffffffffffffffffffffffff1602179055508173ffffffffffffffffffffffffffffffffffffffff168173ffffffffffffffffffffffffffffffffffffffff167f8be0079c531659141344cd1fd0a4f28419497f9722a3daafe3b4186f6b6457e060405160405180910390a35050565b620003576200027960201b60201c565b73ffffffffffffffffffffffffffffffffffffffff166200037d620003ec60201b60201c565b73ffffffffffffffffffffffffffffffffffffffff1614620003d6576040517f08c379a0000000000000000000000000000000000000000000000000000000008152600401620003cd90620007e4565b60405180910390fd5b620003e882826200041660201b60201c565b5050565b6000600960009054906101000a900473ffffffffffffffffffffffffffffffffffffffff16905090565b62000426620005ba60201b60201c565b6bffffffffffffffffffffffff16816bffffffffffffffffffffffff16111562000487576040517f08c379a00000000000000000000000000000000000000000000000000000000081526004016200047e9062000806565b60405180910390fd5b600073ffffffffffffffffffffffffffffffffffffffff168273ffffffffffffffffffffffffffffffffffffffff161415620004fa576040517f08c379a0000000000000000000000000000000000000000000000000000000008152600401620004f19062000828565b60405180910390fd5b60405180604001604052808373ffffffffffffffffffffffffffffffffffffffff168152602001826bffffffffffffffffffffffff16815250600760008201518160000160006101000a81548173ffffffffffffffffffffffffffffffffffffffff021916908373ffffffffffffffffffffffffffffffffffffffff16021790555060208201518160000160146101000a8154816bffffffffffffffffffffffff02191690836bffffffffffffffffffffffff1602179055509050505050565b6000612710905090565b828054620005d29062000908565b90600052602060002090601f016020900481019282620005f6576000855562000642565b82601f106200061157805160ff191683800117855562000642565b8280016001018555821562000642579182015b828111156200064157825182559160200191906001019062000624565b5b50905062000651919062000655565b5090565b5b808211156200067057600081600090555060010162000656565b5090565b60006200068b620006858462000873565b6200084a565b905082815260208101848484011115620006aa57620006a9620009d7565b5b620006b7848285620008d2565b509392505050565b600082601f830112620006d757620006d6620009d2565b5b8151620006e984826020860162000674565b91505092915050565b600081519050620007038162000a98565b92915050565b60008060408385031215620007235762000722620009e1565b5b60006200073385828601620006f2565b925050602083015167ffffffffffffffff811115620007575762000756620009dc565b5b6200076585828601620006bf565b9150509250929050565b60006200077e602083620008a9565b91506200078b82620009f7565b602082019050919050565b6000620007a5602a83620008a9565b9150620007b28262000a20565b604082019050919050565b6000620007cc601983620008a9565b9150620007d98262000a6f565b602082019050919050565b60006020820190508181036000830152620007ff816200076f565b9050919050565b60006020820190508181036000830152620008218162000796565b9050919050565b600060208201905081810360008301526200084381620007bd565b9050919050565b60006200085662000869565b90506200086482826200093e565b919050565b6000604051905090565b600067ffffffffffffffff821115620008915762000890620009a3565b5b6200089c82620009e6565b9050602081019050919050565b600082825260208201905092915050565b60006bffffffffffffffffffffffff82169050919050565b60005b83811015620008f2578082015181840152602081019050620008d5565b8381111562000902576000848401525b50505050565b600060028204905060018216806200092157607f821691505b6020821081141562000938576200093762000974565b5b50919050565b6200094982620009e6565b810181811067ffffffffffffffff821117156200096b576200096a620009a3565b5b80604052505050565b7f4e487b7100000000000000000000000000000000000000000000000000000000600052602260045260246000fd5b7f4e487b7100000000000000000000000000000000000000000000000000000000600052604160045260246000fd5b600080fd5b600080fd5b600080fd5b600080fd5b6000601f19601f8301169050919050565b7f4f776e61626c653a2063616c6c6572206973206e6f7420746865206f776e6572600082015250565b7f455243323938313a20726f79616c7479206665652077696c6c2065786365656460008201527f2073616c65507269636500000000000000000000000000000000000000000000602082015250565b7f455243323938313a20696e76616c696420726563656976657200000000000000600082015250565b62000aa381620008ba565b811462000aaf57600080fd5b50565b614edd8062000ac26000396000f3fe6080604052600436106102725760003560e01c80636c0360eb1161014f578063a0712d68116100c1578063da3ef23f1161007a578063da3ef23f1461096e578063e985e9c514610997578063f1a91a68146109d4578063f2c4ce1e146109fd578063f2fde38b14610a26578063fdbda0ec14610a4f57610272565b8063a0712d681461086d578063a22cb46514610889578063b88d4fde146108b2578063c6682862146108db578063c87b56dd14610906578063d547cfb71461094357610272565b80637f00c7a6116101135780637f00c7a61461075b5780638462151c146107845780638d859f3e146107c15780638da5cb5b146107ec5780638ea5220f1461081757806395d89b411461084257610272565b80636c0360eb1461068657806370a08231146106b1578063715018a6146106ee57806372250380146107055780637b2087691461073057610272565b806332cb6b0c116101e85780634f6ccce7116101ac5780634f6ccce714610562578063518302271461059f57806355f804b3146105ca578063568bad5e146105f35780635c975abb1461061e5780636352211e1461064957610272565b806332cb6b0c1461049157806335917c64146104bc57806342842e0e146104e757806344a0d68a146105105780634c2612471461053957610272565b806309d42b301161023a57806309d42b301461036e57806318160ddd14610399578063228025e8146103c457806323b872dd146103ed5780632a55205a146104165780632f745c591461045457610272565b806301ffc9a71461027757806302fa7c47146102b457806306fdde03146102dd578063081812fc14610308578063095ea7b314610345575b600080fd5b34801561028357600080fd5b5061029e600480360381019061029991906140e2565b610a8e565b6040516102ab91906146c5565b60405180910390f35b3480156102c057600080fd5b506102db60048036038101906102d691906140a2565b610b08565b005b3480156102e957600080fd5b506102f2610b92565b6040516102ff91906146e0565b60405180910390f35b34801561031457600080fd5b5061032f600480360381019061032a9190614185565b610c24565b60405161033c91906145f1565b60405180910390f35b34801561035157600080fd5b5061036c60048036038101906103679190614062565b610ca0565b005b34801561037a57600080fd5b50610383610dab565b60405161039091906147b9565b60405180910390f35b3480156103a557600080fd5b506103ae610db1565b6040516103bb91906147b9565b60405180910390f35b3480156103d057600080fd5b506103eb60048036038101906103e69190614185565b610e06565b005b3480156103f957600080fd5b50610414600480360381019061040f9190613f4c565b610e8c565b005b34801561042257600080fd5b5061043d6004803603810190610438919061420e565b610e9c565b60405161044b929190614658565b60405180910390f35b34801561046057600080fd5b5061047b60048036038101906104769190614062565b611087565b60405161048891906147b9565b60405180910390f35b34801561049d57600080fd5b506104a661128e565b6040516104b391906147b9565b60405180910390f35b3480156104c857600080fd5b506104d1611294565b6040516104de91906147b9565b60405180910390f35b3480156104f357600080fd5b5061050e60048036038101906105099190613f4c565b61129a565b005b34801561051c57600080fd5b5061053760048036038101906105329190614185565b6112ba565b005b34801561054557600080fd5b50610560600480360381019061055b919061413c565b611340565b005b34801561056e57600080fd5b5061058960048036038101906105849190614185565b611463565b60405161059691906147b9565b60405180910390f35b3480156105ab57600080fd5b506105b46115d4565b6040516105c191906146c5565b60405180910390f35b3480156105d657600080fd5b506105f160048036038101906105ec919061413c565b6115e7565b005b3480156105ff57600080fd5b5061060861167d565b6040516106159190614681565b60405180910390f35b34801561062a57600080fd5b50610633611782565b60405161064091906146c5565b60405180910390f35b34801561065557600080fd5b50610670600480360381019061066b9190614185565b611795565b60405161067d91906145f1565b60405180910390f35b34801561069257600080fd5b5061069b6117ab565b6040516106a891906146e0565b60405180910390f35b3480156106bd57600080fd5b506106d860048036038101906106d39190613edf565b611839565b6040516106e591906147b9565b60405180910390f35b3480156106fa57600080fd5b50610703611909565b005b34801561071157600080fd5b5061071a611991565b60405161072791906146e0565b60405180910390f35b34801561073c57600080fd5b50610745611a1f565b60405161075291906145f1565b60405180910390f35b34801561076757600080fd5b50610782600480360381019061077d9190614185565b611a45565b005b34801561079057600080fd5b506107ab60048036038101906107a69190613edf565b611acb565b6040516107b891906146a3565b60405180910390f35b3480156107cd57600080fd5b506107d6611b79565b6040516107e391906147b9565b60405180910390f35b3480156107f857600080fd5b50610801611b7f565b60405161080e91906145f1565b60405180910390f35b34801561082357600080fd5b5061082c611ba9565b60405161083991906145f1565b60405180910390f35b34801561084e57600080fd5b50610857611bcf565b60405161086491906146e0565b60405180910390f35b61088760048036038101906108829190614185565b611c61565b005b34801561089557600080fd5b506108b060048036038101906108ab9190614022565b611c6e565b005b3480156108be57600080fd5b506108d960048036038101906108d49190613f9f565b611de6565b005b3480156108e757600080fd5b506108f0611e39565b6040516108fd91906146e0565b60405180910390f35b34801561091257600080fd5b5061092d60048036038101906109289190614185565b611ec7565b60405161093a91906146e0565b60405180910390f35b34801561094f57600080fd5b506109586121fc565b60405161096591906146e0565b60405180910390f35b34801561097a57600080fd5b506109956004803603810190610990919061413c565b61228a565b005b3480156109a357600080fd5b506109be60048036038101906109b99190613f0c565b612320565b6040516109cb91906146c5565b60405180910390f35b3480156109e057600080fd5b506109fb60048036038101906109f691906141b2565b6123b4565b005b348015610a0957600080fd5b50610a246004803603810190610a1f919061413c565b612506565b005b348015610a3257600080fd5b50610a4d6004803603810190610a489190613edf565b61259c565b005b348015610a5b57600080fd5b50610a766004803603810190610a719190614185565b612694565b604051610a85939291906147d4565b60405180910390f35b60007f2a55205a000000000000000000000000000000000000000000000000000000007bffffffffffffffffffffffffffffffffffffffffffffffffffffffff1916827bffffffffffffffffffffffffffffffffffffffffffffffffffffffff19161480610b015750610b0082612756565b5b9050919050565b610b106127d0565b73ffffffffffffffffffffffffffffffffffffffff16610b2e611b7f565b73ffffffffffffffffffffffffffffffffffffffff1614610b84576040517f08c379a0000000000000000000000000000000000000000000000000000000008152600401610b7b90614759565b60405180910390fd5b610b8e82826127d8565b5050565b606060018054610ba190614b57565b80601f0160208091040260200160405190810160405280929190818152602001828054610bcd90614b57565b8015610c1a5780601f10610bef57610100808354040283529160200191610c1a565b820191906000526020600020905b815481529060010190602001808311610bfd57829003601f168201915b5050505050905090565b6000610c2f8261296e565b610c65576040517fcf4700e400000000000000000000000000000000000000000000000000000000815260040160405180910390fd5b6005600083815260200190815260200160002060009054906101000a900473ffffffffffffffffffffffffffffffffffffffff169050919050565b6000610cab82611795565b90508073ffffffffffffffffffffffffffffffffffffffff168373ffffffffffffffffffffffffffffffffffffffff161415610d13576040517f943f7b8c00000000000000000000000000000000000000000000000000000000815260040160405180910390fd5b8073ffffffffffffffffffffffffffffffffffffffff16610d326127d0565b73ffffffffffffffffffffffffffffffffffffffff1614158015610d645750610d6281610d5d6127d0565b612320565b155b15610d9b576040517fcfb3b94200000000000000000000000000000000000000000000000000000000815260040160405180910390fd5b610da68383836129d6565b505050565b60135481565b60008060109054906101000a90046fffffffffffffffffffffffffffffffff1660008054906101000a90046fffffffffffffffffffffffffffffffff16036fffffffffffffffffffffffffffffffff16905090565b610e0e6127d0565b73ffffffffffffffffffffffffffffffffffffffff16610e2c611b7f565b73ffffffffffffffffffffffffffffffffffffffff1614610e82576040517f08c379a0000000000000000000000000000000000000000000000000000000008152600401610e7990614759565b60405180910390fd5b8060118190555050565b610e97838383612a88565b505050565b6000806000600860008681526020019081526020016000206040518060400160405290816000820160009054906101000a900473ffffffffffffffffffffffffffffffffffffffff1673ffffffffffffffffffffffffffffffffffffffff1673ffffffffffffffffffffffffffffffffffffffff1681526020016000820160149054906101000a90046bffffffffffffffffffffffff166bffffffffffffffffffffffff166bffffffffffffffffffffffff16815250509050600073ffffffffffffffffffffffffffffffffffffffff16816000015173ffffffffffffffffffffffffffffffffffffffff1614156110325760076040518060400160405290816000820160009054906101000a900473ffffffffffffffffffffffffffffffffffffffff1673ffffffffffffffffffffffffffffffffffffffff1673ffffffffffffffffffffffffffffffffffffffff1681526020016000820160149054906101000a90046bffffffffffffffffffffffff166bffffffffffffffffffffffff166bffffffffffffffffffffffff168152505090505b600061103c612fa5565b6bffffffffffffffffffffffff1682602001516bffffffffffffffffffffffff168661106891906149fb565b61107291906149ca565b90508160000151819350935050509250929050565b600061109283611839565b82106110ca576040517f0ddac30e00000000000000000000000000000000000000000000000000000000815260040160405180910390fd5b60008060009054906101000a90046fffffffffffffffffffffffffffffffff166fffffffffffffffffffffffffffffffff16905060008060005b83811015611282576000600360008381526020019081526020016000206040518060600160405290816000820160009054906101000a900473ffffffffffffffffffffffffffffffffffffffff1673ffffffffffffffffffffffffffffffffffffffff1673ffffffffffffffffffffffffffffffffffffffff1681526020016000820160149054906101000a900467ffffffffffffffff1667ffffffffffffffff1667ffffffffffffffff16815260200160008201601c9054906101000a900460ff16151515158152505090508060400151156111e15750611275565b600073ffffffffffffffffffffffffffffffffffffffff16816000015173ffffffffffffffffffffffffffffffffffffffff161461122157806000015192505b8773ffffffffffffffffffffffffffffffffffffffff168373ffffffffffffffffffffffffffffffffffffffff161415611273578684141561126a578195505050505050611288565b83806001019450505b505b8080600101915050611104565b50600080fd5b92915050565b60115481565b60105481565b6112b583838360405180602001604052806000815250611de6565b505050565b6112c26127d0565b73ffffffffffffffffffffffffffffffffffffffff166112e0611b7f565b73ffffffffffffffffffffffffffffffffffffffff1614611336576040517f08c379a000000000000000000000000000000000000000000000000000000000815260040161132d90614759565b60405180910390fd5b8060128190555050565b6113486127d0565b73ffffffffffffffffffffffffffffffffffffffff16611366611b7f565b73ffffffffffffffffffffffffffffffffffffffff16146113bc576040517f08c379a00000000000000000000000000000000000000000000000000000000081526004016113b390614759565b60405180910390fd5b6113c4613c7a565b601054816000018181525050601154816020018181525050818160400181905250601581908060018154018082558091505060019003906000526020600020906003020160009091909190915060008201518160000155602082015181600101556040820151816002019080519060200190611441929190613c9b565b5050506001601460006101000a81548160ff0219169083151502179055505050565b60008060008054906101000a90046fffffffffffffffffffffffffffffffff166fffffffffffffffffffffffffffffffff1690506000805b8281101561159c576000600360008381526020019081526020016000206040518060600160405290816000820160009054906101000a900473ffffffffffffffffffffffffffffffffffffffff1673ffffffffffffffffffffffffffffffffffffffff1673ffffffffffffffffffffffffffffffffffffffff1681526020016000820160149054906101000a900467ffffffffffffffff1667ffffffffffffffff1667ffffffffffffffff16815260200160008201601c9054906101000a900460ff1615151515815250509050806040015161158e578583141561158557819450505050506115cf565b82806001019350505b50808060010191505061149b565b506040517fa723001c00000000000000000000000000000000000000000000000000000000815260040160405180910390fd5b919050565b601460009054906101000a900460ff1681565b6115ef6127d0565b73ffffffffffffffffffffffffffffffffffffffff1661160d611b7f565b73ffffffffffffffffffffffffffffffffffffffff1614611663576040517f08c379a000000000000000000000000000000000000000000000000000000000815260040161165a90614759565b60405180910390fd5b80600b9080519060200190611679929190613c9b565b5050565b60606015805480602002602001604051908101604052809291908181526020016000905b82821015611779578382906000526020600020906003020160405180606001604052908160008201548152602001600182015481526020016002820180546116e890614b57565b80601f016020809104026020016040519081016040528092919081815260200182805461171490614b57565b80156117615780601f1061173657610100808354040283529160200191611761565b820191906000526020600020905b81548152906001019060200180831161174457829003601f168201915b505050505081525050815260200190600101906116a1565b50505050905090565b600c60009054906101000a900460ff1681565b60006117a082612faf565b600001519050919050565b600f80546117b890614b57565b80601f01602080910402602001604051908101604052809291908181526020018280546117e490614b57565b80156118315780601f1061180657610100808354040283529160200191611831565b820191906000526020600020905b81548152906001019060200180831161181457829003601f168201915b505050505081565b60008073ffffffffffffffffffffffffffffffffffffffff168273ffffffffffffffffffffffffffffffffffffffff1614156118a1576040517f8f4eb60400000000000000000000000000000000000000000000000000000000815260040160405180910390fd5b600460008373ffffffffffffffffffffffffffffffffffffffff1673ffffffffffffffffffffffffffffffffffffffff16815260200190815260200160002060000160009054906101000a900467ffffffffffffffff1667ffffffffffffffff169050919050565b6119116127d0565b73ffffffffffffffffffffffffffffffffffffffff1661192f611b7f565b73ffffffffffffffffffffffffffffffffffffffff1614611985576040517f08c379a000000000000000000000000000000000000000000000000000000000815260040161197c90614759565b60405180910390fd5b61198f6000613257565b565b600e805461199e90614b57565b80601f01602080910402602001604051908101604052809291908181526020018280546119ca90614b57565b8015611a175780601f106119ec57610100808354040283529160200191611a17565b820191906000526020600020905b8154815290600101906020018083116119fa57829003601f168201915b505050505081565b601660009054906101000a900473ffffffffffffffffffffffffffffffffffffffff1681565b611a4d6127d0565b73ffffffffffffffffffffffffffffffffffffffff16611a6b611b7f565b73ffffffffffffffffffffffffffffffffffffffff1614611ac1576040517f08c379a0000000000000000000000000000000000000000000000000000000008152600401611ab890614759565b60405180910390fd5b8060138190555050565b60606000611ad883611839565b905060008167ffffffffffffffff811115611af657611af5614cf0565b5b604051908082528060200260200182016040528015611b245781602001602082028036833780820191505090505b50905060005b82811015611b6e57611b3c8582611087565b828281518110611b4f57611b4e614cc1565b5b6020026020010181815250508080611b6690614bba565b915050611b2a565b508092505050919050565b60125481565b6000600960009054906101000a900473ffffffffffffffffffffffffffffffffffffffff16905090565b601760009054906101000a900473ffffffffffffffffffffffffffffffffffffffff1681565b606060028054611bde90614b57565b80601f0160208091040260200160405190810160405280929190818152602001828054611c0a90614b57565b8015611c575780601f10611c2c57610100808354040283529160200191611c57565b820191906000526020600020905b815481529060010190602001808311611c3a57829003601f168201915b5050505050905090565b611c6b338261331d565b50565b611c766127d0565b73ffffffffffffffffffffffffffffffffffffffff168273ffffffffffffffffffffffffffffffffffffffff161415611cdb576040517fb06307db00000000000000000000000000000000000000000000000000000000815260040160405180910390fd5b8060066000611ce86127d0565b73ffffffffffffffffffffffffffffffffffffffff1673ffffffffffffffffffffffffffffffffffffffff16815260200190815260200160002060008473ffffffffffffffffffffffffffffffffffffffff1673ffffffffffffffffffffffffffffffffffffffff16815260200190815260200160002060006101000a81548160ff0219169083151502179055508173ffffffffffffffffffffffffffffffffffffffff16611d956127d0565b73ffffffffffffffffffffffffffffffffffffffff167f17307eab39ab6107e8899845ad3d59bd9653f200f220920489ca2b5937696c3183604051611dda91906146c5565b60405180910390a35050565b611df1848484612a88565b611dfd8484848461333b565b611e33576040517fd1a57ed600000000000000000000000000000000000000000000000000000000815260040160405180910390fd5b50505050565b600d8054611e4690614b57565b80601f0160208091040260200160405190810160405280929190818152602001828054611e7290614b57565b8015611ebf5780601f10611e9457610100808354040283529160200191611ebf565b820191906000526020600020905b815481529060010190602001808311611ea257829003601f168201915b505050505081565b6060611ed28261296e565b611f08576040517f25dca1e600000000000000000000000000000000000000000000000000000000815260040160405180910390fd5b601460009054906101000a900460ff16158015611f2757506010548210155b15611fbe57600e8054611f3990614b57565b80601f0160208091040260200160405190810160405280929190818152602001828054611f6590614b57565b8015611fb25780601f10611f8757610100808354040283529160200191611fb2565b820191906000526020600020905b815481529060010190602001808311611f9557829003601f168201915b505050505090506121f7565b60006015805480602002602001604051908101604052809291908181526020016000905b828210156120ba5783829060005260206000209060030201604051806060016040529081600082015481526020016001820154815260200160028201805461202990614b57565b80601f016020809104026020016040519081016040528092919081815260200182805461205590614b57565b80156120a25780601f10612077576101008083540402835291602001916120a2565b820191906000526020600020905b81548152906001019060200180831161208557829003601f168201915b50505050508152505081526020019060010190611fe2565b50505050905060005b81518110156121e2578181815181106120df576120de614cc1565b5b6020026020010151602001518410156121cf5761214f6040518060400160405280600881526020017f544845205552493a00000000000000000000000000000000000000000000000081525083838151811061213e5761213d614cc1565b5b6020026020010151604001516134c9565b81818151811061216257612161614cc1565b5b602002602001015160000151846121799190614a55565b935081818151811061218e5761218d614cc1565b5b6020026020010151604001516121a385613565565b600d6040516020016121b7939291906145c0565b604051602081830303815290604052925050506121f7565b80806121da90614bba565b9150506120c3565b50604051806020016040528060008152509150505b919050565b600b805461220990614b57565b80601f016020809104026020016040519081016040528092919081815260200182805461223590614b57565b80156122825780601f1061225757610100808354040283529160200191612282565b820191906000526020600020905b81548152906001019060200180831161226557829003601f168201915b505050505081565b6122926127d0565b73ffffffffffffffffffffffffffffffffffffffff166122b0611b7f565b73ffffffffffffffffffffffffffffffffffffffff1614612306576040517f08c379a00000000000000000000000000000000000000000000000000000000081526004016122fd90614759565b60405180910390fd5b80600d908051906020019061231c929190613c9b565b5050565b6000600660008473ffffffffffffffffffffffffffffffffffffffff1673ffffffffffffffffffffffffffffffffffffffff16815260200190815260200160002060008373ffffffffffffffffffffffffffffffffffffffff1673ffffffffffffffffffffffffffffffffffffffff16815260200190815260200160002060009054906101000a900460ff16905092915050565b6123bc6127d0565b73ffffffffffffffffffffffffffffffffffffffff166123da611b7f565b73ffffffffffffffffffffffffffffffffffffffff1614612430576040517f08c379a000000000000000000000000000000000000000000000000000000000815260040161242790614759565b60405180910390fd5b60115461243b610db1565b14612472576040517f697526e000000000000000000000000000000000000000000000000000000000815260040160405180910390fd5b60001515601460009054906101000a900460ff16151514156124c0576040517fdc8eb7a200000000000000000000000000000000000000000000000000000000815260040160405180910390fd5b6011546010819055508160118190555080600e90805190602001906124e6929190613c9b565b506000601460006101000a81548160ff0219169083151502179055505050565b61250e6127d0565b73ffffffffffffffffffffffffffffffffffffffff1661252c611b7f565b73ffffffffffffffffffffffffffffffffffffffff1614612582576040517f08c379a000000000000000000000000000000000000000000000000000000000815260040161257990614759565b60405180910390fd5b80600e9080519060200190612598929190613c9b565b5050565b6125a46127d0565b73ffffffffffffffffffffffffffffffffffffffff166125c2611b7f565b73ffffffffffffffffffffffffffffffffffffffff1614612618576040517f08c379a000000000000000000000000000000000000000000000000000000000815260040161260f90614759565b60405180910390fd5b600073ffffffffffffffffffffffffffffffffffffffff168173ffffffffffffffffffffffffffffffffffffffff161415612688576040517f08c379a000000000000000000000000000000000000000000000000000000000815260040161267f90614739565b60405180910390fd5b61269181613257565b50565b601581815481106126a457600080fd5b90600052602060002090600302016000915090508060000154908060010154908060020180546126d390614b57565b80601f01602080910402602001604051908101604052809291908181526020018280546126ff90614b57565b801561274c5780601f106127215761010080835404028352916020019161274c565b820191906000526020600020905b81548152906001019060200180831161272f57829003601f168201915b5050505050905083565b60007f2a55205a000000000000000000000000000000000000000000000000000000007bffffffffffffffffffffffffffffffffffffffffffffffffffffffff1916827bffffffffffffffffffffffffffffffffffffffffffffffffffffffff191614806127c957506127c8826136c6565b5b9050919050565b600033905090565b6127e0612fa5565b6bffffffffffffffffffffffff16816bffffffffffffffffffffffff16111561283e576040517f08c379a000000000000000000000000000000000000000000000000000000000815260040161283590614779565b60405180910390fd5b600073ffffffffffffffffffffffffffffffffffffffff168273ffffffffffffffffffffffffffffffffffffffff1614156128ae576040517f08c379a00000000000000000000000000000000000000000000000000000000081526004016128a590614799565b60405180910390fd5b60405180604001604052808373ffffffffffffffffffffffffffffffffffffffff168152602001826bffffffffffffffffffffffff16815250600760008201518160000160006101000a81548173ffffffffffffffffffffffffffffffffffffffff021916908373ffffffffffffffffffffffffffffffffffffffff16021790555060208201518160000160146101000a8154816bffffffffffffffffffffffff02191690836bffffffffffffffffffffffff1602179055509050505050565b60008060009054906101000a90046fffffffffffffffffffffffffffffffff166fffffffffffffffffffffffffffffffff16821080156129cf575060036000838152602001908152602001600020600001601c9054906101000a900460ff16155b9050919050565b826005600084815260200190815260200160002060006101000a81548173ffffffffffffffffffffffffffffffffffffffff021916908373ffffffffffffffffffffffffffffffffffffffff160217905550818373ffffffffffffffffffffffffffffffffffffffff168273ffffffffffffffffffffffffffffffffffffffff167f8c5be1e5ebec7d5bd14f71427d1e84f3dd0314c0f7b2291e5b200ac8c7c3b92560405160405180910390a4505050565b6000612a9382612faf565b90506000816000015173ffffffffffffffffffffffffffffffffffffffff16612aba6127d0565b73ffffffffffffffffffffffffffffffffffffffff161480612aed5750612aec8260000151612ae76127d0565b612320565b5b80612b325750612afb6127d0565b73ffffffffffffffffffffffffffffffffffffffff16612b1a84610c24565b73ffffffffffffffffffffffffffffffffffffffff16145b905080612b6b576040517f59c896be00000000000000000000000000000000000000000000000000000000815260040160405180910390fd5b8473ffffffffffffffffffffffffffffffffffffffff16826000015173ffffffffffffffffffffffffffffffffffffffff1614612bd4576040517fa114810000000000000000000000000000000000000000000000000000000000815260040160405180910390fd5b600073ffffffffffffffffffffffffffffffffffffffff168473ffffffffffffffffffffffffffffffffffffffff161415612c3b576040517fea553b3400000000000000000000000000000000000000000000000000000000815260040160405180910390fd5b612c488585856001613810565b612c5860008484600001516129d6565b6001600460008773ffffffffffffffffffffffffffffffffffffffff1673ffffffffffffffffffffffffffffffffffffffff16815260200190815260200160002060000160008282829054906101000a900467ffffffffffffffff160392506101000a81548167ffffffffffffffff021916908367ffffffffffffffff1602179055506001600460008673ffffffffffffffffffffffffffffffffffffffff1673ffffffffffffffffffffffffffffffffffffffff16815260200190815260200160002060000160008282829054906101000a900467ffffffffffffffff160192506101000a81548167ffffffffffffffff021916908367ffffffffffffffff160217905550836003600085815260200190815260200160002060000160006101000a81548173ffffffffffffffffffffffffffffffffffffffff021916908373ffffffffffffffffffffffffffffffffffffffff160217905550426003600085815260200190815260200160002060000160146101000a81548167ffffffffffffffff021916908367ffffffffffffffff1602179055506000600184019050600073ffffffffffffffffffffffffffffffffffffffff166003600083815260200190815260200160002060000160009054906101000a900473ffffffffffffffffffffffffffffffffffffffff1673ffffffffffffffffffffffffffffffffffffffff161415612f355760008054906101000a90046fffffffffffffffffffffffffffffffff166fffffffffffffffffffffffffffffffff16811015612f345782600001516003600083815260200190815260200160002060000160006101000a81548173ffffffffffffffffffffffffffffffffffffffff021916908373ffffffffffffffffffffffffffffffffffffffff16021790555082602001516003600083815260200190815260200160002060000160146101000a81548167ffffffffffffffff021916908367ffffffffffffffff1602179055505b5b50828473ffffffffffffffffffffffffffffffffffffffff168673ffffffffffffffffffffffffffffffffffffffff167fddf252ad1be2c89b69c2b068fc378daa952ba7f163c4a11628f55a4df523b3ef60405160405180910390a4612f9e8585856001613816565b5050505050565b6000612710905090565b612fb7613d21565b600082905060008054906101000a90046fffffffffffffffffffffffffffffffff166fffffffffffffffffffffffffffffffff16811015613220576000600360008381526020019081526020016000206040518060600160405290816000820160009054906101000a900473ffffffffffffffffffffffffffffffffffffffff1673ffffffffffffffffffffffffffffffffffffffff1673ffffffffffffffffffffffffffffffffffffffff1681526020016000820160149054906101000a900467ffffffffffffffff1667ffffffffffffffff1667ffffffffffffffff16815260200160008201601c9054906101000a900460ff1615151515815250509050806040015161321e57600073ffffffffffffffffffffffffffffffffffffffff16816000015173ffffffffffffffffffffffffffffffffffffffff1614613102578092505050613252565b5b60011561321d57818060019003925050600360008381526020019081526020016000206040518060600160405290816000820160009054906101000a900473ffffffffffffffffffffffffffffffffffffffff1673ffffffffffffffffffffffffffffffffffffffff1673ffffffffffffffffffffffffffffffffffffffff1681526020016000820160149054906101000a900467ffffffffffffffff1667ffffffffffffffff1667ffffffffffffffff16815260200160008201601c9054906101000a900460ff1615151515815250509050600073ffffffffffffffffffffffffffffffffffffffff16816000015173ffffffffffffffffffffffffffffffffffffffff1614613218578092505050613252565b613103565b5b505b6040517fdf2d9b4200000000000000000000000000000000000000000000000000000000815260040160405180910390fd5b919050565b6000600960009054906101000a900473ffffffffffffffffffffffffffffffffffffffff16905081600960006101000a81548173ffffffffffffffffffffffffffffffffffffffff021916908373ffffffffffffffffffffffffffffffffffffffff1602179055508173ffffffffffffffffffffffffffffffffffffffff168173ffffffffffffffffffffffffffffffffffffffff167f8be0079c531659141344cd1fd0a4f28419497f9722a3daafe3b4186f6b6457e060405160405180910390a35050565b61333782826040518060200160405280600081525061381c565b5050565b600061335c8473ffffffffffffffffffffffffffffffffffffffff1661382e565b156134bc578373ffffffffffffffffffffffffffffffffffffffff1663150b7a026133856127d0565b8786866040518563ffffffff1660e01b81526004016133a7949392919061460c565b602060405180830381600087803b1580156133c157600080fd5b505af19250505080156133f257506040513d601f19601f820116820180604052508101906133ef919061410f565b60015b61346c573d8060008114613422576040519150601f19603f3d011682016040523d82523d6000602084013e613427565b606091505b50600081511415613464576040517fd1a57ed600000000000000000000000000000000000000000000000000000000815260040160405180910390fd5b805181602001fd5b63150b7a0260e01b7bffffffffffffffffffffffffffffffffffffffffffffffffffffffff1916817bffffffffffffffffffffffffffffffffffffffffffffffffffffffff1916149150506134c1565b600190505b949350505050565b61356182826040516024016134df929190614702565b6040516020818303038152906040527f4b5c4277000000000000000000000000000000000000000000000000000000007bffffffffffffffffffffffffffffffffffffffffffffffffffffffff19166020820180517bffffffffffffffffffffffffffffffffffffffffffffffffffffffff8381831617835250505050613851565b5050565b606060008214156135ad576040518060400160405280600181526020017f300000000000000000000000000000000000000000000000000000000000000081525090506136c1565b600082905060005b600082146135df5780806135c890614bba565b915050600a826135d891906149ca565b91506135b5565b60008167ffffffffffffffff8111156135fb576135fa614cf0565b5b6040519080825280601f01601f19166020018201604052801561362d5781602001600182028036833780820191505090505b5090505b600085146136ba576001826136469190614a55565b9150600a856136559190614c03565b60306136619190614974565b60f81b81838151811061367757613676614cc1565b5b60200101907effffffffffffffffffffffffffffffffffffffffffffffffffffffffffffff1916908160001a905350600a856136b391906149ca565b9450613631565b8093505050505b919050565b60007f80ac58cd000000000000000000000000000000000000000000000000000000007bffffffffffffffffffffffffffffffffffffffffffffffffffffffff1916827bffffffffffffffffffffffffffffffffffffffffffffffffffffffff1916148061379157507f5b5e139f000000000000000000000000000000000000000000000000000000007bffffffffffffffffffffffffffffffffffffffffffffffffffffffff1916827bffffffffffffffffffffffffffffffffffffffffffffffffffffffff1916145b806137f957507f780e9d63000000000000000000000000000000000000000000000000000000007bffffffffffffffffffffffffffffffffffffffffffffffffffffffff1916827bffffffffffffffffffffffffffffffffffffffffffffffffffffffff1916145b8061380957506138088261387a565b5b9050919050565b50505050565b50505050565b61382983838360016138e4565b505050565b6000808273ffffffffffffffffffffffffffffffffffffffff163b119050919050565b60008151905060006a636f6e736f6c652e6c6f679050602083016000808483855afa5050505050565b60007f01ffc9a7000000000000000000000000000000000000000000000000000000007bffffffffffffffffffffffffffffffffffffffffffffffffffffffff1916827bffffffffffffffffffffffffffffffffffffffffffffffffffffffff1916149050919050565b60008060009054906101000a90046fffffffffffffffffffffffffffffffff166fffffffffffffffffffffffffffffffff169050600073ffffffffffffffffffffffffffffffffffffffff168573ffffffffffffffffffffffffffffffffffffffff16141561397f576040517f2e07630000000000000000000000000000000000000000000000000000000000815260040160405180910390fd5b60008414156139ba576040517fb562e8dd00000000000000000000000000000000000000000000000000000000815260040160405180910390fd5b6139c76000868387613810565b83600460008773ffffffffffffffffffffffffffffffffffffffff1673ffffffffffffffffffffffffffffffffffffffff16815260200190815260200160002060000160008282829054906101000a900467ffffffffffffffff160192506101000a81548167ffffffffffffffff021916908367ffffffffffffffff16021790555083600460008773ffffffffffffffffffffffffffffffffffffffff1673ffffffffffffffffffffffffffffffffffffffff16815260200190815260200160002060000160088282829054906101000a900467ffffffffffffffff160192506101000a81548167ffffffffffffffff021916908367ffffffffffffffff160217905550846003600083815260200190815260200160002060000160006101000a81548173ffffffffffffffffffffffffffffffffffffffff021916908373ffffffffffffffffffffffffffffffffffffffff160217905550426003600083815260200190815260200160002060000160146101000a81548167ffffffffffffffff021916908367ffffffffffffffff160217905550600081905060005b85811015613c2c57818773ffffffffffffffffffffffffffffffffffffffff16600073ffffffffffffffffffffffffffffffffffffffff167fddf252ad1be2c89b69c2b068fc378daa952ba7f163c4a11628f55a4df523b3ef60405160405180910390a4838015613be05750613bde600088848861333b565b155b15613c17576040517fd1a57ed600000000000000000000000000000000000000000000000000000000815260040160405180910390fd5b81806001019250508080600101915050613b65565b50806000806101000a8154816fffffffffffffffffffffffffffffffff02191690836fffffffffffffffffffffffffffffffff16021790555050613c736000868387613816565b5050505050565b60405180606001604052806000815260200160008152602001606081525090565b828054613ca790614b57565b90600052602060002090601f016020900481019282613cc95760008555613d10565b82601f10613ce257805160ff1916838001178555613d10565b82800160010185558215613d10579182015b82811115613d0f578251825591602001919060010190613cf4565b5b509050613d1d9190613d64565b5090565b6040518060600160405280600073ffffffffffffffffffffffffffffffffffffffff168152602001600067ffffffffffffffff1681526020016000151581525090565b5b80821115613d7d576000816000905550600101613d65565b5090565b6000613d94613d8f84614837565b614812565b905082815260208101848484011115613db057613daf614d24565b5b613dbb848285614b15565b509392505050565b6000613dd6613dd184614868565b614812565b905082815260208101848484011115613df257613df1614d24565b5b613dfd848285614b15565b509392505050565b600081359050613e1481614e34565b92915050565b600081359050613e2981614e4b565b92915050565b600081359050613e3e81614e62565b92915050565b600081519050613e5381614e62565b92915050565b600082601f830112613e6e57613e6d614d1f565b5b8135613e7e848260208601613d81565b91505092915050565b600082601f830112613e9c57613e9b614d1f565b5b8135613eac848260208601613dc3565b91505092915050565b600081359050613ec481614e79565b92915050565b600081359050613ed981614e90565b92915050565b600060208284031215613ef557613ef4614d2e565b5b6000613f0384828501613e05565b91505092915050565b60008060408385031215613f2357613f22614d2e565b5b6000613f3185828601613e05565b9250506020613f4285828601613e05565b9150509250929050565b600080600060608486031215613f6557613f64614d2e565b5b6000613f7386828701613e05565b9350506020613f8486828701613e05565b9250506040613f9586828701613eb5565b9150509250925092565b60008060008060808587031215613fb957613fb8614d2e565b5b6000613fc787828801613e05565b9450506020613fd887828801613e05565b9350506040613fe987828801613eb5565b925050606085013567ffffffffffffffff81111561400a57614009614d29565b5b61401687828801613e59565b91505092959194509250565b6000806040838503121561403957614038614d2e565b5b600061404785828601613e05565b925050602061405885828601613e1a565b9150509250929050565b6000806040838503121561407957614078614d2e565b5b600061408785828601613e05565b925050602061409885828601613eb5565b9150509250929050565b600080604083850312156140b9576140b8614d2e565b5b60006140c785828601613e05565b92505060206140d885828601613eca565b9150509250929050565b6000602082840312156140f8576140f7614d2e565b5b600061410684828501613e2f565b91505092915050565b60006020828403121561412557614124614d2e565b5b600061413384828501613e44565b91505092915050565b60006020828403121561415257614151614d2e565b5b600082013567ffffffffffffffff8111156141705761416f614d29565b5b61417c84828501613e87565b91505092915050565b60006020828403121561419b5761419a614d2e565b5b60006141a984828501613eb5565b91505092915050565b600080604083850312156141c9576141c8614d2e565b5b60006141d785828601613eb5565b925050602083013567ffffffffffffffff8111156141f8576141f7614d29565b5b61420485828601613e87565b9150509250929050565b6000806040838503121561422557614224614d2e565b5b600061423385828601613eb5565b925050602061424485828601613eb5565b9150509250929050565b600061425a8383614552565b905092915050565b600061426e83836145a2565b60208301905092915050565b61428381614a89565b82525050565b6000614294826148ce565b61429e8185614914565b9350836020820285016142b085614899565b8060005b858110156142ec57848403895281516142cd858261424e565b94506142d8836148fa565b925060208a019950506001810190506142b4565b50829750879550505050505092915050565b6000614309826148d9565b6143138185614925565b935061431e836148a9565b8060005b8381101561434f5781516143368882614262565b975061434183614907565b925050600181019050614322565b5085935050505092915050565b61436581614a9b565b82525050565b6000614376826148e4565b6143808185614936565b9350614390818560208601614b24565b61439981614d33565b840191505092915050565b60006143af826148ef565b6143b98185614947565b93506143c9818560208601614b24565b6143d281614d33565b840191505092915050565b60006143e8826148ef565b6143f28185614958565b9350614402818560208601614b24565b61440b81614d33565b840191505092915050565b6000614421826148ef565b61442b8185614969565b935061443b818560208601614b24565b80840191505092915050565b6000815461445481614b57565b61445e8186614969565b94506001821660008114614479576001811461448a576144bd565b60ff198316865281860193506144bd565b614493856148b9565b60005b838110156144b557815481890152600182019150602081019050614496565b838801955050505b50505092915050565b60006144d3602683614958565b91506144de82614d44565b604082019050919050565b60006144f6602083614958565b915061450182614d93565b602082019050919050565b6000614519602a83614958565b915061452482614dbc565b604082019050919050565b600061453c601983614958565b915061454782614e0b565b602082019050919050565b600060608301600083015161456a60008601826145a2565b50602083015161457d60208601826145a2565b506040830151848203604086015261459582826143a4565b9150508091505092915050565b6145ab81614af3565b82525050565b6145ba81614af3565b82525050565b60006145cc8286614416565b91506145d88285614416565b91506145e48284614447565b9150819050949350505050565b6000602082019050614606600083018461427a565b92915050565b6000608082019050614621600083018761427a565b61462e602083018661427a565b61463b60408301856145b1565b818103606083015261464d818461436b565b905095945050505050565b600060408201905061466d600083018561427a565b61467a60208301846145b1565b9392505050565b6000602082019050818103600083015261469b8184614289565b905092915050565b600060208201905081810360008301526146bd81846142fe565b905092915050565b60006020820190506146da600083018461435c565b92915050565b600060208201905081810360008301526146fa81846143dd565b905092915050565b6000604082019050818103600083015261471c81856143dd565b9050818103602083015261473081846143dd565b90509392505050565b60006020820190508181036000830152614752816144c6565b9050919050565b60006020820190508181036000830152614772816144e9565b9050919050565b600060208201905081810360008301526147928161450c565b9050919050565b600060208201905081810360008301526147b28161452f565b9050919050565b60006020820190506147ce60008301846145b1565b92915050565b60006060820190506147e960008301866145b1565b6147f660208301856145b1565b818103604083015261480881846143dd565b9050949350505050565b600061481c61482d565b90506148288282614b89565b919050565b6000604051905090565b600067ffffffffffffffff82111561485257614851614cf0565b5b61485b82614d33565b9050602081019050919050565b600067ffffffffffffffff82111561488357614882614cf0565b5b61488c82614d33565b9050602081019050919050565b6000819050602082019050919050565b6000819050602082019050919050565b60008190508160005260206000209050919050565b600081519050919050565b600081519050919050565b600081519050919050565b600081519050919050565b6000602082019050919050565b6000602082019050919050565b600082825260208201905092915050565b600082825260208201905092915050565b600082825260208201905092915050565b600082825260208201905092915050565b600082825260208201905092915050565b600081905092915050565b600061497f82614af3565b915061498a83614af3565b9250827fffffffffffffffffffffffffffffffffffffffffffffffffffffffffffffffff038211156149bf576149be614c34565b5b828201905092915050565b60006149d582614af3565b91506149e083614af3565b9250826149f0576149ef614c63565b5b828204905092915050565b6000614a0682614af3565b9150614a1183614af3565b9250817fffffffffffffffffffffffffffffffffffffffffffffffffffffffffffffffff0483118215151615614a4a57614a49614c34565b5b828202905092915050565b6000614a6082614af3565b9150614a6b83614af3565b925082821015614a7e57614a7d614c34565b5b828203905092915050565b6000614a9482614ad3565b9050919050565b60008115159050919050565b60007fffffffff0000000000000000000000000000000000000000000000000000000082169050919050565b600073ffffffffffffffffffffffffffffffffffffffff82169050919050565b6000819050919050565b60006bffffffffffffffffffffffff82169050919050565b82818337600083830152505050565b60005b83811015614b42578082015181840152602081019050614b27565b83811115614b51576000848401525b50505050565b60006002820490506001821680614b6f57607f821691505b60208210811415614b8357614b82614c92565b5b50919050565b614b9282614d33565b810181811067ffffffffffffffff82111715614bb157614bb0614cf0565b5b80604052505050565b6000614bc582614af3565b91507fffffffffffffffffffffffffffffffffffffffffffffffffffffffffffffffff821415614bf857614bf7614c34565b5b600182019050919050565b6000614c0e82614af3565b9150614c1983614af3565b925082614c2957614c28614c63565b5b828206905092915050565b7f4e487b7100000000000000000000000000000000000000000000000000000000600052601160045260246000fd5b7f4e487b7100000000000000000000000000000000000000000000000000000000600052601260045260246000fd5b7f4e487b7100000000000000000000000000000000000000000000000000000000600052602260045260246000fd5b7f4e487b7100000000000000000000000000000000000000000000000000000000600052603260045260246000fd5b7f4e487b7100000000000000000000000000000000000000000000000000000000600052604160045260246000fd5b600080fd5b600080fd5b600080fd5b600080fd5b6000601f19601f8301169050919050565b7f4f776e61626c653a206e6577206f776e657220697320746865207a65726f206160008201527f6464726573730000000000000000000000000000000000000000000000000000602082015250565b7f4f776e61626c653a2063616c6c6572206973206e6f7420746865206f776e6572600082015250565b7f455243323938313a20726f79616c7479206665652077696c6c2065786365656460008201527f2073616c65507269636500000000000000000000000000000000000000000000602082015250565b7f455243323938313a20696e76616c696420726563656976657200000000000000600082015250565b614e3d81614a89565b8114614e4857600080fd5b50565b614e5481614a9b565b8114614e5f57600080fd5b50565b614e6b81614aa7565b8114614e7657600080fd5b50565b614e8281614af3565b8114614e8d57600080fd5b50565b614e9981614afd565b8114614ea457600080fd5b5056fea26469706673582212207785ba810d6b66f286b7c5c6d814bf0dc682ab66690a65517819faae582e161f64736f6c63430008070033",
  "linkReferences": {},
  "deployedLinkReferences": {}
}