{
  "_format": "hh-sol-artifact-1",
  "contractName": "ResearchFundingClubFast",
  "sourceName": "contracts/ResearchFundingClubFast.sol",
  "abi": [
    {
      "inputs": [
        {
          "internalType": "uint96",
          "name": "_royaltyFeesInBips",
          "type": "uint96"
        },
        {
          "internalType": "string",
          "name": "_notRevealedURI",
          "type": "string"
        }
      ],
      "stateMutability": "nonpayable",
      "type": "constructor"
    },
    {
      "inputs": [],
      "name": "ApprovalCallerNotOwnerNorApproved",
      "type": "error"
    },
    {
      "inputs": [],
      "name": "ApprovalQueryForNonexistentToken",
      "type": "error"
    },
    {
      "inputs": [],
      "name": "ApprovalToCurrentOwner",
      "type": "error"
    },
    {
      "inputs": [],
      "name": "ApproveToCaller",
      "type": "error"
    },
    {
      "inputs": [],
      "name": "BalanceQueryForZeroAddress",
      "type": "error"
    },
    {
      "inputs": [],
      "name": "CollectionNotRevealedYet",
      "type": "error"
    },
    {
      "inputs": [],
      "name": "MintToZeroAddress",
      "type": "error"
    },
    {
      "inputs": [],
      "name": "MintZeroQuantity",
      "type": "error"
    },
    {
      "inputs": [],
      "name": "OwnerIndexOutOfBounds",
      "type": "error"
    },
    {
      "inputs": [],
      "name": "OwnerQueryForNonexistentToken",
      "type": "error"
    },
    {
      "inputs": [],
      "name": "SaleIncomplete",
      "type": "error"
    },
    {
      "inputs": [],
      "name": "TokenIndexOutOfBounds",
      "type": "error"
    },
    {
      "inputs": [],
      "name": "TransferCallerNotOwnerNorApproved",
      "type": "error"
    },
    {
      "inputs": [],
      "name": "TransferFromIncorrectOwner",
      "type": "error"
    },
    {
      "inputs": [],
      "name": "TransferToNonERC721ReceiverImplementer",
      "type": "error"
    },
    {
      "inputs": [],
      "name": "TransferToZeroAddress",
      "type": "error"
    },
    {
      "inputs": [],
      "name": "URIQueryForNonexistentTokenRFC",
      "type": "error"
    },
    {
      "anonymous": false,
      "inputs": [
        {
          "indexed": true,
          "internalType": "address",
          "name": "owner",
          "type": "address"
        },
        {
          "indexed": true,
          "internalType": "address",
          "name": "approved",
          "type": "address"
        },
        {
          "indexed": true,
          "internalType": "uint256",
          "name": "tokenId",
          "type": "uint256"
        }
      ],
      "name": "Approval",
      "type": "event"
    },
    {
      "anonymous": false,
      "inputs": [
        {
          "indexed": true,
          "internalType": "address",
          "name": "owner",
          "type": "address"
        },
        {
          "indexed": true,
          "internalType": "address",
          "name": "operator",
          "type": "address"
        },
        {
          "indexed": false,
          "internalType": "bool",
          "name": "approved",
          "type": "bool"
        }
      ],
      "name": "ApprovalForAll",
      "type": "event"
    },
    {
      "anonymous": false,
      "inputs": [
        {
          "indexed": true,
          "internalType": "address",
          "name": "previousOwner",
          "type": "address"
        },
        {
          "indexed": true,
          "internalType": "address",
          "name": "newOwner",
          "type": "address"
        }
      ],
      "name": "OwnershipTransferred",
      "type": "event"
    },
    {
      "anonymous": false,
      "inputs": [
        {
          "indexed": true,
          "internalType": "address",
          "name": "from",
          "type": "address"
        },
        {
          "indexed": true,
          "internalType": "address",
          "name": "to",
          "type": "address"
        },
        {
          "indexed": true,
          "internalType": "uint256",
          "name": "tokenId",
          "type": "uint256"
        }
      ],
      "name": "Transfer",
      "type": "event"
    },
    {
      "inputs": [],
      "name": "MAX_PER_MINT",
      "outputs": [
        {
          "internalType": "uint256",
          "name": "",
          "type": "uint256"
        }
      ],
      "stateMutability": "view",
      "type": "function"
    },
    {
      "inputs": [],
      "name": "MAX_SUPPLY",
      "outputs": [
        {
          "internalType": "uint256",
          "name": "",
          "type": "uint256"
        }
      ],
      "stateMutability": "view",
      "type": "function"
    },
    {
      "inputs": [],
      "name": "MIN_SUPPLY",
      "outputs": [
        {
          "internalType": "uint256",
          "name": "",
          "type": "uint256"
        }
      ],
      "stateMutability": "view",
      "type": "function"
    },
    {
      "inputs": [],
      "name": "PRICE",
      "outputs": [
        {
          "internalType": "uint256",
          "name": "",
          "type": "uint256"
        }
      ],
      "stateMutability": "view",
      "type": "function"
    },
    {
      "inputs": [
        {
          "internalType": "address",
          "name": "to",
          "type": "address"
        },
        {
          "internalType": "uint256",
          "name": "tokenId",
          "type": "uint256"
        }
      ],
      "name": "approve",
      "outputs": [],
      "stateMutability": "nonpayable",
      "type": "function"
    },
    {
      "inputs": [
        {
          "internalType": "address",
          "name": "owner",
          "type": "address"
        }
      ],
      "name": "balanceOf",
      "outputs": [
        {
          "internalType": "uint256",
          "name": "",
          "type": "uint256"
        }
      ],
      "stateMutability": "view",
      "type": "function"
    },
    {
      "inputs": [],
      "name": "baseExtension",
      "outputs": [
        {
          "internalType": "string",
          "name": "",
          "type": "string"
        }
      ],
      "stateMutability": "view",
      "type": "function"
    },
    {
      "inputs": [],
      "name": "baseTokenURI",
      "outputs": [
        {
          "internalType": "string",
          "name": "",
          "type": "string"
        }
      ],
      "stateMutability": "view",
      "type": "function"
    },
    {
      "inputs": [],
      "name": "baseURI",
      "outputs": [
        {
          "internalType": "string",
          "name": "",
          "type": "string"
        }
      ],
      "stateMutability": "view",
      "type": "function"
    },
    {
      "inputs": [],
      "name": "charityWallet",
      "outputs": [
        {
          "internalType": "address",
          "name": "",
          "type": "address"
        }
      ],
      "stateMutability": "view",
      "type": "function"
    },
    {
      "inputs": [
        {
          "internalType": "uint256",
          "name": "",
          "type": "uint256"
        }
      ],
      "name": "collections",
      "outputs": [
        {
          "internalType": "uint256",
          "name": "minSupply",
          "type": "uint256"
        },
        {
          "internalType": "uint256",
          "name": "maxSupply",
          "type": "uint256"
        },
        {
          "internalType": "string",
          "name": "baseURI",
          "type": "string"
        }
      ],
      "stateMutability": "view",
      "type": "function"
    },
    {
      "inputs": [],
      "name": "devWallet",
      "outputs": [
        {
          "internalType": "address",
          "name": "",
          "type": "address"
        }
      ],
      "stateMutability": "view",
      "type": "function"
    },
    {
      "inputs": [
        {
          "internalType": "uint256",
          "name": "tokenId",
          "type": "uint256"
        }
      ],
      "name": "getApproved",
      "outputs": [
        {
          "internalType": "address",
          "name": "",
          "type": "address"
        }
      ],
      "stateMutability": "view",
      "type": "function"
    },
    {
      "inputs": [
        {
          "internalType": "address",
          "name": "owner",
          "type": "address"
        },
        {
          "internalType": "address",
          "name": "operator",
          "type": "address"
        }
      ],
      "name": "isApprovedForAll",
      "outputs": [
        {
          "internalType": "bool",
          "name": "",
          "type": "bool"
        }
      ],
      "stateMutability": "view",
      "type": "function"
    },
    {
      "inputs": [
        {
          "internalType": "uint256",
          "name": "quantity",
          "type": "uint256"
        }
      ],
      "name": "mint",
      "outputs": [],
      "stateMutability": "payable",
      "type": "function"
    },
    {
      "inputs": [],
      "name": "name",
      "outputs": [
        {
          "internalType": "string",
          "name": "",
          "type": "string"
        }
      ],
      "stateMutability": "view",
      "type": "function"
    },
    {
      "inputs": [
        {
          "internalType": "uint256",
          "name": "_newMaxSupply",
          "type": "uint256"
        },
        {
          "internalType": "string",
          "name": "_notRevealedURI",
          "type": "string"
        }
      ],
      "name": "newDrop",
      "outputs": [],
      "stateMutability": "nonpayable",
      "type": "function"
    },
    {
      "inputs": [],
      "name": "notRevealedURI",
      "outputs": [
        {
          "internalType": "string",
          "name": "",
          "type": "string"
        }
      ],
      "stateMutability": "view",
      "type": "function"
    },
    {
      "inputs": [],
      "name": "owner",
      "outputs": [
        {
          "internalType": "address",
          "name": "",
          "type": "address"
        }
      ],
      "stateMutability": "view",
      "type": "function"
    },
    {
      "inputs": [
        {
          "internalType": "uint256",
          "name": "tokenId",
          "type": "uint256"
        }
      ],
      "name": "ownerOf",
      "outputs": [
        {
          "internalType": "address",
          "name": "",
          "type": "address"
        }
      ],
      "stateMutability": "view",
      "type": "function"
    },
    {
      "inputs": [],
      "name": "paused",
      "outputs": [
        {
          "internalType": "bool",
          "name": "",
          "type": "bool"
        }
      ],
      "stateMutability": "view",
      "type": "function"
    },
    {
      "inputs": [],
      "name": "renounceOwnership",
      "outputs": [],
      "stateMutability": "nonpayable",
      "type": "function"
    },
    {
      "inputs": [
        {
          "internalType": "string",
          "name": "_newBaseURI",
          "type": "string"
        }
      ],
      "name": "reveal",
      "outputs": [],
      "stateMutability": "nonpayable",
      "type": "function"
    },
    {
      "inputs": [],
      "name": "revealed",
      "outputs": [
        {
          "internalType": "bool",
          "name": "",
          "type": "bool"
        }
      ],
      "stateMutability": "view",
      "type": "function"
    },
    {
      "inputs": [
        {
          "internalType": "uint256",
          "name": "_tokenId",
          "type": "uint256"
        },
        {
          "internalType": "uint256",
          "name": "_salePrice",
          "type": "uint256"
        }
      ],
      "name": "royaltyInfo",
      "outputs": [
        {
          "internalType": "address",
          "name": "",
          "type": "address"
        },
        {
          "internalType": "uint256",
          "name": "",
          "type": "uint256"
        }
      ],
      "stateMutability": "view",
      "type": "function"
    },
    {
      "inputs": [
        {
          "internalType": "address",
          "name": "from",
          "type": "address"
        },
        {
          "internalType": "address",
          "name": "to",
          "type": "address"
        },
        {
          "internalType": "uint256",
          "name": "tokenId",
          "type": "uint256"
        }
      ],
      "name": "safeTransferFrom",
      "outputs": [],
      "stateMutability": "nonpayable",
      "type": "function"
    },
    {
      "inputs": [
        {
          "internalType": "address",
          "name": "from",
          "type": "address"
        },
        {
          "internalType": "address",
          "name": "to",
          "type": "address"
        },
        {
          "internalType": "uint256",
          "name": "tokenId",
          "type": "uint256"
        },
        {
          "internalType": "bytes",
          "name": "_data",
          "type": "bytes"
        }
      ],
      "name": "safeTransferFrom",
      "outputs": [],
      "stateMutability": "nonpayable",
      "type": "function"
    },
    {
      "inputs": [
        {
          "internalType": "address",
          "name": "operator",
          "type": "address"
        },
        {
          "internalType": "bool",
          "name": "approved",
          "type": "bool"
        }
      ],
      "name": "setApprovalForAll",
      "outputs": [],
      "stateMutability": "nonpayable",
      "type": "function"
    },
    {
      "inputs": [
        {
          "internalType": "string",
          "name": "_newBaseExtension",
          "type": "string"
        }
      ],
      "name": "setBaseExtension",
      "outputs": [],
      "stateMutability": "nonpayable",
      "type": "function"
    },
    {
      "inputs": [
        {
          "internalType": "string",
          "name": "_baseTokenURI",
          "type": "string"
        }
      ],
      "name": "setBaseURI",
      "outputs": [],
      "stateMutability": "nonpayable",
      "type": "function"
    },
    {
      "inputs": [
        {
          "internalType": "uint256",
          "name": "_newCost",
          "type": "uint256"
        }
      ],
      "name": "setCost",
      "outputs": [],
      "stateMutability": "nonpayable",
      "type": "function"
    },
    {
      "inputs": [
        {
          "internalType": "string",
          "name": "_notRevealedURI",
          "type": "string"
        }
      ],
      "name": "setNotRevealedURI",
      "outputs": [],
      "stateMutability": "nonpayable",
      "type": "function"
    },
    {
      "inputs": [
        {
          "internalType": "address",
          "name": "_receiver",
          "type": "address"
        },
        {
          "internalType": "uint96",
          "name": "_royaltyFeesInBips",
          "type": "uint96"
        }
      ],
      "name": "setRoyaltyInfo",
      "outputs": [],
      "stateMutability": "nonpayable",
      "type": "function"
    },
    {
      "inputs": [
        {
          "internalType": "uint256",
          "name": "_limit",
          "type": "uint256"
        }
      ],
      "name": "setmaxMintAmount",
      "outputs": [],
      "stateMutability": "nonpayable",
      "type": "function"
    },
    {
      "inputs": [
        {
          "internalType": "uint256",
          "name": "_limit",
          "type": "uint256"
        }
      ],
      "name": "setmaxSupply",
      "outputs": [],
      "stateMutability": "nonpayable",
      "type": "function"
    },
    {
      "inputs": [],
      "name": "showCollections",
      "outputs": [
        {
          "components": [
            {
              "internalType": "uint256",
              "name": "minSupply",
              "type": "uint256"
            },
            {
              "internalType": "uint256",
              "name": "maxSupply",
              "type": "uint256"
            },
            {
              "internalType": "string",
              "name": "baseURI",
              "type": "string"
            }
          ],
          "internalType": "struct ResearchFundingClubFast.CollectionData[]",
          "name": "",
          "type": "tuple[]"
        }
      ],
      "stateMutability": "view",
      "type": "function"
    },
    {
      "inputs": [
        {
          "internalType": "bytes4",
          "name": "interfaceId",
          "type": "bytes4"
        }
      ],
      "name": "supportsInterface",
      "outputs": [
        {
          "internalType": "bool",
          "name": "",
          "type": "bool"
        }
      ],
      "stateMutability": "view",
      "type": "function"
    },
    {
      "inputs": [],
      "name": "symbol",
      "outputs": [
        {
          "internalType": "string",
          "name": "",
          "type": "string"
        }
      ],
      "stateMutability": "view",
      "type": "function"
    },
    {
      "inputs": [
        {
          "internalType": "uint256",
          "name": "index",
          "type": "uint256"
        }
      ],
      "name": "tokenByIndex",
      "outputs": [
        {
          "internalType": "uint256",
          "name": "",
          "type": "uint256"
        }
      ],
      "stateMutability": "view",
      "type": "function"
    },
    {
      "inputs": [
        {
          "internalType": "address",
          "name": "owner",
          "type": "address"
        },
        {
          "internalType": "uint256",
          "name": "index",
          "type": "uint256"
        }
      ],
      "name": "tokenOfOwnerByIndex",
      "outputs": [
        {
          "internalType": "uint256",
          "name": "",
          "type": "uint256"
        }
      ],
      "stateMutability": "view",
      "type": "function"
    },
    {
      "inputs": [
        {
          "internalType": "uint256",
          "name": "tokenId",
          "type": "uint256"
        }
      ],
      "name": "tokenURI",
      "outputs": [
        {
          "internalType": "string",
          "name": "",
          "type": "string"
        }
      ],
      "stateMutability": "view",
      "type": "function"
    },
    {
      "inputs": [
        {
          "internalType": "address",
          "name": "_owner",
          "type": "address"
        }
      ],
      "name": "tokensOfOwner",
      "outputs": [
        {
          "internalType": "uint256[]",
          "name": "",
          "type": "uint256[]"
        }
      ],
      "stateMutability": "view",
      "type": "function"
    },
    {
      "inputs": [],
      "name": "totalSupply",
      "outputs": [
        {
          "internalType": "uint256",
          "name": "",
          "type": "uint256"
        }
      ],
      "stateMutability": "view",
      "type": "function"
    },
    {
      "inputs": [
        {
          "internalType": "address",
          "name": "from",
          "type": "address"
        },
        {
          "internalType": "address",
          "name": "to",
          "type": "address"
        },
        {
          "internalType": "uint256",
          "name": "tokenId",
          "type": "uint256"
        }
      ],
      "name": "transferFrom",
      "outputs": [],
      "stateMutability": "nonpayable",
      "type": "function"
    },
    {
      "inputs": [
        {
          "internalType": "address",
          "name": "newOwner",
          "type": "address"
        }
      ],
      "name": "transferOwnership",
      "outputs": [],
      "stateMutability": "nonpayable",
      "type": "function"
    },
    {
      "inputs": [],
      "name": "withdraw",
      "outputs": [],
      "stateMutability": "nonpayable",
      "type": "function"
    }
  ],
  "bytecode": "0x60806040526000600c60006101000a81548160ff0219169083151502179055506040518060400160405280600581526020017f2e6a736f6e000000000000000000000000000000000000000000000000000000815250600d90805190602001906200006c929190620005c4565b506000601055600a601155655af3107a400060125560016013556000601460006101000a81548160ff02191690831515021790555073f9351cfab08d72e873424708a817a067fa33f45f601660006101000a81548173ffffffffffffffffffffffffffffffffffffffff021916908373ffffffffffffffffffffffffffffffffffffffff16021790555073f9351cfab08d72e873424708a817a067fa33f45f601760006101000a81548173ffffffffffffffffffffffffffffffffffffffff021916908373ffffffffffffffffffffffffffffffffffffffff1602179055503480156200015857600080fd5b5060405162005fa438038062005fa483398181016040528101906200017e919062000709565b6040518060400160405280601581526020017f52657365617263682046756e64696e6720436c756200000000000000000000008152506040518060400160405280600381526020017f5246430000000000000000000000000000000000000000000000000000000000815250816001908051906020019062000202929190620005c4565b5080600290805190602001906200021b929190620005c4565b5050506200023e620002326200027960201b60201c565b6200028160201b60201c565b6001600a819055506200025833836200034760201b60201c565b80600e908051906020019062000270929190620005c4565b50505062000ab2565b600033905090565b6000600960009054906101000a900473ffffffffffffffffffffffffffffffffffffffff16905081600960006101000a81548173ffffffffffffffffffffffffffffffffffffffff021916908373ffffffffffffffffffffffffffffffffffffffff1602179055508173ffffffffffffffffffffffffffffffffffffffff168173ffffffffffffffffffffffffffffffffffffffff167f8be0079c531659141344cd1fd0a4f28419497f9722a3daafe3b4186f6b6457e060405160405180910390a35050565b620003576200027960201b60201c565b73ffffffffffffffffffffffffffffffffffffffff166200037d620003ec60201b60201c565b73ffffffffffffffffffffffffffffffffffffffff1614620003d6576040517f08c379a0000000000000000000000000000000000000000000000000000000008152600401620003cd90620007e4565b60405180910390fd5b620003e882826200041660201b60201c565b5050565b6000600960009054906101000a900473ffffffffffffffffffffffffffffffffffffffff16905090565b62000426620005ba60201b60201c565b6bffffffffffffffffffffffff16816bffffffffffffffffffffffff16111562000487576040517f08c379a00000000000000000000000000000000000000000000000000000000081526004016200047e9062000806565b60405180910390fd5b600073ffffffffffffffffffffffffffffffffffffffff168273ffffffffffffffffffffffffffffffffffffffff161415620004fa576040517f08c379a0000000000000000000000000000000000000000000000000000000008152600401620004f19062000828565b60405180910390fd5b60405180604001604052808373ffffffffffffffffffffffffffffffffffffffff168152602001826bffffffffffffffffffffffff16815250600760008201518160000160006101000a81548173ffffffffffffffffffffffffffffffffffffffff021916908373ffffffffffffffffffffffffffffffffffffffff16021790555060208201518160000160146101000a8154816bffffffffffffffffffffffff02191690836bffffffffffffffffffffffff1602179055509050505050565b6000612710905090565b828054620005d29062000908565b90600052602060002090601f016020900481019282620005f6576000855562000642565b82601f106200061157805160ff191683800117855562000642565b8280016001018555821562000642579182015b828111156200064157825182559160200191906001019062000624565b5b50905062000651919062000655565b5090565b5b808211156200067057600081600090555060010162000656565b5090565b60006200068b620006858462000873565b6200084a565b905082815260208101848484011115620006aa57620006a9620009d7565b5b620006b7848285620008d2565b509392505050565b600082601f830112620006d757620006d6620009d2565b5b8151620006e984826020860162000674565b91505092915050565b600081519050620007038162000a98565b92915050565b60008060408385031215620007235762000722620009e1565b5b60006200073385828601620006f2565b925050602083015167ffffffffffffffff811115620007575762000756620009dc565b5b6200076585828601620006bf565b9150509250929050565b60006200077e602083620008a9565b91506200078b82620009f7565b602082019050919050565b6000620007a5602a83620008a9565b9150620007b28262000a20565b604082019050919050565b6000620007cc601983620008a9565b9150620007d98262000a6f565b602082019050919050565b60006020820190508181036000830152620007ff816200076f565b9050919050565b60006020820190508181036000830152620008218162000796565b9050919050565b600060208201905081810360008301526200084381620007bd565b9050919050565b60006200085662000869565b90506200086482826200093e565b919050565b6000604051905090565b600067ffffffffffffffff821115620008915762000890620009a3565b5b6200089c82620009e6565b9050602081019050919050565b600082825260208201905092915050565b60006bffffffffffffffffffffffff82169050919050565b60005b83811015620008f2578082015181840152602081019050620008d5565b8381111562000902576000848401525b50505050565b600060028204905060018216806200092157607f821691505b6020821081141562000938576200093762000974565b5b50919050565b6200094982620009e6565b810181811067ffffffffffffffff821117156200096b576200096a620009a3565b5b80604052505050565b7f4e487b7100000000000000000000000000000000000000000000000000000000600052602260045260246000fd5b7f4e487b7100000000000000000000000000000000000000000000000000000000600052604160045260246000fd5b600080fd5b600080fd5b600080fd5b600080fd5b6000601f19601f8301169050919050565b7f4f776e61626c653a2063616c6c6572206973206e6f7420746865206f776e6572600082015250565b7f455243323938313a20726f79616c7479206665652077696c6c2065786365656460008201527f2073616c65507269636500000000000000000000000000000000000000000000602082015250565b7f455243323938313a20696e76616c696420726563656976657200000000000000600082015250565b62000aa381620008ba565b811462000aaf57600080fd5b50565b6154e28062000ac26000396000f3fe60806040526004361061027d5760003560e01c80636c0360eb1161014f578063a0712d68116100c1578063da3ef23f1161007a578063da3ef23f14610990578063e985e9c5146109b9578063f1a91a68146109f6578063f2c4ce1e14610a1f578063f2fde38b14610a48578063fdbda0ec14610a715761027d565b8063a0712d681461088f578063a22cb465146108ab578063b88d4fde146108d4578063c6682862146108fd578063c87b56dd14610928578063d547cfb7146109655761027d565b80637f00c7a6116101135780637f00c7a61461077d5780638462151c146107a65780638d859f3e146107e35780638da5cb5b1461080e5780638ea5220f1461083957806395d89b41146108645761027d565b80636c0360eb146106a857806370a08231146106d3578063715018a61461071057806372250380146107275780637b208769146107525761027d565b806332cb6b0c116101f35780634f6ccce7116101ac5780634f6ccce71461058457806351830227146105c157806355f804b3146105ec578063568bad5e146106155780635c975abb146106405780636352211e1461066b5761027d565b806332cb6b0c1461049c57806335917c64146104c75780633ccfd60b146104f257806342842e0e1461050957806344a0d68a146105325780634c2612471461055b5761027d565b806309d42b301161024557806309d42b301461037957806318160ddd146103a4578063228025e8146103cf57806323b872dd146103f85780632a55205a146104215780632f745c591461045f5761027d565b806301ffc9a71461028257806302fa7c47146102bf57806306fdde03146102e8578063081812fc14610313578063095ea7b314610350575b600080fd5b34801561028e57600080fd5b506102a960048036038101906102a49190614485565b610ab0565b6040516102b69190614b4f565b60405180910390f35b3480156102cb57600080fd5b506102e660048036038101906102e19190614445565b610b2a565b005b3480156102f457600080fd5b506102fd610bb4565b60405161030a9190614b6a565b60405180910390f35b34801561031f57600080fd5b5061033a60048036038101906103359190614528565b610c46565b6040516103479190614a7b565b60405180910390f35b34801561035c57600080fd5b5061037760048036038101906103729190614405565b610cc2565b005b34801561038557600080fd5b5061038e610dcd565b60405161039b9190614ce3565b60405180910390f35b3480156103b057600080fd5b506103b9610dd3565b6040516103c69190614ce3565b60405180910390f35b3480156103db57600080fd5b506103f660048036038101906103f19190614528565b610e28565b005b34801561040457600080fd5b5061041f600480360381019061041a91906142ef565b610eae565b005b34801561042d57600080fd5b50610448600480360381019061044391906145b1565b610ebe565b604051610456929190614ae2565b60405180910390f35b34801561046b57600080fd5b5061048660048036038101906104819190614405565b6110a9565b6040516104939190614ce3565b60405180910390f35b3480156104a857600080fd5b506104b16112b0565b6040516104be9190614ce3565b60405180910390f35b3480156104d357600080fd5b506104dc6112b6565b6040516104e99190614ce3565b60405180910390f35b3480156104fe57600080fd5b506105076112bc565b005b34801561051557600080fd5b50610530600480360381019061052b91906142ef565b611654565b005b34801561053e57600080fd5b5061055960048036038101906105549190614528565b611674565b005b34801561056757600080fd5b50610582600480360381019061057d91906144df565b6116fa565b005b34801561059057600080fd5b506105ab60048036038101906105a69190614528565b61181d565b6040516105b89190614ce3565b60405180910390f35b3480156105cd57600080fd5b506105d661198e565b6040516105e39190614b4f565b60405180910390f35b3480156105f857600080fd5b50610613600480360381019061060e91906144df565b6119a1565b005b34801561062157600080fd5b5061062a611a37565b6040516106379190614b0b565b60405180910390f35b34801561064c57600080fd5b50610655611b3c565b6040516106629190614b4f565b60405180910390f35b34801561067757600080fd5b50610692600480360381019061068d9190614528565b611b4f565b60405161069f9190614a7b565b60405180910390f35b3480156106b457600080fd5b506106bd611b65565b6040516106ca9190614b6a565b60405180910390f35b3480156106df57600080fd5b506106fa60048036038101906106f59190614282565b611bf3565b6040516107079190614ce3565b60405180910390f35b34801561071c57600080fd5b50610725611cc3565b005b34801561073357600080fd5b5061073c611d4b565b6040516107499190614b6a565b60405180910390f35b34801561075e57600080fd5b50610767611dd9565b6040516107749190614a7b565b60405180910390f35b34801561078957600080fd5b506107a4600480360381019061079f9190614528565b611dff565b005b3480156107b257600080fd5b506107cd60048036038101906107c89190614282565b611e85565b6040516107da9190614b2d565b60405180910390f35b3480156107ef57600080fd5b506107f8611f33565b6040516108059190614ce3565b60405180910390f35b34801561081a57600080fd5b50610823611f39565b6040516108309190614a7b565b60405180910390f35b34801561084557600080fd5b5061084e611f63565b60405161085b9190614a7b565b60405180910390f35b34801561087057600080fd5b50610879611f89565b6040516108869190614b6a565b60405180910390f35b6108a960048036038101906108a49190614528565b61201b565b005b3480156108b757600080fd5b506108d260048036038101906108cd91906143c5565b612028565b005b3480156108e057600080fd5b506108fb60048036038101906108f69190614342565b6121a0565b005b34801561090957600080fd5b506109126121f3565b60405161091f9190614b6a565b60405180910390f35b34801561093457600080fd5b5061094f600480360381019061094a9190614528565b612281565b60405161095c9190614b6a565b60405180910390f35b34801561097157600080fd5b5061097a6125b6565b6040516109879190614b6a565b60405180910390f35b34801561099c57600080fd5b506109b760048036038101906109b291906144df565b612644565b005b3480156109c557600080fd5b506109e060048036038101906109db91906142af565b6126da565b6040516109ed9190614b4f565b60405180910390f35b348015610a0257600080fd5b50610a1d6004803603810190610a189190614555565b61276e565b005b348015610a2b57600080fd5b50610a466004803603810190610a4191906144df565b6128a9565b005b348015610a5457600080fd5b50610a6f6004803603810190610a6a9190614282565b61293f565b005b348015610a7d57600080fd5b50610a986004803603810190610a939190614528565b612a37565b604051610aa793929190614cfe565b60405180910390f35b60007f2a55205a000000000000000000000000000000000000000000000000000000007bffffffffffffffffffffffffffffffffffffffffffffffffffffffff1916827bffffffffffffffffffffffffffffffffffffffffffffffffffffffff19161480610b235750610b2282612af9565b5b9050919050565b610b32612b73565b73ffffffffffffffffffffffffffffffffffffffff16610b50611f39565b73ffffffffffffffffffffffffffffffffffffffff1614610ba6576040517f08c379a0000000000000000000000000000000000000000000000000000000008152600401610b9d90614be3565b60405180910390fd5b610bb08282612b7b565b5050565b606060018054610bc39061508c565b80601f0160208091040260200160405190810160405280929190818152602001828054610bef9061508c565b8015610c3c5780601f10610c1157610100808354040283529160200191610c3c565b820191906000526020600020905b815481529060010190602001808311610c1f57829003601f168201915b5050505050905090565b6000610c5182612d11565b610c87576040517fcf4700e400000000000000000000000000000000000000000000000000000000815260040160405180910390fd5b6005600083815260200190815260200160002060009054906101000a900473ffffffffffffffffffffffffffffffffffffffff169050919050565b6000610ccd82611b4f565b90508073ffffffffffffffffffffffffffffffffffffffff168373ffffffffffffffffffffffffffffffffffffffff161415610d35576040517f943f7b8c00000000000000000000000000000000000000000000000000000000815260040160405180910390fd5b8073ffffffffffffffffffffffffffffffffffffffff16610d54612b73565b73ffffffffffffffffffffffffffffffffffffffff1614158015610d865750610d8481610d7f612b73565b6126da565b155b15610dbd576040517fcfb3b94200000000000000000000000000000000000000000000000000000000815260040160405180910390fd5b610dc8838383612d79565b505050565b60135481565b60008060109054906101000a90046fffffffffffffffffffffffffffffffff1660008054906101000a90046fffffffffffffffffffffffffffffffff16036fffffffffffffffffffffffffffffffff16905090565b610e30612b73565b73ffffffffffffffffffffffffffffffffffffffff16610e4e611f39565b73ffffffffffffffffffffffffffffffffffffffff1614610ea4576040517f08c379a0000000000000000000000000000000000000000000000000000000008152600401610e9b90614be3565b60405180910390fd5b8060118190555050565b610eb9838383612e2b565b505050565b6000806000600860008681526020019081526020016000206040518060400160405290816000820160009054906101000a900473ffffffffffffffffffffffffffffffffffffffff1673ffffffffffffffffffffffffffffffffffffffff1673ffffffffffffffffffffffffffffffffffffffff1681526020016000820160149054906101000a90046bffffffffffffffffffffffff166bffffffffffffffffffffffff166bffffffffffffffffffffffff16815250509050600073ffffffffffffffffffffffffffffffffffffffff16816000015173ffffffffffffffffffffffffffffffffffffffff1614156110545760076040518060400160405290816000820160009054906101000a900473ffffffffffffffffffffffffffffffffffffffff1673ffffffffffffffffffffffffffffffffffffffff1673ffffffffffffffffffffffffffffffffffffffff1681526020016000820160149054906101000a90046bffffffffffffffffffffffff166bffffffffffffffffffffffff166bffffffffffffffffffffffff168152505090505b600061105e613348565b6bffffffffffffffffffffffff1682602001516bffffffffffffffffffffffff168661108a9190614f30565b6110949190614eff565b90508160000151819350935050509250929050565b60006110b483611bf3565b82106110ec576040517f0ddac30e00000000000000000000000000000000000000000000000000000000815260040160405180910390fd5b60008060009054906101000a90046fffffffffffffffffffffffffffffffff166fffffffffffffffffffffffffffffffff16905060008060005b838110156112a4576000600360008381526020019081526020016000206040518060600160405290816000820160009054906101000a900473ffffffffffffffffffffffffffffffffffffffff1673ffffffffffffffffffffffffffffffffffffffff1673ffffffffffffffffffffffffffffffffffffffff1681526020016000820160149054906101000a900467ffffffffffffffff1667ffffffffffffffff1667ffffffffffffffff16815260200160008201601c9054906101000a900460ff16151515158152505090508060400151156112035750611297565b600073ffffffffffffffffffffffffffffffffffffffff16816000015173ffffffffffffffffffffffffffffffffffffffff161461124357806000015192505b8773ffffffffffffffffffffffffffffffffffffffff168373ffffffffffffffffffffffffffffffffffffffff161415611295578684141561128c5781955050505050506112aa565b83806001019450505b505b8080600101915050611126565b50600080fd5b92915050565b60115481565b60105481565b6112c4612b73565b73ffffffffffffffffffffffffffffffffffffffff166112e2611f39565b73ffffffffffffffffffffffffffffffffffffffff1614611338576040517f08c379a000000000000000000000000000000000000000000000000000000000815260040161132f90614be3565b60405180910390fd5b6002600a54141561137e576040517f08c379a000000000000000000000000000000000000000000000000000000000815260040161137590614ca3565b60405180910390fd5b6002600a819055506000479050600081116113ce576040517f08c379a00000000000000000000000000000000000000000000000000000000081526004016113c590614c43565b60405180910390fd5b6000601660009054906101000a900473ffffffffffffffffffffffffffffffffffffffff1673ffffffffffffffffffffffffffffffffffffffff166064600a476114189190614f30565b6114229190614eff565b60405161142e90614a66565b60006040518083038185875af1925050503d806000811461146b576040519150601f19603f3d011682016040523d82523d6000602084013e611470565b606091505b50509050806114b4576040517f08c379a00000000000000000000000000000000000000000000000000000000081526004016114ab90614c03565b60405180910390fd5b6000601760009054906101000a900473ffffffffffffffffffffffffffffffffffffffff1673ffffffffffffffffffffffffffffffffffffffff1660646005476114fe9190614f30565b6115089190614eff565b60405161151490614a66565b60006040518083038185875af1925050503d8060008114611551576040519150601f19603f3d011682016040523d82523d6000602084013e611556565b606091505b505090508061159a576040517f08c379a000000000000000000000000000000000000000000000000000000000815260040161159190614c83565b60405180910390fd5b60003373ffffffffffffffffffffffffffffffffffffffff16476040516115c090614a66565b60006040518083038185875af1925050503d80600081146115fd576040519150601f19603f3d011682016040523d82523d6000602084013e611602565b606091505b5050905080611646576040517f08c379a000000000000000000000000000000000000000000000000000000000815260040161163d90614c23565b60405180910390fd5b505050506001600a81905550565b61166f838383604051806020016040528060008152506121a0565b505050565b61167c612b73565b73ffffffffffffffffffffffffffffffffffffffff1661169a611f39565b73ffffffffffffffffffffffffffffffffffffffff16146116f0576040517f08c379a00000000000000000000000000000000000000000000000000000000081526004016116e790614be3565b60405180910390fd5b8060128190555050565b611702612b73565b73ffffffffffffffffffffffffffffffffffffffff16611720611f39565b73ffffffffffffffffffffffffffffffffffffffff1614611776576040517f08c379a000000000000000000000000000000000000000000000000000000000815260040161176d90614be3565b60405180910390fd5b61177e61401d565b6010548160000181815250506011548160200181815250508181604001819052506015819080600181540180825580915050600190039060005260206000209060030201600090919091909150600082015181600001556020820151816001015560408201518160020190805190602001906117fb92919061403e565b5050506001601460006101000a81548160ff0219169083151502179055505050565b60008060008054906101000a90046fffffffffffffffffffffffffffffffff166fffffffffffffffffffffffffffffffff1690506000805b82811015611956576000600360008381526020019081526020016000206040518060600160405290816000820160009054906101000a900473ffffffffffffffffffffffffffffffffffffffff1673ffffffffffffffffffffffffffffffffffffffff1673ffffffffffffffffffffffffffffffffffffffff1681526020016000820160149054906101000a900467ffffffffffffffff1667ffffffffffffffff1667ffffffffffffffff16815260200160008201601c9054906101000a900460ff16151515158152505090508060400151611948578583141561193f5781945050505050611989565b82806001019350505b508080600101915050611855565b506040517fa723001c00000000000000000000000000000000000000000000000000000000815260040160405180910390fd5b919050565b601460009054906101000a900460ff1681565b6119a9612b73565b73ffffffffffffffffffffffffffffffffffffffff166119c7611f39565b73ffffffffffffffffffffffffffffffffffffffff1614611a1d576040517f08c379a0000000000000000000000000000000000000000000000000000000008152600401611a1490614be3565b60405180910390fd5b80600b9080519060200190611a3392919061403e565b5050565b60606015805480602002602001604051908101604052809291908181526020016000905b82821015611b3357838290600052602060002090600302016040518060600160405290816000820154815260200160018201548152602001600282018054611aa29061508c565b80601f0160208091040260200160405190810160405280929190818152602001828054611ace9061508c565b8015611b1b5780601f10611af057610100808354040283529160200191611b1b565b820191906000526020600020905b815481529060010190602001808311611afe57829003601f168201915b50505050508152505081526020019060010190611a5b565b50505050905090565b600c60009054906101000a900460ff1681565b6000611b5a82613352565b600001519050919050565b600f8054611b729061508c565b80601f0160208091040260200160405190810160405280929190818152602001828054611b9e9061508c565b8015611beb5780601f10611bc057610100808354040283529160200191611beb565b820191906000526020600020905b815481529060010190602001808311611bce57829003601f168201915b505050505081565b60008073ffffffffffffffffffffffffffffffffffffffff168273ffffffffffffffffffffffffffffffffffffffff161415611c5b576040517f8f4eb60400000000000000000000000000000000000000000000000000000000815260040160405180910390fd5b600460008373ffffffffffffffffffffffffffffffffffffffff1673ffffffffffffffffffffffffffffffffffffffff16815260200190815260200160002060000160009054906101000a900467ffffffffffffffff1667ffffffffffffffff169050919050565b611ccb612b73565b73ffffffffffffffffffffffffffffffffffffffff16611ce9611f39565b73ffffffffffffffffffffffffffffffffffffffff1614611d3f576040517f08c379a0000000000000000000000000000000000000000000000000000000008152600401611d3690614be3565b60405180910390fd5b611d4960006135fa565b565b600e8054611d589061508c565b80601f0160208091040260200160405190810160405280929190818152602001828054611d849061508c565b8015611dd15780601f10611da657610100808354040283529160200191611dd1565b820191906000526020600020905b815481529060010190602001808311611db457829003601f168201915b505050505081565b601660009054906101000a900473ffffffffffffffffffffffffffffffffffffffff1681565b611e07612b73565b73ffffffffffffffffffffffffffffffffffffffff16611e25611f39565b73ffffffffffffffffffffffffffffffffffffffff1614611e7b576040517f08c379a0000000000000000000000000000000000000000000000000000000008152600401611e7290614be3565b60405180910390fd5b8060138190555050565b60606000611e9283611bf3565b905060008167ffffffffffffffff811115611eb057611eaf615225565b5b604051908082528060200260200182016040528015611ede5781602001602082028036833780820191505090505b50905060005b82811015611f2857611ef685826110a9565b828281518110611f0957611f086151f6565b5b6020026020010181815250508080611f20906150ef565b915050611ee4565b508092505050919050565b60125481565b6000600960009054906101000a900473ffffffffffffffffffffffffffffffffffffffff16905090565b601760009054906101000a900473ffffffffffffffffffffffffffffffffffffffff1681565b606060028054611f989061508c565b80601f0160208091040260200160405190810160405280929190818152602001828054611fc49061508c565b80156120115780601f10611fe657610100808354040283529160200191612011565b820191906000526020600020905b815481529060010190602001808311611ff457829003601f168201915b5050505050905090565b61202533826136c0565b50565b612030612b73565b73ffffffffffffffffffffffffffffffffffffffff168273ffffffffffffffffffffffffffffffffffffffff161415612095576040517fb06307db00000000000000000000000000000000000000000000000000000000815260040160405180910390fd5b80600660006120a2612b73565b73ffffffffffffffffffffffffffffffffffffffff1673ffffffffffffffffffffffffffffffffffffffff16815260200190815260200160002060008473ffffffffffffffffffffffffffffffffffffffff1673ffffffffffffffffffffffffffffffffffffffff16815260200190815260200160002060006101000a81548160ff0219169083151502179055508173ffffffffffffffffffffffffffffffffffffffff1661214f612b73565b73ffffffffffffffffffffffffffffffffffffffff167f17307eab39ab6107e8899845ad3d59bd9653f200f220920489ca2b5937696c31836040516121949190614b4f565b60405180910390a35050565b6121ab848484612e2b565b6121b7848484846136de565b6121ed576040517fd1a57ed600000000000000000000000000000000000000000000000000000000815260040160405180910390fd5b50505050565b600d80546122009061508c565b80601f016020809104026020016040519081016040528092919081815260200182805461222c9061508c565b80156122795780601f1061224e57610100808354040283529160200191612279565b820191906000526020600020905b81548152906001019060200180831161225c57829003601f168201915b505050505081565b606061228c82612d11565b6122c2576040517f25dca1e600000000000000000000000000000000000000000000000000000000815260040160405180910390fd5b601460009054906101000a900460ff161580156122e157506010548210155b1561237857600e80546122f39061508c565b80601f016020809104026020016040519081016040528092919081815260200182805461231f9061508c565b801561236c5780601f106123415761010080835404028352916020019161236c565b820191906000526020600020905b81548152906001019060200180831161234f57829003601f168201915b505050505090506125b1565b60006015805480602002602001604051908101604052809291908181526020016000905b82821015612474578382906000526020600020906003020160405180606001604052908160008201548152602001600182015481526020016002820180546123e39061508c565b80601f016020809104026020016040519081016040528092919081815260200182805461240f9061508c565b801561245c5780601f106124315761010080835404028352916020019161245c565b820191906000526020600020905b81548152906001019060200180831161243f57829003601f168201915b5050505050815250508152602001906001019061239c565b50505050905060005b815181101561259c57818181518110612499576124986151f6565b5b602002602001015160200151841015612589576125096040518060400160405280600881526020017f544845205552493a0000000000000000000000000000000000000000000000008152508383815181106124f8576124f76151f6565b5b60200260200101516040015161386c565b81818151811061251c5761251b6151f6565b5b602002602001015160000151846125339190614f8a565b9350818181518110612548576125476151f6565b5b60200260200101516040015161255d85613908565b600d60405160200161257193929190614a35565b604051602081830303815290604052925050506125b1565b8080612594906150ef565b91505061247d565b50604051806020016040528060008152509150505b919050565b600b80546125c39061508c565b80601f01602080910402602001604051908101604052809291908181526020018280546125ef9061508c565b801561263c5780601f106126115761010080835404028352916020019161263c565b820191906000526020600020905b81548152906001019060200180831161261f57829003601f168201915b505050505081565b61264c612b73565b73ffffffffffffffffffffffffffffffffffffffff1661266a611f39565b73ffffffffffffffffffffffffffffffffffffffff16146126c0576040517f08c379a00000000000000000000000000000000000000000000000000000000081526004016126b790614be3565b60405180910390fd5b80600d90805190602001906126d692919061403e565b5050565b6000600660008473ffffffffffffffffffffffffffffffffffffffff1673ffffffffffffffffffffffffffffffffffffffff16815260200190815260200160002060008373ffffffffffffffffffffffffffffffffffffffff1673ffffffffffffffffffffffffffffffffffffffff16815260200190815260200160002060009054906101000a900460ff16905092915050565b612776612b73565b73ffffffffffffffffffffffffffffffffffffffff16612794611f39565b73ffffffffffffffffffffffffffffffffffffffff16146127ea576040517f08c379a00000000000000000000000000000000000000000000000000000000081526004016127e190614be3565b60405180910390fd5b6011546127f5610dd3565b1461282c576040517f697526e000000000000000000000000000000000000000000000000000000000815260040160405180910390fd5b60001515601460009054906101000a900460ff161515141561287a576040517fdc8eb7a200000000000000000000000000000000000000000000000000000000815260040160405180910390fd5b601154601081905550816011819055506000601460006101000a81548160ff0219169083151502179055505050565b6128b1612b73565b73ffffffffffffffffffffffffffffffffffffffff166128cf611f39565b73ffffffffffffffffffffffffffffffffffffffff1614612925576040517f08c379a000000000000000000000000000000000000000000000000000000000815260040161291c90614be3565b60405180910390fd5b80600e908051906020019061293b92919061403e565b5050565b612947612b73565b73ffffffffffffffffffffffffffffffffffffffff16612965611f39565b73ffffffffffffffffffffffffffffffffffffffff16146129bb576040517f08c379a00000000000000000000000000000000000000000000000000000000081526004016129b290614be3565b60405180910390fd5b600073ffffffffffffffffffffffffffffffffffffffff168173ffffffffffffffffffffffffffffffffffffffff161415612a2b576040517f08c379a0000000000000000000000000000000000000000000000000000000008152600401612a2290614bc3565b60405180910390fd5b612a34816135fa565b50565b60158181548110612a4757600080fd5b9060005260206000209060030201600091509050806000015490806001015490806002018054612a769061508c565b80601f0160208091040260200160405190810160405280929190818152602001828054612aa29061508c565b8015612aef5780601f10612ac457610100808354040283529160200191612aef565b820191906000526020600020905b815481529060010190602001808311612ad257829003601f168201915b5050505050905083565b60007f2a55205a000000000000000000000000000000000000000000000000000000007bffffffffffffffffffffffffffffffffffffffffffffffffffffffff1916827bffffffffffffffffffffffffffffffffffffffffffffffffffffffff19161480612b6c5750612b6b82613a69565b5b9050919050565b600033905090565b612b83613348565b6bffffffffffffffffffffffff16816bffffffffffffffffffffffff161115612be1576040517f08c379a0000000000000000000000000000000000000000000000000000000008152600401612bd890614c63565b60405180910390fd5b600073ffffffffffffffffffffffffffffffffffffffff168273ffffffffffffffffffffffffffffffffffffffff161415612c51576040517f08c379a0000000000000000000000000000000000000000000000000000000008152600401612c4890614cc3565b60405180910390fd5b60405180604001604052808373ffffffffffffffffffffffffffffffffffffffff168152602001826bffffffffffffffffffffffff16815250600760008201518160000160006101000a81548173ffffffffffffffffffffffffffffffffffffffff021916908373ffffffffffffffffffffffffffffffffffffffff16021790555060208201518160000160146101000a8154816bffffffffffffffffffffffff02191690836bffffffffffffffffffffffff1602179055509050505050565b60008060009054906101000a90046fffffffffffffffffffffffffffffffff166fffffffffffffffffffffffffffffffff1682108015612d72575060036000838152602001908152602001600020600001601c9054906101000a900460ff16155b9050919050565b826005600084815260200190815260200160002060006101000a81548173ffffffffffffffffffffffffffffffffffffffff021916908373ffffffffffffffffffffffffffffffffffffffff160217905550818373ffffffffffffffffffffffffffffffffffffffff168273ffffffffffffffffffffffffffffffffffffffff167f8c5be1e5ebec7d5bd14f71427d1e84f3dd0314c0f7b2291e5b200ac8c7c3b92560405160405180910390a4505050565b6000612e3682613352565b90506000816000015173ffffffffffffffffffffffffffffffffffffffff16612e5d612b73565b73ffffffffffffffffffffffffffffffffffffffff161480612e905750612e8f8260000151612e8a612b73565b6126da565b5b80612ed55750612e9e612b73565b73ffffffffffffffffffffffffffffffffffffffff16612ebd84610c46565b73ffffffffffffffffffffffffffffffffffffffff16145b905080612f0e576040517f59c896be00000000000000000000000000000000000000000000000000000000815260040160405180910390fd5b8473ffffffffffffffffffffffffffffffffffffffff16826000015173ffffffffffffffffffffffffffffffffffffffff1614612f77576040517fa114810000000000000000000000000000000000000000000000000000000000815260040160405180910390fd5b600073ffffffffffffffffffffffffffffffffffffffff168473ffffffffffffffffffffffffffffffffffffffff161415612fde576040517fea553b3400000000000000000000000000000000000000000000000000000000815260040160405180910390fd5b612feb8585856001613bb3565b612ffb6000848460000151612d79565b6001600460008773ffffffffffffffffffffffffffffffffffffffff1673ffffffffffffffffffffffffffffffffffffffff16815260200190815260200160002060000160008282829054906101000a900467ffffffffffffffff160392506101000a81548167ffffffffffffffff021916908367ffffffffffffffff1602179055506001600460008673ffffffffffffffffffffffffffffffffffffffff1673ffffffffffffffffffffffffffffffffffffffff16815260200190815260200160002060000160008282829054906101000a900467ffffffffffffffff160192506101000a81548167ffffffffffffffff021916908367ffffffffffffffff160217905550836003600085815260200190815260200160002060000160006101000a81548173ffffffffffffffffffffffffffffffffffffffff021916908373ffffffffffffffffffffffffffffffffffffffff160217905550426003600085815260200190815260200160002060000160146101000a81548167ffffffffffffffff021916908367ffffffffffffffff1602179055506000600184019050600073ffffffffffffffffffffffffffffffffffffffff166003600083815260200190815260200160002060000160009054906101000a900473ffffffffffffffffffffffffffffffffffffffff1673ffffffffffffffffffffffffffffffffffffffff1614156132d85760008054906101000a90046fffffffffffffffffffffffffffffffff166fffffffffffffffffffffffffffffffff168110156132d75782600001516003600083815260200190815260200160002060000160006101000a81548173ffffffffffffffffffffffffffffffffffffffff021916908373ffffffffffffffffffffffffffffffffffffffff16021790555082602001516003600083815260200190815260200160002060000160146101000a81548167ffffffffffffffff021916908367ffffffffffffffff1602179055505b5b50828473ffffffffffffffffffffffffffffffffffffffff168673ffffffffffffffffffffffffffffffffffffffff167fddf252ad1be2c89b69c2b068fc378daa952ba7f163c4a11628f55a4df523b3ef60405160405180910390a46133418585856001613bb9565b5050505050565b6000612710905090565b61335a6140c4565b600082905060008054906101000a90046fffffffffffffffffffffffffffffffff166fffffffffffffffffffffffffffffffff168110156135c3576000600360008381526020019081526020016000206040518060600160405290816000820160009054906101000a900473ffffffffffffffffffffffffffffffffffffffff1673ffffffffffffffffffffffffffffffffffffffff1673ffffffffffffffffffffffffffffffffffffffff1681526020016000820160149054906101000a900467ffffffffffffffff1667ffffffffffffffff1667ffffffffffffffff16815260200160008201601c9054906101000a900460ff161515151581525050905080604001516135c157600073ffffffffffffffffffffffffffffffffffffffff16816000015173ffffffffffffffffffffffffffffffffffffffff16146134a55780925050506135f5565b5b6001156135c057818060019003925050600360008381526020019081526020016000206040518060600160405290816000820160009054906101000a900473ffffffffffffffffffffffffffffffffffffffff1673ffffffffffffffffffffffffffffffffffffffff1673ffffffffffffffffffffffffffffffffffffffff1681526020016000820160149054906101000a900467ffffffffffffffff1667ffffffffffffffff1667ffffffffffffffff16815260200160008201601c9054906101000a900460ff1615151515815250509050600073ffffffffffffffffffffffffffffffffffffffff16816000015173ffffffffffffffffffffffffffffffffffffffff16146135bb5780925050506135f5565b6134a6565b5b505b6040517fdf2d9b4200000000000000000000000000000000000000000000000000000000815260040160405180910390fd5b919050565b6000600960009054906101000a900473ffffffffffffffffffffffffffffffffffffffff16905081600960006101000a81548173ffffffffffffffffffffffffffffffffffffffff021916908373ffffffffffffffffffffffffffffffffffffffff1602179055508173ffffffffffffffffffffffffffffffffffffffff168173ffffffffffffffffffffffffffffffffffffffff167f8be0079c531659141344cd1fd0a4f28419497f9722a3daafe3b4186f6b6457e060405160405180910390a35050565b6136da828260405180602001604052806000815250613bbf565b5050565b60006136ff8473ffffffffffffffffffffffffffffffffffffffff16613bd1565b1561385f578373ffffffffffffffffffffffffffffffffffffffff1663150b7a02613728612b73565b8786866040518563ffffffff1660e01b815260040161374a9493929190614a96565b602060405180830381600087803b15801561376457600080fd5b505af192505050801561379557506040513d601f19601f8201168201806040525081019061379291906144b2565b60015b61380f573d80600081146137c5576040519150601f19603f3d011682016040523d82523d6000602084013e6137ca565b606091505b50600081511415613807576040517fd1a57ed600000000000000000000000000000000000000000000000000000000815260040160405180910390fd5b805181602001fd5b63150b7a0260e01b7bffffffffffffffffffffffffffffffffffffffffffffffffffffffff1916817bffffffffffffffffffffffffffffffffffffffffffffffffffffffff191614915050613864565b600190505b949350505050565b6139048282604051602401613882929190614b8c565b6040516020818303038152906040527f4b5c4277000000000000000000000000000000000000000000000000000000007bffffffffffffffffffffffffffffffffffffffffffffffffffffffff19166020820180517bffffffffffffffffffffffffffffffffffffffffffffffffffffffff8381831617835250505050613bf4565b5050565b60606000821415613950576040518060400160405280600181526020017f30000000000000000000000000000000000000000000000000000000000000008152509050613a64565b600082905060005b6000821461398257808061396b906150ef565b915050600a8261397b9190614eff565b9150613958565b60008167ffffffffffffffff81111561399e5761399d615225565b5b6040519080825280601f01601f1916602001820160405280156139d05781602001600182028036833780820191505090505b5090505b60008514613a5d576001826139e99190614f8a565b9150600a856139f89190615138565b6030613a049190614ea9565b60f81b818381518110613a1a57613a196151f6565b5b60200101907effffffffffffffffffffffffffffffffffffffffffffffffffffffffffffff1916908160001a905350600a85613a569190614eff565b94506139d4565b8093505050505b919050565b60007f80ac58cd000000000000000000000000000000000000000000000000000000007bffffffffffffffffffffffffffffffffffffffffffffffffffffffff1916827bffffffffffffffffffffffffffffffffffffffffffffffffffffffff19161480613b3457507f5b5e139f000000000000000000000000000000000000000000000000000000007bffffffffffffffffffffffffffffffffffffffffffffffffffffffff1916827bffffffffffffffffffffffffffffffffffffffffffffffffffffffff1916145b80613b9c57507f780e9d63000000000000000000000000000000000000000000000000000000007bffffffffffffffffffffffffffffffffffffffffffffffffffffffff1916827bffffffffffffffffffffffffffffffffffffffffffffffffffffffff1916145b80613bac5750613bab82613c1d565b5b9050919050565b50505050565b50505050565b613bcc8383836001613c87565b505050565b6000808273ffffffffffffffffffffffffffffffffffffffff163b119050919050565b60008151905060006a636f6e736f6c652e6c6f679050602083016000808483855afa5050505050565b60007f01ffc9a7000000000000000000000000000000000000000000000000000000007bffffffffffffffffffffffffffffffffffffffffffffffffffffffff1916827bffffffffffffffffffffffffffffffffffffffffffffffffffffffff1916149050919050565b60008060009054906101000a90046fffffffffffffffffffffffffffffffff166fffffffffffffffffffffffffffffffff169050600073ffffffffffffffffffffffffffffffffffffffff168573ffffffffffffffffffffffffffffffffffffffff161415613d22576040517f2e07630000000000000000000000000000000000000000000000000000000000815260040160405180910390fd5b6000841415613d5d576040517fb562e8dd00000000000000000000000000000000000000000000000000000000815260040160405180910390fd5b613d6a6000868387613bb3565b83600460008773ffffffffffffffffffffffffffffffffffffffff1673ffffffffffffffffffffffffffffffffffffffff16815260200190815260200160002060000160008282829054906101000a900467ffffffffffffffff160192506101000a81548167ffffffffffffffff021916908367ffffffffffffffff16021790555083600460008773ffffffffffffffffffffffffffffffffffffffff1673ffffffffffffffffffffffffffffffffffffffff16815260200190815260200160002060000160088282829054906101000a900467ffffffffffffffff160192506101000a81548167ffffffffffffffff021916908367ffffffffffffffff160217905550846003600083815260200190815260200160002060000160006101000a81548173ffffffffffffffffffffffffffffffffffffffff021916908373ffffffffffffffffffffffffffffffffffffffff160217905550426003600083815260200190815260200160002060000160146101000a81548167ffffffffffffffff021916908367ffffffffffffffff160217905550600081905060005b85811015613fcf57818773ffffffffffffffffffffffffffffffffffffffff16600073ffffffffffffffffffffffffffffffffffffffff167fddf252ad1be2c89b69c2b068fc378daa952ba7f163c4a11628f55a4df523b3ef60405160405180910390a4838015613f835750613f8160008884886136de565b155b15613fba576040517fd1a57ed600000000000000000000000000000000000000000000000000000000815260040160405180910390fd5b81806001019250508080600101915050613f08565b50806000806101000a8154816fffffffffffffffffffffffffffffffff02191690836fffffffffffffffffffffffffffffffff160217905550506140166000868387613bb9565b5050505050565b60405180606001604052806000815260200160008152602001606081525090565b82805461404a9061508c565b90600052602060002090601f01602090048101928261406c57600085556140b3565b82601f1061408557805160ff19168380011785556140b3565b828001600101855582156140b3579182015b828111156140b2578251825591602001919060010190614097565b5b5090506140c09190614107565b5090565b6040518060600160405280600073ffffffffffffffffffffffffffffffffffffffff168152602001600067ffffffffffffffff1681526020016000151581525090565b5b80821115614120576000816000905550600101614108565b5090565b600061413761413284614d61565b614d3c565b90508281526020810184848401111561415357614152615259565b5b61415e84828561504a565b509392505050565b600061417961417484614d92565b614d3c565b90508281526020810184848401111561419557614194615259565b5b6141a084828561504a565b509392505050565b6000813590506141b781615439565b92915050565b6000813590506141cc81615450565b92915050565b6000813590506141e181615467565b92915050565b6000815190506141f681615467565b92915050565b600082601f83011261421157614210615254565b5b8135614221848260208601614124565b91505092915050565b600082601f83011261423f5761423e615254565b5b813561424f848260208601614166565b91505092915050565b6000813590506142678161547e565b92915050565b60008135905061427c81615495565b92915050565b60006020828403121561429857614297615263565b5b60006142a6848285016141a8565b91505092915050565b600080604083850312156142c6576142c5615263565b5b60006142d4858286016141a8565b92505060206142e5858286016141a8565b9150509250929050565b60008060006060848603121561430857614307615263565b5b6000614316868287016141a8565b9350506020614327868287016141a8565b925050604061433886828701614258565b9150509250925092565b6000806000806080858703121561435c5761435b615263565b5b600061436a878288016141a8565b945050602061437b878288016141a8565b935050604061438c87828801614258565b925050606085013567ffffffffffffffff8111156143ad576143ac61525e565b5b6143b9878288016141fc565b91505092959194509250565b600080604083850312156143dc576143db615263565b5b60006143ea858286016141a8565b92505060206143fb858286016141bd565b9150509250929050565b6000806040838503121561441c5761441b615263565b5b600061442a858286016141a8565b925050602061443b85828601614258565b9150509250929050565b6000806040838503121561445c5761445b615263565b5b600061446a858286016141a8565b925050602061447b8582860161426d565b9150509250929050565b60006020828403121561449b5761449a615263565b5b60006144a9848285016141d2565b91505092915050565b6000602082840312156144c8576144c7615263565b5b60006144d6848285016141e7565b91505092915050565b6000602082840312156144f5576144f4615263565b5b600082013567ffffffffffffffff8111156145135761451261525e565b5b61451f8482850161422a565b91505092915050565b60006020828403121561453e5761453d615263565b5b600061454c84828501614258565b91505092915050565b6000806040838503121561456c5761456b615263565b5b600061457a85828601614258565b925050602083013567ffffffffffffffff81111561459b5761459a61525e565b5b6145a78582860161422a565b9150509250929050565b600080604083850312156145c8576145c7615263565b5b60006145d685828601614258565b92505060206145e785828601614258565b9150509250929050565b60006145fd83836149c7565b905092915050565b60006146118383614a17565b60208301905092915050565b61462681614fbe565b82525050565b600061463782614df8565b6146418185614e3e565b93508360208202850161465385614dc3565b8060005b8581101561468f578484038952815161467085826145f1565b945061467b83614e24565b925060208a01995050600181019050614657565b50829750879550505050505092915050565b60006146ac82614e03565b6146b68185614e4f565b93506146c183614dd3565b8060005b838110156146f25781516146d98882614605565b97506146e483614e31565b9250506001810190506146c5565b5085935050505092915050565b61470881614fd0565b82525050565b600061471982614e0e565b6147238185614e60565b9350614733818560208601615059565b61473c81615268565b840191505092915050565b600061475282614e19565b61475c8185614e7c565b935061476c818560208601615059565b61477581615268565b840191505092915050565b600061478b82614e19565b6147958185614e8d565b93506147a5818560208601615059565b6147ae81615268565b840191505092915050565b60006147c482614e19565b6147ce8185614e9e565b93506147de818560208601615059565b80840191505092915050565b600081546147f78161508c565b6148018186614e9e565b9450600182166000811461481c576001811461482d57614860565b60ff19831686528186019350614860565b61483685614de3565b60005b8381101561485857815481890152600182019150602081019050614839565b838801955050505b50505092915050565b6000614876602683614e8d565b915061488182615279565b604082019050919050565b6000614899602083614e8d565b91506148a4826152c8565b602082019050919050565b60006148bc601883614e8d565b91506148c7826152f1565b602082019050919050565b60006148df600083614e71565b91506148ea8261531a565b600082019050919050565b6000614902601083614e8d565b915061490d8261531d565b602082019050919050565b6000614925601a83614e8d565b915061493082615346565b602082019050919050565b6000614948602a83614e8d565b91506149538261536f565b604082019050919050565b600061496b601a83614e8d565b9150614976826153be565b602082019050919050565b600061498e601f83614e8d565b9150614999826153e7565b602082019050919050565b60006149b1601983614e8d565b91506149bc82615410565b602082019050919050565b60006060830160008301516149df6000860182614a17565b5060208301516149f26020860182614a17565b5060408301518482036040860152614a0a8282614747565b9150508091505092915050565b614a2081615028565b82525050565b614a2f81615028565b82525050565b6000614a4182866147b9565b9150614a4d82856147b9565b9150614a5982846147ea565b9150819050949350505050565b6000614a71826148d2565b9150819050919050565b6000602082019050614a90600083018461461d565b92915050565b6000608082019050614aab600083018761461d565b614ab8602083018661461d565b614ac56040830185614a26565b8181036060830152614ad7818461470e565b905095945050505050565b6000604082019050614af7600083018561461d565b614b046020830184614a26565b9392505050565b60006020820190508181036000830152614b25818461462c565b905092915050565b60006020820190508181036000830152614b4781846146a1565b905092915050565b6000602082019050614b6460008301846146ff565b92915050565b60006020820190508181036000830152614b848184614780565b905092915050565b60006040820190508181036000830152614ba68185614780565b90508181036020830152614bba8184614780565b90509392505050565b60006020820190508181036000830152614bdc81614869565b9050919050565b60006020820190508181036000830152614bfc8161488c565b9050919050565b60006020820190508181036000830152614c1c816148af565b9050919050565b60006020820190508181036000830152614c3c816148f5565b9050919050565b60006020820190508181036000830152614c5c81614918565b9050919050565b60006020820190508181036000830152614c7c8161493b565b9050919050565b60006020820190508181036000830152614c9c8161495e565b9050919050565b60006020820190508181036000830152614cbc81614981565b9050919050565b60006020820190508181036000830152614cdc816149a4565b9050919050565b6000602082019050614cf86000830184614a26565b92915050565b6000606082019050614d136000830186614a26565b614d206020830185614a26565b8181036040830152614d328184614780565b9050949350505050565b6000614d46614d57565b9050614d5282826150be565b919050565b6000604051905090565b600067ffffffffffffffff821115614d7c57614d7b615225565b5b614d8582615268565b9050602081019050919050565b600067ffffffffffffffff821115614dad57614dac615225565b5b614db682615268565b9050602081019050919050565b6000819050602082019050919050565b6000819050602082019050919050565b60008190508160005260206000209050919050565b600081519050919050565b600081519050919050565b600081519050919050565b600081519050919050565b6000602082019050919050565b6000602082019050919050565b600082825260208201905092915050565b600082825260208201905092915050565b600082825260208201905092915050565b600081905092915050565b600082825260208201905092915050565b600082825260208201905092915050565b600081905092915050565b6000614eb482615028565b9150614ebf83615028565b9250827fffffffffffffffffffffffffffffffffffffffffffffffffffffffffffffffff03821115614ef457614ef3615169565b5b828201905092915050565b6000614f0a82615028565b9150614f1583615028565b925082614f2557614f24615198565b5b828204905092915050565b6000614f3b82615028565b9150614f4683615028565b9250817fffffffffffffffffffffffffffffffffffffffffffffffffffffffffffffffff0483118215151615614f7f57614f7e615169565b5b828202905092915050565b6000614f9582615028565b9150614fa083615028565b925082821015614fb357614fb2615169565b5b828203905092915050565b6000614fc982615008565b9050919050565b60008115159050919050565b60007fffffffff0000000000000000000000000000000000000000000000000000000082169050919050565b600073ffffffffffffffffffffffffffffffffffffffff82169050919050565b6000819050919050565b60006bffffffffffffffffffffffff82169050919050565b82818337600083830152505050565b60005b8381101561507757808201518184015260208101905061505c565b83811115615086576000848401525b50505050565b600060028204905060018216806150a457607f821691505b602082108114156150b8576150b76151c7565b5b50919050565b6150c782615268565b810181811067ffffffffffffffff821117156150e6576150e5615225565b5b80604052505050565b60006150fa82615028565b91507fffffffffffffffffffffffffffffffffffffffffffffffffffffffffffffffff82141561512d5761512c615169565b5b600182019050919050565b600061514382615028565b915061514e83615028565b92508261515e5761515d615198565b5b828206905092915050565b7f4e487b7100000000000000000000000000000000000000000000000000000000600052601160045260246000fd5b7f4e487b7100000000000000000000000000000000000000000000000000000000600052601260045260246000fd5b7f4e487b7100000000000000000000000000000000000000000000000000000000600052602260045260246000fd5b7f4e487b7100000000000000000000000000000000000000000000000000000000600052603260045260246000fd5b7f4e487b7100000000000000000000000000000000000000000000000000000000600052604160045260246000fd5b600080fd5b600080fd5b600080fd5b600080fd5b6000601f19601f8301169050919050565b7f4f776e61626c653a206e6577206f776e657220697320746865207a65726f206160008201527f6464726573730000000000000000000000000000000000000000000000000000602082015250565b7f4f776e61626c653a2063616c6c6572206973206e6f7420746865206f776e6572600082015250565b7f43686172697479205472616e73666572206661696c65642e0000000000000000600082015250565b50565b7f5472616e73666572206661696c65642e00000000000000000000000000000000600082015250565b7f4e6f206574686572206c65667420746f2077697468647261772e000000000000600082015250565b7f455243323938313a20726f79616c7479206665652077696c6c2065786365656460008201527f2073616c65507269636500000000000000000000000000000000000000000000602082015250565b7f446576656c6f706572205472616e73666572206661696c65642e000000000000600082015250565b7f5265656e7472616e637947756172643a207265656e7472616e742063616c6c00600082015250565b7f455243323938313a20696e76616c696420726563656976657200000000000000600082015250565b61544281614fbe565b811461544d57600080fd5b50565b61545981614fd0565b811461546457600080fd5b50565b61547081614fdc565b811461547b57600080fd5b50565b61548781615028565b811461549257600080fd5b50565b61549e81615032565b81146154a957600080fd5b5056fea2646970667358221220fef301f1da29e0dde83afc361673a5a5d15bb5c06b7a953f34997c0d2e3afb9f64736f6c63430008070033",
  "linkReferences": {},
  "deployedLinkReferences": {}
}